{
  "_format": "hh-sol-artifact-1",
  "contractName": "ScriptEngine",
  "sourceName": "contracts/ScriptEngine.sol",
  "abi": [
    {
      "inputs": [],
      "name": "boundedMTRG",
      "outputs": [
        {
          "internalType": "uint256",
          "name": "",
          "type": "uint256"
        }
      ],
      "stateMutability": "view",
      "type": "function"
    },
    {
      "inputs": [
        {
          "internalType": "bytes32",
          "name": "bucketID",
          "type": "bytes32"
        }
      ],
      "name": "bucketClose",
      "outputs": [],
      "stateMutability": "nonpayable",
      "type": "function"
    },
    {
      "inputs": [
        {
          "internalType": "bytes32",
          "name": "bucketID",
          "type": "bytes32"
        },
        {
          "internalType": "uint256",
          "name": "amount",
          "type": "uint256"
        }
      ],
      "name": "bucketDeposit",
      "outputs": [],
      "stateMutability": "nonpayable",
      "type": "function"
    },
    {
      "inputs": [
        {
          "internalType": "address",
          "name": "candidate",
          "type": "address"
        },
        {
          "internalType": "uint256",
          "name": "amount",
          "type": "uint256"
        }
      ],
      "name": "bucketOpen",
      "outputs": [
        {
          "internalType": "bytes32",
          "name": "bktID",
          "type": "bytes32"
        }
      ],
      "stateMutability": "nonpayable",
      "type": "function"
    },
    {
      "inputs": [
        {
          "internalType": "bytes32",
          "name": "bucketID",
          "type": "bytes32"
        },
        {
          "internalType": "address",
          "name": "newCandidateAddr",
          "type": "address"
        }
      ],
      "name": "bucketUpdateCandidate",
      "outputs": [],
      "stateMutability": "nonpayable",
      "type": "function"
    },
    {
      "inputs": [
        {
          "internalType": "bytes32",
          "name": "bucketID",
          "type": "bytes32"
        },
        {
          "internalType": "uint256",
          "name": "amount",
          "type": "uint256"
        },
        {
          "internalType": "address",
          "name": "recipient",
          "type": "address"
        }
      ],
      "name": "bucketWithdraw",
      "outputs": [
        {
          "internalType": "bytes32",
          "name": "newBktID",
          "type": "bytes32"
        }
      ],
      "stateMutability": "nonpayable",
      "type": "function"
    }
  ],
  "bytecode": "0x6080604052600080546001600160a01b0319166a4d657465724e617469766517905534801561002d57600080fd5b506108068061003d6000396000f3fe608060405234801561001057600080fd5b50600436106100725760003560e01c80634a829210116100505780634a829210146100b9578063561f97be146100cc57806377d7f913146100df57600080fd5b80631b7846c0146100775780633060ef721461008c5780633a8dd82a146100b1575b600080fd5b61008a610085366004610538565b6100f2565b005b61009f61009a366004610576565b6101db565b60405190815260200160405180910390f35b61009f6102c1565b61008a6100c73660046105a0565b610333565b61009f6100da3660046105cc565b610373565b61008a6100ed366004610601565b610461565b6000805460405163098b0dff60e31b815233600482015260248101859052604481018490526001600160a01b0390911690634c586ff8906064015b6000604051808303816000875af115801561014c573d6000803e3d6000fd5b505050506040513d6000823e601f3d908101601f1916820160405261017491908101906106e4565b6040805160008152602081018083528151902092935061019691849101610721565b604051602081830303815290604052805190602001201481906101d55760405162461bcd60e51b81526004016101cc919061073d565b60405180910390fd5b50505050565b60008054604051632c57771560e11b81523360048201526001600160a01b0385811660248301526044820185905260609216906358aeee2a906064016000604051808303816000875af1158015610236573d6000803e3d6000fd5b505050506040513d6000823e601f3d908101601f1916820160405261025e9190810190610770565b6040805160008152602081018083528151902093955091935061028391849101610721565b604051602081830303815290604052805190602001201481906102b95760405162461bcd60e51b81526004016101cc919061073d565b505092915050565b600080546040516398c6fb8d60e01b81523360048201526001600160a01b03909116906398c6fb8d90602401602060405180830381865afa15801561030a573d6000803e3d6000fd5b505050506040513d601f19601f8201168201806040525081019061032e91906107b7565b905090565b60008054604051630ea4f86760e41b8152336004820152602481018590526001600160a01b0384811660448301529091169063ea4f86709060640161012d565b60008054604051634c0f7d2360e11b815233600482015260248101869052604481018590526001600160a01b038481166064830152606092169063981efa46906084016000604051808303816000875af11580156103d5573d6000803e3d6000fd5b505050506040513d6000823e601f3d908101601f191682016040526103fd9190810190610770565b6040805160008152602081018083528151902093955091935061042291849101610721565b604051602081830303815290604052805190602001201481906104585760405162461bcd60e51b81526004016101cc919061073d565b50509392505050565b60008054604051633a61b1d160e21b8152336004820152602481018490526001600160a01b039091169063e986c744906044016000604051808303816000875af11580156104b3573d6000803e3d6000fd5b505050506040513d6000823e601f3d908101601f191682016040526104db91908101906106e4565b604080516000815260208101808352815190209293506104fd91849101610721565b604051602081830303815290604052805190602001201481906105335760405162461bcd60e51b81526004016101cc919061073d565b505050565b6000806040838503121561054b57600080fd5b50508035926020909101359150565b80356001600160a01b038116811461057157600080fd5b919050565b6000806040838503121561058957600080fd5b6105928361055a565b946020939093013593505050565b600080604083850312156105b357600080fd5b823591506105c36020840161055a565b90509250929050565b6000806000606084860312156105e157600080fd5b83359250602084013591506105f86040850161055a565b90509250925092565b60006020828403121561061357600080fd5b5035919050565b634e487b7160e01b600052604160045260246000fd5b60005b8381101561064b578181015183820152602001610633565b838111156101d55750506000910152565b600082601f83011261066d57600080fd5b815167ffffffffffffffff808211156106885761068861061a565b604051601f8301601f19908116603f011681019082821181831017156106b0576106b061061a565b816040528381528660208588010111156106c957600080fd5b6106da846020830160208901610630565b9695505050505050565b6000602082840312156106f657600080fd5b815167ffffffffffffffff81111561070d57600080fd5b6107198482850161065c565b949350505050565b60008251610733818460208701610630565b9190910192915050565b602081526000825180602084015261075c816040850160208701610630565b601f01601f19169190910160400192915050565b6000806040838503121561078357600080fd5b82519150602083015167ffffffffffffffff8111156107a157600080fd5b6107ad8582860161065c565b9150509250929050565b6000602082840312156107c957600080fd5b505191905056fea26469706673582212209ed464ef3a678cc4fcd47c904200f5813521e082a8cd8cd6f4c1b8f65949031264736f6c634300080b0033",
  "linkReferences": {},
  "deployedLinkReferences": {}
}