{
  "_format": "hh-sol-artifact-1",
  "contractName": "ScriptEngine",
  "sourceName": "contracts/ScriptEngine.sol",
  "abi": [
    {
      "inputs": [],
      "name": "boundedMTRG",
      "outputs": [
        {
          "internalType": "uint256",
          "name": "",
          "type": "uint256"
        }
      ],
      "stateMutability": "view",
      "type": "function"
    },
    {
      "inputs": [
        {
          "internalType": "bytes32",
          "name": "bucketID",
          "type": "bytes32"
        }
      ],
      "name": "bucketClose",
      "outputs": [],
      "stateMutability": "nonpayable",
      "type": "function"
    },
    {
      "inputs": [
        {
          "internalType": "bytes32",
          "name": "bucketID",
          "type": "bytes32"
        },
        {
          "internalType": "uint256",
          "name": "amount",
          "type": "uint256"
        }
      ],
      "name": "bucketDeposit",
      "outputs": [],
      "stateMutability": "nonpayable",
      "type": "function"
    },
    {
      "inputs": [
        {
          "internalType": "address",
          "name": "candidate",
          "type": "address"
        },
        {
          "internalType": "uint256",
          "name": "amount",
          "type": "uint256"
        }
      ],
      "name": "bucketOpen",
      "outputs": [
        {
          "internalType": "bytes32",
          "name": "bktID",
          "type": "bytes32"
        }
      ],
      "stateMutability": "nonpayable",
      "type": "function"
    },
    {
      "inputs": [
        {
          "internalType": "bytes32",
          "name": "bucketID",
          "type": "bytes32"
        },
        {
          "internalType": "uint256",
          "name": "amount",
          "type": "uint256"
        },
        {
          "internalType": "address",
          "name": "recipient",
          "type": "address"
        }
      ],
      "name": "bucketWithdraw",
      "outputs": [
        {
          "internalType": "bytes32",
          "name": "newBktID",
          "type": "bytes32"
        }
      ],
      "stateMutability": "nonpayable",
      "type": "function"
    }
  ],
  "bytecode": "0x6080604052600080546001600160a01b0319166a4d657465724e617469766517905534801561002d57600080fd5b5061076b8061003d6000396000f3fe608060405234801561001057600080fd5b50600436106100575760003560e01c80631b7846c01461005c5780633060ef72146100715780633a8dd82a14610096578063561f97be1461009e57806377d7f913146100b1575b600080fd5b61006f61006a3660046104c9565b6100c4565b005b61008461007f366004610507565b6101ac565b60405190815260200160405180910390f35b610084610292565b6100846100ac366004610531565b610304565b61006f6100bf366004610566565b6103f2565b6000805460405163098b0dff60e31b815233600482015260248101859052604481018490526001600160a01b0390911690634c586ff8906064016000604051808303816000875af115801561011d573d6000803e3d6000fd5b505050506040513d6000823e601f3d908101601f191682016040526101459190810190610649565b6040805160008152602081018083528151902092935061016791849101610686565b604051602081830303815290604052805190602001201481906101a65760405162461bcd60e51b815260040161019d91906106a2565b60405180910390fd5b50505050565b60008054604051632c57771560e11b81523360048201526001600160a01b0385811660248301526044820185905260609216906358aeee2a906064016000604051808303816000875af1158015610207573d6000803e3d6000fd5b505050506040513d6000823e601f3d908101601f1916820160405261022f91908101906106d5565b6040805160008152602081018083528151902093955091935061025491849101610686565b6040516020818303038152906040528051906020012014819061028a5760405162461bcd60e51b815260040161019d91906106a2565b505092915050565b600080546040516398c6fb8d60e01b81523360048201526001600160a01b03909116906398c6fb8d90602401602060405180830381865afa1580156102db573d6000803e3d6000fd5b505050506040513d601f19601f820116820180604052508101906102ff919061071c565b905090565b60008054604051634c0f7d2360e11b815233600482015260248101869052604481018590526001600160a01b038481166064830152606092169063981efa46906084016000604051808303816000875af1158015610366573d6000803e3d6000fd5b505050506040513d6000823e601f3d908101601f1916820160405261038e91908101906106d5565b604080516000815260208101808352815190209395509193506103b391849101610686565b604051602081830303815290604052805190602001201481906103e95760405162461bcd60e51b815260040161019d91906106a2565b50509392505050565b60008054604051633a61b1d160e21b8152336004820152602481018490526001600160a01b039091169063e986c744906044016000604051808303816000875af1158015610444573d6000803e3d6000fd5b505050506040513d6000823e601f3d908101601f1916820160405261046c9190810190610649565b6040805160008152602081018083528151902092935061048e91849101610686565b604051602081830303815290604052805190602001201481906104c45760405162461bcd60e51b815260040161019d91906106a2565b505050565b600080604083850312156104dc57600080fd5b50508035926020909101359150565b80356001600160a01b038116811461050257600080fd5b919050565b6000806040838503121561051a57600080fd5b610523836104eb565b946020939093013593505050565b60008060006060848603121561054657600080fd5b833592506020840135915061055d604085016104eb565b90509250925092565b60006020828403121561057857600080fd5b5035919050565b634e487b7160e01b600052604160045260246000fd5b60005b838110156105b0578181015183820152602001610598565b838111156101a65750506000910152565b600082601f8301126105d257600080fd5b815167ffffffffffffffff808211156105ed576105ed61057f565b604051601f8301601f19908116603f011681019082821181831017156106155761061561057f565b8160405283815286602085880101111561062e57600080fd5b61063f846020830160208901610595565b9695505050505050565b60006020828403121561065b57600080fd5b815167ffffffffffffffff81111561067257600080fd5b61067e848285016105c1565b949350505050565b60008251610698818460208701610595565b9190910192915050565b60208152600082518060208401526106c1816040850160208701610595565b601f01601f19169190910160400192915050565b600080604083850312156106e857600080fd5b82519150602083015167ffffffffffffffff81111561070657600080fd5b610712858286016105c1565b9150509250929050565b60006020828403121561072e57600080fd5b505191905056fea2646970667358221220142d796a306a65deccd64fcfc7b73e0a02fadbc360547ba60d0a51405a48848564736f6c634300080b0033",
  "linkReferences": {},
  "deployedLinkReferences": {}
}