{
  "contracts/MeterNativeV3.sol": {
    "MeterNativeV3": {
      "abi": [
        {
          "inputs": [],
          "stateMutability": "payable",
          "type": "constructor"
        },
        {
          "anonymous": false,
          "inputs": [
            {
              "indexed": false,
              "internalType": "address",
              "name": "_address",
              "type": "address"
            },
            {
              "indexed": false,
              "internalType": "uint256",
              "name": "_amount",
              "type": "uint256"
            },
            {
              "indexed": false,
              "internalType": "string",
              "name": "_method",
              "type": "string"
            }
          ],
          "name": "MeterTrackerEvent",
          "type": "event"
        },
        {
          "inputs": [
            {
              "internalType": "address",
              "name": "owner",
              "type": "address"
            },
            {
              "internalType": "bytes32",
              "name": "bucketID",
              "type": "bytes32"
            }
          ],
          "name": "native_bucket_close",
          "outputs": [
            {
              "internalType": "string",
              "name": "",
              "type": "string"
            }
          ],
          "stateMutability": "nonpayable",
          "type": "function"
        },
        {
          "inputs": [
            {
              "internalType": "address",
              "name": "owner",
              "type": "address"
            },
            {
              "internalType": "bytes32",
              "name": "bucketID",
              "type": "bytes32"
            },
            {
              "internalType": "uint256",
              "name": "amount",
              "type": "uint256"
            }
          ],
          "name": "native_bucket_deposit",
          "outputs": [
            {
              "internalType": "string",
              "name": "",
              "type": "string"
            }
          ],
          "stateMutability": "nonpayable",
          "type": "function"
        },
        {
          "inputs": [
            {
              "internalType": "address",
              "name": "owner",
              "type": "address"
            },
            {
              "internalType": "address",
              "name": "candidateAddr",
              "type": "address"
            },
            {
              "internalType": "uint256",
              "name": "amount",
              "type": "uint256"
            }
          ],
          "name": "native_bucket_open",
          "outputs": [
            {
              "internalType": "bytes32",
              "name": "",
              "type": "bytes32"
            },
            {
              "internalType": "string",
              "name": "",
              "type": "string"
            }
          ],
          "stateMutability": "nonpayable",
          "type": "function"
        },
        {
          "inputs": [
            {
              "internalType": "address",
              "name": "owner",
              "type": "address"
            },
            {
              "internalType": "bytes32",
              "name": "bucketID",
              "type": "bytes32"
            },
            {
              "internalType": "uint256",
              "name": "amount",
              "type": "uint256"
            },
            {
              "internalType": "address",
              "name": "recipient",
              "type": "address"
            }
          ],
          "name": "native_bucket_withdraw",
          "outputs": [
            {
              "internalType": "bytes32",
              "name": "",
              "type": "bytes32"
            },
            {
              "internalType": "string",
              "name": "",
              "type": "string"
            }
          ],
          "stateMutability": "nonpayable",
          "type": "function"
        },
        {
          "inputs": [
            {
              "internalType": "address",
              "name": "addr",
              "type": "address"
            }
          ],
          "name": "native_master",
          "outputs": [
            {
              "internalType": "address",
              "name": "",
              "type": "address"
            }
          ],
          "stateMutability": "view",
          "type": "function"
        },
        {
          "inputs": [
            {
              "internalType": "address",
              "name": "addr",
              "type": "address"
            },
            {
              "internalType": "uint256",
              "name": "amount",
              "type": "uint256"
            }
          ],
          "name": "native_mtr_add",
          "outputs": [],
          "stateMutability": "nonpayable",
          "type": "function"
        },
        {
          "inputs": [
            {
              "internalType": "address",
              "name": "addr",
              "type": "address"
            }
          ],
          "name": "native_mtr_get",
          "outputs": [
            {
              "internalType": "uint256",
              "name": "",
              "type": "uint256"
            }
          ],
          "stateMutability": "view",
          "type": "function"
        },
        {
          "inputs": [
            {
              "internalType": "address",
              "name": "addr",
              "type": "address"
            },
            {
              "internalType": "uint256",
              "name": "amount",
              "type": "uint256"
            }
          ],
          "name": "native_mtr_locked_add",
          "outputs": [],
          "stateMutability": "nonpayable",
          "type": "function"
        },
        {
          "inputs": [
            {
              "internalType": "address",
              "name": "addr",
              "type": "address"
            }
          ],
          "name": "native_mtr_locked_get",
          "outputs": [
            {
              "internalType": "uint256",
              "name": "",
              "type": "uint256"
            }
          ],
          "stateMutability": "view",
          "type": "function"
        },
        {
          "inputs": [
            {
              "internalType": "address",
              "name": "addr",
              "type": "address"
            },
            {
              "internalType": "uint256",
              "name": "amount",
              "type": "uint256"
            }
          ],
          "name": "native_mtr_locked_sub",
          "outputs": [
            {
              "internalType": "bool",
              "name": "",
              "type": "bool"
            }
          ],
          "stateMutability": "nonpayable",
          "type": "function"
        },
        {
          "inputs": [
            {
              "internalType": "address",
              "name": "addr",
              "type": "address"
            },
            {
              "internalType": "uint256",
              "name": "amount",
              "type": "uint256"
            }
          ],
          "name": "native_mtr_sub",
          "outputs": [
            {
              "internalType": "bool",
              "name": "",
              "type": "bool"
            }
          ],
          "stateMutability": "nonpayable",
          "type": "function"
        },
        {
          "inputs": [],
          "name": "native_mtr_totalBurned",
          "outputs": [
            {
              "internalType": "uint256",
              "name": "",
              "type": "uint256"
            }
          ],
          "stateMutability": "view",
          "type": "function"
        },
        {
          "inputs": [],
          "name": "native_mtr_totalSupply",
          "outputs": [
            {
              "internalType": "uint256",
              "name": "",
              "type": "uint256"
            }
          ],
          "stateMutability": "view",
          "type": "function"
        },
        {
          "inputs": [
            {
              "internalType": "address",
              "name": "addr",
              "type": "address"
            },
            {
              "internalType": "uint256",
              "name": "amount",
              "type": "uint256"
            }
          ],
          "name": "native_mtrg_add",
          "outputs": [],
          "stateMutability": "nonpayable",
          "type": "function"
        },
        {
          "inputs": [
            {
              "internalType": "address",
              "name": "addr",
              "type": "address"
            }
          ],
          "name": "native_mtrg_get",
          "outputs": [
            {
              "internalType": "uint256",
              "name": "",
              "type": "uint256"
            }
          ],
          "stateMutability": "view",
          "type": "function"
        },
        {
          "inputs": [
            {
              "internalType": "address",
              "name": "addr",
              "type": "address"
            },
            {
              "internalType": "uint256",
              "name": "amount",
              "type": "uint256"
            }
          ],
          "name": "native_mtrg_locked_add",
          "outputs": [],
          "stateMutability": "nonpayable",
          "type": "function"
        },
        {
          "inputs": [
            {
              "internalType": "address",
              "name": "addr",
              "type": "address"
            }
          ],
          "name": "native_mtrg_locked_get",
          "outputs": [
            {
              "internalType": "uint256",
              "name": "",
              "type": "uint256"
            }
          ],
          "stateMutability": "view",
          "type": "function"
        },
        {
          "inputs": [
            {
              "internalType": "address",
              "name": "addr",
              "type": "address"
            },
            {
              "internalType": "uint256",
              "name": "amount",
              "type": "uint256"
            }
          ],
          "name": "native_mtrg_locked_sub",
          "outputs": [
            {
              "internalType": "bool",
              "name": "",
              "type": "bool"
            }
          ],
          "stateMutability": "nonpayable",
          "type": "function"
        },
        {
          "inputs": [
            {
              "internalType": "address",
              "name": "addr",
              "type": "address"
            },
            {
              "internalType": "uint256",
              "name": "amount",
              "type": "uint256"
            }
          ],
          "name": "native_mtrg_sub",
          "outputs": [
            {
              "internalType": "bool",
              "name": "",
              "type": "bool"
            }
          ],
          "stateMutability": "nonpayable",
          "type": "function"
        },
        {
          "inputs": [],
          "name": "native_mtrg_totalBurned",
          "outputs": [
            {
              "internalType": "uint256",
              "name": "",
              "type": "uint256"
            }
          ],
          "stateMutability": "view",
          "type": "function"
        },
        {
          "inputs": [],
          "name": "native_mtrg_totalSupply",
          "outputs": [
            {
              "internalType": "uint256",
              "name": "",
              "type": "uint256"
            }
          ],
          "stateMutability": "view",
          "type": "function"
        }
      ],
      "evm": {
        "bytecode": {
          "linkReferences": {},
          "object": "60806040526107de806100136000396000f3fe608060405234801561001057600080fd5b50600436106101375760003560e01c806398c6fb8d116100b8578063cc2306411161007c578063cc2306411461028e578063ccc7df9d14610189578063df77a6d4146102a1578063e986c744146102b4578063eaa93f6b14610189578063f14645f5146102d657600080fd5b806398c6fb8d1461013c578063a236e00014610189578063a30af2701461013c578063b547784b14610268578063baa289021461027b57600080fd5b806330daa282116100ff57806330daa2821461013c5780634c586ff8146101c857806358aeee2a146101f9578063740b155f1461022d578063981efa461461024057600080fd5b80630511d9031461013c578063059950e914610163578063076e361d1461018957806320ae6501146101905780632bbe467e146101a5575b600080fd5b61015061014a366004610606565b50600090565b6040519081526020015b60405180910390f35b61017161014a366004610606565b6040516001600160a01b03909116815260200161015a565b6000610150565b6101a361019e366004610628565b6102e9565b005b6101b86101b3366004610628565b61034f565b604051901515815260200161015a565b6101ec6101d6366004610652565b6040805160208101909152600081529392505050565b60405161015a91906106d2565b61021f6102073660046106e5565b50506040805160208101909152600080825292909150565b60405161015a929190610721565b6101a361023b366004610628565b6103bc565b61021f61024e366004610742565b604080516020810190915260008082529094509492505050565b6101a3610276366004610628565b610413565b6101b8610289366004610628565b610472565b6101b861029c366004610628565b6104d4565b6101a36102af366004610628565b610537565b6101ec6102c2366004610628565b505060408051602081019091526000815290565b6101b86102e4366004610628565b61058f565b604080516001600160a01b0384168152602081018390526060918101829052601591810191909152741b985d1a5d9957db5d1c97db1bd8dad95917d85919605a1b60808201526000805160206107898339815191529060a0015b60405180910390a15050565b600060008051602061078983398151915283836040516103ab9291906001600160a01b039290921682526020820152606060408201819052600f908201526e3730ba34bb32afb6ba3933afb9bab160891b608082015260a00190565b60405180910390a150600192915050565b604080516001600160a01b0384168152602081018390526060918101829052600e918101919091526d1b985d1a5d9957db5d1c97d8591960921b60808201526000805160206107898339815191529060a001610343565b604080516001600160a01b0384168152602081018390526060918101829052601691810191909152751b985d1a5d9957db5d1c99d7db1bd8dad95917d8591960521b60808201526000805160206107898339815191529060a001610343565b600060008051602061078983398151915283836040516103ab9291906001600160a01b039290921682526020820152606060408201819052601590820152743730ba34bb32afb6ba392fb637b1b5b2b22fb9bab160591b608082015260a00190565b600060008051602061078983398151915283836040516103ab9291906001600160a01b039290921682526020820152606060408201819052601690820152753730ba34bb32afb6ba3933afb637b1b5b2b22fb9bab160511b608082015260a00190565b604080516001600160a01b0384168152602081018390526060918101829052600f918101919091526e1b985d1a5d9957db5d1c99d7d85919608a1b60808201526000805160206107898339815191529060a001610343565b600060008051602061078983398151915283836040516103ab9291906001600160a01b039290921682526020820152606060408201819052600e908201526d3730ba34bb32afb6ba392fb9bab160911b608082015260a00190565b80356001600160a01b038116811461060157600080fd5b919050565b60006020828403121561061857600080fd5b610621826105ea565b9392505050565b6000806040838503121561063b57600080fd5b610644836105ea565b946020939093013593505050565b60008060006060848603121561066757600080fd5b610670846105ea565b95602085013595506040909401359392505050565b6000815180845260005b818110156106ab5760208185018101518683018201520161068f565b818111156106bd576000602083870101525b50601f01601f19169290920160200192915050565b6020815260006106216020830184610685565b6000806000606084860312156106fa57600080fd5b610703846105ea565b9250610711602085016105ea565b9150604084013590509250925092565b82815260406020820152600061073a6040830184610685565b949350505050565b6000806000806080858703121561075857600080fd5b610761856105ea565b9350602085013592506040850135915061077d606086016105ea565b90509295919450925056fee733fdb97bd02ae887462b30f938653e7a701cf0ec92fc28d4e57d462961f214a2646970667358221220da20234d48c6409056cdcf94abf492cbc416277920c91601b57ec6a80ee26f0e64736f6c634300080b0033",
          "opcodes": "PUSH1 0x80 PUSH1 0x40 MSTORE PUSH2 0x7DE DUP1 PUSH2 0x13 PUSH1 0x0 CODECOPY PUSH1 0x0 RETURN INVALID PUSH1 0x80 PUSH1 0x40 MSTORE CALLVALUE DUP1 ISZERO PUSH2 0x10 JUMPI PUSH1 0x0 DUP1 REVERT JUMPDEST POP PUSH1 0x4 CALLDATASIZE LT PUSH2 0x137 JUMPI PUSH1 0x0 CALLDATALOAD PUSH1 0xE0 SHR DUP1 PUSH4 0x98C6FB8D GT PUSH2 0xB8 JUMPI DUP1 PUSH4 0xCC230641 GT PUSH2 0x7C JUMPI DUP1 PUSH4 0xCC230641 EQ PUSH2 0x28E JUMPI DUP1 PUSH4 0xCCC7DF9D EQ PUSH2 0x189 JUMPI DUP1 PUSH4 0xDF77A6D4 EQ PUSH2 0x2A1 JUMPI DUP1 PUSH4 0xE986C744 EQ PUSH2 0x2B4 JUMPI DUP1 PUSH4 0xEAA93F6B EQ PUSH2 0x189 JUMPI DUP1 PUSH4 0xF14645F5 EQ PUSH2 0x2D6 JUMPI PUSH1 0x0 DUP1 REVERT JUMPDEST DUP1 PUSH4 0x98C6FB8D EQ PUSH2 0x13C JUMPI DUP1 PUSH4 0xA236E000 EQ PUSH2 0x189 JUMPI DUP1 PUSH4 0xA30AF270 EQ PUSH2 0x13C JUMPI DUP1 PUSH4 0xB547784B EQ PUSH2 0x268 JUMPI DUP1 PUSH4 0xBAA28902 EQ PUSH2 0x27B JUMPI PUSH1 0x0 DUP1 REVERT JUMPDEST DUP1 PUSH4 0x30DAA282 GT PUSH2 0xFF JUMPI DUP1 PUSH4 0x30DAA282 EQ PUSH2 0x13C JUMPI DUP1 PUSH4 0x4C586FF8 EQ PUSH2 0x1C8 JUMPI DUP1 PUSH4 0x58AEEE2A EQ PUSH2 0x1F9 JUMPI DUP1 PUSH4 0x740B155F EQ PUSH2 0x22D JUMPI DUP1 PUSH4 0x981EFA46 EQ PUSH2 0x240 JUMPI PUSH1 0x0 DUP1 REVERT JUMPDEST DUP1 PUSH4 0x511D903 EQ PUSH2 0x13C JUMPI DUP1 PUSH4 0x59950E9 EQ PUSH2 0x163 JUMPI DUP1 PUSH4 0x76E361D EQ PUSH2 0x189 JUMPI DUP1 PUSH4 0x20AE6501 EQ PUSH2 0x190 JUMPI DUP1 PUSH4 0x2BBE467E EQ PUSH2 0x1A5 JUMPI JUMPDEST PUSH1 0x0 DUP1 REVERT JUMPDEST PUSH2 0x150 PUSH2 0x14A CALLDATASIZE PUSH1 0x4 PUSH2 0x606 JUMP JUMPDEST POP PUSH1 0x0 SWAP1 JUMP JUMPDEST PUSH1 0x40 MLOAD SWAP1 DUP2 MSTORE PUSH1 0x20 ADD JUMPDEST PUSH1 0x40 MLOAD DUP1 SWAP2 SUB SWAP1 RETURN JUMPDEST PUSH2 0x171 PUSH2 0x14A CALLDATASIZE PUSH1 0x4 PUSH2 0x606 JUMP JUMPDEST PUSH1 0x40 MLOAD PUSH1 0x1 PUSH1 0x1 PUSH1 0xA0 SHL SUB SWAP1 SWAP2 AND DUP2 MSTORE PUSH1 0x20 ADD PUSH2 0x15A JUMP JUMPDEST PUSH1 0x0 PUSH2 0x150 JUMP JUMPDEST PUSH2 0x1A3 PUSH2 0x19E CALLDATASIZE PUSH1 0x4 PUSH2 0x628 JUMP JUMPDEST PUSH2 0x2E9 JUMP JUMPDEST STOP JUMPDEST PUSH2 0x1B8 PUSH2 0x1B3 CALLDATASIZE PUSH1 0x4 PUSH2 0x628 JUMP JUMPDEST PUSH2 0x34F JUMP JUMPDEST PUSH1 0x40 MLOAD SWAP1 ISZERO ISZERO DUP2 MSTORE PUSH1 0x20 ADD PUSH2 0x15A JUMP JUMPDEST PUSH2 0x1EC PUSH2 0x1D6 CALLDATASIZE PUSH1 0x4 PUSH2 0x652 JUMP JUMPDEST PUSH1 0x40 DUP1 MLOAD PUSH1 0x20 DUP2 ADD SWAP1 SWAP2 MSTORE PUSH1 0x0 DUP2 MSTORE SWAP4 SWAP3 POP POP POP JUMP JUMPDEST PUSH1 0x40 MLOAD PUSH2 0x15A SWAP2 SWAP1 PUSH2 0x6D2 JUMP JUMPDEST PUSH2 0x21F PUSH2 0x207 CALLDATASIZE PUSH1 0x4 PUSH2 0x6E5 JUMP JUMPDEST POP POP PUSH1 0x40 DUP1 MLOAD PUSH1 0x20 DUP2 ADD SWAP1 SWAP2 MSTORE PUSH1 0x0 DUP1 DUP3 MSTORE SWAP3 SWAP1 SWAP2 POP JUMP JUMPDEST PUSH1 0x40 MLOAD PUSH2 0x15A SWAP3 SWAP2 SWAP1 PUSH2 0x721 JUMP JUMPDEST PUSH2 0x1A3 PUSH2 0x23B CALLDATASIZE PUSH1 0x4 PUSH2 0x628 JUMP JUMPDEST PUSH2 0x3BC JUMP JUMPDEST PUSH2 0x21F PUSH2 0x24E CALLDATASIZE PUSH1 0x4 PUSH2 0x742 JUMP JUMPDEST PUSH1 0x40 DUP1 MLOAD PUSH1 0x20 DUP2 ADD SWAP1 SWAP2 MSTORE PUSH1 0x0 DUP1 DUP3 MSTORE SWAP1 SWAP5 POP SWAP5 SWAP3 POP POP POP JUMP JUMPDEST PUSH2 0x1A3 PUSH2 0x276 CALLDATASIZE PUSH1 0x4 PUSH2 0x628 JUMP JUMPDEST PUSH2 0x413 JUMP JUMPDEST PUSH2 0x1B8 PUSH2 0x289 CALLDATASIZE PUSH1 0x4 PUSH2 0x628 JUMP JUMPDEST PUSH2 0x472 JUMP JUMPDEST PUSH2 0x1B8 PUSH2 0x29C CALLDATASIZE PUSH1 0x4 PUSH2 0x628 JUMP JUMPDEST PUSH2 0x4D4 JUMP JUMPDEST PUSH2 0x1A3 PUSH2 0x2AF CALLDATASIZE PUSH1 0x4 PUSH2 0x628 JUMP JUMPDEST PUSH2 0x537 JUMP JUMPDEST PUSH2 0x1EC PUSH2 0x2C2 CALLDATASIZE PUSH1 0x4 PUSH2 0x628 JUMP JUMPDEST POP POP PUSH1 0x40 DUP1 MLOAD PUSH1 0x20 DUP2 ADD SWAP1 SWAP2 MSTORE PUSH1 0x0 DUP2 MSTORE SWAP1 JUMP JUMPDEST PUSH2 0x1B8 PUSH2 0x2E4 CALLDATASIZE PUSH1 0x4 PUSH2 0x628 JUMP JUMPDEST PUSH2 0x58F JUMP JUMPDEST PUSH1 0x40 DUP1 MLOAD PUSH1 0x1 PUSH1 0x1 PUSH1 0xA0 SHL SUB DUP5 AND DUP2 MSTORE PUSH1 0x20 DUP2 ADD DUP4 SWAP1 MSTORE PUSH1 0x60 SWAP2 DUP2 ADD DUP3 SWAP1 MSTORE PUSH1 0x15 SWAP2 DUP2 ADD SWAP2 SWAP1 SWAP2 MSTORE PUSH21 0x1B985D1A5D9957DB5D1C97DB1BD8DAD95917D85919 PUSH1 0x5A SHL PUSH1 0x80 DUP3 ADD MSTORE PUSH1 0x0 DUP1 MLOAD PUSH1 0x20 PUSH2 0x789 DUP4 CODECOPY DUP2 MLOAD SWAP2 MSTORE SWAP1 PUSH1 0xA0 ADD JUMPDEST PUSH1 0x40 MLOAD DUP1 SWAP2 SUB SWAP1 LOG1 POP POP JUMP JUMPDEST PUSH1 0x0 PUSH1 0x0 DUP1 MLOAD PUSH1 0x20 PUSH2 0x789 DUP4 CODECOPY DUP2 MLOAD SWAP2 MSTORE DUP4 DUP4 PUSH1 0x40 MLOAD PUSH2 0x3AB SWAP3 SWAP2 SWAP1 PUSH1 0x1 PUSH1 0x1 PUSH1 0xA0 SHL SUB SWAP3 SWAP1 SWAP3 AND DUP3 MSTORE PUSH1 0x20 DUP3 ADD MSTORE PUSH1 0x60 PUSH1 0x40 DUP3 ADD DUP2 SWAP1 MSTORE PUSH1 0xF SWAP1 DUP3 ADD MSTORE PUSH15 0x3730BA34BB32AFB6BA3933AFB9BAB1 PUSH1 0x89 SHL PUSH1 0x80 DUP3 ADD MSTORE PUSH1 0xA0 ADD SWAP1 JUMP JUMPDEST PUSH1 0x40 MLOAD DUP1 SWAP2 SUB SWAP1 LOG1 POP PUSH1 0x1 SWAP3 SWAP2 POP POP JUMP JUMPDEST PUSH1 0x40 DUP1 MLOAD PUSH1 0x1 PUSH1 0x1 PUSH1 0xA0 SHL SUB DUP5 AND DUP2 MSTORE PUSH1 0x20 DUP2 ADD DUP4 SWAP1 MSTORE PUSH1 0x60 SWAP2 DUP2 ADD DUP3 SWAP1 MSTORE PUSH1 0xE SWAP2 DUP2 ADD SWAP2 SWAP1 SWAP2 MSTORE PUSH14 0x1B985D1A5D9957DB5D1C97D85919 PUSH1 0x92 SHL PUSH1 0x80 DUP3 ADD MSTORE PUSH1 0x0 DUP1 MLOAD PUSH1 0x20 PUSH2 0x789 DUP4 CODECOPY DUP2 MLOAD SWAP2 MSTORE SWAP1 PUSH1 0xA0 ADD PUSH2 0x343 JUMP JUMPDEST PUSH1 0x40 DUP1 MLOAD PUSH1 0x1 PUSH1 0x1 PUSH1 0xA0 SHL SUB DUP5 AND DUP2 MSTORE PUSH1 0x20 DUP2 ADD DUP4 SWAP1 MSTORE PUSH1 0x60 SWAP2 DUP2 ADD DUP3 SWAP1 MSTORE PUSH1 0x16 SWAP2 DUP2 ADD SWAP2 SWAP1 SWAP2 MSTORE PUSH22 0x1B985D1A5D9957DB5D1C99D7DB1BD8DAD95917D85919 PUSH1 0x52 SHL PUSH1 0x80 DUP3 ADD MSTORE PUSH1 0x0 DUP1 MLOAD PUSH1 0x20 PUSH2 0x789 DUP4 CODECOPY DUP2 MLOAD SWAP2 MSTORE SWAP1 PUSH1 0xA0 ADD PUSH2 0x343 JUMP JUMPDEST PUSH1 0x0 PUSH1 0x0 DUP1 MLOAD PUSH1 0x20 PUSH2 0x789 DUP4 CODECOPY DUP2 MLOAD SWAP2 MSTORE DUP4 DUP4 PUSH1 0x40 MLOAD PUSH2 0x3AB SWAP3 SWAP2 SWAP1 PUSH1 0x1 PUSH1 0x1 PUSH1 0xA0 SHL SUB SWAP3 SWAP1 SWAP3 AND DUP3 MSTORE PUSH1 0x20 DUP3 ADD MSTORE PUSH1 0x60 PUSH1 0x40 DUP3 ADD DUP2 SWAP1 MSTORE PUSH1 0x15 SWAP1 DUP3 ADD MSTORE PUSH21 0x3730BA34BB32AFB6BA392FB637B1B5B2B22FB9BAB1 PUSH1 0x59 SHL PUSH1 0x80 DUP3 ADD MSTORE PUSH1 0xA0 ADD SWAP1 JUMP JUMPDEST PUSH1 0x0 PUSH1 0x0 DUP1 MLOAD PUSH1 0x20 PUSH2 0x789 DUP4 CODECOPY DUP2 MLOAD SWAP2 MSTORE DUP4 DUP4 PUSH1 0x40 MLOAD PUSH2 0x3AB SWAP3 SWAP2 SWAP1 PUSH1 0x1 PUSH1 0x1 PUSH1 0xA0 SHL SUB SWAP3 SWAP1 SWAP3 AND DUP3 MSTORE PUSH1 0x20 DUP3 ADD MSTORE PUSH1 0x60 PUSH1 0x40 DUP3 ADD DUP2 SWAP1 MSTORE PUSH1 0x16 SWAP1 DUP3 ADD MSTORE PUSH22 0x3730BA34BB32AFB6BA3933AFB637B1B5B2B22FB9BAB1 PUSH1 0x51 SHL PUSH1 0x80 DUP3 ADD MSTORE PUSH1 0xA0 ADD SWAP1 JUMP JUMPDEST PUSH1 0x40 DUP1 MLOAD PUSH1 0x1 PUSH1 0x1 PUSH1 0xA0 SHL SUB DUP5 AND DUP2 MSTORE PUSH1 0x20 DUP2 ADD DUP4 SWAP1 MSTORE PUSH1 0x60 SWAP2 DUP2 ADD DUP3 SWAP1 MSTORE PUSH1 0xF SWAP2 DUP2 ADD SWAP2 SWAP1 SWAP2 MSTORE PUSH15 0x1B985D1A5D9957DB5D1C99D7D85919 PUSH1 0x8A SHL PUSH1 0x80 DUP3 ADD MSTORE PUSH1 0x0 DUP1 MLOAD PUSH1 0x20 PUSH2 0x789 DUP4 CODECOPY DUP2 MLOAD SWAP2 MSTORE SWAP1 PUSH1 0xA0 ADD PUSH2 0x343 JUMP JUMPDEST PUSH1 0x0 PUSH1 0x0 DUP1 MLOAD PUSH1 0x20 PUSH2 0x789 DUP4 CODECOPY DUP2 MLOAD SWAP2 MSTORE DUP4 DUP4 PUSH1 0x40 MLOAD PUSH2 0x3AB SWAP3 SWAP2 SWAP1 PUSH1 0x1 PUSH1 0x1 PUSH1 0xA0 SHL SUB SWAP3 SWAP1 SWAP3 AND DUP3 MSTORE PUSH1 0x20 DUP3 ADD MSTORE PUSH1 0x60 PUSH1 0x40 DUP3 ADD DUP2 SWAP1 MSTORE PUSH1 0xE SWAP1 DUP3 ADD MSTORE PUSH14 0x3730BA34BB32AFB6BA392FB9BAB1 PUSH1 0x91 SHL PUSH1 0x80 DUP3 ADD MSTORE PUSH1 0xA0 ADD SWAP1 JUMP JUMPDEST DUP1 CALLDATALOAD PUSH1 0x1 PUSH1 0x1 PUSH1 0xA0 SHL SUB DUP2 AND DUP2 EQ PUSH2 0x601 JUMPI PUSH1 0x0 DUP1 REVERT JUMPDEST SWAP2 SWAP1 POP JUMP JUMPDEST PUSH1 0x0 PUSH1 0x20 DUP3 DUP5 SUB SLT ISZERO PUSH2 0x618 JUMPI PUSH1 0x0 DUP1 REVERT JUMPDEST PUSH2 0x621 DUP3 PUSH2 0x5EA JUMP JUMPDEST SWAP4 SWAP3 POP POP POP JUMP JUMPDEST PUSH1 0x0 DUP1 PUSH1 0x40 DUP4 DUP6 SUB SLT ISZERO PUSH2 0x63B JUMPI PUSH1 0x0 DUP1 REVERT JUMPDEST PUSH2 0x644 DUP4 PUSH2 0x5EA JUMP JUMPDEST SWAP5 PUSH1 0x20 SWAP4 SWAP1 SWAP4 ADD CALLDATALOAD SWAP4 POP POP POP JUMP JUMPDEST PUSH1 0x0 DUP1 PUSH1 0x0 PUSH1 0x60 DUP5 DUP7 SUB SLT ISZERO PUSH2 0x667 JUMPI PUSH1 0x0 DUP1 REVERT JUMPDEST PUSH2 0x670 DUP5 PUSH2 0x5EA JUMP JUMPDEST SWAP6 PUSH1 0x20 DUP6 ADD CALLDATALOAD SWAP6 POP PUSH1 0x40 SWAP1 SWAP5 ADD CALLDATALOAD SWAP4 SWAP3 POP POP POP JUMP JUMPDEST PUSH1 0x0 DUP2 MLOAD DUP1 DUP5 MSTORE PUSH1 0x0 JUMPDEST DUP2 DUP2 LT ISZERO PUSH2 0x6AB JUMPI PUSH1 0x20 DUP2 DUP6 ADD DUP2 ADD MLOAD DUP7 DUP4 ADD DUP3 ADD MSTORE ADD PUSH2 0x68F JUMP JUMPDEST DUP2 DUP2 GT ISZERO PUSH2 0x6BD JUMPI PUSH1 0x0 PUSH1 0x20 DUP4 DUP8 ADD ADD MSTORE JUMPDEST POP PUSH1 0x1F ADD PUSH1 0x1F NOT AND SWAP3 SWAP1 SWAP3 ADD PUSH1 0x20 ADD SWAP3 SWAP2 POP POP JUMP JUMPDEST PUSH1 0x20 DUP2 MSTORE PUSH1 0x0 PUSH2 0x621 PUSH1 0x20 DUP4 ADD DUP5 PUSH2 0x685 JUMP JUMPDEST PUSH1 0x0 DUP1 PUSH1 0x0 PUSH1 0x60 DUP5 DUP7 SUB SLT ISZERO PUSH2 0x6FA JUMPI PUSH1 0x0 DUP1 REVERT JUMPDEST PUSH2 0x703 DUP5 PUSH2 0x5EA JUMP JUMPDEST SWAP3 POP PUSH2 0x711 PUSH1 0x20 DUP6 ADD PUSH2 0x5EA JUMP JUMPDEST SWAP2 POP PUSH1 0x40 DUP5 ADD CALLDATALOAD SWAP1 POP SWAP3 POP SWAP3 POP SWAP3 JUMP JUMPDEST DUP3 DUP2 MSTORE PUSH1 0x40 PUSH1 0x20 DUP3 ADD MSTORE PUSH1 0x0 PUSH2 0x73A PUSH1 0x40 DUP4 ADD DUP5 PUSH2 0x685 JUMP JUMPDEST SWAP5 SWAP4 POP POP POP POP JUMP JUMPDEST PUSH1 0x0 DUP1 PUSH1 0x0 DUP1 PUSH1 0x80 DUP6 DUP8 SUB SLT ISZERO PUSH2 0x758 JUMPI PUSH1 0x0 DUP1 REVERT JUMPDEST PUSH2 0x761 DUP6 PUSH2 0x5EA JUMP JUMPDEST SWAP4 POP PUSH1 0x20 DUP6 ADD CALLDATALOAD SWAP3 POP PUSH1 0x40 DUP6 ADD CALLDATALOAD SWAP2 POP PUSH2 0x77D PUSH1 0x60 DUP7 ADD PUSH2 0x5EA JUMP JUMPDEST SWAP1 POP SWAP3 SWAP6 SWAP2 SWAP5 POP SWAP3 POP JUMP INVALID 0xE7 CALLER REVERT 0xB9 PUSH28 0xD02AE887462B30F938653E7A701CF0EC92FC28D4E57D462961F214A2 PUSH5 0x6970667358 0x22 SLT KECCAK256 0xDA KECCAK256 0x23 0x4D BASEFEE 0xC6 BLOCKHASH SWAP1 JUMP 0xCD 0xCF SWAP5 0xAB DELEGATECALL SWAP3 0xCB 0xC4 AND 0x27 PUSH26 0x20C91601B57EC6A80EE26F0E64736F6C634300080B0033000000 "
        },
        "methodIdentifiers": {
          "native_bucket_close(address,bytes32)": "e986c744",
          "native_bucket_deposit(address,bytes32,uint256)": "4c586ff8",
          "native_bucket_open(address,address,uint256)": "58aeee2a",
          "native_bucket_withdraw(address,bytes32,uint256,address)": "981efa46",
          "native_master(address)": "059950e9",
          "native_mtr_add(address,uint256)": "740b155f",
          "native_mtr_get(address)": "0511d903",
          "native_mtr_locked_add(address,uint256)": "20ae6501",
          "native_mtr_locked_get(address)": "30daa282",
          "native_mtr_locked_sub(address,uint256)": "baa28902",
          "native_mtr_sub(address,uint256)": "f14645f5",
          "native_mtr_totalBurned()": "ccc7df9d",
          "native_mtr_totalSupply()": "076e361d",
          "native_mtrg_add(address,uint256)": "df77a6d4",
          "native_mtrg_get(address)": "a30af270",
          "native_mtrg_locked_add(address,uint256)": "b547784b",
          "native_mtrg_locked_get(address)": "98c6fb8d",
          "native_mtrg_locked_sub(address,uint256)": "cc230641",
          "native_mtrg_sub(address,uint256)": "2bbe467e",
          "native_mtrg_totalBurned()": "eaa93f6b",
          "native_mtrg_totalSupply()": "a236e000"
        }
      },
      "storageLayout": {
        "storage": [],
        "types": null
      }
    }
  }
}