{
  "contracts/NewMeterNative.sol": {
    "NewMeterNative": {
      "abi": [
        {
          "inputs": [],
          "stateMutability": "payable",
          "type": "constructor"
        },
        {
          "anonymous": false,
          "inputs": [
            {
              "indexed": false,
              "internalType": "address",
              "name": "_address",
              "type": "address"
            },
            {
              "indexed": false,
              "internalType": "uint256",
              "name": "_amount",
              "type": "uint256"
            },
            {
              "indexed": false,
              "internalType": "string",
              "name": "_method",
              "type": "string"
            }
          ],
          "name": "MeterTrackerEvent",
          "type": "event"
        },
        {
          "inputs": [
            {
              "internalType": "address",
              "name": "addr",
              "type": "address"
            }
          ],
          "name": "native_master",
          "outputs": [
            {
              "internalType": "address",
              "name": "",
              "type": "address"
            }
          ],
          "stateMutability": "view",
          "type": "function"
        },
        {
          "inputs": [
            {
              "internalType": "address",
              "name": "addr",
              "type": "address"
            },
            {
              "internalType": "uint256",
              "name": "amount",
              "type": "uint256"
            }
          ],
          "name": "native_mtr_add",
          "outputs": [],
          "stateMutability": "nonpayable",
          "type": "function"
        },
        {
          "inputs": [
            {
              "internalType": "address",
              "name": "addr",
              "type": "address"
            }
          ],
          "name": "native_mtr_get",
          "outputs": [
            {
              "internalType": "uint256",
              "name": "",
              "type": "uint256"
            }
          ],
          "stateMutability": "view",
          "type": "function"
        },
        {
          "inputs": [
            {
              "internalType": "address",
              "name": "addr",
              "type": "address"
            },
            {
              "internalType": "uint256",
              "name": "amount",
              "type": "uint256"
            }
          ],
          "name": "native_mtr_locked_add",
          "outputs": [],
          "stateMutability": "nonpayable",
          "type": "function"
        },
        {
          "inputs": [
            {
              "internalType": "address",
              "name": "addr",
              "type": "address"
            }
          ],
          "name": "native_mtr_locked_get",
          "outputs": [
            {
              "internalType": "uint256",
              "name": "",
              "type": "uint256"
            }
          ],
          "stateMutability": "view",
          "type": "function"
        },
        {
          "inputs": [
            {
              "internalType": "address",
              "name": "addr",
              "type": "address"
            },
            {
              "internalType": "uint256",
              "name": "amount",
              "type": "uint256"
            }
          ],
          "name": "native_mtr_locked_sub",
          "outputs": [
            {
              "internalType": "bool",
              "name": "",
              "type": "bool"
            }
          ],
          "stateMutability": "nonpayable",
          "type": "function"
        },
        {
          "inputs": [
            {
              "internalType": "address",
              "name": "addr",
              "type": "address"
            },
            {
              "internalType": "uint256",
              "name": "amount",
              "type": "uint256"
            }
          ],
          "name": "native_mtr_sub",
          "outputs": [
            {
              "internalType": "bool",
              "name": "",
              "type": "bool"
            }
          ],
          "stateMutability": "nonpayable",
          "type": "function"
        },
        {
          "inputs": [],
          "name": "native_mtr_totalBurned",
          "outputs": [
            {
              "internalType": "uint256",
              "name": "",
              "type": "uint256"
            }
          ],
          "stateMutability": "view",
          "type": "function"
        },
        {
          "inputs": [],
          "name": "native_mtr_totalSupply",
          "outputs": [
            {
              "internalType": "uint256",
              "name": "",
              "type": "uint256"
            }
          ],
          "stateMutability": "view",
          "type": "function"
        },
        {
          "inputs": [
            {
              "internalType": "address",
              "name": "addr",
              "type": "address"
            },
            {
              "internalType": "uint256",
              "name": "amount",
              "type": "uint256"
            }
          ],
          "name": "native_mtrg_add",
          "outputs": [],
          "stateMutability": "nonpayable",
          "type": "function"
        },
        {
          "inputs": [
            {
              "internalType": "address",
              "name": "addr",
              "type": "address"
            }
          ],
          "name": "native_mtrg_get",
          "outputs": [
            {
              "internalType": "uint256",
              "name": "",
              "type": "uint256"
            }
          ],
          "stateMutability": "view",
          "type": "function"
        },
        {
          "inputs": [
            {
              "internalType": "address",
              "name": "addr",
              "type": "address"
            },
            {
              "internalType": "uint256",
              "name": "amount",
              "type": "uint256"
            }
          ],
          "name": "native_mtrg_locked_add",
          "outputs": [],
          "stateMutability": "nonpayable",
          "type": "function"
        },
        {
          "inputs": [
            {
              "internalType": "address",
              "name": "addr",
              "type": "address"
            }
          ],
          "name": "native_mtrg_locked_get",
          "outputs": [
            {
              "internalType": "uint256",
              "name": "",
              "type": "uint256"
            }
          ],
          "stateMutability": "view",
          "type": "function"
        },
        {
          "inputs": [
            {
              "internalType": "address",
              "name": "addr",
              "type": "address"
            },
            {
              "internalType": "uint256",
              "name": "amount",
              "type": "uint256"
            }
          ],
          "name": "native_mtrg_locked_sub",
          "outputs": [
            {
              "internalType": "bool",
              "name": "",
              "type": "bool"
            }
          ],
          "stateMutability": "nonpayable",
          "type": "function"
        },
        {
          "inputs": [
            {
              "internalType": "address",
              "name": "addr",
              "type": "address"
            },
            {
              "internalType": "uint256",
              "name": "amount",
              "type": "uint256"
            }
          ],
          "name": "native_mtrg_sub",
          "outputs": [
            {
              "internalType": "bool",
              "name": "",
              "type": "bool"
            }
          ],
          "stateMutability": "nonpayable",
          "type": "function"
        },
        {
          "inputs": [],
          "name": "native_mtrg_totalBurned",
          "outputs": [
            {
              "internalType": "uint256",
              "name": "",
              "type": "uint256"
            }
          ],
          "stateMutability": "view",
          "type": "function"
        },
        {
          "inputs": [],
          "name": "native_mtrg_totalSupply",
          "outputs": [
            {
              "internalType": "uint256",
              "name": "",
              "type": "uint256"
            }
          ],
          "stateMutability": "view",
          "type": "function"
        }
      ],
      "evm": {
        "bytecode": {
          "linkReferences": {},
          "object": "60806040526105cd806100136000396000f3fe608060405234801561001057600080fd5b506004361061010b5760003560e01c8063a236e000116100a2578063cc23064111610071578063cc230641146101d5578063ccc7df9d1461015d578063df77a6d4146101e8578063eaa93f6b1461015d578063f14645f5146101fb57600080fd5b8063a236e0001461015d578063a30af27014610110578063b547784b146101af578063baa28902146101c257600080fd5b80632bbe467e116100de5780632bbe467e1461017957806330daa28214610110578063740b155f1461019c57806398c6fb8d1461011057600080fd5b80630511d90314610110578063059950e914610137578063076e361d1461015d57806320ae650114610164575b600080fd5b61012461011e36600461052b565b50600090565b6040519081526020015b60405180910390f35b61014561011e36600461052b565b6040516001600160a01b03909116815260200161012e565b6000610124565b61017761017236600461054d565b61020e565b005b61018c61018736600461054d565b610274565b604051901515815260200161012e565b6101776101aa36600461054d565b6102e1565b6101776101bd36600461054d565b610338565b61018c6101d036600461054d565b610397565b61018c6101e336600461054d565b6103f9565b6101776101f636600461054d565b61045c565b61018c61020936600461054d565b6104b4565b604080516001600160a01b0384168152602081018390526060918101829052601591810191909152741b985d1a5d9957db5d1c97db1bd8dad95917d85919605a1b60808201526000805160206105788339815191529060a0015b60405180910390a15050565b600060008051602061057883398151915283836040516102d09291906001600160a01b039290921682526020820152606060408201819052600f908201526e3730ba34bb32afb6ba3933afb9bab160891b608082015260a00190565b60405180910390a150600192915050565b604080516001600160a01b0384168152602081018390526060918101829052600e918101919091526d1b985d1a5d9957db5d1c97d8591960921b60808201526000805160206105788339815191529060a001610268565b604080516001600160a01b0384168152602081018390526060918101829052601691810191909152751b985d1a5d9957db5d1c99d7db1bd8dad95917d8591960521b60808201526000805160206105788339815191529060a001610268565b600060008051602061057883398151915283836040516102d09291906001600160a01b039290921682526020820152606060408201819052601590820152743730ba34bb32afb6ba392fb637b1b5b2b22fb9bab160591b608082015260a00190565b600060008051602061057883398151915283836040516102d09291906001600160a01b039290921682526020820152606060408201819052601690820152753730ba34bb32afb6ba3933afb637b1b5b2b22fb9bab160511b608082015260a00190565b604080516001600160a01b0384168152602081018390526060918101829052600f918101919091526e1b985d1a5d9957db5d1c99d7d85919608a1b60808201526000805160206105788339815191529060a001610268565b600060008051602061057883398151915283836040516102d09291906001600160a01b039290921682526020820152606060408201819052600e908201526d3730ba34bb32afb6ba392fb9bab160911b608082015260a00190565b80356001600160a01b038116811461052657600080fd5b919050565b60006020828403121561053d57600080fd5b6105468261050f565b9392505050565b6000806040838503121561056057600080fd5b6105698361050f565b94602093909301359350505056fee733fdb97bd02ae887462b30f938653e7a701cf0ec92fc28d4e57d462961f214a2646970667358221220754b721c8207726f82f39fc4b86c6c0df548a4e70349a1336387334df5691cc664736f6c634300080b0033",
          "opcodes": "PUSH1 0x80 PUSH1 0x40 MSTORE PUSH2 0x5CD DUP1 PUSH2 0x13 PUSH1 0x0 CODECOPY PUSH1 0x0 RETURN INVALID PUSH1 0x80 PUSH1 0x40 MSTORE CALLVALUE DUP1 ISZERO PUSH2 0x10 JUMPI PUSH1 0x0 DUP1 REVERT JUMPDEST POP PUSH1 0x4 CALLDATASIZE LT PUSH2 0x10B JUMPI PUSH1 0x0 CALLDATALOAD PUSH1 0xE0 SHR DUP1 PUSH4 0xA236E000 GT PUSH2 0xA2 JUMPI DUP1 PUSH4 0xCC230641 GT PUSH2 0x71 JUMPI DUP1 PUSH4 0xCC230641 EQ PUSH2 0x1D5 JUMPI DUP1 PUSH4 0xCCC7DF9D EQ PUSH2 0x15D JUMPI DUP1 PUSH4 0xDF77A6D4 EQ PUSH2 0x1E8 JUMPI DUP1 PUSH4 0xEAA93F6B EQ PUSH2 0x15D JUMPI DUP1 PUSH4 0xF14645F5 EQ PUSH2 0x1FB JUMPI PUSH1 0x0 DUP1 REVERT JUMPDEST DUP1 PUSH4 0xA236E000 EQ PUSH2 0x15D JUMPI DUP1 PUSH4 0xA30AF270 EQ PUSH2 0x110 JUMPI DUP1 PUSH4 0xB547784B EQ PUSH2 0x1AF JUMPI DUP1 PUSH4 0xBAA28902 EQ PUSH2 0x1C2 JUMPI PUSH1 0x0 DUP1 REVERT JUMPDEST DUP1 PUSH4 0x2BBE467E GT PUSH2 0xDE JUMPI DUP1 PUSH4 0x2BBE467E EQ PUSH2 0x179 JUMPI DUP1 PUSH4 0x30DAA282 EQ PUSH2 0x110 JUMPI DUP1 PUSH4 0x740B155F EQ PUSH2 0x19C JUMPI DUP1 PUSH4 0x98C6FB8D EQ PUSH2 0x110 JUMPI PUSH1 0x0 DUP1 REVERT JUMPDEST DUP1 PUSH4 0x511D903 EQ PUSH2 0x110 JUMPI DUP1 PUSH4 0x59950E9 EQ PUSH2 0x137 JUMPI DUP1 PUSH4 0x76E361D EQ PUSH2 0x15D JUMPI DUP1 PUSH4 0x20AE6501 EQ PUSH2 0x164 JUMPI JUMPDEST PUSH1 0x0 DUP1 REVERT JUMPDEST PUSH2 0x124 PUSH2 0x11E CALLDATASIZE PUSH1 0x4 PUSH2 0x52B JUMP JUMPDEST POP PUSH1 0x0 SWAP1 JUMP JUMPDEST PUSH1 0x40 MLOAD SWAP1 DUP2 MSTORE PUSH1 0x20 ADD JUMPDEST PUSH1 0x40 MLOAD DUP1 SWAP2 SUB SWAP1 RETURN JUMPDEST PUSH2 0x145 PUSH2 0x11E CALLDATASIZE PUSH1 0x4 PUSH2 0x52B JUMP JUMPDEST PUSH1 0x40 MLOAD PUSH1 0x1 PUSH1 0x1 PUSH1 0xA0 SHL SUB SWAP1 SWAP2 AND DUP2 MSTORE PUSH1 0x20 ADD PUSH2 0x12E JUMP JUMPDEST PUSH1 0x0 PUSH2 0x124 JUMP JUMPDEST PUSH2 0x177 PUSH2 0x172 CALLDATASIZE PUSH1 0x4 PUSH2 0x54D JUMP JUMPDEST PUSH2 0x20E JUMP JUMPDEST STOP JUMPDEST PUSH2 0x18C PUSH2 0x187 CALLDATASIZE PUSH1 0x4 PUSH2 0x54D JUMP JUMPDEST PUSH2 0x274 JUMP JUMPDEST PUSH1 0x40 MLOAD SWAP1 ISZERO ISZERO DUP2 MSTORE PUSH1 0x20 ADD PUSH2 0x12E JUMP JUMPDEST PUSH2 0x177 PUSH2 0x1AA CALLDATASIZE PUSH1 0x4 PUSH2 0x54D JUMP JUMPDEST PUSH2 0x2E1 JUMP JUMPDEST PUSH2 0x177 PUSH2 0x1BD CALLDATASIZE PUSH1 0x4 PUSH2 0x54D JUMP JUMPDEST PUSH2 0x338 JUMP JUMPDEST PUSH2 0x18C PUSH2 0x1D0 CALLDATASIZE PUSH1 0x4 PUSH2 0x54D JUMP JUMPDEST PUSH2 0x397 JUMP JUMPDEST PUSH2 0x18C PUSH2 0x1E3 CALLDATASIZE PUSH1 0x4 PUSH2 0x54D JUMP JUMPDEST PUSH2 0x3F9 JUMP JUMPDEST PUSH2 0x177 PUSH2 0x1F6 CALLDATASIZE PUSH1 0x4 PUSH2 0x54D JUMP JUMPDEST PUSH2 0x45C JUMP JUMPDEST PUSH2 0x18C PUSH2 0x209 CALLDATASIZE PUSH1 0x4 PUSH2 0x54D JUMP JUMPDEST PUSH2 0x4B4 JUMP JUMPDEST PUSH1 0x40 DUP1 MLOAD PUSH1 0x1 PUSH1 0x1 PUSH1 0xA0 SHL SUB DUP5 AND DUP2 MSTORE PUSH1 0x20 DUP2 ADD DUP4 SWAP1 MSTORE PUSH1 0x60 SWAP2 DUP2 ADD DUP3 SWAP1 MSTORE PUSH1 0x15 SWAP2 DUP2 ADD SWAP2 SWAP1 SWAP2 MSTORE PUSH21 0x1B985D1A5D9957DB5D1C97DB1BD8DAD95917D85919 PUSH1 0x5A SHL PUSH1 0x80 DUP3 ADD MSTORE PUSH1 0x0 DUP1 MLOAD PUSH1 0x20 PUSH2 0x578 DUP4 CODECOPY DUP2 MLOAD SWAP2 MSTORE SWAP1 PUSH1 0xA0 ADD JUMPDEST PUSH1 0x40 MLOAD DUP1 SWAP2 SUB SWAP1 LOG1 POP POP JUMP JUMPDEST PUSH1 0x0 PUSH1 0x0 DUP1 MLOAD PUSH1 0x20 PUSH2 0x578 DUP4 CODECOPY DUP2 MLOAD SWAP2 MSTORE DUP4 DUP4 PUSH1 0x40 MLOAD PUSH2 0x2D0 SWAP3 SWAP2 SWAP1 PUSH1 0x1 PUSH1 0x1 PUSH1 0xA0 SHL SUB SWAP3 SWAP1 SWAP3 AND DUP3 MSTORE PUSH1 0x20 DUP3 ADD MSTORE PUSH1 0x60 PUSH1 0x40 DUP3 ADD DUP2 SWAP1 MSTORE PUSH1 0xF SWAP1 DUP3 ADD MSTORE PUSH15 0x3730BA34BB32AFB6BA3933AFB9BAB1 PUSH1 0x89 SHL PUSH1 0x80 DUP3 ADD MSTORE PUSH1 0xA0 ADD SWAP1 JUMP JUMPDEST PUSH1 0x40 MLOAD DUP1 SWAP2 SUB SWAP1 LOG1 POP PUSH1 0x1 SWAP3 SWAP2 POP POP JUMP JUMPDEST PUSH1 0x40 DUP1 MLOAD PUSH1 0x1 PUSH1 0x1 PUSH1 0xA0 SHL SUB DUP5 AND DUP2 MSTORE PUSH1 0x20 DUP2 ADD DUP4 SWAP1 MSTORE PUSH1 0x60 SWAP2 DUP2 ADD DUP3 SWAP1 MSTORE PUSH1 0xE SWAP2 DUP2 ADD SWAP2 SWAP1 SWAP2 MSTORE PUSH14 0x1B985D1A5D9957DB5D1C97D85919 PUSH1 0x92 SHL PUSH1 0x80 DUP3 ADD MSTORE PUSH1 0x0 DUP1 MLOAD PUSH1 0x20 PUSH2 0x578 DUP4 CODECOPY DUP2 MLOAD SWAP2 MSTORE SWAP1 PUSH1 0xA0 ADD PUSH2 0x268 JUMP JUMPDEST PUSH1 0x40 DUP1 MLOAD PUSH1 0x1 PUSH1 0x1 PUSH1 0xA0 SHL SUB DUP5 AND DUP2 MSTORE PUSH1 0x20 DUP2 ADD DUP4 SWAP1 MSTORE PUSH1 0x60 SWAP2 DUP2 ADD DUP3 SWAP1 MSTORE PUSH1 0x16 SWAP2 DUP2 ADD SWAP2 SWAP1 SWAP2 MSTORE PUSH22 0x1B985D1A5D9957DB5D1C99D7DB1BD8DAD95917D85919 PUSH1 0x52 SHL PUSH1 0x80 DUP3 ADD MSTORE PUSH1 0x0 DUP1 MLOAD PUSH1 0x20 PUSH2 0x578 DUP4 CODECOPY DUP2 MLOAD SWAP2 MSTORE SWAP1 PUSH1 0xA0 ADD PUSH2 0x268 JUMP JUMPDEST PUSH1 0x0 PUSH1 0x0 DUP1 MLOAD PUSH1 0x20 PUSH2 0x578 DUP4 CODECOPY DUP2 MLOAD SWAP2 MSTORE DUP4 DUP4 PUSH1 0x40 MLOAD PUSH2 0x2D0 SWAP3 SWAP2 SWAP1 PUSH1 0x1 PUSH1 0x1 PUSH1 0xA0 SHL SUB SWAP3 SWAP1 SWAP3 AND DUP3 MSTORE PUSH1 0x20 DUP3 ADD MSTORE PUSH1 0x60 PUSH1 0x40 DUP3 ADD DUP2 SWAP1 MSTORE PUSH1 0x15 SWAP1 DUP3 ADD MSTORE PUSH21 0x3730BA34BB32AFB6BA392FB637B1B5B2B22FB9BAB1 PUSH1 0x59 SHL PUSH1 0x80 DUP3 ADD MSTORE PUSH1 0xA0 ADD SWAP1 JUMP JUMPDEST PUSH1 0x0 PUSH1 0x0 DUP1 MLOAD PUSH1 0x20 PUSH2 0x578 DUP4 CODECOPY DUP2 MLOAD SWAP2 MSTORE DUP4 DUP4 PUSH1 0x40 MLOAD PUSH2 0x2D0 SWAP3 SWAP2 SWAP1 PUSH1 0x1 PUSH1 0x1 PUSH1 0xA0 SHL SUB SWAP3 SWAP1 SWAP3 AND DUP3 MSTORE PUSH1 0x20 DUP3 ADD MSTORE PUSH1 0x60 PUSH1 0x40 DUP3 ADD DUP2 SWAP1 MSTORE PUSH1 0x16 SWAP1 DUP3 ADD MSTORE PUSH22 0x3730BA34BB32AFB6BA3933AFB637B1B5B2B22FB9BAB1 PUSH1 0x51 SHL PUSH1 0x80 DUP3 ADD MSTORE PUSH1 0xA0 ADD SWAP1 JUMP JUMPDEST PUSH1 0x40 DUP1 MLOAD PUSH1 0x1 PUSH1 0x1 PUSH1 0xA0 SHL SUB DUP5 AND DUP2 MSTORE PUSH1 0x20 DUP2 ADD DUP4 SWAP1 MSTORE PUSH1 0x60 SWAP2 DUP2 ADD DUP3 SWAP1 MSTORE PUSH1 0xF SWAP2 DUP2 ADD SWAP2 SWAP1 SWAP2 MSTORE PUSH15 0x1B985D1A5D9957DB5D1C99D7D85919 PUSH1 0x8A SHL PUSH1 0x80 DUP3 ADD MSTORE PUSH1 0x0 DUP1 MLOAD PUSH1 0x20 PUSH2 0x578 DUP4 CODECOPY DUP2 MLOAD SWAP2 MSTORE SWAP1 PUSH1 0xA0 ADD PUSH2 0x268 JUMP JUMPDEST PUSH1 0x0 PUSH1 0x0 DUP1 MLOAD PUSH1 0x20 PUSH2 0x578 DUP4 CODECOPY DUP2 MLOAD SWAP2 MSTORE DUP4 DUP4 PUSH1 0x40 MLOAD PUSH2 0x2D0 SWAP3 SWAP2 SWAP1 PUSH1 0x1 PUSH1 0x1 PUSH1 0xA0 SHL SUB SWAP3 SWAP1 SWAP3 AND DUP3 MSTORE PUSH1 0x20 DUP3 ADD MSTORE PUSH1 0x60 PUSH1 0x40 DUP3 ADD DUP2 SWAP1 MSTORE PUSH1 0xE SWAP1 DUP3 ADD MSTORE PUSH14 0x3730BA34BB32AFB6BA392FB9BAB1 PUSH1 0x91 SHL PUSH1 0x80 DUP3 ADD MSTORE PUSH1 0xA0 ADD SWAP1 JUMP JUMPDEST DUP1 CALLDATALOAD PUSH1 0x1 PUSH1 0x1 PUSH1 0xA0 SHL SUB DUP2 AND DUP2 EQ PUSH2 0x526 JUMPI PUSH1 0x0 DUP1 REVERT JUMPDEST SWAP2 SWAP1 POP JUMP JUMPDEST PUSH1 0x0 PUSH1 0x20 DUP3 DUP5 SUB SLT ISZERO PUSH2 0x53D JUMPI PUSH1 0x0 DUP1 REVERT JUMPDEST PUSH2 0x546 DUP3 PUSH2 0x50F JUMP JUMPDEST SWAP4 SWAP3 POP POP POP JUMP JUMPDEST PUSH1 0x0 DUP1 PUSH1 0x40 DUP4 DUP6 SUB SLT ISZERO PUSH2 0x560 JUMPI PUSH1 0x0 DUP1 REVERT JUMPDEST PUSH2 0x569 DUP4 PUSH2 0x50F JUMP JUMPDEST SWAP5 PUSH1 0x20 SWAP4 SWAP1 SWAP4 ADD CALLDATALOAD SWAP4 POP POP POP JUMP INVALID 0xE7 CALLER REVERT 0xB9 PUSH28 0xD02AE887462B30F938653E7A701CF0EC92FC28D4E57D462961F214A2 PUSH5 0x6970667358 0x22 SLT KECCAK256 PUSH22 0x4B721C8207726F82F39FC4B86C6C0DF548A4E70349A1 CALLER PUSH4 0x87334DF5 PUSH10 0x1CC664736F6C63430008 SIGNEXTEND STOP CALLER "
        },
        "methodIdentifiers": {
          "native_master(address)": "059950e9",
          "native_mtr_add(address,uint256)": "740b155f",
          "native_mtr_get(address)": "0511d903",
          "native_mtr_locked_add(address,uint256)": "20ae6501",
          "native_mtr_locked_get(address)": "30daa282",
          "native_mtr_locked_sub(address,uint256)": "baa28902",
          "native_mtr_sub(address,uint256)": "f14645f5",
          "native_mtr_totalBurned()": "ccc7df9d",
          "native_mtr_totalSupply()": "076e361d",
          "native_mtrg_add(address,uint256)": "df77a6d4",
          "native_mtrg_get(address)": "a30af270",
          "native_mtrg_locked_add(address,uint256)": "b547784b",
          "native_mtrg_locked_get(address)": "98c6fb8d",
          "native_mtrg_locked_sub(address,uint256)": "cc230641",
          "native_mtrg_sub(address,uint256)": "2bbe467e",
          "native_mtrg_totalBurned()": "eaa93f6b",
          "native_mtrg_totalSupply()": "a236e000"
        }
      },
      "storageLayout": {
        "storage": [],
        "types": null
      }
    }
  }
}