{
  "contracts/test/MockScriptEngine.sol": {
    "MockScriptEngine": {
      "abi": [
        {
          "inputs": [
            {
              "internalType": "contract MockMTRG",
              "name": "_MTRG",
              "type": "address"
            }
          ],
          "stateMutability": "nonpayable",
          "type": "constructor"
        },
        {
          "inputs": [],
          "name": "MTRG",
          "outputs": [
            {
              "internalType": "contract MockMTRG",
              "name": "",
              "type": "address"
            }
          ],
          "stateMutability": "view",
          "type": "function"
        },
        {
          "inputs": [],
          "name": "boundedMTRG",
          "outputs": [
            {
              "internalType": "uint256",
              "name": "",
              "type": "uint256"
            }
          ],
          "stateMutability": "view",
          "type": "function"
        },
        {
          "inputs": [
            {
              "internalType": "address",
              "name": "",
              "type": "address"
            },
            {
              "internalType": "bytes32",
              "name": "",
              "type": "bytes32"
            }
          ],
          "name": "bucket",
          "outputs": [
            {
              "internalType": "uint256",
              "name": "",
              "type": "uint256"
            }
          ],
          "stateMutability": "view",
          "type": "function"
        },
        {
          "inputs": [
            {
              "internalType": "bytes32",
              "name": "bucketID",
              "type": "bytes32"
            }
          ],
          "name": "bucketClose",
          "outputs": [],
          "stateMutability": "nonpayable",
          "type": "function"
        },
        {
          "inputs": [
            {
              "internalType": "bytes32",
              "name": "bucketID",
              "type": "bytes32"
            },
            {
              "internalType": "uint256",
              "name": "amount",
              "type": "uint256"
            }
          ],
          "name": "bucketDeposit",
          "outputs": [],
          "stateMutability": "nonpayable",
          "type": "function"
        },
        {
          "inputs": [
            {
              "internalType": "bytes32",
              "name": "fromBucketID",
              "type": "bytes32"
            },
            {
              "internalType": "bytes32",
              "name": "toBucketID",
              "type": "bytes32"
            },
            {
              "internalType": "uint256",
              "name": "amount",
              "type": "uint256"
            }
          ],
          "name": "bucketMerge",
          "outputs": [],
          "stateMutability": "nonpayable",
          "type": "function"
        },
        {
          "inputs": [
            {
              "internalType": "address",
              "name": "candidate",
              "type": "address"
            },
            {
              "internalType": "uint256",
              "name": "amount",
              "type": "uint256"
            }
          ],
          "name": "bucketOpen",
          "outputs": [
            {
              "internalType": "bytes32",
              "name": "bucketID",
              "type": "bytes32"
            }
          ],
          "stateMutability": "nonpayable",
          "type": "function"
        },
        {
          "inputs": [
            {
              "internalType": "bytes32",
              "name": "fromBucketID",
              "type": "bytes32"
            },
            {
              "internalType": "bytes32",
              "name": "toBucketID",
              "type": "bytes32"
            },
            {
              "internalType": "uint256",
              "name": "amount",
              "type": "uint256"
            }
          ],
          "name": "bucketTransferFund",
          "outputs": [],
          "stateMutability": "nonpayable",
          "type": "function"
        },
        {
          "inputs": [
            {
              "internalType": "bytes32",
              "name": "",
              "type": "bytes32"
            }
          ],
          "name": "bucketUser",
          "outputs": [
            {
              "internalType": "address",
              "name": "",
              "type": "address"
            }
          ],
          "stateMutability": "view",
          "type": "function"
        },
        {
          "inputs": [
            {
              "internalType": "bytes32",
              "name": "bucketID",
              "type": "bytes32"
            }
          ],
          "name": "bucketValue",
          "outputs": [
            {
              "internalType": "uint256",
              "name": "",
              "type": "uint256"
            }
          ],
          "stateMutability": "view",
          "type": "function"
        },
        {
          "inputs": [
            {
              "internalType": "bytes32",
              "name": "bucketID",
              "type": "bytes32"
            },
            {
              "internalType": "uint256",
              "name": "amount",
              "type": "uint256"
            },
            {
              "internalType": "address",
              "name": "recipient",
              "type": "address"
            }
          ],
          "name": "bucketWithdraw",
          "outputs": [
            {
              "internalType": "bytes32",
              "name": "newBktID",
              "type": "bytes32"
            }
          ],
          "stateMutability": "nonpayable",
          "type": "function"
        },
        {
          "inputs": [],
          "name": "reward",
          "outputs": [],
          "stateMutability": "nonpayable",
          "type": "function"
        }
      ],
      "devdoc": {
        "kind": "dev",
        "methods": {},
        "version": 1
      },
      "evm": {
        "bytecode": {
          "linkReferences": {},
          "object": "608060405234801561001057600080fd5b50604051610efa380380610efa83398101604081905261002f91610054565b600080546001600160a01b0319166001600160a01b0392909216919091179055610084565b60006020828403121561006657600080fd5b81516001600160a01b038116811461007d57600080fd5b9392505050565b610e67806100936000396000f3fe608060405234801561001057600080fd5b50600436106100d45760003560e01c806375a5e2881161008157806388b0e2a41161005b57806388b0e2a4146101a85780639748bf5b146101d3578063b7b4de67146101fe57600080fd5b806375a5e2881461015757806377d7f9131461016a5780637de9d11f1461017d57600080fd5b80633a8dd82a116100b25780633a8dd82a1461011c578063561f97be1461013157806372be77a01461014457600080fd5b80631b7846c0146100d9578063228cb733146100ee5780633060ef72146100f6575b600080fd5b6100ec6100e7366004610c7f565b610227565b005b6100ec610366565b610109610104366004610cbd565b61045c565b6040519081526020015b60405180910390f35b33600090815260036020526040902054610109565b61010961013f366004610ce7565b61062a565b6100ec610152366004610d1c565b610793565b6100ec610165366004610d1c565b610868565b6100ec610178366004610d48565b61090e565b61010961018b366004610cbd565b600260209081526000928352604080842090915290825290205481565b6000546101bb906001600160a01b031681565b6040516001600160a01b039091168152602001610113565b6101096101e1366004610d48565b336000908152600260209081526040808320938352929052205490565b6101bb61020c366004610d48565b6001602052600090815260409020546001600160a01b031681565b3360009081526002602090815260408083208584529091529020546102935760405162461bcd60e51b815260206004820152601160248201527f6275636b6574206e6f742065786973742100000000000000000000000000000060448201526064015b60405180910390fd5b60005460405163bb35783b60e01b8152336004820152306024820152604481018390526001600160a01b039091169063bb35783b906064016020604051808303816000875af11580156102ea573d6000803e3d6000fd5b505050506040513d601f19601f8201168201806040525081019061030e9190610d61565b5033600090815260026020908152604080832085845290915281208054839290610339908490610d99565b9091555050336000908152600360205260408120805483929061035d908490610d99565b90915550505050565b60006103726004610ad8565b905060005b8181101561045857600061038c600483610ae8565b6000818152600160209081526040808320546001600160a01b031680845260028352818420858552909252822054929350916103ca90600a90610db1565b6000546040516340c10f1960e01b81526001600160a01b038581166004830152602482018490529293509116906340c10f19906044016020604051808303816000875af115801561041f573d6000803e3d6000fd5b505050506040513d601f19601f820116820180604052508101906104439190610d61565b505050508061045190610dd3565b9050610377565b5050565b604080513360208083018290526001600160a01b038616838501528351808403850181526060909301845282519281019290922060009182526002835283822081835290925291909120541580156104c957506000818152600160205260409020546001600160a01b0316155b6105155760405162461bcd60e51b815260206004820152600d60248201527f6275636b65742065786973742100000000000000000000000000000000000000604482015260640161028a565b60005460405163bb35783b60e01b8152336004820152306024820152604481018490526001600160a01b039091169063bb35783b906064016020604051808303816000875af115801561056c573d6000803e3d6000fd5b505050506040513d601f19601f820116820180604052508101906105909190610d61565b50600081815260016020908152604080832080547fffffffffffffffffffffffff00000000000000000000000000000000000000001633908117909155835260028252808320848452909152812080548492906105ee908490610d99565b90915550503360009081526003602052604081208054849290610612908490610d99565b909155506106239050600482610afb565b5092915050565b6000838152600160209081526040808320546001600160a01b0316808452600283528184208785529092528220548411156106a75760405162461bcd60e51b815260206004820152601260248201527f6275636b6574206e6f7420656e6f756768210000000000000000000000000000604482015260640161028a565b60005460405163bb35783b60e01b81523060048201526001600160a01b038581166024830152604482018790529091169063bb35783b906064016020604051808303816000875af1158015610700573d6000803e3d6000fd5b505050506040513d601f19601f820116820180604052508101906107249190610d61565b506001600160a01b038116600090815260026020908152604080832088845290915281208054869290610758908490610dee565b90915550506001600160a01b03811660009081526003602052604081208054869290610785908490610dee565b909155509195945050505050565b33600090815260026020908152604080832086845290915290205468056bc75e2d63100000106108055760405162461bcd60e51b815260206004820152600960248201527f3130302065746865720000000000000000000000000000000000000000000000604482015260640161028a565b3360009081526002602090815260408083208684529091528120805483929061082f908490610dee565b90915550503360009081526002602090815260408083208584529091528120805483929061085e908490610d99565b9091555050505050565b33600090815260026020908152604080832086845290915281208054839290610892908490610dee565b9091555050336000908152600260209081526040808320868452909152902054156108e45760405162461bcd60e51b815260206004820152600260248201526103e360f41b604482015260640161028a565b3360009081526002602090815260408083208584529091528120805483929061085e908490610d99565b6000818152600160209081526040808320546001600160a01b031680845260028352818420858552909252909120548061098a5760405162461bcd60e51b815260206004820152601160248201527f6275636b6574206e6f7420657869737421000000000000000000000000000000604482015260640161028a565b336001600160a01b038316146109e25760405162461bcd60e51b815260206004820152601060248201527f6275636b6574206e6f7420796f75722100000000000000000000000000000000604482015260640161028a565b60005460405163bb35783b60e01b81523060048201526001600160a01b038481166024830152604482018490529091169063bb35783b906064016020604051808303816000875af1158015610a3b573d6000803e3d6000fd5b505050506040513d601f19601f82011682018060405250810190610a5f9190610d61565b506001600160a01b0382166000818152600260209081526040808320878452825280832054938352600390915281208054909190610a9e908490610dee565b90915550506001600160a01b0382166000908152600260209081526040808320868452909152812055610ad2600484610b07565b50505050565b6000610ae2825490565b92915050565b6000610af48383610b13565b9392505050565b6000610af48383610b3d565b6000610af48383610b8c565b6000826000018281548110610b2a57610b2a610e05565b9060005260206000200154905092915050565b6000818152600183016020526040812054610b8457508154600181810184556000848152602080822090930184905584548482528286019093526040902091909155610ae2565b506000610ae2565b60008181526001830160205260408120548015610c75576000610bb0600183610dee565b8554909150600090610bc490600190610dee565b9050818114610c29576000866000018281548110610be457610be4610e05565b9060005260206000200154905080876000018481548110610c0757610c07610e05565b6000918252602080832090910192909255918252600188019052604090208390555b8554869080610c3a57610c3a610e1b565b600190038181906000526020600020016000905590558560010160008681526020019081526020016000206000905560019350505050610ae2565b6000915050610ae2565b60008060408385031215610c9257600080fd5b50508035926020909101359150565b80356001600160a01b0381168114610cb857600080fd5b919050565b60008060408385031215610cd057600080fd5b610cd983610ca1565b946020939093013593505050565b600080600060608486031215610cfc57600080fd5b8335925060208401359150610d1360408501610ca1565b90509250925092565b600080600060608486031215610d3157600080fd5b505081359360208301359350604090920135919050565b600060208284031215610d5a57600080fd5b5035919050565b600060208284031215610d7357600080fd5b81518015158114610af457600080fd5b634e487b7160e01b600052601160045260246000fd5b60008219821115610dac57610dac610d83565b500190565b600082610dce57634e487b7160e01b600052601260045260246000fd5b500490565b6000600019821415610de757610de7610d83565b5060010190565b600082821015610e0057610e00610d83565b500390565b634e487b7160e01b600052603260045260246000fd5b634e487b7160e01b600052603160045260246000fdfea26469706673582212206bec7320e934707cb02ca539e2d47e6aedb6a5025a4a71ebd389f18507cc251f64736f6c634300080b0033",
          "opcodes": "PUSH1 0x80 PUSH1 0x40 MSTORE CALLVALUE DUP1 ISZERO PUSH2 0x10 JUMPI PUSH1 0x0 DUP1 REVERT JUMPDEST POP PUSH1 0x40 MLOAD PUSH2 0xEFA CODESIZE SUB DUP1 PUSH2 0xEFA DUP4 CODECOPY DUP2 ADD PUSH1 0x40 DUP2 SWAP1 MSTORE PUSH2 0x2F SWAP2 PUSH2 0x54 JUMP JUMPDEST PUSH1 0x0 DUP1 SLOAD PUSH1 0x1 PUSH1 0x1 PUSH1 0xA0 SHL SUB NOT AND PUSH1 0x1 PUSH1 0x1 PUSH1 0xA0 SHL SUB SWAP3 SWAP1 SWAP3 AND SWAP2 SWAP1 SWAP2 OR SWAP1 SSTORE PUSH2 0x84 JUMP JUMPDEST PUSH1 0x0 PUSH1 0x20 DUP3 DUP5 SUB SLT ISZERO PUSH2 0x66 JUMPI PUSH1 0x0 DUP1 REVERT JUMPDEST DUP2 MLOAD PUSH1 0x1 PUSH1 0x1 PUSH1 0xA0 SHL SUB DUP2 AND DUP2 EQ PUSH2 0x7D JUMPI PUSH1 0x0 DUP1 REVERT JUMPDEST SWAP4 SWAP3 POP POP POP JUMP JUMPDEST PUSH2 0xE67 DUP1 PUSH2 0x93 PUSH1 0x0 CODECOPY PUSH1 0x0 RETURN INVALID PUSH1 0x80 PUSH1 0x40 MSTORE CALLVALUE DUP1 ISZERO PUSH2 0x10 JUMPI PUSH1 0x0 DUP1 REVERT JUMPDEST POP PUSH1 0x4 CALLDATASIZE LT PUSH2 0xD4 JUMPI PUSH1 0x0 CALLDATALOAD PUSH1 0xE0 SHR DUP1 PUSH4 0x75A5E288 GT PUSH2 0x81 JUMPI DUP1 PUSH4 0x88B0E2A4 GT PUSH2 0x5B JUMPI DUP1 PUSH4 0x88B0E2A4 EQ PUSH2 0x1A8 JUMPI DUP1 PUSH4 0x9748BF5B EQ PUSH2 0x1D3 JUMPI DUP1 PUSH4 0xB7B4DE67 EQ PUSH2 0x1FE JUMPI PUSH1 0x0 DUP1 REVERT JUMPDEST DUP1 PUSH4 0x75A5E288 EQ PUSH2 0x157 JUMPI DUP1 PUSH4 0x77D7F913 EQ PUSH2 0x16A JUMPI DUP1 PUSH4 0x7DE9D11F EQ PUSH2 0x17D JUMPI PUSH1 0x0 DUP1 REVERT JUMPDEST DUP1 PUSH4 0x3A8DD82A GT PUSH2 0xB2 JUMPI DUP1 PUSH4 0x3A8DD82A EQ PUSH2 0x11C JUMPI DUP1 PUSH4 0x561F97BE EQ PUSH2 0x131 JUMPI DUP1 PUSH4 0x72BE77A0 EQ PUSH2 0x144 JUMPI PUSH1 0x0 DUP1 REVERT JUMPDEST DUP1 PUSH4 0x1B7846C0 EQ PUSH2 0xD9 JUMPI DUP1 PUSH4 0x228CB733 EQ PUSH2 0xEE JUMPI DUP1 PUSH4 0x3060EF72 EQ PUSH2 0xF6 JUMPI JUMPDEST PUSH1 0x0 DUP1 REVERT JUMPDEST PUSH2 0xEC PUSH2 0xE7 CALLDATASIZE PUSH1 0x4 PUSH2 0xC7F JUMP JUMPDEST PUSH2 0x227 JUMP JUMPDEST STOP JUMPDEST PUSH2 0xEC PUSH2 0x366 JUMP JUMPDEST PUSH2 0x109 PUSH2 0x104 CALLDATASIZE PUSH1 0x4 PUSH2 0xCBD JUMP JUMPDEST PUSH2 0x45C JUMP JUMPDEST PUSH1 0x40 MLOAD SWAP1 DUP2 MSTORE PUSH1 0x20 ADD JUMPDEST PUSH1 0x40 MLOAD DUP1 SWAP2 SUB SWAP1 RETURN JUMPDEST CALLER PUSH1 0x0 SWAP1 DUP2 MSTORE PUSH1 0x3 PUSH1 0x20 MSTORE PUSH1 0x40 SWAP1 KECCAK256 SLOAD PUSH2 0x109 JUMP JUMPDEST PUSH2 0x109 PUSH2 0x13F CALLDATASIZE PUSH1 0x4 PUSH2 0xCE7 JUMP JUMPDEST PUSH2 0x62A JUMP JUMPDEST PUSH2 0xEC PUSH2 0x152 CALLDATASIZE PUSH1 0x4 PUSH2 0xD1C JUMP JUMPDEST PUSH2 0x793 JUMP JUMPDEST PUSH2 0xEC PUSH2 0x165 CALLDATASIZE PUSH1 0x4 PUSH2 0xD1C JUMP JUMPDEST PUSH2 0x868 JUMP JUMPDEST PUSH2 0xEC PUSH2 0x178 CALLDATASIZE PUSH1 0x4 PUSH2 0xD48 JUMP JUMPDEST PUSH2 0x90E JUMP JUMPDEST PUSH2 0x109 PUSH2 0x18B CALLDATASIZE PUSH1 0x4 PUSH2 0xCBD JUMP JUMPDEST PUSH1 0x2 PUSH1 0x20 SWAP1 DUP2 MSTORE PUSH1 0x0 SWAP3 DUP4 MSTORE PUSH1 0x40 DUP1 DUP5 KECCAK256 SWAP1 SWAP2 MSTORE SWAP1 DUP3 MSTORE SWAP1 KECCAK256 SLOAD DUP2 JUMP JUMPDEST PUSH1 0x0 SLOAD PUSH2 0x1BB SWAP1 PUSH1 0x1 PUSH1 0x1 PUSH1 0xA0 SHL SUB AND DUP2 JUMP JUMPDEST PUSH1 0x40 MLOAD PUSH1 0x1 PUSH1 0x1 PUSH1 0xA0 SHL SUB SWAP1 SWAP2 AND DUP2 MSTORE PUSH1 0x20 ADD PUSH2 0x113 JUMP JUMPDEST PUSH2 0x109 PUSH2 0x1E1 CALLDATASIZE PUSH1 0x4 PUSH2 0xD48 JUMP JUMPDEST CALLER PUSH1 0x0 SWAP1 DUP2 MSTORE PUSH1 0x2 PUSH1 0x20 SWAP1 DUP2 MSTORE PUSH1 0x40 DUP1 DUP4 KECCAK256 SWAP4 DUP4 MSTORE SWAP3 SWAP1 MSTORE KECCAK256 SLOAD SWAP1 JUMP JUMPDEST PUSH2 0x1BB PUSH2 0x20C CALLDATASIZE PUSH1 0x4 PUSH2 0xD48 JUMP JUMPDEST PUSH1 0x1 PUSH1 0x20 MSTORE PUSH1 0x0 SWAP1 DUP2 MSTORE PUSH1 0x40 SWAP1 KECCAK256 SLOAD PUSH1 0x1 PUSH1 0x1 PUSH1 0xA0 SHL SUB AND DUP2 JUMP JUMPDEST CALLER PUSH1 0x0 SWAP1 DUP2 MSTORE PUSH1 0x2 PUSH1 0x20 SWAP1 DUP2 MSTORE PUSH1 0x40 DUP1 DUP4 KECCAK256 DUP6 DUP5 MSTORE SWAP1 SWAP2 MSTORE SWAP1 KECCAK256 SLOAD PUSH2 0x293 JUMPI PUSH1 0x40 MLOAD PUSH3 0x461BCD PUSH1 0xE5 SHL DUP2 MSTORE PUSH1 0x20 PUSH1 0x4 DUP3 ADD MSTORE PUSH1 0x11 PUSH1 0x24 DUP3 ADD MSTORE PUSH32 0x6275636B6574206E6F7420657869737421000000000000000000000000000000 PUSH1 0x44 DUP3 ADD MSTORE PUSH1 0x64 ADD JUMPDEST PUSH1 0x40 MLOAD DUP1 SWAP2 SUB SWAP1 REVERT JUMPDEST PUSH1 0x0 SLOAD PUSH1 0x40 MLOAD PUSH4 0xBB35783B PUSH1 0xE0 SHL DUP2 MSTORE CALLER PUSH1 0x4 DUP3 ADD MSTORE ADDRESS PUSH1 0x24 DUP3 ADD MSTORE PUSH1 0x44 DUP2 ADD DUP4 SWAP1 MSTORE PUSH1 0x1 PUSH1 0x1 PUSH1 0xA0 SHL SUB SWAP1 SWAP2 AND SWAP1 PUSH4 0xBB35783B SWAP1 PUSH1 0x64 ADD PUSH1 0x20 PUSH1 0x40 MLOAD DUP1 DUP4 SUB DUP2 PUSH1 0x0 DUP8 GAS CALL ISZERO DUP1 ISZERO PUSH2 0x2EA JUMPI RETURNDATASIZE PUSH1 0x0 DUP1 RETURNDATACOPY RETURNDATASIZE PUSH1 0x0 REVERT JUMPDEST POP POP POP POP PUSH1 0x40 MLOAD RETURNDATASIZE PUSH1 0x1F NOT PUSH1 0x1F DUP3 ADD AND DUP3 ADD DUP1 PUSH1 0x40 MSTORE POP DUP2 ADD SWAP1 PUSH2 0x30E SWAP2 SWAP1 PUSH2 0xD61 JUMP JUMPDEST POP CALLER PUSH1 0x0 SWAP1 DUP2 MSTORE PUSH1 0x2 PUSH1 0x20 SWAP1 DUP2 MSTORE PUSH1 0x40 DUP1 DUP4 KECCAK256 DUP6 DUP5 MSTORE SWAP1 SWAP2 MSTORE DUP2 KECCAK256 DUP1 SLOAD DUP4 SWAP3 SWAP1 PUSH2 0x339 SWAP1 DUP5 SWAP1 PUSH2 0xD99 JUMP JUMPDEST SWAP1 SWAP2 SSTORE POP POP CALLER PUSH1 0x0 SWAP1 DUP2 MSTORE PUSH1 0x3 PUSH1 0x20 MSTORE PUSH1 0x40 DUP2 KECCAK256 DUP1 SLOAD DUP4 SWAP3 SWAP1 PUSH2 0x35D SWAP1 DUP5 SWAP1 PUSH2 0xD99 JUMP JUMPDEST SWAP1 SWAP2 SSTORE POP POP POP POP JUMP JUMPDEST PUSH1 0x0 PUSH2 0x372 PUSH1 0x4 PUSH2 0xAD8 JUMP JUMPDEST SWAP1 POP PUSH1 0x0 JUMPDEST DUP2 DUP2 LT ISZERO PUSH2 0x458 JUMPI PUSH1 0x0 PUSH2 0x38C PUSH1 0x4 DUP4 PUSH2 0xAE8 JUMP JUMPDEST PUSH1 0x0 DUP2 DUP2 MSTORE PUSH1 0x1 PUSH1 0x20 SWAP1 DUP2 MSTORE PUSH1 0x40 DUP1 DUP4 KECCAK256 SLOAD PUSH1 0x1 PUSH1 0x1 PUSH1 0xA0 SHL SUB AND DUP1 DUP5 MSTORE PUSH1 0x2 DUP4 MSTORE DUP2 DUP5 KECCAK256 DUP6 DUP6 MSTORE SWAP1 SWAP3 MSTORE DUP3 KECCAK256 SLOAD SWAP3 SWAP4 POP SWAP2 PUSH2 0x3CA SWAP1 PUSH1 0xA SWAP1 PUSH2 0xDB1 JUMP JUMPDEST PUSH1 0x0 SLOAD PUSH1 0x40 MLOAD PUSH4 0x40C10F19 PUSH1 0xE0 SHL DUP2 MSTORE PUSH1 0x1 PUSH1 0x1 PUSH1 0xA0 SHL SUB DUP6 DUP2 AND PUSH1 0x4 DUP4 ADD MSTORE PUSH1 0x24 DUP3 ADD DUP5 SWAP1 MSTORE SWAP3 SWAP4 POP SWAP2 AND SWAP1 PUSH4 0x40C10F19 SWAP1 PUSH1 0x44 ADD PUSH1 0x20 PUSH1 0x40 MLOAD DUP1 DUP4 SUB DUP2 PUSH1 0x0 DUP8 GAS CALL ISZERO DUP1 ISZERO PUSH2 0x41F JUMPI RETURNDATASIZE PUSH1 0x0 DUP1 RETURNDATACOPY RETURNDATASIZE PUSH1 0x0 REVERT JUMPDEST POP POP POP POP PUSH1 0x40 MLOAD RETURNDATASIZE PUSH1 0x1F NOT PUSH1 0x1F DUP3 ADD AND DUP3 ADD DUP1 PUSH1 0x40 MSTORE POP DUP2 ADD SWAP1 PUSH2 0x443 SWAP2 SWAP1 PUSH2 0xD61 JUMP JUMPDEST POP POP POP POP DUP1 PUSH2 0x451 SWAP1 PUSH2 0xDD3 JUMP JUMPDEST SWAP1 POP PUSH2 0x377 JUMP JUMPDEST POP POP JUMP JUMPDEST PUSH1 0x40 DUP1 MLOAD CALLER PUSH1 0x20 DUP1 DUP4 ADD DUP3 SWAP1 MSTORE PUSH1 0x1 PUSH1 0x1 PUSH1 0xA0 SHL SUB DUP7 AND DUP4 DUP6 ADD MSTORE DUP4 MLOAD DUP1 DUP5 SUB DUP6 ADD DUP2 MSTORE PUSH1 0x60 SWAP1 SWAP4 ADD DUP5 MSTORE DUP3 MLOAD SWAP3 DUP2 ADD SWAP3 SWAP1 SWAP3 KECCAK256 PUSH1 0x0 SWAP2 DUP3 MSTORE PUSH1 0x2 DUP4 MSTORE DUP4 DUP3 KECCAK256 DUP2 DUP4 MSTORE SWAP1 SWAP3 MSTORE SWAP2 SWAP1 SWAP2 KECCAK256 SLOAD ISZERO DUP1 ISZERO PUSH2 0x4C9 JUMPI POP PUSH1 0x0 DUP2 DUP2 MSTORE PUSH1 0x1 PUSH1 0x20 MSTORE PUSH1 0x40 SWAP1 KECCAK256 SLOAD PUSH1 0x1 PUSH1 0x1 PUSH1 0xA0 SHL SUB AND ISZERO JUMPDEST PUSH2 0x515 JUMPI PUSH1 0x40 MLOAD PUSH3 0x461BCD PUSH1 0xE5 SHL DUP2 MSTORE PUSH1 0x20 PUSH1 0x4 DUP3 ADD MSTORE PUSH1 0xD PUSH1 0x24 DUP3 ADD MSTORE PUSH32 0x6275636B65742065786973742100000000000000000000000000000000000000 PUSH1 0x44 DUP3 ADD MSTORE PUSH1 0x64 ADD PUSH2 0x28A JUMP JUMPDEST PUSH1 0x0 SLOAD PUSH1 0x40 MLOAD PUSH4 0xBB35783B PUSH1 0xE0 SHL DUP2 MSTORE CALLER PUSH1 0x4 DUP3 ADD MSTORE ADDRESS PUSH1 0x24 DUP3 ADD MSTORE PUSH1 0x44 DUP2 ADD DUP5 SWAP1 MSTORE PUSH1 0x1 PUSH1 0x1 PUSH1 0xA0 SHL SUB SWAP1 SWAP2 AND SWAP1 PUSH4 0xBB35783B SWAP1 PUSH1 0x64 ADD PUSH1 0x20 PUSH1 0x40 MLOAD DUP1 DUP4 SUB DUP2 PUSH1 0x0 DUP8 GAS CALL ISZERO DUP1 ISZERO PUSH2 0x56C JUMPI RETURNDATASIZE PUSH1 0x0 DUP1 RETURNDATACOPY RETURNDATASIZE PUSH1 0x0 REVERT JUMPDEST POP POP POP POP PUSH1 0x40 MLOAD RETURNDATASIZE PUSH1 0x1F NOT PUSH1 0x1F DUP3 ADD AND DUP3 ADD DUP1 PUSH1 0x40 MSTORE POP DUP2 ADD SWAP1 PUSH2 0x590 SWAP2 SWAP1 PUSH2 0xD61 JUMP JUMPDEST POP PUSH1 0x0 DUP2 DUP2 MSTORE PUSH1 0x1 PUSH1 0x20 SWAP1 DUP2 MSTORE PUSH1 0x40 DUP1 DUP4 KECCAK256 DUP1 SLOAD PUSH32 0xFFFFFFFFFFFFFFFFFFFFFFFF0000000000000000000000000000000000000000 AND CALLER SWAP1 DUP2 OR SWAP1 SWAP2 SSTORE DUP4 MSTORE PUSH1 0x2 DUP3 MSTORE DUP1 DUP4 KECCAK256 DUP5 DUP5 MSTORE SWAP1 SWAP2 MSTORE DUP2 KECCAK256 DUP1 SLOAD DUP5 SWAP3 SWAP1 PUSH2 0x5EE SWAP1 DUP5 SWAP1 PUSH2 0xD99 JUMP JUMPDEST SWAP1 SWAP2 SSTORE POP POP CALLER PUSH1 0x0 SWAP1 DUP2 MSTORE PUSH1 0x3 PUSH1 0x20 MSTORE PUSH1 0x40 DUP2 KECCAK256 DUP1 SLOAD DUP5 SWAP3 SWAP1 PUSH2 0x612 SWAP1 DUP5 SWAP1 PUSH2 0xD99 JUMP JUMPDEST SWAP1 SWAP2 SSTORE POP PUSH2 0x623 SWAP1 POP PUSH1 0x4 DUP3 PUSH2 0xAFB JUMP JUMPDEST POP SWAP3 SWAP2 POP POP JUMP JUMPDEST PUSH1 0x0 DUP4 DUP2 MSTORE PUSH1 0x1 PUSH1 0x20 SWAP1 DUP2 MSTORE PUSH1 0x40 DUP1 DUP4 KECCAK256 SLOAD PUSH1 0x1 PUSH1 0x1 PUSH1 0xA0 SHL SUB AND DUP1 DUP5 MSTORE PUSH1 0x2 DUP4 MSTORE DUP2 DUP5 KECCAK256 DUP8 DUP6 MSTORE SWAP1 SWAP3 MSTORE DUP3 KECCAK256 SLOAD DUP5 GT ISZERO PUSH2 0x6A7 JUMPI PUSH1 0x40 MLOAD PUSH3 0x461BCD PUSH1 0xE5 SHL DUP2 MSTORE PUSH1 0x20 PUSH1 0x4 DUP3 ADD MSTORE PUSH1 0x12 PUSH1 0x24 DUP3 ADD MSTORE PUSH32 0x6275636B6574206E6F7420656E6F756768210000000000000000000000000000 PUSH1 0x44 DUP3 ADD MSTORE PUSH1 0x64 ADD PUSH2 0x28A JUMP JUMPDEST PUSH1 0x0 SLOAD PUSH1 0x40 MLOAD PUSH4 0xBB35783B PUSH1 0xE0 SHL DUP2 MSTORE ADDRESS PUSH1 0x4 DUP3 ADD MSTORE PUSH1 0x1 PUSH1 0x1 PUSH1 0xA0 SHL SUB DUP6 DUP2 AND PUSH1 0x24 DUP4 ADD MSTORE PUSH1 0x44 DUP3 ADD DUP8 SWAP1 MSTORE SWAP1 SWAP2 AND SWAP1 PUSH4 0xBB35783B SWAP1 PUSH1 0x64 ADD PUSH1 0x20 PUSH1 0x40 MLOAD DUP1 DUP4 SUB DUP2 PUSH1 0x0 DUP8 GAS CALL ISZERO DUP1 ISZERO PUSH2 0x700 JUMPI RETURNDATASIZE PUSH1 0x0 DUP1 RETURNDATACOPY RETURNDATASIZE PUSH1 0x0 REVERT JUMPDEST POP POP POP POP PUSH1 0x40 MLOAD RETURNDATASIZE PUSH1 0x1F NOT PUSH1 0x1F DUP3 ADD AND DUP3 ADD DUP1 PUSH1 0x40 MSTORE POP DUP2 ADD SWAP1 PUSH2 0x724 SWAP2 SWAP1 PUSH2 0xD61 JUMP JUMPDEST POP PUSH1 0x1 PUSH1 0x1 PUSH1 0xA0 SHL SUB DUP2 AND PUSH1 0x0 SWAP1 DUP2 MSTORE PUSH1 0x2 PUSH1 0x20 SWAP1 DUP2 MSTORE PUSH1 0x40 DUP1 DUP4 KECCAK256 DUP9 DUP5 MSTORE SWAP1 SWAP2 MSTORE DUP2 KECCAK256 DUP1 SLOAD DUP7 SWAP3 SWAP1 PUSH2 0x758 SWAP1 DUP5 SWAP1 PUSH2 0xDEE JUMP JUMPDEST SWAP1 SWAP2 SSTORE POP POP PUSH1 0x1 PUSH1 0x1 PUSH1 0xA0 SHL SUB DUP2 AND PUSH1 0x0 SWAP1 DUP2 MSTORE PUSH1 0x3 PUSH1 0x20 MSTORE PUSH1 0x40 DUP2 KECCAK256 DUP1 SLOAD DUP7 SWAP3 SWAP1 PUSH2 0x785 SWAP1 DUP5 SWAP1 PUSH2 0xDEE JUMP JUMPDEST SWAP1 SWAP2 SSTORE POP SWAP2 SWAP6 SWAP5 POP POP POP POP POP JUMP JUMPDEST CALLER PUSH1 0x0 SWAP1 DUP2 MSTORE PUSH1 0x2 PUSH1 0x20 SWAP1 DUP2 MSTORE PUSH1 0x40 DUP1 DUP4 KECCAK256 DUP7 DUP5 MSTORE SWAP1 SWAP2 MSTORE SWAP1 KECCAK256 SLOAD PUSH9 0x56BC75E2D63100000 LT PUSH2 0x805 JUMPI PUSH1 0x40 MLOAD PUSH3 0x461BCD PUSH1 0xE5 SHL DUP2 MSTORE PUSH1 0x20 PUSH1 0x4 DUP3 ADD MSTORE PUSH1 0x9 PUSH1 0x24 DUP3 ADD MSTORE PUSH32 0x3130302065746865720000000000000000000000000000000000000000000000 PUSH1 0x44 DUP3 ADD MSTORE PUSH1 0x64 ADD PUSH2 0x28A JUMP JUMPDEST CALLER PUSH1 0x0 SWAP1 DUP2 MSTORE PUSH1 0x2 PUSH1 0x20 SWAP1 DUP2 MSTORE PUSH1 0x40 DUP1 DUP4 KECCAK256 DUP7 DUP5 MSTORE SWAP1 SWAP2 MSTORE DUP2 KECCAK256 DUP1 SLOAD DUP4 SWAP3 SWAP1 PUSH2 0x82F SWAP1 DUP5 SWAP1 PUSH2 0xDEE JUMP JUMPDEST SWAP1 SWAP2 SSTORE POP POP CALLER PUSH1 0x0 SWAP1 DUP2 MSTORE PUSH1 0x2 PUSH1 0x20 SWAP1 DUP2 MSTORE PUSH1 0x40 DUP1 DUP4 KECCAK256 DUP6 DUP5 MSTORE SWAP1 SWAP2 MSTORE DUP2 KECCAK256 DUP1 SLOAD DUP4 SWAP3 SWAP1 PUSH2 0x85E SWAP1 DUP5 SWAP1 PUSH2 0xD99 JUMP JUMPDEST SWAP1 SWAP2 SSTORE POP POP POP POP POP JUMP JUMPDEST CALLER PUSH1 0x0 SWAP1 DUP2 MSTORE PUSH1 0x2 PUSH1 0x20 SWAP1 DUP2 MSTORE PUSH1 0x40 DUP1 DUP4 KECCAK256 DUP7 DUP5 MSTORE SWAP1 SWAP2 MSTORE DUP2 KECCAK256 DUP1 SLOAD DUP4 SWAP3 SWAP1 PUSH2 0x892 SWAP1 DUP5 SWAP1 PUSH2 0xDEE JUMP JUMPDEST SWAP1 SWAP2 SSTORE POP POP CALLER PUSH1 0x0 SWAP1 DUP2 MSTORE PUSH1 0x2 PUSH1 0x20 SWAP1 DUP2 MSTORE PUSH1 0x40 DUP1 DUP4 KECCAK256 DUP7 DUP5 MSTORE SWAP1 SWAP2 MSTORE SWAP1 KECCAK256 SLOAD ISZERO PUSH2 0x8E4 JUMPI PUSH1 0x40 MLOAD PUSH3 0x461BCD PUSH1 0xE5 SHL DUP2 MSTORE PUSH1 0x20 PUSH1 0x4 DUP3 ADD MSTORE PUSH1 0x2 PUSH1 0x24 DUP3 ADD MSTORE PUSH2 0x3E3 PUSH1 0xF4 SHL PUSH1 0x44 DUP3 ADD MSTORE PUSH1 0x64 ADD PUSH2 0x28A JUMP JUMPDEST CALLER PUSH1 0x0 SWAP1 DUP2 MSTORE PUSH1 0x2 PUSH1 0x20 SWAP1 DUP2 MSTORE PUSH1 0x40 DUP1 DUP4 KECCAK256 DUP6 DUP5 MSTORE SWAP1 SWAP2 MSTORE DUP2 KECCAK256 DUP1 SLOAD DUP4 SWAP3 SWAP1 PUSH2 0x85E SWAP1 DUP5 SWAP1 PUSH2 0xD99 JUMP JUMPDEST PUSH1 0x0 DUP2 DUP2 MSTORE PUSH1 0x1 PUSH1 0x20 SWAP1 DUP2 MSTORE PUSH1 0x40 DUP1 DUP4 KECCAK256 SLOAD PUSH1 0x1 PUSH1 0x1 PUSH1 0xA0 SHL SUB AND DUP1 DUP5 MSTORE PUSH1 0x2 DUP4 MSTORE DUP2 DUP5 KECCAK256 DUP6 DUP6 MSTORE SWAP1 SWAP3 MSTORE SWAP1 SWAP2 KECCAK256 SLOAD DUP1 PUSH2 0x98A JUMPI PUSH1 0x40 MLOAD PUSH3 0x461BCD PUSH1 0xE5 SHL DUP2 MSTORE PUSH1 0x20 PUSH1 0x4 DUP3 ADD MSTORE PUSH1 0x11 PUSH1 0x24 DUP3 ADD MSTORE PUSH32 0x6275636B6574206E6F7420657869737421000000000000000000000000000000 PUSH1 0x44 DUP3 ADD MSTORE PUSH1 0x64 ADD PUSH2 0x28A JUMP JUMPDEST CALLER PUSH1 0x1 PUSH1 0x1 PUSH1 0xA0 SHL SUB DUP4 AND EQ PUSH2 0x9E2 JUMPI PUSH1 0x40 MLOAD PUSH3 0x461BCD PUSH1 0xE5 SHL DUP2 MSTORE PUSH1 0x20 PUSH1 0x4 DUP3 ADD MSTORE PUSH1 0x10 PUSH1 0x24 DUP3 ADD MSTORE PUSH32 0x6275636B6574206E6F7420796F75722100000000000000000000000000000000 PUSH1 0x44 DUP3 ADD MSTORE PUSH1 0x64 ADD PUSH2 0x28A JUMP JUMPDEST PUSH1 0x0 SLOAD PUSH1 0x40 MLOAD PUSH4 0xBB35783B PUSH1 0xE0 SHL DUP2 MSTORE ADDRESS PUSH1 0x4 DUP3 ADD MSTORE PUSH1 0x1 PUSH1 0x1 PUSH1 0xA0 SHL SUB DUP5 DUP2 AND PUSH1 0x24 DUP4 ADD MSTORE PUSH1 0x44 DUP3 ADD DUP5 SWAP1 MSTORE SWAP1 SWAP2 AND SWAP1 PUSH4 0xBB35783B SWAP1 PUSH1 0x64 ADD PUSH1 0x20 PUSH1 0x40 MLOAD DUP1 DUP4 SUB DUP2 PUSH1 0x0 DUP8 GAS CALL ISZERO DUP1 ISZERO PUSH2 0xA3B JUMPI RETURNDATASIZE PUSH1 0x0 DUP1 RETURNDATACOPY RETURNDATASIZE PUSH1 0x0 REVERT JUMPDEST POP POP POP POP PUSH1 0x40 MLOAD RETURNDATASIZE PUSH1 0x1F NOT PUSH1 0x1F DUP3 ADD AND DUP3 ADD DUP1 PUSH1 0x40 MSTORE POP DUP2 ADD SWAP1 PUSH2 0xA5F SWAP2 SWAP1 PUSH2 0xD61 JUMP JUMPDEST POP PUSH1 0x1 PUSH1 0x1 PUSH1 0xA0 SHL SUB DUP3 AND PUSH1 0x0 DUP2 DUP2 MSTORE PUSH1 0x2 PUSH1 0x20 SWAP1 DUP2 MSTORE PUSH1 0x40 DUP1 DUP4 KECCAK256 DUP8 DUP5 MSTORE DUP3 MSTORE DUP1 DUP4 KECCAK256 SLOAD SWAP4 DUP4 MSTORE PUSH1 0x3 SWAP1 SWAP2 MSTORE DUP2 KECCAK256 DUP1 SLOAD SWAP1 SWAP2 SWAP1 PUSH2 0xA9E SWAP1 DUP5 SWAP1 PUSH2 0xDEE JUMP JUMPDEST SWAP1 SWAP2 SSTORE POP POP PUSH1 0x1 PUSH1 0x1 PUSH1 0xA0 SHL SUB DUP3 AND PUSH1 0x0 SWAP1 DUP2 MSTORE PUSH1 0x2 PUSH1 0x20 SWAP1 DUP2 MSTORE PUSH1 0x40 DUP1 DUP4 KECCAK256 DUP7 DUP5 MSTORE SWAP1 SWAP2 MSTORE DUP2 KECCAK256 SSTORE PUSH2 0xAD2 PUSH1 0x4 DUP5 PUSH2 0xB07 JUMP JUMPDEST POP POP POP POP JUMP JUMPDEST PUSH1 0x0 PUSH2 0xAE2 DUP3 SLOAD SWAP1 JUMP JUMPDEST SWAP3 SWAP2 POP POP JUMP JUMPDEST PUSH1 0x0 PUSH2 0xAF4 DUP4 DUP4 PUSH2 0xB13 JUMP JUMPDEST SWAP4 SWAP3 POP POP POP JUMP JUMPDEST PUSH1 0x0 PUSH2 0xAF4 DUP4 DUP4 PUSH2 0xB3D JUMP JUMPDEST PUSH1 0x0 PUSH2 0xAF4 DUP4 DUP4 PUSH2 0xB8C JUMP JUMPDEST PUSH1 0x0 DUP3 PUSH1 0x0 ADD DUP3 DUP2 SLOAD DUP2 LT PUSH2 0xB2A JUMPI PUSH2 0xB2A PUSH2 0xE05 JUMP JUMPDEST SWAP1 PUSH1 0x0 MSTORE PUSH1 0x20 PUSH1 0x0 KECCAK256 ADD SLOAD SWAP1 POP SWAP3 SWAP2 POP POP JUMP JUMPDEST PUSH1 0x0 DUP2 DUP2 MSTORE PUSH1 0x1 DUP4 ADD PUSH1 0x20 MSTORE PUSH1 0x40 DUP2 KECCAK256 SLOAD PUSH2 0xB84 JUMPI POP DUP2 SLOAD PUSH1 0x1 DUP2 DUP2 ADD DUP5 SSTORE PUSH1 0x0 DUP5 DUP2 MSTORE PUSH1 0x20 DUP1 DUP3 KECCAK256 SWAP1 SWAP4 ADD DUP5 SWAP1 SSTORE DUP5 SLOAD DUP5 DUP3 MSTORE DUP3 DUP7 ADD SWAP1 SWAP4 MSTORE PUSH1 0x40 SWAP1 KECCAK256 SWAP2 SWAP1 SWAP2 SSTORE PUSH2 0xAE2 JUMP JUMPDEST POP PUSH1 0x0 PUSH2 0xAE2 JUMP JUMPDEST PUSH1 0x0 DUP2 DUP2 MSTORE PUSH1 0x1 DUP4 ADD PUSH1 0x20 MSTORE PUSH1 0x40 DUP2 KECCAK256 SLOAD DUP1 ISZERO PUSH2 0xC75 JUMPI PUSH1 0x0 PUSH2 0xBB0 PUSH1 0x1 DUP4 PUSH2 0xDEE JUMP JUMPDEST DUP6 SLOAD SWAP1 SWAP2 POP PUSH1 0x0 SWAP1 PUSH2 0xBC4 SWAP1 PUSH1 0x1 SWAP1 PUSH2 0xDEE JUMP JUMPDEST SWAP1 POP DUP2 DUP2 EQ PUSH2 0xC29 JUMPI PUSH1 0x0 DUP7 PUSH1 0x0 ADD DUP3 DUP2 SLOAD DUP2 LT PUSH2 0xBE4 JUMPI PUSH2 0xBE4 PUSH2 0xE05 JUMP JUMPDEST SWAP1 PUSH1 0x0 MSTORE PUSH1 0x20 PUSH1 0x0 KECCAK256 ADD SLOAD SWAP1 POP DUP1 DUP8 PUSH1 0x0 ADD DUP5 DUP2 SLOAD DUP2 LT PUSH2 0xC07 JUMPI PUSH2 0xC07 PUSH2 0xE05 JUMP JUMPDEST PUSH1 0x0 SWAP2 DUP3 MSTORE PUSH1 0x20 DUP1 DUP4 KECCAK256 SWAP1 SWAP2 ADD SWAP3 SWAP1 SWAP3 SSTORE SWAP2 DUP3 MSTORE PUSH1 0x1 DUP9 ADD SWAP1 MSTORE PUSH1 0x40 SWAP1 KECCAK256 DUP4 SWAP1 SSTORE JUMPDEST DUP6 SLOAD DUP7 SWAP1 DUP1 PUSH2 0xC3A JUMPI PUSH2 0xC3A PUSH2 0xE1B JUMP JUMPDEST PUSH1 0x1 SWAP1 SUB DUP2 DUP2 SWAP1 PUSH1 0x0 MSTORE PUSH1 0x20 PUSH1 0x0 KECCAK256 ADD PUSH1 0x0 SWAP1 SSTORE SWAP1 SSTORE DUP6 PUSH1 0x1 ADD PUSH1 0x0 DUP7 DUP2 MSTORE PUSH1 0x20 ADD SWAP1 DUP2 MSTORE PUSH1 0x20 ADD PUSH1 0x0 KECCAK256 PUSH1 0x0 SWAP1 SSTORE PUSH1 0x1 SWAP4 POP POP POP POP PUSH2 0xAE2 JUMP JUMPDEST PUSH1 0x0 SWAP2 POP POP PUSH2 0xAE2 JUMP JUMPDEST PUSH1 0x0 DUP1 PUSH1 0x40 DUP4 DUP6 SUB SLT ISZERO PUSH2 0xC92 JUMPI PUSH1 0x0 DUP1 REVERT JUMPDEST POP POP DUP1 CALLDATALOAD SWAP3 PUSH1 0x20 SWAP1 SWAP2 ADD CALLDATALOAD SWAP2 POP JUMP JUMPDEST DUP1 CALLDATALOAD PUSH1 0x1 PUSH1 0x1 PUSH1 0xA0 SHL SUB DUP2 AND DUP2 EQ PUSH2 0xCB8 JUMPI PUSH1 0x0 DUP1 REVERT JUMPDEST SWAP2 SWAP1 POP JUMP JUMPDEST PUSH1 0x0 DUP1 PUSH1 0x40 DUP4 DUP6 SUB SLT ISZERO PUSH2 0xCD0 JUMPI PUSH1 0x0 DUP1 REVERT JUMPDEST PUSH2 0xCD9 DUP4 PUSH2 0xCA1 JUMP JUMPDEST SWAP5 PUSH1 0x20 SWAP4 SWAP1 SWAP4 ADD CALLDATALOAD SWAP4 POP POP POP JUMP JUMPDEST PUSH1 0x0 DUP1 PUSH1 0x0 PUSH1 0x60 DUP5 DUP7 SUB SLT ISZERO PUSH2 0xCFC JUMPI PUSH1 0x0 DUP1 REVERT JUMPDEST DUP4 CALLDATALOAD SWAP3 POP PUSH1 0x20 DUP5 ADD CALLDATALOAD SWAP2 POP PUSH2 0xD13 PUSH1 0x40 DUP6 ADD PUSH2 0xCA1 JUMP JUMPDEST SWAP1 POP SWAP3 POP SWAP3 POP SWAP3 JUMP JUMPDEST PUSH1 0x0 DUP1 PUSH1 0x0 PUSH1 0x60 DUP5 DUP7 SUB SLT ISZERO PUSH2 0xD31 JUMPI PUSH1 0x0 DUP1 REVERT JUMPDEST POP POP DUP2 CALLDATALOAD SWAP4 PUSH1 0x20 DUP4 ADD CALLDATALOAD SWAP4 POP PUSH1 0x40 SWAP1 SWAP3 ADD CALLDATALOAD SWAP2 SWAP1 POP JUMP JUMPDEST PUSH1 0x0 PUSH1 0x20 DUP3 DUP5 SUB SLT ISZERO PUSH2 0xD5A JUMPI PUSH1 0x0 DUP1 REVERT JUMPDEST POP CALLDATALOAD SWAP2 SWAP1 POP JUMP JUMPDEST PUSH1 0x0 PUSH1 0x20 DUP3 DUP5 SUB SLT ISZERO PUSH2 0xD73 JUMPI PUSH1 0x0 DUP1 REVERT JUMPDEST DUP2 MLOAD DUP1 ISZERO ISZERO DUP2 EQ PUSH2 0xAF4 JUMPI PUSH1 0x0 DUP1 REVERT JUMPDEST PUSH4 0x4E487B71 PUSH1 0xE0 SHL PUSH1 0x0 MSTORE PUSH1 0x11 PUSH1 0x4 MSTORE PUSH1 0x24 PUSH1 0x0 REVERT JUMPDEST PUSH1 0x0 DUP3 NOT DUP3 GT ISZERO PUSH2 0xDAC JUMPI PUSH2 0xDAC PUSH2 0xD83 JUMP JUMPDEST POP ADD SWAP1 JUMP JUMPDEST PUSH1 0x0 DUP3 PUSH2 0xDCE JUMPI PUSH4 0x4E487B71 PUSH1 0xE0 SHL PUSH1 0x0 MSTORE PUSH1 0x12 PUSH1 0x4 MSTORE PUSH1 0x24 PUSH1 0x0 REVERT JUMPDEST POP DIV SWAP1 JUMP JUMPDEST PUSH1 0x0 PUSH1 0x0 NOT DUP3 EQ ISZERO PUSH2 0xDE7 JUMPI PUSH2 0xDE7 PUSH2 0xD83 JUMP JUMPDEST POP PUSH1 0x1 ADD SWAP1 JUMP JUMPDEST PUSH1 0x0 DUP3 DUP3 LT ISZERO PUSH2 0xE00 JUMPI PUSH2 0xE00 PUSH2 0xD83 JUMP JUMPDEST POP SUB SWAP1 JUMP JUMPDEST PUSH4 0x4E487B71 PUSH1 0xE0 SHL PUSH1 0x0 MSTORE PUSH1 0x32 PUSH1 0x4 MSTORE PUSH1 0x24 PUSH1 0x0 REVERT JUMPDEST PUSH4 0x4E487B71 PUSH1 0xE0 SHL PUSH1 0x0 MSTORE PUSH1 0x31 PUSH1 0x4 MSTORE PUSH1 0x24 PUSH1 0x0 REVERT INVALID LOG2 PUSH5 0x6970667358 0x22 SLT KECCAK256 PUSH12 0xEC7320E934707CB02CA539E2 0xD4 PUSH31 0x6AEDB6A5025A4A71EBD389F18507CC251F64736F6C634300080B0033000000 "
        },
        "gasEstimates": {
          "creation": {
            "codeDepositCost": "737400",
            "executionCost": "infinite",
            "totalCost": "infinite"
          },
          "external": {
            "MTRG()": "2359",
            "boundedMTRG()": "2372",
            "bucket(address,bytes32)": "2668",
            "bucketClose(bytes32)": "infinite",
            "bucketDeposit(bytes32,uint256)": "infinite",
            "bucketMerge(bytes32,bytes32,uint256)": "51429",
            "bucketOpen(address,uint256)": "infinite",
            "bucketTransferFund(bytes32,bytes32,uint256)": "51476",
            "bucketUser(bytes32)": "2543",
            "bucketValue(bytes32)": "2542",
            "bucketWithdraw(bytes32,uint256,address)": "infinite",
            "reward()": "infinite"
          }
        },
        "methodIdentifiers": {
          "MTRG()": "88b0e2a4",
          "boundedMTRG()": "3a8dd82a",
          "bucket(address,bytes32)": "7de9d11f",
          "bucketClose(bytes32)": "77d7f913",
          "bucketDeposit(bytes32,uint256)": "1b7846c0",
          "bucketMerge(bytes32,bytes32,uint256)": "75a5e288",
          "bucketOpen(address,uint256)": "3060ef72",
          "bucketTransferFund(bytes32,bytes32,uint256)": "72be77a0",
          "bucketUser(bytes32)": "b7b4de67",
          "bucketValue(bytes32)": "9748bf5b",
          "bucketWithdraw(bytes32,uint256,address)": "561f97be",
          "reward()": "228cb733"
        }
      },
      "storageLayout": {
        "storage": [
          {
            "astId": 934,
            "contract": "contracts/test/MockScriptEngine.sol:MockScriptEngine",
            "label": "MTRG",
            "offset": 0,
            "slot": "0",
            "type": "t_contract(MockMTRG)923"
          },
          {
            "astId": 938,
            "contract": "contracts/test/MockScriptEngine.sol:MockScriptEngine",
            "label": "bucketUser",
            "offset": 0,
            "slot": "1",
            "type": "t_mapping(t_bytes32,t_address)"
          },
          {
            "astId": 944,
            "contract": "contracts/test/MockScriptEngine.sol:MockScriptEngine",
            "label": "bucket",
            "offset": 0,
            "slot": "2",
            "type": "t_mapping(t_address,t_mapping(t_bytes32,t_uint256))"
          },
          {
            "astId": 948,
            "contract": "contracts/test/MockScriptEngine.sol:MockScriptEngine",
            "label": "balance",
            "offset": 0,
            "slot": "3",
            "type": "t_mapping(t_address,t_uint256)"
          },
          {
            "astId": 951,
            "contract": "contracts/test/MockScriptEngine.sol:MockScriptEngine",
            "label": "buckets",
            "offset": 0,
            "slot": "4",
            "type": "t_struct(Bytes32Set)204_storage"
          }
        ],
        "types": {
          "t_address": {
            "encoding": "inplace",
            "label": "address",
            "numberOfBytes": "20"
          },
          "t_array(t_bytes32)dyn_storage": {
            "base": "t_bytes32",
            "encoding": "dynamic_array",
            "label": "bytes32[]",
            "numberOfBytes": "32"
          },
          "t_bytes32": {
            "encoding": "inplace",
            "label": "bytes32",
            "numberOfBytes": "32"
          },
          "t_contract(MockMTRG)923": {
            "encoding": "inplace",
            "label": "contract MockMTRG",
            "numberOfBytes": "20"
          },
          "t_mapping(t_address,t_mapping(t_bytes32,t_uint256))": {
            "encoding": "mapping",
            "key": "t_address",
            "label": "mapping(address => mapping(bytes32 => uint256))",
            "numberOfBytes": "32",
            "value": "t_mapping(t_bytes32,t_uint256)"
          },
          "t_mapping(t_address,t_uint256)": {
            "encoding": "mapping",
            "key": "t_address",
            "label": "mapping(address => uint256)",
            "numberOfBytes": "32",
            "value": "t_uint256"
          },
          "t_mapping(t_bytes32,t_address)": {
            "encoding": "mapping",
            "key": "t_bytes32",
            "label": "mapping(bytes32 => address)",
            "numberOfBytes": "32",
            "value": "t_address"
          },
          "t_mapping(t_bytes32,t_uint256)": {
            "encoding": "mapping",
            "key": "t_bytes32",
            "label": "mapping(bytes32 => uint256)",
            "numberOfBytes": "32",
            "value": "t_uint256"
          },
          "t_struct(Bytes32Set)204_storage": {
            "encoding": "inplace",
            "label": "struct EnumerableSet.Bytes32Set",
            "members": [
              {
                "astId": 203,
                "contract": "contracts/test/MockScriptEngine.sol:MockScriptEngine",
                "label": "_inner",
                "offset": 0,
                "slot": "0",
                "type": "t_struct(Set)10_storage"
              }
            ],
            "numberOfBytes": "64"
          },
          "t_struct(Set)10_storage": {
            "encoding": "inplace",
            "label": "struct EnumerableSet.Set",
            "members": [
              {
                "astId": 5,
                "contract": "contracts/test/MockScriptEngine.sol:MockScriptEngine",
                "label": "_values",
                "offset": 0,
                "slot": "0",
                "type": "t_array(t_bytes32)dyn_storage"
              },
              {
                "astId": 9,
                "contract": "contracts/test/MockScriptEngine.sol:MockScriptEngine",
                "label": "_indexes",
                "offset": 0,
                "slot": "1",
                "type": "t_mapping(t_bytes32,t_uint256)"
              }
            ],
            "numberOfBytes": "64"
          },
          "t_uint256": {
            "encoding": "inplace",
            "label": "uint256",
            "numberOfBytes": "32"
          }
        }
      },
      "userdoc": {
        "kind": "user",
        "methods": {
          "bucketClose(bytes32)": {
            "notice": "this func withdraw all value from the designated bucket owned by msg.sender, and completely close this bucket `owner` will receive funds after bucket mature time will revert if any error happens"
          },
          "bucketDeposit(bytes32,uint256)": {
            "notice": "this func adds more value to the designated bucket owned by msg.sender will revert if any error happens"
          },
          "bucketMerge(bytes32,bytes32,uint256)": {
            "notice": "this func transfer all funds from the designated `fromBucket` to `toBucket` owned by msg.sender, and immediately remove `fromBucket` from listing will revert if any error happens"
          },
          "bucketOpen(address,uint256)": {
            "notice": "this func create a bucket from msg.sender, voted to candidate will revert if any error happens"
          },
          "bucketTransferFund(bytes32,bytes32,uint256)": {
            "notice": "this func transfer fund from the designated `fromBucket` to `toBucket` owned by msg.sender will revert if any error happens"
          },
          "bucketValue(bytes32)": {
            "notice": "this func returns the value of the designated bucket"
          },
          "bucketWithdraw(bytes32,uint256,address)": {
            "notice": "this func withdraw value from the designated bucket owned by msg.sender, createsa sub bucket to `recipient` `recipient` will receive funds after bucket mature time will revert if any error happens"
          }
        },
        "version": 1
      }
    }
  }
}