{
  "contracts/test/MockScriptEngine.sol": {
    "MockScriptEngine": {
      "abi": [
        {
          "inputs": [
            {
              "internalType": "contract MockMTRG",
              "name": "_MTRG",
              "type": "address"
            }
          ],
          "stateMutability": "nonpayable",
          "type": "constructor"
        },
        {
          "inputs": [],
          "name": "MTRG",
          "outputs": [
            {
              "internalType": "contract MockMTRG",
              "name": "",
              "type": "address"
            }
          ],
          "stateMutability": "view",
          "type": "function"
        },
        {
          "inputs": [],
          "name": "boundedMTRG",
          "outputs": [
            {
              "internalType": "uint256",
              "name": "",
              "type": "uint256"
            }
          ],
          "stateMutability": "view",
          "type": "function"
        },
        {
          "inputs": [
            {
              "internalType": "address",
              "name": "",
              "type": "address"
            },
            {
              "internalType": "bytes32",
              "name": "",
              "type": "bytes32"
            }
          ],
          "name": "bucket",
          "outputs": [
            {
              "internalType": "uint256",
              "name": "",
              "type": "uint256"
            }
          ],
          "stateMutability": "view",
          "type": "function"
        },
        {
          "inputs": [
            {
              "internalType": "bytes32",
              "name": "bucketID",
              "type": "bytes32"
            }
          ],
          "name": "bucketClose",
          "outputs": [],
          "stateMutability": "nonpayable",
          "type": "function"
        },
        {
          "inputs": [
            {
              "internalType": "bytes32",
              "name": "bucketID",
              "type": "bytes32"
            },
            {
              "internalType": "uint256",
              "name": "amount",
              "type": "uint256"
            }
          ],
          "name": "bucketDeposit",
          "outputs": [
            {
              "internalType": "bool",
              "name": "",
              "type": "bool"
            }
          ],
          "stateMutability": "nonpayable",
          "type": "function"
        },
        {
          "inputs": [
            {
              "internalType": "bytes32",
              "name": "bucketID",
              "type": "bytes32"
            }
          ],
          "name": "bucketExists",
          "outputs": [
            {
              "internalType": "bool",
              "name": "success",
              "type": "bool"
            }
          ],
          "stateMutability": "view",
          "type": "function"
        },
        {
          "inputs": [
            {
              "internalType": "bytes32",
              "name": "fromBucketID",
              "type": "bytes32"
            },
            {
              "internalType": "bytes32",
              "name": "toBucketID",
              "type": "bytes32"
            }
          ],
          "name": "bucketMerge",
          "outputs": [
            {
              "internalType": "bool",
              "name": "",
              "type": "bool"
            }
          ],
          "stateMutability": "nonpayable",
          "type": "function"
        },
        {
          "inputs": [
            {
              "internalType": "address",
              "name": "candidate",
              "type": "address"
            },
            {
              "internalType": "uint256",
              "name": "amount",
              "type": "uint256"
            }
          ],
          "name": "bucketOpen",
          "outputs": [
            {
              "internalType": "bytes32",
              "name": "bucketID",
              "type": "bytes32"
            },
            {
              "internalType": "bool",
              "name": "success",
              "type": "bool"
            }
          ],
          "stateMutability": "nonpayable",
          "type": "function"
        },
        {
          "inputs": [
            {
              "internalType": "bytes32",
              "name": "",
              "type": "bytes32"
            }
          ],
          "name": "bucketRevert",
          "outputs": [
            {
              "internalType": "bool",
              "name": "",
              "type": "bool"
            }
          ],
          "stateMutability": "view",
          "type": "function"
        },
        {
          "inputs": [
            {
              "internalType": "bytes32",
              "name": "fromBucketID",
              "type": "bytes32"
            },
            {
              "internalType": "bytes32",
              "name": "toBucketID",
              "type": "bytes32"
            },
            {
              "internalType": "uint256",
              "name": "amount",
              "type": "uint256"
            }
          ],
          "name": "bucketTransferFund",
          "outputs": [
            {
              "internalType": "bool",
              "name": "",
              "type": "bool"
            }
          ],
          "stateMutability": "nonpayable",
          "type": "function"
        },
        {
          "inputs": [
            {
              "internalType": "bytes32",
              "name": "",
              "type": "bytes32"
            }
          ],
          "name": "bucketUser",
          "outputs": [
            {
              "internalType": "address",
              "name": "",
              "type": "address"
            }
          ],
          "stateMutability": "view",
          "type": "function"
        },
        {
          "inputs": [
            {
              "internalType": "bytes32",
              "name": "bucketID",
              "type": "bytes32"
            }
          ],
          "name": "bucketValue",
          "outputs": [
            {
              "internalType": "uint256",
              "name": "",
              "type": "uint256"
            }
          ],
          "stateMutability": "view",
          "type": "function"
        },
        {
          "inputs": [
            {
              "internalType": "bytes32",
              "name": "bucketID",
              "type": "bytes32"
            },
            {
              "internalType": "uint256",
              "name": "amount",
              "type": "uint256"
            },
            {
              "internalType": "address",
              "name": "recipient",
              "type": "address"
            }
          ],
          "name": "bucketWithdraw",
          "outputs": [
            {
              "internalType": "bytes32",
              "name": "newBktID",
              "type": "bytes32"
            }
          ],
          "stateMutability": "nonpayable",
          "type": "function"
        },
        {
          "inputs": [],
          "name": "reward",
          "outputs": [],
          "stateMutability": "nonpayable",
          "type": "function"
        },
        {
          "inputs": [
            {
              "internalType": "bytes32",
              "name": "bucketID",
              "type": "bytes32"
            }
          ],
          "name": "setBucketRevert",
          "outputs": [],
          "stateMutability": "nonpayable",
          "type": "function"
        }
      ],
      "devdoc": {
        "kind": "dev",
        "methods": {},
        "version": 1
      },
      "evm": {
        "bytecode": {
          "linkReferences": {},
          "object": "608060405234801561001057600080fd5b5060405161106b38038061106b83398101604081905261002f91610054565b600080546001600160a01b0319166001600160a01b0392909216919091179055610084565b60006020828403121561006657600080fd5b81516001600160a01b038116811461007d57600080fd5b9392505050565b610fd8806100936000396000f3fe608060405234801561001057600080fd5b50600436106100f55760003560e01c806372be77a0116100975780639748bf5b116100665780639748bf5b14610243578063b7167f3a1461026e578063b7b4de6714610291578063f2097550146102ba57600080fd5b806372be77a0146101c757806377d7f913146101da5780637de9d11f146101ed57806388b0e2a41461021857600080fd5b80633a8dd82a116100d35780633a8dd82a14610154578063561f97be1461017357806362d3cc0114610186578063653d73a2146101b457600080fd5b80631b7846c0146100fa578063228cb733146101225780633060ef721461012c575b600080fd5b61010d610108366004610df0565b6102e7565b60405190151581526020015b60405180910390f35b61012a61047c565b005b61013f61013a366004610e2e565b610572565b60408051928352901515602083015201610119565b336000908152600360205260409020545b604051908152602001610119565b610165610181366004610e58565b610747565b61012a610194366004610e8d565b6000908152600660205260409020805460ff19811660ff90911615179055565b61010d6101c2366004610df0565b6108b0565b61010d6101d5366004610ea6565b61095c565b61012a6101e8366004610e8d565b610a85565b6101656101fb366004610e2e565b600260209081526000928352604080842090915290825290205481565b60005461022b906001600160a01b031681565b6040516001600160a01b039091168152602001610119565b610165610251366004610e8d565b336000908152600260209081526040808320938352929052205490565b61010d61027c366004610e8d565b60066020526000908152604090205460ff1681565b61022b61029f366004610e8d565b6001602052600090815260409020546001600160a01b031681565b61010d6102c8366004610e8d565b3360009081526002602090815260408083209383529290522054151590565b60008281526006602052604081205460ff161561033b5760405162461bcd60e51b815260206004820152600d60248201526c189d58dad95d081c995d995c9d609a1b60448201526064015b60405180910390fd5b3360009081526002602090815260408083208684529091529020546103a25760405162461bcd60e51b815260206004820152601160248201527f6275636b6574206e6f74206578697374210000000000000000000000000000006044820152606401610332565b60005460405163bb35783b60e01b8152336004820152306024820152604481018490526001600160a01b039091169063bb35783b906064016020604051808303816000875af11580156103f9573d6000803e3d6000fd5b505050506040513d601f19601f8201168201806040525081019061041d9190610ed2565b5033600090815260026020908152604080832086845290915281208054849290610448908490610f0a565b9091555050336000908152600360205260408120805484929061046c908490610f0a565b9091555060019150505b92915050565b60006104886004610c4f565b905060005b8181101561056e5760006104a2600483610c59565b6000818152600160209081526040808320546001600160a01b031680845260028352818420858552909252822054929350916104e090600a90610f22565b6000546040516340c10f1960e01b81526001600160a01b038581166004830152602482018490529293509116906340c10f19906044016020604051808303816000875af1158015610535573d6000803e3d6000fd5b505050506040513d601f19601f820116820180604052508101906105599190610ed2565b505050508061056790610f44565b905061048d565b5050565b604080513360208083018290526001600160a01b0386168385015283518084038501815260609093018452825192810192909220600091825260028352838220818352909252918220549091901580156105e157506000828152600160205260409020546001600160a01b0316155b61062d5760405162461bcd60e51b815260206004820152600d60248201527f6275636b657420657869737421000000000000000000000000000000000000006044820152606401610332565b60005460405163bb35783b60e01b8152336004820152306024820152604481018590526001600160a01b039091169063bb35783b906064016020604051808303816000875af1158015610684573d6000803e3d6000fd5b505050506040513d601f19601f820116820180604052508101906106a89190610ed2565b50600082815260016020908152604080832080547fffffffffffffffffffffffff0000000000000000000000000000000000000000163390811790915583526002825280832085845290915281208054859290610706908490610f0a565b9091555050336000908152600360205260408120805485929061072a908490610f0a565b9091555061073b9050600483610c6c565b50600190509250929050565b6000838152600160209081526040808320546001600160a01b0316808452600283528184208785529092528220548411156107c45760405162461bcd60e51b815260206004820152601260248201527f6275636b6574206e6f7420656e6f7567682100000000000000000000000000006044820152606401610332565b60005460405163bb35783b60e01b81523060048201526001600160a01b038581166024830152604482018790529091169063bb35783b906064016020604051808303816000875af115801561081d573d6000803e3d6000fd5b505050506040513d601f19601f820116820180604052508101906108419190610ed2565b506001600160a01b038116600090815260026020908152604080832088845290915281208054869290610875908490610f5f565b90915550506001600160a01b038116600090815260036020526040812080548692906108a2908490610f5f565b909155509195945050505050565b60008181526006602052604081205460ff16156108ff5760405162461bcd60e51b815260206004820152600d60248201526c189d58dad95d081c995d995c9d609a1b6044820152606401610332565b6000838152600160209081526040808320546001600160a01b031680845260028352818420878552808452828520805490869055878652935290832080549193839261094c908490610f0a565b9091555060019695505050505050565b60008281526006602052604081205460ff16156109ab5760405162461bcd60e51b815260206004820152600d60248201526c189d58dad95d081c995d995c9d609a1b6044820152606401610332565b33600090815260026020908152604080832087845290915290205468056bc75e2d6310000010610a1d5760405162461bcd60e51b815260206004820152600960248201527f31303020657468657200000000000000000000000000000000000000000000006044820152606401610332565b33600090815260026020908152604080832087845290915281208054849290610a47908490610f5f565b909155505033600090815260026020908152604080832086845290915281208054849290610a76908490610f0a565b90915550600195945050505050565b6000818152600160209081526040808320546001600160a01b0316808452600283528184208585529092529091205480610b015760405162461bcd60e51b815260206004820152601160248201527f6275636b6574206e6f74206578697374210000000000000000000000000000006044820152606401610332565b336001600160a01b03831614610b595760405162461bcd60e51b815260206004820152601060248201527f6275636b6574206e6f7420796f757221000000000000000000000000000000006044820152606401610332565b60005460405163bb35783b60e01b81523060048201526001600160a01b038481166024830152604482018490529091169063bb35783b906064016020604051808303816000875af1158015610bb2573d6000803e3d6000fd5b505050506040513d601f19601f82011682018060405250810190610bd69190610ed2565b506001600160a01b0382166000818152600260209081526040808320878452825280832054938352600390915281208054909190610c15908490610f5f565b90915550506001600160a01b0382166000908152600260209081526040808320868452909152812055610c49600484610c78565b50505050565b6000610476825490565b6000610c658383610c84565b9392505050565b6000610c658383610cae565b6000610c658383610cfd565b6000826000018281548110610c9b57610c9b610f76565b9060005260206000200154905092915050565b6000818152600183016020526040812054610cf557508154600181810184556000848152602080822090930184905584548482528286019093526040902091909155610476565b506000610476565b60008181526001830160205260408120548015610de6576000610d21600183610f5f565b8554909150600090610d3590600190610f5f565b9050818114610d9a576000866000018281548110610d5557610d55610f76565b9060005260206000200154905080876000018481548110610d7857610d78610f76565b6000918252602080832090910192909255918252600188019052604090208390555b8554869080610dab57610dab610f8c565b600190038181906000526020600020016000905590558560010160008681526020019081526020016000206000905560019350505050610476565b6000915050610476565b60008060408385031215610e0357600080fd5b50508035926020909101359150565b80356001600160a01b0381168114610e2957600080fd5b919050565b60008060408385031215610e4157600080fd5b610e4a83610e12565b946020939093013593505050565b600080600060608486031215610e6d57600080fd5b8335925060208401359150610e8460408501610e12565b90509250925092565b600060208284031215610e9f57600080fd5b5035919050565b600080600060608486031215610ebb57600080fd5b505081359360208301359350604090920135919050565b600060208284031215610ee457600080fd5b81518015158114610c6557600080fd5b634e487b7160e01b600052601160045260246000fd5b60008219821115610f1d57610f1d610ef4565b500190565b600082610f3f57634e487b7160e01b600052601260045260246000fd5b500490565b6000600019821415610f5857610f58610ef4565b5060010190565b600082821015610f7157610f71610ef4565b500390565b634e487b7160e01b600052603260045260246000fd5b634e487b7160e01b600052603160045260246000fdfea2646970667358221220776c78dd4a99353399f9eed24a9337a89ee8eddad8c59ee17ad2fa08c2d0f4e764736f6c634300080b0033",
          "opcodes": "PUSH1 0x80 PUSH1 0x40 MSTORE CALLVALUE DUP1 ISZERO PUSH2 0x10 JUMPI PUSH1 0x0 DUP1 REVERT JUMPDEST POP PUSH1 0x40 MLOAD PUSH2 0x106B CODESIZE SUB DUP1 PUSH2 0x106B DUP4 CODECOPY DUP2 ADD PUSH1 0x40 DUP2 SWAP1 MSTORE PUSH2 0x2F SWAP2 PUSH2 0x54 JUMP JUMPDEST PUSH1 0x0 DUP1 SLOAD PUSH1 0x1 PUSH1 0x1 PUSH1 0xA0 SHL SUB NOT AND PUSH1 0x1 PUSH1 0x1 PUSH1 0xA0 SHL SUB SWAP3 SWAP1 SWAP3 AND SWAP2 SWAP1 SWAP2 OR SWAP1 SSTORE PUSH2 0x84 JUMP JUMPDEST PUSH1 0x0 PUSH1 0x20 DUP3 DUP5 SUB SLT ISZERO PUSH2 0x66 JUMPI PUSH1 0x0 DUP1 REVERT JUMPDEST DUP2 MLOAD PUSH1 0x1 PUSH1 0x1 PUSH1 0xA0 SHL SUB DUP2 AND DUP2 EQ PUSH2 0x7D JUMPI PUSH1 0x0 DUP1 REVERT JUMPDEST SWAP4 SWAP3 POP POP POP JUMP JUMPDEST PUSH2 0xFD8 DUP1 PUSH2 0x93 PUSH1 0x0 CODECOPY PUSH1 0x0 RETURN INVALID PUSH1 0x80 PUSH1 0x40 MSTORE CALLVALUE DUP1 ISZERO PUSH2 0x10 JUMPI PUSH1 0x0 DUP1 REVERT JUMPDEST POP PUSH1 0x4 CALLDATASIZE LT PUSH2 0xF5 JUMPI PUSH1 0x0 CALLDATALOAD PUSH1 0xE0 SHR DUP1 PUSH4 0x72BE77A0 GT PUSH2 0x97 JUMPI DUP1 PUSH4 0x9748BF5B GT PUSH2 0x66 JUMPI DUP1 PUSH4 0x9748BF5B EQ PUSH2 0x243 JUMPI DUP1 PUSH4 0xB7167F3A EQ PUSH2 0x26E JUMPI DUP1 PUSH4 0xB7B4DE67 EQ PUSH2 0x291 JUMPI DUP1 PUSH4 0xF2097550 EQ PUSH2 0x2BA JUMPI PUSH1 0x0 DUP1 REVERT JUMPDEST DUP1 PUSH4 0x72BE77A0 EQ PUSH2 0x1C7 JUMPI DUP1 PUSH4 0x77D7F913 EQ PUSH2 0x1DA JUMPI DUP1 PUSH4 0x7DE9D11F EQ PUSH2 0x1ED JUMPI DUP1 PUSH4 0x88B0E2A4 EQ PUSH2 0x218 JUMPI PUSH1 0x0 DUP1 REVERT JUMPDEST DUP1 PUSH4 0x3A8DD82A GT PUSH2 0xD3 JUMPI DUP1 PUSH4 0x3A8DD82A EQ PUSH2 0x154 JUMPI DUP1 PUSH4 0x561F97BE EQ PUSH2 0x173 JUMPI DUP1 PUSH4 0x62D3CC01 EQ PUSH2 0x186 JUMPI DUP1 PUSH4 0x653D73A2 EQ PUSH2 0x1B4 JUMPI PUSH1 0x0 DUP1 REVERT JUMPDEST DUP1 PUSH4 0x1B7846C0 EQ PUSH2 0xFA JUMPI DUP1 PUSH4 0x228CB733 EQ PUSH2 0x122 JUMPI DUP1 PUSH4 0x3060EF72 EQ PUSH2 0x12C JUMPI JUMPDEST PUSH1 0x0 DUP1 REVERT JUMPDEST PUSH2 0x10D PUSH2 0x108 CALLDATASIZE PUSH1 0x4 PUSH2 0xDF0 JUMP JUMPDEST PUSH2 0x2E7 JUMP JUMPDEST PUSH1 0x40 MLOAD SWAP1 ISZERO ISZERO DUP2 MSTORE PUSH1 0x20 ADD JUMPDEST PUSH1 0x40 MLOAD DUP1 SWAP2 SUB SWAP1 RETURN JUMPDEST PUSH2 0x12A PUSH2 0x47C JUMP JUMPDEST STOP JUMPDEST PUSH2 0x13F PUSH2 0x13A CALLDATASIZE PUSH1 0x4 PUSH2 0xE2E JUMP JUMPDEST PUSH2 0x572 JUMP JUMPDEST PUSH1 0x40 DUP1 MLOAD SWAP3 DUP4 MSTORE SWAP1 ISZERO ISZERO PUSH1 0x20 DUP4 ADD MSTORE ADD PUSH2 0x119 JUMP JUMPDEST CALLER PUSH1 0x0 SWAP1 DUP2 MSTORE PUSH1 0x3 PUSH1 0x20 MSTORE PUSH1 0x40 SWAP1 KECCAK256 SLOAD JUMPDEST PUSH1 0x40 MLOAD SWAP1 DUP2 MSTORE PUSH1 0x20 ADD PUSH2 0x119 JUMP JUMPDEST PUSH2 0x165 PUSH2 0x181 CALLDATASIZE PUSH1 0x4 PUSH2 0xE58 JUMP JUMPDEST PUSH2 0x747 JUMP JUMPDEST PUSH2 0x12A PUSH2 0x194 CALLDATASIZE PUSH1 0x4 PUSH2 0xE8D JUMP JUMPDEST PUSH1 0x0 SWAP1 DUP2 MSTORE PUSH1 0x6 PUSH1 0x20 MSTORE PUSH1 0x40 SWAP1 KECCAK256 DUP1 SLOAD PUSH1 0xFF NOT DUP2 AND PUSH1 0xFF SWAP1 SWAP2 AND ISZERO OR SWAP1 SSTORE JUMP JUMPDEST PUSH2 0x10D PUSH2 0x1C2 CALLDATASIZE PUSH1 0x4 PUSH2 0xDF0 JUMP JUMPDEST PUSH2 0x8B0 JUMP JUMPDEST PUSH2 0x10D PUSH2 0x1D5 CALLDATASIZE PUSH1 0x4 PUSH2 0xEA6 JUMP JUMPDEST PUSH2 0x95C JUMP JUMPDEST PUSH2 0x12A PUSH2 0x1E8 CALLDATASIZE PUSH1 0x4 PUSH2 0xE8D JUMP JUMPDEST PUSH2 0xA85 JUMP JUMPDEST PUSH2 0x165 PUSH2 0x1FB CALLDATASIZE PUSH1 0x4 PUSH2 0xE2E JUMP JUMPDEST PUSH1 0x2 PUSH1 0x20 SWAP1 DUP2 MSTORE PUSH1 0x0 SWAP3 DUP4 MSTORE PUSH1 0x40 DUP1 DUP5 KECCAK256 SWAP1 SWAP2 MSTORE SWAP1 DUP3 MSTORE SWAP1 KECCAK256 SLOAD DUP2 JUMP JUMPDEST PUSH1 0x0 SLOAD PUSH2 0x22B SWAP1 PUSH1 0x1 PUSH1 0x1 PUSH1 0xA0 SHL SUB AND DUP2 JUMP JUMPDEST PUSH1 0x40 MLOAD PUSH1 0x1 PUSH1 0x1 PUSH1 0xA0 SHL SUB SWAP1 SWAP2 AND DUP2 MSTORE PUSH1 0x20 ADD PUSH2 0x119 JUMP JUMPDEST PUSH2 0x165 PUSH2 0x251 CALLDATASIZE PUSH1 0x4 PUSH2 0xE8D JUMP JUMPDEST CALLER PUSH1 0x0 SWAP1 DUP2 MSTORE PUSH1 0x2 PUSH1 0x20 SWAP1 DUP2 MSTORE PUSH1 0x40 DUP1 DUP4 KECCAK256 SWAP4 DUP4 MSTORE SWAP3 SWAP1 MSTORE KECCAK256 SLOAD SWAP1 JUMP JUMPDEST PUSH2 0x10D PUSH2 0x27C CALLDATASIZE PUSH1 0x4 PUSH2 0xE8D JUMP JUMPDEST PUSH1 0x6 PUSH1 0x20 MSTORE PUSH1 0x0 SWAP1 DUP2 MSTORE PUSH1 0x40 SWAP1 KECCAK256 SLOAD PUSH1 0xFF AND DUP2 JUMP JUMPDEST PUSH2 0x22B PUSH2 0x29F CALLDATASIZE PUSH1 0x4 PUSH2 0xE8D JUMP JUMPDEST PUSH1 0x1 PUSH1 0x20 MSTORE PUSH1 0x0 SWAP1 DUP2 MSTORE PUSH1 0x40 SWAP1 KECCAK256 SLOAD PUSH1 0x1 PUSH1 0x1 PUSH1 0xA0 SHL SUB AND DUP2 JUMP JUMPDEST PUSH2 0x10D PUSH2 0x2C8 CALLDATASIZE PUSH1 0x4 PUSH2 0xE8D JUMP JUMPDEST CALLER PUSH1 0x0 SWAP1 DUP2 MSTORE PUSH1 0x2 PUSH1 0x20 SWAP1 DUP2 MSTORE PUSH1 0x40 DUP1 DUP4 KECCAK256 SWAP4 DUP4 MSTORE SWAP3 SWAP1 MSTORE KECCAK256 SLOAD ISZERO ISZERO SWAP1 JUMP JUMPDEST PUSH1 0x0 DUP3 DUP2 MSTORE PUSH1 0x6 PUSH1 0x20 MSTORE PUSH1 0x40 DUP2 KECCAK256 SLOAD PUSH1 0xFF AND ISZERO PUSH2 0x33B JUMPI PUSH1 0x40 MLOAD PUSH3 0x461BCD PUSH1 0xE5 SHL DUP2 MSTORE PUSH1 0x20 PUSH1 0x4 DUP3 ADD MSTORE PUSH1 0xD PUSH1 0x24 DUP3 ADD MSTORE PUSH13 0x189D58DAD95D081C995D995C9D PUSH1 0x9A SHL PUSH1 0x44 DUP3 ADD MSTORE PUSH1 0x64 ADD JUMPDEST PUSH1 0x40 MLOAD DUP1 SWAP2 SUB SWAP1 REVERT JUMPDEST CALLER PUSH1 0x0 SWAP1 DUP2 MSTORE PUSH1 0x2 PUSH1 0x20 SWAP1 DUP2 MSTORE PUSH1 0x40 DUP1 DUP4 KECCAK256 DUP7 DUP5 MSTORE SWAP1 SWAP2 MSTORE SWAP1 KECCAK256 SLOAD PUSH2 0x3A2 JUMPI PUSH1 0x40 MLOAD PUSH3 0x461BCD PUSH1 0xE5 SHL DUP2 MSTORE PUSH1 0x20 PUSH1 0x4 DUP3 ADD MSTORE PUSH1 0x11 PUSH1 0x24 DUP3 ADD MSTORE PUSH32 0x6275636B6574206E6F7420657869737421000000000000000000000000000000 PUSH1 0x44 DUP3 ADD MSTORE PUSH1 0x64 ADD PUSH2 0x332 JUMP JUMPDEST PUSH1 0x0 SLOAD PUSH1 0x40 MLOAD PUSH4 0xBB35783B PUSH1 0xE0 SHL DUP2 MSTORE CALLER PUSH1 0x4 DUP3 ADD MSTORE ADDRESS PUSH1 0x24 DUP3 ADD MSTORE PUSH1 0x44 DUP2 ADD DUP5 SWAP1 MSTORE PUSH1 0x1 PUSH1 0x1 PUSH1 0xA0 SHL SUB SWAP1 SWAP2 AND SWAP1 PUSH4 0xBB35783B SWAP1 PUSH1 0x64 ADD PUSH1 0x20 PUSH1 0x40 MLOAD DUP1 DUP4 SUB DUP2 PUSH1 0x0 DUP8 GAS CALL ISZERO DUP1 ISZERO PUSH2 0x3F9 JUMPI RETURNDATASIZE PUSH1 0x0 DUP1 RETURNDATACOPY RETURNDATASIZE PUSH1 0x0 REVERT JUMPDEST POP POP POP POP PUSH1 0x40 MLOAD RETURNDATASIZE PUSH1 0x1F NOT PUSH1 0x1F DUP3 ADD AND DUP3 ADD DUP1 PUSH1 0x40 MSTORE POP DUP2 ADD SWAP1 PUSH2 0x41D SWAP2 SWAP1 PUSH2 0xED2 JUMP JUMPDEST POP CALLER PUSH1 0x0 SWAP1 DUP2 MSTORE PUSH1 0x2 PUSH1 0x20 SWAP1 DUP2 MSTORE PUSH1 0x40 DUP1 DUP4 KECCAK256 DUP7 DUP5 MSTORE SWAP1 SWAP2 MSTORE DUP2 KECCAK256 DUP1 SLOAD DUP5 SWAP3 SWAP1 PUSH2 0x448 SWAP1 DUP5 SWAP1 PUSH2 0xF0A JUMP JUMPDEST SWAP1 SWAP2 SSTORE POP POP CALLER PUSH1 0x0 SWAP1 DUP2 MSTORE PUSH1 0x3 PUSH1 0x20 MSTORE PUSH1 0x40 DUP2 KECCAK256 DUP1 SLOAD DUP5 SWAP3 SWAP1 PUSH2 0x46C SWAP1 DUP5 SWAP1 PUSH2 0xF0A JUMP JUMPDEST SWAP1 SWAP2 SSTORE POP PUSH1 0x1 SWAP2 POP POP JUMPDEST SWAP3 SWAP2 POP POP JUMP JUMPDEST PUSH1 0x0 PUSH2 0x488 PUSH1 0x4 PUSH2 0xC4F JUMP JUMPDEST SWAP1 POP PUSH1 0x0 JUMPDEST DUP2 DUP2 LT ISZERO PUSH2 0x56E JUMPI PUSH1 0x0 PUSH2 0x4A2 PUSH1 0x4 DUP4 PUSH2 0xC59 JUMP JUMPDEST PUSH1 0x0 DUP2 DUP2 MSTORE PUSH1 0x1 PUSH1 0x20 SWAP1 DUP2 MSTORE PUSH1 0x40 DUP1 DUP4 KECCAK256 SLOAD PUSH1 0x1 PUSH1 0x1 PUSH1 0xA0 SHL SUB AND DUP1 DUP5 MSTORE PUSH1 0x2 DUP4 MSTORE DUP2 DUP5 KECCAK256 DUP6 DUP6 MSTORE SWAP1 SWAP3 MSTORE DUP3 KECCAK256 SLOAD SWAP3 SWAP4 POP SWAP2 PUSH2 0x4E0 SWAP1 PUSH1 0xA SWAP1 PUSH2 0xF22 JUMP JUMPDEST PUSH1 0x0 SLOAD PUSH1 0x40 MLOAD PUSH4 0x40C10F19 PUSH1 0xE0 SHL DUP2 MSTORE PUSH1 0x1 PUSH1 0x1 PUSH1 0xA0 SHL SUB DUP6 DUP2 AND PUSH1 0x4 DUP4 ADD MSTORE PUSH1 0x24 DUP3 ADD DUP5 SWAP1 MSTORE SWAP3 SWAP4 POP SWAP2 AND SWAP1 PUSH4 0x40C10F19 SWAP1 PUSH1 0x44 ADD PUSH1 0x20 PUSH1 0x40 MLOAD DUP1 DUP4 SUB DUP2 PUSH1 0x0 DUP8 GAS CALL ISZERO DUP1 ISZERO PUSH2 0x535 JUMPI RETURNDATASIZE PUSH1 0x0 DUP1 RETURNDATACOPY RETURNDATASIZE PUSH1 0x0 REVERT JUMPDEST POP POP POP POP PUSH1 0x40 MLOAD RETURNDATASIZE PUSH1 0x1F NOT PUSH1 0x1F DUP3 ADD AND DUP3 ADD DUP1 PUSH1 0x40 MSTORE POP DUP2 ADD SWAP1 PUSH2 0x559 SWAP2 SWAP1 PUSH2 0xED2 JUMP JUMPDEST POP POP POP POP DUP1 PUSH2 0x567 SWAP1 PUSH2 0xF44 JUMP JUMPDEST SWAP1 POP PUSH2 0x48D JUMP JUMPDEST POP POP JUMP JUMPDEST PUSH1 0x40 DUP1 MLOAD CALLER PUSH1 0x20 DUP1 DUP4 ADD DUP3 SWAP1 MSTORE PUSH1 0x1 PUSH1 0x1 PUSH1 0xA0 SHL SUB DUP7 AND DUP4 DUP6 ADD MSTORE DUP4 MLOAD DUP1 DUP5 SUB DUP6 ADD DUP2 MSTORE PUSH1 0x60 SWAP1 SWAP4 ADD DUP5 MSTORE DUP3 MLOAD SWAP3 DUP2 ADD SWAP3 SWAP1 SWAP3 KECCAK256 PUSH1 0x0 SWAP2 DUP3 MSTORE PUSH1 0x2 DUP4 MSTORE DUP4 DUP3 KECCAK256 DUP2 DUP4 MSTORE SWAP1 SWAP3 MSTORE SWAP2 DUP3 KECCAK256 SLOAD SWAP1 SWAP2 SWAP1 ISZERO DUP1 ISZERO PUSH2 0x5E1 JUMPI POP PUSH1 0x0 DUP3 DUP2 MSTORE PUSH1 0x1 PUSH1 0x20 MSTORE PUSH1 0x40 SWAP1 KECCAK256 SLOAD PUSH1 0x1 PUSH1 0x1 PUSH1 0xA0 SHL SUB AND ISZERO JUMPDEST PUSH2 0x62D JUMPI PUSH1 0x40 MLOAD PUSH3 0x461BCD PUSH1 0xE5 SHL DUP2 MSTORE PUSH1 0x20 PUSH1 0x4 DUP3 ADD MSTORE PUSH1 0xD PUSH1 0x24 DUP3 ADD MSTORE PUSH32 0x6275636B65742065786973742100000000000000000000000000000000000000 PUSH1 0x44 DUP3 ADD MSTORE PUSH1 0x64 ADD PUSH2 0x332 JUMP JUMPDEST PUSH1 0x0 SLOAD PUSH1 0x40 MLOAD PUSH4 0xBB35783B PUSH1 0xE0 SHL DUP2 MSTORE CALLER PUSH1 0x4 DUP3 ADD MSTORE ADDRESS PUSH1 0x24 DUP3 ADD MSTORE PUSH1 0x44 DUP2 ADD DUP6 SWAP1 MSTORE PUSH1 0x1 PUSH1 0x1 PUSH1 0xA0 SHL SUB SWAP1 SWAP2 AND SWAP1 PUSH4 0xBB35783B SWAP1 PUSH1 0x64 ADD PUSH1 0x20 PUSH1 0x40 MLOAD DUP1 DUP4 SUB DUP2 PUSH1 0x0 DUP8 GAS CALL ISZERO DUP1 ISZERO PUSH2 0x684 JUMPI RETURNDATASIZE PUSH1 0x0 DUP1 RETURNDATACOPY RETURNDATASIZE PUSH1 0x0 REVERT JUMPDEST POP POP POP POP PUSH1 0x40 MLOAD RETURNDATASIZE PUSH1 0x1F NOT PUSH1 0x1F DUP3 ADD AND DUP3 ADD DUP1 PUSH1 0x40 MSTORE POP DUP2 ADD SWAP1 PUSH2 0x6A8 SWAP2 SWAP1 PUSH2 0xED2 JUMP JUMPDEST POP PUSH1 0x0 DUP3 DUP2 MSTORE PUSH1 0x1 PUSH1 0x20 SWAP1 DUP2 MSTORE PUSH1 0x40 DUP1 DUP4 KECCAK256 DUP1 SLOAD PUSH32 0xFFFFFFFFFFFFFFFFFFFFFFFF0000000000000000000000000000000000000000 AND CALLER SWAP1 DUP2 OR SWAP1 SWAP2 SSTORE DUP4 MSTORE PUSH1 0x2 DUP3 MSTORE DUP1 DUP4 KECCAK256 DUP6 DUP5 MSTORE SWAP1 SWAP2 MSTORE DUP2 KECCAK256 DUP1 SLOAD DUP6 SWAP3 SWAP1 PUSH2 0x706 SWAP1 DUP5 SWAP1 PUSH2 0xF0A JUMP JUMPDEST SWAP1 SWAP2 SSTORE POP POP CALLER PUSH1 0x0 SWAP1 DUP2 MSTORE PUSH1 0x3 PUSH1 0x20 MSTORE PUSH1 0x40 DUP2 KECCAK256 DUP1 SLOAD DUP6 SWAP3 SWAP1 PUSH2 0x72A SWAP1 DUP5 SWAP1 PUSH2 0xF0A JUMP JUMPDEST SWAP1 SWAP2 SSTORE POP PUSH2 0x73B SWAP1 POP PUSH1 0x4 DUP4 PUSH2 0xC6C JUMP JUMPDEST POP PUSH1 0x1 SWAP1 POP SWAP3 POP SWAP3 SWAP1 POP JUMP JUMPDEST PUSH1 0x0 DUP4 DUP2 MSTORE PUSH1 0x1 PUSH1 0x20 SWAP1 DUP2 MSTORE PUSH1 0x40 DUP1 DUP4 KECCAK256 SLOAD PUSH1 0x1 PUSH1 0x1 PUSH1 0xA0 SHL SUB AND DUP1 DUP5 MSTORE PUSH1 0x2 DUP4 MSTORE DUP2 DUP5 KECCAK256 DUP8 DUP6 MSTORE SWAP1 SWAP3 MSTORE DUP3 KECCAK256 SLOAD DUP5 GT ISZERO PUSH2 0x7C4 JUMPI PUSH1 0x40 MLOAD PUSH3 0x461BCD PUSH1 0xE5 SHL DUP2 MSTORE PUSH1 0x20 PUSH1 0x4 DUP3 ADD MSTORE PUSH1 0x12 PUSH1 0x24 DUP3 ADD MSTORE PUSH32 0x6275636B6574206E6F7420656E6F756768210000000000000000000000000000 PUSH1 0x44 DUP3 ADD MSTORE PUSH1 0x64 ADD PUSH2 0x332 JUMP JUMPDEST PUSH1 0x0 SLOAD PUSH1 0x40 MLOAD PUSH4 0xBB35783B PUSH1 0xE0 SHL DUP2 MSTORE ADDRESS PUSH1 0x4 DUP3 ADD MSTORE PUSH1 0x1 PUSH1 0x1 PUSH1 0xA0 SHL SUB DUP6 DUP2 AND PUSH1 0x24 DUP4 ADD MSTORE PUSH1 0x44 DUP3 ADD DUP8 SWAP1 MSTORE SWAP1 SWAP2 AND SWAP1 PUSH4 0xBB35783B SWAP1 PUSH1 0x64 ADD PUSH1 0x20 PUSH1 0x40 MLOAD DUP1 DUP4 SUB DUP2 PUSH1 0x0 DUP8 GAS CALL ISZERO DUP1 ISZERO PUSH2 0x81D JUMPI RETURNDATASIZE PUSH1 0x0 DUP1 RETURNDATACOPY RETURNDATASIZE PUSH1 0x0 REVERT JUMPDEST POP POP POP POP PUSH1 0x40 MLOAD RETURNDATASIZE PUSH1 0x1F NOT PUSH1 0x1F DUP3 ADD AND DUP3 ADD DUP1 PUSH1 0x40 MSTORE POP DUP2 ADD SWAP1 PUSH2 0x841 SWAP2 SWAP1 PUSH2 0xED2 JUMP JUMPDEST POP PUSH1 0x1 PUSH1 0x1 PUSH1 0xA0 SHL SUB DUP2 AND PUSH1 0x0 SWAP1 DUP2 MSTORE PUSH1 0x2 PUSH1 0x20 SWAP1 DUP2 MSTORE PUSH1 0x40 DUP1 DUP4 KECCAK256 DUP9 DUP5 MSTORE SWAP1 SWAP2 MSTORE DUP2 KECCAK256 DUP1 SLOAD DUP7 SWAP3 SWAP1 PUSH2 0x875 SWAP1 DUP5 SWAP1 PUSH2 0xF5F JUMP JUMPDEST SWAP1 SWAP2 SSTORE POP POP PUSH1 0x1 PUSH1 0x1 PUSH1 0xA0 SHL SUB DUP2 AND PUSH1 0x0 SWAP1 DUP2 MSTORE PUSH1 0x3 PUSH1 0x20 MSTORE PUSH1 0x40 DUP2 KECCAK256 DUP1 SLOAD DUP7 SWAP3 SWAP1 PUSH2 0x8A2 SWAP1 DUP5 SWAP1 PUSH2 0xF5F JUMP JUMPDEST SWAP1 SWAP2 SSTORE POP SWAP2 SWAP6 SWAP5 POP POP POP POP POP JUMP JUMPDEST PUSH1 0x0 DUP2 DUP2 MSTORE PUSH1 0x6 PUSH1 0x20 MSTORE PUSH1 0x40 DUP2 KECCAK256 SLOAD PUSH1 0xFF AND ISZERO PUSH2 0x8FF JUMPI PUSH1 0x40 MLOAD PUSH3 0x461BCD PUSH1 0xE5 SHL DUP2 MSTORE PUSH1 0x20 PUSH1 0x4 DUP3 ADD MSTORE PUSH1 0xD PUSH1 0x24 DUP3 ADD MSTORE PUSH13 0x189D58DAD95D081C995D995C9D PUSH1 0x9A SHL PUSH1 0x44 DUP3 ADD MSTORE PUSH1 0x64 ADD PUSH2 0x332 JUMP JUMPDEST PUSH1 0x0 DUP4 DUP2 MSTORE PUSH1 0x1 PUSH1 0x20 SWAP1 DUP2 MSTORE PUSH1 0x40 DUP1 DUP4 KECCAK256 SLOAD PUSH1 0x1 PUSH1 0x1 PUSH1 0xA0 SHL SUB AND DUP1 DUP5 MSTORE PUSH1 0x2 DUP4 MSTORE DUP2 DUP5 KECCAK256 DUP8 DUP6 MSTORE DUP1 DUP5 MSTORE DUP3 DUP6 KECCAK256 DUP1 SLOAD SWAP1 DUP7 SWAP1 SSTORE DUP8 DUP7 MSTORE SWAP4 MSTORE SWAP1 DUP4 KECCAK256 DUP1 SLOAD SWAP2 SWAP4 DUP4 SWAP3 PUSH2 0x94C SWAP1 DUP5 SWAP1 PUSH2 0xF0A JUMP JUMPDEST SWAP1 SWAP2 SSTORE POP PUSH1 0x1 SWAP7 SWAP6 POP POP POP POP POP POP JUMP JUMPDEST PUSH1 0x0 DUP3 DUP2 MSTORE PUSH1 0x6 PUSH1 0x20 MSTORE PUSH1 0x40 DUP2 KECCAK256 SLOAD PUSH1 0xFF AND ISZERO PUSH2 0x9AB JUMPI PUSH1 0x40 MLOAD PUSH3 0x461BCD PUSH1 0xE5 SHL DUP2 MSTORE PUSH1 0x20 PUSH1 0x4 DUP3 ADD MSTORE PUSH1 0xD PUSH1 0x24 DUP3 ADD MSTORE PUSH13 0x189D58DAD95D081C995D995C9D PUSH1 0x9A SHL PUSH1 0x44 DUP3 ADD MSTORE PUSH1 0x64 ADD PUSH2 0x332 JUMP JUMPDEST CALLER PUSH1 0x0 SWAP1 DUP2 MSTORE PUSH1 0x2 PUSH1 0x20 SWAP1 DUP2 MSTORE PUSH1 0x40 DUP1 DUP4 KECCAK256 DUP8 DUP5 MSTORE SWAP1 SWAP2 MSTORE SWAP1 KECCAK256 SLOAD PUSH9 0x56BC75E2D63100000 LT PUSH2 0xA1D JUMPI PUSH1 0x40 MLOAD PUSH3 0x461BCD PUSH1 0xE5 SHL DUP2 MSTORE PUSH1 0x20 PUSH1 0x4 DUP3 ADD MSTORE PUSH1 0x9 PUSH1 0x24 DUP3 ADD MSTORE PUSH32 0x3130302065746865720000000000000000000000000000000000000000000000 PUSH1 0x44 DUP3 ADD MSTORE PUSH1 0x64 ADD PUSH2 0x332 JUMP JUMPDEST CALLER PUSH1 0x0 SWAP1 DUP2 MSTORE PUSH1 0x2 PUSH1 0x20 SWAP1 DUP2 MSTORE PUSH1 0x40 DUP1 DUP4 KECCAK256 DUP8 DUP5 MSTORE SWAP1 SWAP2 MSTORE DUP2 KECCAK256 DUP1 SLOAD DUP5 SWAP3 SWAP1 PUSH2 0xA47 SWAP1 DUP5 SWAP1 PUSH2 0xF5F JUMP JUMPDEST SWAP1 SWAP2 SSTORE POP POP CALLER PUSH1 0x0 SWAP1 DUP2 MSTORE PUSH1 0x2 PUSH1 0x20 SWAP1 DUP2 MSTORE PUSH1 0x40 DUP1 DUP4 KECCAK256 DUP7 DUP5 MSTORE SWAP1 SWAP2 MSTORE DUP2 KECCAK256 DUP1 SLOAD DUP5 SWAP3 SWAP1 PUSH2 0xA76 SWAP1 DUP5 SWAP1 PUSH2 0xF0A JUMP JUMPDEST SWAP1 SWAP2 SSTORE POP PUSH1 0x1 SWAP6 SWAP5 POP POP POP POP POP JUMP JUMPDEST PUSH1 0x0 DUP2 DUP2 MSTORE PUSH1 0x1 PUSH1 0x20 SWAP1 DUP2 MSTORE PUSH1 0x40 DUP1 DUP4 KECCAK256 SLOAD PUSH1 0x1 PUSH1 0x1 PUSH1 0xA0 SHL SUB AND DUP1 DUP5 MSTORE PUSH1 0x2 DUP4 MSTORE DUP2 DUP5 KECCAK256 DUP6 DUP6 MSTORE SWAP1 SWAP3 MSTORE SWAP1 SWAP2 KECCAK256 SLOAD DUP1 PUSH2 0xB01 JUMPI PUSH1 0x40 MLOAD PUSH3 0x461BCD PUSH1 0xE5 SHL DUP2 MSTORE PUSH1 0x20 PUSH1 0x4 DUP3 ADD MSTORE PUSH1 0x11 PUSH1 0x24 DUP3 ADD MSTORE PUSH32 0x6275636B6574206E6F7420657869737421000000000000000000000000000000 PUSH1 0x44 DUP3 ADD MSTORE PUSH1 0x64 ADD PUSH2 0x332 JUMP JUMPDEST CALLER PUSH1 0x1 PUSH1 0x1 PUSH1 0xA0 SHL SUB DUP4 AND EQ PUSH2 0xB59 JUMPI PUSH1 0x40 MLOAD PUSH3 0x461BCD PUSH1 0xE5 SHL DUP2 MSTORE PUSH1 0x20 PUSH1 0x4 DUP3 ADD MSTORE PUSH1 0x10 PUSH1 0x24 DUP3 ADD MSTORE PUSH32 0x6275636B6574206E6F7420796F75722100000000000000000000000000000000 PUSH1 0x44 DUP3 ADD MSTORE PUSH1 0x64 ADD PUSH2 0x332 JUMP JUMPDEST PUSH1 0x0 SLOAD PUSH1 0x40 MLOAD PUSH4 0xBB35783B PUSH1 0xE0 SHL DUP2 MSTORE ADDRESS PUSH1 0x4 DUP3 ADD MSTORE PUSH1 0x1 PUSH1 0x1 PUSH1 0xA0 SHL SUB DUP5 DUP2 AND PUSH1 0x24 DUP4 ADD MSTORE PUSH1 0x44 DUP3 ADD DUP5 SWAP1 MSTORE SWAP1 SWAP2 AND SWAP1 PUSH4 0xBB35783B SWAP1 PUSH1 0x64 ADD PUSH1 0x20 PUSH1 0x40 MLOAD DUP1 DUP4 SUB DUP2 PUSH1 0x0 DUP8 GAS CALL ISZERO DUP1 ISZERO PUSH2 0xBB2 JUMPI RETURNDATASIZE PUSH1 0x0 DUP1 RETURNDATACOPY RETURNDATASIZE PUSH1 0x0 REVERT JUMPDEST POP POP POP POP PUSH1 0x40 MLOAD RETURNDATASIZE PUSH1 0x1F NOT PUSH1 0x1F DUP3 ADD AND DUP3 ADD DUP1 PUSH1 0x40 MSTORE POP DUP2 ADD SWAP1 PUSH2 0xBD6 SWAP2 SWAP1 PUSH2 0xED2 JUMP JUMPDEST POP PUSH1 0x1 PUSH1 0x1 PUSH1 0xA0 SHL SUB DUP3 AND PUSH1 0x0 DUP2 DUP2 MSTORE PUSH1 0x2 PUSH1 0x20 SWAP1 DUP2 MSTORE PUSH1 0x40 DUP1 DUP4 KECCAK256 DUP8 DUP5 MSTORE DUP3 MSTORE DUP1 DUP4 KECCAK256 SLOAD SWAP4 DUP4 MSTORE PUSH1 0x3 SWAP1 SWAP2 MSTORE DUP2 KECCAK256 DUP1 SLOAD SWAP1 SWAP2 SWAP1 PUSH2 0xC15 SWAP1 DUP5 SWAP1 PUSH2 0xF5F JUMP JUMPDEST SWAP1 SWAP2 SSTORE POP POP PUSH1 0x1 PUSH1 0x1 PUSH1 0xA0 SHL SUB DUP3 AND PUSH1 0x0 SWAP1 DUP2 MSTORE PUSH1 0x2 PUSH1 0x20 SWAP1 DUP2 MSTORE PUSH1 0x40 DUP1 DUP4 KECCAK256 DUP7 DUP5 MSTORE SWAP1 SWAP2 MSTORE DUP2 KECCAK256 SSTORE PUSH2 0xC49 PUSH1 0x4 DUP5 PUSH2 0xC78 JUMP JUMPDEST POP POP POP POP JUMP JUMPDEST PUSH1 0x0 PUSH2 0x476 DUP3 SLOAD SWAP1 JUMP JUMPDEST PUSH1 0x0 PUSH2 0xC65 DUP4 DUP4 PUSH2 0xC84 JUMP JUMPDEST SWAP4 SWAP3 POP POP POP JUMP JUMPDEST PUSH1 0x0 PUSH2 0xC65 DUP4 DUP4 PUSH2 0xCAE JUMP JUMPDEST PUSH1 0x0 PUSH2 0xC65 DUP4 DUP4 PUSH2 0xCFD JUMP JUMPDEST PUSH1 0x0 DUP3 PUSH1 0x0 ADD DUP3 DUP2 SLOAD DUP2 LT PUSH2 0xC9B JUMPI PUSH2 0xC9B PUSH2 0xF76 JUMP JUMPDEST SWAP1 PUSH1 0x0 MSTORE PUSH1 0x20 PUSH1 0x0 KECCAK256 ADD SLOAD SWAP1 POP SWAP3 SWAP2 POP POP JUMP JUMPDEST PUSH1 0x0 DUP2 DUP2 MSTORE PUSH1 0x1 DUP4 ADD PUSH1 0x20 MSTORE PUSH1 0x40 DUP2 KECCAK256 SLOAD PUSH2 0xCF5 JUMPI POP DUP2 SLOAD PUSH1 0x1 DUP2 DUP2 ADD DUP5 SSTORE PUSH1 0x0 DUP5 DUP2 MSTORE PUSH1 0x20 DUP1 DUP3 KECCAK256 SWAP1 SWAP4 ADD DUP5 SWAP1 SSTORE DUP5 SLOAD DUP5 DUP3 MSTORE DUP3 DUP7 ADD SWAP1 SWAP4 MSTORE PUSH1 0x40 SWAP1 KECCAK256 SWAP2 SWAP1 SWAP2 SSTORE PUSH2 0x476 JUMP JUMPDEST POP PUSH1 0x0 PUSH2 0x476 JUMP JUMPDEST PUSH1 0x0 DUP2 DUP2 MSTORE PUSH1 0x1 DUP4 ADD PUSH1 0x20 MSTORE PUSH1 0x40 DUP2 KECCAK256 SLOAD DUP1 ISZERO PUSH2 0xDE6 JUMPI PUSH1 0x0 PUSH2 0xD21 PUSH1 0x1 DUP4 PUSH2 0xF5F JUMP JUMPDEST DUP6 SLOAD SWAP1 SWAP2 POP PUSH1 0x0 SWAP1 PUSH2 0xD35 SWAP1 PUSH1 0x1 SWAP1 PUSH2 0xF5F JUMP JUMPDEST SWAP1 POP DUP2 DUP2 EQ PUSH2 0xD9A JUMPI PUSH1 0x0 DUP7 PUSH1 0x0 ADD DUP3 DUP2 SLOAD DUP2 LT PUSH2 0xD55 JUMPI PUSH2 0xD55 PUSH2 0xF76 JUMP JUMPDEST SWAP1 PUSH1 0x0 MSTORE PUSH1 0x20 PUSH1 0x0 KECCAK256 ADD SLOAD SWAP1 POP DUP1 DUP8 PUSH1 0x0 ADD DUP5 DUP2 SLOAD DUP2 LT PUSH2 0xD78 JUMPI PUSH2 0xD78 PUSH2 0xF76 JUMP JUMPDEST PUSH1 0x0 SWAP2 DUP3 MSTORE PUSH1 0x20 DUP1 DUP4 KECCAK256 SWAP1 SWAP2 ADD SWAP3 SWAP1 SWAP3 SSTORE SWAP2 DUP3 MSTORE PUSH1 0x1 DUP9 ADD SWAP1 MSTORE PUSH1 0x40 SWAP1 KECCAK256 DUP4 SWAP1 SSTORE JUMPDEST DUP6 SLOAD DUP7 SWAP1 DUP1 PUSH2 0xDAB JUMPI PUSH2 0xDAB PUSH2 0xF8C JUMP JUMPDEST PUSH1 0x1 SWAP1 SUB DUP2 DUP2 SWAP1 PUSH1 0x0 MSTORE PUSH1 0x20 PUSH1 0x0 KECCAK256 ADD PUSH1 0x0 SWAP1 SSTORE SWAP1 SSTORE DUP6 PUSH1 0x1 ADD PUSH1 0x0 DUP7 DUP2 MSTORE PUSH1 0x20 ADD SWAP1 DUP2 MSTORE PUSH1 0x20 ADD PUSH1 0x0 KECCAK256 PUSH1 0x0 SWAP1 SSTORE PUSH1 0x1 SWAP4 POP POP POP POP PUSH2 0x476 JUMP JUMPDEST PUSH1 0x0 SWAP2 POP POP PUSH2 0x476 JUMP JUMPDEST PUSH1 0x0 DUP1 PUSH1 0x40 DUP4 DUP6 SUB SLT ISZERO PUSH2 0xE03 JUMPI PUSH1 0x0 DUP1 REVERT JUMPDEST POP POP DUP1 CALLDATALOAD SWAP3 PUSH1 0x20 SWAP1 SWAP2 ADD CALLDATALOAD SWAP2 POP JUMP JUMPDEST DUP1 CALLDATALOAD PUSH1 0x1 PUSH1 0x1 PUSH1 0xA0 SHL SUB DUP2 AND DUP2 EQ PUSH2 0xE29 JUMPI PUSH1 0x0 DUP1 REVERT JUMPDEST SWAP2 SWAP1 POP JUMP JUMPDEST PUSH1 0x0 DUP1 PUSH1 0x40 DUP4 DUP6 SUB SLT ISZERO PUSH2 0xE41 JUMPI PUSH1 0x0 DUP1 REVERT JUMPDEST PUSH2 0xE4A DUP4 PUSH2 0xE12 JUMP JUMPDEST SWAP5 PUSH1 0x20 SWAP4 SWAP1 SWAP4 ADD CALLDATALOAD SWAP4 POP POP POP JUMP JUMPDEST PUSH1 0x0 DUP1 PUSH1 0x0 PUSH1 0x60 DUP5 DUP7 SUB SLT ISZERO PUSH2 0xE6D JUMPI PUSH1 0x0 DUP1 REVERT JUMPDEST DUP4 CALLDATALOAD SWAP3 POP PUSH1 0x20 DUP5 ADD CALLDATALOAD SWAP2 POP PUSH2 0xE84 PUSH1 0x40 DUP6 ADD PUSH2 0xE12 JUMP JUMPDEST SWAP1 POP SWAP3 POP SWAP3 POP SWAP3 JUMP JUMPDEST PUSH1 0x0 PUSH1 0x20 DUP3 DUP5 SUB SLT ISZERO PUSH2 0xE9F JUMPI PUSH1 0x0 DUP1 REVERT JUMPDEST POP CALLDATALOAD SWAP2 SWAP1 POP JUMP JUMPDEST PUSH1 0x0 DUP1 PUSH1 0x0 PUSH1 0x60 DUP5 DUP7 SUB SLT ISZERO PUSH2 0xEBB JUMPI PUSH1 0x0 DUP1 REVERT JUMPDEST POP POP DUP2 CALLDATALOAD SWAP4 PUSH1 0x20 DUP4 ADD CALLDATALOAD SWAP4 POP PUSH1 0x40 SWAP1 SWAP3 ADD CALLDATALOAD SWAP2 SWAP1 POP JUMP JUMPDEST PUSH1 0x0 PUSH1 0x20 DUP3 DUP5 SUB SLT ISZERO PUSH2 0xEE4 JUMPI PUSH1 0x0 DUP1 REVERT JUMPDEST DUP2 MLOAD DUP1 ISZERO ISZERO DUP2 EQ PUSH2 0xC65 JUMPI PUSH1 0x0 DUP1 REVERT JUMPDEST PUSH4 0x4E487B71 PUSH1 0xE0 SHL PUSH1 0x0 MSTORE PUSH1 0x11 PUSH1 0x4 MSTORE PUSH1 0x24 PUSH1 0x0 REVERT JUMPDEST PUSH1 0x0 DUP3 NOT DUP3 GT ISZERO PUSH2 0xF1D JUMPI PUSH2 0xF1D PUSH2 0xEF4 JUMP JUMPDEST POP ADD SWAP1 JUMP JUMPDEST PUSH1 0x0 DUP3 PUSH2 0xF3F JUMPI PUSH4 0x4E487B71 PUSH1 0xE0 SHL PUSH1 0x0 MSTORE PUSH1 0x12 PUSH1 0x4 MSTORE PUSH1 0x24 PUSH1 0x0 REVERT JUMPDEST POP DIV SWAP1 JUMP JUMPDEST PUSH1 0x0 PUSH1 0x0 NOT DUP3 EQ ISZERO PUSH2 0xF58 JUMPI PUSH2 0xF58 PUSH2 0xEF4 JUMP JUMPDEST POP PUSH1 0x1 ADD SWAP1 JUMP JUMPDEST PUSH1 0x0 DUP3 DUP3 LT ISZERO PUSH2 0xF71 JUMPI PUSH2 0xF71 PUSH2 0xEF4 JUMP JUMPDEST POP SUB SWAP1 JUMP JUMPDEST PUSH4 0x4E487B71 PUSH1 0xE0 SHL PUSH1 0x0 MSTORE PUSH1 0x32 PUSH1 0x4 MSTORE PUSH1 0x24 PUSH1 0x0 REVERT JUMPDEST PUSH4 0x4E487B71 PUSH1 0xE0 SHL PUSH1 0x0 MSTORE PUSH1 0x31 PUSH1 0x4 MSTORE PUSH1 0x24 PUSH1 0x0 REVERT INVALID LOG2 PUSH5 0x6970667358 0x22 SLT KECCAK256 PUSH24 0x6C78DD4A99353399F9EED24A9337A89EE8EDDAD8C59EE17A 0xD2 STATICCALL ADDMOD 0xC2 0xD0 DELEGATECALL 0xE7 PUSH5 0x736F6C6343 STOP ADDMOD SIGNEXTEND STOP CALLER "
        },
        "gasEstimates": {
          "creation": {
            "codeDepositCost": "811200",
            "executionCost": "infinite",
            "totalCost": "infinite"
          },
          "external": {
            "MTRG()": "2426",
            "boundedMTRG()": "2372",
            "bucket(address,bytes32)": "2679",
            "bucketClose(bytes32)": "infinite",
            "bucketDeposit(bytes32,uint256)": "infinite",
            "bucketExists(bytes32)": "2598",
            "bucketMerge(bytes32,bytes32)": "36397",
            "bucketOpen(address,uint256)": "infinite",
            "bucketRevert(bytes32)": "2483",
            "bucketTransferFund(bytes32,bytes32,uint256)": "53687",
            "bucketUser(bytes32)": "2543",
            "bucketValue(bytes32)": "2531",
            "bucketWithdraw(bytes32,uint256,address)": "infinite",
            "reward()": "infinite",
            "setBucketRevert(bytes32)": "24581"
          }
        },
        "methodIdentifiers": {
          "MTRG()": "88b0e2a4",
          "boundedMTRG()": "3a8dd82a",
          "bucket(address,bytes32)": "7de9d11f",
          "bucketClose(bytes32)": "77d7f913",
          "bucketDeposit(bytes32,uint256)": "1b7846c0",
          "bucketExists(bytes32)": "f2097550",
          "bucketMerge(bytes32,bytes32)": "653d73a2",
          "bucketOpen(address,uint256)": "3060ef72",
          "bucketRevert(bytes32)": "b7167f3a",
          "bucketTransferFund(bytes32,bytes32,uint256)": "72be77a0",
          "bucketUser(bytes32)": "b7b4de67",
          "bucketValue(bytes32)": "9748bf5b",
          "bucketWithdraw(bytes32,uint256,address)": "561f97be",
          "reward()": "228cb733",
          "setBucketRevert(bytes32)": "62d3cc01"
        }
      },
      "storageLayout": {
        "storage": [
          {
            "astId": 934,
            "contract": "contracts/test/MockScriptEngine.sol:MockScriptEngine",
            "label": "MTRG",
            "offset": 0,
            "slot": "0",
            "type": "t_contract(MockMTRG)923"
          },
          {
            "astId": 938,
            "contract": "contracts/test/MockScriptEngine.sol:MockScriptEngine",
            "label": "bucketUser",
            "offset": 0,
            "slot": "1",
            "type": "t_mapping(t_bytes32,t_address)"
          },
          {
            "astId": 944,
            "contract": "contracts/test/MockScriptEngine.sol:MockScriptEngine",
            "label": "bucket",
            "offset": 0,
            "slot": "2",
            "type": "t_mapping(t_address,t_mapping(t_bytes32,t_uint256))"
          },
          {
            "astId": 948,
            "contract": "contracts/test/MockScriptEngine.sol:MockScriptEngine",
            "label": "balance",
            "offset": 0,
            "slot": "3",
            "type": "t_mapping(t_address,t_uint256)"
          },
          {
            "astId": 951,
            "contract": "contracts/test/MockScriptEngine.sol:MockScriptEngine",
            "label": "buckets",
            "offset": 0,
            "slot": "4",
            "type": "t_struct(Bytes32Set)204_storage"
          },
          {
            "astId": 955,
            "contract": "contracts/test/MockScriptEngine.sol:MockScriptEngine",
            "label": "bucketRevert",
            "offset": 0,
            "slot": "6",
            "type": "t_mapping(t_bytes32,t_bool)"
          }
        ],
        "types": {
          "t_address": {
            "encoding": "inplace",
            "label": "address",
            "numberOfBytes": "20"
          },
          "t_array(t_bytes32)dyn_storage": {
            "base": "t_bytes32",
            "encoding": "dynamic_array",
            "label": "bytes32[]",
            "numberOfBytes": "32"
          },
          "t_bool": {
            "encoding": "inplace",
            "label": "bool",
            "numberOfBytes": "1"
          },
          "t_bytes32": {
            "encoding": "inplace",
            "label": "bytes32",
            "numberOfBytes": "32"
          },
          "t_contract(MockMTRG)923": {
            "encoding": "inplace",
            "label": "contract MockMTRG",
            "numberOfBytes": "20"
          },
          "t_mapping(t_address,t_mapping(t_bytes32,t_uint256))": {
            "encoding": "mapping",
            "key": "t_address",
            "label": "mapping(address => mapping(bytes32 => uint256))",
            "numberOfBytes": "32",
            "value": "t_mapping(t_bytes32,t_uint256)"
          },
          "t_mapping(t_address,t_uint256)": {
            "encoding": "mapping",
            "key": "t_address",
            "label": "mapping(address => uint256)",
            "numberOfBytes": "32",
            "value": "t_uint256"
          },
          "t_mapping(t_bytes32,t_address)": {
            "encoding": "mapping",
            "key": "t_bytes32",
            "label": "mapping(bytes32 => address)",
            "numberOfBytes": "32",
            "value": "t_address"
          },
          "t_mapping(t_bytes32,t_bool)": {
            "encoding": "mapping",
            "key": "t_bytes32",
            "label": "mapping(bytes32 => bool)",
            "numberOfBytes": "32",
            "value": "t_bool"
          },
          "t_mapping(t_bytes32,t_uint256)": {
            "encoding": "mapping",
            "key": "t_bytes32",
            "label": "mapping(bytes32 => uint256)",
            "numberOfBytes": "32",
            "value": "t_uint256"
          },
          "t_struct(Bytes32Set)204_storage": {
            "encoding": "inplace",
            "label": "struct EnumerableSet.Bytes32Set",
            "members": [
              {
                "astId": 203,
                "contract": "contracts/test/MockScriptEngine.sol:MockScriptEngine",
                "label": "_inner",
                "offset": 0,
                "slot": "0",
                "type": "t_struct(Set)10_storage"
              }
            ],
            "numberOfBytes": "64"
          },
          "t_struct(Set)10_storage": {
            "encoding": "inplace",
            "label": "struct EnumerableSet.Set",
            "members": [
              {
                "astId": 5,
                "contract": "contracts/test/MockScriptEngine.sol:MockScriptEngine",
                "label": "_values",
                "offset": 0,
                "slot": "0",
                "type": "t_array(t_bytes32)dyn_storage"
              },
              {
                "astId": 9,
                "contract": "contracts/test/MockScriptEngine.sol:MockScriptEngine",
                "label": "_indexes",
                "offset": 0,
                "slot": "1",
                "type": "t_mapping(t_bytes32,t_uint256)"
              }
            ],
            "numberOfBytes": "64"
          },
          "t_uint256": {
            "encoding": "inplace",
            "label": "uint256",
            "numberOfBytes": "32"
          }
        }
      },
      "userdoc": {
        "kind": "user",
        "methods": {
          "bucketClose(bytes32)": {
            "notice": "this func withdraw all value from the designated bucket owned by msg.sender, and completely close this bucket `owner` will receive funds after bucket mature time will revert if any error happens"
          },
          "bucketDeposit(bytes32,uint256)": {
            "notice": "this func adds more value to the designated bucket owned by msg.sender will revert if any error happens"
          },
          "bucketMerge(bytes32,bytes32)": {
            "notice": "this func transfer all funds from the designated `fromBucket` to `toBucket` owned by msg.sender, and immediately remove `fromBucket` from listing will revert if any error happens"
          },
          "bucketOpen(address,uint256)": {
            "notice": "this func create a bucket from msg.sender, voted to candidate will revert if any error happens"
          },
          "bucketTransferFund(bytes32,bytes32,uint256)": {
            "notice": "this func transfer fund from the designated `fromBucket` to `toBucket` owned by msg.sender will revert if any error happens"
          },
          "bucketValue(bytes32)": {
            "notice": "this func returns the value of the designated bucket"
          },
          "bucketWithdraw(bytes32,uint256,address)": {
            "notice": "this func withdraw value from the designated bucket owned by msg.sender, createsa sub bucket to `recipient` `recipient` will receive funds after bucket mature time will revert if any error happens"
          }
        },
        "version": 1
      }
    }
  }
}