{
  "_format": "hh-sol-artifact-1",
  "contractName": "StMTRG",
  "sourceName": "contracts/StMTRG.sol",
  "abi": [
    {
      "anonymous": false,
      "inputs": [
        {
          "indexed": true,
          "internalType": "address",
          "name": "owner",
          "type": "address"
        },
        {
          "indexed": true,
          "internalType": "address",
          "name": "spender",
          "type": "address"
        },
        {
          "indexed": false,
          "internalType": "uint256",
          "name": "value",
          "type": "uint256"
        }
      ],
      "name": "Approval",
      "type": "event"
    },
    {
      "anonymous": false,
      "inputs": [
        {
          "indexed": true,
          "internalType": "address",
          "name": "account",
          "type": "address"
        },
        {
          "indexed": true,
          "internalType": "bytes32",
          "name": "bucketID",
          "type": "bytes32"
        },
        {
          "indexed": false,
          "internalType": "uint256",
          "name": "amount",
          "type": "uint256"
        }
      ],
      "name": "Deposit",
      "type": "event"
    },
    {
      "anonymous": false,
      "inputs": [
        {
          "indexed": true,
          "internalType": "address",
          "name": "candidate",
          "type": "address"
        },
        {
          "indexed": false,
          "internalType": "bytes32",
          "name": "bucketID",
          "type": "bytes32"
        },
        {
          "indexed": false,
          "internalType": "uint256",
          "name": "timestamp",
          "type": "uint256"
        }
      ],
      "name": "ExecuteClost",
      "type": "event"
    },
    {
      "anonymous": false,
      "inputs": [
        {
          "indexed": false,
          "internalType": "uint8",
          "name": "version",
          "type": "uint8"
        }
      ],
      "name": "Initialized",
      "type": "event"
    },
    {
      "anonymous": false,
      "inputs": [
        {
          "indexed": true,
          "internalType": "bytes32",
          "name": "bucketID",
          "type": "bytes32"
        },
        {
          "indexed": true,
          "internalType": "address",
          "name": "candidate",
          "type": "address"
        },
        {
          "indexed": true,
          "internalType": "uint256",
          "name": "epoch",
          "type": "uint256"
        },
        {
          "indexed": false,
          "internalType": "uint256",
          "name": "totalSupply",
          "type": "uint256"
        }
      ],
      "name": "LogRebase",
      "type": "event"
    },
    {
      "anonymous": false,
      "inputs": [
        {
          "indexed": true,
          "internalType": "bytes32",
          "name": "oldBucketID",
          "type": "bytes32"
        },
        {
          "indexed": true,
          "internalType": "bytes32",
          "name": "newBucketID",
          "type": "bytes32"
        },
        {
          "indexed": false,
          "internalType": "uint256",
          "name": "amount",
          "type": "uint256"
        }
      ],
      "name": "Merge",
      "type": "event"
    },
    {
      "anonymous": false,
      "inputs": [
        {
          "indexed": true,
          "internalType": "address",
          "name": "candidate",
          "type": "address"
        },
        {
          "indexed": false,
          "internalType": "bytes32",
          "name": "bucketID",
          "type": "bytes32"
        }
      ],
      "name": "NewCandidate",
      "type": "event"
    },
    {
      "anonymous": false,
      "inputs": [
        {
          "indexed": false,
          "internalType": "address",
          "name": "account",
          "type": "address"
        }
      ],
      "name": "Paused",
      "type": "event"
    },
    {
      "anonymous": false,
      "inputs": [
        {
          "indexed": true,
          "internalType": "address",
          "name": "candidate",
          "type": "address"
        },
        {
          "indexed": false,
          "internalType": "bytes32",
          "name": "bucketID",
          "type": "bytes32"
        },
        {
          "indexed": false,
          "internalType": "uint256",
          "name": "timestamp",
          "type": "uint256"
        }
      ],
      "name": "RequestClost",
      "type": "event"
    },
    {
      "anonymous": false,
      "inputs": [
        {
          "indexed": true,
          "internalType": "bytes32",
          "name": "role",
          "type": "bytes32"
        },
        {
          "indexed": true,
          "internalType": "bytes32",
          "name": "previousAdminRole",
          "type": "bytes32"
        },
        {
          "indexed": true,
          "internalType": "bytes32",
          "name": "newAdminRole",
          "type": "bytes32"
        }
      ],
      "name": "RoleAdminChanged",
      "type": "event"
    },
    {
      "anonymous": false,
      "inputs": [
        {
          "indexed": true,
          "internalType": "bytes32",
          "name": "role",
          "type": "bytes32"
        },
        {
          "indexed": true,
          "internalType": "address",
          "name": "account",
          "type": "address"
        },
        {
          "indexed": true,
          "internalType": "address",
          "name": "sender",
          "type": "address"
        }
      ],
      "name": "RoleGranted",
      "type": "event"
    },
    {
      "anonymous": false,
      "inputs": [
        {
          "indexed": true,
          "internalType": "bytes32",
          "name": "role",
          "type": "bytes32"
        },
        {
          "indexed": true,
          "internalType": "address",
          "name": "account",
          "type": "address"
        },
        {
          "indexed": true,
          "internalType": "address",
          "name": "sender",
          "type": "address"
        }
      ],
      "name": "RoleRevoked",
      "type": "event"
    },
    {
      "anonymous": false,
      "inputs": [
        {
          "indexed": false,
          "internalType": "uint256",
          "name": "timestamp",
          "type": "uint256"
        }
      ],
      "name": "TerminalClost",
      "type": "event"
    },
    {
      "anonymous": false,
      "inputs": [
        {
          "indexed": true,
          "internalType": "address",
          "name": "from",
          "type": "address"
        },
        {
          "indexed": true,
          "internalType": "address",
          "name": "to",
          "type": "address"
        },
        {
          "indexed": false,
          "internalType": "uint256",
          "name": "value",
          "type": "uint256"
        }
      ],
      "name": "Transfer",
      "type": "event"
    },
    {
      "anonymous": false,
      "inputs": [
        {
          "indexed": true,
          "internalType": "bytes32",
          "name": "oldBucketID",
          "type": "bytes32"
        },
        {
          "indexed": true,
          "internalType": "bytes32",
          "name": "newBucketID",
          "type": "bytes32"
        },
        {
          "indexed": false,
          "internalType": "uint256",
          "name": "amount",
          "type": "uint256"
        }
      ],
      "name": "TransferFund",
      "type": "event"
    },
    {
      "anonymous": false,
      "inputs": [
        {
          "indexed": false,
          "internalType": "address",
          "name": "account",
          "type": "address"
        }
      ],
      "name": "Unpaused",
      "type": "event"
    },
    {
      "anonymous": false,
      "inputs": [
        {
          "indexed": true,
          "internalType": "address",
          "name": "oldCandidate",
          "type": "address"
        },
        {
          "indexed": false,
          "internalType": "address",
          "name": "newCandidate",
          "type": "address"
        }
      ],
      "name": "UpdateCandidate",
      "type": "event"
    },
    {
      "anonymous": false,
      "inputs": [
        {
          "indexed": true,
          "internalType": "address",
          "name": "account",
          "type": "address"
        },
        {
          "indexed": true,
          "internalType": "bytes32",
          "name": "bucketID",
          "type": "bytes32"
        },
        {
          "indexed": false,
          "internalType": "uint256",
          "name": "amount",
          "type": "uint256"
        }
      ],
      "name": "Withdraw",
      "type": "event"
    },
    {
      "inputs": [],
      "name": "CLOSE_DURATION",
      "outputs": [
        {
          "internalType": "uint256",
          "name": "",
          "type": "uint256"
        }
      ],
      "stateMutability": "view",
      "type": "function"
    },
    {
      "inputs": [],
      "name": "DEFAULT_ADMIN_ROLE",
      "outputs": [
        {
          "internalType": "bytes32",
          "name": "",
          "type": "bytes32"
        }
      ],
      "stateMutability": "view",
      "type": "function"
    },
    {
      "inputs": [],
      "name": "DOMAIN_SEPARATOR",
      "outputs": [
        {
          "internalType": "bytes32",
          "name": "",
          "type": "bytes32"
        }
      ],
      "stateMutability": "view",
      "type": "function"
    },
    {
      "inputs": [],
      "name": "MTRG",
      "outputs": [
        {
          "internalType": "contract IERC20Upgradeable",
          "name": "",
          "type": "address"
        }
      ],
      "stateMutability": "view",
      "type": "function"
    },
    {
      "inputs": [],
      "name": "allBuckets",
      "outputs": [
        {
          "components": [
            {
              "internalType": "bytes32",
              "name": "bucketID",
              "type": "bytes32"
            },
            {
              "internalType": "uint256",
              "name": "totalDeposit",
              "type": "uint256"
            },
            {
              "internalType": "uint256",
              "name": "locked",
              "type": "uint256"
            }
          ],
          "internalType": "struct StMTRG.Bucket[]",
          "name": "",
          "type": "tuple[]"
        }
      ],
      "stateMutability": "view",
      "type": "function"
    },
    {
      "inputs": [
        {
          "internalType": "address",
          "name": "owner",
          "type": "address"
        },
        {
          "internalType": "address",
          "name": "spender",
          "type": "address"
        }
      ],
      "name": "allowance",
      "outputs": [
        {
          "internalType": "uint256",
          "name": "",
          "type": "uint256"
        }
      ],
      "stateMutability": "view",
      "type": "function"
    },
    {
      "inputs": [
        {
          "internalType": "address",
          "name": "spender",
          "type": "address"
        },
        {
          "internalType": "uint256",
          "name": "amount",
          "type": "uint256"
        }
      ],
      "name": "approve",
      "outputs": [
        {
          "internalType": "bool",
          "name": "",
          "type": "bool"
        }
      ],
      "stateMutability": "nonpayable",
      "type": "function"
    },
    {
      "inputs": [
        {
          "internalType": "address",
          "name": "account",
          "type": "address"
        }
      ],
      "name": "balanceOf",
      "outputs": [
        {
          "internalType": "uint256",
          "name": "",
          "type": "uint256"
        }
      ],
      "stateMutability": "view",
      "type": "function"
    },
    {
      "inputs": [
        {
          "internalType": "bytes32",
          "name": "",
          "type": "bytes32"
        }
      ],
      "name": "bucketIDToCandidate",
      "outputs": [
        {
          "internalType": "address",
          "name": "",
          "type": "address"
        }
      ],
      "stateMutability": "view",
      "type": "function"
    },
    {
      "inputs": [
        {
          "internalType": "bytes32",
          "name": "bucketID",
          "type": "bytes32"
        }
      ],
      "name": "bucketValue",
      "outputs": [
        {
          "internalType": "uint256",
          "name": "",
          "type": "uint256"
        }
      ],
      "stateMutability": "view",
      "type": "function"
    },
    {
      "inputs": [
        {
          "internalType": "address",
          "name": "",
          "type": "address"
        }
      ],
      "name": "candidateIndex",
      "outputs": [
        {
          "internalType": "uint256",
          "name": "",
          "type": "uint256"
        }
      ],
      "stateMutability": "view",
      "type": "function"
    },
    {
      "inputs": [
        {
          "internalType": "address",
          "name": "",
          "type": "address"
        }
      ],
      "name": "candidateToBucket",
      "outputs": [
        {
          "internalType": "bytes32",
          "name": "bucketID",
          "type": "bytes32"
        },
        {
          "internalType": "uint256",
          "name": "totalDeposit",
          "type": "uint256"
        },
        {
          "internalType": "uint256",
          "name": "locked",
          "type": "uint256"
        }
      ],
      "stateMutability": "view",
      "type": "function"
    },
    {
      "inputs": [],
      "name": "candidates",
      "outputs": [
        {
          "internalType": "address[]",
          "name": "",
          "type": "address[]"
        }
      ],
      "stateMutability": "view",
      "type": "function"
    },
    {
      "inputs": [],
      "name": "closeTerminal",
      "outputs": [],
      "stateMutability": "nonpayable",
      "type": "function"
    },
    {
      "inputs": [],
      "name": "closeTimestamp",
      "outputs": [
        {
          "internalType": "uint256",
          "name": "",
          "type": "uint256"
        }
      ],
      "stateMutability": "view",
      "type": "function"
    },
    {
      "inputs": [],
      "name": "currentIndex",
      "outputs": [
        {
          "internalType": "uint256",
          "name": "",
          "type": "uint256"
        }
      ],
      "stateMutability": "view",
      "type": "function"
    },
    {
      "inputs": [],
      "name": "decimals",
      "outputs": [
        {
          "internalType": "uint8",
          "name": "",
          "type": "uint8"
        }
      ],
      "stateMutability": "view",
      "type": "function"
    },
    {
      "inputs": [
        {
          "internalType": "address",
          "name": "spender",
          "type": "address"
        },
        {
          "internalType": "uint256",
          "name": "subtractedValue",
          "type": "uint256"
        }
      ],
      "name": "decreaseAllowance",
      "outputs": [
        {
          "internalType": "bool",
          "name": "",
          "type": "bool"
        }
      ],
      "stateMutability": "nonpayable",
      "type": "function"
    },
    {
      "inputs": [
        {
          "internalType": "address",
          "name": "candidate",
          "type": "address"
        }
      ],
      "name": "deleteBucket",
      "outputs": [],
      "stateMutability": "nonpayable",
      "type": "function"
    },
    {
      "inputs": [
        {
          "internalType": "uint256",
          "name": "amount",
          "type": "uint256"
        }
      ],
      "name": "deposit",
      "outputs": [],
      "stateMutability": "nonpayable",
      "type": "function"
    },
    {
      "inputs": [],
      "name": "epoch",
      "outputs": [
        {
          "internalType": "uint256",
          "name": "",
          "type": "uint256"
        }
      ],
      "stateMutability": "view",
      "type": "function"
    },
    {
      "inputs": [],
      "name": "executeClose",
      "outputs": [],
      "stateMutability": "nonpayable",
      "type": "function"
    },
    {
      "inputs": [
        {
          "internalType": "bytes32",
          "name": "role",
          "type": "bytes32"
        }
      ],
      "name": "getRoleAdmin",
      "outputs": [
        {
          "internalType": "bytes32",
          "name": "",
          "type": "bytes32"
        }
      ],
      "stateMutability": "view",
      "type": "function"
    },
    {
      "inputs": [
        {
          "internalType": "bytes32",
          "name": "role",
          "type": "bytes32"
        },
        {
          "internalType": "uint256",
          "name": "index",
          "type": "uint256"
        }
      ],
      "name": "getRoleMember",
      "outputs": [
        {
          "internalType": "address",
          "name": "",
          "type": "address"
        }
      ],
      "stateMutability": "view",
      "type": "function"
    },
    {
      "inputs": [
        {
          "internalType": "bytes32",
          "name": "role",
          "type": "bytes32"
        }
      ],
      "name": "getRoleMemberCount",
      "outputs": [
        {
          "internalType": "uint256",
          "name": "",
          "type": "uint256"
        }
      ],
      "stateMutability": "view",
      "type": "function"
    },
    {
      "inputs": [
        {
          "internalType": "bytes32",
          "name": "role",
          "type": "bytes32"
        },
        {
          "internalType": "address",
          "name": "account",
          "type": "address"
        }
      ],
      "name": "grantRole",
      "outputs": [],
      "stateMutability": "nonpayable",
      "type": "function"
    },
    {
      "inputs": [
        {
          "internalType": "bytes32",
          "name": "role",
          "type": "bytes32"
        },
        {
          "internalType": "address",
          "name": "account",
          "type": "address"
        }
      ],
      "name": "hasRole",
      "outputs": [
        {
          "internalType": "bool",
          "name": "",
          "type": "bool"
        }
      ],
      "stateMutability": "view",
      "type": "function"
    },
    {
      "inputs": [],
      "name": "inTerminal",
      "outputs": [
        {
          "internalType": "bool",
          "name": "",
          "type": "bool"
        }
      ],
      "stateMutability": "view",
      "type": "function"
    },
    {
      "inputs": [
        {
          "internalType": "address",
          "name": "spender",
          "type": "address"
        },
        {
          "internalType": "uint256",
          "name": "addedValue",
          "type": "uint256"
        }
      ],
      "name": "increaseAllowance",
      "outputs": [
        {
          "internalType": "bool",
          "name": "",
          "type": "bool"
        }
      ],
      "stateMutability": "nonpayable",
      "type": "function"
    },
    {
      "inputs": [
        {
          "internalType": "address",
          "name": "admin",
          "type": "address"
        },
        {
          "internalType": "contract IERC20Upgradeable",
          "name": "_MTRG",
          "type": "address"
        },
        {
          "internalType": "address",
          "name": "scriptEngineAddr",
          "type": "address"
        }
      ],
      "name": "initialize",
      "outputs": [],
      "stateMutability": "nonpayable",
      "type": "function"
    },
    {
      "inputs": [],
      "name": "isClose",
      "outputs": [
        {
          "internalType": "bool",
          "name": "",
          "type": "bool"
        }
      ],
      "stateMutability": "view",
      "type": "function"
    },
    {
      "inputs": [],
      "name": "name",
      "outputs": [
        {
          "internalType": "string",
          "name": "",
          "type": "string"
        }
      ],
      "stateMutability": "view",
      "type": "function"
    },
    {
      "inputs": [
        {
          "internalType": "address",
          "name": "candidate",
          "type": "address"
        }
      ],
      "name": "newCandidate",
      "outputs": [],
      "stateMutability": "nonpayable",
      "type": "function"
    },
    {
      "inputs": [
        {
          "internalType": "address",
          "name": "owner",
          "type": "address"
        }
      ],
      "name": "nonces",
      "outputs": [
        {
          "internalType": "uint256",
          "name": "",
          "type": "uint256"
        }
      ],
      "stateMutability": "view",
      "type": "function"
    },
    {
      "inputs": [],
      "name": "pause",
      "outputs": [],
      "stateMutability": "nonpayable",
      "type": "function"
    },
    {
      "inputs": [],
      "name": "paused",
      "outputs": [
        {
          "internalType": "bool",
          "name": "",
          "type": "bool"
        }
      ],
      "stateMutability": "view",
      "type": "function"
    },
    {
      "inputs": [
        {
          "internalType": "address",
          "name": "owner",
          "type": "address"
        },
        {
          "internalType": "address",
          "name": "spender",
          "type": "address"
        },
        {
          "internalType": "uint256",
          "name": "value",
          "type": "uint256"
        },
        {
          "internalType": "uint256",
          "name": "deadline",
          "type": "uint256"
        },
        {
          "internalType": "uint8",
          "name": "v",
          "type": "uint8"
        },
        {
          "internalType": "bytes32",
          "name": "r",
          "type": "bytes32"
        },
        {
          "internalType": "bytes32",
          "name": "s",
          "type": "bytes32"
        }
      ],
      "name": "permit",
      "outputs": [],
      "stateMutability": "nonpayable",
      "type": "function"
    },
    {
      "inputs": [],
      "name": "rebase",
      "outputs": [],
      "stateMutability": "nonpayable",
      "type": "function"
    },
    {
      "inputs": [
        {
          "internalType": "bytes32",
          "name": "role",
          "type": "bytes32"
        },
        {
          "internalType": "address",
          "name": "account",
          "type": "address"
        }
      ],
      "name": "renounceRole",
      "outputs": [],
      "stateMutability": "nonpayable",
      "type": "function"
    },
    {
      "inputs": [],
      "name": "requestClose",
      "outputs": [],
      "stateMutability": "nonpayable",
      "type": "function"
    },
    {
      "inputs": [
        {
          "internalType": "bytes32",
          "name": "role",
          "type": "bytes32"
        },
        {
          "internalType": "address",
          "name": "account",
          "type": "address"
        }
      ],
      "name": "revokeRole",
      "outputs": [],
      "stateMutability": "nonpayable",
      "type": "function"
    },
    {
      "inputs": [
        {
          "internalType": "address",
          "name": "account",
          "type": "address"
        }
      ],
      "name": "setBlackList",
      "outputs": [],
      "stateMutability": "nonpayable",
      "type": "function"
    },
    {
      "inputs": [
        {
          "internalType": "uint256",
          "name": "_share",
          "type": "uint256"
        }
      ],
      "name": "shareToValue",
      "outputs": [
        {
          "internalType": "uint256",
          "name": "",
          "type": "uint256"
        }
      ],
      "stateMutability": "view",
      "type": "function"
    },
    {
      "inputs": [
        {
          "internalType": "address",
          "name": "account",
          "type": "address"
        }
      ],
      "name": "shares",
      "outputs": [
        {
          "internalType": "uint256",
          "name": "",
          "type": "uint256"
        }
      ],
      "stateMutability": "view",
      "type": "function"
    },
    {
      "inputs": [
        {
          "internalType": "bytes4",
          "name": "interfaceId",
          "type": "bytes4"
        }
      ],
      "name": "supportsInterface",
      "outputs": [
        {
          "internalType": "bool",
          "name": "",
          "type": "bool"
        }
      ],
      "stateMutability": "view",
      "type": "function"
    },
    {
      "inputs": [],
      "name": "symbol",
      "outputs": [
        {
          "internalType": "string",
          "name": "",
          "type": "string"
        }
      ],
      "stateMutability": "view",
      "type": "function"
    },
    {
      "inputs": [],
      "name": "totalShares",
      "outputs": [
        {
          "internalType": "uint256",
          "name": "",
          "type": "uint256"
        }
      ],
      "stateMutability": "view",
      "type": "function"
    },
    {
      "inputs": [],
      "name": "totalSupply",
      "outputs": [
        {
          "internalType": "uint256",
          "name": "",
          "type": "uint256"
        }
      ],
      "stateMutability": "view",
      "type": "function"
    },
    {
      "inputs": [
        {
          "internalType": "address",
          "name": "to",
          "type": "address"
        },
        {
          "internalType": "uint256",
          "name": "amount",
          "type": "uint256"
        }
      ],
      "name": "transfer",
      "outputs": [
        {
          "internalType": "bool",
          "name": "",
          "type": "bool"
        }
      ],
      "stateMutability": "nonpayable",
      "type": "function"
    },
    {
      "inputs": [
        {
          "internalType": "address",
          "name": "from",
          "type": "address"
        },
        {
          "internalType": "address",
          "name": "to",
          "type": "address"
        },
        {
          "internalType": "uint256",
          "name": "amount",
          "type": "uint256"
        }
      ],
      "name": "transferFrom",
      "outputs": [
        {
          "internalType": "bool",
          "name": "",
          "type": "bool"
        }
      ],
      "stateMutability": "nonpayable",
      "type": "function"
    },
    {
      "inputs": [
        {
          "internalType": "address",
          "name": "candidate",
          "type": "address"
        }
      ],
      "name": "transferFund",
      "outputs": [],
      "stateMutability": "nonpayable",
      "type": "function"
    },
    {
      "inputs": [],
      "name": "unpause",
      "outputs": [],
      "stateMutability": "nonpayable",
      "type": "function"
    },
    {
      "inputs": [
        {
          "internalType": "address",
          "name": "oldCandidateAddr",
          "type": "address"
        },
        {
          "internalType": "address",
          "name": "newCandidateAddr",
          "type": "address"
        }
      ],
      "name": "updateCandidate",
      "outputs": [],
      "stateMutability": "nonpayable",
      "type": "function"
    },
    {
      "inputs": [
        {
          "internalType": "uint256",
          "name": "_value",
          "type": "uint256"
        }
      ],
      "name": "valueToShare",
      "outputs": [
        {
          "internalType": "uint256",
          "name": "",
          "type": "uint256"
        }
      ],
      "stateMutability": "view",
      "type": "function"
    },
    {
      "inputs": [
        {
          "internalType": "uint256",
          "name": "amount",
          "type": "uint256"
        },
        {
          "internalType": "address",
          "name": "recipient",
          "type": "address"
        }
      ],
      "name": "withdraw",
      "outputs": [],
      "stateMutability": "nonpayable",
      "type": "function"
    },
    {
      "inputs": [
        {
          "internalType": "address",
          "name": "recipient",
          "type": "address"
        }
      ],
      "name": "withdrawAll",
      "outputs": [],
      "stateMutability": "nonpayable",
      "type": "function"
    }
  ],
  "bytecode": "0x608060405260006101945534801561001657600080fd5b50614c61806100266000396000f3fe608060405234801561001057600080fd5b50600436106103775760003560e01c806372700241116101d3578063af14052c11610104578063d547741f116100a2578063f5e130af1161007c578063f5e130af146107c6578063f9776bcb146107d9578063fa09e630146107ee578063fdb4fb0e1461080157600080fd5b8063d547741f14610750578063dd62ed3e14610763578063e461a47d1461079c57600080fd5b8063ca15c873116100de578063ca15c873146106ed578063cd4558fd14610700578063ce7c2ac214610713578063d505accf1461073d57600080fd5b8063af14052c146106bf578063b6b55f25146106c7578063c0c53b8b146106da57600080fd5b806395d89b4111610171578063a217fddf1161014b578063a217fddf14610689578063a457c2d714610691578063a6536e75146106a4578063a9059cbb146106ac57600080fd5b806395d89b411461065b5780639625a041146106635780639748bf5b1461067657600080fd5b806388b0e2a4116101ad57806388b0e2a4146105d9578063900cf0cf146106055780639010d07c1461060f57806391d148541461062257600080fd5b806372700241146105ab5780637ecebe00146105be5780638456cb59146105d157600080fd5b80633644e515116102ad5780634b64fcd11161024b5780635dc4a466116102255780635dc4a4661461055d57806361e3fb69146105705780636f0470aa1461058357806370a082311461059857600080fd5b80634b64fcd114610536578063577262ab146105495780635c975abb1461055157600080fd5b80633a98ef39116102875780633a98ef391461050b5780633e17087d146105135780633f4ba83a1461051b578063441130d51461052357600080fd5b80633644e515146104dd57806336568abe146104e557806339509351146104f857600080fd5b806318160ddd1161031a578063248a9ca3116102f4578063248a9ca31461048e57806326987b60146104b15780632f2ff15d146104bb578063313ce567146104ce57600080fd5b806318160ddd1461045257806322735da81461045a57806323b872dd1461047b57600080fd5b806306fdde031161035657806306fdde03146103d1578063087bf506146103e6578063095ea7b3146104315780631338f4931461044457600080fd5b8062f714ce1461037c57806301ffc9a714610391578063052d7c00146103b9575b600080fd5b61038f61038a36600461471c565b61080b565b005b6103a461039f36600461474c565b61086f565b60405190151581526020015b60405180910390f35b6103c36101965481565b6040519081526020016103b0565b6103d961089a565b6040516103b091906147a2565b6104166103f43660046147d5565b6101996020526000908152604090208054600182015460029092015490919083565b604080519384526020840192909252908201526060016103b0565b6103a461043f3660046147f2565b61092c565b61019e546103a49060ff1681565b6103c3610944565b6103c36104683660046147d5565b61019c6020526000908152604090205481565b6103a461048936600461481e565b6109c3565b6103c361049c36600461485f565b600090815260fe602052604090206001015490565b6103c361019d5481565b61038f6104c936600461471c565b6109e7565b604051601281526020016103b0565b6103c3610a11565b61038f6104f336600461471c565b610a1b565b6103a46105063660046147f2565b610aa3565b6103c3610ae2565b61038f610af0565b61038f610cb6565b6103c361053136600461485f565b610ccc565b6103c361054436600461485f565b610e06565b61038f610e11565b6101625460ff166103a4565b61038f61056b3660046147d5565b610f9c565b61038f61057e3660046147d5565b6113bd565b61058b61189a565b6040516103b09190614878565b6103c36105a63660046147d5565b6118fc565b61038f6105b93660046147d5565b61191f565b6103c36105cc3660046147d5565b611955565b61038f611973565b61019f546105ed906001600160a01b031681565b6040516001600160a01b0390911681526020016103b0565b6103c36101955481565b6105ed61061d3660046148c5565b611986565b6103a461063036600461471c565b600091825260fe602090815260408084206001600160a01b0393909316845291905290205460ff1690565b6103d961199f565b61038f6106713660046148e7565b6119ae565b6103c361068436600461485f565b611c09565b6103c3600081565b6103a461069f3660046147f2565b611c7e565b61038f611d28565b6103a46106ba3660046147f2565b611f5f565b61038f611f6d565b61038f6106d536600461485f565b6120b0565b61038f6106e8366004614915565b612274565b6103c36106fb36600461485f565b6125ae565b61038f61070e3660046147d5565b6125c6565b6103c36107213660046147d5565b6001600160a01b03166000908152610197602052604090205490565b61038f61074b366004614960565b6128ff565b61038f61075e36600461471c565b612a63565b6103c36107713660046148e7565b6001600160a01b03918216600090815260346020908152604080832093909416825291909152205490565b6105ed6107aa36600461485f565b61019a602052600090815260409020546001600160a01b031681565b61019e546103a490610100900460ff1681565b6107e1612a88565b6040516103b091906149d7565b61038f6107fc3660046147d5565b612b9d565b6103c362278d0081565b610813612c06565b61019e54610100900460ff16156108605760405162461bcd60e51b815260206004820152600c60248201526b696e207465726d696e616c2160a01b60448201526064015b60405180910390fd5b61086b338383612c5c565b5050565b60006001600160e01b03198216635a05180f60e01b14806108945750610894826130e9565b92915050565b6060603680546108a990614a30565b80601f01602080910402602001604051908101604052809291908181526020018280546108d590614a30565b80156109225780601f106108f757610100808354040283529160200191610922565b820191906000526020600020905b81548152906001019060200180831161090557829003601f168201915b5050505050905090565b60003361093a81858561311e565b5060019392505050565b600061019e60029054906101000a90046001600160a01b03166001600160a01b0316633a8dd82a6040518163ffffffff1660e01b8152600401602060405180830381865afa15801561099a573d6000803e3d6000fd5b505050506040513d601f19601f820116820180604052508101906109be9190614a65565b905090565b6000336109d1858285613242565b6109dc8585856132ce565b506001949350505050565b600082815260fe6020526040902060010154610a0281613564565b610a0c838361356e565b505050565b60006109be613591565b6001600160a01b0381163314610a995760405162461bcd60e51b815260206004820152602f60248201527f416363657373436f6e74726f6c3a2063616e206f6e6c792072656e6f756e636560448201527f20726f6c657320666f722073656c6600000000000000000000000000000000006064820152608401610857565b61086b828261360c565b3360008181526034602090815260408083206001600160a01b038716845290915281205490919061093a9082908690610add908790614a94565b61311e565b60006109be6101945461362f565b6000610afb81613564565b61019e54610100900460ff16610b535760405162461bcd60e51b815260206004820152601060248201527f6e6f7420696e207465726d696e616c21000000000000000000000000000000006044820152606401610857565b6000610199600061019b61019d5481548110610b7157610b71614aac565b60009182526020808320909101546001600160a01b031683528281019390935260409182018120825160608101845281548152600182015494810194909452600201549183019190915261019b8054929350610199928290610bd557610bd5614aac565b60009182526020808320909101546001600160a01b031683528281019390935260409182018120818155600181018290556002018190558351815261019a909252812080546001600160a01b031916905561019b805461019c9291908290610c3f57610c3f614aac565b60009182526020808320909101546001600160a01b031683528201929092526040018120819055610c739061019b90614650565b61019e805461ff00191690556040514281527f211174b048d805314ec4df2d45c8735f9d1fe669c8117585a74e853b66bc524d9060200160405180910390a15050565b6000610cc181613564565b610cc9613652565b50565b61019f546040516370a0823160e01b815230600482015260009182916001600160a01b03909116906370a0823190602401602060405180830381865afa158015610d1a573d6000803e3d6000fd5b505050506040513d601f19601f82011682018060405250810190610d3e9190614a65565b905060005b61019b54811015610de6576000610199600061019b8481548110610d6957610d69614aac565b60009182526020808320909101546001600160a01b0316835282810193909352604091820190208151606081018352815481526001820154938101849052600290910154918101919091529150610dc09084614a94565b9250806040015183610dd29190614a94565b92505080610ddf90614ac2565b9050610d43565b5061019454610dff90610df985846136a5565b906136e9565b9392505050565b600061089482613728565b6000610e1c81613564565b61019e5460ff1615610e5c5760405162461bcd60e51b8152602060048201526009602482015268697320636c6f73652160b81b6044820152606401610857565b61019b54600114610eaf5760405162461bcd60e51b815260206004820152601960248201527f63616e64696461746573206973206d6f7265207468616e2031000000000000006044820152606401610857565b6000610199600061019b600081548110610ecb57610ecb614aac565b60009182526020808320909101546001600160a01b0316835282810193909352604091820181208251606081018452815481526001828101549582019590955260029091015492810192909252426101965561019e805460ff191690931790925561019b80549193509190610f4257610f42614aac565b6000918252602091829020015482516101965460408051928352938201526001600160a01b03909116917f1e757b7f9e12d98e6039723354e852636180e846c5d6d06f2d336d673f1e5f0891015b60405180910390a25050565b6000610fa781613564565b61019e5460ff1615610fe75760405162461bcd60e51b8152602060048201526009602482015268697320636c6f73652160b81b6044820152606401610857565b6001600160a01b03821661102e5760405162461bcd60e51b815260206004820152600e60248201526d61646472657373206572726f722160901b6044820152606401610857565b6001600160a01b0382166000908152610199602052604090208054156110965760405162461bcd60e51b815260206004820152601260248201527f63616e64696461746520657873697465642100000000000000000000000000006044820152606401610857565b61019f546040516323b872dd60e01b8152336004820181905230602483015268056bc75e2d6310000060448301819052909290916001600160a01b03909116906323b872dd906064016020604051808303816000875af11580156110fe573d6000803e3d6000fd5b505050506040513d601f19601f820116820180604052508101906111229190614add565b5061019e5460405163183077b960e11b81526001600160a01b038781166004830152602482018490526000926201000090041690633060ef72906044016020604051808303816000875af115801561117e573d6000803e3d6000fd5b505050506040513d601f19601f820116820180604052508101906111a29190614a65565b9050818460020160008282546111b89190614a94565b909155505080845561019b80546001810182557f24aeb2cd7b2cf328da485c24efd7197e86108b05bbc525c1db80c96ffdf7e1290180546001600160a01b0389166001600160a01b031991821681179092559154600082815261019c602090815260408083209390935585825261019a90528190208054909316821790925590517fd5b232e8b0b3cae5597d617fedb01eab27bcfa4a0f7491761e81dda85fbaae8f906112689084815260200190565b60405180910390a2610194546112d6576112818261385d565b6001600160a01b03841660009081526101976020526040812080549091906112aa908490614a94565b909155506112b990508261385d565b61019460008282546112cb9190614a94565b909155506113309050565b60006112e183613728565b6001600160a01b0385166000908152610197602052604081208054929350839290919061130f908490614a94565b925050819055508061019460008282546113299190614a94565b9091555050505b6040518281526001600160a01b038416906000907fddf252ad1be2c89b69c2b068fc378daa952ba7f163c4a11628f55a4df523b3ef9060200160405180910390a380836001600160a01b03167f19dacbf83c5de6658e14cbf7bcae5c15eca2eedecf1c66fbca928e4d351bea0f846040516113ad91815260200190565b60405180910390a3505050505050565b60006113c881613564565b61019e5460ff16156114085760405162461bcd60e51b8152602060048201526009602482015268697320636c6f73652160b81b6044820152606401610857565b61019b5460011061144e5760405162461bcd60e51b815260206004820152601060248201526f6f6e6c7920312063616e64696461746560801b6044820152606401610857565b6001600160a01b038216600090815261019c6020526040812054906101998161019b61147b600186614aff565b8154811061148b5761148b614aac565b60009182526020808320909101546001600160a01b031683528201929092526040018120600281015460018201549193506114c591614a94565b82549091508115611892578254600090815261019a6020908152604080832080546001600160a01b03191690556001600160a01b038916835261019982528083208381556001810184905560020183905561019b5461019c909252822054606091111561162b576001600160a01b038816600090815261019c6020819052604082205461019b805491939161155c90600190614aff565b8154811061156c5761156c614aac565b60009182526020808320909101546001600160a01b0316835282019290925260400190205561019b80546115a290600190614aff565b815481106115b2576115b2614aac565b60009182526020808320909101546001600160a01b038b8116845261019c90925260409092205491169061019b906115ec90600190614aff565b815481106115fc576115fc614aac565b9060005260206000200160006101000a8154816001600160a01b0302191690836001600160a01b031602179055505b61019b80548061163d5761163d614b16565b60008281526020808220830160001990810180546001600160a01b03191690559092019092556001600160a01b038a16825261019c9052604081208190555b61019b548110156118325761019b54871015611698578661169b565b60005b96506000610199600061019b8a815481106116b8576116b8614aac565b60009182526020808320909101546001600160a01b039081168452908301939093526040918201902061019e54815492519194506201000090049092169163329eb9d160e11b9161171791899190602401918252602082015260400190565b60408051601f198184030181529181526020820180516001600160e01b03166001600160e01b03199094169390931790925290516117559190614b2c565b6000604051808303816000865af19150503d8060008114611792576040519150601f19603f3d011682016040523d82523d6000602084013e611797565b606091505b509094509250876117a781614ac2565b9850508380156117c65750828060200190518101906117c69190614add565b1561182157858160010160008282546117df9190614a94565b9091555050805487546040518881527fdeb7152c9809e10154676cd02129483d7140d4ff6028322da5f11641145003749060200160405180910390a350611832565b5061182b81614ac2565b905061167c565b5081801561184f57508080602001905181019061184f9190614add565b61188f5760405162461bcd60e51b81526020600482015260116024820152706e6f206473742063616e6469646174652160781b6044820152606401610857565b50505b505050505050565b606061019b80548060200260200160405190810160405280929190818152602001828054801561092257602002820191906000526020600020905b81546001600160a01b031681526001909101906020018083116118d5575050505050905090565b6001600160a01b0381166000908152610197602052604081205461089490610ccc565b600061192a81613564565b506001600160a01b0316600090815261019860205260409020805460ff19811660ff90911615179055565b6001600160a01b038116600090815260996020526040812054610894565b600061197e81613564565b610cc9613878565b600082815261013060205260408120610dff90836138b6565b6060603780546108a990614a30565b60006119b981613564565b61019e5460ff16156119f95760405162461bcd60e51b8152602060048201526009602482015268697320636c6f73652160b81b6044820152606401610857565b6001600160a01b038216611a405760405162461bcd60e51b815260206004820152600e60248201526d61646472657373206572726f722160901b6044820152606401610857565b6001600160a01b0383811660009081526101996020908152604091829020825160608101845281548082526001830154938201939093526002909101548184015261019e5492516304a8292160e41b815260048101929092528584166024830152926201000090920490911690634a82921090604401600060405180830381600087803b158015611ad057600080fd5b505af1158015611ae4573d6000803e3d6000fd5b5050506001600160a01b03808516600081815261019960209081526040808320875180825583890151600180840191909155838a0151600290930192909255845261019a835281842080546001600160a01b031916909517909455938916825261019c905291909120549150849061019b90611b609084614aff565b81548110611b7057611b70614aac565b600091825260208083209190910180546001600160a01b0319166001600160a01b0394851617905586831680835261019c8252604080842086905593891680845284842084905561019983528484208481556001810185905560020193909355925192835290917fce3795db01b63741359a0348738a903225ccd1dce63f8acd66c6db3317285f27910160405180910390a25050505050565b61019e54604051639748bf5b60e01b8152600481018390526000916201000090046001600160a01b031690639748bf5b90602401602060405180830381865afa158015611c5a573d6000803e3d6000fd5b505050506040513d601f19601f820116820180604052508101906108949190614a65565b3360008181526034602090815260408083206001600160a01b038716845290915281205490919083811015611d1b5760405162461bcd60e51b815260206004820152602560248201527f45524332303a2064656372656173656420616c6c6f77616e63652062656c6f7760448201527f207a65726f0000000000000000000000000000000000000000000000000000006064820152608401610857565b6109dc828686840361311e565b6000611d3381613564565b61019e5460ff16611d725760405162461bcd60e51b8152602060048201526009602482015268697320636c6f73652160b81b6044820152606401610857565b61019e54610100900460ff1615611dba5760405162461bcd60e51b815260206004820152600c60248201526b696e207465726d696e616c2160a01b6044820152606401610857565b6000610199600061019b600081548110611dd657611dd6614aac565b60009182526020808320909101546001600160a01b031683528281019390935260409182019020815160608101835281548152600182015493810193909352600201549082015261019654909150611e329062278d0090614a94565b421015611e815760405162461bcd60e51b815260206004820152600f60248201527f434c4f53455f4455524154494f4e2100000000000000000000000000000000006044820152606401610857565b61019e805461010061ff0019909116179081905581516040516377d7f91360e01b81526004810191909152620100009091046001600160a01b0316906377d7f91390602401600060405180830381600087803b158015611ee057600080fd5b505af1158015611ef4573d6000803e3d6000fd5b5050505061019b600081548110611f0d57611f0d614aac565b6000918252602091829020015482516101965460408051928352938201526001600160a01b03909116917f9da301bb415bd639d2a2c4e5d364bd6ea2f179effc5890b3cd39de25a5e79f489101610f90565b60003361093a8185856132ce565b6000611f7881613564565b61019e5460ff1615611fb85760405162461bcd60e51b8152602060048201526009602482015268697320636c6f73652160b81b6044820152606401610857565b61019f546040516370a0823160e01b81523060048201526000916001600160a01b0316906370a0823190602401602060405180830381865afa158015612002573d6000803e3d6000fd5b505050506040513d601f19601f820116820180604052508101906120269190614a65565b9050801561086b57600061203b6000836138c2565b6101958054919250600061204e83614ac2565b909155505061019554600082815261019a60205260409020546001600160a01b0316827f718b31b13d461b57805228117e5ad834c401532de2bea40d37cf85cbea57e1ff61209a610944565b60405190815260200160405180910390a4505050565b6120b8612c06565b61019e5460ff16156120f85760405162461bcd60e51b8152602060048201526009602482015268697320636c6f73652160b81b6044820152606401610857565b6000610194541161214b5760405162461bcd60e51b815260206004820152600f60248201527f746f74616c536861726573203d203000000000000000000000000000000000006044820152606401610857565b33600061215783613728565b6001600160a01b03831660009081526101976020526040812080549293508392909190612185908490614a94565b9250508190555080610194600082825461219f9190614a94565b909155505061019f546040516323b872dd60e01b81526001600160a01b03848116600483015230602483015260448201869052909116906323b872dd906064016020604051808303816000875af11580156121fe573d6000803e3d6000fd5b505050506040513d601f19601f820116820180604052508101906122229190614add565b506040518381526001600160a01b038316906000907fddf252ad1be2c89b69c2b068fc378daa952ba7f163c4a11628f55a4df523b3ef9060200160405180910390a361226e82846138c2565b50505050565b600054610100900460ff16158080156122945750600054600160ff909116105b806122ae5750303b1580156122ae575060005460ff166001145b6123205760405162461bcd60e51b815260206004820152602e60248201527f496e697469616c697a61626c653a20636f6e747261637420697320616c72656160448201527f647920696e697469616c697a65640000000000000000000000000000000000006064820152608401610857565b6000805460ff191660011790558015612343576000805461ff0019166101001790555b6001600160a01b0384166123995760405162461bcd60e51b815260206004820152601460248201527f61646d696e2061646472657373206572726f72210000000000000000000000006044820152606401610857565b6001600160a01b0383166123ef5760405162461bcd60e51b815260206004820152601360248201527f4d5452472061646472657373206572726f7221000000000000000000000000006044820152606401610857565b6001600160a01b0382166124455760405162461bcd60e51b815260206004820152601f60248201527f736372697074456e67696e65416464722061646472657373206572726f7221006044820152606401610857565b6124836040518060400160405280600a81526020017f73744d54524720312e3000000000000000000000000000000000000000000000815250613b0c565b6124f76040518060400160405280600b81526020017f5374616b6564204d5452470000000000000000000000000000000000000000008152506040518060400160405280600681526020017f73744d5452470000000000000000000000000000000000000000000000000000815250613b9a565b6124ff613c0f565b61250a600085613c82565b61019e80547fffffffffffffffffffff0000000000000000000000000000000000000000ffff16620100006001600160a01b03858116919091029190911790915561019f80546001600160a01b031916918516919091179055801561226e576000805461ff0019169055604051600181527f7f26b83ff96e1f2b6a682f133852f6798a09c465da95921460cefb38474024989060200160405180910390a150505050565b60008181526101306020526040812061089490613c8c565b60006125d181613564565b61019e5460ff16156126115760405162461bcd60e51b8152602060048201526009602482015268697320636c6f73652160b81b6044820152606401610857565b61019b546001106126575760405162461bcd60e51b815260206004820152601060248201526f6f6e6c7920312063616e64696461746560801b6044820152606401610857565b6001600160a01b038216600090815261019c6020526040812054906101998161019b612684600186614aff565b8154811061269457612694614aac565b60009182526020808320909101546001600160a01b0316835282019290925260400190206001810154909150806126cc575050505050565b6000600183018190556060815b61019b548110156128995761019b548610156126f557856126f8565b60005b95506000610199600061019b898154811061271557612715614aac565b60009182526020808320909101546001600160a01b039081168452908301939093526040918201902061019e548954825493519295506201000090910490931692630395f3bd60e51b9261277e928a906024019283526020830191909152604082015260600190565b60408051601f198184030181529181526020820180516001600160e01b03166001600160e01b03199094169390931790925290516127bc9190614b2c565b6000604051808303816000865af19150503d80600081146127f9576040519150601f19603f3d011682016040523d82523d6000602084013e6127fe565b606091505b5090945092508661280e81614ac2565b97505083801561282d57508280602001905181019061282d9190614add565b1561288857848160010160008282546128469190614a94565b9091555050805486546040518781527f5ae6812dea9e8b5a7b9396603fc59d25e1e32156abbc2df381707d824cd45dca9060200160405180910390a350612899565b5061289281614ac2565b90506126d9565b508180156128b65750808060200190518101906128b69190614add565b6128f65760405162461bcd60e51b81526020600482015260116024820152706e6f206473742063616e6469646174652160781b6044820152606401610857565b50505050505050565b8342111561294f5760405162461bcd60e51b815260206004820152601d60248201527f45524332305065726d69743a206578706972656420646561646c696e650000006044820152606401610857565b60007f6e71edae12b1b97f4d1f60370fef10105fa2faae0126114a169c64845d6126c988888861297e8c613c96565b6040805160208101969096526001600160a01b0394851690860152929091166060840152608083015260a082015260c0810186905260e00160405160208183030381529060405280519060200120905060006129d982613cbc565b905060006129e982878787613d0a565b9050896001600160a01b0316816001600160a01b031614612a4c5760405162461bcd60e51b815260206004820152601e60248201527f45524332305065726d69743a20696e76616c6964207369676e617475726500006044820152606401610857565b612a578a8a8a61311e565b50505050505050505050565b600082815260fe6020526040902060010154612a7e81613564565b610a0c838361360c565b61019b5460609060008167ffffffffffffffff811115612aaa57612aaa614b48565b604051908082528060200260200182016040528015612af557816020015b6040805160608101825260008082526020808301829052928201528252600019909201910181612ac85790505b50905060005b61019b54811015612b9657610199600061019b8381548110612b1f57612b1f614aac565b60009182526020808320909101546001600160a01b03168352828101939093526040918201902081516060810183528154815260018201549381019390935260020154908201528251839083908110612b7a57612b7a614aac565b602002602001018190525080612b8f90614ac2565b9050612afb565b5092915050565b612ba5612c06565b61019e54610100900460ff1615612bed5760405162461bcd60e51b815260206004820152600c60248201526b696e207465726d696e616c2160a01b6044820152606401610857565b336000612bf9826118fc565b9050610a0c828285612c5c565b6101625460ff1615612c5a5760405162461bcd60e51b815260206004820152601060248201527f5061757361626c653a20706175736564000000000000000000000000000000006044820152606401610857565b565b6000612c6783613728565b6001600160a01b038516600090815261019760205260409020549091508181101580612ca057506402540be400612c9e8284614aff565b105b612cf75760405162461bcd60e51b815260206004820152602260248201527f45524332303a206275726e20616d6f756e7420657863656564732062616c616e604482015261636560f01b6064820152608401610857565b6001600160a01b0385166000908152610198602052604090205460ff1615612d615760405162461bcd60e51b815260206004820152601860248201527f6163636f756e7420697320696e20626c61636b206c69737400000000000000006044820152606401610857565b612d6b8183613d32565b6001600160a01b0386166000908152610197602052604090205561019454612d939083613d32565b610194556040518481526000906001600160a01b038716907fddf252ad1be2c89b69c2b068fc378daa952ba7f163c4a11628f55a4df523b3ef9060200160405180910390a360005b61019b54811015612f9a5761019b5461019d541015612dfd5761019d54612e00565b60005b61019d819055506000610199600061019b61019d5481548110612e2557612e25614aac565b60009182526020808320909101546001600160a01b03168352820192909252604001812060018101549092508710612e7557506001810154612e678188614aff565b600060018401559650612e96565b86905086826001016000828254612e8c9190614aff565b9091555060009750505b61019e548254604051632b0fcbdf60e11b81526004810191909152602481018390526001600160a01b038881166044830152620100009092049091169063561f97be906064016020604051808303816000875af1158015612efb573d6000803e3d6000fd5b505050506040513d601f19601f82011682018060405250810190612f1f9190614a65565b5081546040518281526001600160a01b038a16907fc3ded2be7db21b1af963f267d27750e4a15f174547d88b886b9bda43e2c6fa329060200160405180910390a386612f6c575050612f9a565b600161019d6000828254612f809190614a94565b92505081905550505080612f9390614ac2565b9050612ddb565b5083156130e25761019f546040516370a0823160e01b81523060048201526000916001600160a01b0316906370a0823190602401602060405180830381865afa158015612feb573d6000803e3d6000fd5b505050506040513d601f19601f8201168201806040525081019061300f9190614a65565b61019f549091506001600160a01b031663a9059cbb858784106130325787613034565b835b6040516001600160e01b031960e085901b1681526001600160a01b03909216600483015260248201526044016020604051808303816000875af115801561307f573d6000803e3d6000fd5b505050506040513d601f19601f820116820180604052508101906130a39190614add565b506040518581526000906001600160a01b038816907fc3ded2be7db21b1af963f267d27750e4a15f174547d88b886b9bda43e2c6fa32906020016113ad565b5050505050565b60006001600160e01b03198216637965db0b60e01b148061089457506301ffc9a760e01b6001600160e01b0319831614610894565b6001600160a01b0383166131805760405162461bcd60e51b8152602060048201526024808201527f45524332303a20617070726f76652066726f6d20746865207a65726f206164646044820152637265737360e01b6064820152608401610857565b6001600160a01b0382166131e15760405162461bcd60e51b815260206004820152602260248201527f45524332303a20617070726f766520746f20746865207a65726f206164647265604482015261737360f01b6064820152608401610857565b6001600160a01b0383811660008181526034602090815260408083209487168084529482529182902085905590518481527f8c5be1e5ebec7d5bd14f71427d1e84f3dd0314c0f7b2291e5b200ac8c7c3b925910160405180910390a3505050565b6001600160a01b03838116600090815260346020908152604080832093861683529290522054600019811461226e57818110156132c15760405162461bcd60e51b815260206004820152601d60248201527f45524332303a20696e73756666696369656e7420616c6c6f77616e63650000006044820152606401610857565b61226e848484840361311e565b6001600160a01b03831661334a5760405162461bcd60e51b815260206004820152602560248201527f45524332303a207472616e736665722066726f6d20746865207a65726f20616460448201527f64726573730000000000000000000000000000000000000000000000000000006064820152608401610857565b6001600160a01b0382166133ac5760405162461bcd60e51b815260206004820152602360248201527f45524332303a207472616e7366657220746f20746865207a65726f206164647260448201526265737360e81b6064820152608401610857565b6001600160a01b0383166000908152610198602052604090205460ff161580156133f057506001600160a01b0382166000908152610198602052604090205460ff16155b61343c5760405162461bcd60e51b815260206004820152601f60248201527f45524332303a206163636f756e7420697320696e20626c61636b206c697374006044820152606401610857565b600061344782613728565b6001600160a01b03851660009081526101976020526040902054909150818110158061348057506402540be40061347e8284614aff565b105b6134f25760405162461bcd60e51b815260206004820152602660248201527f45524332303a207472616e7366657220616d6f756e742065786365656473206260448201527f616c616e636500000000000000000000000000000000000000000000000000006064820152608401610857565b6134fc8183613d32565b6001600160a01b038681166000818152610197602090815260408083209590955592881680825290849020805487019055925186815290917fddf252ad1be2c89b69c2b068fc378daa952ba7f163c4a11628f55a4df523b3ef910160405180910390a36130e2565b610cc98133613d71565b6135788282613de6565b600082815261013060205260409020610a0c9082613e88565b60006109be7f8b73c3c69bb8fe3d512ecc4cf759cc79239f7b179b0ffacaa9a75d522b39400f6135c060655490565b6066546040805160208101859052908101839052606081018290524660808201523060a082015260009060c0016040516020818303038152906040528051906020012090509392505050565b6136168282613e9d565b600082815261013060205260409020610a0c9082613f20565b633b9aca00808204908206631dcd6500811061364c576001820191505b50919050565b61365a613f35565b610162805460ff191690557f5db9ee0a495bf2e6ff9c91a7834c1ba4fdd244a5e8aa4e537bd38aeae4b073aa335b6040516001600160a01b03909116815260200160405180910390a1565b600081156b019d971e4fe8401e7400000019839004841115176136c757600080fd5b506b033b2e3c9fd0803ce800000091026b019d971e4fe8401e74000000010490565b600081156b033b2e3c9fd0803ce80000006002840419048411171561370d57600080fd5b506b033b2e3c9fd0803ce80000009190910260028204010490565b61019f546040516370a0823160e01b815230600482015260009182916001600160a01b03909116906370a0823190602401602060405180830381865afa158015613776573d6000803e3d6000fd5b505050506040513d601f19601f8201168201806040525081019061379a9190614a65565b905060005b61019b54811015613842576000610199600061019b84815481106137c5576137c5614aac565b60009182526020808320909101546001600160a01b031683528281019390935260409182019020815160608101835281548152600182015493810184905260029091015491810191909152915061381c9084614a94565b925080604001518361382e9190614a94565b9250508061383b90614ac2565b905061379f565b50610dff81610df961019454866136a590919063ffffffff16565b633b9aca00818102908104821461387357600080fd5b919050565b613880612c06565b610162805460ff191660011790557f62e78cea01bee320cd4e420270b5ea74000d11b0c9f74754ebdbfc544b05a2586136883390565b6000610dff8383613f88565b600080606060005b61019b54811015613aa75761019b5461019d5410156138ec5761019d546138ef565b60005b61019d819055506000610199600061019b61019d548154811061391457613914614aac565b60009182526020808320909101546001600160a01b039081168452908301939093526040918201902061019e548154925191945062010000900490921691626de11b60e61b91613971918a90602401918252602082015260400190565b60408051601f198184030181529181526020820180516001600160e01b03166001600160e01b03199094169390931790925290516139af9190614b2c565b6000604051808303816000865af19150503d80600081146139ec576040519150601f19603f3d011682016040523d82523d6000602084013e6139f1565b606091505b508094508195505050600161019d6000828254613a0e9190614a94565b909155508490508015613a30575082806020019051810190613a309190614add565b15613a965785816001016000828254613a499190614a94565b909155505080546040518781526001600160a01b038916907f19dacbf83c5de6658e14cbf7bcae5c15eca2eedecf1c66fbca928e4d351bea0f9060200160405180910390a3549350613aa7565b50613aa081614ac2565b90506138ca565b50818015613ac4575080806020019051810190613ac49190614add565b613b045760405162461bcd60e51b81526020600482015260116024820152706e6f206473742063616e6469646174652160781b6044820152606401610857565b505092915050565b600054610100900460ff16613b775760405162461bcd60e51b815260206004820152602b60248201527f496e697469616c697a61626c653a20636f6e7472616374206973206e6f74206960448201526a6e697469616c697a696e6760a81b6064820152608401610857565b610cc981604051806040016040528060018152602001603160f81b815250613fb2565b600054610100900460ff16613c055760405162461bcd60e51b815260206004820152602b60248201527f496e697469616c697a61626c653a20636f6e7472616374206973206e6f74206960448201526a6e697469616c697a696e6760a81b6064820152608401610857565b61086b8282614037565b600054610100900460ff16613c7a5760405162461bcd60e51b815260206004820152602b60248201527f496e697469616c697a61626c653a20636f6e7472616374206973206e6f74206960448201526a6e697469616c697a696e6760a81b6064820152608401610857565b612c5a6140c9565b61086b828261356e565b6000610894825490565b6001600160a01b038116600090815260996020526040902080546001810182559061364c565b6000610894613cc9613591565b8360405161190160f01b6020820152602281018390526042810182905260009060620160405160208183030381529060405280519060200120905092915050565b6000806000613d1b87878787614141565b91509150613d2881614205565b5095945050505050565b6000818310613d4c57613d458284614aff565b9050610894565b6000613d588484614aff565b90506402540be400811015610377576000915050610894565b600082815260fe602090815260408083206001600160a01b038516845290915290205460ff1661086b57613da481614353565b613daf836020614365565b604051602001613dc0929190614b5e565b60408051601f198184030181529082905262461bcd60e51b8252610857916004016147a2565b600082815260fe602090815260408083206001600160a01b038516845290915290205460ff1661086b57600082815260fe602090815260408083206001600160a01b03851684529091529020805460ff19166001179055613e443390565b6001600160a01b0316816001600160a01b0316837f2f8788117e7eff1d82e926ec794901d17c78024a50270940304540a733656f0d60405160405180910390a45050565b6000610dff836001600160a01b03841661450e565b600082815260fe602090815260408083206001600160a01b038516845290915290205460ff161561086b57600082815260fe602090815260408083206001600160a01b0385168085529252808320805460ff1916905551339285917ff6391f5c32d9c69d2a47ea670b442974b53935d1edc7fd64eb21e047a839171b9190a45050565b6000610dff836001600160a01b03841661455d565b6101625460ff16612c5a5760405162461bcd60e51b815260206004820152601460248201527f5061757361626c653a206e6f74207061757365640000000000000000000000006044820152606401610857565b6000826000018281548110613f9f57613f9f614aac565b9060005260206000200154905092915050565b600054610100900460ff1661401d5760405162461bcd60e51b815260206004820152602b60248201527f496e697469616c697a61626c653a20636f6e7472616374206973206e6f74206960448201526a6e697469616c697a696e6760a81b6064820152608401610857565b815160209283012081519190920120606591909155606655565b600054610100900460ff166140a25760405162461bcd60e51b815260206004820152602b60248201527f496e697469616c697a61626c653a20636f6e7472616374206973206e6f74206960448201526a6e697469616c697a696e6760a81b6064820152608401610857565b81516140b590603690602085019061466e565b508051610a0c90603790602084019061466e565b600054610100900460ff166141345760405162461bcd60e51b815260206004820152602b60248201527f496e697469616c697a61626c653a20636f6e7472616374206973206e6f74206960448201526a6e697469616c697a696e6760a81b6064820152608401610857565b610162805460ff19169055565b6000807f7fffffffffffffffffffffffffffffff5d576e7357a4501ddfe92f46681b20a083111561417857506000905060036141fc565b6040805160008082526020820180845289905260ff881692820192909252606081018690526080810185905260019060a0016020604051602081039080840390855afa1580156141cc573d6000803e3d6000fd5b5050604051601f1901519150506001600160a01b0381166141f5576000600192509250506141fc565b9150600090505b94509492505050565b600081600481111561421957614219614bdf565b14156142225750565b600181600481111561423657614236614bdf565b14156142845760405162461bcd60e51b815260206004820152601860248201527f45434453413a20696e76616c6964207369676e617475726500000000000000006044820152606401610857565b600281600481111561429857614298614bdf565b14156142e65760405162461bcd60e51b815260206004820152601f60248201527f45434453413a20696e76616c6964207369676e6174757265206c656e677468006044820152606401610857565b60038160048111156142fa576142fa614bdf565b1415610cc95760405162461bcd60e51b815260206004820152602260248201527f45434453413a20696e76616c6964207369676e6174757265202773272076616c604482015261756560f01b6064820152608401610857565b60606108946001600160a01b03831660145b60606000614374836002614bf5565b61437f906002614a94565b67ffffffffffffffff81111561439757614397614b48565b6040519080825280601f01601f1916602001820160405280156143c1576020820181803683370190505b509050600360fc1b816000815181106143dc576143dc614aac565b60200101906001600160f81b031916908160001a905350600f60fb1b8160018151811061440b5761440b614aac565b60200101906001600160f81b031916908160001a905350600061442f846002614bf5565b61443a906001614a94565b90505b60018111156144bf577f303132333435363738396162636465660000000000000000000000000000000085600f166010811061447b5761447b614aac565b1a60f81b82828151811061449157614491614aac565b60200101906001600160f81b031916908160001a90535060049490941c936144b881614c14565b905061443d565b508315610dff5760405162461bcd60e51b815260206004820181905260248201527f537472696e67733a20686578206c656e67746820696e73756666696369656e746044820152606401610857565b600081815260018301602052604081205461455557508154600181810184556000848152602080822090930184905584548482528286019093526040902091909155610894565b506000610894565b60008181526001830160205260408120548015614646576000614581600183614aff565b855490915060009061459590600190614aff565b90508181146145fa5760008660000182815481106145b5576145b5614aac565b90600052602060002001549050808760000184815481106145d8576145d8614aac565b6000918252602080832090910192909255918252600188019052604090208390555b855486908061460b5761460b614b16565b600190038181906000526020600020016000905590558560010160008681526020019081526020016000206000905560019350505050610894565b6000915050610894565b5080546000825590600052602060002090810190610cc991906146f2565b82805461467a90614a30565b90600052602060002090601f01602090048101928261469c57600085556146e2565b82601f106146b557805160ff19168380011785556146e2565b828001600101855582156146e2579182015b828111156146e25782518255916020019190600101906146c7565b506146ee9291506146f2565b5090565b5b808211156146ee57600081556001016146f3565b6001600160a01b0381168114610cc957600080fd5b6000806040838503121561472f57600080fd5b82359150602083013561474181614707565b809150509250929050565b60006020828403121561475e57600080fd5b81356001600160e01b031981168114610dff57600080fd5b60005b83811015614791578181015183820152602001614779565b8381111561226e5750506000910152565b60208152600082518060208401526147c1816040850160208701614776565b601f01601f19169190910160400192915050565b6000602082840312156147e757600080fd5b8135610dff81614707565b6000806040838503121561480557600080fd5b823561481081614707565b946020939093013593505050565b60008060006060848603121561483357600080fd5b833561483e81614707565b9250602084013561484e81614707565b929592945050506040919091013590565b60006020828403121561487157600080fd5b5035919050565b6020808252825182820181905260009190848201906040850190845b818110156148b95783516001600160a01b031683529284019291840191600101614894565b50909695505050505050565b600080604083850312156148d857600080fd5b50508035926020909101359150565b600080604083850312156148fa57600080fd5b823561490581614707565b9150602083013561474181614707565b60008060006060848603121561492a57600080fd5b833561493581614707565b9250602084013561494581614707565b9150604084013561495581614707565b809150509250925092565b600080600080600080600060e0888a03121561497b57600080fd5b873561498681614707565b9650602088013561499681614707565b95506040880135945060608801359350608088013560ff811681146149ba57600080fd5b9699959850939692959460a0840135945060c09093013592915050565b602080825282518282018190526000919060409081850190868401855b82811015614a2357815180518552868101518786015285015185850152606090930192908501906001016149f4565b5091979650505050505050565b600181811c90821680614a4457607f821691505b6020821081141561364c57634e487b7160e01b600052602260045260246000fd5b600060208284031215614a7757600080fd5b5051919050565b634e487b7160e01b600052601160045260246000fd5b60008219821115614aa757614aa7614a7e565b500190565b634e487b7160e01b600052603260045260246000fd5b6000600019821415614ad657614ad6614a7e565b5060010190565b600060208284031215614aef57600080fd5b81518015158114610dff57600080fd5b600082821015614b1157614b11614a7e565b500390565b634e487b7160e01b600052603160045260246000fd5b60008251614b3e818460208701614776565b9190910192915050565b634e487b7160e01b600052604160045260246000fd5b7f416363657373436f6e74726f6c3a206163636f756e7420000000000000000000815260008351614b96816017850160208801614776565b7f206973206d697373696e6720726f6c65200000000000000000000000000000006017918401918201528351614bd3816028840160208801614776565b01602801949350505050565b634e487b7160e01b600052602160045260246000fd5b6000816000190483118215151615614c0f57614c0f614a7e565b500290565b600081614c2357614c23614a7e565b50600019019056fea264697066735822122013e48e1c9abe178423c915f18585e66122d6db69826c6fe16b645a3fb2d2cce664736f6c634300080b0033",
  "linkReferences": {},
  "deployedLinkReferences": {}
}