{
  "_format": "hh-sol-artifact-1",
  "contractName": "StMTRG",
  "sourceName": "contracts/StMTRG.sol",
  "abi": [
    {
      "anonymous": false,
      "inputs": [
        {
          "indexed": true,
          "internalType": "address",
          "name": "owner",
          "type": "address"
        },
        {
          "indexed": true,
          "internalType": "address",
          "name": "spender",
          "type": "address"
        },
        {
          "indexed": false,
          "internalType": "uint256",
          "name": "value",
          "type": "uint256"
        }
      ],
      "name": "Approval",
      "type": "event"
    },
    {
      "anonymous": false,
      "inputs": [
        {
          "indexed": true,
          "internalType": "address",
          "name": "account",
          "type": "address"
        },
        {
          "indexed": true,
          "internalType": "bytes32",
          "name": "bucketID",
          "type": "bytes32"
        },
        {
          "indexed": false,
          "internalType": "uint256",
          "name": "amount",
          "type": "uint256"
        }
      ],
      "name": "Deposit",
      "type": "event"
    },
    {
      "anonymous": false,
      "inputs": [
        {
          "indexed": true,
          "internalType": "address",
          "name": "candidate",
          "type": "address"
        },
        {
          "indexed": false,
          "internalType": "bytes32",
          "name": "bucketID",
          "type": "bytes32"
        },
        {
          "indexed": false,
          "internalType": "uint256",
          "name": "timestamp",
          "type": "uint256"
        }
      ],
      "name": "ExecuteClost",
      "type": "event"
    },
    {
      "anonymous": false,
      "inputs": [
        {
          "indexed": false,
          "internalType": "uint8",
          "name": "version",
          "type": "uint8"
        }
      ],
      "name": "Initialized",
      "type": "event"
    },
    {
      "anonymous": false,
      "inputs": [
        {
          "indexed": true,
          "internalType": "bytes32",
          "name": "bucketID",
          "type": "bytes32"
        },
        {
          "indexed": true,
          "internalType": "address",
          "name": "candidate",
          "type": "address"
        },
        {
          "indexed": true,
          "internalType": "uint256",
          "name": "epoch",
          "type": "uint256"
        },
        {
          "indexed": false,
          "internalType": "uint256",
          "name": "totalSupply",
          "type": "uint256"
        }
      ],
      "name": "LogRebase",
      "type": "event"
    },
    {
      "anonymous": false,
      "inputs": [
        {
          "indexed": true,
          "internalType": "bytes32",
          "name": "oldBucketID",
          "type": "bytes32"
        },
        {
          "indexed": true,
          "internalType": "bytes32",
          "name": "newBucketID",
          "type": "bytes32"
        },
        {
          "indexed": false,
          "internalType": "uint256",
          "name": "totalDeposit",
          "type": "uint256"
        },
        {
          "indexed": false,
          "internalType": "uint256",
          "name": "locked",
          "type": "uint256"
        }
      ],
      "name": "Merge",
      "type": "event"
    },
    {
      "anonymous": false,
      "inputs": [
        {
          "indexed": true,
          "internalType": "address",
          "name": "candidate",
          "type": "address"
        },
        {
          "indexed": false,
          "internalType": "bytes32",
          "name": "bucketID",
          "type": "bytes32"
        }
      ],
      "name": "NewCandidate",
      "type": "event"
    },
    {
      "anonymous": false,
      "inputs": [
        {
          "indexed": false,
          "internalType": "address",
          "name": "account",
          "type": "address"
        }
      ],
      "name": "Paused",
      "type": "event"
    },
    {
      "anonymous": false,
      "inputs": [
        {
          "indexed": true,
          "internalType": "address",
          "name": "candidate",
          "type": "address"
        },
        {
          "indexed": false,
          "internalType": "bytes32",
          "name": "bucketID",
          "type": "bytes32"
        },
        {
          "indexed": false,
          "internalType": "uint256",
          "name": "timestamp",
          "type": "uint256"
        }
      ],
      "name": "RequestClost",
      "type": "event"
    },
    {
      "anonymous": false,
      "inputs": [
        {
          "indexed": true,
          "internalType": "bytes32",
          "name": "role",
          "type": "bytes32"
        },
        {
          "indexed": true,
          "internalType": "bytes32",
          "name": "previousAdminRole",
          "type": "bytes32"
        },
        {
          "indexed": true,
          "internalType": "bytes32",
          "name": "newAdminRole",
          "type": "bytes32"
        }
      ],
      "name": "RoleAdminChanged",
      "type": "event"
    },
    {
      "anonymous": false,
      "inputs": [
        {
          "indexed": true,
          "internalType": "bytes32",
          "name": "role",
          "type": "bytes32"
        },
        {
          "indexed": true,
          "internalType": "address",
          "name": "account",
          "type": "address"
        },
        {
          "indexed": true,
          "internalType": "address",
          "name": "sender",
          "type": "address"
        }
      ],
      "name": "RoleGranted",
      "type": "event"
    },
    {
      "anonymous": false,
      "inputs": [
        {
          "indexed": true,
          "internalType": "bytes32",
          "name": "role",
          "type": "bytes32"
        },
        {
          "indexed": true,
          "internalType": "address",
          "name": "account",
          "type": "address"
        },
        {
          "indexed": true,
          "internalType": "address",
          "name": "sender",
          "type": "address"
        }
      ],
      "name": "RoleRevoked",
      "type": "event"
    },
    {
      "anonymous": false,
      "inputs": [
        {
          "indexed": false,
          "internalType": "uint256",
          "name": "timestamp",
          "type": "uint256"
        }
      ],
      "name": "TerminalClost",
      "type": "event"
    },
    {
      "anonymous": false,
      "inputs": [
        {
          "indexed": true,
          "internalType": "address",
          "name": "from",
          "type": "address"
        },
        {
          "indexed": true,
          "internalType": "address",
          "name": "to",
          "type": "address"
        },
        {
          "indexed": false,
          "internalType": "uint256",
          "name": "value",
          "type": "uint256"
        }
      ],
      "name": "Transfer",
      "type": "event"
    },
    {
      "anonymous": false,
      "inputs": [
        {
          "indexed": true,
          "internalType": "bytes32",
          "name": "oldBucketID",
          "type": "bytes32"
        },
        {
          "indexed": true,
          "internalType": "bytes32",
          "name": "newBucketID",
          "type": "bytes32"
        },
        {
          "indexed": false,
          "internalType": "uint256",
          "name": "amount",
          "type": "uint256"
        }
      ],
      "name": "TransferFund",
      "type": "event"
    },
    {
      "anonymous": false,
      "inputs": [
        {
          "indexed": false,
          "internalType": "address",
          "name": "account",
          "type": "address"
        }
      ],
      "name": "Unpaused",
      "type": "event"
    },
    {
      "anonymous": false,
      "inputs": [
        {
          "indexed": true,
          "internalType": "address",
          "name": "oldCandidate",
          "type": "address"
        },
        {
          "indexed": false,
          "internalType": "address",
          "name": "newCandidate",
          "type": "address"
        }
      ],
      "name": "UpdateCandidate",
      "type": "event"
    },
    {
      "anonymous": false,
      "inputs": [
        {
          "indexed": true,
          "internalType": "address",
          "name": "account",
          "type": "address"
        },
        {
          "indexed": true,
          "internalType": "bytes32",
          "name": "bucketID",
          "type": "bytes32"
        },
        {
          "indexed": false,
          "internalType": "uint256",
          "name": "amount",
          "type": "uint256"
        }
      ],
      "name": "Withdraw",
      "type": "event"
    },
    {
      "inputs": [],
      "name": "CLOSE_DURATION",
      "outputs": [
        {
          "internalType": "uint256",
          "name": "",
          "type": "uint256"
        }
      ],
      "stateMutability": "view",
      "type": "function"
    },
    {
      "inputs": [],
      "name": "DEFAULT_ADMIN_ROLE",
      "outputs": [
        {
          "internalType": "bytes32",
          "name": "",
          "type": "bytes32"
        }
      ],
      "stateMutability": "view",
      "type": "function"
    },
    {
      "inputs": [],
      "name": "DOMAIN_SEPARATOR",
      "outputs": [
        {
          "internalType": "bytes32",
          "name": "",
          "type": "bytes32"
        }
      ],
      "stateMutability": "view",
      "type": "function"
    },
    {
      "inputs": [],
      "name": "MTRG",
      "outputs": [
        {
          "internalType": "contract IERC20Upgradeable",
          "name": "",
          "type": "address"
        }
      ],
      "stateMutability": "view",
      "type": "function"
    },
    {
      "inputs": [],
      "name": "allBuckets",
      "outputs": [
        {
          "components": [
            {
              "internalType": "bytes32",
              "name": "bucketID",
              "type": "bytes32"
            },
            {
              "internalType": "uint256",
              "name": "totalDeposit",
              "type": "uint256"
            },
            {
              "internalType": "uint256",
              "name": "locked",
              "type": "uint256"
            }
          ],
          "internalType": "struct StMTRG.Bucket[]",
          "name": "",
          "type": "tuple[]"
        }
      ],
      "stateMutability": "view",
      "type": "function"
    },
    {
      "inputs": [
        {
          "internalType": "address",
          "name": "owner",
          "type": "address"
        },
        {
          "internalType": "address",
          "name": "spender",
          "type": "address"
        }
      ],
      "name": "allowance",
      "outputs": [
        {
          "internalType": "uint256",
          "name": "",
          "type": "uint256"
        }
      ],
      "stateMutability": "view",
      "type": "function"
    },
    {
      "inputs": [
        {
          "internalType": "address",
          "name": "spender",
          "type": "address"
        },
        {
          "internalType": "uint256",
          "name": "amount",
          "type": "uint256"
        }
      ],
      "name": "approve",
      "outputs": [
        {
          "internalType": "bool",
          "name": "",
          "type": "bool"
        }
      ],
      "stateMutability": "nonpayable",
      "type": "function"
    },
    {
      "inputs": [
        {
          "internalType": "address",
          "name": "account",
          "type": "address"
        }
      ],
      "name": "balanceOf",
      "outputs": [
        {
          "internalType": "uint256",
          "name": "",
          "type": "uint256"
        }
      ],
      "stateMutability": "view",
      "type": "function"
    },
    {
      "inputs": [
        {
          "internalType": "bytes32",
          "name": "",
          "type": "bytes32"
        }
      ],
      "name": "bucketIDToCandidate",
      "outputs": [
        {
          "internalType": "address",
          "name": "",
          "type": "address"
        }
      ],
      "stateMutability": "view",
      "type": "function"
    },
    {
      "inputs": [
        {
          "internalType": "bytes32",
          "name": "bucketID",
          "type": "bytes32"
        }
      ],
      "name": "bucketValue",
      "outputs": [
        {
          "internalType": "uint256",
          "name": "",
          "type": "uint256"
        }
      ],
      "stateMutability": "view",
      "type": "function"
    },
    {
      "inputs": [
        {
          "internalType": "address",
          "name": "",
          "type": "address"
        }
      ],
      "name": "candidateIndex",
      "outputs": [
        {
          "internalType": "uint256",
          "name": "",
          "type": "uint256"
        }
      ],
      "stateMutability": "view",
      "type": "function"
    },
    {
      "inputs": [
        {
          "internalType": "address",
          "name": "",
          "type": "address"
        }
      ],
      "name": "candidateToBucket",
      "outputs": [
        {
          "internalType": "bytes32",
          "name": "bucketID",
          "type": "bytes32"
        },
        {
          "internalType": "uint256",
          "name": "totalDeposit",
          "type": "uint256"
        },
        {
          "internalType": "uint256",
          "name": "locked",
          "type": "uint256"
        }
      ],
      "stateMutability": "view",
      "type": "function"
    },
    {
      "inputs": [],
      "name": "candidates",
      "outputs": [
        {
          "internalType": "address[]",
          "name": "",
          "type": "address[]"
        }
      ],
      "stateMutability": "view",
      "type": "function"
    },
    {
      "inputs": [],
      "name": "closeTerminal",
      "outputs": [],
      "stateMutability": "nonpayable",
      "type": "function"
    },
    {
      "inputs": [],
      "name": "closeTimestamp",
      "outputs": [
        {
          "internalType": "uint256",
          "name": "",
          "type": "uint256"
        }
      ],
      "stateMutability": "view",
      "type": "function"
    },
    {
      "inputs": [],
      "name": "currentIndex",
      "outputs": [
        {
          "internalType": "uint256",
          "name": "",
          "type": "uint256"
        }
      ],
      "stateMutability": "view",
      "type": "function"
    },
    {
      "inputs": [],
      "name": "decimals",
      "outputs": [
        {
          "internalType": "uint8",
          "name": "",
          "type": "uint8"
        }
      ],
      "stateMutability": "view",
      "type": "function"
    },
    {
      "inputs": [
        {
          "internalType": "address",
          "name": "spender",
          "type": "address"
        },
        {
          "internalType": "uint256",
          "name": "subtractedValue",
          "type": "uint256"
        }
      ],
      "name": "decreaseAllowance",
      "outputs": [
        {
          "internalType": "bool",
          "name": "",
          "type": "bool"
        }
      ],
      "stateMutability": "nonpayable",
      "type": "function"
    },
    {
      "inputs": [
        {
          "internalType": "address",
          "name": "candidate",
          "type": "address"
        }
      ],
      "name": "deleteBucket",
      "outputs": [],
      "stateMutability": "nonpayable",
      "type": "function"
    },
    {
      "inputs": [
        {
          "internalType": "uint256",
          "name": "amount",
          "type": "uint256"
        }
      ],
      "name": "deposit",
      "outputs": [],
      "stateMutability": "nonpayable",
      "type": "function"
    },
    {
      "inputs": [],
      "name": "epoch",
      "outputs": [
        {
          "internalType": "uint256",
          "name": "",
          "type": "uint256"
        }
      ],
      "stateMutability": "view",
      "type": "function"
    },
    {
      "inputs": [],
      "name": "executeClose",
      "outputs": [],
      "stateMutability": "nonpayable",
      "type": "function"
    },
    {
      "inputs": [
        {
          "internalType": "bytes32",
          "name": "role",
          "type": "bytes32"
        }
      ],
      "name": "getRoleAdmin",
      "outputs": [
        {
          "internalType": "bytes32",
          "name": "",
          "type": "bytes32"
        }
      ],
      "stateMutability": "view",
      "type": "function"
    },
    {
      "inputs": [
        {
          "internalType": "bytes32",
          "name": "role",
          "type": "bytes32"
        },
        {
          "internalType": "uint256",
          "name": "index",
          "type": "uint256"
        }
      ],
      "name": "getRoleMember",
      "outputs": [
        {
          "internalType": "address",
          "name": "",
          "type": "address"
        }
      ],
      "stateMutability": "view",
      "type": "function"
    },
    {
      "inputs": [
        {
          "internalType": "bytes32",
          "name": "role",
          "type": "bytes32"
        }
      ],
      "name": "getRoleMemberCount",
      "outputs": [
        {
          "internalType": "uint256",
          "name": "",
          "type": "uint256"
        }
      ],
      "stateMutability": "view",
      "type": "function"
    },
    {
      "inputs": [
        {
          "internalType": "bytes32",
          "name": "role",
          "type": "bytes32"
        },
        {
          "internalType": "address",
          "name": "account",
          "type": "address"
        }
      ],
      "name": "grantRole",
      "outputs": [],
      "stateMutability": "nonpayable",
      "type": "function"
    },
    {
      "inputs": [
        {
          "internalType": "bytes32",
          "name": "role",
          "type": "bytes32"
        },
        {
          "internalType": "address",
          "name": "account",
          "type": "address"
        }
      ],
      "name": "hasRole",
      "outputs": [
        {
          "internalType": "bool",
          "name": "",
          "type": "bool"
        }
      ],
      "stateMutability": "view",
      "type": "function"
    },
    {
      "inputs": [],
      "name": "inTerminal",
      "outputs": [
        {
          "internalType": "bool",
          "name": "",
          "type": "bool"
        }
      ],
      "stateMutability": "view",
      "type": "function"
    },
    {
      "inputs": [
        {
          "internalType": "address",
          "name": "spender",
          "type": "address"
        },
        {
          "internalType": "uint256",
          "name": "addedValue",
          "type": "uint256"
        }
      ],
      "name": "increaseAllowance",
      "outputs": [
        {
          "internalType": "bool",
          "name": "",
          "type": "bool"
        }
      ],
      "stateMutability": "nonpayable",
      "type": "function"
    },
    {
      "inputs": [
        {
          "internalType": "address",
          "name": "admin",
          "type": "address"
        },
        {
          "internalType": "contract IERC20Upgradeable",
          "name": "_MTRG",
          "type": "address"
        },
        {
          "internalType": "address",
          "name": "scriptEngineAddr",
          "type": "address"
        }
      ],
      "name": "initialize",
      "outputs": [],
      "stateMutability": "nonpayable",
      "type": "function"
    },
    {
      "inputs": [],
      "name": "isClose",
      "outputs": [
        {
          "internalType": "bool",
          "name": "",
          "type": "bool"
        }
      ],
      "stateMutability": "view",
      "type": "function"
    },
    {
      "inputs": [],
      "name": "name",
      "outputs": [
        {
          "internalType": "string",
          "name": "",
          "type": "string"
        }
      ],
      "stateMutability": "view",
      "type": "function"
    },
    {
      "inputs": [
        {
          "internalType": "address",
          "name": "candidate",
          "type": "address"
        }
      ],
      "name": "newCandidate",
      "outputs": [],
      "stateMutability": "nonpayable",
      "type": "function"
    },
    {
      "inputs": [
        {
          "internalType": "address",
          "name": "owner",
          "type": "address"
        }
      ],
      "name": "nonces",
      "outputs": [
        {
          "internalType": "uint256",
          "name": "",
          "type": "uint256"
        }
      ],
      "stateMutability": "view",
      "type": "function"
    },
    {
      "inputs": [],
      "name": "pause",
      "outputs": [],
      "stateMutability": "nonpayable",
      "type": "function"
    },
    {
      "inputs": [],
      "name": "paused",
      "outputs": [
        {
          "internalType": "bool",
          "name": "",
          "type": "bool"
        }
      ],
      "stateMutability": "view",
      "type": "function"
    },
    {
      "inputs": [
        {
          "internalType": "address",
          "name": "owner",
          "type": "address"
        },
        {
          "internalType": "address",
          "name": "spender",
          "type": "address"
        },
        {
          "internalType": "uint256",
          "name": "value",
          "type": "uint256"
        },
        {
          "internalType": "uint256",
          "name": "deadline",
          "type": "uint256"
        },
        {
          "internalType": "uint8",
          "name": "v",
          "type": "uint8"
        },
        {
          "internalType": "bytes32",
          "name": "r",
          "type": "bytes32"
        },
        {
          "internalType": "bytes32",
          "name": "s",
          "type": "bytes32"
        }
      ],
      "name": "permit",
      "outputs": [],
      "stateMutability": "nonpayable",
      "type": "function"
    },
    {
      "inputs": [],
      "name": "rebase",
      "outputs": [],
      "stateMutability": "nonpayable",
      "type": "function"
    },
    {
      "inputs": [
        {
          "internalType": "bytes32",
          "name": "role",
          "type": "bytes32"
        },
        {
          "internalType": "address",
          "name": "account",
          "type": "address"
        }
      ],
      "name": "renounceRole",
      "outputs": [],
      "stateMutability": "nonpayable",
      "type": "function"
    },
    {
      "inputs": [],
      "name": "requestClose",
      "outputs": [],
      "stateMutability": "nonpayable",
      "type": "function"
    },
    {
      "inputs": [
        {
          "internalType": "bytes32",
          "name": "role",
          "type": "bytes32"
        },
        {
          "internalType": "address",
          "name": "account",
          "type": "address"
        }
      ],
      "name": "revokeRole",
      "outputs": [],
      "stateMutability": "nonpayable",
      "type": "function"
    },
    {
      "inputs": [
        {
          "internalType": "address",
          "name": "account",
          "type": "address"
        }
      ],
      "name": "setBlackList",
      "outputs": [],
      "stateMutability": "nonpayable",
      "type": "function"
    },
    {
      "inputs": [
        {
          "internalType": "uint256",
          "name": "_share",
          "type": "uint256"
        }
      ],
      "name": "shareToValue",
      "outputs": [
        {
          "internalType": "uint256",
          "name": "",
          "type": "uint256"
        }
      ],
      "stateMutability": "view",
      "type": "function"
    },
    {
      "inputs": [
        {
          "internalType": "address",
          "name": "account",
          "type": "address"
        }
      ],
      "name": "shares",
      "outputs": [
        {
          "internalType": "uint256",
          "name": "",
          "type": "uint256"
        }
      ],
      "stateMutability": "view",
      "type": "function"
    },
    {
      "inputs": [
        {
          "internalType": "bytes4",
          "name": "interfaceId",
          "type": "bytes4"
        }
      ],
      "name": "supportsInterface",
      "outputs": [
        {
          "internalType": "bool",
          "name": "",
          "type": "bool"
        }
      ],
      "stateMutability": "view",
      "type": "function"
    },
    {
      "inputs": [],
      "name": "symbol",
      "outputs": [
        {
          "internalType": "string",
          "name": "",
          "type": "string"
        }
      ],
      "stateMutability": "view",
      "type": "function"
    },
    {
      "inputs": [],
      "name": "totalShares",
      "outputs": [
        {
          "internalType": "uint256",
          "name": "",
          "type": "uint256"
        }
      ],
      "stateMutability": "view",
      "type": "function"
    },
    {
      "inputs": [],
      "name": "totalSupply",
      "outputs": [
        {
          "internalType": "uint256",
          "name": "",
          "type": "uint256"
        }
      ],
      "stateMutability": "view",
      "type": "function"
    },
    {
      "inputs": [
        {
          "internalType": "address",
          "name": "to",
          "type": "address"
        },
        {
          "internalType": "uint256",
          "name": "amount",
          "type": "uint256"
        }
      ],
      "name": "transfer",
      "outputs": [
        {
          "internalType": "bool",
          "name": "",
          "type": "bool"
        }
      ],
      "stateMutability": "nonpayable",
      "type": "function"
    },
    {
      "inputs": [
        {
          "internalType": "address",
          "name": "from",
          "type": "address"
        },
        {
          "internalType": "address",
          "name": "to",
          "type": "address"
        },
        {
          "internalType": "uint256",
          "name": "amount",
          "type": "uint256"
        }
      ],
      "name": "transferFrom",
      "outputs": [
        {
          "internalType": "bool",
          "name": "",
          "type": "bool"
        }
      ],
      "stateMutability": "nonpayable",
      "type": "function"
    },
    {
      "inputs": [
        {
          "internalType": "address",
          "name": "candidate",
          "type": "address"
        }
      ],
      "name": "transferFund",
      "outputs": [],
      "stateMutability": "nonpayable",
      "type": "function"
    },
    {
      "inputs": [],
      "name": "unpause",
      "outputs": [],
      "stateMutability": "nonpayable",
      "type": "function"
    },
    {
      "inputs": [
        {
          "internalType": "uint256",
          "name": "_value",
          "type": "uint256"
        }
      ],
      "name": "valueToShare",
      "outputs": [
        {
          "internalType": "uint256",
          "name": "",
          "type": "uint256"
        }
      ],
      "stateMutability": "view",
      "type": "function"
    },
    {
      "inputs": [
        {
          "internalType": "uint256",
          "name": "amount",
          "type": "uint256"
        },
        {
          "internalType": "address",
          "name": "recipient",
          "type": "address"
        }
      ],
      "name": "withdraw",
      "outputs": [],
      "stateMutability": "nonpayable",
      "type": "function"
    },
    {
      "inputs": [
        {
          "internalType": "address",
          "name": "recipient",
          "type": "address"
        }
      ],
      "name": "withdrawAll",
      "outputs": [],
      "stateMutability": "nonpayable",
      "type": "function"
    }
  ],
  "bytecode": "0x608060405260006101945534801561001657600080fd5b50614a54806100266000396000f3fe608060405234801561001057600080fd5b506004361061036c5760003560e01c806370a08231116101d3578063af14052c11610104578063d547741f116100a2578063f5e130af1161007c578063f5e130af146107a9578063f9776bcb146107bc578063fa09e630146107d1578063fdb4fb0e146107e457600080fd5b8063d547741f14610733578063dd62ed3e14610746578063e461a47d1461077f57600080fd5b8063ca15c873116100de578063ca15c873146106d0578063cd4558fd146106e3578063ce7c2ac2146106f6578063d505accf1461072057600080fd5b8063af14052c146106a2578063b6b55f25146106aa578063c0c53b8b146106bd57600080fd5b806391d1485411610171578063a217fddf1161014b578063a217fddf1461066c578063a457c2d714610674578063a6536e7514610687578063a9059cbb1461068f57600080fd5b806391d148541461061857806395d89b41146106515780639748bf5b1461065957600080fd5b80638456cb59116101ad5780638456cb59146105c757806388b0e2a4146105cf578063900cf0cf146105fb5780639010d07c1461060557600080fd5b806370a082311461058e57806372700241146105a15780637ecebe00146105b457600080fd5b8063313ce567116102ad578063441130d51161024b5780635c975abb116102255780635c975abb146105475780635dc4a4661461055357806361e3fb69146105665780636f0470aa1461057957600080fd5b8063441130d5146105195780634b64fcd11461052c578063577262ab1461053f57600080fd5b8063395093511161028757806339509351146104ed5780633a98ef39146105005780633e17087d146105095780633f4ba83a1461051157600080fd5b8063313ce567146104c35780633644e515146104d257806336568abe146104da57600080fd5b80631338f4931161031a57806323b872dd116102f457806323b872dd14610470578063248a9ca31461048357806326987b60146104a65780632f2ff15d146104b057600080fd5b80631338f4931461043957806318160ddd1461044757806322735da81461044f57600080fd5b806306fdde031161034b57806306fdde03146103c6578063087bf506146103db578063095ea7b31461042657600080fd5b8062f714ce1461037157806301ffc9a714610386578063052d7c00146103ae575b600080fd5b61038461037f3660046144da565b6107ee565b005b61039961039436600461450a565b610852565b60405190151581526020015b60405180910390f35b6103b86101965481565b6040519081526020016103a5565b6103ce61087d565b6040516103a59190614560565b61040b6103e9366004614593565b6101996020526000908152604090208054600182015460029092015490919083565b604080519384526020840192909252908201526060016103a5565b6103996104343660046145b0565b61090f565b61019e546103999060ff1681565b6103b8610927565b6103b861045d366004614593565b61019c6020526000908152604090205481565b61039961047e3660046145dc565b6109a6565b6103b861049136600461461d565b600090815260fe602052604090206001015490565b6103b861019d5481565b6103846104be3660046144da565b6109ca565b604051601281526020016103a5565b6103b86109f4565b6103846104e83660046144da565b6109fe565b6103996104fb3660046145b0565b610a86565b610194546103b8565b610384610ac5565b610384610c8b565b6103b861052736600461461d565b610ca1565b6103b861053a36600461461d565b610ddb565b610384610de6565b6101625460ff16610399565b610384610561366004614593565b610f71565b610384610574366004614593565b6113a0565b6105816118a2565b6040516103a59190614636565b6103b861059c366004614593565b611904565b6103846105af366004614593565b611927565b6103b86105c2366004614593565b61195d565b61038461197b565b61019f546105e3906001600160a01b031681565b6040516001600160a01b0390911681526020016103a5565b6103b86101955481565b6105e3610613366004614683565b61198e565b6103996106263660046144da565b600091825260fe602090815260408084206001600160a01b0393909316845291905290205460ff1690565b6103ce6119a7565b6103b861066736600461461d565b6119b6565b6103b8600081565b6103996106823660046145b0565b611a2b565b610384611ad5565b61039961069d3660046145b0565b611d0c565b610384611d1a565b6103846106b836600461461d565b611e5d565b6103846106cb3660046146a5565b612021565b6103b86106de36600461461d565b61235b565b6103846106f1366004614593565b612373565b6103b8610704366004614593565b6001600160a01b03166000908152610197602052604090205490565b61038461072e3660046146f0565b6126a3565b6103846107413660046144da565b612807565b6103b8610754366004614767565b6001600160a01b03918216600090815260346020908152604080832093909416825291909152205490565b6105e361078d36600461461d565b61019a602052600090815260409020546001600160a01b031681565b61019e5461039990610100900460ff1681565b6107c461282c565b6040516103a59190614795565b6103846107df366004614593565b612941565b6103b862278d0081565b6107f66129aa565b61019e54610100900460ff16156108435760405162461bcd60e51b815260206004820152600c60248201526b696e207465726d696e616c2160a01b60448201526064015b60405180910390fd5b61084e338383612a00565b5050565b60006001600160e01b03198216635a05180f60e01b1480610877575061087782612ec8565b92915050565b60606036805461088c906147ee565b80601f01602080910402602001604051908101604052809291908181526020018280546108b8906147ee565b80156109055780601f106108da57610100808354040283529160200191610905565b820191906000526020600020905b8154815290600101906020018083116108e857829003601f168201915b5050505050905090565b60003361091d818585612efd565b5060019392505050565b600061019e60029054906101000a90046001600160a01b03166001600160a01b0316633a8dd82a6040518163ffffffff1660e01b8152600401602060405180830381865afa15801561097d573d6000803e3d6000fd5b505050506040513d601f19601f820116820180604052508101906109a19190614823565b905090565b6000336109b4858285613021565b6109bf8585856130ad565b506001949350505050565b600082815260fe60205260409020600101546109e581613343565b6109ef838361334d565b505050565b60006109a1613370565b6001600160a01b0381163314610a7c5760405162461bcd60e51b815260206004820152602f60248201527f416363657373436f6e74726f6c3a2063616e206f6e6c792072656e6f756e636560448201527f20726f6c657320666f722073656c660000000000000000000000000000000000606482015260840161083a565b61084e82826133eb565b3360008181526034602090815260408083206001600160a01b038716845290915281205490919061091d9082908690610ac0908790614852565b612efd565b6000610ad081613343565b61019e54610100900460ff16610b285760405162461bcd60e51b815260206004820152601060248201527f6e6f7420696e207465726d696e616c2100000000000000000000000000000000604482015260640161083a565b6000610199600061019b61019d5481548110610b4657610b4661486a565b60009182526020808320909101546001600160a01b031683528281019390935260409182018120825160608101845281548152600182015494810194909452600201549183019190915261019b8054929350610199928290610baa57610baa61486a565b60009182526020808320909101546001600160a01b031683528281019390935260409182018120818155600181018290556002018190558351815261019a909252812080546001600160a01b031916905561019b805461019c9291908290610c1457610c1461486a565b60009182526020808320909101546001600160a01b031683528201929092526040018120819055610c489061019b9061440e565b61019e805461ff00191690556040514281527f211174b048d805314ec4df2d45c8735f9d1fe669c8117585a74e853b66bc524d9060200160405180910390a15050565b6000610c9681613343565b610c9e61340e565b50565b61019f546040516370a0823160e01b815230600482015260009182916001600160a01b03909116906370a0823190602401602060405180830381865afa158015610cef573d6000803e3d6000fd5b505050506040513d601f19601f82011682018060405250810190610d139190614823565b905060005b61019b54811015610dbb576000610199600061019b8481548110610d3e57610d3e61486a565b60009182526020808320909101546001600160a01b0316835282810193909352604091820190208151606081018352815481526001820154938101849052600290910154918101919091529150610d959084614852565b9250806040015183610da79190614852565b92505080610db490614880565b9050610d18565b5061019454610dd490610dce8584613461565b906134a5565b9392505050565b6000610877826134e4565b6000610df181613343565b61019e5460ff1615610e315760405162461bcd60e51b8152602060048201526009602482015268697320636c6f73652160b81b604482015260640161083a565b61019b54600114610e845760405162461bcd60e51b815260206004820152601960248201527f63616e64696461746573206973206d6f7265207468616e203100000000000000604482015260640161083a565b6000610199600061019b600081548110610ea057610ea061486a565b60009182526020808320909101546001600160a01b0316835282810193909352604091820181208251606081018452815481526001828101549582019590955260029091015492810192909252426101965561019e805460ff191690931790925561019b80549193509190610f1757610f1761486a565b6000918252602091829020015482516101965460408051928352938201526001600160a01b03909116917f1e757b7f9e12d98e6039723354e852636180e846c5d6d06f2d336d673f1e5f0891015b60405180910390a25050565b6000610f7c81613343565b61019e5460ff1615610fbc5760405162461bcd60e51b8152602060048201526009602482015268697320636c6f73652160b81b604482015260640161083a565b6001600160a01b0382166110125760405162461bcd60e51b815260206004820152600e60248201527f61646472657373206572726f7221000000000000000000000000000000000000604482015260640161083a565b6001600160a01b03821660009081526101996020526040902080541561107a5760405162461bcd60e51b815260206004820152601260248201527f63616e6469646174652065787369746564210000000000000000000000000000604482015260640161083a565b61019454339068056bc75e2d63100000906110ed5761109881613619565b6001600160a01b03831660009081526101976020526040812080549091906110c1908490614852565b909155506110d0905081613619565b61019460008282546110e29190614852565b909155506111479050565b60006110f8826134e4565b6001600160a01b03841660009081526101976020526040812080549293508392909190611126908490614852565b925050819055508061019460008282546111409190614852565b9091555050505b61019f546040516323b872dd60e01b81526001600160a01b03848116600483015230602483015260448201849052909116906323b872dd906064016020604051808303816000875af11580156111a1573d6000803e3d6000fd5b505050506040513d601f19601f820116820180604052508101906111c591906148ab565b5061019e5460405163183077b960e11b81526001600160a01b038781166004830152602482018490526000926201000090041690633060ef729060440160408051808303816000875af1158015611220573d6000803e3d6000fd5b505050506040513d601f19601f8201168201806040525081019061124491906148c6565b5090508184600201600082825461125b9190614852565b909155505080845561019b80546001810182557f24aeb2cd7b2cf328da485c24efd7197e86108b05bbc525c1db80c96ffdf7e1290180546001600160a01b0389166001600160a01b031991821681179092559154600082815261019c602090815260408083209390935585825261019a90528190208054909316821790925590517fd5b232e8b0b3cae5597d617fedb01eab27bcfa4a0f7491761e81dda85fbaae8f9061130b9084815260200190565b60405180910390a26040518281526001600160a01b038416906000907fddf252ad1be2c89b69c2b068fc378daa952ba7f163c4a11628f55a4df523b3ef9060200160405180910390a380836001600160a01b03167f19dacbf83c5de6658e14cbf7bcae5c15eca2eedecf1c66fbca928e4d351bea0f8460405161139091815260200190565b60405180910390a3505050505050565b60006113ab81613343565b61019e5460ff16156113eb5760405162461bcd60e51b8152602060048201526009602482015268697320636c6f73652160b81b604482015260640161083a565b61019b546001106114315760405162461bcd60e51b815260206004820152601060248201526f6f6e6c7920312063616e64696461746560801b604482015260640161083a565b6001600160a01b038216600090815261019c6020526040812054906101998161019b61145e6001866148f2565b8154811061146e5761146e61486a565b60009182526020808320909101546001600160a01b03168352820192909252604001812060018101546002820154825492945090929091906114b08385614852565b1115611899578354600090815261019a6020908152604080832080546001600160a01b03191690556001600160a01b038a16835261019982528083208381556001810184905560020183905561019b5461019c9092528220546060911115611611576001600160a01b038916600090815261019c6020819052604082205461019b8054919391611542906001906148f2565b815481106115525761155261486a565b60009182526020808320909101546001600160a01b0316835282019290925260400190205561019b8054611588906001906148f2565b815481106115985761159861486a565b60009182526020808320909101546001600160a01b038c8116845261019c90925260409092205491169061019b906115d2906001906148f2565b815481106115e2576115e261486a565b9060005260206000200160006101000a8154816001600160a01b0302191690836001600160a01b031602179055505b61019b80548061162357611623614909565b60008281526020808220830160001990810180546001600160a01b03191690559092019092556001600160a01b038b16825261019c9052604081208190555b61019b548110156118395761019b5488101561167e5787611681565b60005b97506000610199600061019b8b8154811061169e5761169e61486a565b60009182526020808320909101546001600160a01b039081168452908301939093526040918201902061019e54815492519194506201000090049092169163329eb9d160e11b916116fd91899190602401918252602082015260400190565b60408051601f198184030181529181526020820180516001600160e01b03166001600160e01b031990941693909317909252905161173b919061491f565b6000604051808303816000865af19150503d8060008114611778576040519150601f19603f3d011682016040523d82523d6000602084013e61177d565b606091505b5090945092508861178d81614880565b9950508380156117ac5750828060200190518101906117ac91906148ab565b1561182857868160010160008282546117c59190614852565b92505081905550858160020160008282546117e09190614852565b90915550508054604080518981526020810189905287917f0848e0ca2442e527298209047e5313c99fbb1533d635e6eb8d4f658c907924bf910160405180910390a350611839565b5061183281614880565b9050611662565b5081801561185657508080602001905181019061185691906148ab565b6118965760405162461bcd60e51b81526020600482015260116024820152706e6f206473742063616e6469646174652160781b604482015260640161083a565b50505b50505050505050565b606061019b80548060200260200160405190810160405280929190818152602001828054801561090557602002820191906000526020600020905b81546001600160a01b031681526001909101906020018083116118dd575050505050905090565b6001600160a01b0381166000908152610197602052604081205461087790610ca1565b600061193281613343565b506001600160a01b0316600090815261019860205260409020805460ff19811660ff90911615179055565b6001600160a01b038116600090815260996020526040812054610877565b600061198681613343565b610c9e613634565b600082815261013060205260408120610dd49083613672565b60606037805461088c906147ee565b61019e54604051639748bf5b60e01b8152600481018390526000916201000090046001600160a01b031690639748bf5b90602401602060405180830381865afa158015611a07573d6000803e3d6000fd5b505050506040513d601f19601f820116820180604052508101906108779190614823565b3360008181526034602090815260408083206001600160a01b038716845290915281205490919083811015611ac85760405162461bcd60e51b815260206004820152602560248201527f45524332303a2064656372656173656420616c6c6f77616e63652062656c6f7760448201527f207a65726f000000000000000000000000000000000000000000000000000000606482015260840161083a565b6109bf8286868403612efd565b6000611ae081613343565b61019e5460ff16611b1f5760405162461bcd60e51b8152602060048201526009602482015268697320636c6f73652160b81b604482015260640161083a565b61019e54610100900460ff1615611b675760405162461bcd60e51b815260206004820152600c60248201526b696e207465726d696e616c2160a01b604482015260640161083a565b6000610199600061019b600081548110611b8357611b8361486a565b60009182526020808320909101546001600160a01b031683528281019390935260409182019020815160608101835281548152600182015493810193909352600201549082015261019654909150611bdf9062278d0090614852565b421015611c2e5760405162461bcd60e51b815260206004820152600f60248201527f434c4f53455f4455524154494f4e210000000000000000000000000000000000604482015260640161083a565b61019e805461010061ff0019909116179081905581516040516377d7f91360e01b81526004810191909152620100009091046001600160a01b0316906377d7f91390602401600060405180830381600087803b158015611c8d57600080fd5b505af1158015611ca1573d6000803e3d6000fd5b5050505061019b600081548110611cba57611cba61486a565b6000918252602091829020015482516101965460408051928352938201526001600160a01b03909116917f9da301bb415bd639d2a2c4e5d364bd6ea2f179effc5890b3cd39de25a5e79f489101610f65565b60003361091d8185856130ad565b6000611d2581613343565b61019e5460ff1615611d655760405162461bcd60e51b8152602060048201526009602482015268697320636c6f73652160b81b604482015260640161083a565b61019f546040516370a0823160e01b81523060048201526000916001600160a01b0316906370a0823190602401602060405180830381865afa158015611daf573d6000803e3d6000fd5b505050506040513d601f19601f82011682018060405250810190611dd39190614823565b9050801561084e576000611de860008361367e565b61019580549192506000611dfb83614880565b909155505061019554600082815261019a60205260409020546001600160a01b0316827f718b31b13d461b57805228117e5ad834c401532de2bea40d37cf85cbea57e1ff611e47610927565b60405190815260200160405180910390a4505050565b611e656129aa565b61019e5460ff1615611ea55760405162461bcd60e51b8152602060048201526009602482015268697320636c6f73652160b81b604482015260640161083a565b60006101945411611ef85760405162461bcd60e51b815260206004820152600f60248201527f746f74616c536861726573203d20300000000000000000000000000000000000604482015260640161083a565b336000611f04836134e4565b6001600160a01b03831660009081526101976020526040812080549293508392909190611f32908490614852565b92505081905550806101946000828254611f4c9190614852565b909155505061019f546040516323b872dd60e01b81526001600160a01b03848116600483015230602483015260448201869052909116906323b872dd906064016020604051808303816000875af1158015611fab573d6000803e3d6000fd5b505050506040513d601f19601f82011682018060405250810190611fcf91906148ab565b506040518381526001600160a01b038316906000907fddf252ad1be2c89b69c2b068fc378daa952ba7f163c4a11628f55a4df523b3ef9060200160405180910390a361201b828461367e565b50505050565b600054610100900460ff16158080156120415750600054600160ff909116105b8061205b5750303b15801561205b575060005460ff166001145b6120cd5760405162461bcd60e51b815260206004820152602e60248201527f496e697469616c697a61626c653a20636f6e747261637420697320616c72656160448201527f647920696e697469616c697a6564000000000000000000000000000000000000606482015260840161083a565b6000805460ff1916600117905580156120f0576000805461ff0019166101001790555b6001600160a01b0384166121465760405162461bcd60e51b815260206004820152601460248201527f61646d696e2061646472657373206572726f7221000000000000000000000000604482015260640161083a565b6001600160a01b03831661219c5760405162461bcd60e51b815260206004820152601360248201527f4d5452472061646472657373206572726f722100000000000000000000000000604482015260640161083a565b6001600160a01b0382166121f25760405162461bcd60e51b815260206004820152601f60248201527f736372697074456e67696e65416464722061646472657373206572726f722100604482015260640161083a565b6122306040518060400160405280600a81526020017f73744d54524720312e30000000000000000000000000000000000000000000008152506138c8565b6122a46040518060400160405280600b81526020017f5374616b6564204d5452470000000000000000000000000000000000000000008152506040518060400160405280600681526020017f73744d5452470000000000000000000000000000000000000000000000000000815250613956565b6122ac6139cb565b6122b7600085613a3e565b61019e80547fffffffffffffffffffff0000000000000000000000000000000000000000ffff16620100006001600160a01b03858116919091029190911790915561019f80546001600160a01b031916918516919091179055801561201b576000805461ff0019169055604051600181527f7f26b83ff96e1f2b6a682f133852f6798a09c465da95921460cefb38474024989060200160405180910390a150505050565b60008181526101306020526040812061087790613a48565b600061237e81613343565b61019e5460ff16156123be5760405162461bcd60e51b8152602060048201526009602482015268697320636c6f73652160b81b604482015260640161083a565b61019b546001106124045760405162461bcd60e51b815260206004820152601060248201526f6f6e6c7920312063616e64696461746560801b604482015260640161083a565b6001600160a01b038216600090815261019c6020526040812054906101998161019b6124316001866148f2565b815481106124415761244161486a565b60009182526020808320909101546001600160a01b031683528201929092526040019020600181015490915080612479575050505050565b6000600183018190556060815b61019b548110156126465761019b548610156124a257856124a5565b60005b95506000610199600061019b89815481106124c2576124c261486a565b60009182526020808320909101546001600160a01b039081168452908301939093526040918201902061019e548954825493519295506201000090910490931692630395f3bd60e51b9261252b928a906024019283526020830191909152604082015260600190565b60408051601f198184030181529181526020820180516001600160e01b03166001600160e01b0319909416939093179092529051612569919061491f565b6000604051808303816000865af19150503d80600081146125a6576040519150601f19603f3d011682016040523d82523d6000602084013e6125ab565b606091505b509094509250866125bb81614880565b9750508380156125da5750828060200190518101906125da91906148ab565b1561263557848160010160008282546125f39190614852565b9091555050805486546040518781527f5ae6812dea9e8b5a7b9396603fc59d25e1e32156abbc2df381707d824cd45dca9060200160405180910390a350612646565b5061263f81614880565b9050612486565b5081801561266357508080602001905181019061266391906148ab565b6118995760405162461bcd60e51b81526020600482015260116024820152706e6f206473742063616e6469646174652160781b604482015260640161083a565b834211156126f35760405162461bcd60e51b815260206004820152601d60248201527f45524332305065726d69743a206578706972656420646561646c696e65000000604482015260640161083a565b60007f6e71edae12b1b97f4d1f60370fef10105fa2faae0126114a169c64845d6126c98888886127228c613a52565b6040805160208101969096526001600160a01b0394851690860152929091166060840152608083015260a082015260c0810186905260e001604051602081830303815290604052805190602001209050600061277d82613a7a565b9050600061278d82878787613ac8565b9050896001600160a01b0316816001600160a01b0316146127f05760405162461bcd60e51b815260206004820152601e60248201527f45524332305065726d69743a20696e76616c6964207369676e61747572650000604482015260640161083a565b6127fb8a8a8a612efd565b50505050505050505050565b600082815260fe602052604090206001015461282281613343565b6109ef83836133eb565b61019b5460609060008167ffffffffffffffff81111561284e5761284e61493b565b60405190808252806020026020018201604052801561289957816020015b604080516060810182526000808252602080830182905292820152825260001990920191018161286c5790505b50905060005b61019b5481101561293a57610199600061019b83815481106128c3576128c361486a565b60009182526020808320909101546001600160a01b0316835282810193909352604091820190208151606081018352815481526001820154938101939093526002015490820152825183908390811061291e5761291e61486a565b60200260200101819052508061293390614880565b905061289f565b5092915050565b6129496129aa565b61019e54610100900460ff16156129915760405162461bcd60e51b815260206004820152600c60248201526b696e207465726d696e616c2160a01b604482015260640161083a565b33600061299d82611904565b90506109ef828285612a00565b6101625460ff16156129fe5760405162461bcd60e51b815260206004820152601060248201527f5061757361626c653a2070617573656400000000000000000000000000000000604482015260640161083a565b565b6000612a0b836134e4565b6001600160a01b038516600090815261019760205260409020549091508181101580612a4457506402540be400612a4282846148f2565b105b612a9b5760405162461bcd60e51b815260206004820152602260248201527f45524332303a206275726e20616d6f756e7420657863656564732062616c616e604482015261636560f01b606482015260840161083a565b6001600160a01b0385166000908152610198602052604090205460ff1615612b055760405162461bcd60e51b815260206004820152601860248201527f6163636f756e7420697320696e20626c61636b206c6973740000000000000000604482015260640161083a565b612b0f8183613af0565b6001600160a01b0386166000908152610197602052604090205561019454612b379083613af0565b610194556040518481526000906001600160a01b038716907fddf252ad1be2c89b69c2b068fc378daa952ba7f163c4a11628f55a4df523b3ef9060200160405180910390a360005b61019b54811015612d435761019b5461019d541015612ba15761019d54612ba4565b60005b61019d819055506000610199600061019b61019d5481548110612bc957612bc961486a565b60009182526020808320909101546001600160a01b03168352820192909252604001812060018101549092508710612c1957506001810154612c0b81886148f2565b600060018401559650612c3a565b86905086826001016000828254612c3091906148f2565b9091555060009750505b8015612d0b5761019e548254604051632b0fcbdf60e11b81526004810191909152602481018390526001600160a01b038881166044830152620100009092049091169063561f97be906064016020604051808303816000875af1158015612ca5573d6000803e3d6000fd5b505050506040513d601f19601f82011682018060405250810190612cc99190614823565b5081546040518281526001600160a01b038a16907fc3ded2be7db21b1af963f267d27750e4a15f174547d88b886b9bda43e2c6fa329060200160405180910390a35b600161019d6000828254612d1f9190614852565b909155505086612d30575050612d43565b505080612d3c90614880565b9050612b7f565b508315612ec15761019f546040516370a0823160e01b81523060048201526000916001600160a01b0316906370a0823190602401602060405180830381865afa158015612d94573d6000803e3d6000fd5b505050506040513d601f19601f82011682018060405250810190612db89190614823565b905084811015612e0a5760405162461bcd60e51b815260206004820152601460248201527f496e73756666696369656e742062616c616e6365000000000000000000000000604482015260640161083a565b61019f5460405163a9059cbb60e01b81526001600160a01b038681166004830152602482018890529091169063a9059cbb906044016020604051808303816000875af1158015612e5e573d6000803e3d6000fd5b505050506040513d601f19601f82011682018060405250810190612e8291906148ab565b506040518581526000906001600160a01b038816907fc3ded2be7db21b1af963f267d27750e4a15f174547d88b886b9bda43e2c6fa3290602001611390565b5050505050565b60006001600160e01b03198216637965db0b60e01b148061087757506301ffc9a760e01b6001600160e01b0319831614610877565b6001600160a01b038316612f5f5760405162461bcd60e51b8152602060048201526024808201527f45524332303a20617070726f76652066726f6d20746865207a65726f206164646044820152637265737360e01b606482015260840161083a565b6001600160a01b038216612fc05760405162461bcd60e51b815260206004820152602260248201527f45524332303a20617070726f766520746f20746865207a65726f206164647265604482015261737360f01b606482015260840161083a565b6001600160a01b0383811660008181526034602090815260408083209487168084529482529182902085905590518481527f8c5be1e5ebec7d5bd14f71427d1e84f3dd0314c0f7b2291e5b200ac8c7c3b925910160405180910390a3505050565b6001600160a01b03838116600090815260346020908152604080832093861683529290522054600019811461201b57818110156130a05760405162461bcd60e51b815260206004820152601d60248201527f45524332303a20696e73756666696369656e7420616c6c6f77616e6365000000604482015260640161083a565b61201b8484848403612efd565b6001600160a01b0383166131295760405162461bcd60e51b815260206004820152602560248201527f45524332303a207472616e736665722066726f6d20746865207a65726f20616460448201527f6472657373000000000000000000000000000000000000000000000000000000606482015260840161083a565b6001600160a01b03821661318b5760405162461bcd60e51b815260206004820152602360248201527f45524332303a207472616e7366657220746f20746865207a65726f206164647260448201526265737360e81b606482015260840161083a565b6001600160a01b0383166000908152610198602052604090205460ff161580156131cf57506001600160a01b0382166000908152610198602052604090205460ff16155b61321b5760405162461bcd60e51b815260206004820152601f60248201527f45524332303a206163636f756e7420697320696e20626c61636b206c69737400604482015260640161083a565b6000613226826134e4565b6001600160a01b03851660009081526101976020526040902054909150818110158061325f57506402540be40061325d82846148f2565b105b6132d15760405162461bcd60e51b815260206004820152602660248201527f45524332303a207472616e7366657220616d6f756e742065786365656473206260448201527f616c616e63650000000000000000000000000000000000000000000000000000606482015260840161083a565b6132db8183613af0565b6001600160a01b038681166000818152610197602090815260408083209590955592881680825290849020805487019055925186815290917fddf252ad1be2c89b69c2b068fc378daa952ba7f163c4a11628f55a4df523b3ef910160405180910390a3612ec1565b610c9e8133613b2f565b6133578282613ba4565b6000828152610130602052604090206109ef9082613c46565b60006109a17f8b73c3c69bb8fe3d512ecc4cf759cc79239f7b179b0ffacaa9a75d522b39400f61339f60655490565b6066546040805160208101859052908101839052606081018290524660808201523060a082015260009060c0016040516020818303038152906040528051906020012090509392505050565b6133f58282613c5b565b6000828152610130602052604090206109ef9082613cde565b613416613cf3565b610162805460ff191690557f5db9ee0a495bf2e6ff9c91a7834c1ba4fdd244a5e8aa4e537bd38aeae4b073aa335b6040516001600160a01b03909116815260200160405180910390a1565b600081156b019d971e4fe8401e74000000198390048411151761348357600080fd5b506b033b2e3c9fd0803ce800000091026b019d971e4fe8401e74000000010490565b600081156b033b2e3c9fd0803ce8000000600284041904841117156134c957600080fd5b506b033b2e3c9fd0803ce80000009190910260028204010490565b61019f546040516370a0823160e01b815230600482015260009182916001600160a01b03909116906370a0823190602401602060405180830381865afa158015613532573d6000803e3d6000fd5b505050506040513d601f19601f820116820180604052508101906135569190614823565b905060005b61019b548110156135fe576000610199600061019b84815481106135815761358161486a565b60009182526020808320909101546001600160a01b03168352828101939093526040918201902081516060810183528154815260018201549381018490526002909101549181019190915291506135d89084614852565b92508060400151836135ea9190614852565b925050806135f790614880565b905061355b565b50610dd481610dce610194548661346190919063ffffffff16565b633b9aca00818102908104821461362f57600080fd5b919050565b61363c6129aa565b610162805460ff191660011790557f62e78cea01bee320cd4e420270b5ea74000d11b0c9f74754ebdbfc544b05a2586134443390565b6000610dd48383613d46565b600080606060005b61019b548110156138635761019b5461019d5410156136a85761019d546136ab565b60005b61019d819055506000610199600061019b61019d54815481106136d0576136d061486a565b60009182526020808320909101546001600160a01b039081168452908301939093526040918201902061019e548154925191945062010000900490921691626de11b60e61b9161372d918a90602401918252602082015260400190565b60408051601f198184030181529181526020820180516001600160e01b03166001600160e01b031990941693909317909252905161376b919061491f565b6000604051808303816000865af19150503d80600081146137a8576040519150601f19603f3d011682016040523d82523d6000602084013e6137ad565b606091505b508094508195505050600161019d60008282546137ca9190614852565b9091555084905080156137ec5750828060200190518101906137ec91906148ab565b1561385257858160010160008282546138059190614852565b909155505080546040518781526001600160a01b038916907f19dacbf83c5de6658e14cbf7bcae5c15eca2eedecf1c66fbca928e4d351bea0f9060200160405180910390a3549350613863565b5061385c81614880565b9050613686565b5081801561388057508080602001905181019061388091906148ab565b6138c05760405162461bcd60e51b81526020600482015260116024820152706e6f206473742063616e6469646174652160781b604482015260640161083a565b505092915050565b600054610100900460ff166139335760405162461bcd60e51b815260206004820152602b60248201527f496e697469616c697a61626c653a20636f6e7472616374206973206e6f74206960448201526a6e697469616c697a696e6760a81b606482015260840161083a565b610c9e81604051806040016040528060018152602001603160f81b815250613d70565b600054610100900460ff166139c15760405162461bcd60e51b815260206004820152602b60248201527f496e697469616c697a61626c653a20636f6e7472616374206973206e6f74206960448201526a6e697469616c697a696e6760a81b606482015260840161083a565b61084e8282613df5565b600054610100900460ff16613a365760405162461bcd60e51b815260206004820152602b60248201527f496e697469616c697a61626c653a20636f6e7472616374206973206e6f74206960448201526a6e697469616c697a696e6760a81b606482015260840161083a565b6129fe613e87565b61084e828261334d565b6000610877825490565b6001600160a01b03811660009081526099602052604090208054600181018255905b50919050565b6000610877613a87613370565b8360405161190160f01b6020820152602281018390526042810182905260009060620160405160208183030381529060405280519060200120905092915050565b6000806000613ad987878787613eff565b91509150613ae681613fc3565b5095945050505050565b6000818310613b0a57613b0382846148f2565b9050610877565b6000613b1684846148f2565b90506402540be40081101561036c576000915050610877565b600082815260fe602090815260408083206001600160a01b038516845290915290205460ff1661084e57613b6281614111565b613b6d836020614123565b604051602001613b7e929190614951565b60408051601f198184030181529082905262461bcd60e51b825261083a91600401614560565b600082815260fe602090815260408083206001600160a01b038516845290915290205460ff1661084e57600082815260fe602090815260408083206001600160a01b03851684529091529020805460ff19166001179055613c023390565b6001600160a01b0316816001600160a01b0316837f2f8788117e7eff1d82e926ec794901d17c78024a50270940304540a733656f0d60405160405180910390a45050565b6000610dd4836001600160a01b0384166142cc565b600082815260fe602090815260408083206001600160a01b038516845290915290205460ff161561084e57600082815260fe602090815260408083206001600160a01b0385168085529252808320805460ff1916905551339285917ff6391f5c32d9c69d2a47ea670b442974b53935d1edc7fd64eb21e047a839171b9190a45050565b6000610dd4836001600160a01b03841661431b565b6101625460ff166129fe5760405162461bcd60e51b815260206004820152601460248201527f5061757361626c653a206e6f7420706175736564000000000000000000000000604482015260640161083a565b6000826000018281548110613d5d57613d5d61486a565b9060005260206000200154905092915050565b600054610100900460ff16613ddb5760405162461bcd60e51b815260206004820152602b60248201527f496e697469616c697a61626c653a20636f6e7472616374206973206e6f74206960448201526a6e697469616c697a696e6760a81b606482015260840161083a565b815160209283012081519190920120606591909155606655565b600054610100900460ff16613e605760405162461bcd60e51b815260206004820152602b60248201527f496e697469616c697a61626c653a20636f6e7472616374206973206e6f74206960448201526a6e697469616c697a696e6760a81b606482015260840161083a565b8151613e7390603690602085019061442c565b5080516109ef90603790602084019061442c565b600054610100900460ff16613ef25760405162461bcd60e51b815260206004820152602b60248201527f496e697469616c697a61626c653a20636f6e7472616374206973206e6f74206960448201526a6e697469616c697a696e6760a81b606482015260840161083a565b610162805460ff19169055565b6000807f7fffffffffffffffffffffffffffffff5d576e7357a4501ddfe92f46681b20a0831115613f365750600090506003613fba565b6040805160008082526020820180845289905260ff881692820192909252606081018690526080810185905260019060a0016020604051602081039080840390855afa158015613f8a573d6000803e3d6000fd5b5050604051601f1901519150506001600160a01b038116613fb357600060019250925050613fba565b9150600090505b94509492505050565b6000816004811115613fd757613fd76149d2565b1415613fe05750565b6001816004811115613ff457613ff46149d2565b14156140425760405162461bcd60e51b815260206004820152601860248201527f45434453413a20696e76616c6964207369676e61747572650000000000000000604482015260640161083a565b6002816004811115614056576140566149d2565b14156140a45760405162461bcd60e51b815260206004820152601f60248201527f45434453413a20696e76616c6964207369676e6174757265206c656e67746800604482015260640161083a565b60038160048111156140b8576140b86149d2565b1415610c9e5760405162461bcd60e51b815260206004820152602260248201527f45434453413a20696e76616c6964207369676e6174757265202773272076616c604482015261756560f01b606482015260840161083a565b60606108776001600160a01b03831660145b606060006141328360026149e8565b61413d906002614852565b67ffffffffffffffff8111156141555761415561493b565b6040519080825280601f01601f19166020018201604052801561417f576020820181803683370190505b509050600360fc1b8160008151811061419a5761419a61486a565b60200101906001600160f81b031916908160001a905350600f60fb1b816001815181106141c9576141c961486a565b60200101906001600160f81b031916908160001a90535060006141ed8460026149e8565b6141f8906001614852565b90505b600181111561427d577f303132333435363738396162636465660000000000000000000000000000000085600f16601081106142395761423961486a565b1a60f81b82828151811061424f5761424f61486a565b60200101906001600160f81b031916908160001a90535060049490941c9361427681614a07565b90506141fb565b508315610dd45760405162461bcd60e51b815260206004820181905260248201527f537472696e67733a20686578206c656e67746820696e73756666696369656e74604482015260640161083a565b600081815260018301602052604081205461431357508154600181810184556000848152602080822090930184905584548482528286019093526040902091909155610877565b506000610877565b6000818152600183016020526040812054801561440457600061433f6001836148f2565b8554909150600090614353906001906148f2565b90508181146143b85760008660000182815481106143735761437361486a565b90600052602060002001549050808760000184815481106143965761439661486a565b6000918252602080832090910192909255918252600188019052604090208390555b85548690806143c9576143c9614909565b600190038181906000526020600020016000905590558560010160008681526020019081526020016000206000905560019350505050610877565b6000915050610877565b5080546000825590600052602060002090810190610c9e91906144b0565b828054614438906147ee565b90600052602060002090601f01602090048101928261445a57600085556144a0565b82601f1061447357805160ff19168380011785556144a0565b828001600101855582156144a0579182015b828111156144a0578251825591602001919060010190614485565b506144ac9291506144b0565b5090565b5b808211156144ac57600081556001016144b1565b6001600160a01b0381168114610c9e57600080fd5b600080604083850312156144ed57600080fd5b8235915060208301356144ff816144c5565b809150509250929050565b60006020828403121561451c57600080fd5b81356001600160e01b031981168114610dd457600080fd5b60005b8381101561454f578181015183820152602001614537565b8381111561201b5750506000910152565b602081526000825180602084015261457f816040850160208701614534565b601f01601f19169190910160400192915050565b6000602082840312156145a557600080fd5b8135610dd4816144c5565b600080604083850312156145c357600080fd5b82356145ce816144c5565b946020939093013593505050565b6000806000606084860312156145f157600080fd5b83356145fc816144c5565b9250602084013561460c816144c5565b929592945050506040919091013590565b60006020828403121561462f57600080fd5b5035919050565b6020808252825182820181905260009190848201906040850190845b818110156146775783516001600160a01b031683529284019291840191600101614652565b50909695505050505050565b6000806040838503121561469657600080fd5b50508035926020909101359150565b6000806000606084860312156146ba57600080fd5b83356146c5816144c5565b925060208401356146d5816144c5565b915060408401356146e5816144c5565b809150509250925092565b600080600080600080600060e0888a03121561470b57600080fd5b8735614716816144c5565b96506020880135614726816144c5565b95506040880135945060608801359350608088013560ff8116811461474a57600080fd5b9699959850939692959460a0840135945060c09093013592915050565b6000806040838503121561477a57600080fd5b8235614785816144c5565b915060208301356144ff816144c5565b602080825282518282018190526000919060409081850190868401855b828110156147e157815180518552868101518786015285015185850152606090930192908501906001016147b2565b5091979650505050505050565b600181811c9082168061480257607f821691505b60208210811415613a7457634e487b7160e01b600052602260045260246000fd5b60006020828403121561483557600080fd5b5051919050565b634e487b7160e01b600052601160045260246000fd5b600082198211156148655761486561483c565b500190565b634e487b7160e01b600052603260045260246000fd5b60006000198214156148945761489461483c565b5060010190565b8051801515811461362f57600080fd5b6000602082840312156148bd57600080fd5b610dd48261489b565b600080604083850312156148d957600080fd5b825191506148e96020840161489b565b90509250929050565b6000828210156149045761490461483c565b500390565b634e487b7160e01b600052603160045260246000fd5b60008251614931818460208701614534565b9190910192915050565b634e487b7160e01b600052604160045260246000fd5b7f416363657373436f6e74726f6c3a206163636f756e7420000000000000000000815260008351614989816017850160208801614534565b7f206973206d697373696e6720726f6c652000000000000000000000000000000060179184019182015283516149c6816028840160208801614534565b01602801949350505050565b634e487b7160e01b600052602160045260246000fd5b6000816000190483118215151615614a0257614a0261483c565b500290565b600081614a1657614a1661483c565b50600019019056fea26469706673582212206110311a1da6222371fae1a8d6c964f7e8518bd059f98bf92bac29b4c8c2fc3264736f6c634300080b0033",
  "linkReferences": {},
  "deployedLinkReferences": {}
}