{
  "_format": "hh-sol-artifact-1",
  "contractName": "StMTRG",
  "sourceName": "contracts/StMTRG.sol",
  "abi": [
    {
      "anonymous": false,
      "inputs": [
        {
          "indexed": true,
          "internalType": "address",
          "name": "owner",
          "type": "address"
        },
        {
          "indexed": true,
          "internalType": "address",
          "name": "spender",
          "type": "address"
        },
        {
          "indexed": false,
          "internalType": "uint256",
          "name": "value",
          "type": "uint256"
        }
      ],
      "name": "Approval",
      "type": "event"
    },
    {
      "anonymous": false,
      "inputs": [
        {
          "indexed": false,
          "internalType": "uint256",
          "name": "timestamp",
          "type": "uint256"
        }
      ],
      "name": "ExecuteClost",
      "type": "event"
    },
    {
      "anonymous": false,
      "inputs": [
        {
          "indexed": false,
          "internalType": "uint8",
          "name": "version",
          "type": "uint8"
        }
      ],
      "name": "Initialized",
      "type": "event"
    },
    {
      "anonymous": false,
      "inputs": [
        {
          "indexed": true,
          "internalType": "uint256",
          "name": "epoch",
          "type": "uint256"
        },
        {
          "indexed": false,
          "internalType": "uint256",
          "name": "totalSupply",
          "type": "uint256"
        }
      ],
      "name": "LogRebase",
      "type": "event"
    },
    {
      "anonymous": false,
      "inputs": [
        {
          "indexed": false,
          "internalType": "address",
          "name": "oldCandidate",
          "type": "address"
        },
        {
          "indexed": false,
          "internalType": "address",
          "name": "newCandidate",
          "type": "address"
        }
      ],
      "name": "NewCandidate",
      "type": "event"
    },
    {
      "anonymous": false,
      "inputs": [
        {
          "indexed": false,
          "internalType": "address",
          "name": "account",
          "type": "address"
        }
      ],
      "name": "Paused",
      "type": "event"
    },
    {
      "anonymous": false,
      "inputs": [
        {
          "indexed": false,
          "internalType": "uint256",
          "name": "timestamp",
          "type": "uint256"
        }
      ],
      "name": "RequestClost",
      "type": "event"
    },
    {
      "anonymous": false,
      "inputs": [
        {
          "indexed": true,
          "internalType": "bytes32",
          "name": "role",
          "type": "bytes32"
        },
        {
          "indexed": true,
          "internalType": "bytes32",
          "name": "previousAdminRole",
          "type": "bytes32"
        },
        {
          "indexed": true,
          "internalType": "bytes32",
          "name": "newAdminRole",
          "type": "bytes32"
        }
      ],
      "name": "RoleAdminChanged",
      "type": "event"
    },
    {
      "anonymous": false,
      "inputs": [
        {
          "indexed": true,
          "internalType": "bytes32",
          "name": "role",
          "type": "bytes32"
        },
        {
          "indexed": true,
          "internalType": "address",
          "name": "account",
          "type": "address"
        },
        {
          "indexed": true,
          "internalType": "address",
          "name": "sender",
          "type": "address"
        }
      ],
      "name": "RoleGranted",
      "type": "event"
    },
    {
      "anonymous": false,
      "inputs": [
        {
          "indexed": true,
          "internalType": "bytes32",
          "name": "role",
          "type": "bytes32"
        },
        {
          "indexed": true,
          "internalType": "address",
          "name": "account",
          "type": "address"
        },
        {
          "indexed": true,
          "internalType": "address",
          "name": "sender",
          "type": "address"
        }
      ],
      "name": "RoleRevoked",
      "type": "event"
    },
    {
      "anonymous": false,
      "inputs": [
        {
          "indexed": true,
          "internalType": "address",
          "name": "from",
          "type": "address"
        },
        {
          "indexed": true,
          "internalType": "address",
          "name": "to",
          "type": "address"
        },
        {
          "indexed": false,
          "internalType": "uint256",
          "name": "value",
          "type": "uint256"
        }
      ],
      "name": "Transfer",
      "type": "event"
    },
    {
      "anonymous": false,
      "inputs": [
        {
          "indexed": false,
          "internalType": "address",
          "name": "account",
          "type": "address"
        }
      ],
      "name": "Unpaused",
      "type": "event"
    },
    {
      "inputs": [],
      "name": "CLOSE_DURATION",
      "outputs": [
        {
          "internalType": "uint256",
          "name": "",
          "type": "uint256"
        }
      ],
      "stateMutability": "view",
      "type": "function"
    },
    {
      "inputs": [],
      "name": "DEFAULT_ADMIN_ROLE",
      "outputs": [
        {
          "internalType": "bytes32",
          "name": "",
          "type": "bytes32"
        }
      ],
      "stateMutability": "view",
      "type": "function"
    },
    {
      "inputs": [],
      "name": "DOMAIN_SEPARATOR",
      "outputs": [
        {
          "internalType": "bytes32",
          "name": "",
          "type": "bytes32"
        }
      ],
      "stateMutability": "view",
      "type": "function"
    },
    {
      "inputs": [],
      "name": "MTRG",
      "outputs": [
        {
          "internalType": "contract IERC20Upgradeable",
          "name": "",
          "type": "address"
        }
      ],
      "stateMutability": "view",
      "type": "function"
    },
    {
      "inputs": [
        {
          "internalType": "address",
          "name": "",
          "type": "address"
        }
      ],
      "name": "_shares",
      "outputs": [
        {
          "internalType": "uint256",
          "name": "",
          "type": "uint256"
        }
      ],
      "stateMutability": "view",
      "type": "function"
    },
    {
      "inputs": [],
      "name": "adminInit",
      "outputs": [],
      "stateMutability": "nonpayable",
      "type": "function"
    },
    {
      "inputs": [
        {
          "internalType": "address",
          "name": "owner",
          "type": "address"
        },
        {
          "internalType": "address",
          "name": "spender",
          "type": "address"
        }
      ],
      "name": "allowance",
      "outputs": [
        {
          "internalType": "uint256",
          "name": "",
          "type": "uint256"
        }
      ],
      "stateMutability": "view",
      "type": "function"
    },
    {
      "inputs": [
        {
          "internalType": "address",
          "name": "spender",
          "type": "address"
        },
        {
          "internalType": "uint256",
          "name": "amount",
          "type": "uint256"
        }
      ],
      "name": "approve",
      "outputs": [
        {
          "internalType": "bool",
          "name": "",
          "type": "bool"
        }
      ],
      "stateMutability": "nonpayable",
      "type": "function"
    },
    {
      "inputs": [
        {
          "internalType": "address",
          "name": "account",
          "type": "address"
        }
      ],
      "name": "balanceOf",
      "outputs": [
        {
          "internalType": "uint256",
          "name": "",
          "type": "uint256"
        }
      ],
      "stateMutability": "view",
      "type": "function"
    },
    {
      "inputs": [],
      "name": "bucketID",
      "outputs": [
        {
          "internalType": "bytes32",
          "name": "",
          "type": "bytes32"
        }
      ],
      "stateMutability": "view",
      "type": "function"
    },
    {
      "inputs": [],
      "name": "candidate",
      "outputs": [
        {
          "internalType": "address",
          "name": "",
          "type": "address"
        }
      ],
      "stateMutability": "view",
      "type": "function"
    },
    {
      "inputs": [],
      "name": "closeTerminal",
      "outputs": [],
      "stateMutability": "nonpayable",
      "type": "function"
    },
    {
      "inputs": [],
      "name": "closeTimestamp",
      "outputs": [
        {
          "internalType": "uint256",
          "name": "",
          "type": "uint256"
        }
      ],
      "stateMutability": "view",
      "type": "function"
    },
    {
      "inputs": [],
      "name": "decimals",
      "outputs": [
        {
          "internalType": "uint8",
          "name": "",
          "type": "uint8"
        }
      ],
      "stateMutability": "view",
      "type": "function"
    },
    {
      "inputs": [
        {
          "internalType": "address",
          "name": "spender",
          "type": "address"
        },
        {
          "internalType": "uint256",
          "name": "subtractedValue",
          "type": "uint256"
        }
      ],
      "name": "decreaseAllowance",
      "outputs": [
        {
          "internalType": "bool",
          "name": "",
          "type": "bool"
        }
      ],
      "stateMutability": "nonpayable",
      "type": "function"
    },
    {
      "inputs": [
        {
          "internalType": "uint256",
          "name": "amount",
          "type": "uint256"
        }
      ],
      "name": "deposit",
      "outputs": [],
      "stateMutability": "nonpayable",
      "type": "function"
    },
    {
      "inputs": [],
      "name": "epoch",
      "outputs": [
        {
          "internalType": "uint256",
          "name": "",
          "type": "uint256"
        }
      ],
      "stateMutability": "view",
      "type": "function"
    },
    {
      "inputs": [],
      "name": "executeClose",
      "outputs": [],
      "stateMutability": "nonpayable",
      "type": "function"
    },
    {
      "inputs": [
        {
          "internalType": "address",
          "name": "recipient",
          "type": "address"
        }
      ],
      "name": "exit",
      "outputs": [],
      "stateMutability": "nonpayable",
      "type": "function"
    },
    {
      "inputs": [
        {
          "internalType": "bytes32",
          "name": "role",
          "type": "bytes32"
        }
      ],
      "name": "getRoleAdmin",
      "outputs": [
        {
          "internalType": "bytes32",
          "name": "",
          "type": "bytes32"
        }
      ],
      "stateMutability": "view",
      "type": "function"
    },
    {
      "inputs": [
        {
          "internalType": "bytes32",
          "name": "role",
          "type": "bytes32"
        },
        {
          "internalType": "uint256",
          "name": "index",
          "type": "uint256"
        }
      ],
      "name": "getRoleMember",
      "outputs": [
        {
          "internalType": "address",
          "name": "",
          "type": "address"
        }
      ],
      "stateMutability": "view",
      "type": "function"
    },
    {
      "inputs": [
        {
          "internalType": "bytes32",
          "name": "role",
          "type": "bytes32"
        }
      ],
      "name": "getRoleMemberCount",
      "outputs": [
        {
          "internalType": "uint256",
          "name": "",
          "type": "uint256"
        }
      ],
      "stateMutability": "view",
      "type": "function"
    },
    {
      "inputs": [
        {
          "internalType": "bytes32",
          "name": "role",
          "type": "bytes32"
        },
        {
          "internalType": "address",
          "name": "account",
          "type": "address"
        }
      ],
      "name": "grantRole",
      "outputs": [],
      "stateMutability": "nonpayable",
      "type": "function"
    },
    {
      "inputs": [
        {
          "internalType": "bytes32",
          "name": "role",
          "type": "bytes32"
        },
        {
          "internalType": "address",
          "name": "account",
          "type": "address"
        }
      ],
      "name": "hasRole",
      "outputs": [
        {
          "internalType": "bool",
          "name": "",
          "type": "bool"
        }
      ],
      "stateMutability": "view",
      "type": "function"
    },
    {
      "inputs": [
        {
          "internalType": "address",
          "name": "spender",
          "type": "address"
        },
        {
          "internalType": "uint256",
          "name": "addedValue",
          "type": "uint256"
        }
      ],
      "name": "increaseAllowance",
      "outputs": [
        {
          "internalType": "bool",
          "name": "",
          "type": "bool"
        }
      ],
      "stateMutability": "nonpayable",
      "type": "function"
    },
    {
      "inputs": [
        {
          "internalType": "address",
          "name": "admin",
          "type": "address"
        },
        {
          "internalType": "contract IERC20Upgradeable",
          "name": "_MTRG",
          "type": "address"
        },
        {
          "internalType": "address",
          "name": "scriptEngineAddr",
          "type": "address"
        },
        {
          "internalType": "address",
          "name": "_candidate",
          "type": "address"
        }
      ],
      "name": "initialize",
      "outputs": [],
      "stateMutability": "nonpayable",
      "type": "function"
    },
    {
      "inputs": [],
      "name": "isClosed",
      "outputs": [
        {
          "internalType": "bool",
          "name": "",
          "type": "bool"
        }
      ],
      "stateMutability": "view",
      "type": "function"
    },
    {
      "inputs": [],
      "name": "name",
      "outputs": [
        {
          "internalType": "string",
          "name": "",
          "type": "string"
        }
      ],
      "stateMutability": "view",
      "type": "function"
    },
    {
      "inputs": [
        {
          "internalType": "address",
          "name": "owner",
          "type": "address"
        }
      ],
      "name": "nonces",
      "outputs": [
        {
          "internalType": "uint256",
          "name": "",
          "type": "uint256"
        }
      ],
      "stateMutability": "view",
      "type": "function"
    },
    {
      "inputs": [],
      "name": "pause",
      "outputs": [],
      "stateMutability": "nonpayable",
      "type": "function"
    },
    {
      "inputs": [],
      "name": "paused",
      "outputs": [
        {
          "internalType": "bool",
          "name": "",
          "type": "bool"
        }
      ],
      "stateMutability": "view",
      "type": "function"
    },
    {
      "inputs": [
        {
          "internalType": "address",
          "name": "owner",
          "type": "address"
        },
        {
          "internalType": "address",
          "name": "spender",
          "type": "address"
        },
        {
          "internalType": "uint256",
          "name": "value",
          "type": "uint256"
        },
        {
          "internalType": "uint256",
          "name": "deadline",
          "type": "uint256"
        },
        {
          "internalType": "uint8",
          "name": "v",
          "type": "uint8"
        },
        {
          "internalType": "bytes32",
          "name": "r",
          "type": "bytes32"
        },
        {
          "internalType": "bytes32",
          "name": "s",
          "type": "bytes32"
        }
      ],
      "name": "permit",
      "outputs": [],
      "stateMutability": "nonpayable",
      "type": "function"
    },
    {
      "inputs": [],
      "name": "rebase",
      "outputs": [],
      "stateMutability": "nonpayable",
      "type": "function"
    },
    {
      "inputs": [
        {
          "internalType": "bytes32",
          "name": "role",
          "type": "bytes32"
        },
        {
          "internalType": "address",
          "name": "account",
          "type": "address"
        }
      ],
      "name": "renounceRole",
      "outputs": [],
      "stateMutability": "nonpayable",
      "type": "function"
    },
    {
      "inputs": [],
      "name": "requestClose",
      "outputs": [],
      "stateMutability": "nonpayable",
      "type": "function"
    },
    {
      "inputs": [
        {
          "internalType": "bytes32",
          "name": "role",
          "type": "bytes32"
        },
        {
          "internalType": "address",
          "name": "account",
          "type": "address"
        }
      ],
      "name": "revokeRole",
      "outputs": [],
      "stateMutability": "nonpayable",
      "type": "function"
    },
    {
      "inputs": [
        {
          "internalType": "address",
          "name": "account",
          "type": "address"
        }
      ],
      "name": "setBlackList",
      "outputs": [],
      "stateMutability": "nonpayable",
      "type": "function"
    },
    {
      "inputs": [
        {
          "internalType": "uint256",
          "name": "_share",
          "type": "uint256"
        }
      ],
      "name": "shareToValue",
      "outputs": [
        {
          "internalType": "uint256",
          "name": "",
          "type": "uint256"
        }
      ],
      "stateMutability": "view",
      "type": "function"
    },
    {
      "inputs": [
        {
          "internalType": "bytes4",
          "name": "interfaceId",
          "type": "bytes4"
        }
      ],
      "name": "supportsInterface",
      "outputs": [
        {
          "internalType": "bool",
          "name": "",
          "type": "bool"
        }
      ],
      "stateMutability": "view",
      "type": "function"
    },
    {
      "inputs": [],
      "name": "symbol",
      "outputs": [
        {
          "internalType": "string",
          "name": "",
          "type": "string"
        }
      ],
      "stateMutability": "view",
      "type": "function"
    },
    {
      "inputs": [],
      "name": "totalShare",
      "outputs": [
        {
          "internalType": "uint256",
          "name": "",
          "type": "uint256"
        }
      ],
      "stateMutability": "view",
      "type": "function"
    },
    {
      "inputs": [],
      "name": "totalSupply",
      "outputs": [
        {
          "internalType": "uint256",
          "name": "",
          "type": "uint256"
        }
      ],
      "stateMutability": "view",
      "type": "function"
    },
    {
      "inputs": [
        {
          "internalType": "address",
          "name": "to",
          "type": "address"
        },
        {
          "internalType": "uint256",
          "name": "amount",
          "type": "uint256"
        }
      ],
      "name": "transfer",
      "outputs": [
        {
          "internalType": "bool",
          "name": "",
          "type": "bool"
        }
      ],
      "stateMutability": "nonpayable",
      "type": "function"
    },
    {
      "inputs": [
        {
          "internalType": "address",
          "name": "from",
          "type": "address"
        },
        {
          "internalType": "address",
          "name": "to",
          "type": "address"
        },
        {
          "internalType": "uint256",
          "name": "amount",
          "type": "uint256"
        }
      ],
      "name": "transferFrom",
      "outputs": [
        {
          "internalType": "bool",
          "name": "",
          "type": "bool"
        }
      ],
      "stateMutability": "nonpayable",
      "type": "function"
    },
    {
      "inputs": [],
      "name": "unpause",
      "outputs": [],
      "stateMutability": "nonpayable",
      "type": "function"
    },
    {
      "inputs": [
        {
          "internalType": "address",
          "name": "newCandidateAddr",
          "type": "address"
        }
      ],
      "name": "updateCandidate",
      "outputs": [],
      "stateMutability": "nonpayable",
      "type": "function"
    },
    {
      "inputs": [
        {
          "internalType": "uint256",
          "name": "_value",
          "type": "uint256"
        }
      ],
      "name": "valueToShare",
      "outputs": [
        {
          "internalType": "uint256",
          "name": "",
          "type": "uint256"
        }
      ],
      "stateMutability": "view",
      "type": "function"
    },
    {
      "inputs": [
        {
          "internalType": "uint256",
          "name": "amount",
          "type": "uint256"
        },
        {
          "internalType": "address",
          "name": "recipient",
          "type": "address"
        }
      ],
      "name": "withdraw",
      "outputs": [],
      "stateMutability": "nonpayable",
      "type": "function"
    }
  ],
  "bytecode": "0x6080604052600061019455610197805460ff1916905561019d805460ff60a01b1916905534801561002f57600080fd5b5061301d8061003f6000396000f3fe608060405234801561001057600080fd5b506004361061029f5760003560e01c80638456cb5911610167578063af14052c116100ce578063d505accf11610087578063d505accf1461057d578063d547741f14610590578063dd62ed3e146105a3578063e788ff56146105b6578063f8c8765e146105be578063fdb4fb0e146105d157600080fd5b8063af14052c1461050d578063b34c8caf14610515578063b42652e914610536578063b6b55f2514610549578063c2b6b58c1461055c578063ca15c8731461056a57600080fd5b8063992d847e11610120578063992d847e146104ba5780639e8f1d6e146104cd578063a217fddf146104d7578063a457c2d7146104df578063a6536e75146104f2578063a9059cbb146104fa57600080fd5b80638456cb591461046657806388b0e2a41461046e578063900cf0cf146104825780639010d07c1461048c57806391d148541461049f57806395d89b41146104b257600080fd5b806336568abe1161020b578063577262ab116101c4578063577262ab146103ed5780635c975abb146103f55780636c8381f81461040157806370a082311461042d57806372700241146104405780637ecebe001461045357600080fd5b806336568abe1461039157806339509351146103a45780633e17087d146103b75780633f4ba83a146103bf578063441130d5146103c75780634b64fcd1146103da57600080fd5b806318160ddd1161025d57806318160ddd1461032957806323b872dd14610331578063248a9ca3146103445780632f2ff15d14610367578063313ce5671461037a5780633644e5151461038957600080fd5b8062f714ce146102a457806301ffc9a7146102b9578063026c4207146102e1578063052d7c00146102f757806306fdde0314610301578063095ea7b314610316575b600080fd5b6102b76102b2366004612b09565b6105db565b005b6102cc6102c7366004612b39565b6105f2565b60405190151581526020015b60405180910390f35b6102e961061d565b6040519081526020016102d8565b6102e96101965481565b610309610630565b6040516102d89190612b8f565b6102cc610324366004612bc2565b6106c2565b6102e96106da565b6102cc61033f366004612bee565b610749565b6102e9610352366004612c2f565b600090815260fe602052604090206001015490565b6102b7610375366004612b09565b61076d565b604051601281526020016102d8565b6102e9610797565b6102b761039f366004612b09565b6107a1565b6102cc6103b2366004612bc2565b610820565b6102b7610842565b6102b76108d0565b6102e96103d5366004612c2f565b6108e6565b6102e96103e8366004612c2f565b6109a2565b6102b76109ad565b6101625460ff166102cc565b61019c54610415906001600160a01b031681565b6040516001600160a01b0390911681526020016102d8565b6102e961043b366004612c48565b610a0a565b6102b761044e366004612c48565b610a2d565b6102e9610461366004612c48565b610a63565b6102b7610a81565b61019d54610415906001600160a01b031681565b6102e96101955481565b61041561049a366004612c65565b610a94565b6102cc6104ad366004612b09565b610ab4565b610309610adf565b6102b76104c8366004612c48565b610aee565b6102e961019b5481565b6102e9600081565b6102cc6104ed366004612bc2565b610bee565b6102b7610c69565b6102cc610508366004612bc2565b610d84565b6102b7610d92565b6102e9610523366004612c48565b6101986020526000908152604090205481565b6102b7610544366004612c48565b610eff565b6102b7610557366004612c2f565b61100c565b610197546102cc9060ff1681565b6102e9610578366004612c2f565b611234565b6102b761058b366004612c87565b61124c565b6102b761059e366004612b09565b6113b0565b6102e96105b1366004612cfe565b6113d5565b6102b7611400565b6102b76105cc366004612d2c565b6115fa565b6102e962278d0081565b6105e36117cf565b6105ee338383611818565b5050565b60006001600160e01b03198216635a05180f60e01b1480610617575061061782611a83565b92915050565b600061062b61019454611ab8565b905090565b60606036805461063f90612d88565b80601f016020809104026020016040519081016040528092919081815260200182805461066b90612d88565b80156106b85780601f1061068d576101008083540402835291602001916106b8565b820191906000526020600020905b81548152906001019060200180831161069b57829003601f168201915b5050505050905090565b6000336106d0818585611adb565b5060019392505050565b61019a5460408051631d46ec1560e11b815290516000926001600160a01b031691633a8dd82a9160048083019260209291908290030181865afa158015610725573d6000803e3d6000fd5b505050506040513d601f19601f8201168201806040525081019061062b9190612dbd565b600033610757858285611bf7565b610762858585611c71565b506001949350505050565b600082815260fe602052604090206001015461078881611eaa565b6107928383611eb4565b505050565b600061062b611ed7565b6001600160a01b03811633146108165760405162461bcd60e51b815260206004820152602f60248201527f416363657373436f6e74726f6c3a2063616e206f6e6c792072656e6f756e636560448201526e103937b632b9903337b91039b2b63360891b60648201526084015b60405180910390fd5b6105ee8282611f52565b6000336106d081858561083383836113d5565b61083d9190612dec565b611adb565b600061084d81611eaa565b6101975460ff166108705760405162461bcd60e51b815260040161080d90612e04565b61019d54600160a01b900460ff16156108b95760405162461bcd60e51b815260206004820152600b60248201526a69735465726d696e616c2160a81b604482015260640161080d565b5061019d805460ff60a01b1916600160a01b179055565b60006108db81611eaa565b6108e3611f75565b50565b61019d54600090600160a01b900460ff161561098b576101945461019d546040516370a0823160e01b81523060048201526106179291610985916001600160a01b03909116906370a0823190602401602060405180830381865afa158015610952573d6000803e3d6000fd5b505050506040513d601f19601f820116820180604052508101906109769190612dbd565b61097f86611fc8565b90611fde565b90612022565b610617610194546109856109766106da565b919050565b600061061782612061565b60006109b881611eaa565b610197805460ff19166001179055426101968190556040517f2e833c16c65d039b0eb1b7b1b7d7b219f0bd0b107a8a5555bf828a1c09833bd7916109ff9190815260200190565b60405180910390a150565b6001600160a01b03811660009081526101986020526040812054610617906108e6565b6000610a3881611eaa565b506001600160a01b0316600090815261019960205260409020805460ff19811660ff90911615179055565b6001600160a01b038116600090815260996020526040812054610617565b6000610a8c81611eaa565b6108e361210e565b600082815261013060205260408120610aad908361214c565b9392505050565b600091825260fe602090815260408084206001600160a01b0393909316845291905290205460ff1690565b60606037805461063f90612d88565b6000610af981611eaa565b6101975460ff1615610b1d5760405162461bcd60e51b815260040161080d90612e04565b61019a5461019b546040516304a8292160e41b815260048101919091526001600160a01b03848116602483015290911690634a82921090604401600060405180830381600087803b158015610b7157600080fd5b505af1158015610b85573d6000803e3d6000fd5b505061019c80546001600160a01b031981166001600160a01b038781169182179093556040805193909216808452602084019190915293507fdeb5698764fe4c74f69cd32a9933797c5b9b1e326b6dfc883778050164375a4592500160405180910390a1505050565b60003381610bfc82866113d5565b905083811015610c5c5760405162461bcd60e51b815260206004820152602560248201527f45524332303a2064656372656173656420616c6c6f77616e63652062656c6f77604482015264207a65726f60d81b606482015260840161080d565b6107628286868403611adb565b6000610c7481611eaa565b6101975460ff16610c975760405162461bcd60e51b815260040161080d90612e04565b62278d0061019654610ca99190612dec565b421015610cea5760405162461bcd60e51b815260206004820152600f60248201526e434c4f53455f4455524154494f4e2160881b604482015260640161080d565b61019a5461019b546040516377d7f91360e01b81526001600160a01b03909216916377d7f91391610d219160040190815260200190565b600060405180830381600087803b158015610d3b57600080fd5b505af1158015610d4f573d6000803e3d6000fd5b505050507f6dd94557783fb712f42c550895d6b0cb542f62491a9a9fd76658cf40e750aeb5426040516109ff91815260200190565b6000336106d0818585611c71565b6000610d9d81611eaa565b6101975460ff1615610dc15760405162461bcd60e51b815260040161080d90612e04565b61019d546040516370a0823160e01b81523060048201526000916001600160a01b0316906370a0823190602401602060405180830381865afa158015610e0b573d6000803e3d6000fd5b505050506040513d601f19601f82011682018060405250810190610e2f9190612dbd565b90508015610ea75761019a5461019b54604051626de11b60e61b81526001600160a01b0390921691631b7846c091610e74918590600401918252602082015260400190565b600060405180830381600087803b158015610e8e57600080fd5b505af1158015610ea2573d6000803e3d6000fd5b505050505b6101958054906000610eb883612e25565b9190505550610195547f72725a3b1e5bd622d6bcd1339bb31279c351abe8f541ac7fd320f24e1b1641f2610eea6106da565b60405190815260200160405180910390a25050565b610f076117cf565b336000818152610198602052604081205490610f2283610a0a565b6001600160a01b038416600090815261019860205260408120559050610f4782611fc8565b61019480549190910390556040518181526000906001600160a01b03851690600080516020612fc88339815191529060200160405180910390a361019a5461019b54604051632b0fcbdf60e11b81526004810191909152602481018390526001600160a01b0386811660448301529091169063561f97be906064016020604051808303816000875af1158015610fe1573d6000803e3d6000fd5b505050506040513d601f19601f820116820180604052508101906110059190612dbd565b5050505050565b6110146117cf565b6101975460ff16156110385760405162461bcd60e51b815260040161080d90612e04565b61019d546040516323b872dd60e01b8152336004820181905230602483015260448201849052916000916001600160a01b03909116906323b872dd906064016020604051808303816000875af1158015611096573d6000803e3d6000fd5b505050506040513d601f19601f820116820180604052508101906110ba9190612e40565b50600061019454116111005760405162461bcd60e51b815260206004820152600f60248201526e0746f74616c536861726573203d203608c1b604482015260640161080d565b61019b5461113c5760405162461bcd60e51b81526020600482015260096024820152686275636b657449442160b81b604482015260640161080d565b61114583612061565b61019a5461019b54604051626de11b60e61b81526004810191909152602481018690529192506001600160a01b031690631b7846c090604401600060405180830381600087803b15801561119857600080fd5b505af11580156111ac573d6000803e3d6000fd5b505050506001600160a01b03821660009081526101986020526040812080548392906111d9908490612dec565b909155506111e8905081611fc8565b61019460008282546111fa9190612dec565b90915550506040518381526001600160a01b03831690600090600080516020612fc8833981519152906020015b60405180910390a3505050565b60008181526101306020526040812061061790612158565b8342111561129c5760405162461bcd60e51b815260206004820152601d60248201527f45524332305065726d69743a206578706972656420646561646c696e65000000604482015260640161080d565b60007f6e71edae12b1b97f4d1f60370fef10105fa2faae0126114a169c64845d6126c98888886112cb8c612162565b6040805160208101969096526001600160a01b0394851690860152929091166060840152608083015260a082015260c0810186905260e001604051602081830303815290604052805190602001209050600061132682612188565b90506000611336828787876121d6565b9050896001600160a01b0316816001600160a01b0316146113995760405162461bcd60e51b815260206004820152601e60248201527f45524332305065726d69743a20696e76616c6964207369676e61747572650000604482015260640161080d565b6113a48a8a8a611adb565b50505050505050505050565b600082815260fe60205260409020600101546113cb81611eaa565b6107928383611f52565b6001600160a01b03918216600090815260346020908152604080832093909416825291909152205490565b600061140b81611eaa565b6101975460ff161561142f5760405162461bcd60e51b815260040161080d90612e04565b61019454156114735760405162461bcd60e51b815260206004820152601060248201526f0746f74616c53686172657320213d20360841b604482015260640161080d565b61019d546040516323b872dd60e01b8152336004820181905230602483015268056bc75e2d6310000060448301819052909290916001600160a01b03909116906323b872dd906064016020604051808303816000875af11580156114db573d6000803e3d6000fd5b505050506040513d601f19601f820116820180604052508101906114ff9190612e40565b5061019a5461019c5460405163183077b960e11b81526001600160a01b03918216600482015260248101849052911690633060ef72906044016020604051808303816000875af1158015611557573d6000803e3d6000fd5b505050506040513d601f19601f8201168201806040525081019061157b9190612dbd565b61019b556001600160a01b03821660009081526101986020526040812080548392906115a8908490612dec565b909155506115b7905081611fc8565b61019460008282546115c99190612dec565b90915550506040518181526001600160a01b03831690600090600080516020612fc883398151915290602001611227565b600054610100900460ff161580801561161a5750600054600160ff909116105b806116345750303b158015611634575060005460ff166001145b6116975760405162461bcd60e51b815260206004820152602e60248201527f496e697469616c697a61626c653a20636f6e747261637420697320616c72656160448201526d191e481a5b9a5d1a585b1a5e995960921b606482015260840161080d565b6000805460ff1916600117905580156116ba576000805461ff0019166101001790555b6116e56040518060400160405280600a815260200169073744d54524720312e360b41b8152506121fe565b6117306040518060400160405280600b81526020016a5374616b6564204d54524760a81b8152506040518060400160405280600681526020016573744d54524760d01b815250612248565b611738612279565b6117436000866122a8565b61019a80546001600160a01b038086166001600160a01b03199283161790925561019c805485841690831617905561019d8054928716929091169190911790558015611005576000805461ff0019169055604051600181527f7f26b83ff96e1f2b6a682f133852f6798a09c465da95921460cefb38474024989060200160405180910390a15050505050565b6101625460ff16156118165760405162461bcd60e51b815260206004820152601060248201526f14185d5cd8589b194e881c185d5cd95960821b604482015260640161080d565b565b600061182383612061565b6001600160a01b038516600090815261019860205260409020549091508181101561189b5760405162461bcd60e51b815260206004820152602260248201527f45524332303a206275726e20616d6f756e7420657863656564732062616c616e604482015261636560f01b606482015260840161080d565b6001600160a01b0385166000908152610199602052604090205460ff16156119055760405162461bcd60e51b815260206004820152601860248201527f6163636f756e7420697320696e20626c61636b206c6973740000000000000000604482015260640161080d565b6001600160a01b038516600090815261019860205260409020828203905561192c82611fc8565b61019480549190910390556040518481526000906001600160a01b03871690600080516020612fc88339815191529060200160405180910390a361019d54600160a01b900460ff16156119f75761019d5460405163a9059cbb60e01b81526001600160a01b038581166004830152602482018790529091169063a9059cbb906044016020604051808303816000875af11580156119cd573d6000803e3d6000fd5b505050506040513d601f19601f820116820180604052508101906119f19190612e40565b50611005565b61019a5461019b54604051632b0fcbdf60e11b81526004810191909152602481018690526001600160a01b0385811660448301529091169063561f97be906064016020604051808303816000875af1158015611a57573d6000803e3d6000fd5b505050506040513d601f19601f82011682018060405250810190611a7b9190612dbd565b505050505050565b60006001600160e01b03198216637965db0b60e01b148061061757506301ffc9a760e01b6001600160e01b0319831614610617565b633b9aca00808204908206631dcd65008110611ad5576001820191505b50919050565b6001600160a01b038316611b3d5760405162461bcd60e51b8152602060048201526024808201527f45524332303a20617070726f76652066726f6d20746865207a65726f206164646044820152637265737360e01b606482015260840161080d565b6001600160a01b038216611b9e5760405162461bcd60e51b815260206004820152602260248201527f45524332303a20617070726f766520746f20746865207a65726f206164647265604482015261737360f01b606482015260840161080d565b6001600160a01b0383811660008181526034602090815260408083209487168084529482529182902085905590518481527f8c5be1e5ebec7d5bd14f71427d1e84f3dd0314c0f7b2291e5b200ac8c7c3b9259101611227565b6000611c0384846113d5565b90506000198114611c6b5781811015611c5e5760405162461bcd60e51b815260206004820152601d60248201527f45524332303a20696e73756666696369656e7420616c6c6f77616e6365000000604482015260640161080d565b611c6b8484848403611adb565b50505050565b6001600160a01b038316611cd55760405162461bcd60e51b815260206004820152602560248201527f45524332303a207472616e736665722066726f6d20746865207a65726f206164604482015264647265737360d81b606482015260840161080d565b6001600160a01b038216611d375760405162461bcd60e51b815260206004820152602360248201527f45524332303a207472616e7366657220746f20746865207a65726f206164647260448201526265737360e81b606482015260840161080d565b6001600160a01b0383166000908152610199602052604090205460ff16158015611d7b57506001600160a01b0382166000908152610199602052604090205460ff16155b611dc75760405162461bcd60e51b815260206004820152601f60248201527f45524332303a206163636f756e7420697320696e20626c61636b206c69737400604482015260640161080d565b6000611dd282612061565b6001600160a01b0385166000908152610198602052604090205490915081811015611e4e5760405162461bcd60e51b815260206004820152602660248201527f45524332303a207472616e7366657220616d6f756e7420657863656564732062604482015265616c616e636560d01b606482015260840161080d565b6001600160a01b03808616600081815261019860205260408082208686039055928716808252908390208054860190559151600080516020612fc883398151915290611e9d9087815260200190565b60405180910390a3611005565b6108e381336122b2565b611ebe828261230b565b6000828152610130602052604090206107929082612391565b600061062b7f8b73c3c69bb8fe3d512ecc4cf759cc79239f7b179b0ffacaa9a75d522b39400f611f0660655490565b6066546040805160208101859052908101839052606081018290524660808201523060a082015260009060c0016040516020818303038152906040528051906020012090509392505050565b611f5c82826123a6565b600082815261013060205260409020610792908261240d565b611f7d612422565b610162805460ff191690557f5db9ee0a495bf2e6ff9c91a7834c1ba4fdd244a5e8aa4e537bd38aeae4b073aa335b6040516001600160a01b03909116815260200160405180910390a1565b633b9aca00818102908104821461099d57600080fd5b600081156b019d971e4fe8401e74000000198390048411151761200057600080fd5b506b033b2e3c9fd0803ce800000091026b019d971e4fe8401e74000000010490565b600081156b033b2e3c9fd0803ce80000006002840419048411171561204657600080fd5b506b033b2e3c9fd0803ce80000009190910260028204010490565b61019d54600090600160a01b900460ff16156121005761019d546040516370a0823160e01b8152306004820152610617916120fb916001600160a01b03909116906370a0823190602401602060405180830381865afa1580156120c8573d6000803e3d6000fd5b505050506040513d601f19601f820116820180604052508101906120ec9190612dbd565b61019454610985908690611fde565b611ab8565b6106176120fb6120ec6106da565b6121166117cf565b610162805460ff191660011790557f62e78cea01bee320cd4e420270b5ea74000d11b0c9f74754ebdbfc544b05a258611fab3390565b6000610aad838361246c565b6000610617825490565b6001600160a01b0381166000908152609960205260409020805460018101825590611ad5565b6000610617612195611ed7565b8360405161190160f01b6020820152602281018390526042810182905260009060620160405160208183030381529060405280519060200120905092915050565b60008060006121e787878787612496565b915091506121f48161255a565b5095945050505050565b600054610100900460ff166122255760405162461bcd60e51b815260040161080d90612e62565b6108e381604051806040016040528060018152602001603160f81b8152506126a8565b600054610100900460ff1661226f5760405162461bcd60e51b815260040161080d90612e62565b6105ee82826126e9565b600054610100900460ff166122a05760405162461bcd60e51b815260040161080d90612e62565b611816612737565b6105ee8282611eb4565b6122bc8282610ab4565b6105ee576122c98161276b565b6122d483602061277d565b6040516020016122e5929190612ead565b60408051601f198184030181529082905262461bcd60e51b825261080d91600401612b8f565b6123158282610ab4565b6105ee57600082815260fe602090815260408083206001600160a01b03851684529091529020805460ff1916600117905561234d3390565b6001600160a01b0316816001600160a01b0316837f2f8788117e7eff1d82e926ec794901d17c78024a50270940304540a733656f0d60405160405180910390a45050565b6000610aad836001600160a01b038416612919565b6123b08282610ab4565b156105ee57600082815260fe602090815260408083206001600160a01b0385168085529252808320805460ff1916905551339285917ff6391f5c32d9c69d2a47ea670b442974b53935d1edc7fd64eb21e047a839171b9190a45050565b6000610aad836001600160a01b038416612968565b6101625460ff166118165760405162461bcd60e51b815260206004820152601460248201527314185d5cd8589b194e881b9bdd081c185d5cd95960621b604482015260640161080d565b600082600001828154811061248357612483612f22565b9060005260206000200154905092915050565b6000807f7fffffffffffffffffffffffffffffff5d576e7357a4501ddfe92f46681b20a08311156124cd5750600090506003612551565b6040805160008082526020820180845289905260ff881692820192909252606081018690526080810185905260019060a0016020604051602081039080840390855afa158015612521573d6000803e3d6000fd5b5050604051601f1901519150506001600160a01b03811661254a57600060019250925050612551565b9150600090505b94509492505050565b600081600481111561256e5761256e612f38565b14156125775750565b600181600481111561258b5761258b612f38565b14156125d95760405162461bcd60e51b815260206004820152601860248201527f45434453413a20696e76616c6964207369676e61747572650000000000000000604482015260640161080d565b60028160048111156125ed576125ed612f38565b141561263b5760405162461bcd60e51b815260206004820152601f60248201527f45434453413a20696e76616c6964207369676e6174757265206c656e67746800604482015260640161080d565b600381600481111561264f5761264f612f38565b14156108e35760405162461bcd60e51b815260206004820152602260248201527f45434453413a20696e76616c6964207369676e6174757265202773272076616c604482015261756560f01b606482015260840161080d565b600054610100900460ff166126cf5760405162461bcd60e51b815260040161080d90612e62565b815160209283012081519190920120606591909155606655565b600054610100900460ff166127105760405162461bcd60e51b815260040161080d90612e62565b8151612723906036906020850190612a5b565b508051610792906037906020840190612a5b565b600054610100900460ff1661275e5760405162461bcd60e51b815260040161080d90612e62565b610162805460ff19169055565b60606106176001600160a01b03831660145b6060600061278c836002612f4e565b612797906002612dec565b67ffffffffffffffff8111156127af576127af612f6d565b6040519080825280601f01601f1916602001820160405280156127d9576020820181803683370190505b509050600360fc1b816000815181106127f4576127f4612f22565b60200101906001600160f81b031916908160001a905350600f60fb1b8160018151811061282357612823612f22565b60200101906001600160f81b031916908160001a9053506000612847846002612f4e565b612852906001612dec565b90505b60018111156128ca576f181899199a1a9b1b9c1cb0b131b232b360811b85600f166010811061288657612886612f22565b1a60f81b82828151811061289c5761289c612f22565b60200101906001600160f81b031916908160001a90535060049490941c936128c381612f83565b9050612855565b508315610aad5760405162461bcd60e51b815260206004820181905260248201527f537472696e67733a20686578206c656e67746820696e73756666696369656e74604482015260640161080d565b600081815260018301602052604081205461296057508154600181810184556000848152602080822090930184905584548482528286019093526040902091909155610617565b506000610617565b60008181526001830160205260408120548015612a5157600061298c600183612f9a565b85549091506000906129a090600190612f9a565b9050818114612a055760008660000182815481106129c0576129c0612f22565b90600052602060002001549050808760000184815481106129e3576129e3612f22565b6000918252602080832090910192909255918252600188019052604090208390555b8554869080612a1657612a16612fb1565b600190038181906000526020600020016000905590558560010160008681526020019081526020016000206000905560019350505050610617565b6000915050610617565b828054612a6790612d88565b90600052602060002090601f016020900481019282612a895760008555612acf565b82601f10612aa257805160ff1916838001178555612acf565b82800160010185558215612acf579182015b82811115612acf578251825591602001919060010190612ab4565b50612adb929150612adf565b5090565b5b80821115612adb5760008155600101612ae0565b6001600160a01b03811681146108e357600080fd5b60008060408385031215612b1c57600080fd5b823591506020830135612b2e81612af4565b809150509250929050565b600060208284031215612b4b57600080fd5b81356001600160e01b031981168114610aad57600080fd5b60005b83811015612b7e578181015183820152602001612b66565b83811115611c6b5750506000910152565b6020815260008251806020840152612bae816040850160208701612b63565b601f01601f19169190910160400192915050565b60008060408385031215612bd557600080fd5b8235612be081612af4565b946020939093013593505050565b600080600060608486031215612c0357600080fd5b8335612c0e81612af4565b92506020840135612c1e81612af4565b929592945050506040919091013590565b600060208284031215612c4157600080fd5b5035919050565b600060208284031215612c5a57600080fd5b8135610aad81612af4565b60008060408385031215612c7857600080fd5b50508035926020909101359150565b600080600080600080600060e0888a031215612ca257600080fd5b8735612cad81612af4565b96506020880135612cbd81612af4565b95506040880135945060608801359350608088013560ff81168114612ce157600080fd5b9699959850939692959460a0840135945060c09093013592915050565b60008060408385031215612d1157600080fd5b8235612d1c81612af4565b91506020830135612b2e81612af4565b60008060008060808587031215612d4257600080fd5b8435612d4d81612af4565b93506020850135612d5d81612af4565b92506040850135612d6d81612af4565b91506060850135612d7d81612af4565b939692955090935050565b600181811c90821680612d9c57607f821691505b60208210811415611ad557634e487b7160e01b600052602260045260246000fd5b600060208284031215612dcf57600080fd5b5051919050565b634e487b7160e01b600052601160045260246000fd5b60008219821115612dff57612dff612dd6565b500190565b602080825260079082015266636c6f7365642160c81b604082015260600190565b6000600019821415612e3957612e39612dd6565b5060010190565b600060208284031215612e5257600080fd5b81518015158114610aad57600080fd5b6020808252602b908201527f496e697469616c697a61626c653a20636f6e7472616374206973206e6f74206960408201526a6e697469616c697a696e6760a81b606082015260800190565b7f416363657373436f6e74726f6c3a206163636f756e7420000000000000000000815260008351612ee5816017850160208801612b63565b7001034b99036b4b9b9b4b733903937b6329607d1b6017918401918201528351612f16816028840160208801612b63565b01602801949350505050565b634e487b7160e01b600052603260045260246000fd5b634e487b7160e01b600052602160045260246000fd5b6000816000190483118215151615612f6857612f68612dd6565b500290565b634e487b7160e01b600052604160045260246000fd5b600081612f9257612f92612dd6565b506000190190565b600082821015612fac57612fac612dd6565b500390565b634e487b7160e01b600052603160045260246000fdfeddf252ad1be2c89b69c2b068fc378daa952ba7f163c4a11628f55a4df523b3efa264697066735822122009c36a64cc314b15e3a21ed90a806f47513aaec272be803b2798fdcf8829d2b264736f6c634300080b0033",
  "linkReferences": {},
  "deployedLinkReferences": {}
}