{
  "_format": "hh-sol-artifact-1",
  "contractName": "StMTRG",
  "sourceName": "contracts/StMTRG.sol",
  "abi": [
    {
      "anonymous": false,
      "inputs": [
        {
          "indexed": true,
          "internalType": "address",
          "name": "owner",
          "type": "address"
        },
        {
          "indexed": true,
          "internalType": "address",
          "name": "spender",
          "type": "address"
        },
        {
          "indexed": false,
          "internalType": "uint256",
          "name": "value",
          "type": "uint256"
        }
      ],
      "name": "Approval",
      "type": "event"
    },
    {
      "anonymous": false,
      "inputs": [
        {
          "indexed": true,
          "internalType": "address",
          "name": "account",
          "type": "address"
        },
        {
          "indexed": true,
          "internalType": "bytes32",
          "name": "bucketID",
          "type": "bytes32"
        },
        {
          "indexed": false,
          "internalType": "uint256",
          "name": "amount",
          "type": "uint256"
        }
      ],
      "name": "Deposit",
      "type": "event"
    },
    {
      "anonymous": false,
      "inputs": [
        {
          "indexed": true,
          "internalType": "address",
          "name": "candidate",
          "type": "address"
        },
        {
          "indexed": false,
          "internalType": "bytes32",
          "name": "bucketID",
          "type": "bytes32"
        },
        {
          "indexed": false,
          "internalType": "uint256",
          "name": "timestamp",
          "type": "uint256"
        }
      ],
      "name": "ExecuteClost",
      "type": "event"
    },
    {
      "anonymous": false,
      "inputs": [
        {
          "indexed": false,
          "internalType": "uint8",
          "name": "version",
          "type": "uint8"
        }
      ],
      "name": "Initialized",
      "type": "event"
    },
    {
      "anonymous": false,
      "inputs": [
        {
          "indexed": true,
          "internalType": "bytes32",
          "name": "bucketID",
          "type": "bytes32"
        },
        {
          "indexed": true,
          "internalType": "address",
          "name": "candidate",
          "type": "address"
        },
        {
          "indexed": true,
          "internalType": "uint256",
          "name": "epoch",
          "type": "uint256"
        },
        {
          "indexed": false,
          "internalType": "uint256",
          "name": "totalSupply",
          "type": "uint256"
        }
      ],
      "name": "LogRebase",
      "type": "event"
    },
    {
      "anonymous": false,
      "inputs": [
        {
          "indexed": true,
          "internalType": "bytes32",
          "name": "oldBucketID",
          "type": "bytes32"
        },
        {
          "indexed": true,
          "internalType": "bytes32",
          "name": "newBucketID",
          "type": "bytes32"
        },
        {
          "indexed": false,
          "internalType": "uint256",
          "name": "amount",
          "type": "uint256"
        }
      ],
      "name": "Merge",
      "type": "event"
    },
    {
      "anonymous": false,
      "inputs": [
        {
          "indexed": true,
          "internalType": "address",
          "name": "candidate",
          "type": "address"
        },
        {
          "indexed": false,
          "internalType": "bytes32",
          "name": "bucketID",
          "type": "bytes32"
        }
      ],
      "name": "NewCandidate",
      "type": "event"
    },
    {
      "anonymous": false,
      "inputs": [
        {
          "indexed": false,
          "internalType": "address",
          "name": "account",
          "type": "address"
        }
      ],
      "name": "Paused",
      "type": "event"
    },
    {
      "anonymous": false,
      "inputs": [
        {
          "indexed": true,
          "internalType": "address",
          "name": "candidate",
          "type": "address"
        },
        {
          "indexed": false,
          "internalType": "bytes32",
          "name": "bucketID",
          "type": "bytes32"
        },
        {
          "indexed": false,
          "internalType": "uint256",
          "name": "timestamp",
          "type": "uint256"
        }
      ],
      "name": "RequestClost",
      "type": "event"
    },
    {
      "anonymous": false,
      "inputs": [
        {
          "indexed": true,
          "internalType": "bytes32",
          "name": "role",
          "type": "bytes32"
        },
        {
          "indexed": true,
          "internalType": "bytes32",
          "name": "previousAdminRole",
          "type": "bytes32"
        },
        {
          "indexed": true,
          "internalType": "bytes32",
          "name": "newAdminRole",
          "type": "bytes32"
        }
      ],
      "name": "RoleAdminChanged",
      "type": "event"
    },
    {
      "anonymous": false,
      "inputs": [
        {
          "indexed": true,
          "internalType": "bytes32",
          "name": "role",
          "type": "bytes32"
        },
        {
          "indexed": true,
          "internalType": "address",
          "name": "account",
          "type": "address"
        },
        {
          "indexed": true,
          "internalType": "address",
          "name": "sender",
          "type": "address"
        }
      ],
      "name": "RoleGranted",
      "type": "event"
    },
    {
      "anonymous": false,
      "inputs": [
        {
          "indexed": true,
          "internalType": "bytes32",
          "name": "role",
          "type": "bytes32"
        },
        {
          "indexed": true,
          "internalType": "address",
          "name": "account",
          "type": "address"
        },
        {
          "indexed": true,
          "internalType": "address",
          "name": "sender",
          "type": "address"
        }
      ],
      "name": "RoleRevoked",
      "type": "event"
    },
    {
      "anonymous": false,
      "inputs": [
        {
          "indexed": false,
          "internalType": "uint256",
          "name": "timestamp",
          "type": "uint256"
        }
      ],
      "name": "TerminalClost",
      "type": "event"
    },
    {
      "anonymous": false,
      "inputs": [
        {
          "indexed": true,
          "internalType": "address",
          "name": "from",
          "type": "address"
        },
        {
          "indexed": true,
          "internalType": "address",
          "name": "to",
          "type": "address"
        },
        {
          "indexed": false,
          "internalType": "uint256",
          "name": "value",
          "type": "uint256"
        }
      ],
      "name": "Transfer",
      "type": "event"
    },
    {
      "anonymous": false,
      "inputs": [
        {
          "indexed": true,
          "internalType": "bytes32",
          "name": "oldBucketID",
          "type": "bytes32"
        },
        {
          "indexed": true,
          "internalType": "bytes32",
          "name": "newBucketID",
          "type": "bytes32"
        },
        {
          "indexed": false,
          "internalType": "uint256",
          "name": "amount",
          "type": "uint256"
        }
      ],
      "name": "TransferFund",
      "type": "event"
    },
    {
      "anonymous": false,
      "inputs": [
        {
          "indexed": false,
          "internalType": "address",
          "name": "account",
          "type": "address"
        }
      ],
      "name": "Unpaused",
      "type": "event"
    },
    {
      "anonymous": false,
      "inputs": [
        {
          "indexed": true,
          "internalType": "address",
          "name": "oldCandidate",
          "type": "address"
        },
        {
          "indexed": false,
          "internalType": "address",
          "name": "newCandidate",
          "type": "address"
        }
      ],
      "name": "UpdateCandidate",
      "type": "event"
    },
    {
      "anonymous": false,
      "inputs": [
        {
          "indexed": true,
          "internalType": "address",
          "name": "account",
          "type": "address"
        },
        {
          "indexed": true,
          "internalType": "bytes32",
          "name": "bucketID",
          "type": "bytes32"
        },
        {
          "indexed": false,
          "internalType": "uint256",
          "name": "amount",
          "type": "uint256"
        }
      ],
      "name": "Withdraw",
      "type": "event"
    },
    {
      "inputs": [],
      "name": "CLOSE_DURATION",
      "outputs": [
        {
          "internalType": "uint256",
          "name": "",
          "type": "uint256"
        }
      ],
      "stateMutability": "view",
      "type": "function"
    },
    {
      "inputs": [],
      "name": "DEFAULT_ADMIN_ROLE",
      "outputs": [
        {
          "internalType": "bytes32",
          "name": "",
          "type": "bytes32"
        }
      ],
      "stateMutability": "view",
      "type": "function"
    },
    {
      "inputs": [],
      "name": "DOMAIN_SEPARATOR",
      "outputs": [
        {
          "internalType": "bytes32",
          "name": "",
          "type": "bytes32"
        }
      ],
      "stateMutability": "view",
      "type": "function"
    },
    {
      "inputs": [],
      "name": "MTRG",
      "outputs": [
        {
          "internalType": "contract IERC20Upgradeable",
          "name": "",
          "type": "address"
        }
      ],
      "stateMutability": "view",
      "type": "function"
    },
    {
      "inputs": [],
      "name": "allBuckets",
      "outputs": [
        {
          "components": [
            {
              "internalType": "bytes32",
              "name": "bucketID",
              "type": "bytes32"
            },
            {
              "internalType": "uint256",
              "name": "totalDeposit",
              "type": "uint256"
            },
            {
              "internalType": "uint256",
              "name": "locked",
              "type": "uint256"
            }
          ],
          "internalType": "struct StMTRG.Bucket[]",
          "name": "",
          "type": "tuple[]"
        }
      ],
      "stateMutability": "view",
      "type": "function"
    },
    {
      "inputs": [
        {
          "internalType": "address",
          "name": "owner",
          "type": "address"
        },
        {
          "internalType": "address",
          "name": "spender",
          "type": "address"
        }
      ],
      "name": "allowance",
      "outputs": [
        {
          "internalType": "uint256",
          "name": "",
          "type": "uint256"
        }
      ],
      "stateMutability": "view",
      "type": "function"
    },
    {
      "inputs": [
        {
          "internalType": "address",
          "name": "spender",
          "type": "address"
        },
        {
          "internalType": "uint256",
          "name": "amount",
          "type": "uint256"
        }
      ],
      "name": "approve",
      "outputs": [
        {
          "internalType": "bool",
          "name": "",
          "type": "bool"
        }
      ],
      "stateMutability": "nonpayable",
      "type": "function"
    },
    {
      "inputs": [
        {
          "internalType": "address",
          "name": "account",
          "type": "address"
        }
      ],
      "name": "balanceOf",
      "outputs": [
        {
          "internalType": "uint256",
          "name": "",
          "type": "uint256"
        }
      ],
      "stateMutability": "view",
      "type": "function"
    },
    {
      "inputs": [
        {
          "internalType": "bytes32",
          "name": "",
          "type": "bytes32"
        }
      ],
      "name": "bucketIDToCandidate",
      "outputs": [
        {
          "internalType": "address",
          "name": "",
          "type": "address"
        }
      ],
      "stateMutability": "view",
      "type": "function"
    },
    {
      "inputs": [
        {
          "internalType": "bytes32",
          "name": "bucketID",
          "type": "bytes32"
        }
      ],
      "name": "bucketValue",
      "outputs": [
        {
          "internalType": "uint256",
          "name": "",
          "type": "uint256"
        }
      ],
      "stateMutability": "view",
      "type": "function"
    },
    {
      "inputs": [
        {
          "internalType": "address",
          "name": "",
          "type": "address"
        }
      ],
      "name": "candidateIndex",
      "outputs": [
        {
          "internalType": "uint256",
          "name": "",
          "type": "uint256"
        }
      ],
      "stateMutability": "view",
      "type": "function"
    },
    {
      "inputs": [
        {
          "internalType": "address",
          "name": "",
          "type": "address"
        }
      ],
      "name": "candidateToBucket",
      "outputs": [
        {
          "internalType": "bytes32",
          "name": "bucketID",
          "type": "bytes32"
        },
        {
          "internalType": "uint256",
          "name": "totalDeposit",
          "type": "uint256"
        },
        {
          "internalType": "uint256",
          "name": "locked",
          "type": "uint256"
        }
      ],
      "stateMutability": "view",
      "type": "function"
    },
    {
      "inputs": [],
      "name": "candidates",
      "outputs": [
        {
          "internalType": "address[]",
          "name": "",
          "type": "address[]"
        }
      ],
      "stateMutability": "view",
      "type": "function"
    },
    {
      "inputs": [],
      "name": "closeTerminal",
      "outputs": [],
      "stateMutability": "nonpayable",
      "type": "function"
    },
    {
      "inputs": [],
      "name": "closeTimestamp",
      "outputs": [
        {
          "internalType": "uint256",
          "name": "",
          "type": "uint256"
        }
      ],
      "stateMutability": "view",
      "type": "function"
    },
    {
      "inputs": [],
      "name": "currentIndex",
      "outputs": [
        {
          "internalType": "uint256",
          "name": "",
          "type": "uint256"
        }
      ],
      "stateMutability": "view",
      "type": "function"
    },
    {
      "inputs": [],
      "name": "decimals",
      "outputs": [
        {
          "internalType": "uint8",
          "name": "",
          "type": "uint8"
        }
      ],
      "stateMutability": "view",
      "type": "function"
    },
    {
      "inputs": [
        {
          "internalType": "address",
          "name": "spender",
          "type": "address"
        },
        {
          "internalType": "uint256",
          "name": "subtractedValue",
          "type": "uint256"
        }
      ],
      "name": "decreaseAllowance",
      "outputs": [
        {
          "internalType": "bool",
          "name": "",
          "type": "bool"
        }
      ],
      "stateMutability": "nonpayable",
      "type": "function"
    },
    {
      "inputs": [
        {
          "internalType": "address",
          "name": "candidate",
          "type": "address"
        }
      ],
      "name": "deleteBucket",
      "outputs": [],
      "stateMutability": "nonpayable",
      "type": "function"
    },
    {
      "inputs": [
        {
          "internalType": "uint256",
          "name": "amount",
          "type": "uint256"
        }
      ],
      "name": "deposit",
      "outputs": [],
      "stateMutability": "nonpayable",
      "type": "function"
    },
    {
      "inputs": [],
      "name": "epoch",
      "outputs": [
        {
          "internalType": "uint256",
          "name": "",
          "type": "uint256"
        }
      ],
      "stateMutability": "view",
      "type": "function"
    },
    {
      "inputs": [],
      "name": "executeClose",
      "outputs": [],
      "stateMutability": "nonpayable",
      "type": "function"
    },
    {
      "inputs": [
        {
          "internalType": "bytes32",
          "name": "role",
          "type": "bytes32"
        }
      ],
      "name": "getRoleAdmin",
      "outputs": [
        {
          "internalType": "bytes32",
          "name": "",
          "type": "bytes32"
        }
      ],
      "stateMutability": "view",
      "type": "function"
    },
    {
      "inputs": [
        {
          "internalType": "bytes32",
          "name": "role",
          "type": "bytes32"
        },
        {
          "internalType": "uint256",
          "name": "index",
          "type": "uint256"
        }
      ],
      "name": "getRoleMember",
      "outputs": [
        {
          "internalType": "address",
          "name": "",
          "type": "address"
        }
      ],
      "stateMutability": "view",
      "type": "function"
    },
    {
      "inputs": [
        {
          "internalType": "bytes32",
          "name": "role",
          "type": "bytes32"
        }
      ],
      "name": "getRoleMemberCount",
      "outputs": [
        {
          "internalType": "uint256",
          "name": "",
          "type": "uint256"
        }
      ],
      "stateMutability": "view",
      "type": "function"
    },
    {
      "inputs": [
        {
          "internalType": "bytes32",
          "name": "role",
          "type": "bytes32"
        },
        {
          "internalType": "address",
          "name": "account",
          "type": "address"
        }
      ],
      "name": "grantRole",
      "outputs": [],
      "stateMutability": "nonpayable",
      "type": "function"
    },
    {
      "inputs": [
        {
          "internalType": "bytes32",
          "name": "role",
          "type": "bytes32"
        },
        {
          "internalType": "address",
          "name": "account",
          "type": "address"
        }
      ],
      "name": "hasRole",
      "outputs": [
        {
          "internalType": "bool",
          "name": "",
          "type": "bool"
        }
      ],
      "stateMutability": "view",
      "type": "function"
    },
    {
      "inputs": [],
      "name": "inTerminal",
      "outputs": [
        {
          "internalType": "bool",
          "name": "",
          "type": "bool"
        }
      ],
      "stateMutability": "view",
      "type": "function"
    },
    {
      "inputs": [
        {
          "internalType": "address",
          "name": "spender",
          "type": "address"
        },
        {
          "internalType": "uint256",
          "name": "addedValue",
          "type": "uint256"
        }
      ],
      "name": "increaseAllowance",
      "outputs": [
        {
          "internalType": "bool",
          "name": "",
          "type": "bool"
        }
      ],
      "stateMutability": "nonpayable",
      "type": "function"
    },
    {
      "inputs": [
        {
          "internalType": "address",
          "name": "admin",
          "type": "address"
        },
        {
          "internalType": "contract IERC20Upgradeable",
          "name": "_MTRG",
          "type": "address"
        },
        {
          "internalType": "address",
          "name": "scriptEngineAddr",
          "type": "address"
        }
      ],
      "name": "initialize",
      "outputs": [],
      "stateMutability": "nonpayable",
      "type": "function"
    },
    {
      "inputs": [],
      "name": "isClose",
      "outputs": [
        {
          "internalType": "bool",
          "name": "",
          "type": "bool"
        }
      ],
      "stateMutability": "view",
      "type": "function"
    },
    {
      "inputs": [],
      "name": "name",
      "outputs": [
        {
          "internalType": "string",
          "name": "",
          "type": "string"
        }
      ],
      "stateMutability": "view",
      "type": "function"
    },
    {
      "inputs": [
        {
          "internalType": "address",
          "name": "candidate",
          "type": "address"
        }
      ],
      "name": "newCandidate",
      "outputs": [],
      "stateMutability": "nonpayable",
      "type": "function"
    },
    {
      "inputs": [
        {
          "internalType": "address",
          "name": "owner",
          "type": "address"
        }
      ],
      "name": "nonces",
      "outputs": [
        {
          "internalType": "uint256",
          "name": "",
          "type": "uint256"
        }
      ],
      "stateMutability": "view",
      "type": "function"
    },
    {
      "inputs": [],
      "name": "pause",
      "outputs": [],
      "stateMutability": "nonpayable",
      "type": "function"
    },
    {
      "inputs": [],
      "name": "paused",
      "outputs": [
        {
          "internalType": "bool",
          "name": "",
          "type": "bool"
        }
      ],
      "stateMutability": "view",
      "type": "function"
    },
    {
      "inputs": [
        {
          "internalType": "address",
          "name": "owner",
          "type": "address"
        },
        {
          "internalType": "address",
          "name": "spender",
          "type": "address"
        },
        {
          "internalType": "uint256",
          "name": "value",
          "type": "uint256"
        },
        {
          "internalType": "uint256",
          "name": "deadline",
          "type": "uint256"
        },
        {
          "internalType": "uint8",
          "name": "v",
          "type": "uint8"
        },
        {
          "internalType": "bytes32",
          "name": "r",
          "type": "bytes32"
        },
        {
          "internalType": "bytes32",
          "name": "s",
          "type": "bytes32"
        }
      ],
      "name": "permit",
      "outputs": [],
      "stateMutability": "nonpayable",
      "type": "function"
    },
    {
      "inputs": [],
      "name": "rebase",
      "outputs": [],
      "stateMutability": "nonpayable",
      "type": "function"
    },
    {
      "inputs": [
        {
          "internalType": "bytes32",
          "name": "role",
          "type": "bytes32"
        },
        {
          "internalType": "address",
          "name": "account",
          "type": "address"
        }
      ],
      "name": "renounceRole",
      "outputs": [],
      "stateMutability": "nonpayable",
      "type": "function"
    },
    {
      "inputs": [],
      "name": "requestClose",
      "outputs": [],
      "stateMutability": "nonpayable",
      "type": "function"
    },
    {
      "inputs": [
        {
          "internalType": "bytes32",
          "name": "role",
          "type": "bytes32"
        },
        {
          "internalType": "address",
          "name": "account",
          "type": "address"
        }
      ],
      "name": "revokeRole",
      "outputs": [],
      "stateMutability": "nonpayable",
      "type": "function"
    },
    {
      "inputs": [
        {
          "internalType": "address",
          "name": "account",
          "type": "address"
        }
      ],
      "name": "setBlackList",
      "outputs": [],
      "stateMutability": "nonpayable",
      "type": "function"
    },
    {
      "inputs": [
        {
          "internalType": "uint256",
          "name": "_share",
          "type": "uint256"
        }
      ],
      "name": "shareToValue",
      "outputs": [
        {
          "internalType": "uint256",
          "name": "",
          "type": "uint256"
        }
      ],
      "stateMutability": "view",
      "type": "function"
    },
    {
      "inputs": [
        {
          "internalType": "address",
          "name": "account",
          "type": "address"
        }
      ],
      "name": "shares",
      "outputs": [
        {
          "internalType": "uint256",
          "name": "",
          "type": "uint256"
        }
      ],
      "stateMutability": "view",
      "type": "function"
    },
    {
      "inputs": [
        {
          "internalType": "bytes4",
          "name": "interfaceId",
          "type": "bytes4"
        }
      ],
      "name": "supportsInterface",
      "outputs": [
        {
          "internalType": "bool",
          "name": "",
          "type": "bool"
        }
      ],
      "stateMutability": "view",
      "type": "function"
    },
    {
      "inputs": [],
      "name": "symbol",
      "outputs": [
        {
          "internalType": "string",
          "name": "",
          "type": "string"
        }
      ],
      "stateMutability": "view",
      "type": "function"
    },
    {
      "inputs": [],
      "name": "totalShares",
      "outputs": [
        {
          "internalType": "uint256",
          "name": "",
          "type": "uint256"
        }
      ],
      "stateMutability": "view",
      "type": "function"
    },
    {
      "inputs": [],
      "name": "totalSupply",
      "outputs": [
        {
          "internalType": "uint256",
          "name": "",
          "type": "uint256"
        }
      ],
      "stateMutability": "view",
      "type": "function"
    },
    {
      "inputs": [
        {
          "internalType": "address",
          "name": "to",
          "type": "address"
        },
        {
          "internalType": "uint256",
          "name": "amount",
          "type": "uint256"
        }
      ],
      "name": "transfer",
      "outputs": [
        {
          "internalType": "bool",
          "name": "",
          "type": "bool"
        }
      ],
      "stateMutability": "nonpayable",
      "type": "function"
    },
    {
      "inputs": [
        {
          "internalType": "address",
          "name": "from",
          "type": "address"
        },
        {
          "internalType": "address",
          "name": "to",
          "type": "address"
        },
        {
          "internalType": "uint256",
          "name": "amount",
          "type": "uint256"
        }
      ],
      "name": "transferFrom",
      "outputs": [
        {
          "internalType": "bool",
          "name": "",
          "type": "bool"
        }
      ],
      "stateMutability": "nonpayable",
      "type": "function"
    },
    {
      "inputs": [
        {
          "internalType": "address",
          "name": "candidate",
          "type": "address"
        }
      ],
      "name": "transferFund",
      "outputs": [],
      "stateMutability": "nonpayable",
      "type": "function"
    },
    {
      "inputs": [],
      "name": "unpause",
      "outputs": [],
      "stateMutability": "nonpayable",
      "type": "function"
    },
    {
      "inputs": [
        {
          "internalType": "address",
          "name": "oldCandidateAddr",
          "type": "address"
        },
        {
          "internalType": "address",
          "name": "newCandidateAddr",
          "type": "address"
        }
      ],
      "name": "updateCandidate",
      "outputs": [],
      "stateMutability": "nonpayable",
      "type": "function"
    },
    {
      "inputs": [
        {
          "internalType": "uint256",
          "name": "_value",
          "type": "uint256"
        }
      ],
      "name": "valueToShare",
      "outputs": [
        {
          "internalType": "uint256",
          "name": "",
          "type": "uint256"
        }
      ],
      "stateMutability": "view",
      "type": "function"
    },
    {
      "inputs": [
        {
          "internalType": "uint256",
          "name": "amount",
          "type": "uint256"
        },
        {
          "internalType": "address",
          "name": "recipient",
          "type": "address"
        }
      ],
      "name": "withdraw",
      "outputs": [],
      "stateMutability": "nonpayable",
      "type": "function"
    },
    {
      "inputs": [
        {
          "internalType": "address",
          "name": "recipient",
          "type": "address"
        }
      ],
      "name": "withdrawAll",
      "outputs": [],
      "stateMutability": "nonpayable",
      "type": "function"
    }
  ],
  "bytecode": "0x608060405260006101945534801561001657600080fd5b50614999806100266000396000f3fe608060405234801561001057600080fd5b50600436106103775760003560e01c806372700241116101d3578063af14052c11610104578063d547741f116100a2578063f5e130af1161007c578063f5e130af146107c6578063f9776bcb146107d9578063fa09e630146107ee578063fdb4fb0e1461080157600080fd5b8063d547741f14610750578063dd62ed3e14610763578063e461a47d1461079c57600080fd5b8063ca15c873116100de578063ca15c873146106ed578063cd4558fd14610700578063ce7c2ac214610713578063d505accf1461073d57600080fd5b8063af14052c146106bf578063b6b55f25146106c7578063c0c53b8b146106da57600080fd5b806395d89b4111610171578063a217fddf1161014b578063a217fddf14610689578063a457c2d714610691578063a6536e75146106a4578063a9059cbb146106ac57600080fd5b806395d89b411461065b5780639625a041146106635780639748bf5b1461067657600080fd5b806388b0e2a4116101ad57806388b0e2a4146105d9578063900cf0cf146106055780639010d07c1461060f57806391d148541461062257600080fd5b806372700241146105ab5780637ecebe00146105be5780638456cb59146105d157600080fd5b80633644e515116102ad5780634b64fcd11161024b5780635dc4a466116102255780635dc4a4661461055d57806361e3fb69146105705780636f0470aa1461058357806370a082311461059857600080fd5b80634b64fcd114610536578063577262ab146105495780635c975abb1461055157600080fd5b80633a98ef39116102875780633a98ef391461050b5780633e17087d146105135780633f4ba83a1461051b578063441130d51461052357600080fd5b80633644e515146104dd57806336568abe146104e557806339509351146104f857600080fd5b806318160ddd1161031a578063248a9ca3116102f4578063248a9ca31461048e57806326987b60146104b15780632f2ff15d146104bb578063313ce567146104ce57600080fd5b806318160ddd1461045257806322735da81461045a57806323b872dd1461047b57600080fd5b806306fdde031161035657806306fdde03146103d1578063087bf506146103e6578063095ea7b3146104315780631338f4931461044457600080fd5b8062f714ce1461037c57806301ffc9a714610391578063052d7c00146103b9575b600080fd5b61038f61038a366004614470565b61080b565b005b6103a461039f3660046144a0565b61086f565b60405190151581526020015b60405180910390f35b6103c36101965481565b6040519081526020016103b0565b6103d961089a565b6040516103b091906144f6565b6104166103f4366004614529565b6101996020526000908152604090208054600182015460029092015490919083565b604080519384526020840192909252908201526060016103b0565b6103a461043f366004614546565b61092c565b61019e546103a49060ff1681565b6103c3610944565b6103c3610468366004614529565b61019c6020526000908152604090205481565b6103a4610489366004614572565b6109c3565b6103c361049c3660046145b3565b600090815260fe602052604090206001015490565b6103c361019d5481565b61038f6104c9366004614470565b6109e7565b604051601281526020016103b0565b6103c3610a11565b61038f6104f3366004614470565b610a1b565b6103a4610506366004614546565b610aa3565b6103c3610ae2565b61038f610af0565b61038f610cb6565b6103c36105313660046145b3565b610ccc565b6103c36105443660046145b3565b610e0f565b61038f610e1a565b6101625460ff166103a4565b61038f61056b366004614529565b610fa5565b61038f61057e366004614529565b6113c4565b61058b6117c3565b6040516103b091906145cc565b6103c36105a6366004614529565b611825565b61038f6105b9366004614529565b611848565b6103c36105cc366004614529565b61187e565b61038f61189c565b61019f546105ed906001600160a01b031681565b6040516001600160a01b0390911681526020016103b0565b6103c36101955481565b6105ed61061d366004614619565b6118af565b6103a4610630366004614470565b600091825260fe602090815260408084206001600160a01b0393909316845291905290205460ff1690565b6103d96118c8565b61038f61067136600461463b565b6118d7565b6103c36106843660046145b3565b611b32565b6103c3600081565b6103a461069f366004614546565b611ba7565b61038f611c51565b6103a46106ba366004614546565b611e88565b61038f611e96565b61038f6106d53660046145b3565b6120da565b61038f6106e8366004614669565b6123d2565b6103c36106fb3660046145b3565b61270d565b61038f61070e366004614529565b612725565b6103c3610721366004614529565b6001600160a01b03166000908152610197602052604090205490565b61038f61074b3660046146b4565b61290f565b61038f61075e366004614470565b612a73565b6103c361077136600461463b565b6001600160a01b03918216600090815260346020908152604080832093909416825291909152205490565b6105ed6107aa3660046145b3565b61019a602052600090815260409020546001600160a01b031681565b61019e546103a490610100900460ff1681565b6107e1612a98565b6040516103b0919061472b565b61038f6107fc366004614529565b612bad565b6103c362278d0081565b610813612c16565b61019e54610100900460ff16156108605760405162461bcd60e51b815260206004820152600c60248201526b696e207465726d696e616c2160a01b60448201526064015b60405180910390fd5b61086b338383612c6c565b5050565b60006001600160e01b03198216635a05180f60e01b14806108945750610894826130da565b92915050565b6060603680546108a990614784565b80601f01602080910402602001604051908101604052809291908181526020018280546108d590614784565b80156109225780601f106108f757610100808354040283529160200191610922565b820191906000526020600020905b81548152906001019060200180831161090557829003601f168201915b5050505050905090565b60003361093a81858561310f565b5060019392505050565b600061019e60029054906101000a90046001600160a01b03166001600160a01b0316633a8dd82a6040518163ffffffff1660e01b8152600401602060405180830381865afa15801561099a573d6000803e3d6000fd5b505050506040513d601f19601f820116820180604052508101906109be91906147b9565b905090565b6000336109d1858285613233565b6109dc8585856132bf565b506001949350505050565b600082815260fe6020526040902060010154610a0281613539565b610a0c8383613543565b505050565b60006109be613566565b6001600160a01b0381163314610a995760405162461bcd60e51b815260206004820152602f60248201527f416363657373436f6e74726f6c3a2063616e206f6e6c792072656e6f756e636560448201527f20726f6c657320666f722073656c6600000000000000000000000000000000006064820152608401610857565b61086b82826135e1565b3360008181526034602090815260408083206001600160a01b038716845290915281205490919061093a9082908690610add9087906147e8565b61310f565b60006109be61019454613604565b6000610afb81613539565b61019e54610100900460ff16610b535760405162461bcd60e51b815260206004820152601060248201527f6e6f7420696e207465726d696e616c21000000000000000000000000000000006044820152606401610857565b6000610199600061019b61019d5481548110610b7157610b71614800565b60009182526020808320909101546001600160a01b031683528281019390935260409182018120825160608101845281548152600182015494810194909452600201549183019190915261019b8054929350610199928290610bd557610bd5614800565b60009182526020808320909101546001600160a01b031683528281019390935260409182018120818155600181018290556002018190558351815261019a909252812080546001600160a01b031916905561019b805461019c9291908290610c3f57610c3f614800565b60009182526020808320909101546001600160a01b031683528201929092526040018120819055610c739061019b906143a4565b61019e805461ff00191690556040514281527f211174b048d805314ec4df2d45c8735f9d1fe669c8117585a74e853b66bc524d9060200160405180910390a15050565b6000610cc181613539565b610cc9613627565b50565b61019f546040516370a0823160e01b815230600482015260009182916001600160a01b03909116906370a0823190602401602060405180830381865afa158015610d1a573d6000803e3d6000fd5b505050506040513d601f19601f82011682018060405250810190610d3e91906147b9565b905060005b61019b54811015610de6576000610199600061019b8481548110610d6957610d69614800565b60009182526020808320909101546001600160a01b0316835282810193909352604091820190208151606081018352815481526001820154938101849052600290910154918101919091529150610dc090846147e8565b9250806040015183610dd291906147e8565b92505080610ddf90614816565b9050610d43565b5061019454610e0890610e0390610dfd868561367a565b906136be565b6136fd565b9392505050565b600061089482613718565b6000610e2581613539565b61019e5460ff1615610e655760405162461bcd60e51b8152602060048201526009602482015268697320636c6f73652160b81b6044820152606401610857565b61019b54600114610eb85760405162461bcd60e51b815260206004820152601960248201527f63616e64696461746573206973206d6f7265207468616e2031000000000000006044820152606401610857565b6000610199600061019b600081548110610ed457610ed4614800565b60009182526020808320909101546001600160a01b0316835282810193909352604091820181208251606081018452815481526001828101549582019590955260029091015492810192909252426101965561019e805460ff191690931790925561019b80549193509190610f4b57610f4b614800565b6000918252602091829020015482516101965460408051928352938201526001600160a01b03909116917f1e757b7f9e12d98e6039723354e852636180e846c5d6d06f2d336d673f1e5f0891015b60405180910390a25050565b6000610fb081613539565b61019e5460ff1615610ff05760405162461bcd60e51b8152602060048201526009602482015268697320636c6f73652160b81b6044820152606401610857565b6001600160a01b0382166110375760405162461bcd60e51b815260206004820152600e60248201526d61646472657373206572726f722160901b6044820152606401610857565b6001600160a01b03821660009081526101996020526040902080541561109f5760405162461bcd60e51b815260206004820152601260248201527f63616e64696461746520657873697465642100000000000000000000000000006044820152606401610857565b61019f546040516323b872dd60e01b8152336004820181905230602483015268056bc75e2d6310000060448301819052909290916001600160a01b03909116906323b872dd906064016020604051808303816000875af1158015611107573d6000803e3d6000fd5b505050506040513d601f19601f8201168201806040525081019061112b9190614831565b5061019e5460405163183077b960e11b81526001600160a01b038781166004830152602482018490526000926201000090041690633060ef72906044016020604051808303816000875af1158015611187573d6000803e3d6000fd5b505050506040513d601f19601f820116820180604052508101906111ab91906147b9565b9050818460020160008282546111c191906147e8565b909155505080845561019b80546001810182557f24aeb2cd7b2cf328da485c24efd7197e86108b05bbc525c1db80c96ffdf7e1290180546001600160a01b0389166001600160a01b031991821681179092559154600082815261019c602090815260408083209390935585825261019a90528190208054909316821790925590517fd5b232e8b0b3cae5597d617fedb01eab27bcfa4a0f7491761e81dda85fbaae8f906112719084815260200190565b60405180910390a2610194546112d6576001600160a01b03831660009081526101976020526040812080548492906112aa9084906147e8565b909155506112b99050826136fd565b61019460008282546112cb91906147e8565b909155506113379050565b60006112e183613718565b6001600160a01b0385166000908152610197602052604081208054929350839290919061130f9084906147e8565b9091555061131e9050816136fd565b610194600082825461133091906147e8565b9091555050505b6040518281526001600160a01b038416906000907fddf252ad1be2c89b69c2b068fc378daa952ba7f163c4a11628f55a4df523b3ef9060200160405180910390a380836001600160a01b03167f19dacbf83c5de6658e14cbf7bcae5c15eca2eedecf1c66fbca928e4d351bea0f846040516113b491815260200190565b60405180910390a3505050505050565b60006113cf81613539565b61019e5460ff161561140f5760405162461bcd60e51b8152602060048201526009602482015268697320636c6f73652160b81b6044820152606401610857565b61019b546001106114625760405162461bcd60e51b815260206004820152601060248201527f6f6e6c7920312063616e646964617465000000000000000000000000000000006044820152606401610857565b6001600160a01b038216600090815261019c6020526040812054906101998161019b61148f600186614853565b8154811061149f5761149f614800565b60009182526020808320909101546001600160a01b03168352820192909252604001812061019b549092508310156114d757826114da565b60005b90506000610199600061019b84815481106114f7576114f7614800565b60009182526020808320909101546001600160a01b03168352820192909252604001812060028501546001860154919350611531916147e8565b905060008460010181905550600084600201819055508082600101600082825461155b91906147e8565b909155505061019e5484548354604051630eb4bc5160e31b81526004810192909252602482015260448101839052620100009091046001600160a01b0316906375a5e28890606401600060405180830381600087803b1580156115bd57600080fd5b505af11580156115d1573d6000803e3d6000fd5b50508554600090815261019a6020908152604080832080546001600160a01b03191690556001600160a01b038c16835261019982528083208381556001810184905560020183905561019b5461019c90925290912054101591506117309050576001600160a01b038716600090815261019c6020819052604082205461019b805491939161166190600190614853565b8154811061167157611671614800565b60009182526020808320909101546001600160a01b0316835282019290925260400190205561019b80546116a790600190614853565b815481106116b7576116b7614800565b60009182526020808320909101546001600160a01b038a8116845261019c90925260409092205491169061019b906116f190600190614853565b8154811061170157611701614800565b9060005260206000200160006101000a8154816001600160a01b0302191690836001600160a01b031602179055505b61019b8054806117425761174261486a565b60008281526020808220600019908401810180546001600160a01b03191690559092019092556001600160a01b038916825261019c81526040808320929092558354865492518481529092917fdeb7152c9809e10154676cd02129483d7140d4ff6028322da5f116411450037491015b60405180910390a350505050505050565b606061019b80548060200260200160405190810160405280929190818152602001828054801561092257602002820191906000526020600020905b81546001600160a01b031681526001909101906020018083116117fe575050505050905090565b6001600160a01b0381166000908152610197602052604081205461089490610ccc565b600061185381613539565b506001600160a01b0316600090815261019860205260409020805460ff19811660ff90911615179055565b6001600160a01b038116600090815260996020526040812054610894565b60006118a781613539565b610cc9613855565b600082815261013060205260408120610e089083613893565b6060603780546108a990614784565b60006118e281613539565b61019e5460ff16156119225760405162461bcd60e51b8152602060048201526009602482015268697320636c6f73652160b81b6044820152606401610857565b6001600160a01b0382166119695760405162461bcd60e51b815260206004820152600e60248201526d61646472657373206572726f722160901b6044820152606401610857565b6001600160a01b0383811660009081526101996020908152604091829020825160608101845281548082526001830154938201939093526002909101548184015261019e5492516304a8292160e41b815260048101929092528584166024830152926201000090920490911690634a82921090604401600060405180830381600087803b1580156119f957600080fd5b505af1158015611a0d573d6000803e3d6000fd5b5050506001600160a01b03808516600081815261019960209081526040808320875180825583890151600180840191909155838a0151600290930192909255845261019a835281842080546001600160a01b031916909517909455938916825261019c905291909120549150849061019b90611a899084614853565b81548110611a9957611a99614800565b600091825260208083209190910180546001600160a01b0319166001600160a01b0394851617905586831680835261019c8252604080842086905593891680845284842084905561019983528484208481556001810185905560020193909355925192835290917fce3795db01b63741359a0348738a903225ccd1dce63f8acd66c6db3317285f27910160405180910390a25050505050565b61019e54604051639748bf5b60e01b8152600481018390526000916201000090046001600160a01b031690639748bf5b90602401602060405180830381865afa158015611b83573d6000803e3d6000fd5b505050506040513d601f19601f8201168201806040525081019061089491906147b9565b3360008181526034602090815260408083206001600160a01b038716845290915281205490919083811015611c445760405162461bcd60e51b815260206004820152602560248201527f45524332303a2064656372656173656420616c6c6f77616e63652062656c6f7760448201527f207a65726f0000000000000000000000000000000000000000000000000000006064820152608401610857565b6109dc828686840361310f565b6000611c5c81613539565b61019e5460ff16611c9b5760405162461bcd60e51b8152602060048201526009602482015268697320636c6f73652160b81b6044820152606401610857565b61019e54610100900460ff1615611ce35760405162461bcd60e51b815260206004820152600c60248201526b696e207465726d696e616c2160a01b6044820152606401610857565b6000610199600061019b600081548110611cff57611cff614800565b60009182526020808320909101546001600160a01b031683528281019390935260409182019020815160608101835281548152600182015493810193909352600201549082015261019654909150611d5b9062278d00906147e8565b421015611daa5760405162461bcd60e51b815260206004820152600f60248201527f434c4f53455f4455524154494f4e2100000000000000000000000000000000006044820152606401610857565b61019e805461010061ff0019909116179081905581516040516377d7f91360e01b81526004810191909152620100009091046001600160a01b0316906377d7f91390602401600060405180830381600087803b158015611e0957600080fd5b505af1158015611e1d573d6000803e3d6000fd5b5050505061019b600081548110611e3657611e36614800565b6000918252602091829020015482516101965460408051928352938201526001600160a01b03909116917f9da301bb415bd639d2a2c4e5d364bd6ea2f179effc5890b3cd39de25a5e79f489101610f99565b60003361093a8185856132bf565b6000611ea181613539565b61019e5460ff1615611ee15760405162461bcd60e51b8152602060048201526009602482015268697320636c6f73652160b81b6044820152606401610857565b61019b5461019d541015611ef85761019d54611efb565b60005b61019d819055506000610199600061019b61019d5481548110611f2057611f20614800565b60009182526020808320909101546001600160a01b031683528201929092526040019020805490915080611f5357505050565b61019f546040516370a0823160e01b81523060048201526000916001600160a01b0316906370a0823190602401602060405180830381865afa158015611f9d573d6000803e3d6000fd5b505050506040513d601f19601f82011682018060405250810190611fc191906147b9565b905080156120345761019e54604051626de11b60e61b81526004810184905260248101839052620100009091046001600160a01b031690631b7846c090604401600060405180830381600087803b15801561201b57600080fd5b505af115801561202f573d6000803e3d6000fd5b505050505b8083600101600082825461204891906147e8565b9091555050610195805490600061205e83614816565b909155505061019554600083815261019a60205260409020546001600160a01b0316837f718b31b13d461b57805228117e5ad834c401532de2bea40d37cf85cbea57e1ff6120aa610944565b60405190815260200160405180910390a4600161019d60008282546120cf91906147e8565b909155505050505050565b6120e2612c16565b61019e5460ff16156121225760405162461bcd60e51b8152602060048201526009602482015268697320636c6f73652160b81b6044820152606401610857565b61019b5461019d5410156121395761019d5461213c565b60005b61019d819055506000610199600061019b61019d548154811061216157612161614800565b60009182526020808320909101546001600160a01b031683528201929092526040019020610194549091506121d85760405162461bcd60e51b815260206004820152600f60248201527f746f74616c536861726573203d203000000000000000000000000000000000006044820152606401610857565b61019f546040516323b872dd60e01b8152336004820181905230602483015260448201859052916001600160a01b0316906323b872dd906064016020604051808303816000875af1158015612231573d6000803e3d6000fd5b505050506040513d601f19601f820116820180604052508101906122559190614831565b5061019e548254604051626de11b60e61b8152600481019190915260248101859052620100009091046001600160a01b031690631b7846c090604401600060405180830381600087803b1580156122ab57600080fd5b505af11580156122bf573d6000803e3d6000fd5b5050505060006122ce84613718565b6001600160a01b038316600090815261019760205260408120805492935083929091906122fc9084906147e8565b9091555061230b9050816136fd565b610194600082825461231d91906147e8565b925050819055508383600101600082825461233891906147e8565b90915550506040518481526001600160a01b038316906000907fddf252ad1be2c89b69c2b068fc378daa952ba7f163c4a11628f55a4df523b3ef9060200160405180910390a382546040518581526001600160a01b038416907f19dacbf83c5de6658e14cbf7bcae5c15eca2eedecf1c66fbca928e4d351bea0f9060200160405180910390a3600161019d60008282546120cf91906147e8565b600054610100900460ff16158080156123f25750600054600160ff909116105b8061240c5750303b15801561240c575060005460ff166001145b61247e5760405162461bcd60e51b815260206004820152602e60248201527f496e697469616c697a61626c653a20636f6e747261637420697320616c72656160448201527f647920696e697469616c697a65640000000000000000000000000000000000006064820152608401610857565b6000805460ff1916600117905580156124a1576000805461ff0019166101001790555b6001600160a01b0384166124f75760405162461bcd60e51b815260206004820152601460248201527f61646d696e2061646472657373206572726f72210000000000000000000000006044820152606401610857565b6001600160a01b03831661254d5760405162461bcd60e51b815260206004820152601360248201527f4d5452472061646472657373206572726f7221000000000000000000000000006044820152606401610857565b6001600160a01b0382166125a35760405162461bcd60e51b815260206004820152601f60248201527f736372697074456e67696e65416464722061646472657373206572726f7221006044820152606401610857565b6125e16040518060400160405280600a81526020017f73744d54524720312e300000000000000000000000000000000000000000000081525061389f565b6126556040518060400160405280600b81526020017f5374616b6564204d5452470000000000000000000000000000000000000000008152506040518060400160405280600681526020017f73744d545247000000000000000000000000000000000000000000000000000081525061392d565b61265d6139a2565b612668600085613a15565b61019e80547fffffffffffffffffffff0000000000000000000000000000000000000000ffff16620100006001600160a01b03858116919091029190911790915561019f80546001600160a01b0319169185169190911790558015612707576000805461ff0019169055604051600181527f7f26b83ff96e1f2b6a682f133852f6798a09c465da95921460cefb38474024989060200160405180910390a15b50505050565b60008181526101306020526040812061089490613a1f565b600061273081613539565b61019e5460ff16156127705760405162461bcd60e51b8152602060048201526009602482015268697320636c6f73652160b81b6044820152606401610857565b6001600160a01b038216600090815261019c6020526040812054906101998161019b61279d600186614853565b815481106127ad576127ad614800565b60009182526020808320909101546001600160a01b03168352820192909252604001812061019b549092508310156127e557826127e8565b60005b90506000610199600061019b848154811061280557612805614800565b60009182526020808320909101546001600160a01b0316835282019290925260400190206001840154909150801561290657600084600101819055508082600101600082825461285591906147e8565b909155505061019e5484548354604051630395f3bd60e51b81526004810192909252602482015260448101839052620100009091046001600160a01b0316906372be77a090606401600060405180830381600087803b1580156128b757600080fd5b505af11580156128cb573d6000803e3d6000fd5b50508354865460405185815291935091507f5ae6812dea9e8b5a7b9396603fc59d25e1e32156abbc2df381707d824cd45dca906020016117b2565b50505050505050565b8342111561295f5760405162461bcd60e51b815260206004820152601d60248201527f45524332305065726d69743a206578706972656420646561646c696e650000006044820152606401610857565b60007f6e71edae12b1b97f4d1f60370fef10105fa2faae0126114a169c64845d6126c988888861298e8c613a29565b6040805160208101969096526001600160a01b0394851690860152929091166060840152608083015260a082015260c0810186905260e00160405160208183030381529060405280519060200120905060006129e982613a4f565b905060006129f982878787613a9d565b9050896001600160a01b0316816001600160a01b031614612a5c5760405162461bcd60e51b815260206004820152601e60248201527f45524332305065726d69743a20696e76616c6964207369676e617475726500006044820152606401610857565b612a678a8a8a61310f565b50505050505050505050565b600082815260fe6020526040902060010154612a8e81613539565b610a0c83836135e1565b61019b5460609060008167ffffffffffffffff811115612aba57612aba614880565b604051908082528060200260200182016040528015612b0557816020015b6040805160608101825260008082526020808301829052928201528252600019909201910181612ad85790505b50905060005b61019b54811015612ba657610199600061019b8381548110612b2f57612b2f614800565b60009182526020808320909101546001600160a01b03168352828101939093526040918201902081516060810183528154815260018201549381019390935260020154908201528251839083908110612b8a57612b8a614800565b602002602001018190525080612b9f90614816565b9050612b0b565b5092915050565b612bb5612c16565b61019e54610100900460ff1615612bfd5760405162461bcd60e51b815260206004820152600c60248201526b696e207465726d696e616c2160a01b6044820152606401610857565b336000612c0982611825565b9050610a0c828285612c6c565b6101625460ff1615612c6a5760405162461bcd60e51b815260206004820152601060248201527f5061757361626c653a20706175736564000000000000000000000000000000006044820152606401610857565b565b6000612c7783613718565b6001600160a01b0385166000908152610197602052604090205490915081811015612cef5760405162461bcd60e51b815260206004820152602260248201527f45524332303a206275726e20616d6f756e7420657863656564732062616c616e604482015261636560f01b6064820152608401610857565b6001600160a01b0385166000908152610198602052604090205460ff1615612d595760405162461bcd60e51b815260206004820152601860248201527f6163636f756e7420697320696e20626c61636b206c69737400000000000000006044820152606401610857565b6001600160a01b0385166000908152610197602052604090208282039055612d80826136fd565b61019480549190910390556040518481526000906001600160a01b038716907fddf252ad1be2c89b69c2b068fc378daa952ba7f163c4a11628f55a4df523b3ef9060200160405180910390a361019b5461019d541015612de35761019d54612de6565b60005b61019d5560005b61019b54811015612f8b576000610199600061019b61019d5481548110612e1657612e16614800565b60009182526020808320909101546001600160a01b03168352820192909252604001812060018101549092508710612e6657506001810154612e588188614853565b600060018401559650612e87565b86905086826001016000828254612e7d9190614853565b9091555060009750505b61019e548254604051632b0fcbdf60e11b81526004810191909152602481018390526001600160a01b038881166044830152620100009092049091169063561f97be906064016020604051808303816000875af1158015612eec573d6000803e3d6000fd5b505050506040513d601f19601f82011682018060405250810190612f1091906147b9565b5081546040518281526001600160a01b038a16907fc3ded2be7db21b1af963f267d27750e4a15f174547d88b886b9bda43e2c6fa329060200160405180910390a386612f5d575050612f8b565b600161019d6000828254612f7191906147e8565b92505081905550505080612f8490614816565b9050612ded565b5083156130d35761019f546040516370a0823160e01b81523060048201526000916001600160a01b0316906370a0823190602401602060405180830381865afa158015612fdc573d6000803e3d6000fd5b505050506040513d601f19601f8201168201806040525081019061300091906147b9565b61019f549091506001600160a01b031663a9059cbb858784106130235787613025565b835b6040516001600160e01b031960e085901b1681526001600160a01b03909216600483015260248201526044016020604051808303816000875af1158015613070573d6000803e3d6000fd5b505050506040513d601f19601f820116820180604052508101906130949190614831565b506040518581526000906001600160a01b038816907fc3ded2be7db21b1af963f267d27750e4a15f174547d88b886b9bda43e2c6fa32906020016113b4565b5050505050565b60006001600160e01b03198216637965db0b60e01b148061089457506301ffc9a760e01b6001600160e01b0319831614610894565b6001600160a01b0383166131715760405162461bcd60e51b8152602060048201526024808201527f45524332303a20617070726f76652066726f6d20746865207a65726f206164646044820152637265737360e01b6064820152608401610857565b6001600160a01b0382166131d25760405162461bcd60e51b815260206004820152602260248201527f45524332303a20617070726f766520746f20746865207a65726f206164647265604482015261737360f01b6064820152608401610857565b6001600160a01b0383811660008181526034602090815260408083209487168084529482529182902085905590518481527f8c5be1e5ebec7d5bd14f71427d1e84f3dd0314c0f7b2291e5b200ac8c7c3b925910160405180910390a3505050565b6001600160a01b03838116600090815260346020908152604080832093861683529290522054600019811461270757818110156132b25760405162461bcd60e51b815260206004820152601d60248201527f45524332303a20696e73756666696369656e7420616c6c6f77616e63650000006044820152606401610857565b612707848484840361310f565b6001600160a01b03831661333b5760405162461bcd60e51b815260206004820152602560248201527f45524332303a207472616e736665722066726f6d20746865207a65726f20616460448201527f64726573730000000000000000000000000000000000000000000000000000006064820152608401610857565b6001600160a01b03821661339d5760405162461bcd60e51b815260206004820152602360248201527f45524332303a207472616e7366657220746f20746865207a65726f206164647260448201526265737360e81b6064820152608401610857565b6001600160a01b0383166000908152610198602052604090205460ff161580156133e157506001600160a01b0382166000908152610198602052604090205460ff16155b61342d5760405162461bcd60e51b815260206004820152601f60248201527f45524332303a206163636f756e7420697320696e20626c61636b206c697374006044820152606401610857565b600061343882613718565b6001600160a01b03851660009081526101976020526040902054909150818110156134cb5760405162461bcd60e51b815260206004820152602660248201527f45524332303a207472616e7366657220616d6f756e742065786365656473206260448201527f616c616e636500000000000000000000000000000000000000000000000000006064820152608401610857565b6001600160a01b038086166000818152610197602052604080822086860390559287168082529083902080548601905591517fddf252ad1be2c89b69c2b068fc378daa952ba7f163c4a11628f55a4df523b3ef9061352c9087815260200190565b60405180910390a36130d3565b610cc98133613ac5565b61354d8282613b3a565b600082815261013060205260409020610a0c9082613bdc565b60006109be7f8b73c3c69bb8fe3d512ecc4cf759cc79239f7b179b0ffacaa9a75d522b39400f61359560655490565b6066546040805160208101859052908101839052606081018290524660808201523060a082015260009060c0016040516020818303038152906040528051906020012090509392505050565b6135eb8282613bf1565b600082815261013060205260409020610a0c9082613c74565b633b9aca00808204908206631dcd65008110613621576001820191505b50919050565b61362f613c89565b610162805460ff191690557f5db9ee0a495bf2e6ff9c91a7834c1ba4fdd244a5e8aa4e537bd38aeae4b073aa335b6040516001600160a01b03909116815260200160405180910390a1565b600081156b019d971e4fe8401e74000000198390048411151761369c57600080fd5b506b033b2e3c9fd0803ce800000091026b019d971e4fe8401e74000000010490565b600081156b033b2e3c9fd0803ce8000000600284041904841117156136e257600080fd5b506b033b2e3c9fd0803ce80000009190910260028204010490565b633b9aca00818102908104821461371357600080fd5b919050565b61019f546040516370a0823160e01b815230600482015260009182916001600160a01b03909116906370a0823190602401602060405180830381865afa158015613766573d6000803e3d6000fd5b505050506040513d601f19601f8201168201806040525081019061378a91906147b9565b905060005b61019b54811015613832576000610199600061019b84815481106137b5576137b5614800565b60009182526020808320909101546001600160a01b031683528281019390935260409182019020815160608101835281548152600182015493810184905260029091015491810191909152915061380c90846147e8565b925080604001518361381e91906147e8565b9250508061382b90614816565b905061378f565b50610e0861385082610dfd610194548761367a90919063ffffffff16565b613604565b61385d612c16565b610162805460ff191660011790557f62e78cea01bee320cd4e420270b5ea74000d11b0c9f74754ebdbfc544b05a25861365d3390565b6000610e088383613cdc565b600054610100900460ff1661390a5760405162461bcd60e51b815260206004820152602b60248201527f496e697469616c697a61626c653a20636f6e7472616374206973206e6f74206960448201526a6e697469616c697a696e6760a81b6064820152608401610857565b610cc981604051806040016040528060018152602001603160f81b815250613d06565b600054610100900460ff166139985760405162461bcd60e51b815260206004820152602b60248201527f496e697469616c697a61626c653a20636f6e7472616374206973206e6f74206960448201526a6e697469616c697a696e6760a81b6064820152608401610857565b61086b8282613d8b565b600054610100900460ff16613a0d5760405162461bcd60e51b815260206004820152602b60248201527f496e697469616c697a61626c653a20636f6e7472616374206973206e6f74206960448201526a6e697469616c697a696e6760a81b6064820152608401610857565b612c6a613e1d565b61086b8282613543565b6000610894825490565b6001600160a01b0381166000908152609960205260409020805460018101825590613621565b6000610894613a5c613566565b8360405161190160f01b6020820152602281018390526042810182905260009060620160405160208183030381529060405280519060200120905092915050565b6000806000613aae87878787613e95565b91509150613abb81613f59565b5095945050505050565b600082815260fe602090815260408083206001600160a01b038516845290915290205460ff1661086b57613af8816140a7565b613b038360206140b9565b604051602001613b14929190614896565b60408051601f198184030181529082905262461bcd60e51b8252610857916004016144f6565b600082815260fe602090815260408083206001600160a01b038516845290915290205460ff1661086b57600082815260fe602090815260408083206001600160a01b03851684529091529020805460ff19166001179055613b983390565b6001600160a01b0316816001600160a01b0316837f2f8788117e7eff1d82e926ec794901d17c78024a50270940304540a733656f0d60405160405180910390a45050565b6000610e08836001600160a01b038416614262565b600082815260fe602090815260408083206001600160a01b038516845290915290205460ff161561086b57600082815260fe602090815260408083206001600160a01b0385168085529252808320805460ff1916905551339285917ff6391f5c32d9c69d2a47ea670b442974b53935d1edc7fd64eb21e047a839171b9190a45050565b6000610e08836001600160a01b0384166142b1565b6101625460ff16612c6a5760405162461bcd60e51b815260206004820152601460248201527f5061757361626c653a206e6f74207061757365640000000000000000000000006044820152606401610857565b6000826000018281548110613cf357613cf3614800565b9060005260206000200154905092915050565b600054610100900460ff16613d715760405162461bcd60e51b815260206004820152602b60248201527f496e697469616c697a61626c653a20636f6e7472616374206973206e6f74206960448201526a6e697469616c697a696e6760a81b6064820152608401610857565b815160209283012081519190920120606591909155606655565b600054610100900460ff16613df65760405162461bcd60e51b815260206004820152602b60248201527f496e697469616c697a61626c653a20636f6e7472616374206973206e6f74206960448201526a6e697469616c697a696e6760a81b6064820152608401610857565b8151613e099060369060208501906143c2565b508051610a0c9060379060208401906143c2565b600054610100900460ff16613e885760405162461bcd60e51b815260206004820152602b60248201527f496e697469616c697a61626c653a20636f6e7472616374206973206e6f74206960448201526a6e697469616c697a696e6760a81b6064820152608401610857565b610162805460ff19169055565b6000807f7fffffffffffffffffffffffffffffff5d576e7357a4501ddfe92f46681b20a0831115613ecc5750600090506003613f50565b6040805160008082526020820180845289905260ff881692820192909252606081018690526080810185905260019060a0016020604051602081039080840390855afa158015613f20573d6000803e3d6000fd5b5050604051601f1901519150506001600160a01b038116613f4957600060019250925050613f50565b9150600090505b94509492505050565b6000816004811115613f6d57613f6d614917565b1415613f765750565b6001816004811115613f8a57613f8a614917565b1415613fd85760405162461bcd60e51b815260206004820152601860248201527f45434453413a20696e76616c6964207369676e617475726500000000000000006044820152606401610857565b6002816004811115613fec57613fec614917565b141561403a5760405162461bcd60e51b815260206004820152601f60248201527f45434453413a20696e76616c6964207369676e6174757265206c656e677468006044820152606401610857565b600381600481111561404e5761404e614917565b1415610cc95760405162461bcd60e51b815260206004820152602260248201527f45434453413a20696e76616c6964207369676e6174757265202773272076616c604482015261756560f01b6064820152608401610857565b60606108946001600160a01b03831660145b606060006140c883600261492d565b6140d39060026147e8565b67ffffffffffffffff8111156140eb576140eb614880565b6040519080825280601f01601f191660200182016040528015614115576020820181803683370190505b509050600360fc1b8160008151811061413057614130614800565b60200101906001600160f81b031916908160001a905350600f60fb1b8160018151811061415f5761415f614800565b60200101906001600160f81b031916908160001a905350600061418384600261492d565b61418e9060016147e8565b90505b6001811115614213577f303132333435363738396162636465660000000000000000000000000000000085600f16601081106141cf576141cf614800565b1a60f81b8282815181106141e5576141e5614800565b60200101906001600160f81b031916908160001a90535060049490941c9361420c8161494c565b9050614191565b508315610e085760405162461bcd60e51b815260206004820181905260248201527f537472696e67733a20686578206c656e67746820696e73756666696369656e746044820152606401610857565b60008181526001830160205260408120546142a957508154600181810184556000848152602080822090930184905584548482528286019093526040902091909155610894565b506000610894565b6000818152600183016020526040812054801561439a5760006142d5600183614853565b85549091506000906142e990600190614853565b905081811461434e57600086600001828154811061430957614309614800565b906000526020600020015490508087600001848154811061432c5761432c614800565b6000918252602080832090910192909255918252600188019052604090208390555b855486908061435f5761435f61486a565b600190038181906000526020600020016000905590558560010160008681526020019081526020016000206000905560019350505050610894565b6000915050610894565b5080546000825590600052602060002090810190610cc99190614446565b8280546143ce90614784565b90600052602060002090601f0160209004810192826143f05760008555614436565b82601f1061440957805160ff1916838001178555614436565b82800160010185558215614436579182015b8281111561443657825182559160200191906001019061441b565b50614442929150614446565b5090565b5b808211156144425760008155600101614447565b6001600160a01b0381168114610cc957600080fd5b6000806040838503121561448357600080fd5b8235915060208301356144958161445b565b809150509250929050565b6000602082840312156144b257600080fd5b81356001600160e01b031981168114610e0857600080fd5b60005b838110156144e55781810151838201526020016144cd565b838111156127075750506000910152565b60208152600082518060208401526145158160408501602087016144ca565b601f01601f19169190910160400192915050565b60006020828403121561453b57600080fd5b8135610e088161445b565b6000806040838503121561455957600080fd5b82356145648161445b565b946020939093013593505050565b60008060006060848603121561458757600080fd5b83356145928161445b565b925060208401356145a28161445b565b929592945050506040919091013590565b6000602082840312156145c557600080fd5b5035919050565b6020808252825182820181905260009190848201906040850190845b8181101561460d5783516001600160a01b0316835292840192918401916001016145e8565b50909695505050505050565b6000806040838503121561462c57600080fd5b50508035926020909101359150565b6000806040838503121561464e57600080fd5b82356146598161445b565b915060208301356144958161445b565b60008060006060848603121561467e57600080fd5b83356146898161445b565b925060208401356146998161445b565b915060408401356146a98161445b565b809150509250925092565b600080600080600080600060e0888a0312156146cf57600080fd5b87356146da8161445b565b965060208801356146ea8161445b565b95506040880135945060608801359350608088013560ff8116811461470e57600080fd5b9699959850939692959460a0840135945060c09093013592915050565b602080825282518282018190526000919060409081850190868401855b828110156147775781518051855286810151878601528501518585015260609093019290850190600101614748565b5091979650505050505050565b600181811c9082168061479857607f821691505b6020821081141561362157634e487b7160e01b600052602260045260246000fd5b6000602082840312156147cb57600080fd5b5051919050565b634e487b7160e01b600052601160045260246000fd5b600082198211156147fb576147fb6147d2565b500190565b634e487b7160e01b600052603260045260246000fd5b600060001982141561482a5761482a6147d2565b5060010190565b60006020828403121561484357600080fd5b81518015158114610e0857600080fd5b600082821015614865576148656147d2565b500390565b634e487b7160e01b600052603160045260246000fd5b634e487b7160e01b600052604160045260246000fd5b7f416363657373436f6e74726f6c3a206163636f756e74200000000000000000008152600083516148ce8160178501602088016144ca565b7f206973206d697373696e6720726f6c6520000000000000000000000000000000601791840191820152835161490b8160288401602088016144ca565b01602801949350505050565b634e487b7160e01b600052602160045260246000fd5b6000816000190483118215151615614947576149476147d2565b500290565b60008161495b5761495b6147d2565b50600019019056fea2646970667358221220ab4bd76f949d6830a85ead910a2d000ccfe548f6d70a7def4123793573cef9b264736f6c634300080b0033",
  "linkReferences": {},
  "deployedLinkReferences": {}
}