{
  "_format": "hh-sol-artifact-1",
  "contractName": "StMTRG",
  "sourceName": "contracts/StMTRG.sol",
  "abi": [
    {
      "anonymous": false,
      "inputs": [
        {
          "indexed": true,
          "internalType": "address",
          "name": "owner",
          "type": "address"
        },
        {
          "indexed": true,
          "internalType": "address",
          "name": "spender",
          "type": "address"
        },
        {
          "indexed": false,
          "internalType": "uint256",
          "name": "value",
          "type": "uint256"
        }
      ],
      "name": "Approval",
      "type": "event"
    },
    {
      "anonymous": false,
      "inputs": [
        {
          "indexed": true,
          "internalType": "address",
          "name": "account",
          "type": "address"
        },
        {
          "indexed": true,
          "internalType": "bytes32",
          "name": "bucketID",
          "type": "bytes32"
        },
        {
          "indexed": false,
          "internalType": "uint256",
          "name": "amount",
          "type": "uint256"
        }
      ],
      "name": "Deposit",
      "type": "event"
    },
    {
      "anonymous": false,
      "inputs": [
        {
          "indexed": true,
          "internalType": "address",
          "name": "candidate",
          "type": "address"
        },
        {
          "indexed": false,
          "internalType": "bytes32",
          "name": "bucketID",
          "type": "bytes32"
        },
        {
          "indexed": false,
          "internalType": "uint256",
          "name": "timestamp",
          "type": "uint256"
        }
      ],
      "name": "ExecuteClost",
      "type": "event"
    },
    {
      "anonymous": false,
      "inputs": [
        {
          "indexed": false,
          "internalType": "uint8",
          "name": "version",
          "type": "uint8"
        }
      ],
      "name": "Initialized",
      "type": "event"
    },
    {
      "anonymous": false,
      "inputs": [
        {
          "indexed": true,
          "internalType": "bytes32",
          "name": "bucketID",
          "type": "bytes32"
        },
        {
          "indexed": true,
          "internalType": "address",
          "name": "candidate",
          "type": "address"
        },
        {
          "indexed": true,
          "internalType": "uint256",
          "name": "epoch",
          "type": "uint256"
        },
        {
          "indexed": false,
          "internalType": "uint256",
          "name": "totalSupply",
          "type": "uint256"
        }
      ],
      "name": "LogRebase",
      "type": "event"
    },
    {
      "anonymous": false,
      "inputs": [
        {
          "indexed": true,
          "internalType": "bytes32",
          "name": "oldBucketID",
          "type": "bytes32"
        },
        {
          "indexed": true,
          "internalType": "bytes32",
          "name": "newBucketID",
          "type": "bytes32"
        },
        {
          "indexed": false,
          "internalType": "uint256",
          "name": "totalDeposit",
          "type": "uint256"
        },
        {
          "indexed": false,
          "internalType": "uint256",
          "name": "locked",
          "type": "uint256"
        }
      ],
      "name": "Merge",
      "type": "event"
    },
    {
      "anonymous": false,
      "inputs": [
        {
          "indexed": true,
          "internalType": "address",
          "name": "candidate",
          "type": "address"
        },
        {
          "indexed": false,
          "internalType": "bytes32",
          "name": "bucketID",
          "type": "bytes32"
        }
      ],
      "name": "NewCandidate",
      "type": "event"
    },
    {
      "anonymous": false,
      "inputs": [
        {
          "indexed": false,
          "internalType": "address",
          "name": "account",
          "type": "address"
        }
      ],
      "name": "Paused",
      "type": "event"
    },
    {
      "anonymous": false,
      "inputs": [
        {
          "indexed": true,
          "internalType": "address",
          "name": "candidate",
          "type": "address"
        },
        {
          "indexed": false,
          "internalType": "bytes32",
          "name": "bucketID",
          "type": "bytes32"
        },
        {
          "indexed": false,
          "internalType": "uint256",
          "name": "timestamp",
          "type": "uint256"
        }
      ],
      "name": "RequestClost",
      "type": "event"
    },
    {
      "anonymous": false,
      "inputs": [
        {
          "indexed": true,
          "internalType": "bytes32",
          "name": "role",
          "type": "bytes32"
        },
        {
          "indexed": true,
          "internalType": "bytes32",
          "name": "previousAdminRole",
          "type": "bytes32"
        },
        {
          "indexed": true,
          "internalType": "bytes32",
          "name": "newAdminRole",
          "type": "bytes32"
        }
      ],
      "name": "RoleAdminChanged",
      "type": "event"
    },
    {
      "anonymous": false,
      "inputs": [
        {
          "indexed": true,
          "internalType": "bytes32",
          "name": "role",
          "type": "bytes32"
        },
        {
          "indexed": true,
          "internalType": "address",
          "name": "account",
          "type": "address"
        },
        {
          "indexed": true,
          "internalType": "address",
          "name": "sender",
          "type": "address"
        }
      ],
      "name": "RoleGranted",
      "type": "event"
    },
    {
      "anonymous": false,
      "inputs": [
        {
          "indexed": true,
          "internalType": "bytes32",
          "name": "role",
          "type": "bytes32"
        },
        {
          "indexed": true,
          "internalType": "address",
          "name": "account",
          "type": "address"
        },
        {
          "indexed": true,
          "internalType": "address",
          "name": "sender",
          "type": "address"
        }
      ],
      "name": "RoleRevoked",
      "type": "event"
    },
    {
      "anonymous": false,
      "inputs": [
        {
          "indexed": false,
          "internalType": "uint256",
          "name": "timestamp",
          "type": "uint256"
        }
      ],
      "name": "TerminalClost",
      "type": "event"
    },
    {
      "anonymous": false,
      "inputs": [
        {
          "indexed": true,
          "internalType": "address",
          "name": "from",
          "type": "address"
        },
        {
          "indexed": true,
          "internalType": "address",
          "name": "to",
          "type": "address"
        },
        {
          "indexed": false,
          "internalType": "uint256",
          "name": "value",
          "type": "uint256"
        }
      ],
      "name": "Transfer",
      "type": "event"
    },
    {
      "anonymous": false,
      "inputs": [
        {
          "indexed": true,
          "internalType": "bytes32",
          "name": "oldBucketID",
          "type": "bytes32"
        },
        {
          "indexed": true,
          "internalType": "bytes32",
          "name": "newBucketID",
          "type": "bytes32"
        },
        {
          "indexed": false,
          "internalType": "uint256",
          "name": "amount",
          "type": "uint256"
        }
      ],
      "name": "TransferFund",
      "type": "event"
    },
    {
      "anonymous": false,
      "inputs": [
        {
          "indexed": false,
          "internalType": "address",
          "name": "account",
          "type": "address"
        }
      ],
      "name": "Unpaused",
      "type": "event"
    },
    {
      "anonymous": false,
      "inputs": [
        {
          "indexed": true,
          "internalType": "address",
          "name": "oldCandidate",
          "type": "address"
        },
        {
          "indexed": false,
          "internalType": "address",
          "name": "newCandidate",
          "type": "address"
        }
      ],
      "name": "UpdateCandidate",
      "type": "event"
    },
    {
      "anonymous": false,
      "inputs": [
        {
          "indexed": true,
          "internalType": "address",
          "name": "account",
          "type": "address"
        },
        {
          "indexed": true,
          "internalType": "bytes32",
          "name": "bucketID",
          "type": "bytes32"
        },
        {
          "indexed": false,
          "internalType": "uint256",
          "name": "amount",
          "type": "uint256"
        }
      ],
      "name": "Withdraw",
      "type": "event"
    },
    {
      "inputs": [],
      "name": "CLOSE_DURATION",
      "outputs": [
        {
          "internalType": "uint256",
          "name": "",
          "type": "uint256"
        }
      ],
      "stateMutability": "view",
      "type": "function"
    },
    {
      "inputs": [],
      "name": "DEFAULT_ADMIN_ROLE",
      "outputs": [
        {
          "internalType": "bytes32",
          "name": "",
          "type": "bytes32"
        }
      ],
      "stateMutability": "view",
      "type": "function"
    },
    {
      "inputs": [],
      "name": "DOMAIN_SEPARATOR",
      "outputs": [
        {
          "internalType": "bytes32",
          "name": "",
          "type": "bytes32"
        }
      ],
      "stateMutability": "view",
      "type": "function"
    },
    {
      "inputs": [],
      "name": "MTRG",
      "outputs": [
        {
          "internalType": "contract IERC20Upgradeable",
          "name": "",
          "type": "address"
        }
      ],
      "stateMutability": "view",
      "type": "function"
    },
    {
      "inputs": [],
      "name": "allBuckets",
      "outputs": [
        {
          "components": [
            {
              "internalType": "bytes32",
              "name": "bucketID",
              "type": "bytes32"
            },
            {
              "internalType": "uint256",
              "name": "totalDeposit",
              "type": "uint256"
            },
            {
              "internalType": "uint256",
              "name": "locked",
              "type": "uint256"
            }
          ],
          "internalType": "struct StMTRG.Bucket[]",
          "name": "",
          "type": "tuple[]"
        }
      ],
      "stateMutability": "view",
      "type": "function"
    },
    {
      "inputs": [
        {
          "internalType": "address",
          "name": "owner",
          "type": "address"
        },
        {
          "internalType": "address",
          "name": "spender",
          "type": "address"
        }
      ],
      "name": "allowance",
      "outputs": [
        {
          "internalType": "uint256",
          "name": "",
          "type": "uint256"
        }
      ],
      "stateMutability": "view",
      "type": "function"
    },
    {
      "inputs": [
        {
          "internalType": "address",
          "name": "spender",
          "type": "address"
        },
        {
          "internalType": "uint256",
          "name": "amount",
          "type": "uint256"
        }
      ],
      "name": "approve",
      "outputs": [
        {
          "internalType": "bool",
          "name": "",
          "type": "bool"
        }
      ],
      "stateMutability": "nonpayable",
      "type": "function"
    },
    {
      "inputs": [
        {
          "internalType": "address",
          "name": "account",
          "type": "address"
        }
      ],
      "name": "balanceOf",
      "outputs": [
        {
          "internalType": "uint256",
          "name": "",
          "type": "uint256"
        }
      ],
      "stateMutability": "view",
      "type": "function"
    },
    {
      "inputs": [],
      "name": "boundedMTRG",
      "outputs": [
        {
          "internalType": "uint256",
          "name": "",
          "type": "uint256"
        }
      ],
      "stateMutability": "view",
      "type": "function"
    },
    {
      "inputs": [
        {
          "internalType": "bytes32",
          "name": "",
          "type": "bytes32"
        }
      ],
      "name": "bucketIDToCandidate",
      "outputs": [
        {
          "internalType": "address",
          "name": "",
          "type": "address"
        }
      ],
      "stateMutability": "view",
      "type": "function"
    },
    {
      "inputs": [
        {
          "internalType": "bytes32",
          "name": "bucketID",
          "type": "bytes32"
        }
      ],
      "name": "bucketValue",
      "outputs": [
        {
          "internalType": "uint256",
          "name": "",
          "type": "uint256"
        }
      ],
      "stateMutability": "view",
      "type": "function"
    },
    {
      "inputs": [
        {
          "internalType": "address",
          "name": "",
          "type": "address"
        }
      ],
      "name": "candidateIndex",
      "outputs": [
        {
          "internalType": "uint256",
          "name": "",
          "type": "uint256"
        }
      ],
      "stateMutability": "view",
      "type": "function"
    },
    {
      "inputs": [
        {
          "internalType": "address",
          "name": "",
          "type": "address"
        }
      ],
      "name": "candidateToBucket",
      "outputs": [
        {
          "internalType": "bytes32",
          "name": "bucketID",
          "type": "bytes32"
        },
        {
          "internalType": "uint256",
          "name": "totalDeposit",
          "type": "uint256"
        },
        {
          "internalType": "uint256",
          "name": "locked",
          "type": "uint256"
        }
      ],
      "stateMutability": "view",
      "type": "function"
    },
    {
      "inputs": [],
      "name": "candidates",
      "outputs": [
        {
          "internalType": "address[]",
          "name": "",
          "type": "address[]"
        }
      ],
      "stateMutability": "view",
      "type": "function"
    },
    {
      "inputs": [],
      "name": "closeTerminal",
      "outputs": [],
      "stateMutability": "nonpayable",
      "type": "function"
    },
    {
      "inputs": [],
      "name": "closeTimestamp",
      "outputs": [
        {
          "internalType": "uint256",
          "name": "",
          "type": "uint256"
        }
      ],
      "stateMutability": "view",
      "type": "function"
    },
    {
      "inputs": [],
      "name": "currentIndex",
      "outputs": [
        {
          "internalType": "uint256",
          "name": "",
          "type": "uint256"
        }
      ],
      "stateMutability": "view",
      "type": "function"
    },
    {
      "inputs": [],
      "name": "decimals",
      "outputs": [
        {
          "internalType": "uint8",
          "name": "",
          "type": "uint8"
        }
      ],
      "stateMutability": "view",
      "type": "function"
    },
    {
      "inputs": [
        {
          "internalType": "address",
          "name": "spender",
          "type": "address"
        },
        {
          "internalType": "uint256",
          "name": "subtractedValue",
          "type": "uint256"
        }
      ],
      "name": "decreaseAllowance",
      "outputs": [
        {
          "internalType": "bool",
          "name": "",
          "type": "bool"
        }
      ],
      "stateMutability": "nonpayable",
      "type": "function"
    },
    {
      "inputs": [
        {
          "internalType": "address",
          "name": "candidate",
          "type": "address"
        }
      ],
      "name": "deleteBucket",
      "outputs": [],
      "stateMutability": "nonpayable",
      "type": "function"
    },
    {
      "inputs": [
        {
          "internalType": "uint256",
          "name": "amount",
          "type": "uint256"
        }
      ],
      "name": "deposit",
      "outputs": [],
      "stateMutability": "nonpayable",
      "type": "function"
    },
    {
      "inputs": [],
      "name": "epoch",
      "outputs": [
        {
          "internalType": "uint256",
          "name": "",
          "type": "uint256"
        }
      ],
      "stateMutability": "view",
      "type": "function"
    },
    {
      "inputs": [],
      "name": "executeClose",
      "outputs": [],
      "stateMutability": "nonpayable",
      "type": "function"
    },
    {
      "inputs": [
        {
          "internalType": "bytes32",
          "name": "role",
          "type": "bytes32"
        }
      ],
      "name": "getRoleAdmin",
      "outputs": [
        {
          "internalType": "bytes32",
          "name": "",
          "type": "bytes32"
        }
      ],
      "stateMutability": "view",
      "type": "function"
    },
    {
      "inputs": [
        {
          "internalType": "bytes32",
          "name": "role",
          "type": "bytes32"
        },
        {
          "internalType": "uint256",
          "name": "index",
          "type": "uint256"
        }
      ],
      "name": "getRoleMember",
      "outputs": [
        {
          "internalType": "address",
          "name": "",
          "type": "address"
        }
      ],
      "stateMutability": "view",
      "type": "function"
    },
    {
      "inputs": [
        {
          "internalType": "bytes32",
          "name": "role",
          "type": "bytes32"
        }
      ],
      "name": "getRoleMemberCount",
      "outputs": [
        {
          "internalType": "uint256",
          "name": "",
          "type": "uint256"
        }
      ],
      "stateMutability": "view",
      "type": "function"
    },
    {
      "inputs": [
        {
          "internalType": "bytes32",
          "name": "role",
          "type": "bytes32"
        },
        {
          "internalType": "address",
          "name": "account",
          "type": "address"
        }
      ],
      "name": "grantRole",
      "outputs": [],
      "stateMutability": "nonpayable",
      "type": "function"
    },
    {
      "inputs": [
        {
          "internalType": "bytes32",
          "name": "role",
          "type": "bytes32"
        },
        {
          "internalType": "address",
          "name": "account",
          "type": "address"
        }
      ],
      "name": "hasRole",
      "outputs": [
        {
          "internalType": "bool",
          "name": "",
          "type": "bool"
        }
      ],
      "stateMutability": "view",
      "type": "function"
    },
    {
      "inputs": [],
      "name": "inTerminal",
      "outputs": [
        {
          "internalType": "bool",
          "name": "",
          "type": "bool"
        }
      ],
      "stateMutability": "view",
      "type": "function"
    },
    {
      "inputs": [
        {
          "internalType": "address",
          "name": "spender",
          "type": "address"
        },
        {
          "internalType": "uint256",
          "name": "addedValue",
          "type": "uint256"
        }
      ],
      "name": "increaseAllowance",
      "outputs": [
        {
          "internalType": "bool",
          "name": "",
          "type": "bool"
        }
      ],
      "stateMutability": "nonpayable",
      "type": "function"
    },
    {
      "inputs": [
        {
          "internalType": "address",
          "name": "admin",
          "type": "address"
        },
        {
          "internalType": "contract IERC20Upgradeable",
          "name": "_MTRG",
          "type": "address"
        },
        {
          "internalType": "address",
          "name": "scriptEngineAddr",
          "type": "address"
        }
      ],
      "name": "initialize",
      "outputs": [],
      "stateMutability": "nonpayable",
      "type": "function"
    },
    {
      "inputs": [],
      "name": "isClose",
      "outputs": [
        {
          "internalType": "bool",
          "name": "",
          "type": "bool"
        }
      ],
      "stateMutability": "view",
      "type": "function"
    },
    {
      "inputs": [],
      "name": "name",
      "outputs": [
        {
          "internalType": "string",
          "name": "",
          "type": "string"
        }
      ],
      "stateMutability": "view",
      "type": "function"
    },
    {
      "inputs": [
        {
          "internalType": "address",
          "name": "candidate",
          "type": "address"
        }
      ],
      "name": "newCandidate",
      "outputs": [],
      "stateMutability": "nonpayable",
      "type": "function"
    },
    {
      "inputs": [
        {
          "internalType": "address",
          "name": "owner",
          "type": "address"
        }
      ],
      "name": "nonces",
      "outputs": [
        {
          "internalType": "uint256",
          "name": "",
          "type": "uint256"
        }
      ],
      "stateMutability": "view",
      "type": "function"
    },
    {
      "inputs": [],
      "name": "pause",
      "outputs": [],
      "stateMutability": "nonpayable",
      "type": "function"
    },
    {
      "inputs": [],
      "name": "paused",
      "outputs": [
        {
          "internalType": "bool",
          "name": "",
          "type": "bool"
        }
      ],
      "stateMutability": "view",
      "type": "function"
    },
    {
      "inputs": [
        {
          "internalType": "address",
          "name": "owner",
          "type": "address"
        },
        {
          "internalType": "address",
          "name": "spender",
          "type": "address"
        },
        {
          "internalType": "uint256",
          "name": "value",
          "type": "uint256"
        },
        {
          "internalType": "uint256",
          "name": "deadline",
          "type": "uint256"
        },
        {
          "internalType": "uint8",
          "name": "v",
          "type": "uint8"
        },
        {
          "internalType": "bytes32",
          "name": "r",
          "type": "bytes32"
        },
        {
          "internalType": "bytes32",
          "name": "s",
          "type": "bytes32"
        }
      ],
      "name": "permit",
      "outputs": [],
      "stateMutability": "nonpayable",
      "type": "function"
    },
    {
      "inputs": [],
      "name": "rebase",
      "outputs": [],
      "stateMutability": "nonpayable",
      "type": "function"
    },
    {
      "inputs": [
        {
          "internalType": "bytes32",
          "name": "role",
          "type": "bytes32"
        },
        {
          "internalType": "address",
          "name": "account",
          "type": "address"
        }
      ],
      "name": "renounceRole",
      "outputs": [],
      "stateMutability": "nonpayable",
      "type": "function"
    },
    {
      "inputs": [],
      "name": "requestClose",
      "outputs": [],
      "stateMutability": "nonpayable",
      "type": "function"
    },
    {
      "inputs": [
        {
          "internalType": "bytes32",
          "name": "role",
          "type": "bytes32"
        },
        {
          "internalType": "address",
          "name": "account",
          "type": "address"
        }
      ],
      "name": "revokeRole",
      "outputs": [],
      "stateMutability": "nonpayable",
      "type": "function"
    },
    {
      "inputs": [
        {
          "internalType": "address",
          "name": "account",
          "type": "address"
        }
      ],
      "name": "setBlackList",
      "outputs": [],
      "stateMutability": "nonpayable",
      "type": "function"
    },
    {
      "inputs": [
        {
          "internalType": "uint256",
          "name": "_share",
          "type": "uint256"
        }
      ],
      "name": "shareToValue",
      "outputs": [
        {
          "internalType": "uint256",
          "name": "",
          "type": "uint256"
        }
      ],
      "stateMutability": "view",
      "type": "function"
    },
    {
      "inputs": [
        {
          "internalType": "address",
          "name": "account",
          "type": "address"
        }
      ],
      "name": "shares",
      "outputs": [
        {
          "internalType": "uint256",
          "name": "",
          "type": "uint256"
        }
      ],
      "stateMutability": "view",
      "type": "function"
    },
    {
      "inputs": [
        {
          "internalType": "bytes4",
          "name": "interfaceId",
          "type": "bytes4"
        }
      ],
      "name": "supportsInterface",
      "outputs": [
        {
          "internalType": "bool",
          "name": "",
          "type": "bool"
        }
      ],
      "stateMutability": "view",
      "type": "function"
    },
    {
      "inputs": [],
      "name": "symbol",
      "outputs": [
        {
          "internalType": "string",
          "name": "",
          "type": "string"
        }
      ],
      "stateMutability": "view",
      "type": "function"
    },
    {
      "inputs": [],
      "name": "totalShares",
      "outputs": [
        {
          "internalType": "uint256",
          "name": "",
          "type": "uint256"
        }
      ],
      "stateMutability": "view",
      "type": "function"
    },
    {
      "inputs": [],
      "name": "totalSupply",
      "outputs": [
        {
          "internalType": "uint256",
          "name": "",
          "type": "uint256"
        }
      ],
      "stateMutability": "view",
      "type": "function"
    },
    {
      "inputs": [
        {
          "internalType": "address",
          "name": "to",
          "type": "address"
        },
        {
          "internalType": "uint256",
          "name": "amount",
          "type": "uint256"
        }
      ],
      "name": "transfer",
      "outputs": [
        {
          "internalType": "bool",
          "name": "",
          "type": "bool"
        }
      ],
      "stateMutability": "nonpayable",
      "type": "function"
    },
    {
      "inputs": [
        {
          "internalType": "address",
          "name": "from",
          "type": "address"
        },
        {
          "internalType": "address",
          "name": "to",
          "type": "address"
        },
        {
          "internalType": "uint256",
          "name": "amount",
          "type": "uint256"
        }
      ],
      "name": "transferFrom",
      "outputs": [
        {
          "internalType": "bool",
          "name": "",
          "type": "bool"
        }
      ],
      "stateMutability": "nonpayable",
      "type": "function"
    },
    {
      "inputs": [
        {
          "internalType": "address",
          "name": "candidate",
          "type": "address"
        }
      ],
      "name": "transferFund",
      "outputs": [],
      "stateMutability": "nonpayable",
      "type": "function"
    },
    {
      "inputs": [],
      "name": "unpause",
      "outputs": [],
      "stateMutability": "nonpayable",
      "type": "function"
    },
    {
      "inputs": [
        {
          "internalType": "uint256",
          "name": "_value",
          "type": "uint256"
        }
      ],
      "name": "valueToShare",
      "outputs": [
        {
          "internalType": "uint256",
          "name": "",
          "type": "uint256"
        }
      ],
      "stateMutability": "view",
      "type": "function"
    },
    {
      "inputs": [
        {
          "internalType": "uint256",
          "name": "amount",
          "type": "uint256"
        },
        {
          "internalType": "address",
          "name": "recipient",
          "type": "address"
        }
      ],
      "name": "withdraw",
      "outputs": [],
      "stateMutability": "nonpayable",
      "type": "function"
    },
    {
      "inputs": [
        {
          "internalType": "address",
          "name": "recipient",
          "type": "address"
        }
      ],
      "name": "withdrawAll",
      "outputs": [],
      "stateMutability": "nonpayable",
      "type": "function"
    }
  ],
  "bytecode": "0x608060405260006101945534801561001657600080fd5b50614a26806100266000396000f3fe608060405234801561001057600080fd5b50600436106103775760003560e01c806370a08231116101d3578063af14052c11610104578063d547741f116100a2578063f5e130af1161007c578063f5e130af146107bc578063f9776bcb146107cf578063fa09e630146107e4578063fdb4fb0e146107f757600080fd5b8063d547741f14610746578063dd62ed3e14610759578063e461a47d1461079257600080fd5b8063ca15c873116100de578063ca15c873146106e3578063cd4558fd146106f6578063ce7c2ac214610709578063d505accf1461073357600080fd5b8063af14052c146106b5578063b6b55f25146106bd578063c0c53b8b146106d057600080fd5b806391d1485411610171578063a217fddf1161014b578063a217fddf1461067f578063a457c2d714610687578063a6536e751461069a578063a9059cbb146106a257600080fd5b806391d148541461062b57806395d89b41146106645780639748bf5b1461066c57600080fd5b80638456cb59116101ad5780638456cb59146105da57806388b0e2a4146105e2578063900cf0cf1461060e5780639010d07c1461061857600080fd5b806370a08231146105a157806372700241146105b45780637ecebe00146105c757600080fd5b80633644e515116102ad578063441130d51161024b5780635c975abb116102255780635c975abb1461055a5780635dc4a4661461056657806361e3fb69146105795780636f0470aa1461058c57600080fd5b8063441130d51461052c5780634b64fcd11461053f578063577262ab1461055257600080fd5b80633a8dd82a116102875780633a8dd82a1461050b5780633a98ef39146105135780633e17087d1461051c5780633f4ba83a1461052457600080fd5b80633644e515146104dd57806336568abe146104e557806339509351146104f857600080fd5b806318160ddd1161031a578063248a9ca3116102f4578063248a9ca31461048e57806326987b60146104b15780632f2ff15d146104bb578063313ce567146104ce57600080fd5b806318160ddd1461045257806322735da81461045a57806323b872dd1461047b57600080fd5b806306fdde031161035657806306fdde03146103d1578063087bf506146103e6578063095ea7b3146104315780631338f4931461044457600080fd5b8062f714ce1461037c57806301ffc9a714610391578063052d7c00146103b9575b600080fd5b61038f61038a3660046144ac565b610801565b005b6103a461039f3660046144dc565b610865565b60405190151581526020015b60405180910390f35b6103c36101965481565b6040519081526020016103b0565b6103d9610890565b6040516103b09190614532565b6104166103f4366004614565565b6101996020526000908152604090208054600182015460029092015490919083565b604080519384526020840192909252908201526060016103b0565b6103a461043f366004614582565b610922565b61019e546103a49060ff1681565b6103c361093a565b6103c3610468366004614565565b61019c6020526000908152604090205481565b6103a46104893660046145ae565b610a67565b6103c361049c3660046145ef565b600090815260fe602052604090206001015490565b6103c361019d5481565b61038f6104c93660046144ac565b610a8b565b604051601281526020016103b0565b6103c3610ab5565b61038f6104f33660046144ac565b610ac4565b6103a4610506366004614582565b610b4c565b6103c3610b8b565b610194546103c3565b61038f610c05565b61038f610dc9565b6103c361053a3660046145ef565b610ddf565b6103c361054d3660046145ef565b610e00565b61038f610e0b565b6101625460ff166103a4565b61038f610574366004614565565b610f96565b61038f610587366004614565565b61147f565b610594611981565b6040516103b09190614608565b6103c36105af366004614565565b6119e3565b61038f6105c2366004614565565b611a06565b6103c36105d5366004614565565b611a3c565b61038f611a5a565b61019f546105f6906001600160a01b031681565b6040516001600160a01b0390911681526020016103b0565b6103c36101955481565b6105f6610626366004614655565b611a6d565b6103a46106393660046144ac565b600091825260fe602090815260408084206001600160a01b0393909316845291905290205460ff1690565b6103d9611a8d565b6103c361067a3660046145ef565b611a9c565b6103c3600081565b6103a4610695366004614582565b611b11565b61038f611bbb565b6103a46106b0366004614582565b611df2565b61038f611e00565b61038f6106cb3660046145ef565b611f43565b61038f6106de366004614677565b612107565b6103c36106f13660046145ef565b612441565b61038f610704366004614565565b612459565b6103c3610717366004614565565b6001600160a01b03166000908152610197602052604090205490565b61038f6107413660046146c2565b612789565b61038f6107543660046144ac565b6128ed565b6103c3610767366004614739565b6001600160a01b03918216600090815260346020908152604080832093909416825291909152205490565b6105f66107a03660046145ef565b61019a602052600090815260409020546001600160a01b031681565b61019e546103a490610100900460ff1681565b6107d7612912565b6040516103b09190614767565b61038f6107f2366004614565565b612a27565b6103c362278d0081565b610809612a90565b61019e54610100900460ff16156108565760405162461bcd60e51b815260206004820152600c60248201526b696e207465726d696e616c2160a01b60448201526064015b60405180910390fd5b610861338383612ae6565b5050565b60006001600160e01b03198216635a05180f60e01b148061088a575061088a82612fb3565b92915050565b60606036805461089f906147c0565b80601f01602080910402602001604051908101604052809291908181526020018280546108cb906147c0565b80156109185780601f106108ed57610100808354040283529160200191610918565b820191906000526020600020905b8154815290600101906020018083116108fb57829003601f168201915b5050505050905090565b600033610930818585612fe8565b5060019392505050565b61019f546040516370a0823160e01b815230600482015260009182916001600160a01b03909116906370a0823190602401602060405180830381865afa158015610988573d6000803e3d6000fd5b505050506040513d601f19601f820116820180604052508101906109ac91906147f5565b90506000805b61019b54811015610a55576000610199600061019b84815481106109d8576109d861480e565b60009182526020808320909101546001600160a01b0316835282810193909352604091820190208151606081018352815481526001820154938101849052600290910154918101919091529150610a2f908461483a565b9250806040015183610a41919061483a565b92505080610a4e90614852565b90506109b2565b50610a60818361483a565b9250505090565b600033610a7585828561310c565b610a80858585613198565b506001949350505050565b600082815260fe6020526040902060010154610aa68161342e565b610ab08383613438565b505050565b6000610abf61345b565b905090565b6001600160a01b0381163314610b425760405162461bcd60e51b815260206004820152602f60248201527f416363657373436f6e74726f6c3a2063616e206f6e6c792072656e6f756e636560448201527f20726f6c657320666f722073656c660000000000000000000000000000000000606482015260840161084d565b61086182826134d6565b3360008181526034602090815260408083206001600160a01b03871684529091528120549091906109309082908690610b8690879061483a565b612fe8565b600061019e60029054906101000a90046001600160a01b03166001600160a01b0316633a8dd82a6040518163ffffffff1660e01b8152600401602060405180830381865afa158015610be1573d6000803e3d6000fd5b505050506040513d601f19601f82011682018060405250810190610abf91906147f5565b6000610c108161342e565b61019e54610100900460ff16610c685760405162461bcd60e51b815260206004820152601060248201527f6e6f7420696e207465726d696e616c2100000000000000000000000000000000604482015260640161084d565b6000610199600061019b600081548110610c8457610c8461480e565b60009182526020808320909101546001600160a01b031683528281019390935260409182018120825160608101845281548152600182015494810194909452600201549183019190915261019b8054929350610199928290610ce857610ce861480e565b60009182526020808320909101546001600160a01b031683528281019390935260409182018120818155600181018290556002018190558351815261019a909252812080546001600160a01b031916905561019b805461019c9291908290610d5257610d5261480e565b60009182526020808320909101546001600160a01b031683528201929092526040018120819055610d869061019b906143e0565b61019e805461ff00191690556040514281527f211174b048d805314ec4df2d45c8735f9d1fe669c8117585a74e853b66bc524d9060200160405180910390a15050565b6000610dd48161342e565b610ddc6134f9565b50565b600061088a61019454610dfa610df361093a565b859061354c565b90613590565b600061088a826135cf565b6000610e168161342e565b61019e5460ff1615610e565760405162461bcd60e51b8152602060048201526009602482015268697320636c6f73652160b81b604482015260640161084d565b61019b54600114610ea95760405162461bcd60e51b815260206004820152601960248201527f63616e64696461746573206973206d6f7265207468616e203100000000000000604482015260640161084d565b6000610199600061019b600081548110610ec557610ec561480e565b60009182526020808320909101546001600160a01b0316835282810193909352604091820181208251606081018452815481526001828101549582019590955260029091015492810192909252426101965561019e805460ff191690931790925561019b80549193509190610f3c57610f3c61480e565b6000918252602091829020015482516101965460408051928352938201526001600160a01b03909116917f1e757b7f9e12d98e6039723354e852636180e846c5d6d06f2d336d673f1e5f0891015b60405180910390a25050565b6000610fa18161342e565b61019e5460ff1615610fe15760405162461bcd60e51b8152602060048201526009602482015268697320636c6f73652160b81b604482015260640161084d565b6001600160a01b0382166110375760405162461bcd60e51b815260206004820152600e60248201527f61646472657373206572726f7221000000000000000000000000000000000000604482015260640161084d565b6001600160a01b03821660009081526101996020526040902080541561109f5760405162461bcd60e51b815260206004820152601260248201527f63616e6469646174652065787369746564210000000000000000000000000000604482015260640161084d565b61019454339068056bc75e2d6310000090611112576110bd816135eb565b6001600160a01b03831660009081526101976020526040812080549091906110e690849061483a565b909155506110f59050816135eb565b6101946000828254611107919061483a565b9091555061116c9050565b600061111d826135cf565b6001600160a01b0384166000908152610197602052604081208054929350839290919061114b90849061483a565b92505081905550806101946000828254611165919061483a565b9091555050505b61019f546040516323b872dd60e01b81526001600160a01b03848116600483015230602483015260448201849052909116906323b872dd906064016020604051808303816000875af11580156111c6573d6000803e3d6000fd5b505050506040513d601f19601f820116820180604052508101906111ea919061487d565b5061019e5460405163183077b960e11b81526001600160a01b0387811660048301526024820184905260009283926201000090910490911690633060ef729060440160408051808303816000875af115801561124a573d6000803e3d6000fd5b505050506040513d601f19601f8201168201806040525081019061126e9190614898565b91509150806112bf5760405162461bcd60e51b815260206004820152601160248201527f6275636b65744f70656e206572726f7221000000000000000000000000000000604482015260640161084d565b600082815261019a60205260409020546001600160a01b0316156113255760405162461bcd60e51b815260206004820152600f60248201527f6275636b65744944206572726f72210000000000000000000000000000000000604482015260640161084d565b82856002016000828254611339919061483a565b909155505081855561019b80546001810182557f24aeb2cd7b2cf328da485c24efd7197e86108b05bbc525c1db80c96ffdf7e1290180546001600160a01b038a166001600160a01b031991821681179092559154600082815261019c602090815260408083209390935586825261019a90528190208054909316821790925590517fd5b232e8b0b3cae5597d617fedb01eab27bcfa4a0f7491761e81dda85fbaae8f906113e99085815260200190565b60405180910390a26040518381526001600160a01b038516906000907fddf252ad1be2c89b69c2b068fc378daa952ba7f163c4a11628f55a4df523b3ef9060200160405180910390a381846001600160a01b03167f19dacbf83c5de6658e14cbf7bcae5c15eca2eedecf1c66fbca928e4d351bea0f8560405161146e91815260200190565b60405180910390a350505050505050565b600061148a8161342e565b61019e5460ff16156114ca5760405162461bcd60e51b8152602060048201526009602482015268697320636c6f73652160b81b604482015260640161084d565b61019b546001106115105760405162461bcd60e51b815260206004820152601060248201526f6f6e6c7920312063616e64696461746560801b604482015260640161084d565b6001600160a01b038216600090815261019c6020526040812054906101998161019b61153d6001866148c4565b8154811061154d5761154d61480e565b60009182526020808320909101546001600160a01b031683528201929092526040018120600181015460028201548254929450909290919061158f838561483a565b1115611978578354600090815261019a6020908152604080832080546001600160a01b03191690556001600160a01b038a16835261019982528083208381556001810184905560020183905561019b5461019c90925282205460609111156116f0576001600160a01b038916600090815261019c6020819052604082205461019b8054919391611621906001906148c4565b815481106116315761163161480e565b60009182526020808320909101546001600160a01b0316835282019290925260400190205561019b8054611667906001906148c4565b815481106116775761167761480e565b60009182526020808320909101546001600160a01b038c8116845261019c90925260409092205491169061019b906116b1906001906148c4565b815481106116c1576116c161480e565b9060005260206000200160006101000a8154816001600160a01b0302191690836001600160a01b031602179055505b61019b805480611702576117026148db565b60008281526020808220830160001990810180546001600160a01b03191690559092019092556001600160a01b038b16825261019c9052604081208190555b61019b548110156119185761019b5488101561175d5787611760565b60005b97506000610199600061019b8b8154811061177d5761177d61480e565b60009182526020808320909101546001600160a01b039081168452908301939093526040918201902061019e54815492519194506201000090049092169163329eb9d160e11b916117dc91899190602401918252602082015260400190565b60408051601f198184030181529181526020820180516001600160e01b03166001600160e01b031990941693909317909252905161181a91906148f1565b6000604051808303816000865af19150503d8060008114611857576040519150601f19603f3d011682016040523d82523d6000602084013e61185c565b606091505b5090945092508861186c81614852565b99505083801561188b57508280602001905181019061188b919061487d565b1561190757868160010160008282546118a4919061483a565b92505081905550858160020160008282546118bf919061483a565b90915550508054604080518981526020810189905287917f0848e0ca2442e527298209047e5313c99fbb1533d635e6eb8d4f658c907924bf910160405180910390a350611918565b5061191181614852565b9050611741565b50818015611935575080806020019051810190611935919061487d565b6119755760405162461bcd60e51b81526020600482015260116024820152706e6f206473742063616e6469646174652160781b604482015260640161084d565b50505b50505050505050565b606061019b80548060200260200160405190810160405280929190818152602001828054801561091857602002820191906000526020600020905b81546001600160a01b031681526001909101906020018083116119bc575050505050905090565b6001600160a01b0381166000908152610197602052604081205461088a90610ddf565b6000611a118161342e565b506001600160a01b0316600090815261019860205260409020805460ff19811660ff90911615179055565b6001600160a01b03811660009081526099602052604081205461088a565b6000611a658161342e565b610ddc613606565b600082815261013060205260408120611a869083613644565b9392505050565b60606037805461089f906147c0565b61019e54604051639748bf5b60e01b8152600481018390526000916201000090046001600160a01b031690639748bf5b90602401602060405180830381865afa158015611aed573d6000803e3d6000fd5b505050506040513d601f19601f8201168201806040525081019061088a91906147f5565b3360008181526034602090815260408083206001600160a01b038716845290915281205490919083811015611bae5760405162461bcd60e51b815260206004820152602560248201527f45524332303a2064656372656173656420616c6c6f77616e63652062656c6f7760448201527f207a65726f000000000000000000000000000000000000000000000000000000606482015260840161084d565b610a808286868403612fe8565b6000611bc68161342e565b61019e5460ff16611c055760405162461bcd60e51b8152602060048201526009602482015268697320636c6f73652160b81b604482015260640161084d565b61019e54610100900460ff1615611c4d5760405162461bcd60e51b815260206004820152600c60248201526b696e207465726d696e616c2160a01b604482015260640161084d565b6000610199600061019b600081548110611c6957611c6961480e565b60009182526020808320909101546001600160a01b031683528281019390935260409182019020815160608101835281548152600182015493810193909352600201549082015261019654909150611cc59062278d009061483a565b421015611d145760405162461bcd60e51b815260206004820152600f60248201527f434c4f53455f4455524154494f4e210000000000000000000000000000000000604482015260640161084d565b61019e805461010061ff0019909116179081905581516040516377d7f91360e01b81526004810191909152620100009091046001600160a01b0316906377d7f91390602401600060405180830381600087803b158015611d7357600080fd5b505af1158015611d87573d6000803e3d6000fd5b5050505061019b600081548110611da057611da061480e565b6000918252602091829020015482516101965460408051928352938201526001600160a01b03909116917f9da301bb415bd639d2a2c4e5d364bd6ea2f179effc5890b3cd39de25a5e79f489101610f8a565b600033610930818585613198565b6000611e0b8161342e565b61019e5460ff1615611e4b5760405162461bcd60e51b8152602060048201526009602482015268697320636c6f73652160b81b604482015260640161084d565b61019f546040516370a0823160e01b81523060048201526000916001600160a01b0316906370a0823190602401602060405180830381865afa158015611e95573d6000803e3d6000fd5b505050506040513d601f19601f82011682018060405250810190611eb991906147f5565b90508015610861576000611ece600083613650565b61019580549192506000611ee183614852565b909155505061019554600082815261019a60205260409020546001600160a01b0316827f718b31b13d461b57805228117e5ad834c401532de2bea40d37cf85cbea57e1ff611f2d61093a565b60405190815260200160405180910390a4505050565b611f4b612a90565b61019e5460ff1615611f8b5760405162461bcd60e51b8152602060048201526009602482015268697320636c6f73652160b81b604482015260640161084d565b60006101945411611fde5760405162461bcd60e51b815260206004820152600f60248201527f746f74616c536861726573203d20300000000000000000000000000000000000604482015260640161084d565b336000611fea836135cf565b6001600160a01b0383166000908152610197602052604081208054929350839290919061201890849061483a565b92505081905550806101946000828254612032919061483a565b909155505061019f546040516323b872dd60e01b81526001600160a01b03848116600483015230602483015260448201869052909116906323b872dd906064016020604051808303816000875af1158015612091573d6000803e3d6000fd5b505050506040513d601f19601f820116820180604052508101906120b5919061487d565b506040518381526001600160a01b038316906000907fddf252ad1be2c89b69c2b068fc378daa952ba7f163c4a11628f55a4df523b3ef9060200160405180910390a36121018284613650565b50505050565b600054610100900460ff16158080156121275750600054600160ff909116105b806121415750303b158015612141575060005460ff166001145b6121b35760405162461bcd60e51b815260206004820152602e60248201527f496e697469616c697a61626c653a20636f6e747261637420697320616c72656160448201527f647920696e697469616c697a6564000000000000000000000000000000000000606482015260840161084d565b6000805460ff1916600117905580156121d6576000805461ff0019166101001790555b6001600160a01b03841661222c5760405162461bcd60e51b815260206004820152601460248201527f61646d696e2061646472657373206572726f7221000000000000000000000000604482015260640161084d565b6001600160a01b0383166122825760405162461bcd60e51b815260206004820152601360248201527f4d5452472061646472657373206572726f722100000000000000000000000000604482015260640161084d565b6001600160a01b0382166122d85760405162461bcd60e51b815260206004820152601f60248201527f736372697074456e67696e65416464722061646472657373206572726f722100604482015260640161084d565b6123166040518060400160405280600a81526020017f73744d54524720312e300000000000000000000000000000000000000000000081525061389a565b61238a6040518060400160405280600b81526020017f5374616b6564204d5452470000000000000000000000000000000000000000008152506040518060400160405280600681526020017f73744d5452470000000000000000000000000000000000000000000000000000815250613928565b61239261399d565b61239d600085613a10565b61019e80547fffffffffffffffffffff0000000000000000000000000000000000000000ffff16620100006001600160a01b03858116919091029190911790915561019f80546001600160a01b0319169185169190911790558015612101576000805461ff0019169055604051600181527f7f26b83ff96e1f2b6a682f133852f6798a09c465da95921460cefb38474024989060200160405180910390a150505050565b60008181526101306020526040812061088a90613a1a565b60006124648161342e565b61019e5460ff16156124a45760405162461bcd60e51b8152602060048201526009602482015268697320636c6f73652160b81b604482015260640161084d565b61019b546001106124ea5760405162461bcd60e51b815260206004820152601060248201526f6f6e6c7920312063616e64696461746560801b604482015260640161084d565b6001600160a01b038216600090815261019c6020526040812054906101998161019b6125176001866148c4565b815481106125275761252761480e565b60009182526020808320909101546001600160a01b03168352820192909252604001902060018101549091508061255f575050505050565b6000600183018190556060815b61019b5481101561272c5761019b54861015612588578561258b565b60005b95506000610199600061019b89815481106125a8576125a861480e565b60009182526020808320909101546001600160a01b039081168452908301939093526040918201902061019e548954825493519295506201000090910490931692630395f3bd60e51b92612611928a906024019283526020830191909152604082015260600190565b60408051601f198184030181529181526020820180516001600160e01b03166001600160e01b031990941693909317909252905161264f91906148f1565b6000604051808303816000865af19150503d806000811461268c576040519150601f19603f3d011682016040523d82523d6000602084013e612691565b606091505b509094509250866126a181614852565b9750508380156126c05750828060200190518101906126c0919061487d565b1561271b57848160010160008282546126d9919061483a565b9091555050805486546040518781527f5ae6812dea9e8b5a7b9396603fc59d25e1e32156abbc2df381707d824cd45dca9060200160405180910390a35061272c565b5061272581614852565b905061256c565b50818015612749575080806020019051810190612749919061487d565b6119785760405162461bcd60e51b81526020600482015260116024820152706e6f206473742063616e6469646174652160781b604482015260640161084d565b834211156127d95760405162461bcd60e51b815260206004820152601d60248201527f45524332305065726d69743a206578706972656420646561646c696e65000000604482015260640161084d565b60007f6e71edae12b1b97f4d1f60370fef10105fa2faae0126114a169c64845d6126c98888886128088c613a24565b6040805160208101969096526001600160a01b0394851690860152929091166060840152608083015260a082015260c0810186905260e001604051602081830303815290604052805190602001209050600061286382613a4c565b9050600061287382878787613a9a565b9050896001600160a01b0316816001600160a01b0316146128d65760405162461bcd60e51b815260206004820152601e60248201527f45524332305065726d69743a20696e76616c6964207369676e61747572650000604482015260640161084d565b6128e18a8a8a612fe8565b50505050505050505050565b600082815260fe60205260409020600101546129088161342e565b610ab083836134d6565b61019b5460609060008167ffffffffffffffff8111156129345761293461490d565b60405190808252806020026020018201604052801561297f57816020015b60408051606081018252600080825260208083018290529282015282526000199092019101816129525790505b50905060005b61019b54811015612a2057610199600061019b83815481106129a9576129a961480e565b60009182526020808320909101546001600160a01b03168352828101939093526040918201902081516060810183528154815260018201549381019390935260020154908201528251839083908110612a0457612a0461480e565b602002602001018190525080612a1990614852565b9050612985565b5092915050565b612a2f612a90565b61019e54610100900460ff1615612a775760405162461bcd60e51b815260206004820152600c60248201526b696e207465726d696e616c2160a01b604482015260640161084d565b336000612a83826119e3565b9050610ab0828285612ae6565b6101625460ff1615612ae45760405162461bcd60e51b815260206004820152601060248201527f5061757361626c653a2070617573656400000000000000000000000000000000604482015260640161084d565b565b6000612af1836135cf565b6001600160a01b038516600090815261019760205260409020549091508181101580612b2a57506402540be400612b2882846148c4565b105b612b815760405162461bcd60e51b815260206004820152602260248201527f45524332303a206275726e20616d6f756e7420657863656564732062616c616e604482015261636560f01b606482015260840161084d565b6001600160a01b0385166000908152610198602052604090205460ff1615612beb5760405162461bcd60e51b815260206004820152601860248201527f6163636f756e7420697320696e20626c61636b206c6973740000000000000000604482015260640161084d565b612bf58183613ac2565b6001600160a01b0386166000908152610197602052604090205561019454612c1d9083613ac2565b610194556040518481526000906001600160a01b038716907fddf252ad1be2c89b69c2b068fc378daa952ba7f163c4a11628f55a4df523b3ef9060200160405180910390a360005b61019b54811015612e295761019b5461019d541015612c875761019d54612c8a565b60005b61019d819055506000610199600061019b61019d5481548110612caf57612caf61480e565b60009182526020808320909101546001600160a01b03168352820192909252604001812060018101549092508710612cff57506001810154612cf181886148c4565b600060018401559650612d20565b86905086826001016000828254612d1691906148c4565b9091555060009750505b8015612df15761019e548254604051632b0fcbdf60e11b81526004810191909152602481018390526001600160a01b038881166044830152620100009092049091169063561f97be906064016020604051808303816000875af1158015612d8b573d6000803e3d6000fd5b505050506040513d601f19601f82011682018060405250810190612daf91906147f5565b5081546040518281526001600160a01b038a16907fc3ded2be7db21b1af963f267d27750e4a15f174547d88b886b9bda43e2c6fa329060200160405180910390a35b600161019d6000828254612e05919061483a565b909155505086612e16575050612e29565b505080612e2290614852565b9050612c65565b508315612fac5761019f546040516370a0823160e01b81523060048201526000916001600160a01b0316906370a0823190602401602060405180830381865afa158015612e7a573d6000803e3d6000fd5b505050506040513d601f19601f82011682018060405250810190612e9e91906147f5565b905084811015612ef05760405162461bcd60e51b815260206004820152601460248201527f496e73756666696369656e742062616c616e6365000000000000000000000000604482015260640161084d565b61019f5460405163a9059cbb60e01b81526001600160a01b038681166004830152602482018890529091169063a9059cbb906044016020604051808303816000875af1158015612f44573d6000803e3d6000fd5b505050506040513d601f19601f82011682018060405250810190612f68919061487d565b506040518581526000906001600160a01b038816907fc3ded2be7db21b1af963f267d27750e4a15f174547d88b886b9bda43e2c6fa329060200160405180910390a3505b5050505050565b60006001600160e01b03198216637965db0b60e01b148061088a57506301ffc9a760e01b6001600160e01b031983161461088a565b6001600160a01b03831661304a5760405162461bcd60e51b8152602060048201526024808201527f45524332303a20617070726f76652066726f6d20746865207a65726f206164646044820152637265737360e01b606482015260840161084d565b6001600160a01b0382166130ab5760405162461bcd60e51b815260206004820152602260248201527f45524332303a20617070726f766520746f20746865207a65726f206164647265604482015261737360f01b606482015260840161084d565b6001600160a01b0383811660008181526034602090815260408083209487168084529482529182902085905590518481527f8c5be1e5ebec7d5bd14f71427d1e84f3dd0314c0f7b2291e5b200ac8c7c3b925910160405180910390a3505050565b6001600160a01b038381166000908152603460209081526040808320938616835292905220546000198114612101578181101561318b5760405162461bcd60e51b815260206004820152601d60248201527f45524332303a20696e73756666696369656e7420616c6c6f77616e6365000000604482015260640161084d565b6121018484848403612fe8565b6001600160a01b0383166132145760405162461bcd60e51b815260206004820152602560248201527f45524332303a207472616e736665722066726f6d20746865207a65726f20616460448201527f6472657373000000000000000000000000000000000000000000000000000000606482015260840161084d565b6001600160a01b0382166132765760405162461bcd60e51b815260206004820152602360248201527f45524332303a207472616e7366657220746f20746865207a65726f206164647260448201526265737360e81b606482015260840161084d565b6001600160a01b0383166000908152610198602052604090205460ff161580156132ba57506001600160a01b0382166000908152610198602052604090205460ff16155b6133065760405162461bcd60e51b815260206004820152601f60248201527f45524332303a206163636f756e7420697320696e20626c61636b206c69737400604482015260640161084d565b6000613311826135cf565b6001600160a01b03851660009081526101976020526040902054909150818110158061334a57506402540be40061334882846148c4565b105b6133bc5760405162461bcd60e51b815260206004820152602660248201527f45524332303a207472616e7366657220616d6f756e742065786365656473206260448201527f616c616e63650000000000000000000000000000000000000000000000000000606482015260840161084d565b6133c68183613ac2565b6001600160a01b038681166000818152610197602090815260408083209590955592881680825290849020805487019055925186815290917fddf252ad1be2c89b69c2b068fc378daa952ba7f163c4a11628f55a4df523b3ef910160405180910390a3612fac565b610ddc8133613b01565b6134428282613b76565b600082815261013060205260409020610ab09082613c18565b6000610abf7f8b73c3c69bb8fe3d512ecc4cf759cc79239f7b179b0ffacaa9a75d522b39400f61348a60655490565b6066546040805160208101859052908101839052606081018290524660808201523060a082015260009060c0016040516020818303038152906040528051906020012090509392505050565b6134e08282613c2d565b600082815261013060205260409020610ab09082613cb0565b613501613cc5565b610162805460ff191690557f5db9ee0a495bf2e6ff9c91a7834c1ba4fdd244a5e8aa4e537bd38aeae4b073aa335b6040516001600160a01b03909116815260200160405180910390a1565b600081156b019d971e4fe8401e74000000198390048411151761356e57600080fd5b506b033b2e3c9fd0803ce800000091026b019d971e4fe8401e74000000010490565b600081156b033b2e3c9fd0803ce8000000600284041904841117156135b457600080fd5b506b033b2e3c9fd0803ce80000009190910260028204010490565b600061088a6135dc61093a565b61019454610dfa90859061354c565b633b9aca00818102908104821461360157600080fd5b919050565b61360e612a90565b610162805460ff191660011790557f62e78cea01bee320cd4e420270b5ea74000d11b0c9f74754ebdbfc544b05a25861352f3390565b6000611a868383613d18565b600080606060005b61019b548110156138355761019b5461019d54101561367a5761019d5461367d565b60005b61019d819055506000610199600061019b61019d54815481106136a2576136a261480e565b60009182526020808320909101546001600160a01b039081168452908301939093526040918201902061019e548154925191945062010000900490921691626de11b60e61b916136ff918a90602401918252602082015260400190565b60408051601f198184030181529181526020820180516001600160e01b03166001600160e01b031990941693909317909252905161373d91906148f1565b6000604051808303816000865af19150503d806000811461377a576040519150601f19603f3d011682016040523d82523d6000602084013e61377f565b606091505b508094508195505050600161019d600082825461379c919061483a565b9091555084905080156137be5750828060200190518101906137be919061487d565b1561382457858160010160008282546137d7919061483a565b909155505080546040518781526001600160a01b038916907f19dacbf83c5de6658e14cbf7bcae5c15eca2eedecf1c66fbca928e4d351bea0f9060200160405180910390a3549350613835565b5061382e81614852565b9050613658565b50818015613852575080806020019051810190613852919061487d565b6138925760405162461bcd60e51b81526020600482015260116024820152706e6f206473742063616e6469646174652160781b604482015260640161084d565b505092915050565b600054610100900460ff166139055760405162461bcd60e51b815260206004820152602b60248201527f496e697469616c697a61626c653a20636f6e7472616374206973206e6f74206960448201526a6e697469616c697a696e6760a81b606482015260840161084d565b610ddc81604051806040016040528060018152602001603160f81b815250613d42565b600054610100900460ff166139935760405162461bcd60e51b815260206004820152602b60248201527f496e697469616c697a61626c653a20636f6e7472616374206973206e6f74206960448201526a6e697469616c697a696e6760a81b606482015260840161084d565b6108618282613dc7565b600054610100900460ff16613a085760405162461bcd60e51b815260206004820152602b60248201527f496e697469616c697a61626c653a20636f6e7472616374206973206e6f74206960448201526a6e697469616c697a696e6760a81b606482015260840161084d565b612ae4613e59565b6108618282613438565b600061088a825490565b6001600160a01b03811660009081526099602052604090208054600181018255905b50919050565b600061088a613a5961345b565b8360405161190160f01b6020820152602281018390526042810182905260009060620160405160208183030381529060405280519060200120905092915050565b6000806000613aab87878787613ed1565b91509150613ab881613f95565b5095945050505050565b6000818310613adc57613ad582846148c4565b905061088a565b6000613ae884846148c4565b90506402540be40081101561037757600091505061088a565b600082815260fe602090815260408083206001600160a01b038516845290915290205460ff1661086157613b34816140e3565b613b3f8360206140f5565b604051602001613b50929190614923565b60408051601f198184030181529082905262461bcd60e51b825261084d91600401614532565b600082815260fe602090815260408083206001600160a01b038516845290915290205460ff1661086157600082815260fe602090815260408083206001600160a01b03851684529091529020805460ff19166001179055613bd43390565b6001600160a01b0316816001600160a01b0316837f2f8788117e7eff1d82e926ec794901d17c78024a50270940304540a733656f0d60405160405180910390a45050565b6000611a86836001600160a01b03841661429e565b600082815260fe602090815260408083206001600160a01b038516845290915290205460ff161561086157600082815260fe602090815260408083206001600160a01b0385168085529252808320805460ff1916905551339285917ff6391f5c32d9c69d2a47ea670b442974b53935d1edc7fd64eb21e047a839171b9190a45050565b6000611a86836001600160a01b0384166142ed565b6101625460ff16612ae45760405162461bcd60e51b815260206004820152601460248201527f5061757361626c653a206e6f7420706175736564000000000000000000000000604482015260640161084d565b6000826000018281548110613d2f57613d2f61480e565b9060005260206000200154905092915050565b600054610100900460ff16613dad5760405162461bcd60e51b815260206004820152602b60248201527f496e697469616c697a61626c653a20636f6e7472616374206973206e6f74206960448201526a6e697469616c697a696e6760a81b606482015260840161084d565b815160209283012081519190920120606591909155606655565b600054610100900460ff16613e325760405162461bcd60e51b815260206004820152602b60248201527f496e697469616c697a61626c653a20636f6e7472616374206973206e6f74206960448201526a6e697469616c697a696e6760a81b606482015260840161084d565b8151613e459060369060208501906143fe565b508051610ab09060379060208401906143fe565b600054610100900460ff16613ec45760405162461bcd60e51b815260206004820152602b60248201527f496e697469616c697a61626c653a20636f6e7472616374206973206e6f74206960448201526a6e697469616c697a696e6760a81b606482015260840161084d565b610162805460ff19169055565b6000807f7fffffffffffffffffffffffffffffff5d576e7357a4501ddfe92f46681b20a0831115613f085750600090506003613f8c565b6040805160008082526020820180845289905260ff881692820192909252606081018690526080810185905260019060a0016020604051602081039080840390855afa158015613f5c573d6000803e3d6000fd5b5050604051601f1901519150506001600160a01b038116613f8557600060019250925050613f8c565b9150600090505b94509492505050565b6000816004811115613fa957613fa96149a4565b1415613fb25750565b6001816004811115613fc657613fc66149a4565b14156140145760405162461bcd60e51b815260206004820152601860248201527f45434453413a20696e76616c6964207369676e61747572650000000000000000604482015260640161084d565b6002816004811115614028576140286149a4565b14156140765760405162461bcd60e51b815260206004820152601f60248201527f45434453413a20696e76616c6964207369676e6174757265206c656e67746800604482015260640161084d565b600381600481111561408a5761408a6149a4565b1415610ddc5760405162461bcd60e51b815260206004820152602260248201527f45434453413a20696e76616c6964207369676e6174757265202773272076616c604482015261756560f01b606482015260840161084d565b606061088a6001600160a01b03831660145b606060006141048360026149ba565b61410f90600261483a565b67ffffffffffffffff8111156141275761412761490d565b6040519080825280601f01601f191660200182016040528015614151576020820181803683370190505b509050600360fc1b8160008151811061416c5761416c61480e565b60200101906001600160f81b031916908160001a905350600f60fb1b8160018151811061419b5761419b61480e565b60200101906001600160f81b031916908160001a90535060006141bf8460026149ba565b6141ca90600161483a565b90505b600181111561424f577f303132333435363738396162636465660000000000000000000000000000000085600f166010811061420b5761420b61480e565b1a60f81b8282815181106142215761422161480e565b60200101906001600160f81b031916908160001a90535060049490941c93614248816149d9565b90506141cd565b508315611a865760405162461bcd60e51b815260206004820181905260248201527f537472696e67733a20686578206c656e67746820696e73756666696369656e74604482015260640161084d565b60008181526001830160205260408120546142e55750815460018181018455600084815260208082209093018490558454848252828601909352604090209190915561088a565b50600061088a565b600081815260018301602052604081205480156143d65760006143116001836148c4565b8554909150600090614325906001906148c4565b905081811461438a5760008660000182815481106143455761434561480e565b90600052602060002001549050808760000184815481106143685761436861480e565b6000918252602080832090910192909255918252600188019052604090208390555b855486908061439b5761439b6148db565b60019003818190600052602060002001600090559055856001016000868152602001908152602001600020600090556001935050505061088a565b600091505061088a565b5080546000825590600052602060002090810190610ddc9190614482565b82805461440a906147c0565b90600052602060002090601f01602090048101928261442c5760008555614472565b82601f1061444557805160ff1916838001178555614472565b82800160010185558215614472579182015b82811115614472578251825591602001919060010190614457565b5061447e929150614482565b5090565b5b8082111561447e5760008155600101614483565b6001600160a01b0381168114610ddc57600080fd5b600080604083850312156144bf57600080fd5b8235915060208301356144d181614497565b809150509250929050565b6000602082840312156144ee57600080fd5b81356001600160e01b031981168114611a8657600080fd5b60005b83811015614521578181015183820152602001614509565b838111156121015750506000910152565b6020815260008251806020840152614551816040850160208701614506565b601f01601f19169190910160400192915050565b60006020828403121561457757600080fd5b8135611a8681614497565b6000806040838503121561459557600080fd5b82356145a081614497565b946020939093013593505050565b6000806000606084860312156145c357600080fd5b83356145ce81614497565b925060208401356145de81614497565b929592945050506040919091013590565b60006020828403121561460157600080fd5b5035919050565b6020808252825182820181905260009190848201906040850190845b818110156146495783516001600160a01b031683529284019291840191600101614624565b50909695505050505050565b6000806040838503121561466857600080fd5b50508035926020909101359150565b60008060006060848603121561468c57600080fd5b833561469781614497565b925060208401356146a781614497565b915060408401356146b781614497565b809150509250925092565b600080600080600080600060e0888a0312156146dd57600080fd5b87356146e881614497565b965060208801356146f881614497565b95506040880135945060608801359350608088013560ff8116811461471c57600080fd5b9699959850939692959460a0840135945060c09093013592915050565b6000806040838503121561474c57600080fd5b823561475781614497565b915060208301356144d181614497565b602080825282518282018190526000919060409081850190868401855b828110156147b35781518051855286810151878601528501518585015260609093019290850190600101614784565b5091979650505050505050565b600181811c908216806147d457607f821691505b60208210811415613a4657634e487b7160e01b600052602260045260246000fd5b60006020828403121561480757600080fd5b5051919050565b634e487b7160e01b600052603260045260246000fd5b634e487b7160e01b600052601160045260246000fd5b6000821982111561484d5761484d614824565b500190565b600060001982141561486657614866614824565b5060010190565b8051801515811461360157600080fd5b60006020828403121561488f57600080fd5b611a868261486d565b600080604083850312156148ab57600080fd5b825191506148bb6020840161486d565b90509250929050565b6000828210156148d6576148d6614824565b500390565b634e487b7160e01b600052603160045260246000fd5b60008251614903818460208701614506565b9190910192915050565b634e487b7160e01b600052604160045260246000fd5b7f416363657373436f6e74726f6c3a206163636f756e742000000000000000000081526000835161495b816017850160208801614506565b7f206973206d697373696e6720726f6c65200000000000000000000000000000006017918401918201528351614998816028840160208801614506565b01602801949350505050565b634e487b7160e01b600052602160045260246000fd5b60008160001904831182151516156149d4576149d4614824565b500290565b6000816149e8576149e8614824565b50600019019056fea26469706673582212206bc8c5d9530924300b720517101dafa3ceeda33dc524216aabc98e9f89af7c3f64736f6c634300080b0033",
  "linkReferences": {},
  "deployedLinkReferences": {}
}