{
  "_format": "hh-sol-artifact-1",
  "contractName": "StMTRG",
  "sourceName": "contracts/StMTRG.sol",
  "abi": [
    {
      "inputs": [
        {
          "internalType": "contract IERC20",
          "name": "_MTRG",
          "type": "address"
        },
        {
          "internalType": "address",
          "name": "scriptEngineAddr",
          "type": "address"
        },
        {
          "internalType": "address",
          "name": "_candidate",
          "type": "address"
        }
      ],
      "stateMutability": "nonpayable",
      "type": "constructor"
    },
    {
      "anonymous": false,
      "inputs": [
        {
          "indexed": true,
          "internalType": "address",
          "name": "owner",
          "type": "address"
        },
        {
          "indexed": true,
          "internalType": "address",
          "name": "spender",
          "type": "address"
        },
        {
          "indexed": false,
          "internalType": "uint256",
          "name": "value",
          "type": "uint256"
        }
      ],
      "name": "Approval",
      "type": "event"
    },
    {
      "anonymous": false,
      "inputs": [
        {
          "indexed": false,
          "internalType": "uint256",
          "name": "timestamp",
          "type": "uint256"
        }
      ],
      "name": "ExecuteClost",
      "type": "event"
    },
    {
      "anonymous": false,
      "inputs": [
        {
          "indexed": true,
          "internalType": "uint256",
          "name": "epoch",
          "type": "uint256"
        },
        {
          "indexed": false,
          "internalType": "uint256",
          "name": "totalSupply",
          "type": "uint256"
        }
      ],
      "name": "LogRebase",
      "type": "event"
    },
    {
      "anonymous": false,
      "inputs": [
        {
          "indexed": false,
          "internalType": "address",
          "name": "oldCandidate",
          "type": "address"
        },
        {
          "indexed": false,
          "internalType": "address",
          "name": "newCandidate",
          "type": "address"
        }
      ],
      "name": "NewCandidate",
      "type": "event"
    },
    {
      "anonymous": false,
      "inputs": [
        {
          "indexed": false,
          "internalType": "address",
          "name": "account",
          "type": "address"
        }
      ],
      "name": "Paused",
      "type": "event"
    },
    {
      "anonymous": false,
      "inputs": [
        {
          "indexed": false,
          "internalType": "uint256",
          "name": "timestamp",
          "type": "uint256"
        }
      ],
      "name": "RequestClost",
      "type": "event"
    },
    {
      "anonymous": false,
      "inputs": [
        {
          "indexed": true,
          "internalType": "bytes32",
          "name": "role",
          "type": "bytes32"
        },
        {
          "indexed": true,
          "internalType": "bytes32",
          "name": "previousAdminRole",
          "type": "bytes32"
        },
        {
          "indexed": true,
          "internalType": "bytes32",
          "name": "newAdminRole",
          "type": "bytes32"
        }
      ],
      "name": "RoleAdminChanged",
      "type": "event"
    },
    {
      "anonymous": false,
      "inputs": [
        {
          "indexed": true,
          "internalType": "bytes32",
          "name": "role",
          "type": "bytes32"
        },
        {
          "indexed": true,
          "internalType": "address",
          "name": "account",
          "type": "address"
        },
        {
          "indexed": true,
          "internalType": "address",
          "name": "sender",
          "type": "address"
        }
      ],
      "name": "RoleGranted",
      "type": "event"
    },
    {
      "anonymous": false,
      "inputs": [
        {
          "indexed": true,
          "internalType": "bytes32",
          "name": "role",
          "type": "bytes32"
        },
        {
          "indexed": true,
          "internalType": "address",
          "name": "account",
          "type": "address"
        },
        {
          "indexed": true,
          "internalType": "address",
          "name": "sender",
          "type": "address"
        }
      ],
      "name": "RoleRevoked",
      "type": "event"
    },
    {
      "anonymous": false,
      "inputs": [
        {
          "indexed": true,
          "internalType": "address",
          "name": "from",
          "type": "address"
        },
        {
          "indexed": true,
          "internalType": "address",
          "name": "to",
          "type": "address"
        },
        {
          "indexed": false,
          "internalType": "uint256",
          "name": "value",
          "type": "uint256"
        }
      ],
      "name": "Transfer",
      "type": "event"
    },
    {
      "anonymous": false,
      "inputs": [
        {
          "indexed": false,
          "internalType": "address",
          "name": "account",
          "type": "address"
        }
      ],
      "name": "Unpaused",
      "type": "event"
    },
    {
      "inputs": [],
      "name": "CLOSE_DURATION",
      "outputs": [
        {
          "internalType": "uint256",
          "name": "",
          "type": "uint256"
        }
      ],
      "stateMutability": "view",
      "type": "function"
    },
    {
      "inputs": [],
      "name": "DEFAULT_ADMIN_ROLE",
      "outputs": [
        {
          "internalType": "bytes32",
          "name": "",
          "type": "bytes32"
        }
      ],
      "stateMutability": "view",
      "type": "function"
    },
    {
      "inputs": [],
      "name": "DOMAIN_SEPARATOR",
      "outputs": [
        {
          "internalType": "bytes32",
          "name": "",
          "type": "bytes32"
        }
      ],
      "stateMutability": "view",
      "type": "function"
    },
    {
      "inputs": [],
      "name": "MTRG",
      "outputs": [
        {
          "internalType": "contract IERC20",
          "name": "",
          "type": "address"
        }
      ],
      "stateMutability": "view",
      "type": "function"
    },
    {
      "inputs": [
        {
          "internalType": "address",
          "name": "",
          "type": "address"
        }
      ],
      "name": "_shares",
      "outputs": [
        {
          "internalType": "uint256",
          "name": "",
          "type": "uint256"
        }
      ],
      "stateMutability": "view",
      "type": "function"
    },
    {
      "inputs": [],
      "name": "_totalShares",
      "outputs": [
        {
          "internalType": "uint256",
          "name": "",
          "type": "uint256"
        }
      ],
      "stateMutability": "view",
      "type": "function"
    },
    {
      "inputs": [
        {
          "internalType": "address",
          "name": "account",
          "type": "address"
        },
        {
          "internalType": "uint256",
          "name": "amount",
          "type": "uint256"
        },
        {
          "internalType": "address",
          "name": "recipient",
          "type": "address"
        }
      ],
      "name": "adminWithdraw",
      "outputs": [],
      "stateMutability": "nonpayable",
      "type": "function"
    },
    {
      "inputs": [
        {
          "internalType": "address",
          "name": "to",
          "type": "address"
        }
      ],
      "name": "adminWithdrawAll",
      "outputs": [],
      "stateMutability": "nonpayable",
      "type": "function"
    },
    {
      "inputs": [
        {
          "internalType": "address",
          "name": "owner",
          "type": "address"
        },
        {
          "internalType": "address",
          "name": "spender",
          "type": "address"
        }
      ],
      "name": "allowance",
      "outputs": [
        {
          "internalType": "uint256",
          "name": "",
          "type": "uint256"
        }
      ],
      "stateMutability": "view",
      "type": "function"
    },
    {
      "inputs": [
        {
          "internalType": "address",
          "name": "spender",
          "type": "address"
        },
        {
          "internalType": "uint256",
          "name": "amount",
          "type": "uint256"
        }
      ],
      "name": "approve",
      "outputs": [
        {
          "internalType": "bool",
          "name": "",
          "type": "bool"
        }
      ],
      "stateMutability": "nonpayable",
      "type": "function"
    },
    {
      "inputs": [
        {
          "internalType": "address",
          "name": "account",
          "type": "address"
        }
      ],
      "name": "balanceOf",
      "outputs": [
        {
          "internalType": "uint256",
          "name": "",
          "type": "uint256"
        }
      ],
      "stateMutability": "view",
      "type": "function"
    },
    {
      "inputs": [],
      "name": "bucketID",
      "outputs": [
        {
          "internalType": "bytes32",
          "name": "",
          "type": "bytes32"
        }
      ],
      "stateMutability": "view",
      "type": "function"
    },
    {
      "inputs": [],
      "name": "candidate",
      "outputs": [
        {
          "internalType": "address",
          "name": "",
          "type": "address"
        }
      ],
      "stateMutability": "view",
      "type": "function"
    },
    {
      "inputs": [],
      "name": "closeTimestamp",
      "outputs": [
        {
          "internalType": "uint256",
          "name": "",
          "type": "uint256"
        }
      ],
      "stateMutability": "view",
      "type": "function"
    },
    {
      "inputs": [],
      "name": "decimals",
      "outputs": [
        {
          "internalType": "uint8",
          "name": "",
          "type": "uint8"
        }
      ],
      "stateMutability": "view",
      "type": "function"
    },
    {
      "inputs": [
        {
          "internalType": "address",
          "name": "spender",
          "type": "address"
        },
        {
          "internalType": "uint256",
          "name": "subtractedValue",
          "type": "uint256"
        }
      ],
      "name": "decreaseAllowance",
      "outputs": [
        {
          "internalType": "bool",
          "name": "",
          "type": "bool"
        }
      ],
      "stateMutability": "nonpayable",
      "type": "function"
    },
    {
      "inputs": [
        {
          "internalType": "uint256",
          "name": "amount",
          "type": "uint256"
        }
      ],
      "name": "deposit",
      "outputs": [],
      "stateMutability": "nonpayable",
      "type": "function"
    },
    {
      "inputs": [],
      "name": "epoch",
      "outputs": [
        {
          "internalType": "uint256",
          "name": "",
          "type": "uint256"
        }
      ],
      "stateMutability": "view",
      "type": "function"
    },
    {
      "inputs": [],
      "name": "executeClose",
      "outputs": [],
      "stateMutability": "nonpayable",
      "type": "function"
    },
    {
      "inputs": [
        {
          "internalType": "address",
          "name": "recipient",
          "type": "address"
        }
      ],
      "name": "exit",
      "outputs": [],
      "stateMutability": "nonpayable",
      "type": "function"
    },
    {
      "inputs": [
        {
          "internalType": "bytes32",
          "name": "role",
          "type": "bytes32"
        }
      ],
      "name": "getRoleAdmin",
      "outputs": [
        {
          "internalType": "bytes32",
          "name": "",
          "type": "bytes32"
        }
      ],
      "stateMutability": "view",
      "type": "function"
    },
    {
      "inputs": [
        {
          "internalType": "bytes32",
          "name": "role",
          "type": "bytes32"
        },
        {
          "internalType": "uint256",
          "name": "index",
          "type": "uint256"
        }
      ],
      "name": "getRoleMember",
      "outputs": [
        {
          "internalType": "address",
          "name": "",
          "type": "address"
        }
      ],
      "stateMutability": "view",
      "type": "function"
    },
    {
      "inputs": [
        {
          "internalType": "bytes32",
          "name": "role",
          "type": "bytes32"
        }
      ],
      "name": "getRoleMemberCount",
      "outputs": [
        {
          "internalType": "uint256",
          "name": "",
          "type": "uint256"
        }
      ],
      "stateMutability": "view",
      "type": "function"
    },
    {
      "inputs": [
        {
          "internalType": "bytes32",
          "name": "role",
          "type": "bytes32"
        },
        {
          "internalType": "address",
          "name": "account",
          "type": "address"
        }
      ],
      "name": "grantRole",
      "outputs": [],
      "stateMutability": "nonpayable",
      "type": "function"
    },
    {
      "inputs": [
        {
          "internalType": "bytes32",
          "name": "role",
          "type": "bytes32"
        },
        {
          "internalType": "address",
          "name": "account",
          "type": "address"
        }
      ],
      "name": "hasRole",
      "outputs": [
        {
          "internalType": "bool",
          "name": "",
          "type": "bool"
        }
      ],
      "stateMutability": "view",
      "type": "function"
    },
    {
      "inputs": [
        {
          "internalType": "address",
          "name": "spender",
          "type": "address"
        },
        {
          "internalType": "uint256",
          "name": "addedValue",
          "type": "uint256"
        }
      ],
      "name": "increaseAllowance",
      "outputs": [
        {
          "internalType": "bool",
          "name": "",
          "type": "bool"
        }
      ],
      "stateMutability": "nonpayable",
      "type": "function"
    },
    {
      "inputs": [],
      "name": "initialize",
      "outputs": [],
      "stateMutability": "nonpayable",
      "type": "function"
    },
    {
      "inputs": [],
      "name": "isClosed",
      "outputs": [
        {
          "internalType": "bool",
          "name": "",
          "type": "bool"
        }
      ],
      "stateMutability": "view",
      "type": "function"
    },
    {
      "inputs": [],
      "name": "name",
      "outputs": [
        {
          "internalType": "string",
          "name": "",
          "type": "string"
        }
      ],
      "stateMutability": "view",
      "type": "function"
    },
    {
      "inputs": [
        {
          "internalType": "address",
          "name": "owner",
          "type": "address"
        }
      ],
      "name": "nonces",
      "outputs": [
        {
          "internalType": "uint256",
          "name": "",
          "type": "uint256"
        }
      ],
      "stateMutability": "view",
      "type": "function"
    },
    {
      "inputs": [],
      "name": "pause",
      "outputs": [],
      "stateMutability": "nonpayable",
      "type": "function"
    },
    {
      "inputs": [],
      "name": "paused",
      "outputs": [
        {
          "internalType": "bool",
          "name": "",
          "type": "bool"
        }
      ],
      "stateMutability": "view",
      "type": "function"
    },
    {
      "inputs": [
        {
          "internalType": "address",
          "name": "owner",
          "type": "address"
        },
        {
          "internalType": "address",
          "name": "spender",
          "type": "address"
        },
        {
          "internalType": "uint256",
          "name": "value",
          "type": "uint256"
        },
        {
          "internalType": "uint256",
          "name": "deadline",
          "type": "uint256"
        },
        {
          "internalType": "uint8",
          "name": "v",
          "type": "uint8"
        },
        {
          "internalType": "bytes32",
          "name": "r",
          "type": "bytes32"
        },
        {
          "internalType": "bytes32",
          "name": "s",
          "type": "bytes32"
        }
      ],
      "name": "permit",
      "outputs": [],
      "stateMutability": "nonpayable",
      "type": "function"
    },
    {
      "inputs": [],
      "name": "rebase",
      "outputs": [],
      "stateMutability": "nonpayable",
      "type": "function"
    },
    {
      "inputs": [
        {
          "internalType": "bytes32",
          "name": "role",
          "type": "bytes32"
        },
        {
          "internalType": "address",
          "name": "account",
          "type": "address"
        }
      ],
      "name": "renounceRole",
      "outputs": [],
      "stateMutability": "nonpayable",
      "type": "function"
    },
    {
      "inputs": [],
      "name": "requestClose",
      "outputs": [],
      "stateMutability": "nonpayable",
      "type": "function"
    },
    {
      "inputs": [
        {
          "internalType": "bytes32",
          "name": "role",
          "type": "bytes32"
        },
        {
          "internalType": "address",
          "name": "account",
          "type": "address"
        }
      ],
      "name": "revokeRole",
      "outputs": [],
      "stateMutability": "nonpayable",
      "type": "function"
    },
    {
      "inputs": [
        {
          "internalType": "address",
          "name": "account",
          "type": "address"
        }
      ],
      "name": "setBlackList",
      "outputs": [],
      "stateMutability": "nonpayable",
      "type": "function"
    },
    {
      "inputs": [
        {
          "internalType": "uint256",
          "name": "_share",
          "type": "uint256"
        }
      ],
      "name": "shareToValue",
      "outputs": [
        {
          "internalType": "uint256",
          "name": "",
          "type": "uint256"
        }
      ],
      "stateMutability": "view",
      "type": "function"
    },
    {
      "inputs": [
        {
          "internalType": "bytes4",
          "name": "interfaceId",
          "type": "bytes4"
        }
      ],
      "name": "supportsInterface",
      "outputs": [
        {
          "internalType": "bool",
          "name": "",
          "type": "bool"
        }
      ],
      "stateMutability": "view",
      "type": "function"
    },
    {
      "inputs": [],
      "name": "symbol",
      "outputs": [
        {
          "internalType": "string",
          "name": "",
          "type": "string"
        }
      ],
      "stateMutability": "view",
      "type": "function"
    },
    {
      "inputs": [],
      "name": "totalSupply",
      "outputs": [
        {
          "internalType": "uint256",
          "name": "",
          "type": "uint256"
        }
      ],
      "stateMutability": "view",
      "type": "function"
    },
    {
      "inputs": [
        {
          "internalType": "address",
          "name": "to",
          "type": "address"
        },
        {
          "internalType": "uint256",
          "name": "amount",
          "type": "uint256"
        }
      ],
      "name": "transfer",
      "outputs": [
        {
          "internalType": "bool",
          "name": "",
          "type": "bool"
        }
      ],
      "stateMutability": "nonpayable",
      "type": "function"
    },
    {
      "inputs": [
        {
          "internalType": "address",
          "name": "from",
          "type": "address"
        },
        {
          "internalType": "address",
          "name": "to",
          "type": "address"
        },
        {
          "internalType": "uint256",
          "name": "amount",
          "type": "uint256"
        }
      ],
      "name": "transferFrom",
      "outputs": [
        {
          "internalType": "bool",
          "name": "",
          "type": "bool"
        }
      ],
      "stateMutability": "nonpayable",
      "type": "function"
    },
    {
      "inputs": [],
      "name": "unpause",
      "outputs": [],
      "stateMutability": "nonpayable",
      "type": "function"
    },
    {
      "inputs": [
        {
          "internalType": "address",
          "name": "newCandidateAddr",
          "type": "address"
        }
      ],
      "name": "updateCandidate",
      "outputs": [],
      "stateMutability": "nonpayable",
      "type": "function"
    },
    {
      "inputs": [
        {
          "internalType": "uint256",
          "name": "_value",
          "type": "uint256"
        }
      ],
      "name": "valueToShare",
      "outputs": [
        {
          "internalType": "uint256",
          "name": "",
          "type": "uint256"
        }
      ],
      "stateMutability": "view",
      "type": "function"
    },
    {
      "inputs": [
        {
          "internalType": "uint256",
          "name": "amount",
          "type": "uint256"
        },
        {
          "internalType": "address",
          "name": "recipient",
          "type": "address"
        }
      ],
      "name": "withdraw",
      "outputs": [],
      "stateMutability": "nonpayable",
      "type": "function"
    }
  ],
  "bytecode": "0x6000600a55610180604052600b6101408190526a5374616b6564204d54524760a81b6101609081526200003691600c9190620004f9565b506040805180820190915260068082526573744d54524760d01b60209092019182526200006691600d91620004f9565b50600f805460ff191690553480156200007e57600080fd5b50604051620030de380380620030de833981016040819052620000a191620005b8565b600c8054620000b0906200060c565b80601f0160208091040260200160405190810160405280929190818152602001828054620000de906200060c565b80156200012f5780601f1062000103576101008083540402835291602001916200012f565b820191906000526020600020905b8154815290600101906020018083116200011157829003601f168201915b505050505080604051806040016040528060018152602001603160f81b815250600c80546200015e906200060c565b80601f01602080910402602001604051908101604052809291908181526020018280546200018c906200060c565b8015620001dd5780601f10620001b157610100808354040283529160200191620001dd565b820191906000526020600020905b815481529060010190602001808311620001bf57829003601f168201915b5050505050600d8054620001f1906200060c565b80601f01602080910402602001604051908101604052809291908181526020018280546200021f906200060c565b8015620002705780601f10620002445761010080835404028352916020019162000270565b820191906000526020600020905b8154815290600101906020018083116200025257829003601f168201915b505084516200028a935060039250602086019150620004f9565b508051620002a0906004906020840190620004f9565b5050825160209384012082519284019290922060e08390526101008190524660a0818152604080517f8b73c3c69bb8fe3d512ecc4cf759cc79239f7b179b0ffacaa9a75d522b39400f818901819052818301979097526060810194909452608080850193909352308483018190528151808603909301835260c0948501909152815191909601209052929092526101205250506009805460ff191690556200034a60003362000390565b601280546001600160a01b039384166001600160a01b03199182161790915560148054928416928216929092179091556015805493909216921691909117905562000649565b6200039c8282620003a0565b5050565b620003b78282620003e360201b620016181760201c565b6000828152600860209081526040909120620003de9183906200169e62000487821b17901c565b505050565b60008281526007602090815260408083206001600160a01b038516845290915290205460ff166200039c5760008281526007602090815260408083206001600160a01b03851684529091529020805460ff19166001179055620004433390565b6001600160a01b0316816001600160a01b0316837f2f8788117e7eff1d82e926ec794901d17c78024a50270940304540a733656f0d60405160405180910390a45050565b60006200049e836001600160a01b038416620004a7565b90505b92915050565b6000818152600183016020526040812054620004f057508154600181810184556000848152602080822090930184905584548482528286019093526040902091909155620004a1565b506000620004a1565b82805462000507906200060c565b90600052602060002090601f0160209004810192826200052b576000855562000576565b82601f106200054657805160ff191683800117855562000576565b8280016001018555821562000576579182015b828111156200057657825182559160200191906001019062000559565b506200058492915062000588565b5090565b5b8082111562000584576000815560010162000589565b6001600160a01b0381168114620005b557600080fd5b50565b600080600060608486031215620005ce57600080fd5b8351620005db816200059f565b6020850151909350620005ee816200059f565b604085015190925062000601816200059f565b809150509250925092565b600181811c908216806200062157607f821691505b602082108114156200064357634e487b7160e01b600052602260045260246000fd5b50919050565b60805160a05160c05160e0516101005161012051612a45620006996000396000611d1001526000611d5f01526000611d3a01526000611c9301526000611cbd01526000611ce70152612a456000f3fe608060405234801561001057600080fd5b506004361061029f5760003560e01c80638456cb5911610167578063a9059cbb116100ce578063c2b6b58c11610087578063c2b6b58c1461057c578063ca15c87314610589578063d505accf1461059c578063d547741f146105af578063dd62ed3e146105c2578063fdb4fb0e146105d557600080fd5b8063a9059cbb14610512578063af14052c14610525578063b0428da61461052d578063b34c8caf14610536578063b42652e914610556578063b6b55f251461056957600080fd5b8063992d847e11610120578063992d847e146104c05780639e8f1d6e146104d3578063a217fddf146104dc578063a457c2d7146104e4578063a6536e75146104f7578063a68b068b146104ff57600080fd5b80638456cb591461046e57806388b0e2a414610476578063900cf0cf146104895780639010d07c1461049257806391d14854146104a557806395d89b41146104b857600080fd5b8063395093511161020b5780635c975abb116101c45780635c975abb146103f75780636c8381f81461040257806370a082311461042d57806372700241146104405780637ecebe00146104535780638129fc1c1461046657600080fd5b8063395093511461039b5780633f4ba83a146103ae578063441130d5146103b65780634b64fcd1146103c957806356e1887d146103dc578063577262ab146103ef57600080fd5b806323b872dd1161025d57806323b872dd14610328578063248a9ca31461033b5780632f2ff15d1461035e578063313ce567146103715780633644e5151461038057806336568abe1461038857600080fd5b8062f714ce146102a457806301ffc9a7146102b9578063052d7c00146102e157806306fdde03146102f8578063095ea7b31461030d57806318160ddd14610320575b600080fd5b6102b76102b236600461258f565b6105df565b005b6102cc6102c73660046125bb565b6105f6565b60405190151581526020015b60405180910390f35b6102ea600e5481565b6040519081526020016102d8565b610300610621565b6040516102d89190612611565b6102cc61031b366004612644565b6106b3565b6102ea6106cb565b6102cc61033636600461266e565b61073e565b6102ea6103493660046126aa565b60009081526007602052604090206001015490565b6102b761036c36600461258f565b610762565b604051601281526020016102d8565b6102ea61078c565b6102b761039636600461258f565b610796565b6102cc6103a9366004612644565b610815565b6102b7610837565b6102ea6103c43660046126aa565b61084d565b6102ea6103d73660046126aa565b61086e565b6102b76103ea3660046126c3565b610879565b6102b761089d565b60095460ff166102cc565b601454610415906001600160a01b031681565b6040516001600160a01b0390911681526020016102d8565b6102ea61043b3660046126ff565b6108f8565b6102b761044e3660046126ff565b610928565b6102ea6104613660046126ff565b61095d565b6102b761097b565b6102b7610b6f565b601554610415906001600160a01b031681565b6102ea600b5481565b6104156104a036600461271a565b610b82565b6102cc6104b336600461258f565b610ba1565b610300610bcc565b6102b76104ce3660046126ff565b610bdb565b6102ea60135481565b6102ea600081565b6102cc6104f2366004612644565b610cd7565b6102b7610d52565b6102b761050d3660046126ff565b610e69565b6102cc610520366004612644565b610fce565b6102b7610fdc565b6102ea600a5481565b6102ea6105443660046126ff565b60106020526000908152604090205481565b6102b76105643660046126ff565b611143565b6102b76105773660046126aa565b61123d565b600f546102cc9060ff1681565b6102ea6105973660046126aa565b61144d565b6102b76105aa36600461273c565b611464565b6102b76105bd36600461258f565b6115c8565b6102ea6105d03660046127af565b6115ed565b6102ea62278d0081565b6105e76116b3565b6105f23383836116fb565b5050565b60006001600160e01b03198216635a05180f60e01b148061061b575061061b82611850565b92915050565b606060038054610630906127d9565b80601f016020809104026020016040519081016040528092919081815260200182805461065c906127d9565b80156106a95780601f1061067e576101008083540402835291602001916106a9565b820191906000526020600020905b81548152906001019060200180831161068c57829003601f168201915b5050505050905090565b6000336106c1818585611885565b5060019392505050565b60125460408051631d46ec1560e11b815290516000926001600160a01b031691633a8dd82a9160048083019260209291908290030181865afa158015610715573d6000803e3d6000fd5b505050506040513d601f19601f82011682018060405250810190610739919061280e565b905090565b60003361074c8582856119a1565b610757858585611a15565b506001949350505050565b60008281526007602052604090206001015461077d81611c5a565b6107878383611c64565b505050565b6000610739611c86565b6001600160a01b038116331461080b5760405162461bcd60e51b815260206004820152602f60248201527f416363657373436f6e74726f6c3a2063616e206f6e6c792072656e6f756e636560448201526e103937b632b9903337b91039b2b63360891b60648201526084015b60405180910390fd5b6105f28282611dad565b6000336106c181858561082883836115ed565b610832919061283d565b611885565b600061084281611c5a565b61084a611dcf565b50565b6000600a5461085a6106cb565b6108649084612855565b61061b9190612874565b600061061b82611e21565b600061088481611c5a565b61088c611e38565b6108978484846116fb565b50505050565b60006108a881611c5a565b600f805460ff1916600117905542600e8190556040517f2e833c16c65d039b0eb1b7b1b7d7b219f0bd0b107a8a5555bf828a1c09833bd7916108ed9190815260200190565b60405180910390a150565b6000600a546109056106cb565b6001600160a01b0384166000908152601060205260409020546108649190612855565b600061093381611c5a565b506001600160a01b03166000908152601160205260409020805460ff19811660ff90911615179055565b6001600160a01b03811660009081526005602052604081205461061b565b600061098681611c5a565b600f5460ff16156109a95760405162461bcd60e51b815260040161080290612896565b600a54156109ec5760405162461bcd60e51b815260206004820152601060248201526f0746f74616c53686172657320213d20360841b6044820152606401610802565b6015546040516323b872dd60e01b8152336004820181905230602483015268056bc75e2d6310000060448301819052909290916001600160a01b03909116906323b872dd906064016020604051808303816000875af1158015610a53573d6000803e3d6000fd5b505050506040513d601f19601f82011682018060405250810190610a7791906128b7565b5060125460145460405163183077b960e11b81526001600160a01b03918216600482015260248101849052911690633060ef72906044016020604051808303816000875af1158015610acd573d6000803e3d6000fd5b505050506040513d601f19601f82011682018060405250810190610af1919061280e565b6013556001600160a01b03821660009081526010602052604081208054839290610b1c90849061283d565b9250508190555080600a6000828254610b35919061283d565b90915550506040518181526001600160a01b038316906000906000805160206129f0833981519152906020015b60405180910390a3505050565b6000610b7a81611c5a565b61084a611e81565b6000828152600860205260408120610b9a9083611ebe565b9392505050565b60009182526007602090815260408084206001600160a01b0393909316845291905290205460ff1690565b606060048054610630906127d9565b6000610be681611c5a565b600f5460ff1615610c095760405162461bcd60e51b815260040161080290612896565b6012546013546040516304a8292160e41b815260048101919091526001600160a01b03848116602483015290911690634a82921090604401600060405180830381600087803b158015610c5b57600080fd5b505af1158015610c6f573d6000803e3d6000fd5b5050601480546001600160a01b031981166001600160a01b038781169182179093556040805193909216808452602084019190915293507fdeb5698764fe4c74f69cd32a9933797c5b9b1e326b6dfc883778050164375a4592500160405180910390a1505050565b60003381610ce582866115ed565b905083811015610d455760405162461bcd60e51b815260206004820152602560248201527f45524332303a2064656372656173656420616c6c6f77616e63652062656c6f77604482015264207a65726f60d81b6064820152608401610802565b6107578286868403611885565b6000610d5d81611c5a565b600f5460ff16610d7f5760405162461bcd60e51b815260040161080290612896565b62278d00600e54610d90919061283d565b421015610dd15760405162461bcd60e51b815260206004820152600f60248201526e434c4f53455f4455524154494f4e2160881b6044820152606401610802565b6012546013546040516377d7f91360e01b81526001600160a01b03909216916377d7f91391610e069160040190815260200190565b600060405180830381600087803b158015610e2057600080fd5b505af1158015610e34573d6000803e3d6000fd5b505050507f6dd94557783fb712f42c550895d6b0cb542f62491a9a9fd76658cf40e750aeb5426040516108ed91815260200190565b6000610e7481611c5a565b600f5460ff16610e965760405162461bcd60e51b815260040161080290612896565b62278d00600e54610ea7919061283d565b421015610ee85760405162461bcd60e51b815260206004820152600f60248201526e434c4f53455f4455524154494f4e2160881b6044820152606401610802565b6015546040516370a0823160e01b81523060048201526000916001600160a01b0316906370a0823190602401602060405180830381865afa158015610f31573d6000803e3d6000fd5b505050506040513d601f19601f82011682018060405250810190610f55919061280e565b60155460405163a9059cbb60e01b81526001600160a01b0386811660048301526024820184905292935091169063a9059cbb906044016020604051808303816000875af1158015610faa573d6000803e3d6000fd5b505050506040513d601f19601f8201168201806040525081019061089791906128b7565b6000336106c1818585611a15565b6000610fe781611c5a565b600f5460ff161561100a5760405162461bcd60e51b815260040161080290612896565b6015546040516370a0823160e01b81523060048201526000916001600160a01b0316906370a0823190602401602060405180830381865afa158015611053573d6000803e3d6000fd5b505050506040513d601f19601f82011682018060405250810190611077919061280e565b905080156110ed57601254601354604051626de11b60e61b81526001600160a01b0390921691631b7846c0916110ba918590600401918252602082015260400190565b600060405180830381600087803b1580156110d457600080fd5b505af11580156110e8573d6000803e3d6000fd5b505050505b600b80549060006110fd836128d9565b9190505550600b547f72725a3b1e5bd622d6bcd1339bb31279c351abe8f541ac7fd320f24e1b1641f261112e6106cb565b60405190815260200160405180910390a25050565b61114b6116b3565b3360008181526010602052604081205490611165836108f8565b6001600160a01b038416600081815260106020526040808220829055600a8054879003905551929350916000805160206129f0833981519152906111ac9085815260200190565b60405180910390a3601254601354604051632b0fcbdf60e11b81526004810191909152602481018390526001600160a01b0386811660448301529091169063561f97be906064016020604051808303816000875af1158015611212573d6000803e3d6000fd5b505050506040513d601f19601f82011682018060405250810190611236919061280e565b5050505050565b6112456116b3565b600f5460ff16156112685760405162461bcd60e51b815260040161080290612896565b6015546040516323b872dd60e01b8152336004820181905230602483015260448201849052916000916001600160a01b03909116906323b872dd906064016020604051808303816000875af11580156112c5573d6000803e3d6000fd5b505050506040513d601f19601f820116820180604052508101906112e991906128b7565b506000600a541161132e5760405162461bcd60e51b815260206004820152600f60248201526e0746f74616c536861726573203d203608c1b6044820152606401610802565b6013546113695760405162461bcd60e51b81526020600482015260096024820152686275636b657449442160b81b6044820152606401610802565b61137283611e21565b601254601354604051626de11b60e61b81526004810191909152602481018690529192506001600160a01b031690631b7846c090604401600060405180830381600087803b1580156113c357600080fd5b505af11580156113d7573d6000803e3d6000fd5b505050506001600160a01b0382166000908152601060205260408120805483929061140390849061283d565b9250508190555080600a600082825461141c919061283d565b90915550506040518381526001600160a01b038316906000906000805160206129f083398151915290602001610b62565b600081815260086020526040812061061b90611eca565b834211156114b45760405162461bcd60e51b815260206004820152601d60248201527f45524332305065726d69743a206578706972656420646561646c696e650000006044820152606401610802565b60007f6e71edae12b1b97f4d1f60370fef10105fa2faae0126114a169c64845d6126c98888886114e38c611ed4565b6040805160208101969096526001600160a01b0394851690860152929091166060840152608083015260a082015260c0810186905260e001604051602081830303815290604052805190602001209050600061153e82611efc565b9050600061154e82878787611f4a565b9050896001600160a01b0316816001600160a01b0316146115b15760405162461bcd60e51b815260206004820152601e60248201527f45524332305065726d69743a20696e76616c6964207369676e617475726500006044820152606401610802565b6115bc8a8a8a611885565b50505050505050505050565b6000828152600760205260409020600101546115e381611c5a565b6107878383611dad565b6001600160a01b03918216600090815260016020908152604080832093909416825291909152205490565b6116228282610ba1565b6105f25760008281526007602090815260408083206001600160a01b03851684529091529020805460ff1916600117905561165a3390565b6001600160a01b0316816001600160a01b0316837f2f8788117e7eff1d82e926ec794901d17c78024a50270940304540a733656f0d60405160405180910390a45050565b6000610b9a836001600160a01b038416611f72565b60095460ff16156116f95760405162461bcd60e51b815260206004820152601060248201526f14185d5cd8589b194e881c185d5cd95960821b6044820152606401610802565b565b600061170683611e21565b6001600160a01b0385166000908152601060205260409020549091508181101561177d5760405162461bcd60e51b815260206004820152602260248201527f45524332303a206275726e20616d6f756e7420657863656564732062616c616e604482015261636560f01b6064820152608401610802565b6001600160a01b03851660008181526010602090815260408083208686039055600a80548790039055518781529192916000805160206129f0833981519152910160405180910390a3601254601354604051632b0fcbdf60e11b81526004810191909152602481018690526001600160a01b0385811660448301529091169063561f97be906064016020604051808303816000875af1158015611824573d6000803e3d6000fd5b505050506040513d601f19601f82011682018060405250810190611848919061280e565b505050505050565b60006001600160e01b03198216637965db0b60e01b148061061b57506301ffc9a760e01b6001600160e01b031983161461061b565b6001600160a01b0383166118e75760405162461bcd60e51b8152602060048201526024808201527f45524332303a20617070726f76652066726f6d20746865207a65726f206164646044820152637265737360e01b6064820152608401610802565b6001600160a01b0382166119485760405162461bcd60e51b815260206004820152602260248201527f45524332303a20617070726f766520746f20746865207a65726f206164647265604482015261737360f01b6064820152608401610802565b6001600160a01b0383811660008181526001602090815260408083209487168084529482529182902085905590518481527f8c5be1e5ebec7d5bd14f71427d1e84f3dd0314c0f7b2291e5b200ac8c7c3b9259101610b62565b60006119ad84846115ed565b905060001981146108975781811015611a085760405162461bcd60e51b815260206004820152601d60248201527f45524332303a20696e73756666696369656e7420616c6c6f77616e63650000006044820152606401610802565b6108978484848403611885565b6001600160a01b038316611a795760405162461bcd60e51b815260206004820152602560248201527f45524332303a207472616e736665722066726f6d20746865207a65726f206164604482015264647265737360d81b6064820152608401610802565b6001600160a01b038216611adb5760405162461bcd60e51b815260206004820152602360248201527f45524332303a207472616e7366657220746f20746865207a65726f206164647260448201526265737360e81b6064820152608401610802565b6001600160a01b03831660009081526011602052604090205460ff16158015611b1d57506001600160a01b03821660009081526011602052604090205460ff16155b611b795760405162461bcd60e51b815260206004820152602760248201527f45524332305061757361626c653a206163636f756e7420697320696e20626c6160448201526618dac81b1a5cdd60ca1b6064820152608401610802565b6000611b8482611e21565b6001600160a01b03851660009081526010602052604090205490915081811015611bff5760405162461bcd60e51b815260206004820152602660248201527f45524332303a207472616e7366657220616d6f756e7420657863656564732062604482015265616c616e636560d01b6064820152608401610802565b6001600160a01b0380861660008181526010602052604080822086860390559287168082529083902080548601905591516000805160206129f083398151915290611c4d9087815260200190565b60405180910390a3611236565b61084a8133611fc1565b611c6e8282611618565b6000828152600860205260409020610787908261169e565b6000306001600160a01b037f000000000000000000000000000000000000000000000000000000000000000016148015611cdf57507f000000000000000000000000000000000000000000000000000000000000000046145b15611d0957507f000000000000000000000000000000000000000000000000000000000000000090565b50604080517f00000000000000000000000000000000000000000000000000000000000000006020808301919091527f0000000000000000000000000000000000000000000000000000000000000000828401527f000000000000000000000000000000000000000000000000000000000000000060608301524660808301523060a0808401919091528351808403909101815260c0909201909252805191012090565b611db7828261201a565b60008281526008602052604090206107879082612081565b611dd7611e38565b6009805460ff191690557f5db9ee0a495bf2e6ff9c91a7834c1ba4fdd244a5e8aa4e537bd38aeae4b073aa335b6040516001600160a01b03909116815260200160405180910390a1565b6000611e2b6106cb565b600a546108649084612855565b60095460ff166116f95760405162461bcd60e51b815260206004820152601460248201527314185d5cd8589b194e881b9bdd081c185d5cd95960621b6044820152606401610802565b611e896116b3565b6009805460ff191660011790557f62e78cea01bee320cd4e420270b5ea74000d11b0c9f74754ebdbfc544b05a258611e043390565b6000610b9a8383612096565b600061061b825490565b6001600160a01b03811660009081526005602052604090208054600181018255905b50919050565b600061061b611f09611c86565b8360405161190160f01b6020820152602281018390526042810182905260009060620160405160208183030381529060405280519060200120905092915050565b6000806000611f5b878787876120c0565b91509150611f6881612184565b5095945050505050565b6000818152600183016020526040812054611fb95750815460018181018455600084815260208082209093018490558454848252828601909352604090209190915561061b565b50600061061b565b611fcb8282610ba1565b6105f257611fd8816122d2565b611fe38360206122e4565b604051602001611ff49291906128f4565b60408051601f198184030181529082905262461bcd60e51b825261080291600401612611565b6120248282610ba1565b156105f25760008281526007602090815260408083206001600160a01b0385168085529252808320805460ff1916905551339285917ff6391f5c32d9c69d2a47ea670b442974b53935d1edc7fd64eb21e047a839171b9190a45050565b6000610b9a836001600160a01b038416612480565b60008260000182815481106120ad576120ad612969565b9060005260206000200154905092915050565b6000807f7fffffffffffffffffffffffffffffff5d576e7357a4501ddfe92f46681b20a08311156120f7575060009050600361217b565b6040805160008082526020820180845289905260ff881692820192909252606081018690526080810185905260019060a0016020604051602081039080840390855afa15801561214b573d6000803e3d6000fd5b5050604051601f1901519150506001600160a01b0381166121745760006001925092505061217b565b9150600090505b94509492505050565b60008160048111156121985761219861297f565b14156121a15750565b60018160048111156121b5576121b561297f565b14156122035760405162461bcd60e51b815260206004820152601860248201527f45434453413a20696e76616c6964207369676e617475726500000000000000006044820152606401610802565b60028160048111156122175761221761297f565b14156122655760405162461bcd60e51b815260206004820152601f60248201527f45434453413a20696e76616c6964207369676e6174757265206c656e677468006044820152606401610802565b60038160048111156122795761227961297f565b141561084a5760405162461bcd60e51b815260206004820152602260248201527f45434453413a20696e76616c6964207369676e6174757265202773272076616c604482015261756560f01b6064820152608401610802565b606061061b6001600160a01b03831660145b606060006122f3836002612855565b6122fe90600261283d565b67ffffffffffffffff81111561231657612316612995565b6040519080825280601f01601f191660200182016040528015612340576020820181803683370190505b509050600360fc1b8160008151811061235b5761235b612969565b60200101906001600160f81b031916908160001a905350600f60fb1b8160018151811061238a5761238a612969565b60200101906001600160f81b031916908160001a90535060006123ae846002612855565b6123b990600161283d565b90505b6001811115612431576f181899199a1a9b1b9c1cb0b131b232b360811b85600f16601081106123ed576123ed612969565b1a60f81b82828151811061240357612403612969565b60200101906001600160f81b031916908160001a90535060049490941c9361242a816129ab565b90506123bc565b508315610b9a5760405162461bcd60e51b815260206004820181905260248201527f537472696e67733a20686578206c656e67746820696e73756666696369656e746044820152606401610802565b600081815260018301602052604081205480156125695760006124a46001836129c2565b85549091506000906124b8906001906129c2565b905081811461251d5760008660000182815481106124d8576124d8612969565b90600052602060002001549050808760000184815481106124fb576124fb612969565b6000918252602080832090910192909255918252600188019052604090208390555b855486908061252e5761252e6129d9565b60019003818190600052602060002001600090559055856001016000868152602001908152602001600020600090556001935050505061061b565b600091505061061b565b80356001600160a01b038116811461258a57600080fd5b919050565b600080604083850312156125a257600080fd5b823591506125b260208401612573565b90509250929050565b6000602082840312156125cd57600080fd5b81356001600160e01b031981168114610b9a57600080fd5b60005b838110156126005781810151838201526020016125e8565b838111156108975750506000910152565b60208152600082518060208401526126308160408501602087016125e5565b601f01601f19169190910160400192915050565b6000806040838503121561265757600080fd5b61266083612573565b946020939093013593505050565b60008060006060848603121561268357600080fd5b61268c84612573565b925061269a60208501612573565b9150604084013590509250925092565b6000602082840312156126bc57600080fd5b5035919050565b6000806000606084860312156126d857600080fd5b6126e184612573565b9250602084013591506126f660408501612573565b90509250925092565b60006020828403121561271157600080fd5b610b9a82612573565b6000806040838503121561272d57600080fd5b50508035926020909101359150565b600080600080600080600060e0888a03121561275757600080fd5b61276088612573565b965061276e60208901612573565b95506040880135945060608801359350608088013560ff8116811461279257600080fd5b9699959850939692959460a0840135945060c09093013592915050565b600080604083850312156127c257600080fd5b6127cb83612573565b91506125b260208401612573565b600181811c908216806127ed57607f821691505b60208210811415611ef657634e487b7160e01b600052602260045260246000fd5b60006020828403121561282057600080fd5b5051919050565b634e487b7160e01b600052601160045260246000fd5b6000821982111561285057612850612827565b500190565b600081600019048311821515161561286f5761286f612827565b500290565b60008261289157634e487b7160e01b600052601260045260246000fd5b500490565b602080825260079082015266636c6f7365642160c81b604082015260600190565b6000602082840312156128c957600080fd5b81518015158114610b9a57600080fd5b60006000198214156128ed576128ed612827565b5060010190565b7f416363657373436f6e74726f6c3a206163636f756e742000000000000000000081526000835161292c8160178501602088016125e5565b7001034b99036b4b9b9b4b733903937b6329607d1b601791840191820152835161295d8160288401602088016125e5565b01602801949350505050565b634e487b7160e01b600052603260045260246000fd5b634e487b7160e01b600052602160045260246000fd5b634e487b7160e01b600052604160045260246000fd5b6000816129ba576129ba612827565b506000190190565b6000828210156129d4576129d4612827565b500390565b634e487b7160e01b600052603160045260246000fdfeddf252ad1be2c89b69c2b068fc378daa952ba7f163c4a11628f55a4df523b3efa264697066735822122094f6e26798b6132aad10f0df935c6b2d16b81d40d1b014e51d766c7ba36c43cd64736f6c634300080b0033",
  "linkReferences": {},
  "deployedLinkReferences": {}
}