{
  "_format": "hh-sol-artifact-1",
  "contractName": "StMTRG",
  "sourceName": "contracts/StMTRG.sol",
  "abi": [
    {
      "anonymous": false,
      "inputs": [
        {
          "indexed": true,
          "internalType": "address",
          "name": "owner",
          "type": "address"
        },
        {
          "indexed": true,
          "internalType": "address",
          "name": "spender",
          "type": "address"
        },
        {
          "indexed": false,
          "internalType": "uint256",
          "name": "value",
          "type": "uint256"
        }
      ],
      "name": "Approval",
      "type": "event"
    },
    {
      "anonymous": false,
      "inputs": [
        {
          "indexed": true,
          "internalType": "address",
          "name": "account",
          "type": "address"
        },
        {
          "indexed": true,
          "internalType": "bytes32",
          "name": "bucketID",
          "type": "bytes32"
        },
        {
          "indexed": false,
          "internalType": "uint256",
          "name": "amount",
          "type": "uint256"
        }
      ],
      "name": "Deposit",
      "type": "event"
    },
    {
      "anonymous": false,
      "inputs": [
        {
          "indexed": true,
          "internalType": "address",
          "name": "candidate",
          "type": "address"
        },
        {
          "indexed": false,
          "internalType": "bytes32",
          "name": "bucketID",
          "type": "bytes32"
        },
        {
          "indexed": false,
          "internalType": "uint256",
          "name": "timestamp",
          "type": "uint256"
        }
      ],
      "name": "ExecuteClost",
      "type": "event"
    },
    {
      "anonymous": false,
      "inputs": [
        {
          "indexed": false,
          "internalType": "uint8",
          "name": "version",
          "type": "uint8"
        }
      ],
      "name": "Initialized",
      "type": "event"
    },
    {
      "anonymous": false,
      "inputs": [
        {
          "indexed": true,
          "internalType": "bytes32",
          "name": "bucketID",
          "type": "bytes32"
        },
        {
          "indexed": true,
          "internalType": "address",
          "name": "candidate",
          "type": "address"
        },
        {
          "indexed": true,
          "internalType": "uint256",
          "name": "epoch",
          "type": "uint256"
        },
        {
          "indexed": false,
          "internalType": "uint256",
          "name": "totalSupply",
          "type": "uint256"
        }
      ],
      "name": "LogRebase",
      "type": "event"
    },
    {
      "anonymous": false,
      "inputs": [
        {
          "indexed": true,
          "internalType": "bytes32",
          "name": "oldBucketID",
          "type": "bytes32"
        },
        {
          "indexed": true,
          "internalType": "bytes32",
          "name": "newBucketID",
          "type": "bytes32"
        },
        {
          "indexed": false,
          "internalType": "uint256",
          "name": "totalDeposit",
          "type": "uint256"
        },
        {
          "indexed": false,
          "internalType": "uint256",
          "name": "locked",
          "type": "uint256"
        }
      ],
      "name": "Merge",
      "type": "event"
    },
    {
      "anonymous": false,
      "inputs": [
        {
          "indexed": true,
          "internalType": "address",
          "name": "candidate",
          "type": "address"
        },
        {
          "indexed": false,
          "internalType": "bytes32",
          "name": "bucketID",
          "type": "bytes32"
        }
      ],
      "name": "NewCandidate",
      "type": "event"
    },
    {
      "anonymous": false,
      "inputs": [
        {
          "indexed": false,
          "internalType": "address",
          "name": "account",
          "type": "address"
        }
      ],
      "name": "Paused",
      "type": "event"
    },
    {
      "anonymous": false,
      "inputs": [
        {
          "indexed": true,
          "internalType": "address",
          "name": "candidate",
          "type": "address"
        },
        {
          "indexed": false,
          "internalType": "bytes32",
          "name": "bucketID",
          "type": "bytes32"
        },
        {
          "indexed": false,
          "internalType": "uint256",
          "name": "timestamp",
          "type": "uint256"
        }
      ],
      "name": "RequestClost",
      "type": "event"
    },
    {
      "anonymous": false,
      "inputs": [
        {
          "indexed": true,
          "internalType": "bytes32",
          "name": "role",
          "type": "bytes32"
        },
        {
          "indexed": true,
          "internalType": "bytes32",
          "name": "previousAdminRole",
          "type": "bytes32"
        },
        {
          "indexed": true,
          "internalType": "bytes32",
          "name": "newAdminRole",
          "type": "bytes32"
        }
      ],
      "name": "RoleAdminChanged",
      "type": "event"
    },
    {
      "anonymous": false,
      "inputs": [
        {
          "indexed": true,
          "internalType": "bytes32",
          "name": "role",
          "type": "bytes32"
        },
        {
          "indexed": true,
          "internalType": "address",
          "name": "account",
          "type": "address"
        },
        {
          "indexed": true,
          "internalType": "address",
          "name": "sender",
          "type": "address"
        }
      ],
      "name": "RoleGranted",
      "type": "event"
    },
    {
      "anonymous": false,
      "inputs": [
        {
          "indexed": true,
          "internalType": "bytes32",
          "name": "role",
          "type": "bytes32"
        },
        {
          "indexed": true,
          "internalType": "address",
          "name": "account",
          "type": "address"
        },
        {
          "indexed": true,
          "internalType": "address",
          "name": "sender",
          "type": "address"
        }
      ],
      "name": "RoleRevoked",
      "type": "event"
    },
    {
      "anonymous": false,
      "inputs": [
        {
          "indexed": false,
          "internalType": "uint256",
          "name": "timestamp",
          "type": "uint256"
        }
      ],
      "name": "TerminalClost",
      "type": "event"
    },
    {
      "anonymous": false,
      "inputs": [
        {
          "indexed": true,
          "internalType": "address",
          "name": "from",
          "type": "address"
        },
        {
          "indexed": true,
          "internalType": "address",
          "name": "to",
          "type": "address"
        },
        {
          "indexed": false,
          "internalType": "uint256",
          "name": "value",
          "type": "uint256"
        }
      ],
      "name": "Transfer",
      "type": "event"
    },
    {
      "anonymous": false,
      "inputs": [
        {
          "indexed": true,
          "internalType": "bytes32",
          "name": "oldBucketID",
          "type": "bytes32"
        },
        {
          "indexed": true,
          "internalType": "bytes32",
          "name": "newBucketID",
          "type": "bytes32"
        },
        {
          "indexed": false,
          "internalType": "uint256",
          "name": "amount",
          "type": "uint256"
        }
      ],
      "name": "TransferFund",
      "type": "event"
    },
    {
      "anonymous": false,
      "inputs": [
        {
          "indexed": false,
          "internalType": "address",
          "name": "account",
          "type": "address"
        }
      ],
      "name": "Unpaused",
      "type": "event"
    },
    {
      "anonymous": false,
      "inputs": [
        {
          "indexed": true,
          "internalType": "address",
          "name": "oldCandidate",
          "type": "address"
        },
        {
          "indexed": false,
          "internalType": "address",
          "name": "newCandidate",
          "type": "address"
        }
      ],
      "name": "UpdateCandidate",
      "type": "event"
    },
    {
      "anonymous": false,
      "inputs": [
        {
          "indexed": true,
          "internalType": "address",
          "name": "account",
          "type": "address"
        },
        {
          "indexed": true,
          "internalType": "bytes32",
          "name": "bucketID",
          "type": "bytes32"
        },
        {
          "indexed": false,
          "internalType": "uint256",
          "name": "amount",
          "type": "uint256"
        }
      ],
      "name": "Withdraw",
      "type": "event"
    },
    {
      "inputs": [],
      "name": "CLOSE_DURATION",
      "outputs": [
        {
          "internalType": "uint256",
          "name": "",
          "type": "uint256"
        }
      ],
      "stateMutability": "view",
      "type": "function"
    },
    {
      "inputs": [],
      "name": "DEFAULT_ADMIN_ROLE",
      "outputs": [
        {
          "internalType": "bytes32",
          "name": "",
          "type": "bytes32"
        }
      ],
      "stateMutability": "view",
      "type": "function"
    },
    {
      "inputs": [],
      "name": "DOMAIN_SEPARATOR",
      "outputs": [
        {
          "internalType": "bytes32",
          "name": "",
          "type": "bytes32"
        }
      ],
      "stateMutability": "view",
      "type": "function"
    },
    {
      "inputs": [],
      "name": "MTRG",
      "outputs": [
        {
          "internalType": "contract IERC20Upgradeable",
          "name": "",
          "type": "address"
        }
      ],
      "stateMutability": "view",
      "type": "function"
    },
    {
      "inputs": [],
      "name": "allBuckets",
      "outputs": [
        {
          "components": [
            {
              "internalType": "bytes32",
              "name": "bucketID",
              "type": "bytes32"
            },
            {
              "internalType": "uint256",
              "name": "totalDeposit",
              "type": "uint256"
            },
            {
              "internalType": "uint256",
              "name": "locked",
              "type": "uint256"
            }
          ],
          "internalType": "struct StMTRG.Bucket[]",
          "name": "",
          "type": "tuple[]"
        }
      ],
      "stateMutability": "view",
      "type": "function"
    },
    {
      "inputs": [
        {
          "internalType": "address",
          "name": "owner",
          "type": "address"
        },
        {
          "internalType": "address",
          "name": "spender",
          "type": "address"
        }
      ],
      "name": "allowance",
      "outputs": [
        {
          "internalType": "uint256",
          "name": "",
          "type": "uint256"
        }
      ],
      "stateMutability": "view",
      "type": "function"
    },
    {
      "inputs": [
        {
          "internalType": "address",
          "name": "spender",
          "type": "address"
        },
        {
          "internalType": "uint256",
          "name": "amount",
          "type": "uint256"
        }
      ],
      "name": "approve",
      "outputs": [
        {
          "internalType": "bool",
          "name": "",
          "type": "bool"
        }
      ],
      "stateMutability": "nonpayable",
      "type": "function"
    },
    {
      "inputs": [
        {
          "internalType": "address",
          "name": "account",
          "type": "address"
        }
      ],
      "name": "balanceOf",
      "outputs": [
        {
          "internalType": "uint256",
          "name": "",
          "type": "uint256"
        }
      ],
      "stateMutability": "view",
      "type": "function"
    },
    {
      "inputs": [],
      "name": "boundedMTRG",
      "outputs": [
        {
          "internalType": "uint256",
          "name": "",
          "type": "uint256"
        }
      ],
      "stateMutability": "view",
      "type": "function"
    },
    {
      "inputs": [
        {
          "internalType": "bytes32",
          "name": "",
          "type": "bytes32"
        }
      ],
      "name": "bucketIDToCandidate",
      "outputs": [
        {
          "internalType": "address",
          "name": "",
          "type": "address"
        }
      ],
      "stateMutability": "view",
      "type": "function"
    },
    {
      "inputs": [
        {
          "internalType": "bytes32",
          "name": "bucketID",
          "type": "bytes32"
        }
      ],
      "name": "bucketValue",
      "outputs": [
        {
          "internalType": "uint256",
          "name": "",
          "type": "uint256"
        }
      ],
      "stateMutability": "view",
      "type": "function"
    },
    {
      "inputs": [
        {
          "internalType": "address",
          "name": "",
          "type": "address"
        }
      ],
      "name": "candidateIndex",
      "outputs": [
        {
          "internalType": "uint256",
          "name": "",
          "type": "uint256"
        }
      ],
      "stateMutability": "view",
      "type": "function"
    },
    {
      "inputs": [
        {
          "internalType": "address",
          "name": "",
          "type": "address"
        }
      ],
      "name": "candidateToBucket",
      "outputs": [
        {
          "internalType": "bytes32",
          "name": "bucketID",
          "type": "bytes32"
        },
        {
          "internalType": "uint256",
          "name": "totalDeposit",
          "type": "uint256"
        },
        {
          "internalType": "uint256",
          "name": "locked",
          "type": "uint256"
        }
      ],
      "stateMutability": "view",
      "type": "function"
    },
    {
      "inputs": [],
      "name": "candidates",
      "outputs": [
        {
          "internalType": "address[]",
          "name": "",
          "type": "address[]"
        }
      ],
      "stateMutability": "view",
      "type": "function"
    },
    {
      "inputs": [],
      "name": "closeTerminal",
      "outputs": [],
      "stateMutability": "nonpayable",
      "type": "function"
    },
    {
      "inputs": [],
      "name": "closeTimestamp",
      "outputs": [
        {
          "internalType": "uint256",
          "name": "",
          "type": "uint256"
        }
      ],
      "stateMutability": "view",
      "type": "function"
    },
    {
      "inputs": [],
      "name": "currentIndex",
      "outputs": [
        {
          "internalType": "uint256",
          "name": "",
          "type": "uint256"
        }
      ],
      "stateMutability": "view",
      "type": "function"
    },
    {
      "inputs": [],
      "name": "decimals",
      "outputs": [
        {
          "internalType": "uint8",
          "name": "",
          "type": "uint8"
        }
      ],
      "stateMutability": "view",
      "type": "function"
    },
    {
      "inputs": [
        {
          "internalType": "address",
          "name": "spender",
          "type": "address"
        },
        {
          "internalType": "uint256",
          "name": "subtractedValue",
          "type": "uint256"
        }
      ],
      "name": "decreaseAllowance",
      "outputs": [
        {
          "internalType": "bool",
          "name": "",
          "type": "bool"
        }
      ],
      "stateMutability": "nonpayable",
      "type": "function"
    },
    {
      "inputs": [
        {
          "internalType": "address",
          "name": "candidate",
          "type": "address"
        }
      ],
      "name": "deleteBucket",
      "outputs": [],
      "stateMutability": "nonpayable",
      "type": "function"
    },
    {
      "inputs": [
        {
          "internalType": "uint256",
          "name": "amount",
          "type": "uint256"
        }
      ],
      "name": "deposit",
      "outputs": [],
      "stateMutability": "nonpayable",
      "type": "function"
    },
    {
      "inputs": [],
      "name": "epoch",
      "outputs": [
        {
          "internalType": "uint256",
          "name": "",
          "type": "uint256"
        }
      ],
      "stateMutability": "view",
      "type": "function"
    },
    {
      "inputs": [],
      "name": "executeClose",
      "outputs": [],
      "stateMutability": "nonpayable",
      "type": "function"
    },
    {
      "inputs": [
        {
          "internalType": "bytes32",
          "name": "role",
          "type": "bytes32"
        }
      ],
      "name": "getRoleAdmin",
      "outputs": [
        {
          "internalType": "bytes32",
          "name": "",
          "type": "bytes32"
        }
      ],
      "stateMutability": "view",
      "type": "function"
    },
    {
      "inputs": [
        {
          "internalType": "bytes32",
          "name": "role",
          "type": "bytes32"
        },
        {
          "internalType": "uint256",
          "name": "index",
          "type": "uint256"
        }
      ],
      "name": "getRoleMember",
      "outputs": [
        {
          "internalType": "address",
          "name": "",
          "type": "address"
        }
      ],
      "stateMutability": "view",
      "type": "function"
    },
    {
      "inputs": [
        {
          "internalType": "bytes32",
          "name": "role",
          "type": "bytes32"
        }
      ],
      "name": "getRoleMemberCount",
      "outputs": [
        {
          "internalType": "uint256",
          "name": "",
          "type": "uint256"
        }
      ],
      "stateMutability": "view",
      "type": "function"
    },
    {
      "inputs": [
        {
          "internalType": "bytes32",
          "name": "role",
          "type": "bytes32"
        },
        {
          "internalType": "address",
          "name": "account",
          "type": "address"
        }
      ],
      "name": "grantRole",
      "outputs": [],
      "stateMutability": "nonpayable",
      "type": "function"
    },
    {
      "inputs": [
        {
          "internalType": "bytes32",
          "name": "role",
          "type": "bytes32"
        },
        {
          "internalType": "address",
          "name": "account",
          "type": "address"
        }
      ],
      "name": "hasRole",
      "outputs": [
        {
          "internalType": "bool",
          "name": "",
          "type": "bool"
        }
      ],
      "stateMutability": "view",
      "type": "function"
    },
    {
      "inputs": [],
      "name": "inTerminal",
      "outputs": [
        {
          "internalType": "bool",
          "name": "",
          "type": "bool"
        }
      ],
      "stateMutability": "view",
      "type": "function"
    },
    {
      "inputs": [
        {
          "internalType": "address",
          "name": "spender",
          "type": "address"
        },
        {
          "internalType": "uint256",
          "name": "addedValue",
          "type": "uint256"
        }
      ],
      "name": "increaseAllowance",
      "outputs": [
        {
          "internalType": "bool",
          "name": "",
          "type": "bool"
        }
      ],
      "stateMutability": "nonpayable",
      "type": "function"
    },
    {
      "inputs": [
        {
          "internalType": "address",
          "name": "admin",
          "type": "address"
        },
        {
          "internalType": "contract IERC20Upgradeable",
          "name": "_MTRG",
          "type": "address"
        },
        {
          "internalType": "address",
          "name": "scriptEngineAddr",
          "type": "address"
        }
      ],
      "name": "initialize",
      "outputs": [],
      "stateMutability": "nonpayable",
      "type": "function"
    },
    {
      "inputs": [],
      "name": "isClose",
      "outputs": [
        {
          "internalType": "bool",
          "name": "",
          "type": "bool"
        }
      ],
      "stateMutability": "view",
      "type": "function"
    },
    {
      "inputs": [],
      "name": "name",
      "outputs": [
        {
          "internalType": "string",
          "name": "",
          "type": "string"
        }
      ],
      "stateMutability": "view",
      "type": "function"
    },
    {
      "inputs": [
        {
          "internalType": "address",
          "name": "candidate",
          "type": "address"
        }
      ],
      "name": "newCandidate",
      "outputs": [],
      "stateMutability": "nonpayable",
      "type": "function"
    },
    {
      "inputs": [
        {
          "internalType": "address",
          "name": "owner",
          "type": "address"
        }
      ],
      "name": "nonces",
      "outputs": [
        {
          "internalType": "uint256",
          "name": "",
          "type": "uint256"
        }
      ],
      "stateMutability": "view",
      "type": "function"
    },
    {
      "inputs": [],
      "name": "pause",
      "outputs": [],
      "stateMutability": "nonpayable",
      "type": "function"
    },
    {
      "inputs": [],
      "name": "paused",
      "outputs": [
        {
          "internalType": "bool",
          "name": "",
          "type": "bool"
        }
      ],
      "stateMutability": "view",
      "type": "function"
    },
    {
      "inputs": [
        {
          "internalType": "address",
          "name": "owner",
          "type": "address"
        },
        {
          "internalType": "address",
          "name": "spender",
          "type": "address"
        },
        {
          "internalType": "uint256",
          "name": "value",
          "type": "uint256"
        },
        {
          "internalType": "uint256",
          "name": "deadline",
          "type": "uint256"
        },
        {
          "internalType": "uint8",
          "name": "v",
          "type": "uint8"
        },
        {
          "internalType": "bytes32",
          "name": "r",
          "type": "bytes32"
        },
        {
          "internalType": "bytes32",
          "name": "s",
          "type": "bytes32"
        }
      ],
      "name": "permit",
      "outputs": [],
      "stateMutability": "nonpayable",
      "type": "function"
    },
    {
      "inputs": [],
      "name": "rebase",
      "outputs": [],
      "stateMutability": "nonpayable",
      "type": "function"
    },
    {
      "inputs": [
        {
          "internalType": "bytes32",
          "name": "role",
          "type": "bytes32"
        },
        {
          "internalType": "address",
          "name": "account",
          "type": "address"
        }
      ],
      "name": "renounceRole",
      "outputs": [],
      "stateMutability": "nonpayable",
      "type": "function"
    },
    {
      "inputs": [],
      "name": "requestClose",
      "outputs": [],
      "stateMutability": "nonpayable",
      "type": "function"
    },
    {
      "inputs": [
        {
          "internalType": "bytes32",
          "name": "role",
          "type": "bytes32"
        },
        {
          "internalType": "address",
          "name": "account",
          "type": "address"
        }
      ],
      "name": "revokeRole",
      "outputs": [],
      "stateMutability": "nonpayable",
      "type": "function"
    },
    {
      "inputs": [
        {
          "internalType": "address",
          "name": "account",
          "type": "address"
        }
      ],
      "name": "setBlackList",
      "outputs": [],
      "stateMutability": "nonpayable",
      "type": "function"
    },
    {
      "inputs": [
        {
          "internalType": "uint256",
          "name": "_share",
          "type": "uint256"
        }
      ],
      "name": "shareToValue",
      "outputs": [
        {
          "internalType": "uint256",
          "name": "",
          "type": "uint256"
        }
      ],
      "stateMutability": "view",
      "type": "function"
    },
    {
      "inputs": [
        {
          "internalType": "address",
          "name": "account",
          "type": "address"
        }
      ],
      "name": "shares",
      "outputs": [
        {
          "internalType": "uint256",
          "name": "",
          "type": "uint256"
        }
      ],
      "stateMutability": "view",
      "type": "function"
    },
    {
      "inputs": [
        {
          "internalType": "bytes4",
          "name": "interfaceId",
          "type": "bytes4"
        }
      ],
      "name": "supportsInterface",
      "outputs": [
        {
          "internalType": "bool",
          "name": "",
          "type": "bool"
        }
      ],
      "stateMutability": "view",
      "type": "function"
    },
    {
      "inputs": [],
      "name": "symbol",
      "outputs": [
        {
          "internalType": "string",
          "name": "",
          "type": "string"
        }
      ],
      "stateMutability": "view",
      "type": "function"
    },
    {
      "inputs": [],
      "name": "totalShares",
      "outputs": [
        {
          "internalType": "uint256",
          "name": "",
          "type": "uint256"
        }
      ],
      "stateMutability": "view",
      "type": "function"
    },
    {
      "inputs": [],
      "name": "totalSupply",
      "outputs": [
        {
          "internalType": "uint256",
          "name": "",
          "type": "uint256"
        }
      ],
      "stateMutability": "view",
      "type": "function"
    },
    {
      "inputs": [
        {
          "internalType": "address",
          "name": "to",
          "type": "address"
        },
        {
          "internalType": "uint256",
          "name": "amount",
          "type": "uint256"
        }
      ],
      "name": "transfer",
      "outputs": [
        {
          "internalType": "bool",
          "name": "",
          "type": "bool"
        }
      ],
      "stateMutability": "nonpayable",
      "type": "function"
    },
    {
      "inputs": [
        {
          "internalType": "address",
          "name": "from",
          "type": "address"
        },
        {
          "internalType": "address",
          "name": "to",
          "type": "address"
        },
        {
          "internalType": "uint256",
          "name": "amount",
          "type": "uint256"
        }
      ],
      "name": "transferFrom",
      "outputs": [
        {
          "internalType": "bool",
          "name": "",
          "type": "bool"
        }
      ],
      "stateMutability": "nonpayable",
      "type": "function"
    },
    {
      "inputs": [
        {
          "internalType": "address",
          "name": "candidate",
          "type": "address"
        }
      ],
      "name": "transferFund",
      "outputs": [],
      "stateMutability": "nonpayable",
      "type": "function"
    },
    {
      "inputs": [],
      "name": "unpause",
      "outputs": [],
      "stateMutability": "nonpayable",
      "type": "function"
    },
    {
      "inputs": [
        {
          "internalType": "uint256",
          "name": "_value",
          "type": "uint256"
        }
      ],
      "name": "valueToShare",
      "outputs": [
        {
          "internalType": "uint256",
          "name": "",
          "type": "uint256"
        }
      ],
      "stateMutability": "view",
      "type": "function"
    },
    {
      "inputs": [
        {
          "internalType": "uint256",
          "name": "amount",
          "type": "uint256"
        },
        {
          "internalType": "address",
          "name": "recipient",
          "type": "address"
        }
      ],
      "name": "withdraw",
      "outputs": [],
      "stateMutability": "nonpayable",
      "type": "function"
    },
    {
      "inputs": [
        {
          "internalType": "address",
          "name": "recipient",
          "type": "address"
        }
      ],
      "name": "withdrawAll",
      "outputs": [],
      "stateMutability": "nonpayable",
      "type": "function"
    }
  ],
  "bytecode": "0x608060405260006101945534801561001657600080fd5b50614a96806100266000396000f3fe608060405234801561001057600080fd5b50600436106103775760003560e01c806370a08231116101d3578063af14052c11610104578063d547741f116100a2578063f5e130af1161007c578063f5e130af146107bc578063f9776bcb146107cf578063fa09e630146107e4578063fdb4fb0e146107f757600080fd5b8063d547741f14610746578063dd62ed3e14610759578063e461a47d1461079257600080fd5b8063ca15c873116100de578063ca15c873146106e3578063cd4558fd146106f6578063ce7c2ac214610709578063d505accf1461073357600080fd5b8063af14052c146106b5578063b6b55f25146106bd578063c0c53b8b146106d057600080fd5b806391d1485411610171578063a217fddf1161014b578063a217fddf1461067f578063a457c2d714610687578063a6536e751461069a578063a9059cbb146106a257600080fd5b806391d148541461062b57806395d89b41146106645780639748bf5b1461066c57600080fd5b80638456cb59116101ad5780638456cb59146105da57806388b0e2a4146105e2578063900cf0cf1461060e5780639010d07c1461061857600080fd5b806370a08231146105a157806372700241146105b45780637ecebe00146105c757600080fd5b80633644e515116102ad578063441130d51161024b5780635c975abb116102255780635c975abb1461055a5780635dc4a4661461056657806361e3fb69146105795780636f0470aa1461058c57600080fd5b8063441130d51461052c5780634b64fcd11461053f578063577262ab1461055257600080fd5b80633a8dd82a116102875780633a8dd82a1461050b5780633a98ef39146105135780633e17087d1461051c5780633f4ba83a1461052457600080fd5b80633644e515146104dd57806336568abe146104e557806339509351146104f857600080fd5b806318160ddd1161031a578063248a9ca3116102f4578063248a9ca31461048e57806326987b60146104b15780632f2ff15d146104bb578063313ce567146104ce57600080fd5b806318160ddd1461045257806322735da81461045a57806323b872dd1461047b57600080fd5b806306fdde031161035657806306fdde03146103d1578063087bf506146103e6578063095ea7b3146104315780631338f4931461044457600080fd5b8062f714ce1461037c57806301ffc9a714610391578063052d7c00146103b9575b600080fd5b61038f61038a36600461451c565b610801565b005b6103a461039f36600461454c565b610865565b60405190151581526020015b60405180910390f35b6103c36101965481565b6040519081526020016103b0565b6103d9610890565b6040516103b091906145a2565b6104166103f43660046145d5565b6101996020526000908152604090208054600182015460029092015490919083565b604080519384526020840192909252908201526060016103b0565b6103a461043f3660046145f2565b610922565b61019e546103a49060ff1681565b6103c361093a565b6103c36104683660046145d5565b61019c6020526000908152604090205481565b6103a461048936600461461e565b610a67565b6103c361049c36600461465f565b600090815260fe602052604090206001015490565b6103c361019d5481565b61038f6104c936600461451c565b610a8b565b604051601281526020016103b0565b6103c3610ab5565b61038f6104f336600461451c565b610ac4565b6103a46105063660046145f2565b610b4c565b6103c3610b8b565b610194546103c3565b61038f610c05565b61038f610e39565b6103c361053a36600461465f565b610e4f565b6103c361054d36600461465f565b610e70565b61038f610e7b565b6101625460ff166103a4565b61038f6105743660046145d5565b611006565b61038f6105873660046145d5565b6114ef565b6105946119f1565b6040516103b09190614678565b6103c36105af3660046145d5565b611a53565b61038f6105c23660046145d5565b611a76565b6103c36105d53660046145d5565b611aac565b61038f611aca565b61019f546105f6906001600160a01b031681565b6040516001600160a01b0390911681526020016103b0565b6103c36101955481565b6105f66106263660046146c5565b611add565b6103a461063936600461451c565b600091825260fe602090815260408084206001600160a01b0393909316845291905290205460ff1690565b6103d9611afd565b6103c361067a36600461465f565b611b0c565b6103c3600081565b6103a46106953660046145f2565b611b81565b61038f611c2b565b6103a46106b03660046145f2565b611e62565b61038f611e70565b61038f6106cb36600461465f565b611fb3565b61038f6106de3660046146e7565b612177565b6103c36106f136600461465f565b6124b1565b61038f6107043660046145d5565b6124c9565b6103c36107173660046145d5565b6001600160a01b03166000908152610197602052604090205490565b61038f610741366004614732565b6127f9565b61038f61075436600461451c565b61295d565b6103c36107673660046147a9565b6001600160a01b03918216600090815260346020908152604080832093909416825291909152205490565b6105f66107a036600461465f565b61019a602052600090815260409020546001600160a01b031681565b61019e546103a490610100900460ff1681565b6107d7612982565b6040516103b091906147d7565b61038f6107f23660046145d5565b612a97565b6103c362278d0081565b610809612b00565b61019e54610100900460ff16156108565760405162461bcd60e51b815260206004820152600c60248201526b696e207465726d696e616c2160a01b60448201526064015b60405180910390fd5b610861338383612b56565b5050565b60006001600160e01b03198216635a05180f60e01b148061088a575061088a82613023565b92915050565b60606036805461089f90614830565b80601f01602080910402602001604051908101604052809291908181526020018280546108cb90614830565b80156109185780601f106108ed57610100808354040283529160200191610918565b820191906000526020600020905b8154815290600101906020018083116108fb57829003601f168201915b5050505050905090565b600033610930818585613058565b5060019392505050565b61019f546040516370a0823160e01b815230600482015260009182916001600160a01b03909116906370a0823190602401602060405180830381865afa158015610988573d6000803e3d6000fd5b505050506040513d601f19601f820116820180604052508101906109ac9190614865565b90506000805b61019b54811015610a55576000610199600061019b84815481106109d8576109d861487e565b60009182526020808320909101546001600160a01b0316835282810193909352604091820190208151606081018352815481526001820154938101849052600290910154918101919091529150610a2f90846148aa565b9250806040015183610a4191906148aa565b92505080610a4e906148c2565b90506109b2565b50610a6081836148aa565b9250505090565b600033610a7585828561317c565b610a80858585613208565b506001949350505050565b600082815260fe6020526040902060010154610aa68161349e565b610ab083836134a8565b505050565b6000610abf6134cb565b905090565b6001600160a01b0381163314610b425760405162461bcd60e51b815260206004820152602f60248201527f416363657373436f6e74726f6c3a2063616e206f6e6c792072656e6f756e636560448201527f20726f6c657320666f722073656c660000000000000000000000000000000000606482015260840161084d565b6108618282613546565b3360008181526034602090815260408083206001600160a01b03871684529091528120549091906109309082908690610b869087906148aa565b613058565b600061019e60029054906101000a90046001600160a01b03166001600160a01b0316633a8dd82a6040518163ffffffff1660e01b8152600401602060405180830381865afa158015610be1573d6000803e3d6000fd5b505050506040513d601f19601f82011682018060405250810190610abf9190614865565b61019e54610100900460ff16610c5d5760405162461bcd60e51b815260206004820152601060248201527f6e6f7420696e207465726d696e616c2100000000000000000000000000000000604482015260640161084d565b6000610199600061019b600081548110610c7957610c7961487e565b6000918252602080832091909101546001600160a01b039081168452838201949094526040928301909120825160608101845281548082526001830154938201939093526002909101548184015261019e549251630f20975560e41b815260048101929092529350620100009091049091169063f209755090602401602060405180830381865afa158015610d12573d6000803e3d6000fd5b505050506040513d601f19601f82011682018060405250810190610d3691906148ed565b610d3f57600080fd5b610199600061019b600081548110610d5957610d5961487e565b60009182526020808320909101546001600160a01b031683528281019390935260409182018120818155600181018290556002018190558351815261019a909252812080546001600160a01b031916905561019b805461019c9291908290610dc357610dc361487e565b60009182526020808320909101546001600160a01b031683528201929092526040018120819055610df79061019b90614450565b61019e805461ff00191690556040514281527f211174b048d805314ec4df2d45c8735f9d1fe669c8117585a74e853b66bc524d9060200160405180910390a150565b6000610e448161349e565b610e4c613569565b50565b600061088a61019454610e6a610e6361093a565b85906135bc565b90613600565b600061088a8261363f565b6000610e868161349e565b61019e5460ff1615610ec65760405162461bcd60e51b8152602060048201526009602482015268697320636c6f73652160b81b604482015260640161084d565b61019b54600114610f195760405162461bcd60e51b815260206004820152601960248201527f63616e64696461746573206973206d6f7265207468616e203100000000000000604482015260640161084d565b6000610199600061019b600081548110610f3557610f3561487e565b60009182526020808320909101546001600160a01b0316835282810193909352604091820181208251606081018452815481526001828101549582019590955260029091015492810192909252426101965561019e805460ff191690931790925561019b80549193509190610fac57610fac61487e565b6000918252602091829020015482516101965460408051928352938201526001600160a01b03909116917f1e757b7f9e12d98e6039723354e852636180e846c5d6d06f2d336d673f1e5f0891015b60405180910390a25050565b60006110118161349e565b61019e5460ff16156110515760405162461bcd60e51b8152602060048201526009602482015268697320636c6f73652160b81b604482015260640161084d565b6001600160a01b0382166110a75760405162461bcd60e51b815260206004820152600e60248201527f61646472657373206572726f7221000000000000000000000000000000000000604482015260640161084d565b6001600160a01b03821660009081526101996020526040902080541561110f5760405162461bcd60e51b815260206004820152601260248201527f63616e6469646174652065787369746564210000000000000000000000000000604482015260640161084d565b61019454339068056bc75e2d63100000906111825761112d8161365b565b6001600160a01b03831660009081526101976020526040812080549091906111569084906148aa565b9091555061116590508161365b565b610194600082825461117791906148aa565b909155506111dc9050565b600061118d8261363f565b6001600160a01b038416600090815261019760205260408120805492935083929091906111bb9084906148aa565b925050819055508061019460008282546111d591906148aa565b9091555050505b61019f546040516323b872dd60e01b81526001600160a01b03848116600483015230602483015260448201849052909116906323b872dd906064016020604051808303816000875af1158015611236573d6000803e3d6000fd5b505050506040513d601f19601f8201168201806040525081019061125a91906148ed565b5061019e5460405163183077b960e11b81526001600160a01b0387811660048301526024820184905260009283926201000090910490911690633060ef729060440160408051808303816000875af11580156112ba573d6000803e3d6000fd5b505050506040513d601f19601f820116820180604052508101906112de9190614908565b915091508061132f5760405162461bcd60e51b815260206004820152601160248201527f6275636b65744f70656e206572726f7221000000000000000000000000000000604482015260640161084d565b600082815261019a60205260409020546001600160a01b0316156113955760405162461bcd60e51b815260206004820152600f60248201527f6275636b65744944206572726f72210000000000000000000000000000000000604482015260640161084d565b828560020160008282546113a991906148aa565b909155505081855561019b80546001810182557f24aeb2cd7b2cf328da485c24efd7197e86108b05bbc525c1db80c96ffdf7e1290180546001600160a01b038a166001600160a01b031991821681179092559154600082815261019c602090815260408083209390935586825261019a90528190208054909316821790925590517fd5b232e8b0b3cae5597d617fedb01eab27bcfa4a0f7491761e81dda85fbaae8f906114599085815260200190565b60405180910390a26040518381526001600160a01b038516906000907fddf252ad1be2c89b69c2b068fc378daa952ba7f163c4a11628f55a4df523b3ef9060200160405180910390a381846001600160a01b03167f19dacbf83c5de6658e14cbf7bcae5c15eca2eedecf1c66fbca928e4d351bea0f856040516114de91815260200190565b60405180910390a350505050505050565b60006114fa8161349e565b61019e5460ff161561153a5760405162461bcd60e51b8152602060048201526009602482015268697320636c6f73652160b81b604482015260640161084d565b61019b546001106115805760405162461bcd60e51b815260206004820152601060248201526f6f6e6c7920312063616e64696461746560801b604482015260640161084d565b6001600160a01b038216600090815261019c6020526040812054906101998161019b6115ad600186614934565b815481106115bd576115bd61487e565b60009182526020808320909101546001600160a01b03168352820192909252604001812060018101546002820154825492945090929091906115ff83856148aa565b11156119e8578354600090815261019a6020908152604080832080546001600160a01b03191690556001600160a01b038a16835261019982528083208381556001810184905560020183905561019b5461019c9092528220546060911115611760576001600160a01b038916600090815261019c6020819052604082205461019b805491939161169190600190614934565b815481106116a1576116a161487e565b60009182526020808320909101546001600160a01b0316835282019290925260400190205561019b80546116d790600190614934565b815481106116e7576116e761487e565b60009182526020808320909101546001600160a01b038c8116845261019c90925260409092205491169061019b9061172190600190614934565b815481106117315761173161487e565b9060005260206000200160006101000a8154816001600160a01b0302191690836001600160a01b031602179055505b61019b8054806117725761177261494b565b60008281526020808220830160001990810180546001600160a01b03191690559092019092556001600160a01b038b16825261019c9052604081208190555b61019b548110156119885761019b548810156117cd57876117d0565b60005b97506000610199600061019b8b815481106117ed576117ed61487e565b60009182526020808320909101546001600160a01b039081168452908301939093526040918201902061019e54815492519194506201000090049092169163329eb9d160e11b9161184c91899190602401918252602082015260400190565b60408051601f198184030181529181526020820180516001600160e01b03166001600160e01b031990941693909317909252905161188a9190614961565b6000604051808303816000865af19150503d80600081146118c7576040519150601f19603f3d011682016040523d82523d6000602084013e6118cc565b606091505b509094509250886118dc816148c2565b9950508380156118fb5750828060200190518101906118fb91906148ed565b15611977578681600101600082825461191491906148aa565b925050819055508581600201600082825461192f91906148aa565b90915550508054604080518981526020810189905287917f0848e0ca2442e527298209047e5313c99fbb1533d635e6eb8d4f658c907924bf910160405180910390a350611988565b50611981816148c2565b90506117b1565b508180156119a55750808060200190518101906119a591906148ed565b6119e55760405162461bcd60e51b81526020600482015260116024820152706e6f206473742063616e6469646174652160781b604482015260640161084d565b50505b50505050505050565b606061019b80548060200260200160405190810160405280929190818152602001828054801561091857602002820191906000526020600020905b81546001600160a01b03168152600190910190602001808311611a2c575050505050905090565b6001600160a01b0381166000908152610197602052604081205461088a90610e4f565b6000611a818161349e565b506001600160a01b0316600090815261019860205260409020805460ff19811660ff90911615179055565b6001600160a01b03811660009081526099602052604081205461088a565b6000611ad58161349e565b610e4c613676565b600082815261013060205260408120611af690836136b4565b9392505050565b60606037805461089f90614830565b61019e54604051639748bf5b60e01b8152600481018390526000916201000090046001600160a01b031690639748bf5b90602401602060405180830381865afa158015611b5d573d6000803e3d6000fd5b505050506040513d601f19601f8201168201806040525081019061088a9190614865565b3360008181526034602090815260408083206001600160a01b038716845290915281205490919083811015611c1e5760405162461bcd60e51b815260206004820152602560248201527f45524332303a2064656372656173656420616c6c6f77616e63652062656c6f7760448201527f207a65726f000000000000000000000000000000000000000000000000000000606482015260840161084d565b610a808286868403613058565b6000611c368161349e565b61019e5460ff16611c755760405162461bcd60e51b8152602060048201526009602482015268697320636c6f73652160b81b604482015260640161084d565b61019e54610100900460ff1615611cbd5760405162461bcd60e51b815260206004820152600c60248201526b696e207465726d696e616c2160a01b604482015260640161084d565b6000610199600061019b600081548110611cd957611cd961487e565b60009182526020808320909101546001600160a01b031683528281019390935260409182019020815160608101835281548152600182015493810193909352600201549082015261019654909150611d359062278d00906148aa565b421015611d845760405162461bcd60e51b815260206004820152600f60248201527f434c4f53455f4455524154494f4e210000000000000000000000000000000000604482015260640161084d565b61019e805461010061ff0019909116179081905581516040516377d7f91360e01b81526004810191909152620100009091046001600160a01b0316906377d7f91390602401600060405180830381600087803b158015611de357600080fd5b505af1158015611df7573d6000803e3d6000fd5b5050505061019b600081548110611e1057611e1061487e565b6000918252602091829020015482516101965460408051928352938201526001600160a01b03909116917f9da301bb415bd639d2a2c4e5d364bd6ea2f179effc5890b3cd39de25a5e79f489101610ffa565b600033610930818585613208565b6000611e7b8161349e565b61019e5460ff1615611ebb5760405162461bcd60e51b8152602060048201526009602482015268697320636c6f73652160b81b604482015260640161084d565b61019f546040516370a0823160e01b81523060048201526000916001600160a01b0316906370a0823190602401602060405180830381865afa158015611f05573d6000803e3d6000fd5b505050506040513d601f19601f82011682018060405250810190611f299190614865565b90508015610861576000611f3e6000836136c0565b61019580549192506000611f51836148c2565b909155505061019554600082815261019a60205260409020546001600160a01b0316827f718b31b13d461b57805228117e5ad834c401532de2bea40d37cf85cbea57e1ff611f9d61093a565b60405190815260200160405180910390a4505050565b611fbb612b00565b61019e5460ff1615611ffb5760405162461bcd60e51b8152602060048201526009602482015268697320636c6f73652160b81b604482015260640161084d565b6000610194541161204e5760405162461bcd60e51b815260206004820152600f60248201527f746f74616c536861726573203d20300000000000000000000000000000000000604482015260640161084d565b33600061205a8361363f565b6001600160a01b038316600090815261019760205260408120805492935083929091906120889084906148aa565b925050819055508061019460008282546120a291906148aa565b909155505061019f546040516323b872dd60e01b81526001600160a01b03848116600483015230602483015260448201869052909116906323b872dd906064016020604051808303816000875af1158015612101573d6000803e3d6000fd5b505050506040513d601f19601f8201168201806040525081019061212591906148ed565b506040518381526001600160a01b038316906000907fddf252ad1be2c89b69c2b068fc378daa952ba7f163c4a11628f55a4df523b3ef9060200160405180910390a361217182846136c0565b50505050565b600054610100900460ff16158080156121975750600054600160ff909116105b806121b15750303b1580156121b1575060005460ff166001145b6122235760405162461bcd60e51b815260206004820152602e60248201527f496e697469616c697a61626c653a20636f6e747261637420697320616c72656160448201527f647920696e697469616c697a6564000000000000000000000000000000000000606482015260840161084d565b6000805460ff191660011790558015612246576000805461ff0019166101001790555b6001600160a01b03841661229c5760405162461bcd60e51b815260206004820152601460248201527f61646d696e2061646472657373206572726f7221000000000000000000000000604482015260640161084d565b6001600160a01b0383166122f25760405162461bcd60e51b815260206004820152601360248201527f4d5452472061646472657373206572726f722100000000000000000000000000604482015260640161084d565b6001600160a01b0382166123485760405162461bcd60e51b815260206004820152601f60248201527f736372697074456e67696e65416464722061646472657373206572726f722100604482015260640161084d565b6123866040518060400160405280600a81526020017f73744d54524720312e300000000000000000000000000000000000000000000081525061390a565b6123fa6040518060400160405280600b81526020017f5374616b6564204d5452470000000000000000000000000000000000000000008152506040518060400160405280600681526020017f73744d5452470000000000000000000000000000000000000000000000000000815250613998565b612402613a0d565b61240d600085613a80565b61019e80547fffffffffffffffffffff0000000000000000000000000000000000000000ffff16620100006001600160a01b03858116919091029190911790915561019f80546001600160a01b0319169185169190911790558015612171576000805461ff0019169055604051600181527f7f26b83ff96e1f2b6a682f133852f6798a09c465da95921460cefb38474024989060200160405180910390a150505050565b60008181526101306020526040812061088a90613a8a565b60006124d48161349e565b61019e5460ff16156125145760405162461bcd60e51b8152602060048201526009602482015268697320636c6f73652160b81b604482015260640161084d565b61019b5460011061255a5760405162461bcd60e51b815260206004820152601060248201526f6f6e6c7920312063616e64696461746560801b604482015260640161084d565b6001600160a01b038216600090815261019c6020526040812054906101998161019b612587600186614934565b815481106125975761259761487e565b60009182526020808320909101546001600160a01b0316835282019290925260400190206001810154909150806125cf575050505050565b6000600183018190556060815b61019b5481101561279c5761019b548610156125f857856125fb565b60005b95506000610199600061019b89815481106126185761261861487e565b60009182526020808320909101546001600160a01b039081168452908301939093526040918201902061019e548954825493519295506201000090910490931692630395f3bd60e51b92612681928a906024019283526020830191909152604082015260600190565b60408051601f198184030181529181526020820180516001600160e01b03166001600160e01b03199094169390931790925290516126bf9190614961565b6000604051808303816000865af19150503d80600081146126fc576040519150601f19603f3d011682016040523d82523d6000602084013e612701565b606091505b50909450925086612711816148c2565b97505083801561273057508280602001905181019061273091906148ed565b1561278b578481600101600082825461274991906148aa565b9091555050805486546040518781527f5ae6812dea9e8b5a7b9396603fc59d25e1e32156abbc2df381707d824cd45dca9060200160405180910390a35061279c565b50612795816148c2565b90506125dc565b508180156127b95750808060200190518101906127b991906148ed565b6119e85760405162461bcd60e51b81526020600482015260116024820152706e6f206473742063616e6469646174652160781b604482015260640161084d565b834211156128495760405162461bcd60e51b815260206004820152601d60248201527f45524332305065726d69743a206578706972656420646561646c696e65000000604482015260640161084d565b60007f6e71edae12b1b97f4d1f60370fef10105fa2faae0126114a169c64845d6126c98888886128788c613a94565b6040805160208101969096526001600160a01b0394851690860152929091166060840152608083015260a082015260c0810186905260e00160405160208183030381529060405280519060200120905060006128d382613abc565b905060006128e382878787613b0a565b9050896001600160a01b0316816001600160a01b0316146129465760405162461bcd60e51b815260206004820152601e60248201527f45524332305065726d69743a20696e76616c6964207369676e61747572650000604482015260640161084d565b6129518a8a8a613058565b50505050505050505050565b600082815260fe60205260409020600101546129788161349e565b610ab08383613546565b61019b5460609060008167ffffffffffffffff8111156129a4576129a461497d565b6040519080825280602002602001820160405280156129ef57816020015b60408051606081018252600080825260208083018290529282015282526000199092019101816129c25790505b50905060005b61019b54811015612a9057610199600061019b8381548110612a1957612a1961487e565b60009182526020808320909101546001600160a01b03168352828101939093526040918201902081516060810183528154815260018201549381019390935260020154908201528251839083908110612a7457612a7461487e565b602002602001018190525080612a89906148c2565b90506129f5565b5092915050565b612a9f612b00565b61019e54610100900460ff1615612ae75760405162461bcd60e51b815260206004820152600c60248201526b696e207465726d696e616c2160a01b604482015260640161084d565b336000612af382611a53565b9050610ab0828285612b56565b6101625460ff1615612b545760405162461bcd60e51b815260206004820152601060248201527f5061757361626c653a2070617573656400000000000000000000000000000000604482015260640161084d565b565b6000612b618361363f565b6001600160a01b038516600090815261019760205260409020549091508181101580612b9a57506402540be400612b988284614934565b105b612bf15760405162461bcd60e51b815260206004820152602260248201527f45524332303a206275726e20616d6f756e7420657863656564732062616c616e604482015261636560f01b606482015260840161084d565b6001600160a01b0385166000908152610198602052604090205460ff1615612c5b5760405162461bcd60e51b815260206004820152601860248201527f6163636f756e7420697320696e20626c61636b206c6973740000000000000000604482015260640161084d565b612c658183613b32565b6001600160a01b0386166000908152610197602052604090205561019454612c8d9083613b32565b610194556040518481526000906001600160a01b038716907fddf252ad1be2c89b69c2b068fc378daa952ba7f163c4a11628f55a4df523b3ef9060200160405180910390a360005b61019b54811015612e995761019b5461019d541015612cf75761019d54612cfa565b60005b61019d819055506000610199600061019b61019d5481548110612d1f57612d1f61487e565b60009182526020808320909101546001600160a01b03168352820192909252604001812060018101549092508710612d6f57506001810154612d618188614934565b600060018401559650612d90565b86905086826001016000828254612d869190614934565b9091555060009750505b8015612e615761019e548254604051632b0fcbdf60e11b81526004810191909152602481018390526001600160a01b038881166044830152620100009092049091169063561f97be906064016020604051808303816000875af1158015612dfb573d6000803e3d6000fd5b505050506040513d601f19601f82011682018060405250810190612e1f9190614865565b5081546040518281526001600160a01b038a16907fc3ded2be7db21b1af963f267d27750e4a15f174547d88b886b9bda43e2c6fa329060200160405180910390a35b600161019d6000828254612e7591906148aa565b909155505086612e86575050612e99565b505080612e92906148c2565b9050612cd5565b50831561301c5761019f546040516370a0823160e01b81523060048201526000916001600160a01b0316906370a0823190602401602060405180830381865afa158015612eea573d6000803e3d6000fd5b505050506040513d601f19601f82011682018060405250810190612f0e9190614865565b905084811015612f605760405162461bcd60e51b815260206004820152601460248201527f496e73756666696369656e742062616c616e6365000000000000000000000000604482015260640161084d565b61019f5460405163a9059cbb60e01b81526001600160a01b038681166004830152602482018890529091169063a9059cbb906044016020604051808303816000875af1158015612fb4573d6000803e3d6000fd5b505050506040513d601f19601f82011682018060405250810190612fd891906148ed565b506040518581526000906001600160a01b038816907fc3ded2be7db21b1af963f267d27750e4a15f174547d88b886b9bda43e2c6fa329060200160405180910390a3505b5050505050565b60006001600160e01b03198216637965db0b60e01b148061088a57506301ffc9a760e01b6001600160e01b031983161461088a565b6001600160a01b0383166130ba5760405162461bcd60e51b8152602060048201526024808201527f45524332303a20617070726f76652066726f6d20746865207a65726f206164646044820152637265737360e01b606482015260840161084d565b6001600160a01b03821661311b5760405162461bcd60e51b815260206004820152602260248201527f45524332303a20617070726f766520746f20746865207a65726f206164647265604482015261737360f01b606482015260840161084d565b6001600160a01b0383811660008181526034602090815260408083209487168084529482529182902085905590518481527f8c5be1e5ebec7d5bd14f71427d1e84f3dd0314c0f7b2291e5b200ac8c7c3b925910160405180910390a3505050565b6001600160a01b03838116600090815260346020908152604080832093861683529290522054600019811461217157818110156131fb5760405162461bcd60e51b815260206004820152601d60248201527f45524332303a20696e73756666696369656e7420616c6c6f77616e6365000000604482015260640161084d565b6121718484848403613058565b6001600160a01b0383166132845760405162461bcd60e51b815260206004820152602560248201527f45524332303a207472616e736665722066726f6d20746865207a65726f20616460448201527f6472657373000000000000000000000000000000000000000000000000000000606482015260840161084d565b6001600160a01b0382166132e65760405162461bcd60e51b815260206004820152602360248201527f45524332303a207472616e7366657220746f20746865207a65726f206164647260448201526265737360e81b606482015260840161084d565b6001600160a01b0383166000908152610198602052604090205460ff1615801561332a57506001600160a01b0382166000908152610198602052604090205460ff16155b6133765760405162461bcd60e51b815260206004820152601f60248201527f45524332303a206163636f756e7420697320696e20626c61636b206c69737400604482015260640161084d565b60006133818261363f565b6001600160a01b0385166000908152610197602052604090205490915081811015806133ba57506402540be4006133b88284614934565b105b61342c5760405162461bcd60e51b815260206004820152602660248201527f45524332303a207472616e7366657220616d6f756e742065786365656473206260448201527f616c616e63650000000000000000000000000000000000000000000000000000606482015260840161084d565b6134368183613b32565b6001600160a01b038681166000818152610197602090815260408083209590955592881680825290849020805487019055925186815290917fddf252ad1be2c89b69c2b068fc378daa952ba7f163c4a11628f55a4df523b3ef910160405180910390a361301c565b610e4c8133613b71565b6134b28282613be6565b600082815261013060205260409020610ab09082613c88565b6000610abf7f8b73c3c69bb8fe3d512ecc4cf759cc79239f7b179b0ffacaa9a75d522b39400f6134fa60655490565b6066546040805160208101859052908101839052606081018290524660808201523060a082015260009060c0016040516020818303038152906040528051906020012090509392505050565b6135508282613c9d565b600082815261013060205260409020610ab09082613d20565b613571613d35565b610162805460ff191690557f5db9ee0a495bf2e6ff9c91a7834c1ba4fdd244a5e8aa4e537bd38aeae4b073aa335b6040516001600160a01b03909116815260200160405180910390a1565b600081156b019d971e4fe8401e7400000019839004841115176135de57600080fd5b506b033b2e3c9fd0803ce800000091026b019d971e4fe8401e74000000010490565b600081156b033b2e3c9fd0803ce80000006002840419048411171561362457600080fd5b506b033b2e3c9fd0803ce80000009190910260028204010490565b600061088a61364c61093a565b61019454610e6a9085906135bc565b633b9aca00818102908104821461367157600080fd5b919050565b61367e612b00565b610162805460ff191660011790557f62e78cea01bee320cd4e420270b5ea74000d11b0c9f74754ebdbfc544b05a25861359f3390565b6000611af68383613d88565b600080606060005b61019b548110156138a55761019b5461019d5410156136ea5761019d546136ed565b60005b61019d819055506000610199600061019b61019d54815481106137125761371261487e565b60009182526020808320909101546001600160a01b039081168452908301939093526040918201902061019e548154925191945062010000900490921691626de11b60e61b9161376f918a90602401918252602082015260400190565b60408051601f198184030181529181526020820180516001600160e01b03166001600160e01b03199094169390931790925290516137ad9190614961565b6000604051808303816000865af19150503d80600081146137ea576040519150601f19603f3d011682016040523d82523d6000602084013e6137ef565b606091505b508094508195505050600161019d600082825461380c91906148aa565b90915550849050801561382e57508280602001905181019061382e91906148ed565b15613894578581600101600082825461384791906148aa565b909155505080546040518781526001600160a01b038916907f19dacbf83c5de6658e14cbf7bcae5c15eca2eedecf1c66fbca928e4d351bea0f9060200160405180910390a35493506138a5565b5061389e816148c2565b90506136c8565b508180156138c25750808060200190518101906138c291906148ed565b6139025760405162461bcd60e51b81526020600482015260116024820152706e6f206473742063616e6469646174652160781b604482015260640161084d565b505092915050565b600054610100900460ff166139755760405162461bcd60e51b815260206004820152602b60248201527f496e697469616c697a61626c653a20636f6e7472616374206973206e6f74206960448201526a6e697469616c697a696e6760a81b606482015260840161084d565b610e4c81604051806040016040528060018152602001603160f81b815250613db2565b600054610100900460ff16613a035760405162461bcd60e51b815260206004820152602b60248201527f496e697469616c697a61626c653a20636f6e7472616374206973206e6f74206960448201526a6e697469616c697a696e6760a81b606482015260840161084d565b6108618282613e37565b600054610100900460ff16613a785760405162461bcd60e51b815260206004820152602b60248201527f496e697469616c697a61626c653a20636f6e7472616374206973206e6f74206960448201526a6e697469616c697a696e6760a81b606482015260840161084d565b612b54613ec9565b61086182826134a8565b600061088a825490565b6001600160a01b03811660009081526099602052604090208054600181018255905b50919050565b600061088a613ac96134cb565b8360405161190160f01b6020820152602281018390526042810182905260009060620160405160208183030381529060405280519060200120905092915050565b6000806000613b1b87878787613f41565b91509150613b2881614005565b5095945050505050565b6000818310613b4c57613b458284614934565b905061088a565b6000613b588484614934565b90506402540be40081101561037757600091505061088a565b600082815260fe602090815260408083206001600160a01b038516845290915290205460ff1661086157613ba481614153565b613baf836020614165565b604051602001613bc0929190614993565b60408051601f198184030181529082905262461bcd60e51b825261084d916004016145a2565b600082815260fe602090815260408083206001600160a01b038516845290915290205460ff1661086157600082815260fe602090815260408083206001600160a01b03851684529091529020805460ff19166001179055613c443390565b6001600160a01b0316816001600160a01b0316837f2f8788117e7eff1d82e926ec794901d17c78024a50270940304540a733656f0d60405160405180910390a45050565b6000611af6836001600160a01b03841661430e565b600082815260fe602090815260408083206001600160a01b038516845290915290205460ff161561086157600082815260fe602090815260408083206001600160a01b0385168085529252808320805460ff1916905551339285917ff6391f5c32d9c69d2a47ea670b442974b53935d1edc7fd64eb21e047a839171b9190a45050565b6000611af6836001600160a01b03841661435d565b6101625460ff16612b545760405162461bcd60e51b815260206004820152601460248201527f5061757361626c653a206e6f7420706175736564000000000000000000000000604482015260640161084d565b6000826000018281548110613d9f57613d9f61487e565b9060005260206000200154905092915050565b600054610100900460ff16613e1d5760405162461bcd60e51b815260206004820152602b60248201527f496e697469616c697a61626c653a20636f6e7472616374206973206e6f74206960448201526a6e697469616c697a696e6760a81b606482015260840161084d565b815160209283012081519190920120606591909155606655565b600054610100900460ff16613ea25760405162461bcd60e51b815260206004820152602b60248201527f496e697469616c697a61626c653a20636f6e7472616374206973206e6f74206960448201526a6e697469616c697a696e6760a81b606482015260840161084d565b8151613eb590603690602085019061446e565b508051610ab090603790602084019061446e565b600054610100900460ff16613f345760405162461bcd60e51b815260206004820152602b60248201527f496e697469616c697a61626c653a20636f6e7472616374206973206e6f74206960448201526a6e697469616c697a696e6760a81b606482015260840161084d565b610162805460ff19169055565b6000807f7fffffffffffffffffffffffffffffff5d576e7357a4501ddfe92f46681b20a0831115613f785750600090506003613ffc565b6040805160008082526020820180845289905260ff881692820192909252606081018690526080810185905260019060a0016020604051602081039080840390855afa158015613fcc573d6000803e3d6000fd5b5050604051601f1901519150506001600160a01b038116613ff557600060019250925050613ffc565b9150600090505b94509492505050565b600081600481111561401957614019614a14565b14156140225750565b600181600481111561403657614036614a14565b14156140845760405162461bcd60e51b815260206004820152601860248201527f45434453413a20696e76616c6964207369676e61747572650000000000000000604482015260640161084d565b600281600481111561409857614098614a14565b14156140e65760405162461bcd60e51b815260206004820152601f60248201527f45434453413a20696e76616c6964207369676e6174757265206c656e67746800604482015260640161084d565b60038160048111156140fa576140fa614a14565b1415610e4c5760405162461bcd60e51b815260206004820152602260248201527f45434453413a20696e76616c6964207369676e6174757265202773272076616c604482015261756560f01b606482015260840161084d565b606061088a6001600160a01b03831660145b60606000614174836002614a2a565b61417f9060026148aa565b67ffffffffffffffff8111156141975761419761497d565b6040519080825280601f01601f1916602001820160405280156141c1576020820181803683370190505b509050600360fc1b816000815181106141dc576141dc61487e565b60200101906001600160f81b031916908160001a905350600f60fb1b8160018151811061420b5761420b61487e565b60200101906001600160f81b031916908160001a905350600061422f846002614a2a565b61423a9060016148aa565b90505b60018111156142bf577f303132333435363738396162636465660000000000000000000000000000000085600f166010811061427b5761427b61487e565b1a60f81b8282815181106142915761429161487e565b60200101906001600160f81b031916908160001a90535060049490941c936142b881614a49565b905061423d565b508315611af65760405162461bcd60e51b815260206004820181905260248201527f537472696e67733a20686578206c656e67746820696e73756666696369656e74604482015260640161084d565b60008181526001830160205260408120546143555750815460018181018455600084815260208082209093018490558454848252828601909352604090209190915561088a565b50600061088a565b60008181526001830160205260408120548015614446576000614381600183614934565b855490915060009061439590600190614934565b90508181146143fa5760008660000182815481106143b5576143b561487e565b90600052602060002001549050808760000184815481106143d8576143d861487e565b6000918252602080832090910192909255918252600188019052604090208390555b855486908061440b5761440b61494b565b60019003818190600052602060002001600090559055856001016000868152602001908152602001600020600090556001935050505061088a565b600091505061088a565b5080546000825590600052602060002090810190610e4c91906144f2565b82805461447a90614830565b90600052602060002090601f01602090048101928261449c57600085556144e2565b82601f106144b557805160ff19168380011785556144e2565b828001600101855582156144e2579182015b828111156144e25782518255916020019190600101906144c7565b506144ee9291506144f2565b5090565b5b808211156144ee57600081556001016144f3565b6001600160a01b0381168114610e4c57600080fd5b6000806040838503121561452f57600080fd5b82359150602083013561454181614507565b809150509250929050565b60006020828403121561455e57600080fd5b81356001600160e01b031981168114611af657600080fd5b60005b83811015614591578181015183820152602001614579565b838111156121715750506000910152565b60208152600082518060208401526145c1816040850160208701614576565b601f01601f19169190910160400192915050565b6000602082840312156145e757600080fd5b8135611af681614507565b6000806040838503121561460557600080fd5b823561461081614507565b946020939093013593505050565b60008060006060848603121561463357600080fd5b833561463e81614507565b9250602084013561464e81614507565b929592945050506040919091013590565b60006020828403121561467157600080fd5b5035919050565b6020808252825182820181905260009190848201906040850190845b818110156146b95783516001600160a01b031683529284019291840191600101614694565b50909695505050505050565b600080604083850312156146d857600080fd5b50508035926020909101359150565b6000806000606084860312156146fc57600080fd5b833561470781614507565b9250602084013561471781614507565b9150604084013561472781614507565b809150509250925092565b600080600080600080600060e0888a03121561474d57600080fd5b873561475881614507565b9650602088013561476881614507565b95506040880135945060608801359350608088013560ff8116811461478c57600080fd5b9699959850939692959460a0840135945060c09093013592915050565b600080604083850312156147bc57600080fd5b82356147c781614507565b9150602083013561454181614507565b602080825282518282018190526000919060409081850190868401855b8281101561482357815180518552868101518786015285015185850152606090930192908501906001016147f4565b5091979650505050505050565b600181811c9082168061484457607f821691505b60208210811415613ab657634e487b7160e01b600052602260045260246000fd5b60006020828403121561487757600080fd5b5051919050565b634e487b7160e01b600052603260045260246000fd5b634e487b7160e01b600052601160045260246000fd5b600082198211156148bd576148bd614894565b500190565b60006000198214156148d6576148d6614894565b5060010190565b8051801515811461367157600080fd5b6000602082840312156148ff57600080fd5b611af6826148dd565b6000806040838503121561491b57600080fd5b8251915061492b602084016148dd565b90509250929050565b60008282101561494657614946614894565b500390565b634e487b7160e01b600052603160045260246000fd5b60008251614973818460208701614576565b9190910192915050565b634e487b7160e01b600052604160045260246000fd5b7f416363657373436f6e74726f6c3a206163636f756e74200000000000000000008152600083516149cb816017850160208801614576565b7f206973206d697373696e6720726f6c65200000000000000000000000000000006017918401918201528351614a08816028840160208801614576565b01602801949350505050565b634e487b7160e01b600052602160045260246000fd5b6000816000190483118215151615614a4457614a44614894565b500290565b600081614a5857614a58614894565b50600019019056fea26469706673582212209cea022c0148cbf0b97e3ef2c5a7e1e9fe13f9f5cabf9a28ce57e1361da40f5c64736f6c634300080b0033",
  "linkReferences": {},
  "deployedLinkReferences": {}
}