{
  "_format": "hh-sol-artifact-1",
  "contractName": "StMTRG",
  "sourceName": "contracts/StMTRG.sol",
  "abi": [
    {
      "anonymous": false,
      "inputs": [
        {
          "indexed": true,
          "internalType": "address",
          "name": "owner",
          "type": "address"
        },
        {
          "indexed": true,
          "internalType": "address",
          "name": "spender",
          "type": "address"
        },
        {
          "indexed": false,
          "internalType": "uint256",
          "name": "value",
          "type": "uint256"
        }
      ],
      "name": "Approval",
      "type": "event"
    },
    {
      "anonymous": false,
      "inputs": [
        {
          "indexed": true,
          "internalType": "address",
          "name": "account",
          "type": "address"
        },
        {
          "indexed": true,
          "internalType": "bytes32",
          "name": "bucketID",
          "type": "bytes32"
        },
        {
          "indexed": false,
          "internalType": "uint256",
          "name": "amount",
          "type": "uint256"
        }
      ],
      "name": "Deposit",
      "type": "event"
    },
    {
      "anonymous": false,
      "inputs": [
        {
          "indexed": true,
          "internalType": "address",
          "name": "candidate",
          "type": "address"
        },
        {
          "indexed": false,
          "internalType": "bytes32",
          "name": "bucketID",
          "type": "bytes32"
        },
        {
          "indexed": false,
          "internalType": "uint256",
          "name": "timestamp",
          "type": "uint256"
        }
      ],
      "name": "ExecuteClost",
      "type": "event"
    },
    {
      "anonymous": false,
      "inputs": [
        {
          "indexed": false,
          "internalType": "uint8",
          "name": "version",
          "type": "uint8"
        }
      ],
      "name": "Initialized",
      "type": "event"
    },
    {
      "anonymous": false,
      "inputs": [
        {
          "indexed": true,
          "internalType": "bytes32",
          "name": "bucketID",
          "type": "bytes32"
        },
        {
          "indexed": true,
          "internalType": "address",
          "name": "candidate",
          "type": "address"
        },
        {
          "indexed": true,
          "internalType": "uint256",
          "name": "epoch",
          "type": "uint256"
        },
        {
          "indexed": false,
          "internalType": "uint256",
          "name": "totalSupply",
          "type": "uint256"
        }
      ],
      "name": "LogRebase",
      "type": "event"
    },
    {
      "anonymous": false,
      "inputs": [
        {
          "indexed": true,
          "internalType": "address",
          "name": "candidate",
          "type": "address"
        },
        {
          "indexed": false,
          "internalType": "bytes32",
          "name": "bucketID",
          "type": "bytes32"
        }
      ],
      "name": "NewCandidate",
      "type": "event"
    },
    {
      "anonymous": false,
      "inputs": [
        {
          "indexed": false,
          "internalType": "address",
          "name": "account",
          "type": "address"
        }
      ],
      "name": "Paused",
      "type": "event"
    },
    {
      "anonymous": false,
      "inputs": [
        {
          "indexed": true,
          "internalType": "address",
          "name": "candidate",
          "type": "address"
        },
        {
          "indexed": false,
          "internalType": "bytes32",
          "name": "bucketID",
          "type": "bytes32"
        },
        {
          "indexed": false,
          "internalType": "uint256",
          "name": "timestamp",
          "type": "uint256"
        }
      ],
      "name": "RequestClost",
      "type": "event"
    },
    {
      "anonymous": false,
      "inputs": [
        {
          "indexed": true,
          "internalType": "bytes32",
          "name": "role",
          "type": "bytes32"
        },
        {
          "indexed": true,
          "internalType": "bytes32",
          "name": "previousAdminRole",
          "type": "bytes32"
        },
        {
          "indexed": true,
          "internalType": "bytes32",
          "name": "newAdminRole",
          "type": "bytes32"
        }
      ],
      "name": "RoleAdminChanged",
      "type": "event"
    },
    {
      "anonymous": false,
      "inputs": [
        {
          "indexed": true,
          "internalType": "bytes32",
          "name": "role",
          "type": "bytes32"
        },
        {
          "indexed": true,
          "internalType": "address",
          "name": "account",
          "type": "address"
        },
        {
          "indexed": true,
          "internalType": "address",
          "name": "sender",
          "type": "address"
        }
      ],
      "name": "RoleGranted",
      "type": "event"
    },
    {
      "anonymous": false,
      "inputs": [
        {
          "indexed": true,
          "internalType": "bytes32",
          "name": "role",
          "type": "bytes32"
        },
        {
          "indexed": true,
          "internalType": "address",
          "name": "account",
          "type": "address"
        },
        {
          "indexed": true,
          "internalType": "address",
          "name": "sender",
          "type": "address"
        }
      ],
      "name": "RoleRevoked",
      "type": "event"
    },
    {
      "anonymous": false,
      "inputs": [
        {
          "indexed": true,
          "internalType": "address",
          "name": "candidate",
          "type": "address"
        },
        {
          "indexed": false,
          "internalType": "bytes32",
          "name": "bucketID",
          "type": "bytes32"
        },
        {
          "indexed": false,
          "internalType": "uint256",
          "name": "timestamp",
          "type": "uint256"
        }
      ],
      "name": "TerminalClost",
      "type": "event"
    },
    {
      "anonymous": false,
      "inputs": [
        {
          "indexed": true,
          "internalType": "address",
          "name": "from",
          "type": "address"
        },
        {
          "indexed": true,
          "internalType": "address",
          "name": "to",
          "type": "address"
        },
        {
          "indexed": false,
          "internalType": "uint256",
          "name": "value",
          "type": "uint256"
        }
      ],
      "name": "Transfer",
      "type": "event"
    },
    {
      "anonymous": false,
      "inputs": [
        {
          "indexed": false,
          "internalType": "address",
          "name": "account",
          "type": "address"
        }
      ],
      "name": "Unpaused",
      "type": "event"
    },
    {
      "anonymous": false,
      "inputs": [
        {
          "indexed": true,
          "internalType": "address",
          "name": "oldCandidate",
          "type": "address"
        },
        {
          "indexed": false,
          "internalType": "address",
          "name": "newCandidate",
          "type": "address"
        }
      ],
      "name": "UpdateCandidate",
      "type": "event"
    },
    {
      "anonymous": false,
      "inputs": [
        {
          "indexed": true,
          "internalType": "address",
          "name": "account",
          "type": "address"
        },
        {
          "indexed": true,
          "internalType": "bytes32",
          "name": "bucketID",
          "type": "bytes32"
        },
        {
          "indexed": false,
          "internalType": "uint256",
          "name": "amount",
          "type": "uint256"
        }
      ],
      "name": "Withdraw",
      "type": "event"
    },
    {
      "inputs": [],
      "name": "CLOSE_DURATION",
      "outputs": [
        {
          "internalType": "uint256",
          "name": "",
          "type": "uint256"
        }
      ],
      "stateMutability": "view",
      "type": "function"
    },
    {
      "inputs": [],
      "name": "DEFAULT_ADMIN_ROLE",
      "outputs": [
        {
          "internalType": "bytes32",
          "name": "",
          "type": "bytes32"
        }
      ],
      "stateMutability": "view",
      "type": "function"
    },
    {
      "inputs": [],
      "name": "DOMAIN_SEPARATOR",
      "outputs": [
        {
          "internalType": "bytes32",
          "name": "",
          "type": "bytes32"
        }
      ],
      "stateMutability": "view",
      "type": "function"
    },
    {
      "inputs": [],
      "name": "MTRG",
      "outputs": [
        {
          "internalType": "contract IERC20Upgradeable",
          "name": "",
          "type": "address"
        }
      ],
      "stateMutability": "view",
      "type": "function"
    },
    {
      "inputs": [
        {
          "internalType": "address",
          "name": "owner",
          "type": "address"
        },
        {
          "internalType": "address",
          "name": "spender",
          "type": "address"
        }
      ],
      "name": "allowance",
      "outputs": [
        {
          "internalType": "uint256",
          "name": "",
          "type": "uint256"
        }
      ],
      "stateMutability": "view",
      "type": "function"
    },
    {
      "inputs": [
        {
          "internalType": "address",
          "name": "spender",
          "type": "address"
        },
        {
          "internalType": "uint256",
          "name": "amount",
          "type": "uint256"
        }
      ],
      "name": "approve",
      "outputs": [
        {
          "internalType": "bool",
          "name": "",
          "type": "bool"
        }
      ],
      "stateMutability": "nonpayable",
      "type": "function"
    },
    {
      "inputs": [
        {
          "internalType": "address",
          "name": "account",
          "type": "address"
        }
      ],
      "name": "balanceOf",
      "outputs": [
        {
          "internalType": "uint256",
          "name": "",
          "type": "uint256"
        }
      ],
      "stateMutability": "view",
      "type": "function"
    },
    {
      "inputs": [
        {
          "internalType": "bytes32",
          "name": "",
          "type": "bytes32"
        }
      ],
      "name": "bucketIDToCandidate",
      "outputs": [
        {
          "internalType": "address",
          "name": "",
          "type": "address"
        }
      ],
      "stateMutability": "view",
      "type": "function"
    },
    {
      "inputs": [
        {
          "internalType": "address",
          "name": "",
          "type": "address"
        }
      ],
      "name": "candidateIndex",
      "outputs": [
        {
          "internalType": "uint256",
          "name": "",
          "type": "uint256"
        }
      ],
      "stateMutability": "view",
      "type": "function"
    },
    {
      "inputs": [
        {
          "internalType": "address",
          "name": "",
          "type": "address"
        }
      ],
      "name": "candidateToBucket",
      "outputs": [
        {
          "internalType": "bytes32",
          "name": "bucketID",
          "type": "bytes32"
        },
        {
          "internalType": "uint256",
          "name": "totalDeposit",
          "type": "uint256"
        },
        {
          "internalType": "uint256",
          "name": "closeTimestamp",
          "type": "uint256"
        },
        {
          "internalType": "enum StMTRG.BucketStatus",
          "name": "status",
          "type": "uint8"
        }
      ],
      "stateMutability": "view",
      "type": "function"
    },
    {
      "inputs": [],
      "name": "candidates",
      "outputs": [
        {
          "internalType": "address[]",
          "name": "",
          "type": "address[]"
        }
      ],
      "stateMutability": "view",
      "type": "function"
    },
    {
      "inputs": [
        {
          "internalType": "address",
          "name": "candidate",
          "type": "address"
        }
      ],
      "name": "closeTerminal",
      "outputs": [],
      "stateMutability": "nonpayable",
      "type": "function"
    },
    {
      "inputs": [],
      "name": "closeTimestamp",
      "outputs": [
        {
          "internalType": "uint256",
          "name": "",
          "type": "uint256"
        }
      ],
      "stateMutability": "view",
      "type": "function"
    },
    {
      "inputs": [],
      "name": "decimals",
      "outputs": [
        {
          "internalType": "uint8",
          "name": "",
          "type": "uint8"
        }
      ],
      "stateMutability": "view",
      "type": "function"
    },
    {
      "inputs": [
        {
          "internalType": "address",
          "name": "spender",
          "type": "address"
        },
        {
          "internalType": "uint256",
          "name": "subtractedValue",
          "type": "uint256"
        }
      ],
      "name": "decreaseAllowance",
      "outputs": [
        {
          "internalType": "bool",
          "name": "",
          "type": "bool"
        }
      ],
      "stateMutability": "nonpayable",
      "type": "function"
    },
    {
      "inputs": [
        {
          "internalType": "uint256",
          "name": "amount",
          "type": "uint256"
        }
      ],
      "name": "deposit",
      "outputs": [],
      "stateMutability": "nonpayable",
      "type": "function"
    },
    {
      "inputs": [],
      "name": "epoch",
      "outputs": [
        {
          "internalType": "uint256",
          "name": "",
          "type": "uint256"
        }
      ],
      "stateMutability": "view",
      "type": "function"
    },
    {
      "inputs": [
        {
          "internalType": "address",
          "name": "candidate",
          "type": "address"
        }
      ],
      "name": "executeClose",
      "outputs": [],
      "stateMutability": "nonpayable",
      "type": "function"
    },
    {
      "inputs": [
        {
          "internalType": "address",
          "name": "recipient",
          "type": "address"
        }
      ],
      "name": "exit",
      "outputs": [],
      "stateMutability": "nonpayable",
      "type": "function"
    },
    {
      "inputs": [
        {
          "internalType": "bytes32",
          "name": "role",
          "type": "bytes32"
        }
      ],
      "name": "getRoleAdmin",
      "outputs": [
        {
          "internalType": "bytes32",
          "name": "",
          "type": "bytes32"
        }
      ],
      "stateMutability": "view",
      "type": "function"
    },
    {
      "inputs": [
        {
          "internalType": "bytes32",
          "name": "role",
          "type": "bytes32"
        },
        {
          "internalType": "uint256",
          "name": "index",
          "type": "uint256"
        }
      ],
      "name": "getRoleMember",
      "outputs": [
        {
          "internalType": "address",
          "name": "",
          "type": "address"
        }
      ],
      "stateMutability": "view",
      "type": "function"
    },
    {
      "inputs": [
        {
          "internalType": "bytes32",
          "name": "role",
          "type": "bytes32"
        }
      ],
      "name": "getRoleMemberCount",
      "outputs": [
        {
          "internalType": "uint256",
          "name": "",
          "type": "uint256"
        }
      ],
      "stateMutability": "view",
      "type": "function"
    },
    {
      "inputs": [
        {
          "internalType": "bytes32",
          "name": "role",
          "type": "bytes32"
        },
        {
          "internalType": "address",
          "name": "account",
          "type": "address"
        }
      ],
      "name": "grantRole",
      "outputs": [],
      "stateMutability": "nonpayable",
      "type": "function"
    },
    {
      "inputs": [
        {
          "internalType": "bytes32",
          "name": "role",
          "type": "bytes32"
        },
        {
          "internalType": "address",
          "name": "account",
          "type": "address"
        }
      ],
      "name": "hasRole",
      "outputs": [
        {
          "internalType": "bool",
          "name": "",
          "type": "bool"
        }
      ],
      "stateMutability": "view",
      "type": "function"
    },
    {
      "inputs": [
        {
          "internalType": "address",
          "name": "spender",
          "type": "address"
        },
        {
          "internalType": "uint256",
          "name": "addedValue",
          "type": "uint256"
        }
      ],
      "name": "increaseAllowance",
      "outputs": [
        {
          "internalType": "bool",
          "name": "",
          "type": "bool"
        }
      ],
      "stateMutability": "nonpayable",
      "type": "function"
    },
    {
      "inputs": [
        {
          "internalType": "address",
          "name": "admin",
          "type": "address"
        },
        {
          "internalType": "contract IERC20Upgradeable",
          "name": "_MTRG",
          "type": "address"
        },
        {
          "internalType": "address",
          "name": "scriptEngineAddr",
          "type": "address"
        }
      ],
      "name": "initialize",
      "outputs": [],
      "stateMutability": "nonpayable",
      "type": "function"
    },
    {
      "inputs": [],
      "name": "name",
      "outputs": [
        {
          "internalType": "string",
          "name": "",
          "type": "string"
        }
      ],
      "stateMutability": "view",
      "type": "function"
    },
    {
      "inputs": [
        {
          "internalType": "address",
          "name": "candidate",
          "type": "address"
        }
      ],
      "name": "newCandidate",
      "outputs": [],
      "stateMutability": "nonpayable",
      "type": "function"
    },
    {
      "inputs": [
        {
          "internalType": "address",
          "name": "owner",
          "type": "address"
        }
      ],
      "name": "nonces",
      "outputs": [
        {
          "internalType": "uint256",
          "name": "",
          "type": "uint256"
        }
      ],
      "stateMutability": "view",
      "type": "function"
    },
    {
      "inputs": [],
      "name": "pause",
      "outputs": [],
      "stateMutability": "nonpayable",
      "type": "function"
    },
    {
      "inputs": [],
      "name": "paused",
      "outputs": [
        {
          "internalType": "bool",
          "name": "",
          "type": "bool"
        }
      ],
      "stateMutability": "view",
      "type": "function"
    },
    {
      "inputs": [
        {
          "internalType": "address",
          "name": "owner",
          "type": "address"
        },
        {
          "internalType": "address",
          "name": "spender",
          "type": "address"
        },
        {
          "internalType": "uint256",
          "name": "value",
          "type": "uint256"
        },
        {
          "internalType": "uint256",
          "name": "deadline",
          "type": "uint256"
        },
        {
          "internalType": "uint8",
          "name": "v",
          "type": "uint8"
        },
        {
          "internalType": "bytes32",
          "name": "r",
          "type": "bytes32"
        },
        {
          "internalType": "bytes32",
          "name": "s",
          "type": "bytes32"
        }
      ],
      "name": "permit",
      "outputs": [],
      "stateMutability": "nonpayable",
      "type": "function"
    },
    {
      "inputs": [],
      "name": "rebase",
      "outputs": [],
      "stateMutability": "nonpayable",
      "type": "function"
    },
    {
      "inputs": [
        {
          "internalType": "bytes32",
          "name": "role",
          "type": "bytes32"
        },
        {
          "internalType": "address",
          "name": "account",
          "type": "address"
        }
      ],
      "name": "renounceRole",
      "outputs": [],
      "stateMutability": "nonpayable",
      "type": "function"
    },
    {
      "inputs": [
        {
          "internalType": "address",
          "name": "candidate",
          "type": "address"
        }
      ],
      "name": "requestClose",
      "outputs": [],
      "stateMutability": "nonpayable",
      "type": "function"
    },
    {
      "inputs": [
        {
          "internalType": "bytes32",
          "name": "role",
          "type": "bytes32"
        },
        {
          "internalType": "address",
          "name": "account",
          "type": "address"
        }
      ],
      "name": "revokeRole",
      "outputs": [],
      "stateMutability": "nonpayable",
      "type": "function"
    },
    {
      "inputs": [
        {
          "internalType": "address",
          "name": "account",
          "type": "address"
        }
      ],
      "name": "setBlackList",
      "outputs": [],
      "stateMutability": "nonpayable",
      "type": "function"
    },
    {
      "inputs": [
        {
          "internalType": "uint256",
          "name": "_share",
          "type": "uint256"
        }
      ],
      "name": "shareToValue",
      "outputs": [
        {
          "internalType": "uint256",
          "name": "",
          "type": "uint256"
        }
      ],
      "stateMutability": "view",
      "type": "function"
    },
    {
      "inputs": [
        {
          "internalType": "address",
          "name": "account",
          "type": "address"
        }
      ],
      "name": "shares",
      "outputs": [
        {
          "internalType": "uint256",
          "name": "",
          "type": "uint256"
        }
      ],
      "stateMutability": "view",
      "type": "function"
    },
    {
      "inputs": [
        {
          "internalType": "bytes4",
          "name": "interfaceId",
          "type": "bytes4"
        }
      ],
      "name": "supportsInterface",
      "outputs": [
        {
          "internalType": "bool",
          "name": "",
          "type": "bool"
        }
      ],
      "stateMutability": "view",
      "type": "function"
    },
    {
      "inputs": [],
      "name": "symbol",
      "outputs": [
        {
          "internalType": "string",
          "name": "",
          "type": "string"
        }
      ],
      "stateMutability": "view",
      "type": "function"
    },
    {
      "inputs": [],
      "name": "totalShares",
      "outputs": [
        {
          "internalType": "uint256",
          "name": "",
          "type": "uint256"
        }
      ],
      "stateMutability": "view",
      "type": "function"
    },
    {
      "inputs": [],
      "name": "totalSupply",
      "outputs": [
        {
          "internalType": "uint256",
          "name": "",
          "type": "uint256"
        }
      ],
      "stateMutability": "view",
      "type": "function"
    },
    {
      "inputs": [
        {
          "internalType": "address",
          "name": "to",
          "type": "address"
        },
        {
          "internalType": "uint256",
          "name": "amount",
          "type": "uint256"
        }
      ],
      "name": "transfer",
      "outputs": [
        {
          "internalType": "bool",
          "name": "",
          "type": "bool"
        }
      ],
      "stateMutability": "nonpayable",
      "type": "function"
    },
    {
      "inputs": [
        {
          "internalType": "address",
          "name": "from",
          "type": "address"
        },
        {
          "internalType": "address",
          "name": "to",
          "type": "address"
        },
        {
          "internalType": "uint256",
          "name": "amount",
          "type": "uint256"
        }
      ],
      "name": "transferFrom",
      "outputs": [
        {
          "internalType": "bool",
          "name": "",
          "type": "bool"
        }
      ],
      "stateMutability": "nonpayable",
      "type": "function"
    },
    {
      "inputs": [],
      "name": "unpause",
      "outputs": [],
      "stateMutability": "nonpayable",
      "type": "function"
    },
    {
      "inputs": [
        {
          "internalType": "address",
          "name": "oldCandidateAddr",
          "type": "address"
        },
        {
          "internalType": "address",
          "name": "newCandidateAddr",
          "type": "address"
        }
      ],
      "name": "updateCandidate",
      "outputs": [],
      "stateMutability": "nonpayable",
      "type": "function"
    },
    {
      "inputs": [
        {
          "internalType": "uint256",
          "name": "_value",
          "type": "uint256"
        }
      ],
      "name": "valueToShare",
      "outputs": [
        {
          "internalType": "uint256",
          "name": "",
          "type": "uint256"
        }
      ],
      "stateMutability": "view",
      "type": "function"
    },
    {
      "inputs": [
        {
          "internalType": "uint256",
          "name": "amount",
          "type": "uint256"
        },
        {
          "internalType": "address",
          "name": "recipient",
          "type": "address"
        }
      ],
      "name": "withdraw",
      "outputs": [],
      "stateMutability": "nonpayable",
      "type": "function"
    }
  ],
  "bytecode": "0x608060405260006101945534801561001657600080fd5b50613d85806100266000396000f3fe608060405234801561001057600080fd5b50600436106102ba5760003560e01c80636f0470aa11610182578063a457c2d7116100e9578063ca15c873116100a2578063d547741f1161007c578063d547741f1461064e578063dd62ed3e14610661578063e461a47d14610674578063fdb4fb0e1461069e57600080fd5b8063ca15c873146105fe578063ce7c2ac214610611578063d505accf1461063b57600080fd5b8063a457c2d714610597578063a9059cbb146105aa578063af14052c146105bd578063b42652e9146105c5578063b6b55f25146105d8578063c0c53b8b146105eb57600080fd5b8063900cf0cf1161013b578063900cf0cf146105445780639010d07c1461054e57806391d148541461056157806395d89b41146105745780639625a0411461057c578063a217fddf1461058f57600080fd5b80636f0470aa146104c257806370a08231146104d757806372700241146104ea5780637ecebe00146104fd5780638456cb591461051057806388b0e2a41461051857600080fd5b80632f2ff15d116102265780633f4ba83a116101df5780633f4ba83a1461046257806340528a9c1461046a578063441130d51461047d5780634b64fcd1146104905780635c975abb146104a35780635dc4a466146104af57600080fd5b80632f2ff15d1461040a578063313ce5671461041d5780633644e5151461042c57806336568abe1461043457806339509351146104475780633a98ef391461045a57600080fd5b8063095ea7b311610278578063095ea7b31461038557806318160ddd146103985780631d6508b1146103a057806322735da8146103b357806323b872dd146103d4578063248a9ca3146103e757600080fd5b8062f714ce146102bf57806301ffc9a7146102d4578063052d7c00146102fc57806306fdde0314610314578063079b832a14610329578063087bf5061461033c575b600080fd5b6102d26102cd3660046137cb565b6106a8565b005b6102e76102e23660046137fb565b6106bf565b60405190151581526020015b60405180910390f35b6103066101965481565b6040519081526020016102f3565b61031c6106ea565b6040516102f39190613851565b6102d2610337366004613884565b61077c565b61037561034a366004613884565b6101996020526000908152604090208054600182015460028301546003909301549192909160ff1684565b6040516102f394939291906138b7565b6102e76103933660046138f9565b610904565b61030661091c565b6102d26103ae366004613884565b610990565b6103066103c1366004613884565b61019c6020526000908152604090205481565b6102e76103e2366004613925565b610a5c565b6103066103f5366004613966565b600090815260fe602052604090206001015490565b6102d26104183660046137cb565b610a80565b604051601281526020016102f3565b610306610aaa565b6102d26104423660046137cb565b610ab4565b6102e76104553660046138f9565b610b2e565b610306610b50565b6102d2610b5e565b6102d2610478366004613884565b610b74565b61030661048b366004613966565b610c44565b61030661049e366004613966565b610dac565b6101625460ff166102e7565b6102d26104bd366004613884565b610db7565b6104ca61111c565b6040516102f3919061397f565b6103066104e5366004613884565b61117e565b6102d26104f8366004613884565b6111a1565b61030661050b366004613884565b6111d7565b6102d26111f5565b61019e5461052c906001600160a01b031681565b6040516001600160a01b0390911681526020016102f3565b6103066101955481565b61052c61055c3660046139cc565b611208565b6102e761056f3660046137cb565b611221565b61031c61124c565b6102d261058a3660046139ee565b61125b565b610306600081565b6102e76105a53660046138f9565b611514565b6102e76105b83660046138f9565b61158f565b6102d261159d565b6102d26105d3366004613884565b611748565b6102d26105e6366004613966565b611769565b6102d26105f9366004613a1c565b6119f2565b61030661060c366004613966565b611ca8565b61030661061f366004613884565b6001600160a01b03166000908152610197602052604090205490565b6102d2610649366004613a67565b611cc0565b6102d261065c3660046137cb565b611e24565b61030661066f3660046139ee565b611e49565b61052c610682366004613966565b61019a602052600090815260409020546001600160a01b031681565b61030662278d0081565b6106b0611e74565b6106bb338383611ebd565b5050565b60006001600160e01b03198216635a05180f60e01b14806106e457506106e48261240e565b92915050565b6060603680546106f990613ade565b80601f016020809104026020016040519081016040528092919081815260200182805461072590613ade565b80156107725780601f1061074757610100808354040283529160200191610772565b820191906000526020600020905b81548152906001019060200180831161075557829003601f168201915b5050505050905090565b600061078781612443565b60006107928361244d565b90506002600382015460ff1660048111156107af576107af6138a1565b146107ee5760405162461bcd60e51b815260206004820152600a6024820152696e6f7420636c6f73652160b01b60448201526064015b60405180910390fd5b62278d00610196546108009190613b29565b4210156108415760405162461bcd60e51b815260206004820152600f60248201526e434c4f53455f4455524154494f4e2160881b60448201526064016107e5565b6003818101805460ff1916909117905561019d5481546040516377d7f91360e01b815260048101919091526001600160a01b03909116906377d7f91390602401600060405180830381600087803b15801561089b57600080fd5b505af11580156108af573d6000803e3d6000fd5b50508254610196546040805192835260208301919091526001600160a01b03871693507f9da301bb415bd639d2a2c4e5d364bd6ea2f179effc5890b3cd39de25a5e79f489250015b60405180910390a2505050565b6000336109128185856124d7565b5060019392505050565b61019d5460408051631d46ec1560e11b815290516000926001600160a01b031691633a8dd82a9160048083019260209291908290030181865afa158015610967573d6000803e3d6000fd5b505050506040513d601f19601f8201168201806040525081019061098b9190613b41565b905090565b600061099b81612443565b60006109a68361244d565b90506001600382015460ff1660048111156109c3576109c36138a1565b146109fd5760405162461bcd60e51b815260206004820152600a602482015269697320636c6f7365642160b01b60448201526064016107e5565b60038101805460ff1916600290811790915542908201558054610196546040805192835260208301919091526001600160a01b038516917f1e757b7f9e12d98e6039723354e852636180e846c5d6d06f2d336d673f1e5f0891016108f7565b600033610a6a8582856125fb565b610a7585858561266f565b506001949350505050565b600082815260fe6020526040902060010154610a9b81612443565b610aa583836128a8565b505050565b600061098b6128cb565b6001600160a01b0381163314610b245760405162461bcd60e51b815260206004820152602f60248201527f416363657373436f6e74726f6c3a2063616e206f6e6c792072656e6f756e636560448201526e103937b632b9903337b91039b2b63360891b60648201526084016107e5565b6106bb8282612946565b600033610912818585610b418383611e49565b610b4b9190613b29565b6124d7565b600061098b61019454612969565b6000610b6981612443565b610b7161298c565b50565b6000610b7f81612443565b6000610b8a8361244d565b905060038082015460ff166004811115610ba657610ba66138a1565b14610be65760405162461bcd60e51b815260206004820152601060248201526f6e6f7420696e207465726d696e616c2160801b60448201526064016107e5565b60038101805460ff19166004179055600060018201558054610196546040805192835260208301919091526001600160a01b038516917faf81ddf4e80b10b58f6cfa2fd776975d0689413fc00e4cc537327067731783a391016108f7565b61019e546040516370a0823160e01b815230600482015260009182916001600160a01b03909116906370a0823190602401602060405180830381865afa158015610c92573d6000803e3d6000fd5b505050506040513d601f19601f82011682018060405250810190610cb69190613b41565b905060005b61019b54811015610d84576000610199600061019b8481548110610ce157610ce1613b5a565b60009182526020808320909101546001600160a01b0316835282810193909352604091820190208151608081018352815481526001820154938101939093526002810154918301919091526003810154606083019060ff166004811115610d4a57610d4a6138a1565b6004811115610d5b57610d5b6138a1565b9052506020810151909150610d709084613b29565b92505080610d7d90613b70565b9050610cbb565b50610da561019454610d9f83610d99876129df565b906129f5565b90612a39565b9392505050565b60006106e482612a78565b6000610dc281612443565b6001600160a01b038216610de85760405162461bcd60e51b81526004016107e590613b8b565b6001600160a01b038216600090815261019960205260409020805415610e455760405162461bcd60e51b815260206004820152601260248201527163616e64696461746520657873697465642160701b60448201526064016107e5565b61019e546040516323b872dd60e01b8152336004820181905230602483015268056bc75e2d6310000060448301819052909290916001600160a01b03909116906323b872dd906064016020604051808303816000875af1158015610ead573d6000803e3d6000fd5b505050506040513d601f19601f82011682018060405250810190610ed19190613bb3565b5061019d5460405163183077b960e11b81526001600160a01b038781166004830152602482018490526000921690633060ef72906044016020604051808303816000875af1158015610f27573d6000803e3d6000fd5b505050506040513d601f19601f82011682018060405250810190610f4b9190613b41565b905081846001016000828254610f619190613b29565b909155505080845560038401805460ff1916600190811790915561019b805491820181557f24aeb2cd7b2cf328da485c24efd7197e86108b05bbc525c1db80c96ffdf7e12990910180546001600160a01b03199081166001600160a01b038a169081179092559154600082815261019c602090815260408083209390935585825261019a815290829020805490941683179093555183815290917fd5b232e8b0b3cae5597d617fedb01eab27bcfa4a0f7491761e81dda85fbaae8f910160405180910390a261019454611083576001600160a01b0383166000908152610197602052604081208054849290611057908490613b29565b909155506110669050826129df565b61019460008282546110789190613b29565b909155506110e49050565b600061108e83612a78565b6001600160a01b038516600090815261019760205260408120805492935083929091906110bc908490613b29565b909155506110cb9050816129df565b61019460008282546110dd9190613b29565b9091555050505b6040518281526001600160a01b03841690600090600080516020613d30833981519152906020015b60405180910390a3505050505050565b606061019b80548060200260200160405190810160405280929190818152602001828054801561077257602002820191906000526020600020905b81546001600160a01b03168152600190910190602001808311611157575050505050905090565b6001600160a01b038116600090815261019760205260408120546106e490610c44565b60006111ac81612443565b506001600160a01b0316600090815261019860205260409020805460ff19811660ff90911615179055565b6001600160a01b0381166000908152609960205260408120546106e4565b600061120081612443565b610b71612bdb565b600082815261013060205260408120610da59083612c19565b600091825260fe602090815260408084206001600160a01b0393909316845291905290205460ff1690565b6060603780546106f990613ade565b600061126681612443565b6001600160a01b03821661128c5760405162461bcd60e51b81526004016107e590613b8b565b6001600160a01b0383166000908152610199602090815260408083208151608081018352815481526001820154938101939093526002810154918301919091526003810154606083019060ff1660048111156112ea576112ea6138a1565b60048111156112fb576112fb6138a1565b9052509050600181606001516004811115611318576113186138a1565b146113355760405162461bcd60e51b81526004016107e590613bd5565b61019d5481516040516304a8292160e41b815260048101919091526001600160a01b03858116602483015290911690634a82921090604401600060405180830381600087803b15801561138757600080fd5b505af115801561139b573d6000803e3d6000fd5b50505050806101996000856001600160a01b03166001600160a01b0316815260200190815260200160002060008201518160000155602082015181600101556040820151816002015560608201518160030160006101000a81548160ff0219169083600481111561140e5761140e6138a1565b0217905550508151600090815261019a6020908152604080832080546001600160a01b0319166001600160a01b03898116919091179091558816835261019c90915290205461019b805491925085918390811061146d5761146d613b5a565b600091825260208083209190910180546001600160a01b0319166001600160a01b0394851617905586831680835261019c8252604080842086905593891680845284842084905561019983528484208481556001810185905560028101949094556003909301805460ff19169055925192835290917fce3795db01b63741359a0348738a903225ccd1dce63f8acd66c6db3317285f27910160405180910390a25050505050565b600033816115228286611e49565b9050838110156115825760405162461bcd60e51b815260206004820152602560248201527f45524332303a2064656372656173656420616c6c6f77616e63652062656c6f77604482015264207a65726f60d81b60648201526084016107e5565b610a7582868684036124d7565b60003361091281858561266f565b60006115a881612443565b600061019960006115b7612c25565b6001600160a01b0316815260208101919091526040016000208054909150806115df57505050565b61019e546040516370a0823160e01b81523060048201526000916001600160a01b0316906370a0823190602401602060405180830381865afa158015611629573d6000803e3d6000fd5b505050506040513d601f19601f8201168201806040525081019061164d9190613b41565b905080156116bb5761019d54604051626de11b60e61b815260048101849052602481018390526001600160a01b0390911690631b7846c090604401600060405180830381600087803b1580156116a257600080fd5b505af11580156116b6573d6000803e3d6000fd5b505050505b808360010160008282546116cf9190613b29565b909155505061019580549060006116e583613b70565b909155505061019554600083815261019a60205260409020546001600160a01b0316837f718b31b13d461b57805228117e5ad834c401532de2bea40d37cf85cbea57e1ff61173161091c565b60405190815260200160405180910390a450505050565b611750611e74565b33600061175c8261117e565b9050610aa5828285611ebd565b611771611e74565b60006101996000611780612c25565b6001600160a01b03168152602081019190915260400160002090506001600382015460ff1660048111156117b6576117b66138a1565b146117d35760405162461bcd60e51b81526004016107e590613bd5565b600061019454116118185760405162461bcd60e51b815260206004820152600f60248201526e0746f74616c536861726573203d203608c1b60448201526064016107e5565b61019e546040516323b872dd60e01b8152336004820181905230602483015260448201859052916001600160a01b0316906323b872dd906064016020604051808303816000875af1158015611871573d6000803e3d6000fd5b505050506040513d601f19601f820116820180604052508101906118959190613bb3565b5061019d548254604051626de11b60e61b81526001600160a01b0390921691631b7846c0916118d1918790600401918252602082015260400190565b600060405180830381600087803b1580156118eb57600080fd5b505af11580156118ff573d6000803e3d6000fd5b50505050600061190e84612a78565b6001600160a01b0383166000908152610197602052604081208054929350839290919061193c908490613b29565b9091555061194b9050816129df565b610194600082825461195d9190613b29565b92505081905550838360010160008282546119789190613b29565b90915550506040518481526001600160a01b03831690600090600080516020613d308339815191529060200160405180910390a382546040518581526001600160a01b038416907f19dacbf83c5de6658e14cbf7bcae5c15eca2eedecf1c66fbca928e4d351bea0f9060200160405180910390a350505050565b600054610100900460ff1615808015611a125750600054600160ff909116105b80611a2c5750303b158015611a2c575060005460ff166001145b611a8f5760405162461bcd60e51b815260206004820152602e60248201527f496e697469616c697a61626c653a20636f6e747261637420697320616c72656160448201526d191e481a5b9a5d1a585b1a5e995960921b60648201526084016107e5565b6000805460ff191660011790558015611ab2576000805461ff0019166101001790555b6001600160a01b038416611aff5760405162461bcd60e51b815260206004820152601460248201527361646d696e2061646472657373206572726f722160601b60448201526064016107e5565b6001600160a01b038316611b4b5760405162461bcd60e51b81526020600482015260136024820152724d5452472061646472657373206572726f722160681b60448201526064016107e5565b6001600160a01b038216611ba15760405162461bcd60e51b815260206004820152601f60248201527f736372697074456e67696e65416464722061646472657373206572726f72210060448201526064016107e5565b611bcc6040518060400160405280600a815260200169073744d54524720312e360b41b815250612e1a565b611c176040518060400160405280600b81526020016a5374616b6564204d54524760a81b8152506040518060400160405280600681526020016573744d54524760d01b815250612e64565b611c1f612e95565b611c2a600085612ec4565b61019d80546001600160a01b038085166001600160a01b03199283161790925561019e8054928616929091169190911790558015611ca2576000805461ff0019169055604051600181527f7f26b83ff96e1f2b6a682f133852f6798a09c465da95921460cefb38474024989060200160405180910390a15b50505050565b6000818152610130602052604081206106e490612ece565b83421115611d105760405162461bcd60e51b815260206004820152601d60248201527f45524332305065726d69743a206578706972656420646561646c696e6500000060448201526064016107e5565b60007f6e71edae12b1b97f4d1f60370fef10105fa2faae0126114a169c64845d6126c9888888611d3f8c612ed8565b6040805160208101969096526001600160a01b0394851690860152929091166060840152608083015260a082015260c0810186905260e0016040516020818303038152906040528051906020012090506000611d9a82612efe565b90506000611daa82878787612f4c565b9050896001600160a01b0316816001600160a01b031614611e0d5760405162461bcd60e51b815260206004820152601e60248201527f45524332305065726d69743a20696e76616c6964207369676e6174757265000060448201526064016107e5565b611e188a8a8a6124d7565b50505050505050505050565b600082815260fe6020526040902060010154611e3f81612443565b610aa58383612946565b6001600160a01b03918216600090815260346020908152604080832093909416825291909152205490565b6101625460ff1615611ebb5760405162461bcd60e51b815260206004820152601060248201526f14185d5cd8589b194e881c185d5cd95960821b60448201526064016107e5565b565b6000611ec883612a78565b6001600160a01b0385166000908152610197602052604090205490915081811015611f405760405162461bcd60e51b815260206004820152602260248201527f45524332303a206275726e20616d6f756e7420657863656564732062616c616e604482015261636560f01b60648201526084016107e5565b6001600160a01b0385166000908152610198602052604090205460ff1615611faa5760405162461bcd60e51b815260206004820152601860248201527f6163636f756e7420697320696e20626c61636b206c697374000000000000000060448201526064016107e5565b6001600160a01b0385166000908152610197602052604090208282039055611fd1826129df565b61019480549190910390556040518481526000906001600160a01b03871690600080516020613d308339815191529060200160405180910390a360005b61019b5461201e90600190613bf6565b8110156122bf576000610199600061019b848154811061204057612040613b5a565b60009182526020808320909101546001600160a01b0316835282810193909352604091820190208151608081018352815481526001820154938101939093526002810154918301919091526003810154606083019060ff1660048111156120a9576120a96138a1565b60048111156120ba576120ba6138a1565b90525090506003816060015160048111156120d7576120d76138a1565b146122ae57806020015186106121d05760208101516120f69087613bf6565b60006020830181905261019d548351604051632b0fcbdf60e11b8152600481019190915260248101929092526001600160a01b038881166044840152929850919091169063561f97be906064016020604051808303816000875af1158015612162573d6000803e3d6000fd5b505050506040513d601f19601f820116820180604052508101906121869190613b41565b5080516020808301516040519081526001600160a01b038a16917fc3ded2be7db21b1af963f267d27750e4a15f174547d88b886b9bda43e2c6fa32910160405180910390a36122ae565b85816020018181516121e29190613bf6565b90525061019d548151604051632b0fcbdf60e11b815260048101919091526000602482018190526001600160a01b0388811660448401529098509091169063561f97be906064016020604051808303816000875af1158015612248573d6000803e3d6000fd5b505050506040513d601f19601f8201168201806040525081019061226c9190613b41565b5080516040518781526001600160a01b038916907fc3ded2be7db21b1af963f267d27750e4a15f174547d88b886b9bda43e2c6fa329060200160405180910390a35b506122b881613b70565b905061200e565b5083156124075761019e546040516370a0823160e01b81523060048201526000916001600160a01b0316906370a0823190602401602060405180830381865afa158015612310573d6000803e3d6000fd5b505050506040513d601f19601f820116820180604052508101906123349190613b41565b61019e549091506001600160a01b031663a9059cbb858784106123575787612359565b835b6040516001600160e01b031960e085901b1681526001600160a01b03909216600483015260248201526044016020604051808303816000875af11580156123a4573d6000803e3d6000fd5b505050506040513d601f19601f820116820180604052508101906123c89190613bb3565b506040518581526000906001600160a01b038816907fc3ded2be7db21b1af963f267d27750e4a15f174547d88b886b9bda43e2c6fa329060200161110c565b5050505050565b60006001600160e01b03198216637965db0b60e01b14806106e457506301ffc9a760e01b6001600160e01b03198316146106e4565b610b718133612f74565b60006001600160a01b0382166124755760405162461bcd60e51b81526004016107e590613b8b565b506001600160a01b03811660009081526101996020526040902080546124d25760405162461bcd60e51b8152602060048201526012602482015271109d58dad95d081b9bdd08195e1a5cdd195960721b60448201526064016107e5565b919050565b6001600160a01b0383166125395760405162461bcd60e51b8152602060048201526024808201527f45524332303a20617070726f76652066726f6d20746865207a65726f206164646044820152637265737360e01b60648201526084016107e5565b6001600160a01b03821661259a5760405162461bcd60e51b815260206004820152602260248201527f45524332303a20617070726f766520746f20746865207a65726f206164647265604482015261737360f01b60648201526084016107e5565b6001600160a01b0383811660008181526034602090815260408083209487168084529482529182902085905590518481527f8c5be1e5ebec7d5bd14f71427d1e84f3dd0314c0f7b2291e5b200ac8c7c3b925910160405180910390a3505050565b60006126078484611e49565b90506000198114611ca257818110156126625760405162461bcd60e51b815260206004820152601d60248201527f45524332303a20696e73756666696369656e7420616c6c6f77616e636500000060448201526064016107e5565b611ca284848484036124d7565b6001600160a01b0383166126d35760405162461bcd60e51b815260206004820152602560248201527f45524332303a207472616e736665722066726f6d20746865207a65726f206164604482015264647265737360d81b60648201526084016107e5565b6001600160a01b0382166127355760405162461bcd60e51b815260206004820152602360248201527f45524332303a207472616e7366657220746f20746865207a65726f206164647260448201526265737360e81b60648201526084016107e5565b6001600160a01b0383166000908152610198602052604090205460ff1615801561277957506001600160a01b0382166000908152610198602052604090205460ff16155b6127c55760405162461bcd60e51b815260206004820152601f60248201527f45524332303a206163636f756e7420697320696e20626c61636b206c6973740060448201526064016107e5565b60006127d082612a78565b6001600160a01b038516600090815261019760205260409020549091508181101561284c5760405162461bcd60e51b815260206004820152602660248201527f45524332303a207472616e7366657220616d6f756e7420657863656564732062604482015265616c616e636560d01b60648201526084016107e5565b6001600160a01b03808616600081815261019760205260408082208686039055928716808252908390208054860190559151600080516020613d308339815191529061289b9087815260200190565b60405180910390a3612407565b6128b28282612fcd565b600082815261013060205260409020610aa59082613053565b600061098b7f8b73c3c69bb8fe3d512ecc4cf759cc79239f7b179b0ffacaa9a75d522b39400f6128fa60655490565b6066546040805160208101859052908101839052606081018290524660808201523060a082015260009060c0016040516020818303038152906040528051906020012090509392505050565b6129508282613068565b600082815261013060205260409020610aa590826130cf565b633b9aca00808204908206631dcd65008110612986576001820191505b50919050565b6129946130e4565b610162805460ff191690557f5db9ee0a495bf2e6ff9c91a7834c1ba4fdd244a5e8aa4e537bd38aeae4b073aa335b6040516001600160a01b03909116815260200160405180910390a1565b633b9aca0081810290810482146124d257600080fd5b600081156b019d971e4fe8401e740000001983900484111517612a1757600080fd5b506b033b2e3c9fd0803ce800000091026b019d971e4fe8401e74000000010490565b600081156b033b2e3c9fd0803ce800000060028404190484111715612a5d57600080fd5b506b033b2e3c9fd0803ce80000009190910260028204010490565b61019e546040516370a0823160e01b815230600482015260009182916001600160a01b03909116906370a0823190602401602060405180830381865afa158015612ac6573d6000803e3d6000fd5b505050506040513d601f19601f82011682018060405250810190612aea9190613b41565b905060005b61019b54811015612bb8576000610199600061019b8481548110612b1557612b15613b5a565b60009182526020808320909101546001600160a01b0316835282810193909352604091820190208151608081018352815481526001820154938101939093526002810154918301919091526003810154606083019060ff166004811115612b7e57612b7e6138a1565b6004811115612b8f57612b8f6138a1565b9052506020810151909150612ba49084613b29565b92505080612bb190613b70565b9050612aef565b50610da5612bd682610d9f61019454876129f590919063ffffffff16565b612969565b612be3611e74565b610162805460ff191660011790557f62e78cea01bee320cd4e420270b5ea74000d11b0c9f74754ebdbfc544b05a2586129c23390565b6000610da5838361312e565b600080610199600061019b600081548110612c4257612c42613b5a565b60009182526020808320909101546001600160a01b0316835282810193909352604091820190208151608081018352815481526001820154938101939093526002810154918301919091526003810154606083019060ff166004811115612cab57612cab6138a1565b6004811115612cbc57612cbc6138a1565b905250905060005b61019b54612cd490600190613bf6565b811015612dc55760006101998161019b612cef856001613b29565b81548110612cff57612cff613b5a565b60009182526020808320909101546001600160a01b0316835282810193909352604091820190208151608081018352815481526001820154938101939093526002810154918301919091526003810154606083019060ff166004811115612d6857612d686138a1565b6004811115612d7957612d796138a1565b81525050905080602001518360200151118015612dab5750600181606001516004811115612da957612da96138a1565b145b15612db4578092505b50612dbe81613b70565b9050612cc4565b50600181606001516004811115612dde57612dde6138a1565b14612dfb5760405162461bcd60e51b81526004016107e590613bd5565b51600090815261019a60205260409020546001600160a01b0316919050565b600054610100900460ff16612e415760405162461bcd60e51b81526004016107e590613c0d565b610b7181604051806040016040528060018152602001603160f81b815250613158565b600054610100900460ff16612e8b5760405162461bcd60e51b81526004016107e590613c0d565b6106bb8282613199565b600054610100900460ff16612ebc5760405162461bcd60e51b81526004016107e590613c0d565b611ebb6131e7565b6106bb82826128a8565b60006106e4825490565b6001600160a01b0381166000908152609960205260409020805460018101825590612986565b60006106e4612f0b6128cb565b8360405161190160f01b6020820152602281018390526042810182905260009060620160405160208183030381529060405280519060200120905092915050565b6000806000612f5d8787878761321b565b91509150612f6a816132df565b5095945050505050565b612f7e8282611221565b6106bb57612f8b8161342d565b612f9683602061343f565b604051602001612fa7929190613c58565b60408051601f198184030181529082905262461bcd60e51b82526107e591600401613851565b612fd78282611221565b6106bb57600082815260fe602090815260408083206001600160a01b03851684529091529020805460ff1916600117905561300f3390565b6001600160a01b0316816001600160a01b0316837f2f8788117e7eff1d82e926ec794901d17c78024a50270940304540a733656f0d60405160405180910390a45050565b6000610da5836001600160a01b0384166135db565b6130728282611221565b156106bb57600082815260fe602090815260408083206001600160a01b0385168085529252808320805460ff1916905551339285917ff6391f5c32d9c69d2a47ea670b442974b53935d1edc7fd64eb21e047a839171b9190a45050565b6000610da5836001600160a01b03841661362a565b6101625460ff16611ebb5760405162461bcd60e51b815260206004820152601460248201527314185d5cd8589b194e881b9bdd081c185d5cd95960621b60448201526064016107e5565b600082600001828154811061314557613145613b5a565b9060005260206000200154905092915050565b600054610100900460ff1661317f5760405162461bcd60e51b81526004016107e590613c0d565b815160209283012081519190920120606591909155606655565b600054610100900460ff166131c05760405162461bcd60e51b81526004016107e590613c0d565b81516131d390603690602085019061371d565b508051610aa590603790602084019061371d565b600054610100900460ff1661320e5760405162461bcd60e51b81526004016107e590613c0d565b610162805460ff19169055565b6000807f7fffffffffffffffffffffffffffffff5d576e7357a4501ddfe92f46681b20a083111561325257506000905060036132d6565b6040805160008082526020820180845289905260ff881692820192909252606081018690526080810185905260019060a0016020604051602081039080840390855afa1580156132a6573d6000803e3d6000fd5b5050604051601f1901519150506001600160a01b0381166132cf576000600192509250506132d6565b9150600090505b94509492505050565b60008160048111156132f3576132f36138a1565b14156132fc5750565b6001816004811115613310576133106138a1565b141561335e5760405162461bcd60e51b815260206004820152601860248201527f45434453413a20696e76616c6964207369676e6174757265000000000000000060448201526064016107e5565b6002816004811115613372576133726138a1565b14156133c05760405162461bcd60e51b815260206004820152601f60248201527f45434453413a20696e76616c6964207369676e6174757265206c656e6774680060448201526064016107e5565b60038160048111156133d4576133d46138a1565b1415610b715760405162461bcd60e51b815260206004820152602260248201527f45434453413a20696e76616c6964207369676e6174757265202773272076616c604482015261756560f01b60648201526084016107e5565b60606106e46001600160a01b03831660145b6060600061344e836002613ccd565b613459906002613b29565b67ffffffffffffffff81111561347157613471613cec565b6040519080825280601f01601f19166020018201604052801561349b576020820181803683370190505b509050600360fc1b816000815181106134b6576134b6613b5a565b60200101906001600160f81b031916908160001a905350600f60fb1b816001815181106134e5576134e5613b5a565b60200101906001600160f81b031916908160001a9053506000613509846002613ccd565b613514906001613b29565b90505b600181111561358c576f181899199a1a9b1b9c1cb0b131b232b360811b85600f166010811061354857613548613b5a565b1a60f81b82828151811061355e5761355e613b5a565b60200101906001600160f81b031916908160001a90535060049490941c9361358581613d02565b9050613517565b508315610da55760405162461bcd60e51b815260206004820181905260248201527f537472696e67733a20686578206c656e67746820696e73756666696369656e7460448201526064016107e5565b6000818152600183016020526040812054613622575081546001818101845560008481526020808220909301849055845484825282860190935260409020919091556106e4565b5060006106e4565b6000818152600183016020526040812054801561371357600061364e600183613bf6565b855490915060009061366290600190613bf6565b90508181146136c757600086600001828154811061368257613682613b5a565b90600052602060002001549050808760000184815481106136a5576136a5613b5a565b6000918252602080832090910192909255918252600188019052604090208390555b85548690806136d8576136d8613d19565b6001900381819060005260206000200160009055905585600101600086815260200190815260200160002060009055600193505050506106e4565b60009150506106e4565b82805461372990613ade565b90600052602060002090601f01602090048101928261374b5760008555613791565b82601f1061376457805160ff1916838001178555613791565b82800160010185558215613791579182015b82811115613791578251825591602001919060010190613776565b5061379d9291506137a1565b5090565b5b8082111561379d57600081556001016137a2565b6001600160a01b0381168114610b7157600080fd5b600080604083850312156137de57600080fd5b8235915060208301356137f0816137b6565b809150509250929050565b60006020828403121561380d57600080fd5b81356001600160e01b031981168114610da557600080fd5b60005b83811015613840578181015183820152602001613828565b83811115611ca25750506000910152565b6020815260008251806020840152613870816040850160208701613825565b601f01601f19169190910160400192915050565b60006020828403121561389657600080fd5b8135610da5816137b6565b634e487b7160e01b600052602160045260246000fd5b848152602081018490526040810183905260808101600583106138ea57634e487b7160e01b600052602160045260246000fd5b82606083015295945050505050565b6000806040838503121561390c57600080fd5b8235613917816137b6565b946020939093013593505050565b60008060006060848603121561393a57600080fd5b8335613945816137b6565b92506020840135613955816137b6565b929592945050506040919091013590565b60006020828403121561397857600080fd5b5035919050565b6020808252825182820181905260009190848201906040850190845b818110156139c05783516001600160a01b03168352928401929184019160010161399b565b50909695505050505050565b600080604083850312156139df57600080fd5b50508035926020909101359150565b60008060408385031215613a0157600080fd5b8235613a0c816137b6565b915060208301356137f0816137b6565b600080600060608486031215613a3157600080fd5b8335613a3c816137b6565b92506020840135613a4c816137b6565b91506040840135613a5c816137b6565b809150509250925092565b600080600080600080600060e0888a031215613a8257600080fd5b8735613a8d816137b6565b96506020880135613a9d816137b6565b95506040880135945060608801359350608088013560ff81168114613ac157600080fd5b9699959850939692959460a0840135945060c09093013592915050565b600181811c90821680613af257607f821691505b6020821081141561298657634e487b7160e01b600052602260045260246000fd5b634e487b7160e01b600052601160045260246000fd5b60008219821115613b3c57613b3c613b13565b500190565b600060208284031215613b5357600080fd5b5051919050565b634e487b7160e01b600052603260045260246000fd5b6000600019821415613b8457613b84613b13565b5060010190565b6020808252600e908201526d61646472657373206572726f722160901b604082015260600190565b600060208284031215613bc557600080fd5b81518015158114610da557600080fd5b602080825260079082015266636c6f7365642160c81b604082015260600190565b600082821015613c0857613c08613b13565b500390565b6020808252602b908201527f496e697469616c697a61626c653a20636f6e7472616374206973206e6f74206960408201526a6e697469616c697a696e6760a81b606082015260800190565b7f416363657373436f6e74726f6c3a206163636f756e7420000000000000000000815260008351613c90816017850160208801613825565b7001034b99036b4b9b9b4b733903937b6329607d1b6017918401918201528351613cc1816028840160208801613825565b01602801949350505050565b6000816000190483118215151615613ce757613ce7613b13565b500290565b634e487b7160e01b600052604160045260246000fd5b600081613d1157613d11613b13565b506000190190565b634e487b7160e01b600052603160045260246000fdfeddf252ad1be2c89b69c2b068fc378daa952ba7f163c4a11628f55a4df523b3efa2646970667358221220469bf809e0c1036ca902b499700debe7accf969cedb0f78268d25fd382053b5764736f6c634300080b0033",
  "linkReferences": {},
  "deployedLinkReferences": {}
}