{
  "_format": "hh-sol-artifact-1",
  "contractName": "MeterNativeV3",
  "sourceName": "contracts/MeterNativeV3.sol",
  "abi": [
    {
      "inputs": [],
      "stateMutability": "nonpayable",
      "type": "constructor"
    },
    {
      "anonymous": false,
      "inputs": [
        {
          "indexed": false,
          "internalType": "address",
          "name": "_address",
          "type": "address"
        },
        {
          "indexed": false,
          "internalType": "uint256",
          "name": "_amount",
          "type": "uint256"
        },
        {
          "indexed": false,
          "internalType": "string",
          "name": "_method",
          "type": "string"
        }
      ],
      "name": "MeterTrackerEvent",
      "type": "event"
    },
    {
      "inputs": [
        {
          "internalType": "address",
          "name": "owner",
          "type": "address"
        },
        {
          "internalType": "bytes32",
          "name": "bucketID",
          "type": "bytes32"
        }
      ],
      "name": "native_bucket_close",
      "outputs": [
        {
          "internalType": "string",
          "name": "",
          "type": "string"
        }
      ],
      "stateMutability": "pure",
      "type": "function"
    },
    {
      "inputs": [
        {
          "internalType": "address",
          "name": "owner",
          "type": "address"
        },
        {
          "internalType": "bytes32",
          "name": "bucketID",
          "type": "bytes32"
        },
        {
          "internalType": "uint256",
          "name": "amount",
          "type": "uint256"
        }
      ],
      "name": "native_bucket_deposit",
      "outputs": [
        {
          "internalType": "string",
          "name": "",
          "type": "string"
        }
      ],
      "stateMutability": "pure",
      "type": "function"
    },
    {
      "inputs": [
        {
          "internalType": "address",
          "name": "owner",
          "type": "address"
        },
        {
          "internalType": "address",
          "name": "candidateAddr",
          "type": "address"
        },
        {
          "internalType": "uint256",
          "name": "amount",
          "type": "uint256"
        }
      ],
      "name": "native_bucket_open",
      "outputs": [
        {
          "internalType": "bytes32",
          "name": "",
          "type": "bytes32"
        },
        {
          "internalType": "string",
          "name": "",
          "type": "string"
        }
      ],
      "stateMutability": "pure",
      "type": "function"
    },
    {
      "inputs": [
        {
          "internalType": "address",
          "name": "owner",
          "type": "address"
        },
        {
          "internalType": "bytes32",
          "name": "bucketID",
          "type": "bytes32"
        },
        {
          "internalType": "uint256",
          "name": "amount",
          "type": "uint256"
        },
        {
          "internalType": "address",
          "name": "recipient",
          "type": "address"
        }
      ],
      "name": "native_bucket_withdraw",
      "outputs": [
        {
          "internalType": "bytes32",
          "name": "",
          "type": "bytes32"
        },
        {
          "internalType": "string",
          "name": "",
          "type": "string"
        }
      ],
      "stateMutability": "pure",
      "type": "function"
    },
    {
      "inputs": [
        {
          "internalType": "address",
          "name": "addr",
          "type": "address"
        }
      ],
      "name": "native_master",
      "outputs": [
        {
          "internalType": "address",
          "name": "",
          "type": "address"
        }
      ],
      "stateMutability": "pure",
      "type": "function"
    },
    {
      "inputs": [
        {
          "internalType": "address",
          "name": "addr",
          "type": "address"
        },
        {
          "internalType": "uint256",
          "name": "amount",
          "type": "uint256"
        }
      ],
      "name": "native_mtr_add",
      "outputs": [],
      "stateMutability": "nonpayable",
      "type": "function"
    },
    {
      "inputs": [
        {
          "internalType": "address",
          "name": "addr",
          "type": "address"
        }
      ],
      "name": "native_mtr_get",
      "outputs": [
        {
          "internalType": "uint256",
          "name": "",
          "type": "uint256"
        }
      ],
      "stateMutability": "pure",
      "type": "function"
    },
    {
      "inputs": [
        {
          "internalType": "address",
          "name": "addr",
          "type": "address"
        },
        {
          "internalType": "uint256",
          "name": "amount",
          "type": "uint256"
        }
      ],
      "name": "native_mtr_locked_add",
      "outputs": [],
      "stateMutability": "nonpayable",
      "type": "function"
    },
    {
      "inputs": [
        {
          "internalType": "address",
          "name": "addr",
          "type": "address"
        }
      ],
      "name": "native_mtr_locked_get",
      "outputs": [
        {
          "internalType": "uint256",
          "name": "",
          "type": "uint256"
        }
      ],
      "stateMutability": "pure",
      "type": "function"
    },
    {
      "inputs": [
        {
          "internalType": "address",
          "name": "addr",
          "type": "address"
        },
        {
          "internalType": "uint256",
          "name": "amount",
          "type": "uint256"
        }
      ],
      "name": "native_mtr_locked_sub",
      "outputs": [
        {
          "internalType": "bool",
          "name": "",
          "type": "bool"
        }
      ],
      "stateMutability": "nonpayable",
      "type": "function"
    },
    {
      "inputs": [
        {
          "internalType": "address",
          "name": "addr",
          "type": "address"
        },
        {
          "internalType": "uint256",
          "name": "amount",
          "type": "uint256"
        }
      ],
      "name": "native_mtr_sub",
      "outputs": [
        {
          "internalType": "bool",
          "name": "",
          "type": "bool"
        }
      ],
      "stateMutability": "nonpayable",
      "type": "function"
    },
    {
      "inputs": [],
      "name": "native_mtr_totalBurned",
      "outputs": [
        {
          "internalType": "uint256",
          "name": "",
          "type": "uint256"
        }
      ],
      "stateMutability": "pure",
      "type": "function"
    },
    {
      "inputs": [],
      "name": "native_mtr_totalSupply",
      "outputs": [
        {
          "internalType": "uint256",
          "name": "",
          "type": "uint256"
        }
      ],
      "stateMutability": "pure",
      "type": "function"
    },
    {
      "inputs": [
        {
          "internalType": "address",
          "name": "addr",
          "type": "address"
        },
        {
          "internalType": "uint256",
          "name": "amount",
          "type": "uint256"
        }
      ],
      "name": "native_mtrg_add",
      "outputs": [],
      "stateMutability": "nonpayable",
      "type": "function"
    },
    {
      "inputs": [
        {
          "internalType": "address",
          "name": "addr",
          "type": "address"
        }
      ],
      "name": "native_mtrg_get",
      "outputs": [
        {
          "internalType": "uint256",
          "name": "",
          "type": "uint256"
        }
      ],
      "stateMutability": "pure",
      "type": "function"
    },
    {
      "inputs": [
        {
          "internalType": "address",
          "name": "addr",
          "type": "address"
        },
        {
          "internalType": "uint256",
          "name": "amount",
          "type": "uint256"
        }
      ],
      "name": "native_mtrg_locked_add",
      "outputs": [],
      "stateMutability": "nonpayable",
      "type": "function"
    },
    {
      "inputs": [
        {
          "internalType": "address",
          "name": "addr",
          "type": "address"
        }
      ],
      "name": "native_mtrg_locked_get",
      "outputs": [
        {
          "internalType": "uint256",
          "name": "",
          "type": "uint256"
        }
      ],
      "stateMutability": "pure",
      "type": "function"
    },
    {
      "inputs": [
        {
          "internalType": "address",
          "name": "addr",
          "type": "address"
        },
        {
          "internalType": "uint256",
          "name": "amount",
          "type": "uint256"
        }
      ],
      "name": "native_mtrg_locked_sub",
      "outputs": [
        {
          "internalType": "bool",
          "name": "",
          "type": "bool"
        }
      ],
      "stateMutability": "nonpayable",
      "type": "function"
    },
    {
      "inputs": [
        {
          "internalType": "address",
          "name": "addr",
          "type": "address"
        },
        {
          "internalType": "uint256",
          "name": "amount",
          "type": "uint256"
        }
      ],
      "name": "native_mtrg_sub",
      "outputs": [
        {
          "internalType": "bool",
          "name": "",
          "type": "bool"
        }
      ],
      "stateMutability": "nonpayable",
      "type": "function"
    },
    {
      "inputs": [],
      "name": "native_mtrg_totalBurned",
      "outputs": [
        {
          "internalType": "uint256",
          "name": "",
          "type": "uint256"
        }
      ],
      "stateMutability": "pure",
      "type": "function"
    },
    {
      "inputs": [],
      "name": "native_mtrg_totalSupply",
      "outputs": [
        {
          "internalType": "uint256",
          "name": "",
          "type": "uint256"
        }
      ],
      "stateMutability": "pure",
      "type": "function"
    }
  ],
  "bytecode": "0x608060405234801561001057600080fd5b506107ac806100206000396000f3fe608060405234801561001057600080fd5b50600436106101375760003560e01c806398c6fb8d116100b8578063cc2306411161007c578063cc23064114610268578063ccc7df9d14610189578063df77a6d41461027b578063e986c7441461028e578063eaa93f6b14610189578063f14645f5146102a457600080fd5b806398c6fb8d1461013c578063a236e00014610189578063a30af2701461013c578063b547784b14610242578063baa289021461025557600080fd5b806330daa282116100ff57806330daa2821461013c5780634c586ff8146101c857806358aeee2a146101ec578063740b155f14610214578063981efa461461022757600080fd5b80630511d9031461013c578063059950e914610163578063076e361d1461018957806320ae6501146101905780632bbe467e146101a5575b600080fd5b61015061014a3660046105d4565b50600090565b6040519081526020015b60405180910390f35b61017161014a3660046105d4565b6040516001600160a01b03909116815260200161015a565b6000610150565b6101a361019e3660046105f6565b6102b7565b005b6101b86101b33660046105f6565b61031d565b604051901515815260200161015a565b6101df6101d6366004610620565b60609392505050565b60405161015a91906106a0565b6102066101fa3660046106b3565b60006060935093915050565b60405161015a9291906106ef565b6101a36102223660046105f6565b61038a565b610206610235366004610710565b6000606094509492505050565b6101a36102503660046105f6565b6103e1565b6101b86102633660046105f6565b610440565b6101b86102763660046105f6565b6104a2565b6101a36102893660046105f6565b610505565b6101df61029c3660046105f6565b606092915050565b6101b86102b23660046105f6565b61055d565b604080516001600160a01b0384168152602081018390526060918101829052601591810191909152741b985d1a5d9957db5d1c97db1bd8dad95917d85919605a1b60808201526000805160206107578339815191529060a0015b60405180910390a15050565b600060008051602061075783398151915283836040516103799291906001600160a01b039290921682526020820152606060408201819052600f908201526e3730ba34bb32afb6ba3933afb9bab160891b608082015260a00190565b60405180910390a150600192915050565b604080516001600160a01b0384168152602081018390526060918101829052600e918101919091526d1b985d1a5d9957db5d1c97d8591960921b60808201526000805160206107578339815191529060a001610311565b604080516001600160a01b0384168152602081018390526060918101829052601691810191909152751b985d1a5d9957db5d1c99d7db1bd8dad95917d8591960521b60808201526000805160206107578339815191529060a001610311565b600060008051602061075783398151915283836040516103799291906001600160a01b039290921682526020820152606060408201819052601590820152743730ba34bb32afb6ba392fb637b1b5b2b22fb9bab160591b608082015260a00190565b600060008051602061075783398151915283836040516103799291906001600160a01b039290921682526020820152606060408201819052601690820152753730ba34bb32afb6ba3933afb637b1b5b2b22fb9bab160511b608082015260a00190565b604080516001600160a01b0384168152602081018390526060918101829052600f918101919091526e1b985d1a5d9957db5d1c99d7d85919608a1b60808201526000805160206107578339815191529060a001610311565b600060008051602061075783398151915283836040516103799291906001600160a01b039290921682526020820152606060408201819052600e908201526d3730ba34bb32afb6ba392fb9bab160911b608082015260a00190565b80356001600160a01b03811681146105cf57600080fd5b919050565b6000602082840312156105e657600080fd5b6105ef826105b8565b9392505050565b6000806040838503121561060957600080fd5b610612836105b8565b946020939093013593505050565b60008060006060848603121561063557600080fd5b61063e846105b8565b95602085013595506040909401359392505050565b6000815180845260005b818110156106795760208185018101518683018201520161065d565b8181111561068b576000602083870101525b50601f01601f19169290920160200192915050565b6020815260006105ef6020830184610653565b6000806000606084860312156106c857600080fd5b6106d1846105b8565b92506106df602085016105b8565b9150604084013590509250925092565b8281526040602082015260006107086040830184610653565b949350505050565b6000806000806080858703121561072657600080fd5b61072f856105b8565b9350602085013592506040850135915061074b606086016105b8565b90509295919450925056fee733fdb97bd02ae887462b30f938653e7a701cf0ec92fc28d4e57d462961f214a26469706673582212206be0cd2e138481c50430ef5d0627c444e9257083a3dc593e48f5ac789cedf2b164736f6c634300080b0033",
  "linkReferences": {},
  "deployedLinkReferences": {}
}