{
  "_format": "hh-sol-artifact-1",
  "contractName": "MeterNativeV3",
  "sourceName": "contracts/MeterNativeV3.sol",
  "abi": [
    {
      "inputs": [],
      "stateMutability": "payable",
      "type": "constructor"
    },
    {
      "anonymous": false,
      "inputs": [
        {
          "indexed": false,
          "internalType": "address",
          "name": "_address",
          "type": "address"
        },
        {
          "indexed": false,
          "internalType": "uint256",
          "name": "_amount",
          "type": "uint256"
        },
        {
          "indexed": false,
          "internalType": "string",
          "name": "_method",
          "type": "string"
        }
      ],
      "name": "MeterTrackerEvent",
      "type": "event"
    },
    {
      "inputs": [
        {
          "internalType": "address",
          "name": "owner",
          "type": "address"
        },
        {
          "internalType": "bytes32",
          "name": "bucketID",
          "type": "bytes32"
        }
      ],
      "name": "native_bucket_close",
      "outputs": [
        {
          "internalType": "string",
          "name": "",
          "type": "string"
        }
      ],
      "stateMutability": "nonpayable",
      "type": "function"
    },
    {
      "inputs": [
        {
          "internalType": "address",
          "name": "owner",
          "type": "address"
        },
        {
          "internalType": "bytes32",
          "name": "bucketID",
          "type": "bytes32"
        },
        {
          "internalType": "uint256",
          "name": "amount",
          "type": "uint256"
        }
      ],
      "name": "native_bucket_deposit",
      "outputs": [
        {
          "internalType": "string",
          "name": "",
          "type": "string"
        }
      ],
      "stateMutability": "nonpayable",
      "type": "function"
    },
    {
      "inputs": [
        {
          "internalType": "address",
          "name": "owner",
          "type": "address"
        },
        {
          "internalType": "address",
          "name": "candidateAddr",
          "type": "address"
        },
        {
          "internalType": "uint256",
          "name": "amount",
          "type": "uint256"
        }
      ],
      "name": "native_bucket_open",
      "outputs": [
        {
          "internalType": "bytes32",
          "name": "",
          "type": "bytes32"
        },
        {
          "internalType": "string",
          "name": "",
          "type": "string"
        }
      ],
      "stateMutability": "nonpayable",
      "type": "function"
    },
    {
      "inputs": [
        {
          "internalType": "address",
          "name": "owner",
          "type": "address"
        },
        {
          "internalType": "bytes32",
          "name": "bucketID",
          "type": "bytes32"
        },
        {
          "internalType": "uint256",
          "name": "amount",
          "type": "uint256"
        },
        {
          "internalType": "address",
          "name": "recipient",
          "type": "address"
        }
      ],
      "name": "native_bucket_withdraw",
      "outputs": [
        {
          "internalType": "bytes32",
          "name": "",
          "type": "bytes32"
        },
        {
          "internalType": "string",
          "name": "",
          "type": "string"
        }
      ],
      "stateMutability": "nonpayable",
      "type": "function"
    },
    {
      "inputs": [
        {
          "internalType": "address",
          "name": "addr",
          "type": "address"
        }
      ],
      "name": "native_master",
      "outputs": [
        {
          "internalType": "address",
          "name": "",
          "type": "address"
        }
      ],
      "stateMutability": "view",
      "type": "function"
    },
    {
      "inputs": [
        {
          "internalType": "address",
          "name": "addr",
          "type": "address"
        },
        {
          "internalType": "uint256",
          "name": "amount",
          "type": "uint256"
        }
      ],
      "name": "native_mtr_add",
      "outputs": [],
      "stateMutability": "nonpayable",
      "type": "function"
    },
    {
      "inputs": [
        {
          "internalType": "address",
          "name": "addr",
          "type": "address"
        }
      ],
      "name": "native_mtr_get",
      "outputs": [
        {
          "internalType": "uint256",
          "name": "",
          "type": "uint256"
        }
      ],
      "stateMutability": "view",
      "type": "function"
    },
    {
      "inputs": [
        {
          "internalType": "address",
          "name": "addr",
          "type": "address"
        },
        {
          "internalType": "uint256",
          "name": "amount",
          "type": "uint256"
        }
      ],
      "name": "native_mtr_locked_add",
      "outputs": [],
      "stateMutability": "nonpayable",
      "type": "function"
    },
    {
      "inputs": [
        {
          "internalType": "address",
          "name": "addr",
          "type": "address"
        }
      ],
      "name": "native_mtr_locked_get",
      "outputs": [
        {
          "internalType": "uint256",
          "name": "",
          "type": "uint256"
        }
      ],
      "stateMutability": "view",
      "type": "function"
    },
    {
      "inputs": [
        {
          "internalType": "address",
          "name": "addr",
          "type": "address"
        },
        {
          "internalType": "uint256",
          "name": "amount",
          "type": "uint256"
        }
      ],
      "name": "native_mtr_locked_sub",
      "outputs": [
        {
          "internalType": "bool",
          "name": "",
          "type": "bool"
        }
      ],
      "stateMutability": "nonpayable",
      "type": "function"
    },
    {
      "inputs": [
        {
          "internalType": "address",
          "name": "addr",
          "type": "address"
        },
        {
          "internalType": "uint256",
          "name": "amount",
          "type": "uint256"
        }
      ],
      "name": "native_mtr_sub",
      "outputs": [
        {
          "internalType": "bool",
          "name": "",
          "type": "bool"
        }
      ],
      "stateMutability": "nonpayable",
      "type": "function"
    },
    {
      "inputs": [],
      "name": "native_mtr_totalBurned",
      "outputs": [
        {
          "internalType": "uint256",
          "name": "",
          "type": "uint256"
        }
      ],
      "stateMutability": "view",
      "type": "function"
    },
    {
      "inputs": [],
      "name": "native_mtr_totalSupply",
      "outputs": [
        {
          "internalType": "uint256",
          "name": "",
          "type": "uint256"
        }
      ],
      "stateMutability": "view",
      "type": "function"
    },
    {
      "inputs": [
        {
          "internalType": "address",
          "name": "addr",
          "type": "address"
        },
        {
          "internalType": "uint256",
          "name": "amount",
          "type": "uint256"
        }
      ],
      "name": "native_mtrg_add",
      "outputs": [],
      "stateMutability": "nonpayable",
      "type": "function"
    },
    {
      "inputs": [
        {
          "internalType": "address",
          "name": "addr",
          "type": "address"
        }
      ],
      "name": "native_mtrg_get",
      "outputs": [
        {
          "internalType": "uint256",
          "name": "",
          "type": "uint256"
        }
      ],
      "stateMutability": "view",
      "type": "function"
    },
    {
      "inputs": [
        {
          "internalType": "address",
          "name": "addr",
          "type": "address"
        },
        {
          "internalType": "uint256",
          "name": "amount",
          "type": "uint256"
        }
      ],
      "name": "native_mtrg_locked_add",
      "outputs": [],
      "stateMutability": "nonpayable",
      "type": "function"
    },
    {
      "inputs": [
        {
          "internalType": "address",
          "name": "addr",
          "type": "address"
        }
      ],
      "name": "native_mtrg_locked_get",
      "outputs": [
        {
          "internalType": "uint256",
          "name": "",
          "type": "uint256"
        }
      ],
      "stateMutability": "view",
      "type": "function"
    },
    {
      "inputs": [
        {
          "internalType": "address",
          "name": "addr",
          "type": "address"
        },
        {
          "internalType": "uint256",
          "name": "amount",
          "type": "uint256"
        }
      ],
      "name": "native_mtrg_locked_sub",
      "outputs": [
        {
          "internalType": "bool",
          "name": "",
          "type": "bool"
        }
      ],
      "stateMutability": "nonpayable",
      "type": "function"
    },
    {
      "inputs": [
        {
          "internalType": "address",
          "name": "addr",
          "type": "address"
        },
        {
          "internalType": "uint256",
          "name": "amount",
          "type": "uint256"
        }
      ],
      "name": "native_mtrg_sub",
      "outputs": [
        {
          "internalType": "bool",
          "name": "",
          "type": "bool"
        }
      ],
      "stateMutability": "nonpayable",
      "type": "function"
    },
    {
      "inputs": [],
      "name": "native_mtrg_totalBurned",
      "outputs": [
        {
          "internalType": "uint256",
          "name": "",
          "type": "uint256"
        }
      ],
      "stateMutability": "view",
      "type": "function"
    },
    {
      "inputs": [],
      "name": "native_mtrg_totalSupply",
      "outputs": [
        {
          "internalType": "uint256",
          "name": "",
          "type": "uint256"
        }
      ],
      "stateMutability": "view",
      "type": "function"
    }
  ],
  "bytecode": "0x60806040526107de806100136000396000f3fe608060405234801561001057600080fd5b50600436106101375760003560e01c806398c6fb8d116100b8578063cc2306411161007c578063cc2306411461028e578063ccc7df9d14610189578063df77a6d4146102a1578063e986c744146102b4578063eaa93f6b14610189578063f14645f5146102d657600080fd5b806398c6fb8d1461013c578063a236e00014610189578063a30af2701461013c578063b547784b14610268578063baa289021461027b57600080fd5b806330daa282116100ff57806330daa2821461013c5780634c586ff8146101c857806358aeee2a146101f9578063740b155f1461022d578063981efa461461024057600080fd5b80630511d9031461013c578063059950e914610163578063076e361d1461018957806320ae6501146101905780632bbe467e146101a5575b600080fd5b61015061014a366004610606565b50600090565b6040519081526020015b60405180910390f35b61017161014a366004610606565b6040516001600160a01b03909116815260200161015a565b6000610150565b6101a361019e366004610628565b6102e9565b005b6101b86101b3366004610628565b61034f565b604051901515815260200161015a565b6101ec6101d6366004610652565b6040805160208101909152600081529392505050565b60405161015a91906106d2565b61021f6102073660046106e5565b50506040805160208101909152600080825292909150565b60405161015a929190610721565b6101a361023b366004610628565b6103bc565b61021f61024e366004610742565b604080516020810190915260008082529094509492505050565b6101a3610276366004610628565b610413565b6101b8610289366004610628565b610472565b6101b861029c366004610628565b6104d4565b6101a36102af366004610628565b610537565b6101ec6102c2366004610628565b505060408051602081019091526000815290565b6101b86102e4366004610628565b61058f565b604080516001600160a01b0384168152602081018390526060918101829052601591810191909152741b985d1a5d9957db5d1c97db1bd8dad95917d85919605a1b60808201526000805160206107898339815191529060a0015b60405180910390a15050565b600060008051602061078983398151915283836040516103ab9291906001600160a01b039290921682526020820152606060408201819052600f908201526e3730ba34bb32afb6ba3933afb9bab160891b608082015260a00190565b60405180910390a150600192915050565b604080516001600160a01b0384168152602081018390526060918101829052600e918101919091526d1b985d1a5d9957db5d1c97d8591960921b60808201526000805160206107898339815191529060a001610343565b604080516001600160a01b0384168152602081018390526060918101829052601691810191909152751b985d1a5d9957db5d1c99d7db1bd8dad95917d8591960521b60808201526000805160206107898339815191529060a001610343565b600060008051602061078983398151915283836040516103ab9291906001600160a01b039290921682526020820152606060408201819052601590820152743730ba34bb32afb6ba392fb637b1b5b2b22fb9bab160591b608082015260a00190565b600060008051602061078983398151915283836040516103ab9291906001600160a01b039290921682526020820152606060408201819052601690820152753730ba34bb32afb6ba3933afb637b1b5b2b22fb9bab160511b608082015260a00190565b604080516001600160a01b0384168152602081018390526060918101829052600f918101919091526e1b985d1a5d9957db5d1c99d7d85919608a1b60808201526000805160206107898339815191529060a001610343565b600060008051602061078983398151915283836040516103ab9291906001600160a01b039290921682526020820152606060408201819052600e908201526d3730ba34bb32afb6ba392fb9bab160911b608082015260a00190565b80356001600160a01b038116811461060157600080fd5b919050565b60006020828403121561061857600080fd5b610621826105ea565b9392505050565b6000806040838503121561063b57600080fd5b610644836105ea565b946020939093013593505050565b60008060006060848603121561066757600080fd5b610670846105ea565b95602085013595506040909401359392505050565b6000815180845260005b818110156106ab5760208185018101518683018201520161068f565b818111156106bd576000602083870101525b50601f01601f19169290920160200192915050565b6020815260006106216020830184610685565b6000806000606084860312156106fa57600080fd5b610703846105ea565b9250610711602085016105ea565b9150604084013590509250925092565b82815260406020820152600061073a6040830184610685565b949350505050565b6000806000806080858703121561075857600080fd5b610761856105ea565b9350602085013592506040850135915061077d606086016105ea565b90509295919450925056fee733fdb97bd02ae887462b30f938653e7a701cf0ec92fc28d4e57d462961f214a2646970667358221220da20234d48c6409056cdcf94abf492cbc416277920c91601b57ec6a80ee26f0e64736f6c634300080b0033",
  "linkReferences": {},
  "deployedLinkReferences": {}
}