{
  "_format": "hh-sol-artifact-1",
  "contractName": "MockMTRG",
  "sourceName": "contracts/test/MockMTRG.sol",
  "abi": [
    {
      "inputs": [
        {
          "internalType": "uint256",
          "name": "initialSupply",
          "type": "uint256"
        }
      ],
      "stateMutability": "nonpayable",
      "type": "constructor"
    },
    {
      "anonymous": false,
      "inputs": [
        {
          "indexed": true,
          "internalType": "address",
          "name": "owner",
          "type": "address"
        },
        {
          "indexed": true,
          "internalType": "address",
          "name": "spender",
          "type": "address"
        },
        {
          "indexed": false,
          "internalType": "uint256",
          "name": "value",
          "type": "uint256"
        }
      ],
      "name": "Approval",
      "type": "event"
    },
    {
      "anonymous": false,
      "inputs": [
        {
          "indexed": true,
          "internalType": "address",
          "name": "from",
          "type": "address"
        },
        {
          "indexed": true,
          "internalType": "address",
          "name": "to",
          "type": "address"
        },
        {
          "indexed": false,
          "internalType": "uint256",
          "name": "value",
          "type": "uint256"
        }
      ],
      "name": "Transfer",
      "type": "event"
    },
    {
      "inputs": [
        {
          "internalType": "address",
          "name": "",
          "type": "address"
        },
        {
          "internalType": "address",
          "name": "",
          "type": "address"
        }
      ],
      "name": "allowance",
      "outputs": [
        {
          "internalType": "uint256",
          "name": "",
          "type": "uint256"
        }
      ],
      "stateMutability": "view",
      "type": "function"
    },
    {
      "inputs": [
        {
          "internalType": "address",
          "name": "_spender",
          "type": "address"
        },
        {
          "internalType": "uint256",
          "name": "_value",
          "type": "uint256"
        }
      ],
      "name": "approve",
      "outputs": [
        {
          "internalType": "bool",
          "name": "",
          "type": "bool"
        }
      ],
      "stateMutability": "nonpayable",
      "type": "function"
    },
    {
      "inputs": [
        {
          "internalType": "address",
          "name": "",
          "type": "address"
        }
      ],
      "name": "balanceOf",
      "outputs": [
        {
          "internalType": "uint256",
          "name": "",
          "type": "uint256"
        }
      ],
      "stateMutability": "view",
      "type": "function"
    },
    {
      "inputs": [],
      "name": "decimals",
      "outputs": [
        {
          "internalType": "uint8",
          "name": "",
          "type": "uint8"
        }
      ],
      "stateMutability": "pure",
      "type": "function"
    },
    {
      "inputs": [
        {
          "internalType": "address",
          "name": "account",
          "type": "address"
        },
        {
          "internalType": "uint256",
          "name": "amount",
          "type": "uint256"
        }
      ],
      "name": "mint",
      "outputs": [
        {
          "internalType": "bool",
          "name": "",
          "type": "bool"
        }
      ],
      "stateMutability": "nonpayable",
      "type": "function"
    },
    {
      "inputs": [
        {
          "internalType": "address",
          "name": "",
          "type": "address"
        }
      ],
      "name": "minter",
      "outputs": [
        {
          "internalType": "bool",
          "name": "",
          "type": "bool"
        }
      ],
      "stateMutability": "view",
      "type": "function"
    },
    {
      "inputs": [
        {
          "internalType": "address",
          "name": "_from",
          "type": "address"
        },
        {
          "internalType": "address",
          "name": "_to",
          "type": "address"
        },
        {
          "internalType": "uint256",
          "name": "_value",
          "type": "uint256"
        }
      ],
      "name": "move",
      "outputs": [
        {
          "internalType": "bool",
          "name": "",
          "type": "bool"
        }
      ],
      "stateMutability": "nonpayable",
      "type": "function"
    },
    {
      "inputs": [],
      "name": "name",
      "outputs": [
        {
          "internalType": "string",
          "name": "",
          "type": "string"
        }
      ],
      "stateMutability": "pure",
      "type": "function"
    },
    {
      "inputs": [
        {
          "internalType": "address",
          "name": "_minter",
          "type": "address"
        },
        {
          "internalType": "bool",
          "name": "isMinter",
          "type": "bool"
        }
      ],
      "name": "setMinter",
      "outputs": [],
      "stateMutability": "nonpayable",
      "type": "function"
    },
    {
      "inputs": [],
      "name": "symbol",
      "outputs": [
        {
          "internalType": "string",
          "name": "",
          "type": "string"
        }
      ],
      "stateMutability": "pure",
      "type": "function"
    },
    {
      "inputs": [],
      "name": "totalSupply",
      "outputs": [
        {
          "internalType": "uint256",
          "name": "",
          "type": "uint256"
        }
      ],
      "stateMutability": "view",
      "type": "function"
    },
    {
      "inputs": [
        {
          "internalType": "address",
          "name": "_to",
          "type": "address"
        },
        {
          "internalType": "uint256",
          "name": "_value",
          "type": "uint256"
        }
      ],
      "name": "transfer",
      "outputs": [
        {
          "internalType": "bool",
          "name": "",
          "type": "bool"
        }
      ],
      "stateMutability": "nonpayable",
      "type": "function"
    },
    {
      "inputs": [
        {
          "internalType": "address",
          "name": "_from",
          "type": "address"
        },
        {
          "internalType": "address",
          "name": "_to",
          "type": "address"
        },
        {
          "internalType": "uint256",
          "name": "_value",
          "type": "uint256"
        }
      ],
      "name": "transferFrom",
      "outputs": [
        {
          "internalType": "bool",
          "name": "",
          "type": "bool"
        }
      ],
      "stateMutability": "nonpayable",
      "type": "function"
    }
  ],
  "bytecode": "0x60806040526000805534801561001457600080fd5b50604051610898380380610898833981016040819052610033916100ef565b336000818152600360205260409020805460ff19166001179055610057908261005e565b505061012e565b6001600160a01b038216600090815260016020526040812080548391908390610088908490610108565b92505081905550816000808282546100a09190610108565b90915550506040518281526001600160a01b038416906000907fddf252ad1be2c89b69c2b068fc378daa952ba7f163c4a11628f55a4df523b3ef9060200160405180910390a350600192915050565b60006020828403121561010157600080fd5b5051919050565b6000821982111561012957634e487b7160e01b600052601160045260246000fd5b500190565b61075b8061013d6000396000f3fe608060405234801561001057600080fd5b50600436106100cf5760003560e01c806340c10f191161008c578063a9059cbb11610066578063a9059cbb146101dc578063bb35783b146101ef578063cf456ae714610202578063dd62ed3e1461021757600080fd5b806340c10f191461018957806370a082311461019c57806395d89b41146101bc57600080fd5b806306fdde03146100d4578063095ea7b31461010a57806318160ddd1461012d57806323b872dd14610144578063313ce567146101575780633dd08c3814610166575b600080fd5b60408051808201909152600881526726b2ba32b923b7bb60c11b60208201525b604051610101919061055e565b60405180910390f35b61011d6101183660046105cf565b610242565b6040519015158152602001610101565b61013660005481565b604051908152602001610101565b61011d6101523660046105f9565b6102ae565b60405160128152602001610101565b61011d610174366004610635565b60036020526000908152604090205460ff1681565b61011d6101973660046105cf565b610328565b6101366101aa366004610635565b60016020526000908152604090205481565b6040805180820190915260048152634d54524760e01b60208201526100f4565b61011d6101ea3660046105cf565b610374565b61011d6101fd3660046105f9565b610388565b610215610210366004610650565b6103ca565b005b61013661022536600461068c565b600260209081526000928352604080842090915290825290205481565b3360008181526002602090815260408083206001600160a01b038716808552925280832085905551919290917f8c5be1e5ebec7d5bd14f71427d1e84f3dd0314c0f7b2291e5b200ac8c7c3b9259061029d9086815260200190565b60405180910390a350600192915050565b6001600160a01b03831660009081526002602090815260408083203384529091528120546000198114610314576001600160a01b03851660009081526002602090815260408083203384529091528120805485929061030e9084906106d5565b90915550505b61031f858585610424565b95945050505050565b3360009081526003602052604081205460ff166103605760405162461bcd60e51b8152600401610357906106ec565b60405180910390fd5b61036a83836104d9565b5060019392505050565b6000610381338484610424565b9392505050565b3360009081526003602052604081205460ff166103b75760405162461bcd60e51b8152600401610357906106ec565b6103c2848484610424565b949350505050565b3360009081526003602052604090205460ff166103f95760405162461bcd60e51b8152600401610357906106ec565b6001600160a01b03919091166000908152600360205260409020805460ff1916911515919091179055565b6001600160a01b03831660009081526001602052604081208054839190839061044e9084906106d5565b90915550506001600160a01b0383166000908152600160205260408120805484929061047b90849061070d565b92505081905550826001600160a01b0316846001600160a01b03167fddf252ad1be2c89b69c2b068fc378daa952ba7f163c4a11628f55a4df523b3ef846040516104c791815260200190565b60405180910390a35060019392505050565b6001600160a01b03821660009081526001602052604081208054839190839061050390849061070d565b925050819055508160008082825461051b919061070d565b90915550506040518281526001600160a01b038416906000907fddf252ad1be2c89b69c2b068fc378daa952ba7f163c4a11628f55a4df523b3ef9060200161029d565b600060208083528351808285015260005b8181101561058b5785810183015185820160400152820161056f565b8181111561059d576000604083870101525b50601f01601f1916929092016040019392505050565b80356001600160a01b03811681146105ca57600080fd5b919050565b600080604083850312156105e257600080fd5b6105eb836105b3565b946020939093013593505050565b60008060006060848603121561060e57600080fd5b610617846105b3565b9250610625602085016105b3565b9150604084013590509250925092565b60006020828403121561064757600080fd5b610381826105b3565b6000806040838503121561066357600080fd5b61066c836105b3565b91506020830135801515811461068157600080fd5b809150509250929050565b6000806040838503121561069f57600080fd5b6106a8836105b3565b91506106b6602084016105b3565b90509250929050565b634e487b7160e01b600052601160045260246000fd5b6000828210156106e7576106e76106bf565b500390565b6020808252600790820152666d696e7465722160c81b604082015260600190565b60008219821115610720576107206106bf565b50019056fea26469706673582212207a25dd6d4f21d1d2ab709680b7184888afe3db08a2bcaa16dffd49543d412d8b64736f6c634300080b0033",
  "linkReferences": {},
  "deployedLinkReferences": {}
}