{
  "_format": "hh-sol-artifact-1",
  "contractName": "MeterNativeV4",
  "sourceName": "contracts/MeterNativeV4.sol",
  "abi": [
    {
      "anonymous": false,
      "inputs": [
        {
          "indexed": true,
          "internalType": "address",
          "name": "owner",
          "type": "address"
        },
        {
          "indexed": false,
          "internalType": "uint256",
          "name": "amount",
          "type": "uint256"
        },
        {
          "indexed": false,
          "internalType": "uint256",
          "name": "token",
          "type": "uint256"
        }
      ],
      "name": "Bound",
      "type": "event"
    },
    {
      "anonymous": false,
      "inputs": [
        {
          "indexed": false,
          "internalType": "address",
          "name": "_address",
          "type": "address"
        },
        {
          "indexed": false,
          "internalType": "uint256",
          "name": "_amount",
          "type": "uint256"
        },
        {
          "indexed": false,
          "internalType": "string",
          "name": "_method",
          "type": "string"
        }
      ],
      "name": "MeterTrackerEvent",
      "type": "event"
    },
    {
      "anonymous": false,
      "inputs": [
        {
          "indexed": true,
          "internalType": "address",
          "name": "owner",
          "type": "address"
        },
        {
          "indexed": false,
          "internalType": "uint256",
          "name": "amount",
          "type": "uint256"
        },
        {
          "indexed": false,
          "internalType": "uint256",
          "name": "token",
          "type": "uint256"
        },
        {
          "indexed": false,
          "internalType": "address",
          "name": "recipient",
          "type": "address"
        }
      ],
      "name": "NativeBucketWithdraw",
      "type": "event"
    },
    {
      "anonymous": false,
      "inputs": [
        {
          "indexed": true,
          "internalType": "address",
          "name": "owner",
          "type": "address"
        },
        {
          "indexed": false,
          "internalType": "uint256",
          "name": "amount",
          "type": "uint256"
        },
        {
          "indexed": false,
          "internalType": "uint256",
          "name": "token",
          "type": "uint256"
        }
      ],
      "name": "Unbound",
      "type": "event"
    },
    {
      "inputs": [
        {
          "internalType": "address",
          "name": "owner",
          "type": "address"
        },
        {
          "internalType": "bytes32",
          "name": "bucketID",
          "type": "bytes32"
        }
      ],
      "name": "native_bucket_close",
      "outputs": [
        {
          "internalType": "string",
          "name": "",
          "type": "string"
        }
      ],
      "stateMutability": "pure",
      "type": "function"
    },
    {
      "inputs": [
        {
          "internalType": "address",
          "name": "owner",
          "type": "address"
        },
        {
          "internalType": "bytes32",
          "name": "bucketID",
          "type": "bytes32"
        },
        {
          "internalType": "uint256",
          "name": "amount",
          "type": "uint256"
        }
      ],
      "name": "native_bucket_deposit",
      "outputs": [
        {
          "internalType": "string",
          "name": "",
          "type": "string"
        }
      ],
      "stateMutability": "pure",
      "type": "function"
    },
    {
      "inputs": [
        {
          "internalType": "address",
          "name": "owner",
          "type": "address"
        },
        {
          "internalType": "bytes32",
          "name": "fromBucketID",
          "type": "bytes32"
        },
        {
          "internalType": "bytes32",
          "name": "toBucketID",
          "type": "bytes32"
        }
      ],
      "name": "native_bucket_merge",
      "outputs": [
        {
          "internalType": "string",
          "name": "",
          "type": "string"
        }
      ],
      "stateMutability": "pure",
      "type": "function"
    },
    {
      "inputs": [
        {
          "internalType": "address",
          "name": "owner",
          "type": "address"
        },
        {
          "internalType": "address",
          "name": "candidateAddr",
          "type": "address"
        },
        {
          "internalType": "uint256",
          "name": "amount",
          "type": "uint256"
        }
      ],
      "name": "native_bucket_open",
      "outputs": [
        {
          "internalType": "bytes32",
          "name": "",
          "type": "bytes32"
        },
        {
          "internalType": "string",
          "name": "",
          "type": "string"
        }
      ],
      "stateMutability": "pure",
      "type": "function"
    },
    {
      "inputs": [
        {
          "internalType": "address",
          "name": "owner",
          "type": "address"
        },
        {
          "internalType": "bytes32",
          "name": "fromBucketID",
          "type": "bytes32"
        },
        {
          "internalType": "bytes32",
          "name": "toBucketID",
          "type": "bytes32"
        },
        {
          "internalType": "uint256",
          "name": "amount",
          "type": "uint256"
        }
      ],
      "name": "native_bucket_transfer_fund",
      "outputs": [
        {
          "internalType": "string",
          "name": "",
          "type": "string"
        }
      ],
      "stateMutability": "pure",
      "type": "function"
    },
    {
      "inputs": [
        {
          "internalType": "address",
          "name": "owner",
          "type": "address"
        },
        {
          "internalType": "bytes32",
          "name": "bucketID",
          "type": "bytes32"
        },
        {
          "internalType": "address",
          "name": "newCandidateAddr",
          "type": "address"
        }
      ],
      "name": "native_bucket_update_candidate",
      "outputs": [
        {
          "internalType": "string",
          "name": "",
          "type": "string"
        }
      ],
      "stateMutability": "pure",
      "type": "function"
    },
    {
      "inputs": [
        {
          "internalType": "bytes32",
          "name": "bucketID",
          "type": "bytes32"
        }
      ],
      "name": "native_bucket_value",
      "outputs": [
        {
          "internalType": "uint256",
          "name": "",
          "type": "uint256"
        }
      ],
      "stateMutability": "pure",
      "type": "function"
    },
    {
      "inputs": [
        {
          "internalType": "address",
          "name": "owner",
          "type": "address"
        },
        {
          "internalType": "bytes32",
          "name": "bucketID",
          "type": "bytes32"
        },
        {
          "internalType": "uint256",
          "name": "amount",
          "type": "uint256"
        },
        {
          "internalType": "address",
          "name": "recipient",
          "type": "address"
        }
      ],
      "name": "native_bucket_withdraw",
      "outputs": [
        {
          "internalType": "bytes32",
          "name": "",
          "type": "bytes32"
        },
        {
          "internalType": "string",
          "name": "",
          "type": "string"
        }
      ],
      "stateMutability": "pure",
      "type": "function"
    },
    {
      "inputs": [
        {
          "internalType": "address",
          "name": "addr",
          "type": "address"
        }
      ],
      "name": "native_master",
      "outputs": [
        {
          "internalType": "address",
          "name": "",
          "type": "address"
        }
      ],
      "stateMutability": "pure",
      "type": "function"
    },
    {
      "inputs": [
        {
          "internalType": "address",
          "name": "addr",
          "type": "address"
        },
        {
          "internalType": "uint256",
          "name": "amount",
          "type": "uint256"
        }
      ],
      "name": "native_mtr_add",
      "outputs": [],
      "stateMutability": "nonpayable",
      "type": "function"
    },
    {
      "inputs": [
        {
          "internalType": "address",
          "name": "addr",
          "type": "address"
        }
      ],
      "name": "native_mtr_get",
      "outputs": [
        {
          "internalType": "uint256",
          "name": "",
          "type": "uint256"
        }
      ],
      "stateMutability": "pure",
      "type": "function"
    },
    {
      "inputs": [
        {
          "internalType": "address",
          "name": "addr",
          "type": "address"
        },
        {
          "internalType": "uint256",
          "name": "amount",
          "type": "uint256"
        }
      ],
      "name": "native_mtr_locked_add",
      "outputs": [],
      "stateMutability": "nonpayable",
      "type": "function"
    },
    {
      "inputs": [
        {
          "internalType": "address",
          "name": "addr",
          "type": "address"
        }
      ],
      "name": "native_mtr_locked_get",
      "outputs": [
        {
          "internalType": "uint256",
          "name": "",
          "type": "uint256"
        }
      ],
      "stateMutability": "pure",
      "type": "function"
    },
    {
      "inputs": [
        {
          "internalType": "address",
          "name": "addr",
          "type": "address"
        },
        {
          "internalType": "uint256",
          "name": "amount",
          "type": "uint256"
        }
      ],
      "name": "native_mtr_locked_sub",
      "outputs": [
        {
          "internalType": "bool",
          "name": "",
          "type": "bool"
        }
      ],
      "stateMutability": "nonpayable",
      "type": "function"
    },
    {
      "inputs": [
        {
          "internalType": "address",
          "name": "addr",
          "type": "address"
        },
        {
          "internalType": "uint256",
          "name": "amount",
          "type": "uint256"
        }
      ],
      "name": "native_mtr_sub",
      "outputs": [
        {
          "internalType": "bool",
          "name": "",
          "type": "bool"
        }
      ],
      "stateMutability": "nonpayable",
      "type": "function"
    },
    {
      "inputs": [],
      "name": "native_mtr_totalBurned",
      "outputs": [
        {
          "internalType": "uint256",
          "name": "",
          "type": "uint256"
        }
      ],
      "stateMutability": "pure",
      "type": "function"
    },
    {
      "inputs": [],
      "name": "native_mtr_totalSupply",
      "outputs": [
        {
          "internalType": "uint256",
          "name": "",
          "type": "uint256"
        }
      ],
      "stateMutability": "pure",
      "type": "function"
    },
    {
      "inputs": [
        {
          "internalType": "address",
          "name": "addr",
          "type": "address"
        },
        {
          "internalType": "uint256",
          "name": "amount",
          "type": "uint256"
        }
      ],
      "name": "native_mtrg_add",
      "outputs": [],
      "stateMutability": "nonpayable",
      "type": "function"
    },
    {
      "inputs": [
        {
          "internalType": "address",
          "name": "addr",
          "type": "address"
        }
      ],
      "name": "native_mtrg_get",
      "outputs": [
        {
          "internalType": "uint256",
          "name": "",
          "type": "uint256"
        }
      ],
      "stateMutability": "pure",
      "type": "function"
    },
    {
      "inputs": [
        {
          "internalType": "address",
          "name": "addr",
          "type": "address"
        },
        {
          "internalType": "uint256",
          "name": "amount",
          "type": "uint256"
        }
      ],
      "name": "native_mtrg_locked_add",
      "outputs": [],
      "stateMutability": "nonpayable",
      "type": "function"
    },
    {
      "inputs": [
        {
          "internalType": "address",
          "name": "addr",
          "type": "address"
        }
      ],
      "name": "native_mtrg_locked_get",
      "outputs": [
        {
          "internalType": "uint256",
          "name": "",
          "type": "uint256"
        }
      ],
      "stateMutability": "pure",
      "type": "function"
    },
    {
      "inputs": [
        {
          "internalType": "address",
          "name": "addr",
          "type": "address"
        },
        {
          "internalType": "uint256",
          "name": "amount",
          "type": "uint256"
        }
      ],
      "name": "native_mtrg_locked_sub",
      "outputs": [
        {
          "internalType": "bool",
          "name": "",
          "type": "bool"
        }
      ],
      "stateMutability": "nonpayable",
      "type": "function"
    },
    {
      "inputs": [
        {
          "internalType": "address",
          "name": "addr",
          "type": "address"
        },
        {
          "internalType": "uint256",
          "name": "amount",
          "type": "uint256"
        }
      ],
      "name": "native_mtrg_sub",
      "outputs": [
        {
          "internalType": "bool",
          "name": "",
          "type": "bool"
        }
      ],
      "stateMutability": "nonpayable",
      "type": "function"
    },
    {
      "inputs": [],
      "name": "native_mtrg_totalBurned",
      "outputs": [
        {
          "internalType": "uint256",
          "name": "",
          "type": "uint256"
        }
      ],
      "stateMutability": "pure",
      "type": "function"
    },
    {
      "inputs": [],
      "name": "native_mtrg_totalSupply",
      "outputs": [
        {
          "internalType": "uint256",
          "name": "",
          "type": "uint256"
        }
      ],
      "stateMutability": "pure",
      "type": "function"
    }
  ],
  "bytecode": "0x608060405234801561001057600080fd5b506108aa806100206000396000f3fe608060405234801561001057600080fd5b50600436106101735760003560e01c806398c6fb8d116100de578063cc23064111610097578063e986c74411610071578063e986c744146102f0578063ea4f867014610306578063eaa93f6b146101c5578063f14645f51461031457600080fd5b8063cc230641146102ca578063ccc7df9d146101c5578063df77a6d4146102dd57600080fd5b806398c6fb8d14610178578063a236e000146101c5578063a30af27014610178578063adbd864514610296578063b547784b146102a4578063baa28902146102b757600080fd5b806330daa2821161013057806330daa282146101785780634c586ff81461022957806358aeee2a14610240578063740b155f146102685780638d65cf0e14610229578063981efa461461027b57600080fd5b80630511d90314610178578063059950e91461019f578063076e361d146101c55780631d377a79146101cc57806320ae6501146101f15780632bbe467e14610206575b600080fd5b61018c610186366004610644565b50600090565b6040519081526020015b60405180910390f35b6101ad610186366004610644565b6040516001600160a01b039091168152602001610196565b600061018c565b6101e46101da366004610666565b6060949350505050565b60405161019691906106ec565b6102046101ff3660046106ff565b610327565b005b6102196102143660046106ff565b61038d565b6040519015158152602001610196565b6101e4610237366004610729565b60609392505050565b61025a61024e36600461075c565b60006060935093915050565b604051610196929190610798565b6102046102763660046106ff565b6103fa565b61025a6102893660046107b9565b6000606094509492505050565b61018c6101863660046107ff565b6102046102b23660046106ff565b610451565b6102196102c53660046106ff565b6104b0565b6102196102d83660046106ff565b610512565b6102046102eb3660046106ff565b610575565b6101e46102fe3660046106ff565b606092915050565b6101e4610237366004610818565b6102196103223660046106ff565b6105cd565b604080516001600160a01b0384168152602081018390526060918101829052601591810191909152741b985d1a5d9957db5d1c97db1bd8dad95917d85919605a1b60808201526000805160206108558339815191529060a0015b60405180910390a15050565b600060008051602061085583398151915283836040516103e99291906001600160a01b039290921682526020820152606060408201819052600f908201526e3730ba34bb32afb6ba3933afb9bab160891b608082015260a00190565b60405180910390a150600192915050565b604080516001600160a01b0384168152602081018390526060918101829052600e918101919091526d1b985d1a5d9957db5d1c97d8591960921b60808201526000805160206108558339815191529060a001610381565b604080516001600160a01b0384168152602081018390526060918101829052601691810191909152751b985d1a5d9957db5d1c99d7db1bd8dad95917d8591960521b60808201526000805160206108558339815191529060a001610381565b600060008051602061085583398151915283836040516103e99291906001600160a01b039290921682526020820152606060408201819052601590820152743730ba34bb32afb6ba392fb637b1b5b2b22fb9bab160591b608082015260a00190565b600060008051602061085583398151915283836040516103e99291906001600160a01b039290921682526020820152606060408201819052601690820152753730ba34bb32afb6ba3933afb637b1b5b2b22fb9bab160511b608082015260a00190565b604080516001600160a01b0384168152602081018390526060918101829052600f918101919091526e1b985d1a5d9957db5d1c99d7d85919608a1b60808201526000805160206108558339815191529060a001610381565b600060008051602061085583398151915283836040516103e99291906001600160a01b039290921682526020820152606060408201819052600e908201526d3730ba34bb32afb6ba392fb9bab160911b608082015260a00190565b80356001600160a01b038116811461063f57600080fd5b919050565b60006020828403121561065657600080fd5b61065f82610628565b9392505050565b6000806000806080858703121561067c57600080fd5b61068585610628565b966020860135965060408601359560600135945092505050565b6000815180845260005b818110156106c5576020818501810151868301820152016106a9565b818111156106d7576000602083870101525b50601f01601f19169290920160200192915050565b60208152600061065f602083018461069f565b6000806040838503121561071257600080fd5b61071b83610628565b946020939093013593505050565b60008060006060848603121561073e57600080fd5b61074784610628565b95602085013595506040909401359392505050565b60008060006060848603121561077157600080fd5b61077a84610628565b925061078860208501610628565b9150604084013590509250925092565b8281526040602082015260006107b1604083018461069f565b949350505050565b600080600080608085870312156107cf57600080fd5b6107d885610628565b935060208501359250604085013591506107f460608601610628565b905092959194509250565b60006020828403121561081157600080fd5b5035919050565b60008060006060848603121561082d57600080fd5b61083684610628565b92506020840135915061084b60408501610628565b9050925092509256fee733fdb97bd02ae887462b30f938653e7a701cf0ec92fc28d4e57d462961f214a26469706673582212201b32d08234b212f31f950fae7835240a9b9cef553e5b76770d87368a389a171d64736f6c634300080b0033",
  "linkReferences": {},
  "deployedLinkReferences": {}
}