{
  "_format": "hh-sol-artifact-1",
  "contractName": "MeterNativeV4",
  "sourceName": "contracts/MeterNativeV4.sol",
  "abi": [
    {
      "anonymous": false,
      "inputs": [
        {
          "indexed": true,
          "internalType": "address",
          "name": "owner",
          "type": "address"
        },
        {
          "indexed": false,
          "internalType": "uint256",
          "name": "amount",
          "type": "uint256"
        },
        {
          "indexed": false,
          "internalType": "uint256",
          "name": "token",
          "type": "uint256"
        }
      ],
      "name": "Bound",
      "type": "event"
    },
    {
      "anonymous": false,
      "inputs": [
        {
          "indexed": false,
          "internalType": "address",
          "name": "_address",
          "type": "address"
        },
        {
          "indexed": false,
          "internalType": "uint256",
          "name": "_amount",
          "type": "uint256"
        },
        {
          "indexed": false,
          "internalType": "string",
          "name": "_method",
          "type": "string"
        }
      ],
      "name": "MeterTrackerEvent",
      "type": "event"
    },
    {
      "anonymous": false,
      "inputs": [
        {
          "indexed": true,
          "internalType": "bytes32",
          "name": "id",
          "type": "bytes32"
        },
        {
          "indexed": false,
          "internalType": "uint256",
          "name": "receivedMTR",
          "type": "uint256"
        },
        {
          "indexed": false,
          "internalType": "uint256",
          "name": "releasedMTRG",
          "type": "uint256"
        },
        {
          "indexed": false,
          "internalType": "uint256",
          "name": "actualPrice",
          "type": "uint256"
        }
      ],
      "name": "NativeAuctionEnd",
      "type": "event"
    },
    {
      "anonymous": false,
      "inputs": [
        {
          "indexed": true,
          "internalType": "bytes32",
          "name": "id",
          "type": "bytes32"
        },
        {
          "indexed": false,
          "internalType": "uint256",
          "name": "startHeight",
          "type": "uint256"
        },
        {
          "indexed": false,
          "internalType": "uint256",
          "name": "endHeight",
          "type": "uint256"
        },
        {
          "indexed": false,
          "internalType": "uint256",
          "name": "mtrgOnAuction",
          "type": "uint256"
        },
        {
          "indexed": false,
          "internalType": "uint256",
          "name": "reservedPrice",
          "type": "uint256"
        }
      ],
      "name": "NativeAuctionStart",
      "type": "event"
    },
    {
      "anonymous": false,
      "inputs": [
        {
          "indexed": true,
          "internalType": "address",
          "name": "owner",
          "type": "address"
        },
        {
          "indexed": false,
          "internalType": "bytes32",
          "name": "bucketID",
          "type": "bytes32"
        }
      ],
      "name": "NativeBucketClose",
      "type": "event"
    },
    {
      "anonymous": false,
      "inputs": [
        {
          "indexed": true,
          "internalType": "address",
          "name": "owner",
          "type": "address"
        },
        {
          "indexed": false,
          "internalType": "bytes32",
          "name": "bucketID",
          "type": "bytes32"
        },
        {
          "indexed": false,
          "internalType": "uint256",
          "name": "amount",
          "type": "uint256"
        },
        {
          "indexed": false,
          "internalType": "uint256",
          "name": "token",
          "type": "uint256"
        }
      ],
      "name": "NativeBucketDeposit",
      "type": "event"
    },
    {
      "anonymous": false,
      "inputs": [
        {
          "indexed": true,
          "internalType": "address",
          "name": "owner",
          "type": "address"
        },
        {
          "indexed": false,
          "internalType": "bytes32",
          "name": "fromBktID",
          "type": "bytes32"
        },
        {
          "indexed": false,
          "internalType": "bytes32",
          "name": "toBktID",
          "type": "bytes32"
        }
      ],
      "name": "NativeBucketMerge",
      "type": "event"
    },
    {
      "anonymous": false,
      "inputs": [
        {
          "indexed": true,
          "internalType": "address",
          "name": "owner",
          "type": "address"
        },
        {
          "indexed": false,
          "internalType": "bytes32",
          "name": "bucketID",
          "type": "bytes32"
        },
        {
          "indexed": false,
          "internalType": "uint256",
          "name": "amount",
          "type": "uint256"
        },
        {
          "indexed": false,
          "internalType": "uint256",
          "name": "token",
          "type": "uint256"
        }
      ],
      "name": "NativeBucketOpen",
      "type": "event"
    },
    {
      "anonymous": false,
      "inputs": [
        {
          "indexed": true,
          "internalType": "address",
          "name": "owner",
          "type": "address"
        },
        {
          "indexed": false,
          "internalType": "bytes32",
          "name": "fromBktID",
          "type": "bytes32"
        },
        {
          "indexed": false,
          "internalType": "uint256",
          "name": "amount",
          "type": "uint256"
        },
        {
          "indexed": false,
          "internalType": "uint256",
          "name": "token",
          "type": "uint256"
        },
        {
          "indexed": false,
          "internalType": "bytes32",
          "name": "toBktID",
          "type": "bytes32"
        }
      ],
      "name": "NativeBucketTransferFund",
      "type": "event"
    },
    {
      "anonymous": false,
      "inputs": [
        {
          "indexed": true,
          "internalType": "address",
          "name": "owner",
          "type": "address"
        },
        {
          "indexed": false,
          "internalType": "bytes32",
          "name": "bucketID",
          "type": "bytes32"
        },
        {
          "indexed": false,
          "internalType": "address",
          "name": "fromCandidate",
          "type": "address"
        },
        {
          "indexed": false,
          "internalType": "address",
          "name": "toCandidate",
          "type": "address"
        }
      ],
      "name": "NativeBucketUpdateCandidate",
      "type": "event"
    },
    {
      "anonymous": false,
      "inputs": [
        {
          "indexed": true,
          "internalType": "address",
          "name": "owner",
          "type": "address"
        },
        {
          "indexed": false,
          "internalType": "bytes32",
          "name": "fromBktID",
          "type": "bytes32"
        },
        {
          "indexed": false,
          "internalType": "uint256",
          "name": "amount",
          "type": "uint256"
        },
        {
          "indexed": false,
          "internalType": "uint256",
          "name": "token",
          "type": "uint256"
        },
        {
          "indexed": false,
          "internalType": "address",
          "name": "recipient",
          "type": "address"
        },
        {
          "indexed": false,
          "internalType": "bytes32",
          "name": "toBktID",
          "type": "bytes32"
        }
      ],
      "name": "NativeBucketWithdraw",
      "type": "event"
    },
    {
      "anonymous": false,
      "inputs": [
        {
          "indexed": true,
          "internalType": "address",
          "name": "owner",
          "type": "address"
        },
        {
          "indexed": false,
          "internalType": "uint256",
          "name": "amount",
          "type": "uint256"
        },
        {
          "indexed": false,
          "internalType": "uint256",
          "name": "token",
          "type": "uint256"
        }
      ],
      "name": "Unbound",
      "type": "event"
    },
    {
      "inputs": [
        {
          "internalType": "address",
          "name": "owner",
          "type": "address"
        },
        {
          "internalType": "bytes32",
          "name": "bucketID",
          "type": "bytes32"
        }
      ],
      "name": "native_bucket_close",
      "outputs": [
        {
          "internalType": "string",
          "name": "",
          "type": "string"
        }
      ],
      "stateMutability": "pure",
      "type": "function"
    },
    {
      "inputs": [
        {
          "internalType": "address",
          "name": "owner",
          "type": "address"
        },
        {
          "internalType": "bytes32",
          "name": "bucketID",
          "type": "bytes32"
        },
        {
          "internalType": "uint256",
          "name": "amount",
          "type": "uint256"
        }
      ],
      "name": "native_bucket_deposit",
      "outputs": [
        {
          "internalType": "string",
          "name": "",
          "type": "string"
        }
      ],
      "stateMutability": "pure",
      "type": "function"
    },
    {
      "inputs": [
        {
          "internalType": "bytes32",
          "name": "bucketID",
          "type": "bytes32"
        }
      ],
      "name": "native_bucket_exists",
      "outputs": [
        {
          "internalType": "bool",
          "name": "",
          "type": "bool"
        }
      ],
      "stateMutability": "pure",
      "type": "function"
    },
    {
      "inputs": [
        {
          "internalType": "address",
          "name": "owner",
          "type": "address"
        },
        {
          "internalType": "bytes32",
          "name": "fromBucketID",
          "type": "bytes32"
        },
        {
          "internalType": "bytes32",
          "name": "toBucketID",
          "type": "bytes32"
        }
      ],
      "name": "native_bucket_merge",
      "outputs": [
        {
          "internalType": "string",
          "name": "",
          "type": "string"
        }
      ],
      "stateMutability": "pure",
      "type": "function"
    },
    {
      "inputs": [
        {
          "internalType": "address",
          "name": "owner",
          "type": "address"
        },
        {
          "internalType": "address",
          "name": "candidateAddr",
          "type": "address"
        },
        {
          "internalType": "uint256",
          "name": "amount",
          "type": "uint256"
        }
      ],
      "name": "native_bucket_open",
      "outputs": [
        {
          "internalType": "bytes32",
          "name": "",
          "type": "bytes32"
        },
        {
          "internalType": "string",
          "name": "",
          "type": "string"
        }
      ],
      "stateMutability": "pure",
      "type": "function"
    },
    {
      "inputs": [
        {
          "internalType": "address",
          "name": "owner",
          "type": "address"
        },
        {
          "internalType": "bytes32",
          "name": "fromBucketID",
          "type": "bytes32"
        },
        {
          "internalType": "bytes32",
          "name": "toBucketID",
          "type": "bytes32"
        },
        {
          "internalType": "uint256",
          "name": "amount",
          "type": "uint256"
        }
      ],
      "name": "native_bucket_transfer_fund",
      "outputs": [
        {
          "internalType": "string",
          "name": "",
          "type": "string"
        }
      ],
      "stateMutability": "pure",
      "type": "function"
    },
    {
      "inputs": [
        {
          "internalType": "address",
          "name": "owner",
          "type": "address"
        },
        {
          "internalType": "bytes32",
          "name": "bucketID",
          "type": "bytes32"
        },
        {
          "internalType": "address",
          "name": "newCandidateAddr",
          "type": "address"
        }
      ],
      "name": "native_bucket_update_candidate",
      "outputs": [
        {
          "internalType": "string",
          "name": "",
          "type": "string"
        }
      ],
      "stateMutability": "pure",
      "type": "function"
    },
    {
      "inputs": [
        {
          "internalType": "bytes32",
          "name": "bucketID",
          "type": "bytes32"
        }
      ],
      "name": "native_bucket_value",
      "outputs": [
        {
          "internalType": "uint256",
          "name": "",
          "type": "uint256"
        }
      ],
      "stateMutability": "pure",
      "type": "function"
    },
    {
      "inputs": [
        {
          "internalType": "address",
          "name": "owner",
          "type": "address"
        },
        {
          "internalType": "bytes32",
          "name": "bucketID",
          "type": "bytes32"
        },
        {
          "internalType": "uint256",
          "name": "amount",
          "type": "uint256"
        },
        {
          "internalType": "address",
          "name": "recipient",
          "type": "address"
        }
      ],
      "name": "native_bucket_withdraw",
      "outputs": [
        {
          "internalType": "bytes32",
          "name": "",
          "type": "bytes32"
        },
        {
          "internalType": "string",
          "name": "",
          "type": "string"
        }
      ],
      "stateMutability": "pure",
      "type": "function"
    },
    {
      "inputs": [
        {
          "internalType": "address",
          "name": "addr",
          "type": "address"
        }
      ],
      "name": "native_master",
      "outputs": [
        {
          "internalType": "address",
          "name": "",
          "type": "address"
        }
      ],
      "stateMutability": "pure",
      "type": "function"
    },
    {
      "inputs": [
        {
          "internalType": "address",
          "name": "addr",
          "type": "address"
        },
        {
          "internalType": "uint256",
          "name": "amount",
          "type": "uint256"
        }
      ],
      "name": "native_mtr_add",
      "outputs": [],
      "stateMutability": "nonpayable",
      "type": "function"
    },
    {
      "inputs": [
        {
          "internalType": "address",
          "name": "addr",
          "type": "address"
        }
      ],
      "name": "native_mtr_get",
      "outputs": [
        {
          "internalType": "uint256",
          "name": "",
          "type": "uint256"
        }
      ],
      "stateMutability": "pure",
      "type": "function"
    },
    {
      "inputs": [
        {
          "internalType": "address",
          "name": "addr",
          "type": "address"
        },
        {
          "internalType": "uint256",
          "name": "amount",
          "type": "uint256"
        }
      ],
      "name": "native_mtr_locked_add",
      "outputs": [],
      "stateMutability": "nonpayable",
      "type": "function"
    },
    {
      "inputs": [
        {
          "internalType": "address",
          "name": "addr",
          "type": "address"
        }
      ],
      "name": "native_mtr_locked_get",
      "outputs": [
        {
          "internalType": "uint256",
          "name": "",
          "type": "uint256"
        }
      ],
      "stateMutability": "pure",
      "type": "function"
    },
    {
      "inputs": [
        {
          "internalType": "address",
          "name": "addr",
          "type": "address"
        },
        {
          "internalType": "uint256",
          "name": "amount",
          "type": "uint256"
        }
      ],
      "name": "native_mtr_locked_sub",
      "outputs": [
        {
          "internalType": "bool",
          "name": "",
          "type": "bool"
        }
      ],
      "stateMutability": "nonpayable",
      "type": "function"
    },
    {
      "inputs": [
        {
          "internalType": "address",
          "name": "addr",
          "type": "address"
        },
        {
          "internalType": "uint256",
          "name": "amount",
          "type": "uint256"
        }
      ],
      "name": "native_mtr_sub",
      "outputs": [
        {
          "internalType": "bool",
          "name": "",
          "type": "bool"
        }
      ],
      "stateMutability": "nonpayable",
      "type": "function"
    },
    {
      "inputs": [],
      "name": "native_mtr_totalBurned",
      "outputs": [
        {
          "internalType": "uint256",
          "name": "",
          "type": "uint256"
        }
      ],
      "stateMutability": "pure",
      "type": "function"
    },
    {
      "inputs": [],
      "name": "native_mtr_totalSupply",
      "outputs": [
        {
          "internalType": "uint256",
          "name": "",
          "type": "uint256"
        }
      ],
      "stateMutability": "pure",
      "type": "function"
    },
    {
      "inputs": [
        {
          "internalType": "address",
          "name": "addr",
          "type": "address"
        },
        {
          "internalType": "uint256",
          "name": "amount",
          "type": "uint256"
        }
      ],
      "name": "native_mtrg_add",
      "outputs": [],
      "stateMutability": "nonpayable",
      "type": "function"
    },
    {
      "inputs": [
        {
          "internalType": "address",
          "name": "addr",
          "type": "address"
        }
      ],
      "name": "native_mtrg_get",
      "outputs": [
        {
          "internalType": "uint256",
          "name": "",
          "type": "uint256"
        }
      ],
      "stateMutability": "pure",
      "type": "function"
    },
    {
      "inputs": [
        {
          "internalType": "address",
          "name": "addr",
          "type": "address"
        },
        {
          "internalType": "uint256",
          "name": "amount",
          "type": "uint256"
        }
      ],
      "name": "native_mtrg_locked_add",
      "outputs": [],
      "stateMutability": "nonpayable",
      "type": "function"
    },
    {
      "inputs": [
        {
          "internalType": "address",
          "name": "addr",
          "type": "address"
        }
      ],
      "name": "native_mtrg_locked_get",
      "outputs": [
        {
          "internalType": "uint256",
          "name": "",
          "type": "uint256"
        }
      ],
      "stateMutability": "pure",
      "type": "function"
    },
    {
      "inputs": [
        {
          "internalType": "address",
          "name": "addr",
          "type": "address"
        },
        {
          "internalType": "uint256",
          "name": "amount",
          "type": "uint256"
        }
      ],
      "name": "native_mtrg_locked_sub",
      "outputs": [
        {
          "internalType": "bool",
          "name": "",
          "type": "bool"
        }
      ],
      "stateMutability": "nonpayable",
      "type": "function"
    },
    {
      "inputs": [
        {
          "internalType": "address",
          "name": "addr",
          "type": "address"
        },
        {
          "internalType": "uint256",
          "name": "amount",
          "type": "uint256"
        }
      ],
      "name": "native_mtrg_sub",
      "outputs": [
        {
          "internalType": "bool",
          "name": "",
          "type": "bool"
        }
      ],
      "stateMutability": "nonpayable",
      "type": "function"
    },
    {
      "inputs": [],
      "name": "native_mtrg_totalBurned",
      "outputs": [
        {
          "internalType": "uint256",
          "name": "",
          "type": "uint256"
        }
      ],
      "stateMutability": "pure",
      "type": "function"
    },
    {
      "inputs": [],
      "name": "native_mtrg_totalSupply",
      "outputs": [
        {
          "internalType": "uint256",
          "name": "",
          "type": "uint256"
        }
      ],
      "stateMutability": "pure",
      "type": "function"
    }
  ],
  "bytecode": "0x608060405234801561001057600080fd5b506109bb806100206000396000f3fe608060405234801561001057600080fd5b50600436106101ae5760003560e01c8063a236e000116100ee578063ccc7df9d11610097578063e986c74411610071578063e986c74414610339578063ea4f86701461034f578063eaa93f6b14610200578063f14645f51461035d57600080fd5b8063ccc7df9d14610200578063df17524b14610318578063df77a6d41461032657600080fd5b8063b547784b116100c8578063b547784b146102df578063baa28902146102f2578063cc2306411461030557600080fd5b8063a236e00014610200578063a30af270146101b3578063adbd8645146102d157600080fd5b806330daa2821161015b578063740b155f11610135578063740b155f146102a35780638d65cf0e14610264578063981efa46146102b657806398c6fb8d146101b357600080fd5b806330daa282146101b35780634c586ff81461026457806358aeee2a1461027b57600080fd5b80631d377a791161018c5780631d377a791461020757806320ae65011461022c5780632bbe467e1461024157600080fd5b80630511d903146101b3578063059950e9146101da578063076e361d14610200575b600080fd5b6101c76101c1366004610775565b50600090565b6040519081526020015b60405180910390f35b6101e86101c1366004610775565b6040516001600160a01b0390911681526020016101d1565b60006101c7565b61021f610215366004610797565b6060949350505050565b6040516101d1919061081d565b61023f61023a366004610830565b610370565b005b61025461024f366004610830565b6103f0565b60405190151581526020016101d1565b61021f61027236600461085a565b60609392505050565b61029561028936600461088d565b60006060935093915050565b6040516101d19291906108c9565b61023f6102b1366004610830565b61047d565b6102956102c43660046108ea565b6000606094509492505050565b6101c76101c1366004610930565b61023f6102ed366004610830565b6104f5565b610254610300366004610830565b61056d565b610254610313366004610830565b6105e9565b6102546101c1366004610930565b61023f610334366004610830565b610665565b61021f610347366004610830565b606092915050565b61021f610272366004610949565b61025461036b366004610830565b6106dd565b604080516001600160a01b03841681526020810183905260609181018290526015918101919091527f6e61746976655f6d74725f6c6f636b65645f616464000000000000000000000060808201527fe733fdb97bd02ae887462b30f938653e7a701cf0ec92fc28d4e57d462961f2149060a0015b60405180910390a15050565b60007fe733fdb97bd02ae887462b30f938653e7a701cf0ec92fc28d4e57d462961f214838360405161046c9291906001600160a01b039290921682526020820152606060408201819052600f908201527f6e61746976655f6d7472675f7375620000000000000000000000000000000000608082015260a00190565b60405180910390a150600192915050565b604080516001600160a01b0384168152602081018390526060918101829052600e918101919091527f6e61746976655f6d74725f61646400000000000000000000000000000000000060808201527fe733fdb97bd02ae887462b30f938653e7a701cf0ec92fc28d4e57d462961f2149060a0016103e4565b604080516001600160a01b03841681526020810183905260609181018290526016918101919091527f6e61746976655f6d7472675f6c6f636b65645f6164640000000000000000000060808201527fe733fdb97bd02ae887462b30f938653e7a701cf0ec92fc28d4e57d462961f2149060a0016103e4565b60007fe733fdb97bd02ae887462b30f938653e7a701cf0ec92fc28d4e57d462961f214838360405161046c9291906001600160a01b0392909216825260208201526060604082018190526015908201527f6e61746976655f6d74725f6c6f636b65645f7375620000000000000000000000608082015260a00190565b60007fe733fdb97bd02ae887462b30f938653e7a701cf0ec92fc28d4e57d462961f214838360405161046c9291906001600160a01b0392909216825260208201526060604082018190526016908201527f6e61746976655f6d7472675f6c6f636b65645f73756200000000000000000000608082015260a00190565b604080516001600160a01b0384168152602081018390526060918101829052600f918101919091527f6e61746976655f6d7472675f616464000000000000000000000000000000000060808201527fe733fdb97bd02ae887462b30f938653e7a701cf0ec92fc28d4e57d462961f2149060a0016103e4565b60007fe733fdb97bd02ae887462b30f938653e7a701cf0ec92fc28d4e57d462961f214838360405161046c9291906001600160a01b039290921682526020820152606060408201819052600e908201527f6e61746976655f6d74725f737562000000000000000000000000000000000000608082015260a00190565b80356001600160a01b038116811461077057600080fd5b919050565b60006020828403121561078757600080fd5b61079082610759565b9392505050565b600080600080608085870312156107ad57600080fd5b6107b685610759565b966020860135965060408601359560600135945092505050565b6000815180845260005b818110156107f6576020818501810151868301820152016107da565b81811115610808576000602083870101525b50601f01601f19169290920160200192915050565b60208152600061079060208301846107d0565b6000806040838503121561084357600080fd5b61084c83610759565b946020939093013593505050565b60008060006060848603121561086f57600080fd5b61087884610759565b95602085013595506040909401359392505050565b6000806000606084860312156108a257600080fd5b6108ab84610759565b92506108b960208501610759565b9150604084013590509250925092565b8281526040602082015260006108e260408301846107d0565b949350505050565b6000806000806080858703121561090057600080fd5b61090985610759565b9350602085013592506040850135915061092560608601610759565b905092959194509250565b60006020828403121561094257600080fd5b5035919050565b60008060006060848603121561095e57600080fd5b61096784610759565b92506020840135915061097c60408501610759565b9050925092509256fea26469706673582212208bd080db99b9123c91b684d23de6ed4c62d82401d91ae7da15fae8df1589f6b964736f6c634300080b0033",
  "linkReferences": {},
  "deployedLinkReferences": {}
}