{
  "_format": "hh-sol-artifact-1",
  "contractName": "WstMTRG",
  "sourceName": "contracts/WstMTRG.sol",
  "abi": [
    {
      "anonymous": false,
      "inputs": [
        {
          "indexed": true,
          "internalType": "address",
          "name": "owner",
          "type": "address"
        },
        {
          "indexed": true,
          "internalType": "address",
          "name": "spender",
          "type": "address"
        },
        {
          "indexed": false,
          "internalType": "uint256",
          "name": "value",
          "type": "uint256"
        }
      ],
      "name": "Approval",
      "type": "event"
    },
    {
      "anonymous": false,
      "inputs": [
        {
          "indexed": false,
          "internalType": "uint8",
          "name": "version",
          "type": "uint8"
        }
      ],
      "name": "Initialized",
      "type": "event"
    },
    {
      "anonymous": false,
      "inputs": [
        {
          "indexed": true,
          "internalType": "address",
          "name": "from",
          "type": "address"
        },
        {
          "indexed": true,
          "internalType": "address",
          "name": "to",
          "type": "address"
        },
        {
          "indexed": false,
          "internalType": "uint256",
          "name": "value",
          "type": "uint256"
        }
      ],
      "name": "Transfer",
      "type": "event"
    },
    {
      "inputs": [],
      "name": "DOMAIN_SEPARATOR",
      "outputs": [
        {
          "internalType": "bytes32",
          "name": "",
          "type": "bytes32"
        }
      ],
      "stateMutability": "view",
      "type": "function"
    },
    {
      "inputs": [
        {
          "internalType": "address",
          "name": "owner",
          "type": "address"
        },
        {
          "internalType": "address",
          "name": "spender",
          "type": "address"
        }
      ],
      "name": "allowance",
      "outputs": [
        {
          "internalType": "uint256",
          "name": "",
          "type": "uint256"
        }
      ],
      "stateMutability": "view",
      "type": "function"
    },
    {
      "inputs": [
        {
          "internalType": "address",
          "name": "spender",
          "type": "address"
        },
        {
          "internalType": "uint256",
          "name": "amount",
          "type": "uint256"
        }
      ],
      "name": "approve",
      "outputs": [
        {
          "internalType": "bool",
          "name": "",
          "type": "bool"
        }
      ],
      "stateMutability": "nonpayable",
      "type": "function"
    },
    {
      "inputs": [
        {
          "internalType": "address",
          "name": "account",
          "type": "address"
        }
      ],
      "name": "balanceOf",
      "outputs": [
        {
          "internalType": "uint256",
          "name": "",
          "type": "uint256"
        }
      ],
      "stateMutability": "view",
      "type": "function"
    },
    {
      "inputs": [],
      "name": "decimals",
      "outputs": [
        {
          "internalType": "uint8",
          "name": "",
          "type": "uint8"
        }
      ],
      "stateMutability": "view",
      "type": "function"
    },
    {
      "inputs": [
        {
          "internalType": "address",
          "name": "spender",
          "type": "address"
        },
        {
          "internalType": "uint256",
          "name": "subtractedValue",
          "type": "uint256"
        }
      ],
      "name": "decreaseAllowance",
      "outputs": [
        {
          "internalType": "bool",
          "name": "",
          "type": "bool"
        }
      ],
      "stateMutability": "nonpayable",
      "type": "function"
    },
    {
      "inputs": [
        {
          "internalType": "uint256",
          "name": "_wstMTRGAmount",
          "type": "uint256"
        }
      ],
      "name": "getStMTRGByWstMTRG",
      "outputs": [
        {
          "internalType": "uint256",
          "name": "",
          "type": "uint256"
        }
      ],
      "stateMutability": "view",
      "type": "function"
    },
    {
      "inputs": [
        {
          "internalType": "uint256",
          "name": "_stMTRGAmount",
          "type": "uint256"
        }
      ],
      "name": "getWstMTRGByStMTRG",
      "outputs": [
        {
          "internalType": "uint256",
          "name": "",
          "type": "uint256"
        }
      ],
      "stateMutability": "view",
      "type": "function"
    },
    {
      "inputs": [
        {
          "internalType": "address",
          "name": "spender",
          "type": "address"
        },
        {
          "internalType": "uint256",
          "name": "addedValue",
          "type": "uint256"
        }
      ],
      "name": "increaseAllowance",
      "outputs": [
        {
          "internalType": "bool",
          "name": "",
          "type": "bool"
        }
      ],
      "stateMutability": "nonpayable",
      "type": "function"
    },
    {
      "inputs": [
        {
          "internalType": "address",
          "name": "_stMTRG",
          "type": "address"
        }
      ],
      "name": "initialize",
      "outputs": [],
      "stateMutability": "nonpayable",
      "type": "function"
    },
    {
      "inputs": [],
      "name": "name",
      "outputs": [
        {
          "internalType": "string",
          "name": "",
          "type": "string"
        }
      ],
      "stateMutability": "view",
      "type": "function"
    },
    {
      "inputs": [
        {
          "internalType": "address",
          "name": "owner",
          "type": "address"
        }
      ],
      "name": "nonces",
      "outputs": [
        {
          "internalType": "uint256",
          "name": "",
          "type": "uint256"
        }
      ],
      "stateMutability": "view",
      "type": "function"
    },
    {
      "inputs": [
        {
          "internalType": "address",
          "name": "owner",
          "type": "address"
        },
        {
          "internalType": "address",
          "name": "spender",
          "type": "address"
        },
        {
          "internalType": "uint256",
          "name": "value",
          "type": "uint256"
        },
        {
          "internalType": "uint256",
          "name": "deadline",
          "type": "uint256"
        },
        {
          "internalType": "uint8",
          "name": "v",
          "type": "uint8"
        },
        {
          "internalType": "bytes32",
          "name": "r",
          "type": "bytes32"
        },
        {
          "internalType": "bytes32",
          "name": "s",
          "type": "bytes32"
        }
      ],
      "name": "permit",
      "outputs": [],
      "stateMutability": "nonpayable",
      "type": "function"
    },
    {
      "inputs": [],
      "name": "stMTRG",
      "outputs": [
        {
          "internalType": "address",
          "name": "",
          "type": "address"
        }
      ],
      "stateMutability": "view",
      "type": "function"
    },
    {
      "inputs": [],
      "name": "stMTRGPerToken",
      "outputs": [
        {
          "internalType": "uint256",
          "name": "",
          "type": "uint256"
        }
      ],
      "stateMutability": "view",
      "type": "function"
    },
    {
      "inputs": [],
      "name": "symbol",
      "outputs": [
        {
          "internalType": "string",
          "name": "",
          "type": "string"
        }
      ],
      "stateMutability": "view",
      "type": "function"
    },
    {
      "inputs": [],
      "name": "tokensPerStMTRG",
      "outputs": [
        {
          "internalType": "uint256",
          "name": "",
          "type": "uint256"
        }
      ],
      "stateMutability": "view",
      "type": "function"
    },
    {
      "inputs": [],
      "name": "totalSupply",
      "outputs": [
        {
          "internalType": "uint256",
          "name": "",
          "type": "uint256"
        }
      ],
      "stateMutability": "view",
      "type": "function"
    },
    {
      "inputs": [
        {
          "internalType": "address",
          "name": "to",
          "type": "address"
        },
        {
          "internalType": "uint256",
          "name": "amount",
          "type": "uint256"
        }
      ],
      "name": "transfer",
      "outputs": [
        {
          "internalType": "bool",
          "name": "",
          "type": "bool"
        }
      ],
      "stateMutability": "nonpayable",
      "type": "function"
    },
    {
      "inputs": [
        {
          "internalType": "address",
          "name": "from",
          "type": "address"
        },
        {
          "internalType": "address",
          "name": "to",
          "type": "address"
        },
        {
          "internalType": "uint256",
          "name": "amount",
          "type": "uint256"
        }
      ],
      "name": "transferFrom",
      "outputs": [
        {
          "internalType": "bool",
          "name": "",
          "type": "bool"
        }
      ],
      "stateMutability": "nonpayable",
      "type": "function"
    },
    {
      "inputs": [
        {
          "internalType": "uint256",
          "name": "_wstMTRGAmount",
          "type": "uint256"
        }
      ],
      "name": "unwrap",
      "outputs": [
        {
          "internalType": "uint256",
          "name": "",
          "type": "uint256"
        }
      ],
      "stateMutability": "nonpayable",
      "type": "function"
    },
    {
      "inputs": [
        {
          "internalType": "uint256",
          "name": "_stMTRGAmount",
          "type": "uint256"
        }
      ],
      "name": "wrap",
      "outputs": [
        {
          "internalType": "uint256",
          "name": "",
          "type": "uint256"
        }
      ],
      "stateMutability": "nonpayable",
      "type": "function"
    }
  ],
  "bytecode": "0x608060405234801561001057600080fd5b50611b08806100206000396000f3fe608060405234801561001057600080fd5b50600436106101825760003560e01c806373d525ed116100d8578063a9059cbb1161008c578063dd62ed3e11610066578063dd62ed3e1461030a578063de0e9a3e14610343578063ea598cb01461035657600080fd5b8063a9059cbb146102cf578063c4d66de8146102e2578063d505accf146102f757600080fd5b80638f07aabc116100bd5780638f07aabc146102ac57806395d89b41146102b4578063a457c2d7146102bc57600080fd5b806373d525ed1461026e5780637ecebe001461029957600080fd5b80633644e5151161013a5780636326fdc3116101145780636326fdc31461021f57806370a082311461023257806372833c031461025b57600080fd5b80633644e515146101fc57806339509351146102045780635638467b1461021757600080fd5b806318160ddd1161016b57806318160ddd146101c857806323b872dd146101da578063313ce567146101ed57600080fd5b806306fdde0314610187578063095ea7b3146101a5575b600080fd5b61018f610369565b60405161019c9190611873565b60405180910390f35b6101b86101b33660046118df565b6103fb565b604051901515815260200161019c565b6035545b60405190815260200161019c565b6101b86101e8366004611909565b610413565b6040516012815260200161019c565b6101cc610437565b6101b86102123660046118df565b610446565b6101cc610485565b6101cc61022d366004611945565b6104fe565b6101cc61024036600461195e565b6001600160a01b031660009081526033602052604090205490565b6101cc610269366004611945565b61057e565b60cc54610281906001600160a01b031681565b6040516001600160a01b03909116815260200161019c565b6101cc6102a736600461195e565b6105fa565b6101cc610618565b61018f610657565b6101b86102ca3660046118df565b610666565b6101b86102dd3660046118df565b610715565b6102f56102f036600461195e565b610723565b005b6102f5610305366004611980565b610921565b6101cc6103183660046119f3565b6001600160a01b03918216600090815260346020908152604080832093909416825291909152205490565b6101cc610351366004611945565b610a85565b6101cc610364366004611945565b610c01565b60606036805461037890611a26565b80601f01602080910402602001604051908101604052809291908181526020018280546103a490611a26565b80156103f15780601f106103c6576101008083540402835291602001916103f1565b820191906000526020600020905b8154815290600101906020018083116103d457829003601f168201915b5050505050905090565b600033610409818585610cd3565b5060019392505050565b600033610421858285610df8565b61042c858585610e8a565b506001949350505050565b6000610441611064565b905090565b3360008181526034602090815260408083206001600160a01b03871684529091528120549091906104099082908690610480908790611a5b565b610cd3565b60cc5460405163441130d560e01b81526b033b2e3c9fd0803ce800000060048201526000916001600160a01b03169063441130d590602401602060405180830381865afa1580156104da573d6000803e3d6000fd5b505050506040513d601f19601f820116820180604052508101906104419190611a81565b60cc54604051634b64fcd160e01b815260048101839052600091610578916001600160a01b0390911690634b64fcd1906024015b602060405180830381865afa15801561054f573d6000803e3d6000fd5b505050506040513d601f19601f820116820180604052508101906105739190611a81565b6110df565b92915050565b60cc546000906001600160a01b031663441130d561059b84611102565b6040518263ffffffff1660e01b81526004016105b991815260200190565b602060405180830381865afa1580156105d6573d6000803e3d6000fd5b505050506040513d601f19601f820116820180604052508101906105789190611a81565b6001600160a01b038116600090815260996020526040812054610578565b60cc54604051634b64fcd160e01b8152670de0b6b3a76400006004820152600091610441916001600160a01b0390911690634b64fcd190602401610532565b60606037805461037890611a26565b3360008181526034602090815260408083206001600160a01b0387168452909152812054909190838110156107085760405162461bcd60e51b815260206004820152602560248201527f45524332303a2064656372656173656420616c6c6f77616e63652062656c6f7760448201527f207a65726f00000000000000000000000000000000000000000000000000000060648201526084015b60405180910390fd5b61042c8286868403610cd3565b600033610409818585610e8a565b600054610100900460ff16158080156107435750600054600160ff909116105b8061075d5750303b15801561075d575060005460ff166001145b6107cf5760405162461bcd60e51b815260206004820152602e60248201527f496e697469616c697a61626c653a20636f6e747261637420697320616c72656160448201527f647920696e697469616c697a656400000000000000000000000000000000000060648201526084016106ff565b6000805460ff1916600117905580156107f2576000805461ff0019166101001790555b6108306040518060400160405280601a81526020017f57726170706564206c6971756964207374616b6564204d54524700000000000081525061111d565b6108a46040518060400160405280601a81526020017f57726170706564206c6971756964207374616b6564204d5452470000000000008152506040518060400160405280600781526020017f7773744d545247000000000000000000000000000000000000000000000000008152506111ae565b60cc80547fffffffffffffffffffffffff0000000000000000000000000000000000000000166001600160a01b038416179055801561091d576000805461ff0019169055604051600181527f7f26b83ff96e1f2b6a682f133852f6798a09c465da95921460cefb38474024989060200160405180910390a15b5050565b834211156109715760405162461bcd60e51b815260206004820152601d60248201527f45524332305065726d69743a206578706972656420646561646c696e6500000060448201526064016106ff565b60007f6e71edae12b1b97f4d1f60370fef10105fa2faae0126114a169c64845d6126c98888886109a08c611223565b6040805160208101969096526001600160a01b0394851690860152929091166060840152608083015260a082015260c0810186905260e00160405160208183030381529060405280519060200120905060006109fb82611249565b90506000610a0b82878787611297565b9050896001600160a01b0316816001600160a01b031614610a6e5760405162461bcd60e51b815260206004820152601e60248201527f45524332305065726d69743a20696e76616c6964207369676e6174757265000060448201526064016106ff565b610a798a8a8a610cd3565b50505050505050505050565b6000808211610afc5760405162461bcd60e51b815260206004820152602760248201527f7773744d5452473a207a65726f20616d6f756e7420756e77726170206e6f742060448201527f616c6c6f7765640000000000000000000000000000000000000000000000000060648201526084016106ff565b60cc546000906001600160a01b031663441130d5610b1985611102565b6040518263ffffffff1660e01b8152600401610b3791815260200190565b602060405180830381865afa158015610b54573d6000803e3d6000fd5b505050506040513d601f19601f82011682018060405250810190610b789190611a81565b9050610b8433846112bf565b60cc5460405163a9059cbb60e01b8152336004820152602481018390526001600160a01b039091169063a9059cbb906044015b6020604051808303816000875af1158015610bd6573d6000803e3d6000fd5b505050506040513d601f19601f82011682018060405250810190610bfa9190611a9a565b5092915050565b6000808211610c525760405162461bcd60e51b815260206004820152601f60248201527f7773744d5452473a2063616e27742077726170207a65726f2073744d5452470060448201526064016106ff565b60cc54604051634b64fcd160e01b815260048101849052600091610c8a916001600160a01b0390911690634b64fcd190602401610532565b9050610c9633826113f0565b60cc546040516323b872dd60e01b8152336004820152306024820152604481018590526001600160a01b03909116906323b872dd90606401610bb7565b6001600160a01b038316610d355760405162461bcd60e51b8152602060048201526024808201527f45524332303a20617070726f76652066726f6d20746865207a65726f206164646044820152637265737360e01b60648201526084016106ff565b6001600160a01b038216610d965760405162461bcd60e51b815260206004820152602260248201527f45524332303a20617070726f766520746f20746865207a65726f206164647265604482015261737360f01b60648201526084016106ff565b6001600160a01b0383811660008181526034602090815260408083209487168084529482529182902085905590518481527f8c5be1e5ebec7d5bd14f71427d1e84f3dd0314c0f7b2291e5b200ac8c7c3b92591015b60405180910390a3505050565b6001600160a01b038381166000908152603460209081526040808320938616835292905220546000198114610e845781811015610e775760405162461bcd60e51b815260206004820152601d60248201527f45524332303a20696e73756666696369656e7420616c6c6f77616e636500000060448201526064016106ff565b610e848484848403610cd3565b50505050565b6001600160a01b038316610f065760405162461bcd60e51b815260206004820152602560248201527f45524332303a207472616e736665722066726f6d20746865207a65726f20616460448201527f647265737300000000000000000000000000000000000000000000000000000060648201526084016106ff565b6001600160a01b038216610f685760405162461bcd60e51b815260206004820152602360248201527f45524332303a207472616e7366657220746f20746865207a65726f206164647260448201526265737360e81b60648201526084016106ff565b6001600160a01b03831660009081526033602052604090205481811015610ff75760405162461bcd60e51b815260206004820152602660248201527f45524332303a207472616e7366657220616d6f756e742065786365656473206260448201527f616c616e6365000000000000000000000000000000000000000000000000000060648201526084016106ff565b6001600160a01b0380851660008181526033602052604080822086860390559286168082529083902080548601905591517fddf252ad1be2c89b69c2b068fc378daa952ba7f163c4a11628f55a4df523b3ef906110579086815260200190565b60405180910390a3610e84565b60006104417f8b73c3c69bb8fe3d512ecc4cf759cc79239f7b179b0ffacaa9a75d522b39400f61109360655490565b6066546040805160208101859052908101839052606081018290524660808201523060a082015260009060c0016040516020818303038152906040528051906020012090509392505050565b633b9aca00808204908206631dcd650081106110fc576001820191505b50919050565b633b9aca00818102908104821461111857600080fd5b919050565b600054610100900460ff166111885760405162461bcd60e51b815260206004820152602b60248201527f496e697469616c697a61626c653a20636f6e7472616374206973206e6f74206960448201526a6e697469616c697a696e6760a81b60648201526084016106ff565b6111ab81604051806040016040528060018152602001603160f81b8152506114b1565b50565b600054610100900460ff166112195760405162461bcd60e51b815260206004820152602b60248201527f496e697469616c697a61626c653a20636f6e7472616374206973206e6f74206960448201526a6e697469616c697a696e6760a81b60648201526084016106ff565b61091d8282611536565b6001600160a01b03811660009081526099602052604090208054600181018255906110fc565b6000610578611256611064565b8360405161190160f01b6020820152602281018390526042810182905260009060620160405160208183030381529060405280519060200120905092915050565b60008060006112a8878787876115c8565b915091506112b58161168c565b5095945050505050565b6001600160a01b03821661131f5760405162461bcd60e51b815260206004820152602160248201527f45524332303a206275726e2066726f6d20746865207a65726f206164647265736044820152607360f81b60648201526084016106ff565b6001600160a01b038216600090815260336020526040902054818110156113935760405162461bcd60e51b815260206004820152602260248201527f45524332303a206275726e20616d6f756e7420657863656564732062616c616e604482015261636560f01b60648201526084016106ff565b6001600160a01b03831660008181526033602090815260408083208686039055603580548790039055518581529192917fddf252ad1be2c89b69c2b068fc378daa952ba7f163c4a11628f55a4df523b3ef9101610deb565b505050565b6001600160a01b0382166114465760405162461bcd60e51b815260206004820152601f60248201527f45524332303a206d696e7420746f20746865207a65726f20616464726573730060448201526064016106ff565b80603560008282546114589190611a5b565b90915550506001600160a01b0382166000818152603360209081526040808320805486019055518481527fddf252ad1be2c89b69c2b068fc378daa952ba7f163c4a11628f55a4df523b3ef910160405180910390a35050565b600054610100900460ff1661151c5760405162461bcd60e51b815260206004820152602b60248201527f496e697469616c697a61626c653a20636f6e7472616374206973206e6f74206960448201526a6e697469616c697a696e6760a81b60648201526084016106ff565b815160209283012081519190920120606591909155606655565b600054610100900460ff166115a15760405162461bcd60e51b815260206004820152602b60248201527f496e697469616c697a61626c653a20636f6e7472616374206973206e6f74206960448201526a6e697469616c697a696e6760a81b60648201526084016106ff565b81516115b49060369060208501906117da565b5080516113eb9060379060208401906117da565b6000807f7fffffffffffffffffffffffffffffff5d576e7357a4501ddfe92f46681b20a08311156115ff5750600090506003611683565b6040805160008082526020820180845289905260ff881692820192909252606081018690526080810185905260019060a0016020604051602081039080840390855afa158015611653573d6000803e3d6000fd5b5050604051601f1901519150506001600160a01b03811661167c57600060019250925050611683565b9150600090505b94509492505050565b60008160048111156116a0576116a0611abc565b14156116a95750565b60018160048111156116bd576116bd611abc565b141561170b5760405162461bcd60e51b815260206004820152601860248201527f45434453413a20696e76616c6964207369676e6174757265000000000000000060448201526064016106ff565b600281600481111561171f5761171f611abc565b141561176d5760405162461bcd60e51b815260206004820152601f60248201527f45434453413a20696e76616c6964207369676e6174757265206c656e6774680060448201526064016106ff565b600381600481111561178157611781611abc565b14156111ab5760405162461bcd60e51b815260206004820152602260248201527f45434453413a20696e76616c6964207369676e6174757265202773272076616c604482015261756560f01b60648201526084016106ff565b8280546117e690611a26565b90600052602060002090601f016020900481019282611808576000855561184e565b82601f1061182157805160ff191683800117855561184e565b8280016001018555821561184e579182015b8281111561184e578251825591602001919060010190611833565b5061185a92915061185e565b5090565b5b8082111561185a576000815560010161185f565b600060208083528351808285015260005b818110156118a057858101830151858201604001528201611884565b818111156118b2576000604083870101525b50601f01601f1916929092016040019392505050565b80356001600160a01b038116811461111857600080fd5b600080604083850312156118f257600080fd5b6118fb836118c8565b946020939093013593505050565b60008060006060848603121561191e57600080fd5b611927846118c8565b9250611935602085016118c8565b9150604084013590509250925092565b60006020828403121561195757600080fd5b5035919050565b60006020828403121561197057600080fd5b611979826118c8565b9392505050565b600080600080600080600060e0888a03121561199b57600080fd5b6119a4886118c8565b96506119b2602089016118c8565b95506040880135945060608801359350608088013560ff811681146119d657600080fd5b9699959850939692959460a0840135945060c09093013592915050565b60008060408385031215611a0657600080fd5b611a0f836118c8565b9150611a1d602084016118c8565b90509250929050565b600181811c90821680611a3a57607f821691505b602082108114156110fc57634e487b7160e01b600052602260045260246000fd5b60008219821115611a7c57634e487b7160e01b600052601160045260246000fd5b500190565b600060208284031215611a9357600080fd5b5051919050565b600060208284031215611aac57600080fd5b8151801515811461197957600080fd5b634e487b7160e01b600052602160045260246000fdfea2646970667358221220fd3d616791df2d521aa6e905de05a746c0e92c910859348a78a4d5159fdd301b64736f6c634300080b0033",
  "linkReferences": {},
  "deployedLinkReferences": {}
}