{
  "_format": "hh-sol-artifact-1",
  "contractName": "MeterGovERC20Permit",
  "sourceName": "contracts/MeterGovERC20Permit.sol",
  "abi": [
    {
      "anonymous": false,
      "inputs": [
        {
          "indexed": true,
          "internalType": "address",
          "name": "_owner",
          "type": "address"
        },
        {
          "indexed": true,
          "internalType": "address",
          "name": "_spender",
          "type": "address"
        },
        {
          "indexed": false,
          "internalType": "uint256",
          "name": "_value",
          "type": "uint256"
        }
      ],
      "name": "Approval",
      "type": "event"
    },
    {
      "anonymous": false,
      "inputs": [
        {
          "indexed": true,
          "internalType": "address",
          "name": "_from",
          "type": "address"
        },
        {
          "indexed": true,
          "internalType": "address",
          "name": "_to",
          "type": "address"
        },
        {
          "indexed": false,
          "internalType": "uint256",
          "name": "_value",
          "type": "uint256"
        }
      ],
      "name": "Transfer",
      "type": "event"
    },
    {
      "inputs": [],
      "name": "DOMAIN_SEPARATOR",
      "outputs": [
        {
          "internalType": "bytes32",
          "name": "",
          "type": "bytes32"
        }
      ],
      "stateMutability": "view",
      "type": "function"
    },
    {
      "inputs": [],
      "name": "_CACHED_CHAIN_ID",
      "outputs": [
        {
          "internalType": "uint256",
          "name": "",
          "type": "uint256"
        }
      ],
      "stateMutability": "view",
      "type": "function"
    },
    {
      "inputs": [],
      "name": "_CACHED_DOMAIN_SEPARATOR",
      "outputs": [
        {
          "internalType": "bytes32",
          "name": "",
          "type": "bytes32"
        }
      ],
      "stateMutability": "view",
      "type": "function"
    },
    {
      "inputs": [],
      "name": "_CACHED_THIS",
      "outputs": [
        {
          "internalType": "address",
          "name": "",
          "type": "address"
        }
      ],
      "stateMutability": "view",
      "type": "function"
    },
    {
      "inputs": [],
      "name": "_CONST_PERMIT_TYPEHASH",
      "outputs": [
        {
          "internalType": "bytes32",
          "name": "",
          "type": "bytes32"
        }
      ],
      "stateMutability": "view",
      "type": "function"
    },
    {
      "inputs": [],
      "name": "_HASHED_NAME",
      "outputs": [
        {
          "internalType": "bytes32",
          "name": "",
          "type": "bytes32"
        }
      ],
      "stateMutability": "view",
      "type": "function"
    },
    {
      "inputs": [],
      "name": "_HASHED_VERSION",
      "outputs": [
        {
          "internalType": "bytes32",
          "name": "",
          "type": "bytes32"
        }
      ],
      "stateMutability": "view",
      "type": "function"
    },
    {
      "inputs": [],
      "name": "_TYPE_HASH",
      "outputs": [
        {
          "internalType": "bytes32",
          "name": "",
          "type": "bytes32"
        }
      ],
      "stateMutability": "view",
      "type": "function"
    },
    {
      "inputs": [
        {
          "internalType": "address",
          "name": "_owner",
          "type": "address"
        },
        {
          "internalType": "address",
          "name": "_spender",
          "type": "address"
        }
      ],
      "name": "allowance",
      "outputs": [
        {
          "internalType": "uint256",
          "name": "remaining",
          "type": "uint256"
        }
      ],
      "stateMutability": "view",
      "type": "function"
    },
    {
      "inputs": [
        {
          "internalType": "address",
          "name": "_spender",
          "type": "address"
        },
        {
          "internalType": "uint256",
          "name": "_value",
          "type": "uint256"
        }
      ],
      "name": "approve",
      "outputs": [
        {
          "internalType": "bool",
          "name": "success",
          "type": "bool"
        }
      ],
      "stateMutability": "nonpayable",
      "type": "function"
    },
    {
      "inputs": [
        {
          "internalType": "address",
          "name": "_owner",
          "type": "address"
        }
      ],
      "name": "balanceOf",
      "outputs": [
        {
          "internalType": "uint256",
          "name": "balance",
          "type": "uint256"
        }
      ],
      "stateMutability": "view",
      "type": "function"
    },
    {
      "inputs": [
        {
          "internalType": "address",
          "name": "_owner",
          "type": "address"
        }
      ],
      "name": "balanceOfBoundMtrg",
      "outputs": [
        {
          "internalType": "uint256",
          "name": "balance",
          "type": "uint256"
        }
      ],
      "stateMutability": "view",
      "type": "function"
    },
    {
      "inputs": [],
      "name": "decimals",
      "outputs": [
        {
          "internalType": "uint8",
          "name": "",
          "type": "uint8"
        }
      ],
      "stateMutability": "pure",
      "type": "function"
    },
    {
      "inputs": [],
      "name": "name",
      "outputs": [
        {
          "internalType": "string",
          "name": "",
          "type": "string"
        }
      ],
      "stateMutability": "pure",
      "type": "function"
    },
    {
      "inputs": [
        {
          "internalType": "address",
          "name": "owner",
          "type": "address"
        }
      ],
      "name": "nonces",
      "outputs": [
        {
          "internalType": "uint256",
          "name": "",
          "type": "uint256"
        }
      ],
      "stateMutability": "view",
      "type": "function"
    },
    {
      "inputs": [
        {
          "internalType": "address",
          "name": "owner",
          "type": "address"
        },
        {
          "internalType": "address",
          "name": "spender",
          "type": "address"
        },
        {
          "internalType": "uint256",
          "name": "value",
          "type": "uint256"
        },
        {
          "internalType": "uint256",
          "name": "deadline",
          "type": "uint256"
        },
        {
          "internalType": "bytes",
          "name": "signature",
          "type": "bytes"
        }
      ],
      "name": "permit",
      "outputs": [],
      "stateMutability": "nonpayable",
      "type": "function"
    },
    {
      "inputs": [],
      "name": "symbol",
      "outputs": [
        {
          "internalType": "string",
          "name": "",
          "type": "string"
        }
      ],
      "stateMutability": "pure",
      "type": "function"
    },
    {
      "inputs": [],
      "name": "totalBurned",
      "outputs": [
        {
          "internalType": "uint256",
          "name": "",
          "type": "uint256"
        }
      ],
      "stateMutability": "view",
      "type": "function"
    },
    {
      "inputs": [],
      "name": "totalSupply",
      "outputs": [
        {
          "internalType": "uint256",
          "name": "",
          "type": "uint256"
        }
      ],
      "stateMutability": "view",
      "type": "function"
    },
    {
      "inputs": [
        {
          "internalType": "address",
          "name": "_to",
          "type": "address"
        },
        {
          "internalType": "uint256",
          "name": "_amount",
          "type": "uint256"
        }
      ],
      "name": "transfer",
      "outputs": [
        {
          "internalType": "bool",
          "name": "success",
          "type": "bool"
        }
      ],
      "stateMutability": "nonpayable",
      "type": "function"
    },
    {
      "inputs": [
        {
          "internalType": "address",
          "name": "_from",
          "type": "address"
        },
        {
          "internalType": "address",
          "name": "_to",
          "type": "address"
        },
        {
          "internalType": "uint256",
          "name": "_amount",
          "type": "uint256"
        }
      ],
      "name": "transferFrom",
      "outputs": [
        {
          "internalType": "bool",
          "name": "success",
          "type": "bool"
        }
      ],
      "stateMutability": "nonpayable",
      "type": "function"
    }
  ],
  "bytecode": "0x60a0604052600180546001600160a01b0319166a4d657465724e61746976651790557f6e71edae12b1b97f4d1f60370fef10105fa2faae0126114a169c64845d6126c960805234801561005157600080fd5b5060805161100061006a600039600050506110006000f3fe608060405234801561001057600080fd5b50600436106101375760003560e01c806370a08231116100b8578063a9059cbb1161007c578063a9059cbb146102c0578063a9e91e54146102d3578063caac6c82146102fa578063d89135cd14610321578063da28b52714610329578063dd62ed3e1461035c57600080fd5b806370a082311461023e578063712ac56d146102515780637ecebe001461027857806395d89b411461028b5780639fd5a6cf146102ab57600080fd5b8063313ce567116100ff578063313ce567146101c657806334f9d406146101d55780633644e515146101fc5780635d2dab0b146102045780635d5aaa821461022b57600080fd5b806306fdde031461013c578063095ea7b31461017257806318160ddd1461019557806323b872dd146101ab5780632b437d48146101be575b600080fd5b60408051808201909152600881526726b2ba32b923b7bb60c11b60208201525b6040516101699190610d33565b60405180910390f35b610185610180366004610da4565b610393565b6040519015158152602001610169565b61019d6103a7565b604051908152602001610169565b6101856101b9366004610dce565b610419565b61019d605281565b60405160128152602001610169565b61019d7f6e71edae12b1b97f4d1f60370fef10105fa2faae0126114a169c64845d6126c981565b61019d6104db565b61019d7f8b73c3c69bb8fe3d512ecc4cf759cc79239f7b179b0ffacaa9a75d522b39400f81565b61019d610239366004610e0a565b6104e5565b61019d61024c366004610e0a565b61055b565b61019d7fe8245ed8f93ccf147bc8972ab6d5f8278ed994d647700daaa5b7ebde9370aa6f81565b61019d610286366004610e0a565b61058e565b6040805180820190915260048152634d54524760e01b602082015261015c565b6102be6102b9366004610e3b565b6105ac565b005b6101856102ce366004610da4565b61072b565b61019d7f5d0a451daeda5bd9f4095b6c09da34bdf3b91f4b8b8f60e3dd42d9d0d1ed158481565b61019d7f5e422fe6c718eb4b17d6b107d0b546cf8641493faaaddb68e483cd686c1d756c81565b61019d610741565b61034473228ebbee999c6a7ad74a6130e81b12f9fe237ba381565b6040516001600160a01b039091168152602001610169565b61019d61036a366004610f21565b6001600160a01b0391821660009081526020818152604080832093909416825291909152205490565b60006103a033848461078b565b9392505050565b60015460408051620511b760ed1b815290516000926001600160a01b03169163a236e0009160048083019260209291908290030181865afa1580156103f0573d6000803e3d6000fd5b505050506040513d601f19601f820116820180604052508101906104149190610f54565b905090565b6001600160a01b03831660009081526020818152604080832033845290915281205482111561048f5760405162461bcd60e51b815260206004820152601f60248201527f6275696c74696e3a20696e73756666696369656e7420616c6c6f77616e63650060448201526064015b60405180910390fd5b6001600160a01b038416600090815260208181526040808320338452909152812080548492906104c0908490610f6d565b909155506104d190508484846107f1565b5060019392505050565b6000610414610973565b6001546040516398c6fb8d60e01b81526001600160a01b03838116600483015260009216906398c6fb8d906024015b602060405180830381865afa158015610531573d6000803e3d6000fd5b505050506040513d601f19601f820116820180604052508101906105559190610f54565b92915050565b600154604051630a30af2760e41b81526001600160a01b038381166004830152600092169063a30af27090602401610514565b6001600160a01b038116600090815260026020526040812054610555565b814211156105fc5760405162461bcd60e51b815260206004820152601d60248201527f45524332305065726d69743a206578706972656420646561646c696e650000006044820152606401610486565b60007f6e71edae12b1b97f4d1f60370fef10105fa2faae0126114a169c64845d6126c9868686610649836001600160a01b0316600090815260026020526040902080546001810190915590565b6040805160208101969096526001600160a01b0394851690860152929091166060840152608083015260a082015260c0810184905260e00160405160208183030381529060405280519060200120905060006106a482610a66565b905060006106b28285610ab4565b9050876001600160a01b0316816001600160a01b0316146107155760405162461bcd60e51b815260206004820152601e60248201527f45524332305065726d69743a20696e76616c6964207369676e617475726500006044820152606401610486565b61072088888861078b565b505050505050505050565b60006107383384846107f1565b50600192915050565b6001546040805163eaa93f6b60e01b815290516000926001600160a01b03169163eaa93f6b9160048083019260209291908290030181865afa1580156103f0573d6000803e3d6000fd5b6001600160a01b0383811660008181526020818152604080832094871680845294825280832086905551858152919392917f8c5be1e5ebec7d5bd14f71427d1e84f3dd0314c0f7b2291e5b200ac8c7c3b925910160405180910390a35060019392505050565b8015610921576001546040516315df233f60e11b81526001600160a01b0385811660048301526024820184905290911690632bbe467e906044016020604051808303816000875af115801561084a573d6000803e3d6000fd5b505050506040513d601f19601f8201168201806040525081019061086e9190610f92565b6108ba5760405162461bcd60e51b815260206004820152601d60248201527f6275696c74696e3a20696e73756666696369656e742062616c616e63650000006044820152606401610486565b6001546040516337dde9b560e21b81526001600160a01b038481166004830152602482018490529091169063df77a6d490604401600060405180830381600087803b15801561090857600080fd5b505af115801561091c573d6000803e3d6000fd5b505050505b816001600160a01b0316836001600160a01b03167fddf252ad1be2c89b69c2b068fc378daa952ba7f163c4a11628f55a4df523b3ef8360405161096691815260200190565b60405180910390a3505050565b60003073228ebbee999c6a7ad74a6130e81b12f9fe237ba31480156109985750605246145b156109c257507f5d0a451daeda5bd9f4095b6c09da34bdf3b91f4b8b8f60e3dd42d9d0d1ed158490565b50604080517f8b73c3c69bb8fe3d512ecc4cf759cc79239f7b179b0ffacaa9a75d522b39400f6020808301919091527f5e422fe6c718eb4b17d6b107d0b546cf8641493faaaddb68e483cd686c1d756c828401527fe8245ed8f93ccf147bc8972ab6d5f8278ed994d647700daaa5b7ebde9370aa6f60608301524660808301523060a0808401919091528351808403909101815260c0909201909252805191012090565b6000610555610a73610973565b8360405161190160f01b6020820152602281018390526042810182905260009060620160405160208183030381529060405280519060200120905092915050565b6000806000610ac38585610ad8565b91509150610ad081610b1e565b509392505050565b600080825160411415610b0f5760208301516040840151606085015160001a610b0387828585610c6f565b94509450505050610b17565b506000905060025b9250929050565b6000816004811115610b3257610b32610fb4565b1415610b3b5750565b6001816004811115610b4f57610b4f610fb4565b1415610b9d5760405162461bcd60e51b815260206004820152601860248201527f45434453413a20696e76616c6964207369676e617475726500000000000000006044820152606401610486565b6002816004811115610bb157610bb1610fb4565b1415610bff5760405162461bcd60e51b815260206004820152601f60248201527f45434453413a20696e76616c6964207369676e6174757265206c656e677468006044820152606401610486565b6003816004811115610c1357610c13610fb4565b1415610c6c5760405162461bcd60e51b815260206004820152602260248201527f45434453413a20696e76616c6964207369676e6174757265202773272076616c604482015261756560f01b6064820152608401610486565b50565b6000807f7fffffffffffffffffffffffffffffff5d576e7357a4501ddfe92f46681b20a0831115610ca65750600090506003610d2a565b6040805160008082526020820180845289905260ff881692820192909252606081018690526080810185905260019060a0016020604051602081039080840390855afa158015610cfa573d6000803e3d6000fd5b5050604051601f1901519150506001600160a01b038116610d2357600060019250925050610d2a565b9150600090505b94509492505050565b600060208083528351808285015260005b81811015610d6057858101830151858201604001528201610d44565b81811115610d72576000604083870101525b50601f01601f1916929092016040019392505050565b80356001600160a01b0381168114610d9f57600080fd5b919050565b60008060408385031215610db757600080fd5b610dc083610d88565b946020939093013593505050565b600080600060608486031215610de357600080fd5b610dec84610d88565b9250610dfa60208501610d88565b9150604084013590509250925092565b600060208284031215610e1c57600080fd5b6103a082610d88565b634e487b7160e01b600052604160045260246000fd5b600080600080600060a08688031215610e5357600080fd5b610e5c86610d88565b9450610e6a60208701610d88565b93506040860135925060608601359150608086013567ffffffffffffffff80821115610e9557600080fd5b818801915088601f830112610ea957600080fd5b813581811115610ebb57610ebb610e25565b604051601f8201601f19908116603f01168101908382118183101715610ee357610ee3610e25565b816040528281528b6020848701011115610efc57600080fd5b8260208601602083013760006020848301015280955050505050509295509295909350565b60008060408385031215610f3457600080fd5b610f3d83610d88565b9150610f4b60208401610d88565b90509250929050565b600060208284031215610f6657600080fd5b5051919050565b600082821015610f8d57634e487b7160e01b600052601160045260246000fd5b500390565b600060208284031215610fa457600080fd5b815180151581146103a057600080fd5b634e487b7160e01b600052602160045260246000fdfea264697066735822122079623998b1abbe56efc66a7e4627c32da2c74291a94fe5e58c5818ba8cfb231b64736f6c634300080b0033",
  "linkReferences": {},
  "deployedLinkReferences": {}
}