{
  "_format": "hh-sol-artifact-1",
  "contractName": "MeterERC20Permit",
  "sourceName": "contracts/MeterERC20Permit.sol",
  "abi": [
    {
      "anonymous": false,
      "inputs": [
        {
          "indexed": true,
          "internalType": "address",
          "name": "_owner",
          "type": "address"
        },
        {
          "indexed": true,
          "internalType": "address",
          "name": "_spender",
          "type": "address"
        },
        {
          "indexed": false,
          "internalType": "uint256",
          "name": "_value",
          "type": "uint256"
        }
      ],
      "name": "Approval",
      "type": "event"
    },
    {
      "anonymous": false,
      "inputs": [
        {
          "indexed": true,
          "internalType": "address",
          "name": "_from",
          "type": "address"
        },
        {
          "indexed": true,
          "internalType": "address",
          "name": "_to",
          "type": "address"
        },
        {
          "indexed": false,
          "internalType": "uint256",
          "name": "_value",
          "type": "uint256"
        }
      ],
      "name": "Transfer",
      "type": "event"
    },
    {
      "inputs": [],
      "name": "DOMAIN_SEPARATOR",
      "outputs": [
        {
          "internalType": "bytes32",
          "name": "",
          "type": "bytes32"
        }
      ],
      "stateMutability": "view",
      "type": "function"
    },
    {
      "inputs": [],
      "name": "_CONST_PERMIT_TYPEHASH",
      "outputs": [
        {
          "internalType": "bytes32",
          "name": "",
          "type": "bytes32"
        }
      ],
      "stateMutability": "view",
      "type": "function"
    },
    {
      "inputs": [
        {
          "internalType": "address",
          "name": "_owner",
          "type": "address"
        },
        {
          "internalType": "address",
          "name": "_spender",
          "type": "address"
        }
      ],
      "name": "allowance",
      "outputs": [
        {
          "internalType": "uint256",
          "name": "remaining",
          "type": "uint256"
        }
      ],
      "stateMutability": "view",
      "type": "function"
    },
    {
      "inputs": [
        {
          "internalType": "address",
          "name": "_spender",
          "type": "address"
        },
        {
          "internalType": "uint256",
          "name": "_value",
          "type": "uint256"
        }
      ],
      "name": "approve",
      "outputs": [
        {
          "internalType": "bool",
          "name": "success",
          "type": "bool"
        }
      ],
      "stateMutability": "nonpayable",
      "type": "function"
    },
    {
      "inputs": [
        {
          "internalType": "address",
          "name": "_owner",
          "type": "address"
        }
      ],
      "name": "balanceOf",
      "outputs": [
        {
          "internalType": "uint256",
          "name": "balance",
          "type": "uint256"
        }
      ],
      "stateMutability": "view",
      "type": "function"
    },
    {
      "inputs": [
        {
          "internalType": "address",
          "name": "_owner",
          "type": "address"
        }
      ],
      "name": "balanceOfBoundMtr",
      "outputs": [
        {
          "internalType": "uint256",
          "name": "balance",
          "type": "uint256"
        }
      ],
      "stateMutability": "view",
      "type": "function"
    },
    {
      "inputs": [],
      "name": "decimals",
      "outputs": [
        {
          "internalType": "uint8",
          "name": "",
          "type": "uint8"
        }
      ],
      "stateMutability": "pure",
      "type": "function"
    },
    {
      "inputs": [
        {
          "internalType": "address",
          "name": "_from",
          "type": "address"
        },
        {
          "internalType": "address",
          "name": "_to",
          "type": "address"
        },
        {
          "internalType": "uint256",
          "name": "_amount",
          "type": "uint256"
        }
      ],
      "name": "move",
      "outputs": [
        {
          "internalType": "bool",
          "name": "success",
          "type": "bool"
        }
      ],
      "stateMutability": "nonpayable",
      "type": "function"
    },
    {
      "inputs": [],
      "name": "name",
      "outputs": [
        {
          "internalType": "string",
          "name": "",
          "type": "string"
        }
      ],
      "stateMutability": "pure",
      "type": "function"
    },
    {
      "inputs": [
        {
          "internalType": "address",
          "name": "owner",
          "type": "address"
        }
      ],
      "name": "nonces",
      "outputs": [
        {
          "internalType": "uint256",
          "name": "",
          "type": "uint256"
        }
      ],
      "stateMutability": "view",
      "type": "function"
    },
    {
      "inputs": [
        {
          "internalType": "address",
          "name": "owner",
          "type": "address"
        },
        {
          "internalType": "address",
          "name": "spender",
          "type": "address"
        },
        {
          "internalType": "uint256",
          "name": "value",
          "type": "uint256"
        },
        {
          "internalType": "uint256",
          "name": "deadline",
          "type": "uint256"
        },
        {
          "internalType": "bytes",
          "name": "signature",
          "type": "bytes"
        }
      ],
      "name": "permit",
      "outputs": [],
      "stateMutability": "nonpayable",
      "type": "function"
    },
    {
      "inputs": [],
      "name": "symbol",
      "outputs": [
        {
          "internalType": "string",
          "name": "",
          "type": "string"
        }
      ],
      "stateMutability": "pure",
      "type": "function"
    },
    {
      "inputs": [],
      "name": "totalBurned",
      "outputs": [
        {
          "internalType": "uint256",
          "name": "",
          "type": "uint256"
        }
      ],
      "stateMutability": "view",
      "type": "function"
    },
    {
      "inputs": [],
      "name": "totalSupply",
      "outputs": [
        {
          "internalType": "uint256",
          "name": "",
          "type": "uint256"
        }
      ],
      "stateMutability": "view",
      "type": "function"
    },
    {
      "inputs": [
        {
          "internalType": "address",
          "name": "_to",
          "type": "address"
        },
        {
          "internalType": "uint256",
          "name": "_amount",
          "type": "uint256"
        }
      ],
      "name": "transfer",
      "outputs": [
        {
          "internalType": "bool",
          "name": "success",
          "type": "bool"
        }
      ],
      "stateMutability": "nonpayable",
      "type": "function"
    },
    {
      "inputs": [
        {
          "internalType": "address",
          "name": "_from",
          "type": "address"
        },
        {
          "internalType": "address",
          "name": "_to",
          "type": "address"
        },
        {
          "internalType": "uint256",
          "name": "_amount",
          "type": "uint256"
        }
      ],
      "name": "transferFrom",
      "outputs": [
        {
          "internalType": "bool",
          "name": "success",
          "type": "bool"
        }
      ],
      "stateMutability": "nonpayable",
      "type": "function"
    }
  ],
  "bytecode": "0x610160604052600180546001600160a01b0319166a4d657465724e61746976651790557f5d0a451daeda5bd9f4095b6c09da34bdf3b91f4b8b8f60e3dd42d9d0d1ed1584608052605260a05273228ebbee999c6a7ad74a6130e81b12f9fe237ba360c0527f5e422fe6c718eb4b17d6b107d0b546cf8641493faaaddb68e483cd686c1d756c60e0527fe8245ed8f93ccf147bc8972ab6d5f8278ed994d647700daaa5b7ebde9370aa6f610100527f8b73c3c69bb8fe3d512ecc4cf759cc79239f7b179b0ffacaa9a75d522b39400f610120527f6e71edae12b1b97f4d1f60370fef10105fa2faae0126114a169c64845d6126c96101405234801561010257600080fd5b5060805160a05160c05160e05161010051610120516101405161115c61015a6000396000505060006109e301526000610a3201526000610a0d0152600061096601526000610990015260006109ba015261115c6000f3fe608060405234801561001057600080fd5b50600436106101005760003560e01c80637ecebe0011610097578063a9059cbb11610066578063a9059cbb1461022f578063bb35783b14610242578063d89135cd14610255578063dd62ed3e1461025d57600080fd5b80637ecebe00146101d5578063883cb39d146101e857806395d89b41146101fb5780639fd5a6cf1461021a57600080fd5b8063313ce567116100d3578063313ce5671461018457806334f9d406146101935780633644e515146101ba57806370a08231146101c257600080fd5b806306fdde0314610105578063095ea7b31461013857806318160ddd1461015b57806323b872dd14610171575b600080fd5b60408051808201909152600581526426b2ba32b960d91b60208201525b60405161012f9190610e46565b60405180910390f35b61014b610146366004610eb0565b610294565b604051901515815260200161012f565b6101636102a8565b60405190815260200161012f565b61014b61017f366004610edc565b61031b565b6040516012815260200161012f565b6101637f6e71edae12b1b97f4d1f60370fef10105fa2faae0126114a169c64845d6126c981565b6101636103dd565b6101636101d0366004610f1d565b6103e7565b6101636101e3366004610f1d565b61045d565b6101636101f6366004610f1d565b61047b565b60408051808201909152600381526226aa2960e91b6020820152610122565b61022d610228366004610f50565b6104ae565b005b61014b61023d366004610eb0565b61062d565b61014b610250366004610edc565b610643565b610163610727565b61016361026b36600461103a565b6001600160a01b0391821660009081526020818152604080832093909416825291909152205490565b60006102a1338484610771565b9392505050565b6001546040805163076e361d60e01b815290516000926001600160a01b03169163076e361d9160048083019260209291908290030181865afa1580156102f2573d6000803e3d6000fd5b505050506040513d601f19601f820116820180604052508101906103169190611073565b905090565b6001600160a01b0383166000908152602081815260408083203384529091528120548211156103915760405162461bcd60e51b815260206004820152601f60248201527f6275696c74696e3a20696e73756666696369656e7420616c6c6f77616e63650060448201526064015b60405180910390fd5b6001600160a01b038416600090815260208181526040808320338452909152812080548492906103c29084906110a2565b909155506103d390508484846107d7565b5060019392505050565b6000610316610959565b600154604051630511d90360e01b81526001600160a01b0383811660048301526000921690630511d903906024015b602060405180830381865afa158015610433573d6000803e3d6000fd5b505050506040513d601f19601f820116820180604052508101906104579190611073565b92915050565b6001600160a01b038116600090815260026020526040812054610457565b60015460405163186d514160e11b81526001600160a01b03838116600483015260009216906330daa28290602401610416565b814211156104fe5760405162461bcd60e51b815260206004820152601d60248201527f45524332305065726d69743a206578706972656420646561646c696e650000006044820152606401610388565b60007f6e71edae12b1b97f4d1f60370fef10105fa2faae0126114a169c64845d6126c986868661054b836001600160a01b0316600090815260026020526040902080546001810190915590565b6040805160208101969096526001600160a01b0394851690860152929091166060840152608083015260a082015260c0810184905260e00160405160208183030381529060405280519060200120905060006105a682610a80565b905060006105b48285610ace565b9050876001600160a01b0316816001600160a01b0316146106175760405162461bcd60e51b815260206004820152601e60248201527f45524332305065726d69743a20696e76616c6964207369676e617475726500006044820152606401610388565b610622888888610771565b505050505050505050565b600061063a3384846107d7565b50600192915050565b60006001600160a01b0384163314806106d0575060015460405163059950e960e01b81526001600160a01b0386811660048301523392169063059950e990602401602060405180830381865afa1580156106a1573d6000803e3d6000fd5b505050506040513d601f19601f820116820180604052508101906106c591906110b9565b6001600160a01b0316145b61071c5760405162461bcd60e51b815260206004820181905260248201527f6275696c74696e3a2073656c66206f72206d61737465722072657175697265646044820152606401610388565b6103d38484846107d7565b6001546040805163ccc7df9d60e01b815290516000926001600160a01b03169163ccc7df9d9160048083019260209291908290030181865afa1580156102f2573d6000803e3d6000fd5b6001600160a01b0383811660008181526020818152604080832094871680845294825280832086905551858152919392917f8c5be1e5ebec7d5bd14f71427d1e84f3dd0314c0f7b2291e5b200ac8c7c3b925910160405180910390a35060019392505050565b80156109075760015460405163f14645f560e01b81526001600160a01b038581166004830152602482018490529091169063f14645f5906044016020604051808303816000875af1158015610830573d6000803e3d6000fd5b505050506040513d601f19601f8201168201806040525081019061085491906110d6565b6108a05760405162461bcd60e51b815260206004820152601d60248201527f6275696c74696e3a20696e73756666696369656e742062616c616e63650000006044820152606401610388565b60015460405163740b155f60e01b81526001600160a01b038481166004830152602482018490529091169063740b155f90604401600060405180830381600087803b1580156108ee57600080fd5b505af1158015610902573d6000803e3d6000fd5b505050505b816001600160a01b0316836001600160a01b03167fddf252ad1be2c89b69c2b068fc378daa952ba7f163c4a11628f55a4df523b3ef8360405161094c91815260200190565b60405180910390a3505050565b6000306001600160a01b037f0000000000000000000000000000000000000000000000000000000000000000161480156109b257507f000000000000000000000000000000000000000000000000000000000000000046145b156109dc57507f000000000000000000000000000000000000000000000000000000000000000090565b50604080517f00000000000000000000000000000000000000000000000000000000000000006020808301919091527f0000000000000000000000000000000000000000000000000000000000000000828401527f000000000000000000000000000000000000000000000000000000000000000060608301524660808301523060a0808401919091528351808403909101815260c0909201909252805191012090565b6000610457610a8d610959565b8360405161190160f01b6020820152602281018390526042810182905260009060620160405160208183030381529060405280519060200120905092915050565b6000806000610add8585610af2565b91509150610aea81610b62565b509392505050565b600080825160411415610b295760208301516040840151606085015160001a610b1d87828585610d20565b94509450505050610b5b565b825160401415610b535760208301516040840151610b48868383610e0d565b935093505050610b5b565b506000905060025b9250929050565b6000816004811115610b7657610b766110f8565b1415610b7f5750565b6001816004811115610b9357610b936110f8565b1415610be15760405162461bcd60e51b815260206004820152601860248201527f45434453413a20696e76616c6964207369676e617475726500000000000000006044820152606401610388565b6002816004811115610bf557610bf56110f8565b1415610c435760405162461bcd60e51b815260206004820152601f60248201527f45434453413a20696e76616c6964207369676e6174757265206c656e677468006044820152606401610388565b6003816004811115610c5757610c576110f8565b1415610cb05760405162461bcd60e51b815260206004820152602260248201527f45434453413a20696e76616c6964207369676e6174757265202773272076616c604482015261756560f01b6064820152608401610388565b6004816004811115610cc457610cc46110f8565b1415610d1d5760405162461bcd60e51b815260206004820152602260248201527f45434453413a20696e76616c6964207369676e6174757265202776272076616c604482015261756560f01b6064820152608401610388565b50565b6000807f7fffffffffffffffffffffffffffffff5d576e7357a4501ddfe92f46681b20a0831115610d575750600090506003610e04565b8460ff16601b14158015610d6f57508460ff16601c14155b15610d805750600090506004610e04565b6040805160008082526020820180845289905260ff881692820192909252606081018690526080810185905260019060a0016020604051602081039080840390855afa158015610dd4573d6000803e3d6000fd5b5050604051601f1901519150506001600160a01b038116610dfd57600060019250925050610e04565b9150600090505b94509492505050565b6000806001600160ff1b03831681610e2a60ff86901c601b61110e565b9050610e3887828885610d20565b935093505050935093915050565b600060208083528351808285015260005b81811015610e7357858101830151858201604001528201610e57565b81811115610e85576000604083870101525b50601f01601f1916929092016040019392505050565b6001600160a01b0381168114610d1d57600080fd5b60008060408385031215610ec357600080fd5b8235610ece81610e9b565b946020939093013593505050565b600080600060608486031215610ef157600080fd5b8335610efc81610e9b565b92506020840135610f0c81610e9b565b929592945050506040919091013590565b600060208284031215610f2f57600080fd5b81356102a181610e9b565b634e487b7160e01b600052604160045260246000fd5b600080600080600060a08688031215610f6857600080fd5b8535610f7381610e9b565b94506020860135610f8381610e9b565b93506040860135925060608601359150608086013567ffffffffffffffff80821115610fae57600080fd5b818801915088601f830112610fc257600080fd5b813581811115610fd457610fd4610f3a565b604051601f8201601f19908116603f01168101908382118183101715610ffc57610ffc610f3a565b816040528281528b602084870101111561101557600080fd5b8260208601602083013760006020848301015280955050505050509295509295909350565b6000806040838503121561104d57600080fd5b823561105881610e9b565b9150602083013561106881610e9b565b809150509250929050565b60006020828403121561108557600080fd5b5051919050565b634e487b7160e01b600052601160045260246000fd5b6000828210156110b4576110b461108c565b500390565b6000602082840312156110cb57600080fd5b81516102a181610e9b565b6000602082840312156110e857600080fd5b815180151581146102a157600080fd5b634e487b7160e01b600052602160045260246000fd5b600082198211156111215761112161108c565b50019056fea26469706673582212201fdfcb9a46a6a9ecbaf37f32dc1d4e3924c89bde8cf48e932b66a652568133fe64736f6c634300080b0033",
  "linkReferences": {},
  "deployedLinkReferences": {}
}