{
  "_format": "hh-sol-artifact-1",
  "contractName": "ScriptEngineV2",
  "sourceName": "contracts/ScriptEngineV2.sol",
  "abi": [
    {
      "inputs": [],
      "name": "boundedMTRG",
      "outputs": [
        {
          "internalType": "uint256",
          "name": "",
          "type": "uint256"
        }
      ],
      "stateMutability": "view",
      "type": "function"
    },
    {
      "inputs": [
        {
          "internalType": "bytes32",
          "name": "bucketID",
          "type": "bytes32"
        }
      ],
      "name": "bucketClose",
      "outputs": [],
      "stateMutability": "nonpayable",
      "type": "function"
    },
    {
      "inputs": [
        {
          "internalType": "bytes32",
          "name": "bucketID",
          "type": "bytes32"
        },
        {
          "internalType": "uint256",
          "name": "amount",
          "type": "uint256"
        }
      ],
      "name": "bucketDeposit",
      "outputs": [
        {
          "internalType": "bool",
          "name": "success",
          "type": "bool"
        }
      ],
      "stateMutability": "nonpayable",
      "type": "function"
    },
    {
      "inputs": [
        {
          "internalType": "bytes32",
          "name": "bucketID",
          "type": "bytes32"
        }
      ],
      "name": "bucketExists",
      "outputs": [
        {
          "internalType": "bool",
          "name": "success",
          "type": "bool"
        }
      ],
      "stateMutability": "view",
      "type": "function"
    },
    {
      "inputs": [
        {
          "internalType": "bytes32",
          "name": "fromBucketID",
          "type": "bytes32"
        },
        {
          "internalType": "bytes32",
          "name": "toBucketID",
          "type": "bytes32"
        }
      ],
      "name": "bucketMerge",
      "outputs": [
        {
          "internalType": "bool",
          "name": "success",
          "type": "bool"
        }
      ],
      "stateMutability": "nonpayable",
      "type": "function"
    },
    {
      "inputs": [
        {
          "internalType": "address",
          "name": "candidate",
          "type": "address"
        },
        {
          "internalType": "uint256",
          "name": "amount",
          "type": "uint256"
        }
      ],
      "name": "bucketOpen",
      "outputs": [
        {
          "internalType": "bytes32",
          "name": "bktID",
          "type": "bytes32"
        },
        {
          "internalType": "bool",
          "name": "success",
          "type": "bool"
        }
      ],
      "stateMutability": "nonpayable",
      "type": "function"
    },
    {
      "inputs": [
        {
          "internalType": "bytes32",
          "name": "fromBucketID",
          "type": "bytes32"
        },
        {
          "internalType": "bytes32",
          "name": "toBucketID",
          "type": "bytes32"
        },
        {
          "internalType": "uint256",
          "name": "amount",
          "type": "uint256"
        }
      ],
      "name": "bucketTransferFund",
      "outputs": [
        {
          "internalType": "bool",
          "name": "success",
          "type": "bool"
        }
      ],
      "stateMutability": "nonpayable",
      "type": "function"
    },
    {
      "inputs": [
        {
          "internalType": "bytes32",
          "name": "bucketID",
          "type": "bytes32"
        },
        {
          "internalType": "address",
          "name": "newCandidateAddr",
          "type": "address"
        }
      ],
      "name": "bucketUpdateCandidate",
      "outputs": [
        {
          "internalType": "bool",
          "name": "success",
          "type": "bool"
        }
      ],
      "stateMutability": "nonpayable",
      "type": "function"
    },
    {
      "inputs": [
        {
          "internalType": "bytes32",
          "name": "bucketID",
          "type": "bytes32"
        }
      ],
      "name": "bucketValue",
      "outputs": [
        {
          "internalType": "uint256",
          "name": "",
          "type": "uint256"
        }
      ],
      "stateMutability": "view",
      "type": "function"
    },
    {
      "inputs": [
        {
          "internalType": "bytes32",
          "name": "bucketID",
          "type": "bytes32"
        },
        {
          "internalType": "uint256",
          "name": "amount",
          "type": "uint256"
        },
        {
          "internalType": "address",
          "name": "recipient",
          "type": "address"
        }
      ],
      "name": "bucketWithdraw",
      "outputs": [
        {
          "internalType": "bytes32",
          "name": "newBktID",
          "type": "bytes32"
        }
      ],
      "stateMutability": "nonpayable",
      "type": "function"
    }
  ],
  "bytecode": "0x6080604052600080546001600160a01b0319166a4d657465724e617469766517905534801561002d57600080fd5b50610e4c8061003d6000396000f3fe608060405234801561001057600080fd5b50600436106100be5760003560e01c8063653d73a21161007657806377d7f9131161005b57806377d7f913146101755780639748bf5b1461018a578063f20975501461019d57600080fd5b8063653d73a21461014f57806372be77a01461016257600080fd5b80633a8dd82a116100a75780633a8dd82a146101135780634a82921014610129578063561f97be1461013c57600080fd5b80631b7846c0146100c35780633060ef72146100eb575b600080fd5b6100d66100d1366004610b2c565b6101b0565b60405190151581526020015b60405180910390f35b6100fe6100f9366004610b6a565b6103ab565b604080519283529015156020830152016100e2565b61011b6105a5565b6040519081526020016100e2565b6100d6610137366004610b94565b610617565b61011b61014a366004610bc0565b610657565b6100d661015d366004610b2c565b610743565b6100d6610170366004610bf5565b610782565b610188610183366004610c21565b61097b565b005b61011b610198366004610c21565b610a50565b6100d66101ab366004610c21565b610abe565b6000805460405163098b0dff60e31b8152336004820152602481018590526044810184905282916001600160a01b031690634c586ff8906064015b600060405180830381865afa158015610208573d6000803e3d6000fd5b505050506040513d6000823e601f3d908101601f191682016040526102309190810190610d08565b905060405160200161028b907f63616e646964617465277320616363756d756c6174656420766f746573203e2081527f313030782063616e6469646174652773206f776e20766f746500000000000000602082015260390190565b60405160208183030381529060405280519060200120816040516020016102b29190610d45565b60405160208183030381529060405280519060200120148061033057506040517218d85b991a59185d19481a5cc81a985a5b1959606a1b602082015260330160405160208183030381529060405280519060200120816040516020016103189190610d45565b60405160208183030381529060405280519060200120145b1561033f5760009150506103a5565b604080516000815260208101808352815190209161035f91849101610d45565b6040516020818303038152906040528051906020012014819061039e5760405162461bcd60e51b81526004016103959190610d61565b60405180910390fd5b5060019150505b92915050565b60008054604051632c57771560e11b81523360048201526001600160a01b0385811660248301526044820185905283926060929116906358aeee2a90606401600060405180830381865afa158015610407573d6000803e3d6000fd5b505050506040513d6000823e601f3d908101601f1916820160405261042f9190810190610d94565b604051919450915061048d906020017f63616e646964617465277320616363756d756c6174656420766f746573203e2081527f313030782063616e6469646174652773206f776e20766f746500000000000000602082015260390190565b60405160208183030381529060405280519060200120816040516020016104b49190610d45565b60405160208183030381529060405280519060200120148061053257506040517218d85b991a59185d19481a5cc81a985a5b1959606a1b6020820152603301604051602081830303815290604052805190602001208160405160200161051a9190610d45565b60405160208183030381529060405280519060200120145b1561054157506000905061059e565b604080516000815260208101808352815190209161056191849101610d45565b604051602081830303815290604052805190602001201481906105975760405162461bcd60e51b81526004016103959190610d61565b5060019150505b9250929050565b600080546040516398c6fb8d60e01b81523360048201526001600160a01b03909116906398c6fb8d90602401602060405180830381865afa1580156105ee573d6000803e3d6000fd5b505050506040513d601f19601f820116820180604052508101906106129190610ddb565b905090565b60008054604051630ea4f86760e41b8152336004820152602481018590526001600160a01b0384811660448301528392169063ea4f8670906064016101eb565b60008054604051634c0f7d2360e11b815233600482015260248101869052604481018590526001600160a01b038481166064830152606092169063981efa4690608401600060405180830381865afa1580156106b7573d6000803e3d6000fd5b505050506040513d6000823e601f3d908101601f191682016040526106df9190810190610d94565b6040805160008152602081018083528151902093955091935061070491849101610d45565b6040516020818303038152906040528051906020012014819061073a5760405162461bcd60e51b81526004016103959190610d61565b50509392505050565b600080546040516346b2e78760e11b8152336004820152602481018590526044810184905282916001600160a01b031690638d65cf0e906064016101eb565b60008054604051631d377a7960e01b815233600482015260248101869052604481018590526064810184905282916001600160a01b031690631d377a7990608401600060405180830381865afa1580156107e0573d6000803e3d6000fd5b505050506040513d6000823e601f3d908101601f191682016040526108089190810190610d08565b9050604051602001610863907f63616e646964617465277320616363756d756c6174656420766f746573203e2081527f313030782063616e6469646174652773206f776e20766f746500000000000000602082015260390190565b604051602081830303815290604052805190602001208160405160200161088a9190610d45565b60405160208183030381529060405280519060200120148061090857506040517218d85b991a59185d19481a5cc81a985a5b1959606a1b602082015260330160405160208183030381529060405280519060200120816040516020016108f09190610d45565b60405160208183030381529060405280519060200120145b15610917576000915050610974565b604080516000815260208101808352815190209161093791849101610d45565b6040516020818303038152906040528051906020012014819061096d5760405162461bcd60e51b81526004016103959190610d61565b5060019150505b9392505050565b60008054604051633a61b1d160e21b8152336004820152602481018490526001600160a01b039091169063e986c74490604401600060405180830381865afa1580156109cb573d6000803e3d6000fd5b505050506040513d6000823e601f3d908101601f191682016040526109f39190810190610d08565b60408051600081526020810180835281519020929350610a1591849101610d45565b60405160208183030381529060405280519060200120148190610a4b5760405162461bcd60e51b81526004016103959190610d61565b505050565b6000805460405163adbd864560e01b8152600481018490526001600160a01b039091169063adbd864590602401602060405180830381865afa158015610a9a573d6000803e3d6000fd5b505050506040513d601f19601f820116820180604052508101906103a59190610ddb565b6000805460405163df17524b60e01b8152600481018490526001600160a01b039091169063df17524b90602401602060405180830381865afa158015610b08573d6000803e3d6000fd5b505050506040513d601f19601f820116820180604052508101906103a59190610df4565b60008060408385031215610b3f57600080fd5b50508035926020909101359150565b80356001600160a01b0381168114610b6557600080fd5b919050565b60008060408385031215610b7d57600080fd5b610b8683610b4e565b946020939093013593505050565b60008060408385031215610ba757600080fd5b82359150610bb760208401610b4e565b90509250929050565b600080600060608486031215610bd557600080fd5b8335925060208401359150610bec60408501610b4e565b90509250925092565b600080600060608486031215610c0a57600080fd5b505081359360208301359350604090920135919050565b600060208284031215610c3357600080fd5b5035919050565b634e487b7160e01b600052604160045260246000fd5b60005b83811015610c6b578181015183820152602001610c53565b83811115610c7a576000848401525b50505050565b600082601f830112610c9157600080fd5b815167ffffffffffffffff80821115610cac57610cac610c3a565b604051601f8301601f19908116603f01168101908282118183101715610cd457610cd4610c3a565b81604052838152866020858801011115610ced57600080fd5b610cfe846020830160208901610c50565b9695505050505050565b600060208284031215610d1a57600080fd5b815167ffffffffffffffff811115610d3157600080fd5b610d3d84828501610c80565b949350505050565b60008251610d57818460208701610c50565b9190910192915050565b6020815260008251806020840152610d80816040850160208701610c50565b601f01601f19169190910160400192915050565b60008060408385031215610da757600080fd5b82519150602083015167ffffffffffffffff811115610dc557600080fd5b610dd185828601610c80565b9150509250929050565b600060208284031215610ded57600080fd5b5051919050565b600060208284031215610e0657600080fd5b8151801515811461097457600080fdfea2646970667358221220c030c3ea89653b9bc137b11b5d9f1599c32727bd321f19e378b86e60d58a570a64736f6c634300080b0033",
  "linkReferences": {},
  "deployedLinkReferences": {}
}