{
  "_format": "hh-sol-artifact-1",
  "contractName": "ScriptEngineV2",
  "sourceName": "contracts/ScriptEngineV2.sol",
  "abi": [
    {
      "inputs": [],
      "name": "boundedMTRG",
      "outputs": [
        {
          "internalType": "uint256",
          "name": "",
          "type": "uint256"
        }
      ],
      "stateMutability": "view",
      "type": "function"
    },
    {
      "inputs": [
        {
          "internalType": "bytes32",
          "name": "bucketID",
          "type": "bytes32"
        }
      ],
      "name": "bucketClose",
      "outputs": [],
      "stateMutability": "nonpayable",
      "type": "function"
    },
    {
      "inputs": [
        {
          "internalType": "bytes32",
          "name": "bucketID",
          "type": "bytes32"
        },
        {
          "internalType": "uint256",
          "name": "amount",
          "type": "uint256"
        }
      ],
      "name": "bucketDeposit",
      "outputs": [],
      "stateMutability": "nonpayable",
      "type": "function"
    },
    {
      "inputs": [
        {
          "internalType": "bytes32",
          "name": "fromBucketID",
          "type": "bytes32"
        },
        {
          "internalType": "bytes32",
          "name": "toBucketID",
          "type": "bytes32"
        }
      ],
      "name": "bucketMerge",
      "outputs": [],
      "stateMutability": "nonpayable",
      "type": "function"
    },
    {
      "inputs": [
        {
          "internalType": "address",
          "name": "candidate",
          "type": "address"
        },
        {
          "internalType": "uint256",
          "name": "amount",
          "type": "uint256"
        }
      ],
      "name": "bucketOpen",
      "outputs": [
        {
          "internalType": "bytes32",
          "name": "bktID",
          "type": "bytes32"
        }
      ],
      "stateMutability": "nonpayable",
      "type": "function"
    },
    {
      "inputs": [
        {
          "internalType": "bytes32",
          "name": "fromBucketID",
          "type": "bytes32"
        },
        {
          "internalType": "bytes32",
          "name": "toBucketID",
          "type": "bytes32"
        },
        {
          "internalType": "uint256",
          "name": "amount",
          "type": "uint256"
        }
      ],
      "name": "bucketTransferFund",
      "outputs": [],
      "stateMutability": "nonpayable",
      "type": "function"
    },
    {
      "inputs": [
        {
          "internalType": "bytes32",
          "name": "bucketID",
          "type": "bytes32"
        },
        {
          "internalType": "address",
          "name": "newCandidateAddr",
          "type": "address"
        }
      ],
      "name": "bucketUpdateCandidate",
      "outputs": [],
      "stateMutability": "nonpayable",
      "type": "function"
    },
    {
      "inputs": [
        {
          "internalType": "bytes32",
          "name": "bucketID",
          "type": "bytes32"
        }
      ],
      "name": "bucketValue",
      "outputs": [
        {
          "internalType": "uint256",
          "name": "",
          "type": "uint256"
        }
      ],
      "stateMutability": "view",
      "type": "function"
    },
    {
      "inputs": [
        {
          "internalType": "bytes32",
          "name": "bucketID",
          "type": "bytes32"
        },
        {
          "internalType": "uint256",
          "name": "amount",
          "type": "uint256"
        },
        {
          "internalType": "address",
          "name": "recipient",
          "type": "address"
        }
      ],
      "name": "bucketWithdraw",
      "outputs": [
        {
          "internalType": "bytes32",
          "name": "newBktID",
          "type": "bytes32"
        }
      ],
      "stateMutability": "nonpayable",
      "type": "function"
    }
  ],
  "bytecode": "0x6080604052600080546001600160a01b0319166a4d657465724e617469766517905534801561002d57600080fd5b50610a1c8061003d6000396000f3fe608060405234801561001057600080fd5b50600436106100935760003560e01c8063561f97be11610066578063561f97be146100ed578063653d73a21461010057806372be77a01461011357806377d7f913146101265780639748bf5b1461013957600080fd5b80631b7846c0146100985780633060ef72146100ad5780633a8dd82a146100d25780634a829210146100da575b600080fd5b6100ab6100a6366004610722565b61014c565b005b6100c06100bb366004610760565b610233565b60405190815260200160405180910390f35b6100c0610317565b6100ab6100e836600461078a565b610389565b6100c06100fb3660046107b6565b6103c9565b6100ab61010e366004610722565b6104b5565b6100ab6101213660046107eb565b6104f4565b6100ab610134366004610817565b6105d9565b6100c0610147366004610817565b6106ae565b6000805460405163098b0dff60e31b815233600482015260248101859052604481018490526001600160a01b0390911690634c586ff8906064015b600060405180830381865afa1580156101a4573d6000803e3d6000fd5b505050506040513d6000823e601f3d908101601f191682016040526101cc91908101906108fa565b604080516000815260208101808352815190209293506101ee91849101610937565b6040516020818303038152906040528051906020012014819061022d5760405162461bcd60e51b81526004016102249190610953565b60405180910390fd5b50505050565b60008054604051632c57771560e11b81523360048201526001600160a01b0385811660248301526044820185905260609216906358aeee2a90606401600060405180830381865afa15801561028c573d6000803e3d6000fd5b505050506040513d6000823e601f3d908101601f191682016040526102b49190810190610986565b604080516000815260208101808352815190209395509193506102d991849101610937565b6040516020818303038152906040528051906020012014819061030f5760405162461bcd60e51b81526004016102249190610953565b505092915050565b600080546040516398c6fb8d60e01b81523360048201526001600160a01b03909116906398c6fb8d90602401602060405180830381865afa158015610360573d6000803e3d6000fd5b505050506040513d601f19601f8201168201806040525081019061038491906109cd565b905090565b60008054604051630ea4f86760e41b8152336004820152602481018590526001600160a01b0384811660448301529091169063ea4f867090606401610187565b60008054604051634c0f7d2360e11b815233600482015260248101869052604481018590526001600160a01b038481166064830152606092169063981efa4690608401600060405180830381865afa158015610429573d6000803e3d6000fd5b505050506040513d6000823e601f3d908101601f191682016040526104519190810190610986565b6040805160008152602081018083528151902093955091935061047691849101610937565b604051602081830303815290604052805190602001201481906104ac5760405162461bcd60e51b81526004016102249190610953565b50509392505050565b600080546040516346b2e78760e11b815233600482015260248101859052604481018490526001600160a01b0390911690638d65cf0e90606401610187565b60008054604051631d377a7960e01b81523360048201526024810186905260448101859052606481018490526001600160a01b0390911690631d377a7990608401600060405180830381865afa158015610552573d6000803e3d6000fd5b505050506040513d6000823e601f3d908101601f1916820160405261057a91908101906108fa565b6040805160008152602081018083528151902092935061059c91849101610937565b604051602081830303815290604052805190602001201481906105d25760405162461bcd60e51b81526004016102249190610953565b5050505050565b60008054604051633a61b1d160e21b8152336004820152602481018490526001600160a01b039091169063e986c74490604401600060405180830381865afa158015610629573d6000803e3d6000fd5b505050506040513d6000823e601f3d908101601f1916820160405261065191908101906108fa565b6040805160008152602081018083528151902092935061067391849101610937565b604051602081830303815290604052805190602001201481906106a95760405162461bcd60e51b81526004016102249190610953565b505050565b6000805460405163adbd864560e01b8152600481018490526001600160a01b039091169063adbd864590602401602060405180830381865afa1580156106f8573d6000803e3d6000fd5b505050506040513d601f19601f8201168201806040525081019061071c91906109cd565b92915050565b6000806040838503121561073557600080fd5b50508035926020909101359150565b80356001600160a01b038116811461075b57600080fd5b919050565b6000806040838503121561077357600080fd5b61077c83610744565b946020939093013593505050565b6000806040838503121561079d57600080fd5b823591506107ad60208401610744565b90509250929050565b6000806000606084860312156107cb57600080fd5b83359250602084013591506107e260408501610744565b90509250925092565b60008060006060848603121561080057600080fd5b505081359360208301359350604090920135919050565b60006020828403121561082957600080fd5b5035919050565b634e487b7160e01b600052604160045260246000fd5b60005b83811015610861578181015183820152602001610849565b8381111561022d5750506000910152565b600082601f83011261088357600080fd5b815167ffffffffffffffff8082111561089e5761089e610830565b604051601f8301601f19908116603f011681019082821181831017156108c6576108c6610830565b816040528381528660208588010111156108df57600080fd5b6108f0846020830160208901610846565b9695505050505050565b60006020828403121561090c57600080fd5b815167ffffffffffffffff81111561092357600080fd5b61092f84828501610872565b949350505050565b60008251610949818460208701610846565b9190910192915050565b6020815260008251806020840152610972816040850160208701610846565b601f01601f19169190910160400192915050565b6000806040838503121561099957600080fd5b82519150602083015167ffffffffffffffff8111156109b757600080fd5b6109c385828601610872565b9150509250929050565b6000602082840312156109df57600080fd5b505191905056fea2646970667358221220c4b63b541f3b8105ed73dc07c613f42b5dba6cd732a1cc8ff4fdeea065974ae464736f6c634300080b0033",
  "linkReferences": {},
  "deployedLinkReferences": {}
}