{
  "_format": "hh-sol-artifact-1",
  "contractName": "ScriptEngineV2",
  "sourceName": "contracts/ScriptEngineV2.sol",
  "abi": [
    {
      "inputs": [],
      "name": "boundedMTRG",
      "outputs": [
        {
          "internalType": "uint256",
          "name": "",
          "type": "uint256"
        }
      ],
      "stateMutability": "view",
      "type": "function"
    },
    {
      "inputs": [
        {
          "internalType": "bytes32",
          "name": "bucketID",
          "type": "bytes32"
        }
      ],
      "name": "bucketClose",
      "outputs": [],
      "stateMutability": "nonpayable",
      "type": "function"
    },
    {
      "inputs": [
        {
          "internalType": "bytes32",
          "name": "bucketID",
          "type": "bytes32"
        },
        {
          "internalType": "uint256",
          "name": "amount",
          "type": "uint256"
        }
      ],
      "name": "bucketDeposit",
      "outputs": [
        {
          "internalType": "bool",
          "name": "success",
          "type": "bool"
        }
      ],
      "stateMutability": "nonpayable",
      "type": "function"
    },
    {
      "inputs": [
        {
          "internalType": "bytes32",
          "name": "fromBucketID",
          "type": "bytes32"
        },
        {
          "internalType": "bytes32",
          "name": "toBucketID",
          "type": "bytes32"
        }
      ],
      "name": "bucketMerge",
      "outputs": [
        {
          "internalType": "bool",
          "name": "success",
          "type": "bool"
        }
      ],
      "stateMutability": "nonpayable",
      "type": "function"
    },
    {
      "inputs": [
        {
          "internalType": "address",
          "name": "candidate",
          "type": "address"
        },
        {
          "internalType": "uint256",
          "name": "amount",
          "type": "uint256"
        }
      ],
      "name": "bucketOpen",
      "outputs": [
        {
          "internalType": "bytes32",
          "name": "bktID",
          "type": "bytes32"
        },
        {
          "internalType": "bool",
          "name": "success",
          "type": "bool"
        }
      ],
      "stateMutability": "nonpayable",
      "type": "function"
    },
    {
      "inputs": [
        {
          "internalType": "bytes32",
          "name": "fromBucketID",
          "type": "bytes32"
        },
        {
          "internalType": "bytes32",
          "name": "toBucketID",
          "type": "bytes32"
        },
        {
          "internalType": "uint256",
          "name": "amount",
          "type": "uint256"
        }
      ],
      "name": "bucketTransferFund",
      "outputs": [
        {
          "internalType": "bool",
          "name": "success",
          "type": "bool"
        }
      ],
      "stateMutability": "nonpayable",
      "type": "function"
    },
    {
      "inputs": [
        {
          "internalType": "bytes32",
          "name": "bucketID",
          "type": "bytes32"
        },
        {
          "internalType": "address",
          "name": "newCandidateAddr",
          "type": "address"
        }
      ],
      "name": "bucketUpdateCandidate",
      "outputs": [
        {
          "internalType": "bool",
          "name": "success",
          "type": "bool"
        }
      ],
      "stateMutability": "nonpayable",
      "type": "function"
    },
    {
      "inputs": [
        {
          "internalType": "bytes32",
          "name": "bucketID",
          "type": "bytes32"
        }
      ],
      "name": "bucketValue",
      "outputs": [
        {
          "internalType": "uint256",
          "name": "",
          "type": "uint256"
        }
      ],
      "stateMutability": "view",
      "type": "function"
    },
    {
      "inputs": [
        {
          "internalType": "bytes32",
          "name": "bucketID",
          "type": "bytes32"
        },
        {
          "internalType": "uint256",
          "name": "amount",
          "type": "uint256"
        },
        {
          "internalType": "address",
          "name": "recipient",
          "type": "address"
        }
      ],
      "name": "bucketWithdraw",
      "outputs": [
        {
          "internalType": "bytes32",
          "name": "newBktID",
          "type": "bytes32"
        }
      ],
      "stateMutability": "nonpayable",
      "type": "function"
    }
  ],
  "bytecode": "0x6080604052600080546001600160a01b0319166a4d657465724e617469766517905534801561002d57600080fd5b50610c598061003d6000396000f3fe608060405234801561001057600080fd5b50600436106100a35760003560e01c8063561f97be1161007657806372be77a01161005b57806372be77a01461014757806377d7f9131461015a5780639748bf5b1461016f57600080fd5b8063561f97be14610121578063653d73a21461013457600080fd5b80631b7846c0146100a85780633060ef72146100d05780633a8dd82a146100f85780634a8292101461010e575b600080fd5b6100bb6100b636600461095b565b610182565b60405190151581526020015b60405180910390f35b6100e36100de366004610999565b610316565b604080519283529015156020830152016100c7565b6101006104a9565b6040519081526020016100c7565b6100bb61011c3660046109c3565b61051b565b61010061012f3660046109ef565b61055b565b6100bb61014236600461095b565b610647565b6100bb610155366004610a24565b610686565b61016d610168366004610a50565b610818565b005b61010061017d366004610a50565b6108ed565b6000805460405163098b0dff60e31b8152336004820152602481018590526044810184905282916001600160a01b031690634c586ff8906064015b600060405180830381865afa1580156101da573d6000803e3d6000fd5b505050506040513d6000823e601f3d908101601f191682016040526102029190810190610b37565b905060405160200161025d907f63616e646964617465277320616363756d756c6174656420766f746573203e2081527f313030782063616e6469646174652773206f776e20766f746500000000000000602082015260390190565b60405160208183030381529060405280519060200120816040516020016102849190610b74565b6040516020818303038152906040528051906020012014156102aa576000915050610310565b60408051600081526020810180835281519020916102ca91849101610b74565b604051602081830303815290604052805190602001201481906103095760405162461bcd60e51b81526004016103009190610b90565b60405180910390fd5b5060019150505b92915050565b60008054604051632c57771560e11b81523360048201526001600160a01b0385811660248301526044820185905283926060929116906358aeee2a90606401600060405180830381865afa158015610372573d6000803e3d6000fd5b505050506040513d6000823e601f3d908101601f1916820160405261039a9190810190610bc3565b60405191945091506103f8906020017f63616e646964617465277320616363756d756c6174656420766f746573203e2081527f313030782063616e6469646174652773206f776e20766f746500000000000000602082015260390190565b604051602081830303815290604052805190602001208160405160200161041f9190610b74565b6040516020818303038152906040528051906020012014156104455750600090506104a2565b604080516000815260208101808352815190209161046591849101610b74565b6040516020818303038152906040528051906020012014819061049b5760405162461bcd60e51b81526004016103009190610b90565b5060019150505b9250929050565b600080546040516398c6fb8d60e01b81523360048201526001600160a01b03909116906398c6fb8d90602401602060405180830381865afa1580156104f2573d6000803e3d6000fd5b505050506040513d601f19601f820116820180604052508101906105169190610c0a565b905090565b60008054604051630ea4f86760e41b8152336004820152602481018590526001600160a01b0384811660448301528392169063ea4f8670906064016101bd565b60008054604051634c0f7d2360e11b815233600482015260248101869052604481018590526001600160a01b038481166064830152606092169063981efa4690608401600060405180830381865afa1580156105bb573d6000803e3d6000fd5b505050506040513d6000823e601f3d908101601f191682016040526105e39190810190610bc3565b6040805160008152602081018083528151902093955091935061060891849101610b74565b6040516020818303038152906040528051906020012014819061063e5760405162461bcd60e51b81526004016103009190610b90565b50509392505050565b600080546040516346b2e78760e11b8152336004820152602481018590526044810184905282916001600160a01b031690638d65cf0e906064016101bd565b60008054604051631d377a7960e01b815233600482015260248101869052604481018590526064810184905282916001600160a01b031690631d377a7990608401600060405180830381865afa1580156106e4573d6000803e3d6000fd5b505050506040513d6000823e601f3d908101601f1916820160405261070c9190810190610b37565b9050604051602001610767907f63616e646964617465277320616363756d756c6174656420766f746573203e2081527f313030782063616e6469646174652773206f776e20766f746500000000000000602082015260390190565b604051602081830303815290604052805190602001208160405160200161078e9190610b74565b6040516020818303038152906040528051906020012014156107b4576000915050610811565b60408051600081526020810180835281519020916107d491849101610b74565b6040516020818303038152906040528051906020012014819061080a5760405162461bcd60e51b81526004016103009190610b90565b5060019150505b9392505050565b60008054604051633a61b1d160e21b8152336004820152602481018490526001600160a01b039091169063e986c74490604401600060405180830381865afa158015610868573d6000803e3d6000fd5b505050506040513d6000823e601f3d908101601f191682016040526108909190810190610b37565b604080516000815260208101808352815190209293506108b291849101610b74565b604051602081830303815290604052805190602001201481906108e85760405162461bcd60e51b81526004016103009190610b90565b505050565b6000805460405163adbd864560e01b8152600481018490526001600160a01b039091169063adbd864590602401602060405180830381865afa158015610937573d6000803e3d6000fd5b505050506040513d601f19601f820116820180604052508101906103109190610c0a565b6000806040838503121561096e57600080fd5b50508035926020909101359150565b80356001600160a01b038116811461099457600080fd5b919050565b600080604083850312156109ac57600080fd5b6109b58361097d565b946020939093013593505050565b600080604083850312156109d657600080fd5b823591506109e66020840161097d565b90509250929050565b600080600060608486031215610a0457600080fd5b8335925060208401359150610a1b6040850161097d565b90509250925092565b600080600060608486031215610a3957600080fd5b505081359360208301359350604090920135919050565b600060208284031215610a6257600080fd5b5035919050565b634e487b7160e01b600052604160045260246000fd5b60005b83811015610a9a578181015183820152602001610a82565b83811115610aa9576000848401525b50505050565b600082601f830112610ac057600080fd5b815167ffffffffffffffff80821115610adb57610adb610a69565b604051601f8301601f19908116603f01168101908282118183101715610b0357610b03610a69565b81604052838152866020858801011115610b1c57600080fd5b610b2d846020830160208901610a7f565b9695505050505050565b600060208284031215610b4957600080fd5b815167ffffffffffffffff811115610b6057600080fd5b610b6c84828501610aaf565b949350505050565b60008251610b86818460208701610a7f565b9190910192915050565b6020815260008251806020840152610baf816040850160208701610a7f565b601f01601f19169190910160400192915050565b60008060408385031215610bd657600080fd5b82519150602083015167ffffffffffffffff811115610bf457600080fd5b610c0085828601610aaf565b9150509250929050565b600060208284031215610c1c57600080fd5b505191905056fea2646970667358221220f972d2d8284f21d04bc5f265105b035054cd75bab835866d85f1493c9a48562d64736f6c634300080b0033",
  "linkReferences": {},
  "deployedLinkReferences": {}
}