{
  "address": "0xafC3B1D7B91609C265e3339e0c4b861D783bAfEA",
  "abi": [
    {
      "inputs": [
        {
          "internalType": "contract IERC20",
          "name": "_MTRG",
          "type": "address"
        },
        {
          "internalType": "address",
          "name": "scriptEngineAddr",
          "type": "address"
        },
        {
          "internalType": "address",
          "name": "_candidate",
          "type": "address"
        }
      ],
      "stateMutability": "nonpayable",
      "type": "constructor"
    },
    {
      "anonymous": false,
      "inputs": [
        {
          "indexed": true,
          "internalType": "address",
          "name": "_owner",
          "type": "address"
        },
        {
          "indexed": true,
          "internalType": "address",
          "name": "_spender",
          "type": "address"
        },
        {
          "indexed": false,
          "internalType": "uint256",
          "name": "_value",
          "type": "uint256"
        }
      ],
      "name": "Approval",
      "type": "event"
    },
    {
      "anonymous": false,
      "inputs": [
        {
          "indexed": true,
          "internalType": "uint256",
          "name": "epoch",
          "type": "uint256"
        },
        {
          "indexed": false,
          "internalType": "uint256",
          "name": "totalSupply",
          "type": "uint256"
        }
      ],
      "name": "LogRebase",
      "type": "event"
    },
    {
      "anonymous": false,
      "inputs": [
        {
          "indexed": true,
          "internalType": "bytes32",
          "name": "role",
          "type": "bytes32"
        },
        {
          "indexed": true,
          "internalType": "bytes32",
          "name": "previousAdminRole",
          "type": "bytes32"
        },
        {
          "indexed": true,
          "internalType": "bytes32",
          "name": "newAdminRole",
          "type": "bytes32"
        }
      ],
      "name": "RoleAdminChanged",
      "type": "event"
    },
    {
      "anonymous": false,
      "inputs": [
        {
          "indexed": true,
          "internalType": "bytes32",
          "name": "role",
          "type": "bytes32"
        },
        {
          "indexed": true,
          "internalType": "address",
          "name": "account",
          "type": "address"
        },
        {
          "indexed": true,
          "internalType": "address",
          "name": "sender",
          "type": "address"
        }
      ],
      "name": "RoleGranted",
      "type": "event"
    },
    {
      "anonymous": false,
      "inputs": [
        {
          "indexed": true,
          "internalType": "bytes32",
          "name": "role",
          "type": "bytes32"
        },
        {
          "indexed": true,
          "internalType": "address",
          "name": "account",
          "type": "address"
        },
        {
          "indexed": true,
          "internalType": "address",
          "name": "sender",
          "type": "address"
        }
      ],
      "name": "RoleRevoked",
      "type": "event"
    },
    {
      "anonymous": false,
      "inputs": [
        {
          "indexed": true,
          "internalType": "address",
          "name": "_from",
          "type": "address"
        },
        {
          "indexed": true,
          "internalType": "address",
          "name": "_to",
          "type": "address"
        },
        {
          "indexed": false,
          "internalType": "uint256",
          "name": "_value",
          "type": "uint256"
        }
      ],
      "name": "Transfer",
      "type": "event"
    },
    {
      "inputs": [],
      "name": "DEFAULT_ADMIN_ROLE",
      "outputs": [
        {
          "internalType": "bytes32",
          "name": "",
          "type": "bytes32"
        }
      ],
      "stateMutability": "view",
      "type": "function"
    },
    {
      "inputs": [],
      "name": "MTRG",
      "outputs": [
        {
          "internalType": "contract IERC20",
          "name": "",
          "type": "address"
        }
      ],
      "stateMutability": "view",
      "type": "function"
    },
    {
      "inputs": [
        {
          "internalType": "address",
          "name": "",
          "type": "address"
        }
      ],
      "name": "_shares",
      "outputs": [
        {
          "internalType": "uint256",
          "name": "",
          "type": "uint256"
        }
      ],
      "stateMutability": "view",
      "type": "function"
    },
    {
      "inputs": [],
      "name": "_totalShares",
      "outputs": [
        {
          "internalType": "uint256",
          "name": "",
          "type": "uint256"
        }
      ],
      "stateMutability": "view",
      "type": "function"
    },
    {
      "inputs": [
        {
          "internalType": "address",
          "name": "",
          "type": "address"
        },
        {
          "internalType": "address",
          "name": "",
          "type": "address"
        }
      ],
      "name": "allowance",
      "outputs": [
        {
          "internalType": "uint256",
          "name": "",
          "type": "uint256"
        }
      ],
      "stateMutability": "view",
      "type": "function"
    },
    {
      "inputs": [
        {
          "internalType": "address",
          "name": "_spender",
          "type": "address"
        },
        {
          "internalType": "uint256",
          "name": "_value",
          "type": "uint256"
        }
      ],
      "name": "approve",
      "outputs": [
        {
          "internalType": "bool",
          "name": "",
          "type": "bool"
        }
      ],
      "stateMutability": "nonpayable",
      "type": "function"
    },
    {
      "inputs": [
        {
          "internalType": "address",
          "name": "account",
          "type": "address"
        }
      ],
      "name": "balanceOf",
      "outputs": [
        {
          "internalType": "uint256",
          "name": "",
          "type": "uint256"
        }
      ],
      "stateMutability": "view",
      "type": "function"
    },
    {
      "inputs": [],
      "name": "bucketID",
      "outputs": [
        {
          "internalType": "bytes32",
          "name": "",
          "type": "bytes32"
        }
      ],
      "stateMutability": "view",
      "type": "function"
    },
    {
      "inputs": [],
      "name": "candidate",
      "outputs": [
        {
          "internalType": "address",
          "name": "",
          "type": "address"
        }
      ],
      "stateMutability": "view",
      "type": "function"
    },
    {
      "inputs": [],
      "name": "decimals",
      "outputs": [
        {
          "internalType": "uint8",
          "name": "",
          "type": "uint8"
        }
      ],
      "stateMutability": "view",
      "type": "function"
    },
    {
      "inputs": [
        {
          "internalType": "uint256",
          "name": "amount",
          "type": "uint256"
        }
      ],
      "name": "deposit",
      "outputs": [],
      "stateMutability": "nonpayable",
      "type": "function"
    },
    {
      "inputs": [],
      "name": "epoch",
      "outputs": [
        {
          "internalType": "uint256",
          "name": "",
          "type": "uint256"
        }
      ],
      "stateMutability": "view",
      "type": "function"
    },
    {
      "inputs": [
        {
          "internalType": "bytes32",
          "name": "role",
          "type": "bytes32"
        }
      ],
      "name": "getRoleAdmin",
      "outputs": [
        {
          "internalType": "bytes32",
          "name": "",
          "type": "bytes32"
        }
      ],
      "stateMutability": "view",
      "type": "function"
    },
    {
      "inputs": [
        {
          "internalType": "bytes32",
          "name": "role",
          "type": "bytes32"
        },
        {
          "internalType": "uint256",
          "name": "index",
          "type": "uint256"
        }
      ],
      "name": "getRoleMember",
      "outputs": [
        {
          "internalType": "address",
          "name": "",
          "type": "address"
        }
      ],
      "stateMutability": "view",
      "type": "function"
    },
    {
      "inputs": [
        {
          "internalType": "bytes32",
          "name": "role",
          "type": "bytes32"
        }
      ],
      "name": "getRoleMemberCount",
      "outputs": [
        {
          "internalType": "uint256",
          "name": "",
          "type": "uint256"
        }
      ],
      "stateMutability": "view",
      "type": "function"
    },
    {
      "inputs": [
        {
          "internalType": "bytes32",
          "name": "role",
          "type": "bytes32"
        },
        {
          "internalType": "address",
          "name": "account",
          "type": "address"
        }
      ],
      "name": "grantRole",
      "outputs": [],
      "stateMutability": "nonpayable",
      "type": "function"
    },
    {
      "inputs": [
        {
          "internalType": "bytes32",
          "name": "role",
          "type": "bytes32"
        },
        {
          "internalType": "address",
          "name": "account",
          "type": "address"
        }
      ],
      "name": "hasRole",
      "outputs": [
        {
          "internalType": "bool",
          "name": "",
          "type": "bool"
        }
      ],
      "stateMutability": "view",
      "type": "function"
    },
    {
      "inputs": [],
      "name": "name",
      "outputs": [
        {
          "internalType": "string",
          "name": "",
          "type": "string"
        }
      ],
      "stateMutability": "view",
      "type": "function"
    },
    {
      "inputs": [],
      "name": "rebase",
      "outputs": [],
      "stateMutability": "nonpayable",
      "type": "function"
    },
    {
      "inputs": [
        {
          "internalType": "bytes32",
          "name": "role",
          "type": "bytes32"
        },
        {
          "internalType": "address",
          "name": "account",
          "type": "address"
        }
      ],
      "name": "renounceRole",
      "outputs": [],
      "stateMutability": "nonpayable",
      "type": "function"
    },
    {
      "inputs": [
        {
          "internalType": "bytes32",
          "name": "role",
          "type": "bytes32"
        },
        {
          "internalType": "address",
          "name": "account",
          "type": "address"
        }
      ],
      "name": "revokeRole",
      "outputs": [],
      "stateMutability": "nonpayable",
      "type": "function"
    },
    {
      "inputs": [
        {
          "internalType": "bytes4",
          "name": "interfaceId",
          "type": "bytes4"
        }
      ],
      "name": "supportsInterface",
      "outputs": [
        {
          "internalType": "bool",
          "name": "",
          "type": "bool"
        }
      ],
      "stateMutability": "view",
      "type": "function"
    },
    {
      "inputs": [],
      "name": "symbol",
      "outputs": [
        {
          "internalType": "string",
          "name": "",
          "type": "string"
        }
      ],
      "stateMutability": "view",
      "type": "function"
    },
    {
      "inputs": [],
      "name": "totalSupply",
      "outputs": [
        {
          "internalType": "uint256",
          "name": "",
          "type": "uint256"
        }
      ],
      "stateMutability": "view",
      "type": "function"
    },
    {
      "inputs": [
        {
          "internalType": "address",
          "name": "_to",
          "type": "address"
        },
        {
          "internalType": "uint256",
          "name": "_value",
          "type": "uint256"
        }
      ],
      "name": "transfer",
      "outputs": [
        {
          "internalType": "bool",
          "name": "",
          "type": "bool"
        }
      ],
      "stateMutability": "nonpayable",
      "type": "function"
    },
    {
      "inputs": [
        {
          "internalType": "address",
          "name": "_from",
          "type": "address"
        },
        {
          "internalType": "address",
          "name": "_to",
          "type": "address"
        },
        {
          "internalType": "uint256",
          "name": "_value",
          "type": "uint256"
        }
      ],
      "name": "transferFrom",
      "outputs": [
        {
          "internalType": "bool",
          "name": "",
          "type": "bool"
        }
      ],
      "stateMutability": "nonpayable",
      "type": "function"
    },
    {
      "inputs": [
        {
          "internalType": "uint256",
          "name": "amount",
          "type": "uint256"
        },
        {
          "internalType": "address",
          "name": "recipient",
          "type": "address"
        }
      ],
      "name": "withdraw",
      "outputs": [],
      "stateMutability": "nonpayable",
      "type": "function"
    }
  ],
  "transactionHash": "0xcf5fef11f1b5322cc9d1a3895262de97b971f0857676a33e168c56e1bbfee87e",
  "args": [
    "0x8a419ef4941355476cf04933e90bf3bbf2f73814",
    "0x63726970742d656E67696E652D61646472657373",
    "0x658b6da6723979ec56fef1296f115477460a8797"
  ],
  "numDeployments": 1,
  "solcInputHash": "80f0a55f18365b6ef6006db7f9af24f6",
  "bytecode": "0x608060405260006002553480156200001657600080fd5b50604051620018163803806200181683398101604081905262000039916200020a565b620000466000336200008c565b600680546001600160a01b039384166001600160a01b0319918216179091556008805492841692821692909217909155600980549390921692169190911790556200025e565b6200009882826200009c565b5050565b620000b38282620000df60201b62000c0f1760201c565b6000828152600160209081526040909120620000da91839062000c936200017f821b17901c565b505050565b6000828152602081815260408083206001600160a01b038516845290915290205460ff1662000098576000828152602081815260408083206001600160a01b03851684529091529020805460ff191660011790556200013b3390565b6001600160a01b0316816001600160a01b0316837f2f8788117e7eff1d82e926ec794901d17c78024a50270940304540a733656f0d60405160405180910390a45050565b600062000196836001600160a01b0384166200019f565b90505b92915050565b6000818152600183016020526040812054620001e85750815460018181018455600084815260208082209093018490558454848252828601909352604090209190915562000199565b50600062000199565b6001600160a01b03811681146200020757600080fd5b50565b6000806000606084860312156200022057600080fd5b83516200022d81620001f1565b60208501519093506200024081620001f1565b60408501519092506200025381620001f1565b809150509250925092565b6115a8806200026e6000396000f3fe608060405234801561001057600080fd5b50600436106101a85760003560e01c8063900cf0cf116100f9578063af14052c11610097578063b6b55f2511610071578063b6b55f25146103ba578063ca15c873146103cd578063d547741f146103e0578063dd62ed3e146103f357600080fd5b8063af14052c14610389578063b0428da614610391578063b34c8caf1461039a57600080fd5b806395d89b41116100d357806395d89b41146103405780639e8f1d6e14610365578063a217fddf1461036e578063a9059cbb1461037657600080fd5b8063900cf0cf146103115780639010d07c1461031a57806391d148541461032d57600080fd5b8063248a9ca31161016657806336568abe1161014057806336568abe146102ad5780636c8381f8146102c057806370a08231146102eb57806388b0e2a4146102fe57600080fd5b8063248a9ca31461025d5780632f2ff15d14610280578063313ce5671461029357600080fd5b8062f714ce146101ad57806301ffc9a7146101c257806306fdde03146101ea578063095ea7b31461022157806318160ddd1461023457806323b872dd1461024a575b600080fd5b6101c06101bb366004611229565b61041e565b005b6101d56101d0366004611255565b61058b565b60405190151581526020015b60405180910390f35b6102146040518060400160405280600b81526020016a5374616b6564204d54524760a81b81525081565b6040516101e191906112af565b6101d561022f3660046112e2565b6105b6565b61023c610622565b6040519081526020016101e1565b6101d561025836600461130c565b610695565b61023c61026b366004611348565b60009081526020819052604090206001015490565b6101c061028e366004611229565b61070f565b61029b601281565b60405160ff90911681526020016101e1565b6101c06102bb366004611229565b610739565b6008546102d3906001600160a01b031681565b6040516001600160a01b0390911681526020016101e1565b61023c6102f9366004611361565b6107b7565b6009546102d3906001600160a01b031681565b61023c60035481565b6102d361032836600461137c565b6107f1565b6101d561033b366004611229565b610810565b6102146040518060400160405280600681526020016573744d54524760d01b81525081565b61023c60075481565b61023c600081565b6101d56103843660046112e2565b610839565b6101c0610846565b61023c60025481565b61023c6103a8366004611361565b60046020526000908152604090205481565b6101c06103c8366004611348565b61098a565b61023c6103db366004611348565b610bd3565b6101c06103ee366004611229565b610bea565b61023c61040136600461139e565b600560209081526000928352604080842090915290825290205481565b33600061042a84610ca8565b6001600160a01b038316600090815260046020526040902054909150818110156104a65760405162461bcd60e51b815260206004820152602260248201527f45524332303a206275726e20616d6f756e7420657863656564732062616c616e604482015261636560f01b60648201526084015b60405180910390fd5b6001600160a01b03831660008181526004602090815260408083208686039055600280548790039055518881529192917fddf252ad1be2c89b69c2b068fc378daa952ba7f163c4a11628f55a4df523b3ef910160405180910390a3600654600754604051632b0fcbdf60e11b81526004810191909152602481018790526001600160a01b0386811660448301529091169063561f97be906064016020604051808303816000875af115801561055f573d6000803e3d6000fd5b505050506040513d601f19601f8201168201806040525081019061058391906113c8565b505050505050565b60006001600160e01b03198216635a05180f60e01b14806105b057506105b082610cbf565b92915050565b3360008181526005602090815260408083206001600160a01b038716808552925280832085905551919290917f8c5be1e5ebec7d5bd14f71427d1e84f3dd0314c0f7b2291e5b200ac8c7c3b925906106119086815260200190565b60405180910390a350600192915050565b60065460408051631d46ec1560e11b815290516000926001600160a01b031691633a8dd82a9160048083019260209291908290030181865afa15801561066c573d6000803e3d6000fd5b505050506040513d601f19601f8201168201806040525081019061069091906113c8565b905090565b6001600160a01b038316600090815260056020908152604080832033845290915281205460001981146106fb576001600160a01b0385166000908152600560209081526040808320338452909152812080548592906106f59084906113f7565b90915550505b610706858585610cf4565b95945050505050565b60008281526020819052604090206001015461072a81610db9565b6107348383610dc6565b505050565b6001600160a01b03811633146107a95760405162461bcd60e51b815260206004820152602f60248201527f416363657373436f6e74726f6c3a2063616e206f6e6c792072656e6f756e636560448201526e103937b632b9903337b91039b2b63360891b606482015260840161049d565b6107b38282610de8565b5050565b60006002546107c4610622565b6001600160a01b0384166000908152600460205260409020546107e7919061140e565b6105b0919061142d565b60008281526001602052604081206108099083610e0a565b9392505050565b6000918252602082815260408084206001600160a01b0393909316845291905290205460ff1690565b6000610809338484610cf4565b600061085181610db9565b6009546040516370a0823160e01b81523060048201526000916001600160a01b0316906370a0823190602401602060405180830381865afa15801561089a573d6000803e3d6000fd5b505050506040513d601f19601f820116820180604052508101906108be91906113c8565b9050801561093457600654600754604051626de11b60e61b81526001600160a01b0390921691631b7846c091610901918590600401918252602082015260400190565b600060405180830381600087803b15801561091b57600080fd5b505af115801561092f573d6000803e3d6000fd5b505050505b600380549060006109448361144f565b91905055506003547f72725a3b1e5bd622d6bcd1339bb31279c351abe8f541ac7fd320f24e1b1641f2610975610622565b60405190815260200160405180910390a25050565b6009546040516323b872dd60e01b8152336004820181905230602483015260448201849052916000916001600160a01b03909116906323b872dd906064016020604051808303816000875af11580156109e7573d6000803e3d6000fd5b505050506040513d601f19601f82011682018060405250810190610a0b919061146a565b50600254610a99575060065460085460405163183077b960e11b81526001600160a01b0391821660048201526024810185905284929190911690633060ef72906044016020604051808303816000875af1158015610a6d573d6000803e3d6000fd5b505050506040513d601f19601f82011682018060405250810190610a9191906113c8565b600755610b47565b600754610ad45760405162461bcd60e51b81526020600482015260096024820152686275636b657449442160b81b604482015260640161049d565b610add83610ca8565b600654600754604051626de11b60e61b81526004810191909152602481018690529192506001600160a01b031690631b7846c090604401600060405180830381600087803b158015610b2e57600080fd5b505af1158015610b42573d6000803e3d6000fd5b505050505b6001600160a01b03821660009081526004602052604081208054839290610b6f90849061148c565b925050819055508060026000828254610b88919061148c565b90915550506040518381526001600160a01b038316906000907fddf252ad1be2c89b69c2b068fc378daa952ba7f163c4a11628f55a4df523b3ef9060200160405180910390a3505050565b60008181526001602052604081206105b090610e16565b600082815260208190526040902060010154610c0581610db9565b6107348383610de8565b610c198282610810565b6107b3576000828152602081815260408083206001600160a01b03851684529091529020805460ff19166001179055610c4f3390565b6001600160a01b0316816001600160a01b0316837f2f8788117e7eff1d82e926ec794901d17c78024a50270940304540a733656f0d60405160405180910390a45050565b6000610809836001600160a01b038416610e20565b6000610cb2610622565b6002546107e7908461140e565b60006001600160e01b03198216637965db0b60e01b14806105b057506301ffc9a760e01b6001600160e01b03198316146105b0565b600080610d0083610ca8565b6001600160a01b038616600090815260046020526040812080549293508392909190610d2d9084906113f7565b90915550506001600160a01b03841660009081526004602052604081208054839290610d5a90849061148c565b92505081905550836001600160a01b0316856001600160a01b03167fddf252ad1be2c89b69c2b068fc378daa952ba7f163c4a11628f55a4df523b3ef85604051610da691815260200190565b60405180910390a3506001949350505050565b610dc38133610e6f565b50565b610dd08282610c0f565b60008281526001602052604090206107349082610c93565b610df28282610ec8565b60008281526001602052604090206107349082610f2d565b60006108098383610f42565b60006105b0825490565b6000818152600183016020526040812054610e67575081546001818101845560008481526020808220909301849055845484825282860190935260409020919091556105b0565b5060006105b0565b610e798282610810565b6107b357610e8681610f6c565b610e91836020610f7e565b604051602001610ea29291906114a4565b60408051601f198184030181529082905262461bcd60e51b825261049d916004016112af565b610ed28282610810565b156107b3576000828152602081815260408083206001600160a01b0385168085529252808320805460ff1916905551339285917ff6391f5c32d9c69d2a47ea670b442974b53935d1edc7fd64eb21e047a839171b9190a45050565b6000610809836001600160a01b03841661111a565b6000826000018281548110610f5957610f59611519565b9060005260206000200154905092915050565b60606105b06001600160a01b03831660145b60606000610f8d83600261140e565b610f9890600261148c565b67ffffffffffffffff811115610fb057610fb061152f565b6040519080825280601f01601f191660200182016040528015610fda576020820181803683370190505b509050600360fc1b81600081518110610ff557610ff5611519565b60200101906001600160f81b031916908160001a905350600f60fb1b8160018151811061102457611024611519565b60200101906001600160f81b031916908160001a905350600061104884600261140e565b61105390600161148c565b90505b60018111156110cb576f181899199a1a9b1b9c1cb0b131b232b360811b85600f166010811061108757611087611519565b1a60f81b82828151811061109d5761109d611519565b60200101906001600160f81b031916908160001a90535060049490941c936110c481611545565b9050611056565b5083156108095760405162461bcd60e51b815260206004820181905260248201527f537472696e67733a20686578206c656e67746820696e73756666696369656e74604482015260640161049d565b6000818152600183016020526040812054801561120357600061113e6001836113f7565b8554909150600090611152906001906113f7565b90508181146111b757600086600001828154811061117257611172611519565b906000526020600020015490508087600001848154811061119557611195611519565b6000918252602080832090910192909255918252600188019052604090208390555b85548690806111c8576111c861155c565b6001900381819060005260206000200160009055905585600101600086815260200190815260200160002060009055600193505050506105b0565b60009150506105b0565b80356001600160a01b038116811461122457600080fd5b919050565b6000806040838503121561123c57600080fd5b8235915061124c6020840161120d565b90509250929050565b60006020828403121561126757600080fd5b81356001600160e01b03198116811461080957600080fd5b60005b8381101561129a578181015183820152602001611282565b838111156112a9576000848401525b50505050565b60208152600082518060208401526112ce81604085016020870161127f565b601f01601f19169190910160400192915050565b600080604083850312156112f557600080fd5b6112fe8361120d565b946020939093013593505050565b60008060006060848603121561132157600080fd5b61132a8461120d565b92506113386020850161120d565b9150604084013590509250925092565b60006020828403121561135a57600080fd5b5035919050565b60006020828403121561137357600080fd5b6108098261120d565b6000806040838503121561138f57600080fd5b50508035926020909101359150565b600080604083850312156113b157600080fd5b6113ba8361120d565b915061124c6020840161120d565b6000602082840312156113da57600080fd5b5051919050565b634e487b7160e01b600052601160045260246000fd5b600082821015611409576114096113e1565b500390565b6000816000190483118215151615611428576114286113e1565b500290565b60008261144a57634e487b7160e01b600052601260045260246000fd5b500490565b6000600019821415611463576114636113e1565b5060010190565b60006020828403121561147c57600080fd5b8151801515811461080957600080fd5b6000821982111561149f5761149f6113e1565b500190565b7f416363657373436f6e74726f6c3a206163636f756e74200000000000000000008152600083516114dc81601785016020880161127f565b7001034b99036b4b9b9b4b733903937b6329607d1b601791840191820152835161150d81602884016020880161127f565b01602801949350505050565b634e487b7160e01b600052603260045260246000fd5b634e487b7160e01b600052604160045260246000fd5b600081611554576115546113e1565b506000190190565b634e487b7160e01b600052603160045260246000fdfea2646970667358221220b1c2d418349f75cd3afa7ee288ee39e75e4085dd137b3a40de974634c2caa67e64736f6c634300080b0033",
  "devdoc": {
    "kind": "dev",
    "methods": {
      "approve(address,uint256)": {
        "details": "`msg.sender` approves `_addr` to spend `_value` tokens",
        "params": {
          "_spender": "The address of the account able to transfer the tokens",
          "_value": "The amount of wei to be approved for transfer"
        },
        "returns": {
          "_0": "Whether the approval was successful or not"
        }
      },
      "balanceOf(address)": {
        "details": "See {IERC20-balanceOf}."
      },
      "getRoleAdmin(bytes32)": {
        "details": "Returns the admin role that controls `role`. See {grantRole} and {revokeRole}. To change a role's admin, use {_setRoleAdmin}."
      },
      "getRoleMember(bytes32,uint256)": {
        "details": "Returns one of the accounts that have `role`. `index` must be a value between 0 and {getRoleMemberCount}, non-inclusive. Role bearers are not sorted in any particular way, and their ordering may change at any point. WARNING: When using {getRoleMember} and {getRoleMemberCount}, make sure you perform all queries on the same block. See the following https://forum.openzeppelin.com/t/iterating-over-elements-on-enumerableset-in-openzeppelin-contracts/2296[forum post] for more information."
      },
      "getRoleMemberCount(bytes32)": {
        "details": "Returns the number of accounts that have `role`. Can be used together with {getRoleMember} to enumerate all bearers of a role."
      },
      "grantRole(bytes32,address)": {
        "details": "Grants `role` to `account`. If `account` had not been already granted `role`, emits a {RoleGranted} event. Requirements: - the caller must have ``role``'s admin role. May emit a {RoleGranted} event."
      },
      "hasRole(bytes32,address)": {
        "details": "Returns `true` if `account` has been granted `role`."
      },
      "renounceRole(bytes32,address)": {
        "details": "Revokes `role` from the calling account. Roles are often managed via {grantRole} and {revokeRole}: this function's purpose is to provide a mechanism for accounts to lose their privileges if they are compromised (such as when a trusted device is misplaced). If the calling account had been revoked `role`, emits a {RoleRevoked} event. Requirements: - the caller must be `account`. May emit a {RoleRevoked} event."
      },
      "revokeRole(bytes32,address)": {
        "details": "Revokes `role` from `account`. If `account` had been granted `role`, emits a {RoleRevoked} event. Requirements: - the caller must have ``role``'s admin role. May emit a {RoleRevoked} event."
      },
      "supportsInterface(bytes4)": {
        "details": "See {IERC165-supportsInterface}."
      },
      "totalSupply()": {
        "details": "See {IERC20-totalSupply}."
      },
      "transfer(address,uint256)": {
        "details": "send `_value` token to `_to` from `msg.sender`",
        "params": {
          "_to": "The address of the recipient",
          "_value": "The amount of token to be transferred"
        },
        "returns": {
          "_0": "Whether the transfer was successful or not"
        }
      },
      "transferFrom(address,address,uint256)": {
        "details": "send `_value` token to `_to` from `_from` on the condition it is approved by `_from`",
        "params": {
          "_from": "The address of the sender",
          "_to": "The address of the recipient",
          "_value": "The amount of token to be transferred"
        },
        "returns": {
          "_0": "Whether the transfer was successful or not"
        }
      }
    },
    "stateVariables": {
      "allowance": {
        "params": {
          "_owner": "The address of the account owning tokens",
          "_spender": "The address of the account able to transfer the tokens"
        },
        "return": "remaining Amount of remaining tokens allowed to spent",
        "returns": {
          "_0": "remaining Amount of remaining tokens allowed to spent"
        }
      }
    },
    "version": 1
  },
  "userdoc": {
    "kind": "user",
    "methods": {},
    "version": 1
  },
  "storageLayout": {
    "storage": [
      {
        "astId": 24,
        "contract": "contracts/StakingPool.sol:StakingPool",
        "label": "_roles",
        "offset": 0,
        "slot": "0",
        "type": "t_mapping(t_bytes32,t_struct(RoleData)19_storage)"
      },
      {
        "astId": 334,
        "contract": "contracts/StakingPool.sol:StakingPool",
        "label": "_roleMembers",
        "offset": 0,
        "slot": "1",
        "type": "t_mapping(t_bytes32,t_struct(AddressSet)1962_storage)"
      },
      {
        "astId": 4430,
        "contract": "contracts/StakingPool.sol:StakingPool",
        "label": "_totalShares",
        "offset": 0,
        "slot": "2",
        "type": "t_uint256"
      },
      {
        "astId": 4432,
        "contract": "contracts/StakingPool.sol:StakingPool",
        "label": "epoch",
        "offset": 0,
        "slot": "3",
        "type": "t_uint256"
      },
      {
        "astId": 4436,
        "contract": "contracts/StakingPool.sol:StakingPool",
        "label": "_shares",
        "offset": 0,
        "slot": "4",
        "type": "t_mapping(t_address,t_uint256)"
      },
      {
        "astId": 4442,
        "contract": "contracts/StakingPool.sol:StakingPool",
        "label": "allowance",
        "offset": 0,
        "slot": "5",
        "type": "t_mapping(t_address,t_mapping(t_address,t_uint256))"
      },
      {
        "astId": 4445,
        "contract": "contracts/StakingPool.sol:StakingPool",
        "label": "scriptEngine",
        "offset": 0,
        "slot": "6",
        "type": "t_contract(IScriptEngine)3025"
      },
      {
        "astId": 4447,
        "contract": "contracts/StakingPool.sol:StakingPool",
        "label": "bucketID",
        "offset": 0,
        "slot": "7",
        "type": "t_bytes32"
      },
      {
        "astId": 4449,
        "contract": "contracts/StakingPool.sol:StakingPool",
        "label": "candidate",
        "offset": 0,
        "slot": "8",
        "type": "t_address"
      },
      {
        "astId": 4452,
        "contract": "contracts/StakingPool.sol:StakingPool",
        "label": "MTRG",
        "offset": 0,
        "slot": "9",
        "type": "t_contract(IERC20)2805"
      }
    ],
    "types": {
      "t_address": {
        "encoding": "inplace",
        "label": "address",
        "numberOfBytes": "20"
      },
      "t_array(t_bytes32)dyn_storage": {
        "base": "t_bytes32",
        "encoding": "dynamic_array",
        "label": "bytes32[]",
        "numberOfBytes": "32"
      },
      "t_bool": {
        "encoding": "inplace",
        "label": "bool",
        "numberOfBytes": "1"
      },
      "t_bytes32": {
        "encoding": "inplace",
        "label": "bytes32",
        "numberOfBytes": "32"
      },
      "t_contract(IERC20)2805": {
        "encoding": "inplace",
        "label": "contract IERC20",
        "numberOfBytes": "20"
      },
      "t_contract(IScriptEngine)3025": {
        "encoding": "inplace",
        "label": "contract IScriptEngine",
        "numberOfBytes": "20"
      },
      "t_mapping(t_address,t_bool)": {
        "encoding": "mapping",
        "key": "t_address",
        "label": "mapping(address => bool)",
        "numberOfBytes": "32",
        "value": "t_bool"
      },
      "t_mapping(t_address,t_mapping(t_address,t_uint256))": {
        "encoding": "mapping",
        "key": "t_address",
        "label": "mapping(address => mapping(address => uint256))",
        "numberOfBytes": "32",
        "value": "t_mapping(t_address,t_uint256)"
      },
      "t_mapping(t_address,t_uint256)": {
        "encoding": "mapping",
        "key": "t_address",
        "label": "mapping(address => uint256)",
        "numberOfBytes": "32",
        "value": "t_uint256"
      },
      "t_mapping(t_bytes32,t_struct(AddressSet)1962_storage)": {
        "encoding": "mapping",
        "key": "t_bytes32",
        "label": "mapping(bytes32 => struct EnumerableSet.AddressSet)",
        "numberOfBytes": "32",
        "value": "t_struct(AddressSet)1962_storage"
      },
      "t_mapping(t_bytes32,t_struct(RoleData)19_storage)": {
        "encoding": "mapping",
        "key": "t_bytes32",
        "label": "mapping(bytes32 => struct AccessControl.RoleData)",
        "numberOfBytes": "32",
        "value": "t_struct(RoleData)19_storage"
      },
      "t_mapping(t_bytes32,t_uint256)": {
        "encoding": "mapping",
        "key": "t_bytes32",
        "label": "mapping(bytes32 => uint256)",
        "numberOfBytes": "32",
        "value": "t_uint256"
      },
      "t_struct(AddressSet)1962_storage": {
        "encoding": "inplace",
        "label": "struct EnumerableSet.AddressSet",
        "members": [
          {
            "astId": 1961,
            "contract": "contracts/StakingPool.sol:StakingPool",
            "label": "_inner",
            "offset": 0,
            "slot": "0",
            "type": "t_struct(Set)1647_storage"
          }
        ],
        "numberOfBytes": "64"
      },
      "t_struct(RoleData)19_storage": {
        "encoding": "inplace",
        "label": "struct AccessControl.RoleData",
        "members": [
          {
            "astId": 16,
            "contract": "contracts/StakingPool.sol:StakingPool",
            "label": "members",
            "offset": 0,
            "slot": "0",
            "type": "t_mapping(t_address,t_bool)"
          },
          {
            "astId": 18,
            "contract": "contracts/StakingPool.sol:StakingPool",
            "label": "adminRole",
            "offset": 0,
            "slot": "1",
            "type": "t_bytes32"
          }
        ],
        "numberOfBytes": "64"
      },
      "t_struct(Set)1647_storage": {
        "encoding": "inplace",
        "label": "struct EnumerableSet.Set",
        "members": [
          {
            "astId": 1642,
            "contract": "contracts/StakingPool.sol:StakingPool",
            "label": "_values",
            "offset": 0,
            "slot": "0",
            "type": "t_array(t_bytes32)dyn_storage"
          },
          {
            "astId": 1646,
            "contract": "contracts/StakingPool.sol:StakingPool",
            "label": "_indexes",
            "offset": 0,
            "slot": "1",
            "type": "t_mapping(t_bytes32,t_uint256)"
          }
        ],
        "numberOfBytes": "64"
      },
      "t_uint256": {
        "encoding": "inplace",
        "label": "uint256",
        "numberOfBytes": "32"
      }
    }
  }
}