{
  "address": "0x544eB4fD8873d97004c3CB3BD8dEaF0bc23FF0e1",
  "abi": [
    {
      "anonymous": false,
      "inputs": [
        {
          "indexed": true,
          "internalType": "address",
          "name": "owner",
          "type": "address"
        },
        {
          "indexed": true,
          "internalType": "address",
          "name": "spender",
          "type": "address"
        },
        {
          "indexed": false,
          "internalType": "uint256",
          "name": "value",
          "type": "uint256"
        }
      ],
      "name": "Approval",
      "type": "event"
    },
    {
      "anonymous": false,
      "inputs": [
        {
          "indexed": false,
          "internalType": "uint256",
          "name": "timestamp",
          "type": "uint256"
        }
      ],
      "name": "ExecuteClost",
      "type": "event"
    },
    {
      "anonymous": false,
      "inputs": [
        {
          "indexed": false,
          "internalType": "uint8",
          "name": "version",
          "type": "uint8"
        }
      ],
      "name": "Initialized",
      "type": "event"
    },
    {
      "anonymous": false,
      "inputs": [
        {
          "indexed": true,
          "internalType": "uint256",
          "name": "epoch",
          "type": "uint256"
        },
        {
          "indexed": false,
          "internalType": "uint256",
          "name": "totalSupply",
          "type": "uint256"
        }
      ],
      "name": "LogRebase",
      "type": "event"
    },
    {
      "anonymous": false,
      "inputs": [
        {
          "indexed": false,
          "internalType": "address",
          "name": "oldCandidate",
          "type": "address"
        },
        {
          "indexed": false,
          "internalType": "address",
          "name": "newCandidate",
          "type": "address"
        }
      ],
      "name": "NewCandidate",
      "type": "event"
    },
    {
      "anonymous": false,
      "inputs": [
        {
          "indexed": false,
          "internalType": "address",
          "name": "account",
          "type": "address"
        }
      ],
      "name": "Paused",
      "type": "event"
    },
    {
      "anonymous": false,
      "inputs": [
        {
          "indexed": false,
          "internalType": "uint256",
          "name": "timestamp",
          "type": "uint256"
        }
      ],
      "name": "RequestClost",
      "type": "event"
    },
    {
      "anonymous": false,
      "inputs": [
        {
          "indexed": true,
          "internalType": "bytes32",
          "name": "role",
          "type": "bytes32"
        },
        {
          "indexed": true,
          "internalType": "bytes32",
          "name": "previousAdminRole",
          "type": "bytes32"
        },
        {
          "indexed": true,
          "internalType": "bytes32",
          "name": "newAdminRole",
          "type": "bytes32"
        }
      ],
      "name": "RoleAdminChanged",
      "type": "event"
    },
    {
      "anonymous": false,
      "inputs": [
        {
          "indexed": true,
          "internalType": "bytes32",
          "name": "role",
          "type": "bytes32"
        },
        {
          "indexed": true,
          "internalType": "address",
          "name": "account",
          "type": "address"
        },
        {
          "indexed": true,
          "internalType": "address",
          "name": "sender",
          "type": "address"
        }
      ],
      "name": "RoleGranted",
      "type": "event"
    },
    {
      "anonymous": false,
      "inputs": [
        {
          "indexed": true,
          "internalType": "bytes32",
          "name": "role",
          "type": "bytes32"
        },
        {
          "indexed": true,
          "internalType": "address",
          "name": "account",
          "type": "address"
        },
        {
          "indexed": true,
          "internalType": "address",
          "name": "sender",
          "type": "address"
        }
      ],
      "name": "RoleRevoked",
      "type": "event"
    },
    {
      "anonymous": false,
      "inputs": [
        {
          "indexed": true,
          "internalType": "address",
          "name": "from",
          "type": "address"
        },
        {
          "indexed": true,
          "internalType": "address",
          "name": "to",
          "type": "address"
        },
        {
          "indexed": false,
          "internalType": "uint256",
          "name": "value",
          "type": "uint256"
        }
      ],
      "name": "Transfer",
      "type": "event"
    },
    {
      "anonymous": false,
      "inputs": [
        {
          "indexed": false,
          "internalType": "address",
          "name": "account",
          "type": "address"
        }
      ],
      "name": "Unpaused",
      "type": "event"
    },
    {
      "inputs": [],
      "name": "CLOSE_DURATION",
      "outputs": [
        {
          "internalType": "uint256",
          "name": "",
          "type": "uint256"
        }
      ],
      "stateMutability": "view",
      "type": "function"
    },
    {
      "inputs": [],
      "name": "DEFAULT_ADMIN_ROLE",
      "outputs": [
        {
          "internalType": "bytes32",
          "name": "",
          "type": "bytes32"
        }
      ],
      "stateMutability": "view",
      "type": "function"
    },
    {
      "inputs": [],
      "name": "DOMAIN_SEPARATOR",
      "outputs": [
        {
          "internalType": "bytes32",
          "name": "",
          "type": "bytes32"
        }
      ],
      "stateMutability": "view",
      "type": "function"
    },
    {
      "inputs": [],
      "name": "MTRG",
      "outputs": [
        {
          "internalType": "contract IERC20Upgradeable",
          "name": "",
          "type": "address"
        }
      ],
      "stateMutability": "view",
      "type": "function"
    },
    {
      "inputs": [
        {
          "internalType": "address",
          "name": "",
          "type": "address"
        }
      ],
      "name": "_shares",
      "outputs": [
        {
          "internalType": "uint256",
          "name": "",
          "type": "uint256"
        }
      ],
      "stateMutability": "view",
      "type": "function"
    },
    {
      "inputs": [],
      "name": "_totalShares",
      "outputs": [
        {
          "internalType": "uint256",
          "name": "",
          "type": "uint256"
        }
      ],
      "stateMutability": "view",
      "type": "function"
    },
    {
      "inputs": [],
      "name": "adminInit",
      "outputs": [],
      "stateMutability": "nonpayable",
      "type": "function"
    },
    {
      "inputs": [
        {
          "internalType": "address",
          "name": "account",
          "type": "address"
        },
        {
          "internalType": "uint256",
          "name": "amount",
          "type": "uint256"
        },
        {
          "internalType": "address",
          "name": "recipient",
          "type": "address"
        }
      ],
      "name": "adminWithdraw",
      "outputs": [],
      "stateMutability": "nonpayable",
      "type": "function"
    },
    {
      "inputs": [
        {
          "internalType": "address",
          "name": "to",
          "type": "address"
        }
      ],
      "name": "adminWithdrawAll",
      "outputs": [],
      "stateMutability": "nonpayable",
      "type": "function"
    },
    {
      "inputs": [
        {
          "internalType": "address",
          "name": "owner",
          "type": "address"
        },
        {
          "internalType": "address",
          "name": "spender",
          "type": "address"
        }
      ],
      "name": "allowance",
      "outputs": [
        {
          "internalType": "uint256",
          "name": "",
          "type": "uint256"
        }
      ],
      "stateMutability": "view",
      "type": "function"
    },
    {
      "inputs": [
        {
          "internalType": "address",
          "name": "spender",
          "type": "address"
        },
        {
          "internalType": "uint256",
          "name": "amount",
          "type": "uint256"
        }
      ],
      "name": "approve",
      "outputs": [
        {
          "internalType": "bool",
          "name": "",
          "type": "bool"
        }
      ],
      "stateMutability": "nonpayable",
      "type": "function"
    },
    {
      "inputs": [
        {
          "internalType": "address",
          "name": "account",
          "type": "address"
        }
      ],
      "name": "balanceOf",
      "outputs": [
        {
          "internalType": "uint256",
          "name": "",
          "type": "uint256"
        }
      ],
      "stateMutability": "view",
      "type": "function"
    },
    {
      "inputs": [],
      "name": "bucketID",
      "outputs": [
        {
          "internalType": "bytes32",
          "name": "",
          "type": "bytes32"
        }
      ],
      "stateMutability": "view",
      "type": "function"
    },
    {
      "inputs": [],
      "name": "candidate",
      "outputs": [
        {
          "internalType": "address",
          "name": "",
          "type": "address"
        }
      ],
      "stateMutability": "view",
      "type": "function"
    },
    {
      "inputs": [],
      "name": "closeTimestamp",
      "outputs": [
        {
          "internalType": "uint256",
          "name": "",
          "type": "uint256"
        }
      ],
      "stateMutability": "view",
      "type": "function"
    },
    {
      "inputs": [],
      "name": "decimals",
      "outputs": [
        {
          "internalType": "uint8",
          "name": "",
          "type": "uint8"
        }
      ],
      "stateMutability": "view",
      "type": "function"
    },
    {
      "inputs": [
        {
          "internalType": "address",
          "name": "spender",
          "type": "address"
        },
        {
          "internalType": "uint256",
          "name": "subtractedValue",
          "type": "uint256"
        }
      ],
      "name": "decreaseAllowance",
      "outputs": [
        {
          "internalType": "bool",
          "name": "",
          "type": "bool"
        }
      ],
      "stateMutability": "nonpayable",
      "type": "function"
    },
    {
      "inputs": [
        {
          "internalType": "uint256",
          "name": "amount",
          "type": "uint256"
        }
      ],
      "name": "deposit",
      "outputs": [],
      "stateMutability": "nonpayable",
      "type": "function"
    },
    {
      "inputs": [],
      "name": "epoch",
      "outputs": [
        {
          "internalType": "uint256",
          "name": "",
          "type": "uint256"
        }
      ],
      "stateMutability": "view",
      "type": "function"
    },
    {
      "inputs": [],
      "name": "executeClose",
      "outputs": [],
      "stateMutability": "nonpayable",
      "type": "function"
    },
    {
      "inputs": [
        {
          "internalType": "address",
          "name": "recipient",
          "type": "address"
        }
      ],
      "name": "exit",
      "outputs": [],
      "stateMutability": "nonpayable",
      "type": "function"
    },
    {
      "inputs": [
        {
          "internalType": "bytes32",
          "name": "role",
          "type": "bytes32"
        }
      ],
      "name": "getRoleAdmin",
      "outputs": [
        {
          "internalType": "bytes32",
          "name": "",
          "type": "bytes32"
        }
      ],
      "stateMutability": "view",
      "type": "function"
    },
    {
      "inputs": [
        {
          "internalType": "bytes32",
          "name": "role",
          "type": "bytes32"
        },
        {
          "internalType": "uint256",
          "name": "index",
          "type": "uint256"
        }
      ],
      "name": "getRoleMember",
      "outputs": [
        {
          "internalType": "address",
          "name": "",
          "type": "address"
        }
      ],
      "stateMutability": "view",
      "type": "function"
    },
    {
      "inputs": [
        {
          "internalType": "bytes32",
          "name": "role",
          "type": "bytes32"
        }
      ],
      "name": "getRoleMemberCount",
      "outputs": [
        {
          "internalType": "uint256",
          "name": "",
          "type": "uint256"
        }
      ],
      "stateMutability": "view",
      "type": "function"
    },
    {
      "inputs": [
        {
          "internalType": "bytes32",
          "name": "role",
          "type": "bytes32"
        },
        {
          "internalType": "address",
          "name": "account",
          "type": "address"
        }
      ],
      "name": "grantRole",
      "outputs": [],
      "stateMutability": "nonpayable",
      "type": "function"
    },
    {
      "inputs": [
        {
          "internalType": "bytes32",
          "name": "role",
          "type": "bytes32"
        },
        {
          "internalType": "address",
          "name": "account",
          "type": "address"
        }
      ],
      "name": "hasRole",
      "outputs": [
        {
          "internalType": "bool",
          "name": "",
          "type": "bool"
        }
      ],
      "stateMutability": "view",
      "type": "function"
    },
    {
      "inputs": [
        {
          "internalType": "address",
          "name": "spender",
          "type": "address"
        },
        {
          "internalType": "uint256",
          "name": "addedValue",
          "type": "uint256"
        }
      ],
      "name": "increaseAllowance",
      "outputs": [
        {
          "internalType": "bool",
          "name": "",
          "type": "bool"
        }
      ],
      "stateMutability": "nonpayable",
      "type": "function"
    },
    {
      "inputs": [
        {
          "internalType": "address",
          "name": "admin",
          "type": "address"
        },
        {
          "internalType": "contract IERC20Upgradeable",
          "name": "_MTRG",
          "type": "address"
        },
        {
          "internalType": "address",
          "name": "scriptEngineAddr",
          "type": "address"
        },
        {
          "internalType": "address",
          "name": "_candidate",
          "type": "address"
        }
      ],
      "name": "initialize",
      "outputs": [],
      "stateMutability": "nonpayable",
      "type": "function"
    },
    {
      "inputs": [],
      "name": "isClosed",
      "outputs": [
        {
          "internalType": "bool",
          "name": "",
          "type": "bool"
        }
      ],
      "stateMutability": "view",
      "type": "function"
    },
    {
      "inputs": [],
      "name": "name",
      "outputs": [
        {
          "internalType": "string",
          "name": "",
          "type": "string"
        }
      ],
      "stateMutability": "view",
      "type": "function"
    },
    {
      "inputs": [
        {
          "internalType": "address",
          "name": "owner",
          "type": "address"
        }
      ],
      "name": "nonces",
      "outputs": [
        {
          "internalType": "uint256",
          "name": "",
          "type": "uint256"
        }
      ],
      "stateMutability": "view",
      "type": "function"
    },
    {
      "inputs": [],
      "name": "pause",
      "outputs": [],
      "stateMutability": "nonpayable",
      "type": "function"
    },
    {
      "inputs": [],
      "name": "paused",
      "outputs": [
        {
          "internalType": "bool",
          "name": "",
          "type": "bool"
        }
      ],
      "stateMutability": "view",
      "type": "function"
    },
    {
      "inputs": [
        {
          "internalType": "address",
          "name": "owner",
          "type": "address"
        },
        {
          "internalType": "address",
          "name": "spender",
          "type": "address"
        },
        {
          "internalType": "uint256",
          "name": "value",
          "type": "uint256"
        },
        {
          "internalType": "uint256",
          "name": "deadline",
          "type": "uint256"
        },
        {
          "internalType": "uint8",
          "name": "v",
          "type": "uint8"
        },
        {
          "internalType": "bytes32",
          "name": "r",
          "type": "bytes32"
        },
        {
          "internalType": "bytes32",
          "name": "s",
          "type": "bytes32"
        }
      ],
      "name": "permit",
      "outputs": [],
      "stateMutability": "nonpayable",
      "type": "function"
    },
    {
      "inputs": [],
      "name": "rebase",
      "outputs": [],
      "stateMutability": "nonpayable",
      "type": "function"
    },
    {
      "inputs": [
        {
          "internalType": "bytes32",
          "name": "role",
          "type": "bytes32"
        },
        {
          "internalType": "address",
          "name": "account",
          "type": "address"
        }
      ],
      "name": "renounceRole",
      "outputs": [],
      "stateMutability": "nonpayable",
      "type": "function"
    },
    {
      "inputs": [],
      "name": "requestClose",
      "outputs": [],
      "stateMutability": "nonpayable",
      "type": "function"
    },
    {
      "inputs": [
        {
          "internalType": "bytes32",
          "name": "role",
          "type": "bytes32"
        },
        {
          "internalType": "address",
          "name": "account",
          "type": "address"
        }
      ],
      "name": "revokeRole",
      "outputs": [],
      "stateMutability": "nonpayable",
      "type": "function"
    },
    {
      "inputs": [
        {
          "internalType": "address",
          "name": "account",
          "type": "address"
        }
      ],
      "name": "setBlackList",
      "outputs": [],
      "stateMutability": "nonpayable",
      "type": "function"
    },
    {
      "inputs": [
        {
          "internalType": "uint256",
          "name": "_share",
          "type": "uint256"
        }
      ],
      "name": "shareToValue",
      "outputs": [
        {
          "internalType": "uint256",
          "name": "",
          "type": "uint256"
        }
      ],
      "stateMutability": "view",
      "type": "function"
    },
    {
      "inputs": [
        {
          "internalType": "bytes4",
          "name": "interfaceId",
          "type": "bytes4"
        }
      ],
      "name": "supportsInterface",
      "outputs": [
        {
          "internalType": "bool",
          "name": "",
          "type": "bool"
        }
      ],
      "stateMutability": "view",
      "type": "function"
    },
    {
      "inputs": [],
      "name": "symbol",
      "outputs": [
        {
          "internalType": "string",
          "name": "",
          "type": "string"
        }
      ],
      "stateMutability": "view",
      "type": "function"
    },
    {
      "inputs": [],
      "name": "totalSupply",
      "outputs": [
        {
          "internalType": "uint256",
          "name": "",
          "type": "uint256"
        }
      ],
      "stateMutability": "view",
      "type": "function"
    },
    {
      "inputs": [
        {
          "internalType": "address",
          "name": "to",
          "type": "address"
        },
        {
          "internalType": "uint256",
          "name": "amount",
          "type": "uint256"
        }
      ],
      "name": "transfer",
      "outputs": [
        {
          "internalType": "bool",
          "name": "",
          "type": "bool"
        }
      ],
      "stateMutability": "nonpayable",
      "type": "function"
    },
    {
      "inputs": [
        {
          "internalType": "address",
          "name": "from",
          "type": "address"
        },
        {
          "internalType": "address",
          "name": "to",
          "type": "address"
        },
        {
          "internalType": "uint256",
          "name": "amount",
          "type": "uint256"
        }
      ],
      "name": "transferFrom",
      "outputs": [
        {
          "internalType": "bool",
          "name": "",
          "type": "bool"
        }
      ],
      "stateMutability": "nonpayable",
      "type": "function"
    },
    {
      "inputs": [],
      "name": "unpause",
      "outputs": [],
      "stateMutability": "nonpayable",
      "type": "function"
    },
    {
      "inputs": [
        {
          "internalType": "address",
          "name": "newCandidateAddr",
          "type": "address"
        }
      ],
      "name": "updateCandidate",
      "outputs": [],
      "stateMutability": "nonpayable",
      "type": "function"
    },
    {
      "inputs": [
        {
          "internalType": "uint256",
          "name": "_value",
          "type": "uint256"
        }
      ],
      "name": "valueToShare",
      "outputs": [
        {
          "internalType": "uint256",
          "name": "",
          "type": "uint256"
        }
      ],
      "stateMutability": "view",
      "type": "function"
    },
    {
      "inputs": [
        {
          "internalType": "uint256",
          "name": "amount",
          "type": "uint256"
        },
        {
          "internalType": "address",
          "name": "recipient",
          "type": "address"
        }
      ],
      "name": "withdraw",
      "outputs": [],
      "stateMutability": "nonpayable",
      "type": "function"
    }
  ],
  "transactionHash": "0xc745dbea583d67330915543bf05c5fb118db2475b20577ea8d051524a96fbaa6",
  "args": [],
  "numDeployments": 1,
  "solcInputHash": "fdf85949bd95599f03272d877d4cbddc",
  "bytecode": "0x6080604052600061019455610197805460ff1916905534801561002157600080fd5b50612f81806100316000396000f3fe608060405234801561001057600080fd5b50600436106102ba5760003560e01c806388b0e2a411610182578063af14052c116100e9578063ca15c873116100a2578063dd62ed3e1161007c578063dd62ed3e146105de578063e788ff56146105f1578063f8c8765e146105f9578063fdb4fb0e1461060c57600080fd5b8063ca15c873146105a5578063d505accf146105b8578063d547741f146105cb57600080fd5b8063af14052c1461053e578063b0428da614610546578063b34c8caf14610550578063b42652e914610571578063b6b55f2514610584578063c2b6b58c1461059757600080fd5b80639e8f1d6e1161013b5780639e8f1d6e146104eb578063a217fddf146104f5578063a457c2d7146104fd578063a6536e7514610510578063a68b068b14610518578063a9059cbb1461052b57600080fd5b806388b0e2a41461048c578063900cf0cf146104a05780639010d07c146104aa57806391d14854146104bd57806395d89b41146104d0578063992d847e146104d857600080fd5b806339509351116102265780635c975abb116101df5780635c975abb146104135780636c8381f81461041f57806370a082311461044b578063727002411461045e5780637ecebe00146104715780638456cb591461048457600080fd5b806339509351146103b75780633f4ba83a146103ca578063441130d5146103d25780634b64fcd1146103e557806356e1887d146103f8578063577262ab1461040b57600080fd5b806323b872dd1161027857806323b872dd14610344578063248a9ca3146103575780632f2ff15d1461037a578063313ce5671461038d5780633644e5151461039c57806336568abe146103a457600080fd5b8062f714ce146102bf57806301ffc9a7146102d4578063052d7c00146102fc57806306fdde0314610314578063095ea7b31461032957806318160ddd1461033c575b600080fd5b6102d26102cd366004612a2b565b610616565b005b6102e76102e2366004612a5b565b61062d565b60405190151581526020015b60405180910390f35b6103066101965481565b6040519081526020016102f3565b61031c610658565b6040516102f39190612ab1565b6102e7610337366004612ae4565b6106ea565b610306610702565b6102e7610352366004612b10565b610776565b610306610365366004612b51565b600090815260fe602052604090206001015490565b6102d2610388366004612a2b565b61079a565b604051601281526020016102f3565b6103066107c4565b6102d26103b2366004612a2b565b6107ce565b6102e76103c5366004612ae4565b61084d565b6102d261086f565b6103066103e0366004612b51565b610885565b6103066103f3366004612b51565b6108ae565b6102d2610406366004612b6a565b6108b9565b6102d26108dd565b6101625460ff166102e7565b61019c54610433906001600160a01b031681565b6040516001600160a01b0390911681526020016102f3565b610306610459366004612bac565b61093a565b6102d261046c366004612bac565b61095d565b61030661047f366004612bac565b610993565b6102d26109b1565b61019d54610433906001600160a01b031681565b6103066101955481565b6104336104b8366004612bc9565b6109c4565b6102e76104cb366004612a2b565b6109e4565b61031c610a0f565b6102d26104e6366004612bac565b610a1e565b61030661019b5481565b610306600081565b6102e761050b366004612ae4565b610b1e565b6102d2610b99565b6102d2610526366004612bac565b610cb4565b6102e7610539366004612ae4565b610e1d565b6102d2610e2b565b6103066101945481565b61030661055e366004612bac565b6101986020526000908152604090205481565b6102d261057f366004612bac565b610f98565b6102d2610592366004612b51565b6110a5565b610197546102e79060ff1681565b6103066105b3366004612b51565b6112cd565b6102d26105c6366004612beb565b6112e5565b6102d26105d9366004612a2b565b611449565b6103066105ec366004612c62565b61146e565b6102d2611499565b6102d2610607366004612c90565b611693565b61030662278d0081565b61061e611868565b6106293383836118b1565b5050565b60006001600160e01b03198216635a05180f60e01b1480610652575061065282611a21565b92915050565b60606036805461066790612cec565b80601f016020809104026020016040519081016040528092919081815260200182805461069390612cec565b80156106e05780601f106106b5576101008083540402835291602001916106e0565b820191906000526020600020905b8154815290600101906020018083116106c357829003601f168201915b5050505050905090565b6000336106f8818585611a56565b5060019392505050565b61019a5460408051631d46ec1560e11b815290516000926001600160a01b031691633a8dd82a9160048083019260209291908290030181865afa15801561074d573d6000803e3d6000fd5b505050506040513d601f19601f820116820180604052508101906107719190612d21565b905090565b600033610784858285611b72565b61078f858585611be6565b506001949350505050565b600082815260fe60205260409020600101546107b581611e2f565b6107bf8383611e39565b505050565b6000610771611e5c565b6001600160a01b03811633146108435760405162461bcd60e51b815260206004820152602f60248201527f416363657373436f6e74726f6c3a2063616e206f6e6c792072656e6f756e636560448201526e103937b632b9903337b91039b2b63360891b60648201526084015b60405180910390fd5b6106298282611ed7565b6000336106f8818585610860838361146e565b61086a9190612d50565b611a56565b600061087a81611e2f565b610882611efa565b50565b6000610652610194546108a8610899610702565b6108a286611f4d565b90611f68565b90611fac565b600061065282611feb565b60006108c481611e2f565b6108cc61200f565b6108d78484846118b1565b50505050565b60006108e881611e2f565b610197805460ff19166001179055426101968190556040517f2e833c16c65d039b0eb1b7b1b7d7b219f0bd0b107a8a5555bf828a1c09833bd79161092f9190815260200190565b60405180910390a150565b6001600160a01b0381166000908152610198602052604081205461065290610885565b600061096881611e2f565b506001600160a01b0316600090815261019960205260409020805460ff19811660ff90911615179055565b6001600160a01b038116600090815260996020526040812054610652565b60006109bc81611e2f565b610882612059565b6000828152610130602052604081206109dd9083612097565b9392505050565b600091825260fe602090815260408084206001600160a01b0393909316845291905290205460ff1690565b60606037805461066790612cec565b6000610a2981611e2f565b6101975460ff1615610a4d5760405162461bcd60e51b815260040161083a90612d68565b61019a5461019b546040516304a8292160e41b815260048101919091526001600160a01b03848116602483015290911690634a82921090604401600060405180830381600087803b158015610aa157600080fd5b505af1158015610ab5573d6000803e3d6000fd5b505061019c80546001600160a01b031981166001600160a01b038781169182179093556040805193909216808452602084019190915293507fdeb5698764fe4c74f69cd32a9933797c5b9b1e326b6dfc883778050164375a4592500160405180910390a1505050565b60003381610b2c828661146e565b905083811015610b8c5760405162461bcd60e51b815260206004820152602560248201527f45524332303a2064656372656173656420616c6c6f77616e63652062656c6f77604482015264207a65726f60d81b606482015260840161083a565b61078f8286868403611a56565b6000610ba481611e2f565b6101975460ff16610bc75760405162461bcd60e51b815260040161083a90612d68565b62278d0061019654610bd99190612d50565b421015610c1a5760405162461bcd60e51b815260206004820152600f60248201526e434c4f53455f4455524154494f4e2160881b604482015260640161083a565b61019a5461019b546040516377d7f91360e01b81526001600160a01b03909216916377d7f91391610c519160040190815260200190565b600060405180830381600087803b158015610c6b57600080fd5b505af1158015610c7f573d6000803e3d6000fd5b505050507f6dd94557783fb712f42c550895d6b0cb542f62491a9a9fd76658cf40e750aeb54260405161092f91815260200190565b6000610cbf81611e2f565b6101975460ff16610ce25760405162461bcd60e51b815260040161083a90612d68565b62278d0061019654610cf49190612d50565b421015610d355760405162461bcd60e51b815260206004820152600f60248201526e434c4f53455f4455524154494f4e2160881b604482015260640161083a565b61019d546040516370a0823160e01b81523060048201526000916001600160a01b0316906370a0823190602401602060405180830381865afa158015610d7f573d6000803e3d6000fd5b505050506040513d601f19601f82011682018060405250810190610da39190612d21565b61019d5460405163a9059cbb60e01b81526001600160a01b0386811660048301526024820184905292935091169063a9059cbb906044016020604051808303816000875af1158015610df9573d6000803e3d6000fd5b505050506040513d601f19601f820116820180604052508101906108d79190612d89565b6000336106f8818585611be6565b6000610e3681611e2f565b6101975460ff1615610e5a5760405162461bcd60e51b815260040161083a90612d68565b61019d546040516370a0823160e01b81523060048201526000916001600160a01b0316906370a0823190602401602060405180830381865afa158015610ea4573d6000803e3d6000fd5b505050506040513d601f19601f82011682018060405250810190610ec89190612d21565b90508015610f405761019a5461019b54604051626de11b60e61b81526001600160a01b0390921691631b7846c091610f0d918590600401918252602082015260400190565b600060405180830381600087803b158015610f2757600080fd5b505af1158015610f3b573d6000803e3d6000fd5b505050505b6101958054906000610f5183612dab565b9190505550610195547f72725a3b1e5bd622d6bcd1339bb31279c351abe8f541ac7fd320f24e1b1641f2610f83610702565b60405190815260200160405180910390a25050565b610fa0611868565b336000818152610198602052604081205490610fbb8361093a565b6001600160a01b038416600090815261019860205260408120559050610fe082611f4d565b61019480549190910390556040518181526000906001600160a01b03851690600080516020612f2c8339815191529060200160405180910390a361019a5461019b54604051632b0fcbdf60e11b81526004810191909152602481018390526001600160a01b0386811660448301529091169063561f97be906064016020604051808303816000875af115801561107a573d6000803e3d6000fd5b505050506040513d601f19601f8201168201806040525081019061109e9190612d21565b5050505050565b6110ad611868565b6101975460ff16156110d15760405162461bcd60e51b815260040161083a90612d68565b61019d546040516323b872dd60e01b8152336004820181905230602483015260448201849052916000916001600160a01b03909116906323b872dd906064016020604051808303816000875af115801561112f573d6000803e3d6000fd5b505050506040513d601f19601f820116820180604052508101906111539190612d89565b50600061019454116111995760405162461bcd60e51b815260206004820152600f60248201526e0746f74616c536861726573203d203608c1b604482015260640161083a565b61019b546111d55760405162461bcd60e51b81526020600482015260096024820152686275636b657449442160b81b604482015260640161083a565b6111de83611feb565b61019a5461019b54604051626de11b60e61b81526004810191909152602481018690529192506001600160a01b031690631b7846c090604401600060405180830381600087803b15801561123157600080fd5b505af1158015611245573d6000803e3d6000fd5b505050506001600160a01b0382166000908152610198602052604081208054839290611272908490612d50565b90915550611281905081611f4d565b61019460008282546112939190612d50565b90915550506040518381526001600160a01b03831690600090600080516020612f2c833981519152906020015b60405180910390a3505050565b600081815261013060205260408120610652906120a3565b834211156113355760405162461bcd60e51b815260206004820152601d60248201527f45524332305065726d69743a206578706972656420646561646c696e65000000604482015260640161083a565b60007f6e71edae12b1b97f4d1f60370fef10105fa2faae0126114a169c64845d6126c98888886113648c6120ad565b6040805160208101969096526001600160a01b0394851690860152929091166060840152608083015260a082015260c0810186905260e00160405160208183030381529060405280519060200120905060006113bf826120d5565b905060006113cf82878787612123565b9050896001600160a01b0316816001600160a01b0316146114325760405162461bcd60e51b815260206004820152601e60248201527f45524332305065726d69743a20696e76616c6964207369676e61747572650000604482015260640161083a565b61143d8a8a8a611a56565b50505050505050505050565b600082815260fe602052604090206001015461146481611e2f565b6107bf8383611ed7565b6001600160a01b03918216600090815260346020908152604080832093909416825291909152205490565b60006114a481611e2f565b6101975460ff16156114c85760405162461bcd60e51b815260040161083a90612d68565b610194541561150c5760405162461bcd60e51b815260206004820152601060248201526f0746f74616c53686172657320213d20360841b604482015260640161083a565b61019d546040516323b872dd60e01b8152336004820181905230602483015268056bc75e2d6310000060448301819052909290916001600160a01b03909116906323b872dd906064016020604051808303816000875af1158015611574573d6000803e3d6000fd5b505050506040513d601f19601f820116820180604052508101906115989190612d89565b5061019a5461019c5460405163183077b960e11b81526001600160a01b03918216600482015260248101849052911690633060ef72906044016020604051808303816000875af11580156115f0573d6000803e3d6000fd5b505050506040513d601f19601f820116820180604052508101906116149190612d21565b61019b556001600160a01b0382166000908152610198602052604081208054839290611641908490612d50565b90915550611650905081611f4d565b61019460008282546116629190612d50565b90915550506040518181526001600160a01b03831690600090600080516020612f2c833981519152906020016112c0565b600054610100900460ff16158080156116b35750600054600160ff909116105b806116cd5750303b1580156116cd575060005460ff166001145b6117305760405162461bcd60e51b815260206004820152602e60248201527f496e697469616c697a61626c653a20636f6e747261637420697320616c72656160448201526d191e481a5b9a5d1a585b1a5e995960921b606482015260840161083a565b6000805460ff191660011790558015611753576000805461ff0019166101001790555b61177e6040518060400160405280600a815260200169073744d54524720312e360b41b81525061214b565b6117c96040518060400160405280600b81526020016a5374616b6564204d54524760a81b8152506040518060400160405280600681526020016573744d54524760d01b815250612195565b6117d16121c6565b6117dc6000866121f5565b61019a80546001600160a01b038086166001600160a01b03199283161790925561019c805485841690831617905561019d805492871692909116919091179055801561109e576000805461ff0019169055604051600181527f7f26b83ff96e1f2b6a682f133852f6798a09c465da95921460cefb38474024989060200160405180910390a15050505050565b6101625460ff16156118af5760405162461bcd60e51b815260206004820152601060248201526f14185d5cd8589b194e881c185d5cd95960821b604482015260640161083a565b565b60006118bc83611feb565b6001600160a01b03851660009081526101986020526040902054909150818110156119345760405162461bcd60e51b815260206004820152602260248201527f45524332303a206275726e20616d6f756e7420657863656564732062616c616e604482015261636560f01b606482015260840161083a565b6001600160a01b038516600090815261019860205260409020828203905561195b82611f4d565b61019480549190910390556040518481526000906001600160a01b03871690600080516020612f2c8339815191529060200160405180910390a361019a5461019b54604051632b0fcbdf60e11b81526004810191909152602481018690526001600160a01b0385811660448301529091169063561f97be906064016020604051808303816000875af11580156119f5573d6000803e3d6000fd5b505050506040513d601f19601f82011682018060405250810190611a199190612d21565b505050505050565b60006001600160e01b03198216637965db0b60e01b148061065257506301ffc9a760e01b6001600160e01b0319831614610652565b6001600160a01b038316611ab85760405162461bcd60e51b8152602060048201526024808201527f45524332303a20617070726f76652066726f6d20746865207a65726f206164646044820152637265737360e01b606482015260840161083a565b6001600160a01b038216611b195760405162461bcd60e51b815260206004820152602260248201527f45524332303a20617070726f766520746f20746865207a65726f206164647265604482015261737360f01b606482015260840161083a565b6001600160a01b0383811660008181526034602090815260408083209487168084529482529182902085905590518481527f8c5be1e5ebec7d5bd14f71427d1e84f3dd0314c0f7b2291e5b200ac8c7c3b92591016112c0565b6000611b7e848461146e565b905060001981146108d75781811015611bd95760405162461bcd60e51b815260206004820152601d60248201527f45524332303a20696e73756666696369656e7420616c6c6f77616e6365000000604482015260640161083a565b6108d78484848403611a56565b6001600160a01b038316611c4a5760405162461bcd60e51b815260206004820152602560248201527f45524332303a207472616e736665722066726f6d20746865207a65726f206164604482015264647265737360d81b606482015260840161083a565b6001600160a01b038216611cac5760405162461bcd60e51b815260206004820152602360248201527f45524332303a207472616e7366657220746f20746865207a65726f206164647260448201526265737360e81b606482015260840161083a565b6001600160a01b0383166000908152610199602052604090205460ff16158015611cf057506001600160a01b0382166000908152610199602052604090205460ff16155b611d4c5760405162461bcd60e51b815260206004820152602760248201527f45524332305061757361626c653a206163636f756e7420697320696e20626c6160448201526618dac81b1a5cdd60ca1b606482015260840161083a565b6000611d5782611feb565b6001600160a01b0385166000908152610198602052604090205490915081811015611dd35760405162461bcd60e51b815260206004820152602660248201527f45524332303a207472616e7366657220616d6f756e7420657863656564732062604482015265616c616e636560d01b606482015260840161083a565b6001600160a01b03808616600081815261019860205260408082208686039055928716808252908390208054860190559151600080516020612f2c83398151915290611e229087815260200190565b60405180910390a361109e565b61088281336121ff565b611e438282612258565b6000828152610130602052604090206107bf90826122de565b60006107717f8b73c3c69bb8fe3d512ecc4cf759cc79239f7b179b0ffacaa9a75d522b39400f611e8b60655490565b6066546040805160208101859052908101839052606081018290524660808201523060a082015260009060c0016040516020818303038152906040528051906020012090509392505050565b611ee182826122f3565b6000828152610130602052604090206107bf908261235a565b611f0261200f565b610162805460ff191690557f5db9ee0a495bf2e6ff9c91a7834c1ba4fdd244a5e8aa4e537bd38aeae4b073aa335b6040516001600160a01b03909116815260200160405180910390a1565b633b9aca008181029081048214611f6357600080fd5b919050565b600081156b019d971e4fe8401e740000001983900484111517611f8a57600080fd5b506b033b2e3c9fd0803ce800000091026b019d971e4fe8401e74000000010490565b600081156b033b2e3c9fd0803ce800000060028404190484111715611fd057600080fd5b506b033b2e3c9fd0803ce80000009190910260028204010490565b600061065261200a611ffb610702565b610194546108a8908690611f68565b61236f565b6101625460ff166118af5760405162461bcd60e51b815260206004820152601460248201527314185d5cd8589b194e881b9bdd081c185d5cd95960621b604482015260640161083a565b612061611868565b610162805460ff191660011790557f62e78cea01bee320cd4e420270b5ea74000d11b0c9f74754ebdbfc544b05a258611f303390565b60006109dd838361238e565b6000610652825490565b6001600160a01b03811660009081526099602052604090208054600181018255905b50919050565b60006106526120e2611e5c565b8360405161190160f01b6020820152602281018390526042810182905260009060620160405160208183030381529060405280519060200120905092915050565b6000806000612134878787876123b8565b915091506121418161247c565b5095945050505050565b600054610100900460ff166121725760405162461bcd60e51b815260040161083a90612dc6565b61088281604051806040016040528060018152602001603160f81b8152506125ca565b600054610100900460ff166121bc5760405162461bcd60e51b815260040161083a90612dc6565b610629828261260b565b600054610100900460ff166121ed5760405162461bcd60e51b815260040161083a90612dc6565b6118af612659565b6106298282611e39565b61220982826109e4565b610629576122168161268d565b61222183602061269f565b604051602001612232929190612e11565b60408051601f198184030181529082905262461bcd60e51b825261083a91600401612ab1565b61226282826109e4565b61062957600082815260fe602090815260408083206001600160a01b03851684529091529020805460ff1916600117905561229a3390565b6001600160a01b0316816001600160a01b0316837f2f8788117e7eff1d82e926ec794901d17c78024a50270940304540a733656f0d60405160405180910390a45050565b60006109dd836001600160a01b03841661283b565b6122fd82826109e4565b1561062957600082815260fe602090815260408083206001600160a01b0385168085529252808320805460ff1916905551339285917ff6391f5c32d9c69d2a47ea670b442974b53935d1edc7fd64eb21e047a839171b9190a45050565b60006109dd836001600160a01b03841661288a565b633b9aca00808204908206631dcd650081106120cf5750600101919050565b60008260000182815481106123a5576123a5612e86565b9060005260206000200154905092915050565b6000807f7fffffffffffffffffffffffffffffff5d576e7357a4501ddfe92f46681b20a08311156123ef5750600090506003612473565b6040805160008082526020820180845289905260ff881692820192909252606081018690526080810185905260019060a0016020604051602081039080840390855afa158015612443573d6000803e3d6000fd5b5050604051601f1901519150506001600160a01b03811661246c57600060019250925050612473565b9150600090505b94509492505050565b600081600481111561249057612490612e9c565b14156124995750565b60018160048111156124ad576124ad612e9c565b14156124fb5760405162461bcd60e51b815260206004820152601860248201527f45434453413a20696e76616c6964207369676e61747572650000000000000000604482015260640161083a565b600281600481111561250f5761250f612e9c565b141561255d5760405162461bcd60e51b815260206004820152601f60248201527f45434453413a20696e76616c6964207369676e6174757265206c656e67746800604482015260640161083a565b600381600481111561257157612571612e9c565b14156108825760405162461bcd60e51b815260206004820152602260248201527f45434453413a20696e76616c6964207369676e6174757265202773272076616c604482015261756560f01b606482015260840161083a565b600054610100900460ff166125f15760405162461bcd60e51b815260040161083a90612dc6565b815160209283012081519190920120606591909155606655565b600054610100900460ff166126325760405162461bcd60e51b815260040161083a90612dc6565b815161264590603690602085019061297d565b5080516107bf90603790602084019061297d565b600054610100900460ff166126805760405162461bcd60e51b815260040161083a90612dc6565b610162805460ff19169055565b60606106526001600160a01b03831660145b606060006126ae836002612eb2565b6126b9906002612d50565b67ffffffffffffffff8111156126d1576126d1612ed1565b6040519080825280601f01601f1916602001820160405280156126fb576020820181803683370190505b509050600360fc1b8160008151811061271657612716612e86565b60200101906001600160f81b031916908160001a905350600f60fb1b8160018151811061274557612745612e86565b60200101906001600160f81b031916908160001a9053506000612769846002612eb2565b612774906001612d50565b90505b60018111156127ec576f181899199a1a9b1b9c1cb0b131b232b360811b85600f16601081106127a8576127a8612e86565b1a60f81b8282815181106127be576127be612e86565b60200101906001600160f81b031916908160001a90535060049490941c936127e581612ee7565b9050612777565b5083156109dd5760405162461bcd60e51b815260206004820181905260248201527f537472696e67733a20686578206c656e67746820696e73756666696369656e74604482015260640161083a565b600081815260018301602052604081205461288257508154600181810184556000848152602080822090930184905584548482528286019093526040902091909155610652565b506000610652565b600081815260018301602052604081205480156129735760006128ae600183612efe565b85549091506000906128c290600190612efe565b90508181146129275760008660000182815481106128e2576128e2612e86565b906000526020600020015490508087600001848154811061290557612905612e86565b6000918252602080832090910192909255918252600188019052604090208390555b855486908061293857612938612f15565b600190038181906000526020600020016000905590558560010160008681526020019081526020016000206000905560019350505050610652565b6000915050610652565b82805461298990612cec565b90600052602060002090601f0160209004810192826129ab57600085556129f1565b82601f106129c457805160ff19168380011785556129f1565b828001600101855582156129f1579182015b828111156129f15782518255916020019190600101906129d6565b506129fd929150612a01565b5090565b5b808211156129fd5760008155600101612a02565b6001600160a01b038116811461088257600080fd5b60008060408385031215612a3e57600080fd5b823591506020830135612a5081612a16565b809150509250929050565b600060208284031215612a6d57600080fd5b81356001600160e01b0319811681146109dd57600080fd5b60005b83811015612aa0578181015183820152602001612a88565b838111156108d75750506000910152565b6020815260008251806020840152612ad0816040850160208701612a85565b601f01601f19169190910160400192915050565b60008060408385031215612af757600080fd5b8235612b0281612a16565b946020939093013593505050565b600080600060608486031215612b2557600080fd5b8335612b3081612a16565b92506020840135612b4081612a16565b929592945050506040919091013590565b600060208284031215612b6357600080fd5b5035919050565b600080600060608486031215612b7f57600080fd5b8335612b8a81612a16565b9250602084013591506040840135612ba181612a16565b809150509250925092565b600060208284031215612bbe57600080fd5b81356109dd81612a16565b60008060408385031215612bdc57600080fd5b50508035926020909101359150565b600080600080600080600060e0888a031215612c0657600080fd5b8735612c1181612a16565b96506020880135612c2181612a16565b95506040880135945060608801359350608088013560ff81168114612c4557600080fd5b9699959850939692959460a0840135945060c09093013592915050565b60008060408385031215612c7557600080fd5b8235612c8081612a16565b91506020830135612a5081612a16565b60008060008060808587031215612ca657600080fd5b8435612cb181612a16565b93506020850135612cc181612a16565b92506040850135612cd181612a16565b91506060850135612ce181612a16565b939692955090935050565b600181811c90821680612d0057607f821691505b602082108114156120cf57634e487b7160e01b600052602260045260246000fd5b600060208284031215612d3357600080fd5b5051919050565b634e487b7160e01b600052601160045260246000fd5b60008219821115612d6357612d63612d3a565b500190565b602080825260079082015266636c6f7365642160c81b604082015260600190565b600060208284031215612d9b57600080fd5b815180151581146109dd57600080fd5b6000600019821415612dbf57612dbf612d3a565b5060010190565b6020808252602b908201527f496e697469616c697a61626c653a20636f6e7472616374206973206e6f74206960408201526a6e697469616c697a696e6760a81b606082015260800190565b7f416363657373436f6e74726f6c3a206163636f756e7420000000000000000000815260008351612e49816017850160208801612a85565b7001034b99036b4b9b9b4b733903937b6329607d1b6017918401918201528351612e7a816028840160208801612a85565b01602801949350505050565b634e487b7160e01b600052603260045260246000fd5b634e487b7160e01b600052602160045260246000fd5b6000816000190483118215151615612ecc57612ecc612d3a565b500290565b634e487b7160e01b600052604160045260246000fd5b600081612ef657612ef6612d3a565b506000190190565b600082821015612f1057612f10612d3a565b500390565b634e487b7160e01b600052603160045260246000fdfeddf252ad1be2c89b69c2b068fc378daa952ba7f163c4a11628f55a4df523b3efa2646970667358221220a0b9b9e398b40884bf09c1bfc443840967d8d110e3b8131aa3a9aecb25c7ee4464736f6c634300080b0033",
  "devdoc": {
    "kind": "dev",
    "methods": {
      "DOMAIN_SEPARATOR()": {
        "details": "See {IERC20Permit-DOMAIN_SEPARATOR}."
      },
      "allowance(address,address)": {
        "details": "See {IERC20-allowance}."
      },
      "approve(address,uint256)": {
        "details": "See {IERC20-approve}. NOTE: If `amount` is the maximum `uint256`, the allowance is not updated on `transferFrom`. This is semantically equivalent to an infinite approval. Requirements: - `spender` cannot be the zero address."
      },
      "balanceOf(address)": {
        "details": "See {IERC20-balanceOf}."
      },
      "decimals()": {
        "details": "Returns the number of decimals used to get its user representation. For example, if `decimals` equals `2`, a balance of `505` tokens should be displayed to a user as `5.05` (`505 / 10 ** 2`). Tokens usually opt for a value of 18, imitating the relationship between Ether and Wei. This is the value {ERC20} uses, unless this function is overridden; NOTE: This information is only used for _display_ purposes: it in no way affects any of the arithmetic of the contract, including {IERC20-balanceOf} and {IERC20-transfer}."
      },
      "decreaseAllowance(address,uint256)": {
        "details": "Atomically decreases the allowance granted to `spender` by the caller. This is an alternative to {approve} that can be used as a mitigation for problems described in {IERC20-approve}. Emits an {Approval} event indicating the updated allowance. Requirements: - `spender` cannot be the zero address. - `spender` must have allowance for the caller of at least `subtractedValue`."
      },
      "getRoleAdmin(bytes32)": {
        "details": "Returns the admin role that controls `role`. See {grantRole} and {revokeRole}. To change a role's admin, use {_setRoleAdmin}."
      },
      "getRoleMember(bytes32,uint256)": {
        "details": "Returns one of the accounts that have `role`. `index` must be a value between 0 and {getRoleMemberCount}, non-inclusive. Role bearers are not sorted in any particular way, and their ordering may change at any point. WARNING: When using {getRoleMember} and {getRoleMemberCount}, make sure you perform all queries on the same block. See the following https://forum.openzeppelin.com/t/iterating-over-elements-on-enumerableset-in-openzeppelin-contracts/2296[forum post] for more information."
      },
      "getRoleMemberCount(bytes32)": {
        "details": "Returns the number of accounts that have `role`. Can be used together with {getRoleMember} to enumerate all bearers of a role."
      },
      "grantRole(bytes32,address)": {
        "details": "Grants `role` to `account`. If `account` had not been already granted `role`, emits a {RoleGranted} event. Requirements: - the caller must have ``role``'s admin role. May emit a {RoleGranted} event."
      },
      "hasRole(bytes32,address)": {
        "details": "Returns `true` if `account` has been granted `role`."
      },
      "increaseAllowance(address,uint256)": {
        "details": "Atomically increases the allowance granted to `spender` by the caller. This is an alternative to {approve} that can be used as a mitigation for problems described in {IERC20-approve}. Emits an {Approval} event indicating the updated allowance. Requirements: - `spender` cannot be the zero address."
      },
      "name()": {
        "details": "Returns the name of the token."
      },
      "nonces(address)": {
        "details": "See {IERC20Permit-nonces}."
      },
      "paused()": {
        "details": "Returns true if the contract is paused, and false otherwise."
      },
      "permit(address,address,uint256,uint256,uint8,bytes32,bytes32)": {
        "details": "See {IERC20Permit-permit}."
      },
      "renounceRole(bytes32,address)": {
        "details": "Revokes `role` from the calling account. Roles are often managed via {grantRole} and {revokeRole}: this function's purpose is to provide a mechanism for accounts to lose their privileges if they are compromised (such as when a trusted device is misplaced). If the calling account had been revoked `role`, emits a {RoleRevoked} event. Requirements: - the caller must be `account`. May emit a {RoleRevoked} event."
      },
      "revokeRole(bytes32,address)": {
        "details": "Revokes `role` from `account`. If `account` had been granted `role`, emits a {RoleRevoked} event. Requirements: - the caller must have ``role``'s admin role. May emit a {RoleRevoked} event."
      },
      "supportsInterface(bytes4)": {
        "details": "See {IERC165-supportsInterface}."
      },
      "symbol()": {
        "details": "Returns the symbol of the token, usually a shorter version of the name."
      },
      "totalSupply()": {
        "details": "See {IERC20-totalSupply}."
      },
      "transfer(address,uint256)": {
        "details": "See {IERC20-transfer}. Requirements: - `to` cannot be the zero address. - the caller must have a balance of at least `amount`."
      },
      "transferFrom(address,address,uint256)": {
        "details": "See {IERC20-transferFrom}. Emits an {Approval} event indicating the updated allowance. This is not required by the EIP. See the note at the beginning of {ERC20}. NOTE: Does not update the allowance if the current allowance is the maximum `uint256`. Requirements: - `from` and `to` cannot be the zero address. - `from` must have a balance of at least `amount`. - the caller must have allowance for ``from``'s tokens of at least `amount`."
      }
    },
    "version": 1
  },
  "userdoc": {
    "kind": "user",
    "methods": {},
    "version": 1
  },
  "storageLayout": {
    "storage": [
      {
        "astId": 585,
        "contract": "contracts/StMTRG.sol:StMTRG",
        "label": "_initialized",
        "offset": 0,
        "slot": "0",
        "type": "t_uint8"
      },
      {
        "astId": 588,
        "contract": "contracts/StMTRG.sol:StMTRG",
        "label": "_initializing",
        "offset": 1,
        "slot": "0",
        "type": "t_bool"
      },
      {
        "astId": 2141,
        "contract": "contracts/StMTRG.sol:StMTRG",
        "label": "__gap",
        "offset": 0,
        "slot": "1",
        "type": "t_array(t_uint256)50_storage"
      },
      {
        "astId": 893,
        "contract": "contracts/StMTRG.sol:StMTRG",
        "label": "_balances",
        "offset": 0,
        "slot": "51",
        "type": "t_mapping(t_address,t_uint256)"
      },
      {
        "astId": 899,
        "contract": "contracts/StMTRG.sol:StMTRG",
        "label": "_allowances",
        "offset": 0,
        "slot": "52",
        "type": "t_mapping(t_address,t_mapping(t_address,t_uint256))"
      },
      {
        "astId": 901,
        "contract": "contracts/StMTRG.sol:StMTRG",
        "label": "_totalSupply",
        "offset": 0,
        "slot": "53",
        "type": "t_uint256"
      },
      {
        "astId": 903,
        "contract": "contracts/StMTRG.sol:StMTRG",
        "label": "_name",
        "offset": 0,
        "slot": "54",
        "type": "t_string_storage"
      },
      {
        "astId": 905,
        "contract": "contracts/StMTRG.sol:StMTRG",
        "label": "_symbol",
        "offset": 0,
        "slot": "55",
        "type": "t_string_storage"
      },
      {
        "astId": 1485,
        "contract": "contracts/StMTRG.sol:StMTRG",
        "label": "__gap",
        "offset": 0,
        "slot": "56",
        "type": "t_array(t_uint256)45_storage"
      },
      {
        "astId": 2761,
        "contract": "contracts/StMTRG.sol:StMTRG",
        "label": "_HASHED_NAME",
        "offset": 0,
        "slot": "101",
        "type": "t_bytes32"
      },
      {
        "astId": 2763,
        "contract": "contracts/StMTRG.sol:StMTRG",
        "label": "_HASHED_VERSION",
        "offset": 0,
        "slot": "102",
        "type": "t_bytes32"
      },
      {
        "astId": 2901,
        "contract": "contracts/StMTRG.sol:StMTRG",
        "label": "__gap",
        "offset": 0,
        "slot": "103",
        "type": "t_array(t_uint256)50_storage"
      },
      {
        "astId": 1615,
        "contract": "contracts/StMTRG.sol:StMTRG",
        "label": "_nonces",
        "offset": 0,
        "slot": "153",
        "type": "t_mapping(t_address,t_struct(Counter)2148_storage)"
      },
      {
        "astId": 1623,
        "contract": "contracts/StMTRG.sol:StMTRG",
        "label": "_PERMIT_TYPEHASH_DEPRECATED_SLOT",
        "offset": 0,
        "slot": "154",
        "type": "t_bytes32"
      },
      {
        "astId": 1779,
        "contract": "contracts/StMTRG.sol:StMTRG",
        "label": "__gap",
        "offset": 0,
        "slot": "155",
        "type": "t_array(t_uint256)49_storage"
      },
      {
        "astId": 2945,
        "contract": "contracts/StMTRG.sol:StMTRG",
        "label": "__gap",
        "offset": 0,
        "slot": "204",
        "type": "t_array(t_uint256)50_storage"
      },
      {
        "astId": 184,
        "contract": "contracts/StMTRG.sol:StMTRG",
        "label": "_roles",
        "offset": 0,
        "slot": "254",
        "type": "t_mapping(t_bytes32,t_struct(RoleData)179_storage)"
      },
      {
        "astId": 479,
        "contract": "contracts/StMTRG.sol:StMTRG",
        "label": "__gap",
        "offset": 0,
        "slot": "255",
        "type": "t_array(t_uint256)49_storage"
      },
      {
        "astId": 33,
        "contract": "contracts/StMTRG.sol:StMTRG",
        "label": "_roleMembers",
        "offset": 0,
        "slot": "304",
        "type": "t_mapping(t_bytes32,t_struct(AddressSet)4149_storage)"
      },
      {
        "astId": 143,
        "contract": "contracts/StMTRG.sol:StMTRG",
        "label": "__gap",
        "offset": 0,
        "slot": "305",
        "type": "t_array(t_uint256)49_storage"
      },
      {
        "astId": 768,
        "contract": "contracts/StMTRG.sol:StMTRG",
        "label": "_paused",
        "offset": 0,
        "slot": "354",
        "type": "t_bool"
      },
      {
        "astId": 873,
        "contract": "contracts/StMTRG.sol:StMTRG",
        "label": "__gap",
        "offset": 0,
        "slot": "355",
        "type": "t_array(t_uint256)49_storage"
      },
      {
        "astId": 4526,
        "contract": "contracts/StMTRG.sol:StMTRG",
        "label": "_totalShares",
        "offset": 0,
        "slot": "404",
        "type": "t_uint256"
      },
      {
        "astId": 4528,
        "contract": "contracts/StMTRG.sol:StMTRG",
        "label": "epoch",
        "offset": 0,
        "slot": "405",
        "type": "t_uint256"
      },
      {
        "astId": 4533,
        "contract": "contracts/StMTRG.sol:StMTRG",
        "label": "closeTimestamp",
        "offset": 0,
        "slot": "406",
        "type": "t_uint256"
      },
      {
        "astId": 4536,
        "contract": "contracts/StMTRG.sol:StMTRG",
        "label": "isClosed",
        "offset": 0,
        "slot": "407",
        "type": "t_bool"
      },
      {
        "astId": 4540,
        "contract": "contracts/StMTRG.sol:StMTRG",
        "label": "_shares",
        "offset": 0,
        "slot": "408",
        "type": "t_mapping(t_address,t_uint256)"
      },
      {
        "astId": 4544,
        "contract": "contracts/StMTRG.sol:StMTRG",
        "label": "_blackList",
        "offset": 0,
        "slot": "409",
        "type": "t_mapping(t_address,t_bool)"
      },
      {
        "astId": 4547,
        "contract": "contracts/StMTRG.sol:StMTRG",
        "label": "scriptEngine",
        "offset": 0,
        "slot": "410",
        "type": "t_contract(IScriptEngine)4487"
      },
      {
        "astId": 4549,
        "contract": "contracts/StMTRG.sol:StMTRG",
        "label": "bucketID",
        "offset": 0,
        "slot": "411",
        "type": "t_bytes32"
      },
      {
        "astId": 4551,
        "contract": "contracts/StMTRG.sol:StMTRG",
        "label": "candidate",
        "offset": 0,
        "slot": "412",
        "type": "t_address"
      },
      {
        "astId": 4554,
        "contract": "contracts/StMTRG.sol:StMTRG",
        "label": "MTRG",
        "offset": 0,
        "slot": "413",
        "type": "t_contract(IERC20Upgradeable)1564"
      }
    ],
    "types": {
      "t_address": {
        "encoding": "inplace",
        "label": "address",
        "numberOfBytes": "20"
      },
      "t_array(t_bytes32)dyn_storage": {
        "base": "t_bytes32",
        "encoding": "dynamic_array",
        "label": "bytes32[]",
        "numberOfBytes": "32"
      },
      "t_array(t_uint256)45_storage": {
        "base": "t_uint256",
        "encoding": "inplace",
        "label": "uint256[45]",
        "numberOfBytes": "1440"
      },
      "t_array(t_uint256)49_storage": {
        "base": "t_uint256",
        "encoding": "inplace",
        "label": "uint256[49]",
        "numberOfBytes": "1568"
      },
      "t_array(t_uint256)50_storage": {
        "base": "t_uint256",
        "encoding": "inplace",
        "label": "uint256[50]",
        "numberOfBytes": "1600"
      },
      "t_bool": {
        "encoding": "inplace",
        "label": "bool",
        "numberOfBytes": "1"
      },
      "t_bytes32": {
        "encoding": "inplace",
        "label": "bytes32",
        "numberOfBytes": "32"
      },
      "t_contract(IERC20Upgradeable)1564": {
        "encoding": "inplace",
        "label": "contract IERC20Upgradeable",
        "numberOfBytes": "20"
      },
      "t_contract(IScriptEngine)4487": {
        "encoding": "inplace",
        "label": "contract IScriptEngine",
        "numberOfBytes": "20"
      },
      "t_mapping(t_address,t_bool)": {
        "encoding": "mapping",
        "key": "t_address",
        "label": "mapping(address => bool)",
        "numberOfBytes": "32",
        "value": "t_bool"
      },
      "t_mapping(t_address,t_mapping(t_address,t_uint256))": {
        "encoding": "mapping",
        "key": "t_address",
        "label": "mapping(address => mapping(address => uint256))",
        "numberOfBytes": "32",
        "value": "t_mapping(t_address,t_uint256)"
      },
      "t_mapping(t_address,t_struct(Counter)2148_storage)": {
        "encoding": "mapping",
        "key": "t_address",
        "label": "mapping(address => struct CountersUpgradeable.Counter)",
        "numberOfBytes": "32",
        "value": "t_struct(Counter)2148_storage"
      },
      "t_mapping(t_address,t_uint256)": {
        "encoding": "mapping",
        "key": "t_address",
        "label": "mapping(address => uint256)",
        "numberOfBytes": "32",
        "value": "t_uint256"
      },
      "t_mapping(t_bytes32,t_struct(AddressSet)4149_storage)": {
        "encoding": "mapping",
        "key": "t_bytes32",
        "label": "mapping(bytes32 => struct EnumerableSetUpgradeable.AddressSet)",
        "numberOfBytes": "32",
        "value": "t_struct(AddressSet)4149_storage"
      },
      "t_mapping(t_bytes32,t_struct(RoleData)179_storage)": {
        "encoding": "mapping",
        "key": "t_bytes32",
        "label": "mapping(bytes32 => struct AccessControlUpgradeable.RoleData)",
        "numberOfBytes": "32",
        "value": "t_struct(RoleData)179_storage"
      },
      "t_mapping(t_bytes32,t_uint256)": {
        "encoding": "mapping",
        "key": "t_bytes32",
        "label": "mapping(bytes32 => uint256)",
        "numberOfBytes": "32",
        "value": "t_uint256"
      },
      "t_string_storage": {
        "encoding": "bytes",
        "label": "string",
        "numberOfBytes": "32"
      },
      "t_struct(AddressSet)4149_storage": {
        "encoding": "inplace",
        "label": "struct EnumerableSetUpgradeable.AddressSet",
        "members": [
          {
            "astId": 4148,
            "contract": "contracts/StMTRG.sol:StMTRG",
            "label": "_inner",
            "offset": 0,
            "slot": "0",
            "type": "t_struct(Set)3834_storage"
          }
        ],
        "numberOfBytes": "64"
      },
      "t_struct(Counter)2148_storage": {
        "encoding": "inplace",
        "label": "struct CountersUpgradeable.Counter",
        "members": [
          {
            "astId": 2147,
            "contract": "contracts/StMTRG.sol:StMTRG",
            "label": "_value",
            "offset": 0,
            "slot": "0",
            "type": "t_uint256"
          }
        ],
        "numberOfBytes": "32"
      },
      "t_struct(RoleData)179_storage": {
        "encoding": "inplace",
        "label": "struct AccessControlUpgradeable.RoleData",
        "members": [
          {
            "astId": 176,
            "contract": "contracts/StMTRG.sol:StMTRG",
            "label": "members",
            "offset": 0,
            "slot": "0",
            "type": "t_mapping(t_address,t_bool)"
          },
          {
            "astId": 178,
            "contract": "contracts/StMTRG.sol:StMTRG",
            "label": "adminRole",
            "offset": 0,
            "slot": "1",
            "type": "t_bytes32"
          }
        ],
        "numberOfBytes": "64"
      },
      "t_struct(Set)3834_storage": {
        "encoding": "inplace",
        "label": "struct EnumerableSetUpgradeable.Set",
        "members": [
          {
            "astId": 3829,
            "contract": "contracts/StMTRG.sol:StMTRG",
            "label": "_values",
            "offset": 0,
            "slot": "0",
            "type": "t_array(t_bytes32)dyn_storage"
          },
          {
            "astId": 3833,
            "contract": "contracts/StMTRG.sol:StMTRG",
            "label": "_indexes",
            "offset": 0,
            "slot": "1",
            "type": "t_mapping(t_bytes32,t_uint256)"
          }
        ],
        "numberOfBytes": "64"
      },
      "t_uint256": {
        "encoding": "inplace",
        "label": "uint256",
        "numberOfBytes": "32"
      },
      "t_uint8": {
        "encoding": "inplace",
        "label": "uint8",
        "numberOfBytes": "1"
      }
    }
  }
}