{
  "address": "0xb99Cf30582D1C1b8B8De339F57f2D90C6a45a53f",
  "abi": [
    {
      "anonymous": false,
      "inputs": [
        {
          "indexed": true,
          "internalType": "address",
          "name": "owner",
          "type": "address"
        },
        {
          "indexed": true,
          "internalType": "address",
          "name": "spender",
          "type": "address"
        },
        {
          "indexed": false,
          "internalType": "uint256",
          "name": "value",
          "type": "uint256"
        }
      ],
      "name": "Approval",
      "type": "event"
    },
    {
      "anonymous": false,
      "inputs": [
        {
          "indexed": false,
          "internalType": "uint8",
          "name": "version",
          "type": "uint8"
        }
      ],
      "name": "Initialized",
      "type": "event"
    },
    {
      "anonymous": false,
      "inputs": [
        {
          "indexed": true,
          "internalType": "address",
          "name": "from",
          "type": "address"
        },
        {
          "indexed": true,
          "internalType": "address",
          "name": "to",
          "type": "address"
        },
        {
          "indexed": false,
          "internalType": "uint256",
          "name": "value",
          "type": "uint256"
        }
      ],
      "name": "Transfer",
      "type": "event"
    },
    {
      "inputs": [],
      "name": "DOMAIN_SEPARATOR",
      "outputs": [
        {
          "internalType": "bytes32",
          "name": "",
          "type": "bytes32"
        }
      ],
      "stateMutability": "view",
      "type": "function"
    },
    {
      "inputs": [
        {
          "internalType": "address",
          "name": "owner",
          "type": "address"
        },
        {
          "internalType": "address",
          "name": "spender",
          "type": "address"
        }
      ],
      "name": "allowance",
      "outputs": [
        {
          "internalType": "uint256",
          "name": "",
          "type": "uint256"
        }
      ],
      "stateMutability": "view",
      "type": "function"
    },
    {
      "inputs": [
        {
          "internalType": "address",
          "name": "spender",
          "type": "address"
        },
        {
          "internalType": "uint256",
          "name": "amount",
          "type": "uint256"
        }
      ],
      "name": "approve",
      "outputs": [
        {
          "internalType": "bool",
          "name": "",
          "type": "bool"
        }
      ],
      "stateMutability": "nonpayable",
      "type": "function"
    },
    {
      "inputs": [
        {
          "internalType": "address",
          "name": "account",
          "type": "address"
        }
      ],
      "name": "balanceOf",
      "outputs": [
        {
          "internalType": "uint256",
          "name": "",
          "type": "uint256"
        }
      ],
      "stateMutability": "view",
      "type": "function"
    },
    {
      "inputs": [],
      "name": "decimals",
      "outputs": [
        {
          "internalType": "uint8",
          "name": "",
          "type": "uint8"
        }
      ],
      "stateMutability": "view",
      "type": "function"
    },
    {
      "inputs": [
        {
          "internalType": "address",
          "name": "spender",
          "type": "address"
        },
        {
          "internalType": "uint256",
          "name": "subtractedValue",
          "type": "uint256"
        }
      ],
      "name": "decreaseAllowance",
      "outputs": [
        {
          "internalType": "bool",
          "name": "",
          "type": "bool"
        }
      ],
      "stateMutability": "nonpayable",
      "type": "function"
    },
    {
      "inputs": [
        {
          "internalType": "uint256",
          "name": "_wstMTRGAmount",
          "type": "uint256"
        }
      ],
      "name": "getStMTRGByWstMTRG",
      "outputs": [
        {
          "internalType": "uint256",
          "name": "",
          "type": "uint256"
        }
      ],
      "stateMutability": "view",
      "type": "function"
    },
    {
      "inputs": [
        {
          "internalType": "uint256",
          "name": "_stMTRGAmount",
          "type": "uint256"
        }
      ],
      "name": "getWstMTRGByStMTRG",
      "outputs": [
        {
          "internalType": "uint256",
          "name": "",
          "type": "uint256"
        }
      ],
      "stateMutability": "view",
      "type": "function"
    },
    {
      "inputs": [
        {
          "internalType": "address",
          "name": "spender",
          "type": "address"
        },
        {
          "internalType": "uint256",
          "name": "addedValue",
          "type": "uint256"
        }
      ],
      "name": "increaseAllowance",
      "outputs": [
        {
          "internalType": "bool",
          "name": "",
          "type": "bool"
        }
      ],
      "stateMutability": "nonpayable",
      "type": "function"
    },
    {
      "inputs": [
        {
          "internalType": "address",
          "name": "_stMTRG",
          "type": "address"
        }
      ],
      "name": "initialize",
      "outputs": [],
      "stateMutability": "nonpayable",
      "type": "function"
    },
    {
      "inputs": [],
      "name": "name",
      "outputs": [
        {
          "internalType": "string",
          "name": "",
          "type": "string"
        }
      ],
      "stateMutability": "view",
      "type": "function"
    },
    {
      "inputs": [
        {
          "internalType": "address",
          "name": "owner",
          "type": "address"
        }
      ],
      "name": "nonces",
      "outputs": [
        {
          "internalType": "uint256",
          "name": "",
          "type": "uint256"
        }
      ],
      "stateMutability": "view",
      "type": "function"
    },
    {
      "inputs": [
        {
          "internalType": "address",
          "name": "owner",
          "type": "address"
        },
        {
          "internalType": "address",
          "name": "spender",
          "type": "address"
        },
        {
          "internalType": "uint256",
          "name": "value",
          "type": "uint256"
        },
        {
          "internalType": "uint256",
          "name": "deadline",
          "type": "uint256"
        },
        {
          "internalType": "uint8",
          "name": "v",
          "type": "uint8"
        },
        {
          "internalType": "bytes32",
          "name": "r",
          "type": "bytes32"
        },
        {
          "internalType": "bytes32",
          "name": "s",
          "type": "bytes32"
        }
      ],
      "name": "permit",
      "outputs": [],
      "stateMutability": "nonpayable",
      "type": "function"
    },
    {
      "inputs": [],
      "name": "stMTRG",
      "outputs": [
        {
          "internalType": "address",
          "name": "",
          "type": "address"
        }
      ],
      "stateMutability": "view",
      "type": "function"
    },
    {
      "inputs": [],
      "name": "stMTRGPerToken",
      "outputs": [
        {
          "internalType": "uint256",
          "name": "",
          "type": "uint256"
        }
      ],
      "stateMutability": "view",
      "type": "function"
    },
    {
      "inputs": [],
      "name": "symbol",
      "outputs": [
        {
          "internalType": "string",
          "name": "",
          "type": "string"
        }
      ],
      "stateMutability": "view",
      "type": "function"
    },
    {
      "inputs": [],
      "name": "tokensPerStMTRG",
      "outputs": [
        {
          "internalType": "uint256",
          "name": "",
          "type": "uint256"
        }
      ],
      "stateMutability": "view",
      "type": "function"
    },
    {
      "inputs": [],
      "name": "totalSupply",
      "outputs": [
        {
          "internalType": "uint256",
          "name": "",
          "type": "uint256"
        }
      ],
      "stateMutability": "view",
      "type": "function"
    },
    {
      "inputs": [
        {
          "internalType": "address",
          "name": "to",
          "type": "address"
        },
        {
          "internalType": "uint256",
          "name": "amount",
          "type": "uint256"
        }
      ],
      "name": "transfer",
      "outputs": [
        {
          "internalType": "bool",
          "name": "",
          "type": "bool"
        }
      ],
      "stateMutability": "nonpayable",
      "type": "function"
    },
    {
      "inputs": [
        {
          "internalType": "address",
          "name": "from",
          "type": "address"
        },
        {
          "internalType": "address",
          "name": "to",
          "type": "address"
        },
        {
          "internalType": "uint256",
          "name": "amount",
          "type": "uint256"
        }
      ],
      "name": "transferFrom",
      "outputs": [
        {
          "internalType": "bool",
          "name": "",
          "type": "bool"
        }
      ],
      "stateMutability": "nonpayable",
      "type": "function"
    },
    {
      "inputs": [
        {
          "internalType": "uint256",
          "name": "_wstMTRGAmount",
          "type": "uint256"
        }
      ],
      "name": "unwrap",
      "outputs": [
        {
          "internalType": "uint256",
          "name": "",
          "type": "uint256"
        }
      ],
      "stateMutability": "nonpayable",
      "type": "function"
    },
    {
      "inputs": [
        {
          "internalType": "uint256",
          "name": "_stMTRGAmount",
          "type": "uint256"
        }
      ],
      "name": "wrap",
      "outputs": [
        {
          "internalType": "uint256",
          "name": "",
          "type": "uint256"
        }
      ],
      "stateMutability": "nonpayable",
      "type": "function"
    }
  ],
  "transactionHash": "0x219695604fb3797d67f582818bcde68b516f49358f9a69b9671e60b05fa2e47f",
  "args": [],
  "numDeployments": 1,
  "solcInputHash": "fdf85949bd95599f03272d877d4cbddc",
  "bytecode": "0x608060405234801561001057600080fd5b506118b5806100206000396000f3fe608060405234801561001057600080fd5b50600436106101425760003560e01c806373d525ed116100b8578063a9059cbb1161007c578063a9059cbb1461028f578063c4d66de8146102a2578063d505accf146102b7578063dd62ed3e146102ca578063de0e9a3e146102dd578063ea598cb0146102f057600080fd5b806373d525ed1461022e5780637ecebe00146102595780638f07aabc1461026c57806395d89b4114610274578063a457c2d71461027c57600080fd5b80633644e5151161010a5780633644e515146101bc57806339509351146101c45780635638467b146101d75780636326fdc3146101df57806370a08231146101f257806372833c031461021b57600080fd5b806306fdde0314610147578063095ea7b31461016557806318160ddd1461018857806323b872dd1461019a578063313ce567146101ad575b600080fd5b61014f610303565b60405161015c91906115d0565b60405180910390f35b610178610173366004611641565b610395565b604051901515815260200161015c565b6035545b60405190815260200161015c565b6101786101a836600461166b565b6103ad565b6040516012815260200161015c565b61018c6103d1565b6101786101d2366004611641565b6103e0565b61018c610402565b61018c6101ed3660046116a7565b610478565b61018c6102003660046116c0565b6001600160a01b031660009081526033602052604090205490565b61018c6102293660046116a7565b6104ed565b60cc54610241906001600160a01b031681565b6040516001600160a01b03909116815260200161015c565b61018c6102673660046116c0565b61051f565b61018c61053d565b61014f610576565b61017861028a366004611641565b610585565b61017861029d366004611641565b610605565b6102b56102b03660046116c0565b610613565b005b6102b56102c53660046116e2565b6107d4565b61018c6102d8366004611755565b610938565b61018c6102eb3660046116a7565b610963565b61018c6102fe3660046116a7565b610abb565b60606036805461031290611788565b80601f016020809104026020016040519081016040528092919081815260200182805461033e90611788565b801561038b5780601f106103605761010080835404028352916020019161038b565b820191906000526020600020905b81548152906001019060200180831161036e57829003601f168201915b5050505050905090565b6000336103a3818585610bc3565b5060019392505050565b6000336103bb858285610ce8565b6103c6858585610d62565b506001949350505050565b60006103db610f0d565b905090565b6000336103a38185856103f38383610938565b6103fd91906117bd565b610bc3565b60cc5460405163441130d560e01b8152670de0b6b3a764000060048201526000916001600160a01b03169063441130d5906024015b602060405180830381865afa158015610454573d6000803e3d6000fd5b505050506040513d601f19601f820116820180604052508101906103db91906117e3565b60cc54604051634b64fcd160e01b8152600481018390526000916001600160a01b031690634b64fcd1906024015b602060405180830381865afa1580156104c3573d6000803e3d6000fd5b505050506040513d601f19601f820116820180604052508101906104e791906117e3565b92915050565b60cc5460405163441130d560e01b8152600481018390526000916001600160a01b03169063441130d5906024016104a6565b6001600160a01b0381166000908152609960205260408120546104e7565b60cc54604051634b64fcd160e01b8152670de0b6b3a764000060048201526000916001600160a01b031690634b64fcd190602401610437565b60606037805461031290611788565b600033816105938286610938565b9050838110156105f85760405162461bcd60e51b815260206004820152602560248201527f45524332303a2064656372656173656420616c6c6f77616e63652062656c6f77604482015264207a65726f60d81b60648201526084015b60405180910390fd5b6103c68286868403610bc3565b6000336103a3818585610d62565b600054610100900460ff16158080156106335750600054600160ff909116105b8061064d5750303b15801561064d575060005460ff166001145b6106b05760405162461bcd60e51b815260206004820152602e60248201527f496e697469616c697a61626c653a20636f6e747261637420697320616c72656160448201526d191e481a5b9a5d1a585b1a5e995960921b60648201526084016105ef565b6000805460ff1916600117905580156106d3576000805461ff0019166101001790555b6107116040518060400160405280601a81526020017f57726170706564206c6971756964207374616b6564204d545247000000000000815250610f88565b61076f6040518060400160405280601a81526020017f57726170706564206c6971756964207374616b6564204d545247000000000000815250604051806040016040528060078152602001667773744d54524760c81b815250610fd5565b60cc80546001600160a01b0319166001600160a01b03841617905580156107d0576000805461ff0019169055604051600181527f7f26b83ff96e1f2b6a682f133852f6798a09c465da95921460cefb38474024989060200160405180910390a15b5050565b834211156108245760405162461bcd60e51b815260206004820152601d60248201527f45524332305065726d69743a206578706972656420646561646c696e6500000060448201526064016105ef565b60007f6e71edae12b1b97f4d1f60370fef10105fa2faae0126114a169c64845d6126c98888886108538c611006565b6040805160208101969096526001600160a01b0394851690860152929091166060840152608083015260a082015260c0810186905260e00160405160208183030381529060405280519060200120905060006108ae8261102e565b905060006108be8287878761107c565b9050896001600160a01b0316816001600160a01b0316146109215760405162461bcd60e51b815260206004820152601e60248201527f45524332305065726d69743a20696e76616c6964207369676e6174757265000060448201526064016105ef565b61092c8a8a8a610bc3565b50505050505050505050565b6001600160a01b03918216600090815260346020908152604080832093909416825291909152205490565b60008082116109c45760405162461bcd60e51b815260206004820152602760248201527f7773744d5452473a207a65726f20616d6f756e7420756e77726170206e6f7420604482015266185b1b1bddd95960ca1b60648201526084016105ef565b60cc5460405163441130d560e01b8152600481018490526000916001600160a01b03169063441130d590602401602060405180830381865afa158015610a0e573d6000803e3d6000fd5b505050506040513d601f19601f82011682018060405250810190610a3291906117e3565b9050610a3e33846110a4565b60cc5460405163a9059cbb60e01b8152336004820152602481018390526001600160a01b039091169063a9059cbb906044015b6020604051808303816000875af1158015610a90573d6000803e3d6000fd5b505050506040513d601f19601f82011682018060405250810190610ab491906117fc565b5092915050565b6000808211610b0c5760405162461bcd60e51b815260206004820152601f60248201527f7773744d5452473a2063616e27742077726170207a65726f2073744d5452470060448201526064016105ef565b60cc54604051634b64fcd160e01b8152600481018490526000916001600160a01b031690634b64fcd190602401602060405180830381865afa158015610b56573d6000803e3d6000fd5b505050506040513d601f19601f82011682018060405250810190610b7a91906117e3565b9050610b8633826111d5565b60cc546040516323b872dd60e01b8152336004820152306024820152604481018590526001600160a01b03909116906323b872dd90606401610a71565b6001600160a01b038316610c255760405162461bcd60e51b8152602060048201526024808201527f45524332303a20617070726f76652066726f6d20746865207a65726f206164646044820152637265737360e01b60648201526084016105ef565b6001600160a01b038216610c865760405162461bcd60e51b815260206004820152602260248201527f45524332303a20617070726f766520746f20746865207a65726f206164647265604482015261737360f01b60648201526084016105ef565b6001600160a01b0383811660008181526034602090815260408083209487168084529482529182902085905590518481527f8c5be1e5ebec7d5bd14f71427d1e84f3dd0314c0f7b2291e5b200ac8c7c3b92591015b60405180910390a3505050565b6000610cf48484610938565b90506000198114610d5c5781811015610d4f5760405162461bcd60e51b815260206004820152601d60248201527f45524332303a20696e73756666696369656e7420616c6c6f77616e636500000060448201526064016105ef565b610d5c8484848403610bc3565b50505050565b6001600160a01b038316610dc65760405162461bcd60e51b815260206004820152602560248201527f45524332303a207472616e736665722066726f6d20746865207a65726f206164604482015264647265737360d81b60648201526084016105ef565b6001600160a01b038216610e285760405162461bcd60e51b815260206004820152602360248201527f45524332303a207472616e7366657220746f20746865207a65726f206164647260448201526265737360e81b60648201526084016105ef565b6001600160a01b03831660009081526033602052604090205481811015610ea05760405162461bcd60e51b815260206004820152602660248201527f45524332303a207472616e7366657220616d6f756e7420657863656564732062604482015265616c616e636560d01b60648201526084016105ef565b6001600160a01b0380851660008181526033602052604080822086860390559286168082529083902080548601905591517fddf252ad1be2c89b69c2b068fc378daa952ba7f163c4a11628f55a4df523b3ef90610f009086815260200190565b60405180910390a3610d5c565b60006103db7f8b73c3c69bb8fe3d512ecc4cf759cc79239f7b179b0ffacaa9a75d522b39400f610f3c60655490565b6066546040805160208101859052908101839052606081018290524660808201523060a082015260009060c0016040516020818303038152906040528051906020012090509392505050565b600054610100900460ff16610faf5760405162461bcd60e51b81526004016105ef9061181e565b610fd281604051806040016040528060018152602001603160f81b815250611296565b50565b600054610100900460ff16610ffc5760405162461bcd60e51b81526004016105ef9061181e565b6107d082826112d7565b6001600160a01b03811660009081526099602052604090208054600181018255905b50919050565b60006104e761103b610f0d565b8360405161190160f01b6020820152602281018390526042810182905260009060620160405160208183030381529060405280519060200120905092915050565b600080600061108d87878787611325565b9150915061109a816113e9565b5095945050505050565b6001600160a01b0382166111045760405162461bcd60e51b815260206004820152602160248201527f45524332303a206275726e2066726f6d20746865207a65726f206164647265736044820152607360f81b60648201526084016105ef565b6001600160a01b038216600090815260336020526040902054818110156111785760405162461bcd60e51b815260206004820152602260248201527f45524332303a206275726e20616d6f756e7420657863656564732062616c616e604482015261636560f01b60648201526084016105ef565b6001600160a01b03831660008181526033602090815260408083208686039055603580548790039055518581529192917fddf252ad1be2c89b69c2b068fc378daa952ba7f163c4a11628f55a4df523b3ef9101610cdb565b505050565b6001600160a01b03821661122b5760405162461bcd60e51b815260206004820152601f60248201527f45524332303a206d696e7420746f20746865207a65726f20616464726573730060448201526064016105ef565b806035600082825461123d91906117bd565b90915550506001600160a01b0382166000818152603360209081526040808320805486019055518481527fddf252ad1be2c89b69c2b068fc378daa952ba7f163c4a11628f55a4df523b3ef910160405180910390a35050565b600054610100900460ff166112bd5760405162461bcd60e51b81526004016105ef9061181e565b815160209283012081519190920120606591909155606655565b600054610100900460ff166112fe5760405162461bcd60e51b81526004016105ef9061181e565b8151611311906036906020850190611537565b5080516111d0906037906020840190611537565b6000807f7fffffffffffffffffffffffffffffff5d576e7357a4501ddfe92f46681b20a083111561135c57506000905060036113e0565b6040805160008082526020820180845289905260ff881692820192909252606081018690526080810185905260019060a0016020604051602081039080840390855afa1580156113b0573d6000803e3d6000fd5b5050604051601f1901519150506001600160a01b0381166113d9576000600192509250506113e0565b9150600090505b94509492505050565b60008160048111156113fd576113fd611869565b14156114065750565b600181600481111561141a5761141a611869565b14156114685760405162461bcd60e51b815260206004820152601860248201527f45434453413a20696e76616c6964207369676e6174757265000000000000000060448201526064016105ef565b600281600481111561147c5761147c611869565b14156114ca5760405162461bcd60e51b815260206004820152601f60248201527f45434453413a20696e76616c6964207369676e6174757265206c656e6774680060448201526064016105ef565b60038160048111156114de576114de611869565b1415610fd25760405162461bcd60e51b815260206004820152602260248201527f45434453413a20696e76616c6964207369676e6174757265202773272076616c604482015261756560f01b60648201526084016105ef565b82805461154390611788565b90600052602060002090601f01602090048101928261156557600085556115ab565b82601f1061157e57805160ff19168380011785556115ab565b828001600101855582156115ab579182015b828111156115ab578251825591602001919060010190611590565b506115b79291506115bb565b5090565b5b808211156115b757600081556001016115bc565b600060208083528351808285015260005b818110156115fd578581018301518582016040015282016115e1565b8181111561160f576000604083870101525b50601f01601f1916929092016040019392505050565b80356001600160a01b038116811461163c57600080fd5b919050565b6000806040838503121561165457600080fd5b61165d83611625565b946020939093013593505050565b60008060006060848603121561168057600080fd5b61168984611625565b925061169760208501611625565b9150604084013590509250925092565b6000602082840312156116b957600080fd5b5035919050565b6000602082840312156116d257600080fd5b6116db82611625565b9392505050565b600080600080600080600060e0888a0312156116fd57600080fd5b61170688611625565b965061171460208901611625565b95506040880135945060608801359350608088013560ff8116811461173857600080fd5b9699959850939692959460a0840135945060c09093013592915050565b6000806040838503121561176857600080fd5b61177183611625565b915061177f60208401611625565b90509250929050565b600181811c9082168061179c57607f821691505b6020821081141561102857634e487b7160e01b600052602260045260246000fd5b600082198211156117de57634e487b7160e01b600052601160045260246000fd5b500190565b6000602082840312156117f557600080fd5b5051919050565b60006020828403121561180e57600080fd5b815180151581146116db57600080fd5b6020808252602b908201527f496e697469616c697a61626c653a20636f6e7472616374206973206e6f74206960408201526a6e697469616c697a696e6760a81b606082015260800190565b634e487b7160e01b600052602160045260246000fdfea2646970667358221220cb6ddef6b981558b1885e869ca68da8933da35328bad152689eb558dae60485964736f6c634300080b0033",
  "devdoc": {
    "kind": "dev",
    "methods": {
      "DOMAIN_SEPARATOR()": {
        "details": "See {IERC20Permit-DOMAIN_SEPARATOR}."
      },
      "allowance(address,address)": {
        "details": "See {IERC20-allowance}."
      },
      "approve(address,uint256)": {
        "details": "See {IERC20-approve}. NOTE: If `amount` is the maximum `uint256`, the allowance is not updated on `transferFrom`. This is semantically equivalent to an infinite approval. Requirements: - `spender` cannot be the zero address."
      },
      "balanceOf(address)": {
        "details": "See {IERC20-balanceOf}."
      },
      "decimals()": {
        "details": "Returns the number of decimals used to get its user representation. For example, if `decimals` equals `2`, a balance of `505` tokens should be displayed to a user as `5.05` (`505 / 10 ** 2`). Tokens usually opt for a value of 18, imitating the relationship between Ether and Wei. This is the value {ERC20} uses, unless this function is overridden; NOTE: This information is only used for _display_ purposes: it in no way affects any of the arithmetic of the contract, including {IERC20-balanceOf} and {IERC20-transfer}."
      },
      "decreaseAllowance(address,uint256)": {
        "details": "Atomically decreases the allowance granted to `spender` by the caller. This is an alternative to {approve} that can be used as a mitigation for problems described in {IERC20-approve}. Emits an {Approval} event indicating the updated allowance. Requirements: - `spender` cannot be the zero address. - `spender` must have allowance for the caller of at least `subtractedValue`."
      },
      "getStMTRGByWstMTRG(uint256)": {
        "params": {
          "_wstMTRGAmount": "amount of wstMTRG"
        },
        "returns": {
          "_0": "Amount of stMTRG for a given wstMTRG amount"
        }
      },
      "getWstMTRGByStMTRG(uint256)": {
        "params": {
          "_stMTRGAmount": "amount of stMTRG"
        },
        "returns": {
          "_0": "Amount of wstMTRG for a given stMTRG amount"
        }
      },
      "increaseAllowance(address,uint256)": {
        "details": "Atomically increases the allowance granted to `spender` by the caller. This is an alternative to {approve} that can be used as a mitigation for problems described in {IERC20-approve}. Emits an {Approval} event indicating the updated allowance. Requirements: - `spender` cannot be the zero address."
      },
      "initialize(address)": {
        "params": {
          "_stMTRG": "address of the StMTRG token to wrap"
        }
      },
      "name()": {
        "details": "Returns the name of the token."
      },
      "nonces(address)": {
        "details": "See {IERC20Permit-nonces}."
      },
      "permit(address,address,uint256,uint256,uint8,bytes32,bytes32)": {
        "details": "See {IERC20Permit-permit}."
      },
      "stMTRGPerToken()": {
        "returns": {
          "_0": "Amount of stMTRG for 1 wstMTRG"
        }
      },
      "symbol()": {
        "details": "Returns the symbol of the token, usually a shorter version of the name."
      },
      "tokensPerStMTRG()": {
        "returns": {
          "_0": "Amount of wstMTRG for a 1 stMTRG"
        }
      },
      "totalSupply()": {
        "details": "See {IERC20-totalSupply}."
      },
      "transfer(address,uint256)": {
        "details": "See {IERC20-transfer}. Requirements: - `to` cannot be the zero address. - the caller must have a balance of at least `amount`."
      },
      "transferFrom(address,address,uint256)": {
        "details": "See {IERC20-transferFrom}. Emits an {Approval} event indicating the updated allowance. This is not required by the EIP. See the note at the beginning of {ERC20}. NOTE: Does not update the allowance if the current allowance is the maximum `uint256`. Requirements: - `from` and `to` cannot be the zero address. - `from` must have a balance of at least `amount`. - the caller must have allowance for ``from``'s tokens of at least `amount`."
      },
      "unwrap(uint256)": {
        "details": "Requirements:  - `_wstMTRGAmount` must be non-zero  - msg.sender must have at least `_wstMTRGAmount` wstMTRG.",
        "params": {
          "_wstMTRGAmount": "amount of wstMTRG to uwrap in exchange for stMTRG"
        },
        "returns": {
          "_0": "Amount of stMTRG user receives after unwrap"
        }
      },
      "wrap(uint256)": {
        "details": "Requirements:  - `_stMTRGAmount` must be non-zero  - msg.sender must approve at least `_stMTRGAmount` stMTRG to this    contract.  - msg.sender must have at least `_stMTRGAmount` of stMTRG. User should first approve _stMTRGAmount to the WstMTRG contract",
        "params": {
          "_stMTRGAmount": "amount of stMTRG to wrap in exchange for wstMTRG"
        },
        "returns": {
          "_0": "Amount of wstMTRG user receives after wrap"
        }
      }
    },
    "version": 1
  },
  "userdoc": {
    "kind": "user",
    "methods": {
      "getStMTRGByWstMTRG(uint256)": {
        "notice": "Get amount of stMTRG for a given amount of wstMTRG"
      },
      "getWstMTRGByStMTRG(uint256)": {
        "notice": "Get amount of wstMTRG for a given amount of stMTRG"
      },
      "stMTRGPerToken()": {
        "notice": "Get amount of stMTRG for a one wstMTRG"
      },
      "tokensPerStMTRG()": {
        "notice": "Get amount of wstMTRG for a one stMTRG"
      },
      "unwrap(uint256)": {
        "notice": "Exchanges wstMTRG to stMTRG"
      },
      "wrap(uint256)": {
        "notice": "Exchanges stMTRG to wstMTRG"
      }
    },
    "version": 1
  },
  "storageLayout": {
    "storage": [
      {
        "astId": 585,
        "contract": "contracts/WstMTRG.sol:WstMTRG",
        "label": "_initialized",
        "offset": 0,
        "slot": "0",
        "type": "t_uint8"
      },
      {
        "astId": 588,
        "contract": "contracts/WstMTRG.sol:WstMTRG",
        "label": "_initializing",
        "offset": 1,
        "slot": "0",
        "type": "t_bool"
      },
      {
        "astId": 2141,
        "contract": "contracts/WstMTRG.sol:WstMTRG",
        "label": "__gap",
        "offset": 0,
        "slot": "1",
        "type": "t_array(t_uint256)50_storage"
      },
      {
        "astId": 893,
        "contract": "contracts/WstMTRG.sol:WstMTRG",
        "label": "_balances",
        "offset": 0,
        "slot": "51",
        "type": "t_mapping(t_address,t_uint256)"
      },
      {
        "astId": 899,
        "contract": "contracts/WstMTRG.sol:WstMTRG",
        "label": "_allowances",
        "offset": 0,
        "slot": "52",
        "type": "t_mapping(t_address,t_mapping(t_address,t_uint256))"
      },
      {
        "astId": 901,
        "contract": "contracts/WstMTRG.sol:WstMTRG",
        "label": "_totalSupply",
        "offset": 0,
        "slot": "53",
        "type": "t_uint256"
      },
      {
        "astId": 903,
        "contract": "contracts/WstMTRG.sol:WstMTRG",
        "label": "_name",
        "offset": 0,
        "slot": "54",
        "type": "t_string_storage"
      },
      {
        "astId": 905,
        "contract": "contracts/WstMTRG.sol:WstMTRG",
        "label": "_symbol",
        "offset": 0,
        "slot": "55",
        "type": "t_string_storage"
      },
      {
        "astId": 1485,
        "contract": "contracts/WstMTRG.sol:WstMTRG",
        "label": "__gap",
        "offset": 0,
        "slot": "56",
        "type": "t_array(t_uint256)45_storage"
      },
      {
        "astId": 2761,
        "contract": "contracts/WstMTRG.sol:WstMTRG",
        "label": "_HASHED_NAME",
        "offset": 0,
        "slot": "101",
        "type": "t_bytes32"
      },
      {
        "astId": 2763,
        "contract": "contracts/WstMTRG.sol:WstMTRG",
        "label": "_HASHED_VERSION",
        "offset": 0,
        "slot": "102",
        "type": "t_bytes32"
      },
      {
        "astId": 2901,
        "contract": "contracts/WstMTRG.sol:WstMTRG",
        "label": "__gap",
        "offset": 0,
        "slot": "103",
        "type": "t_array(t_uint256)50_storage"
      },
      {
        "astId": 1615,
        "contract": "contracts/WstMTRG.sol:WstMTRG",
        "label": "_nonces",
        "offset": 0,
        "slot": "153",
        "type": "t_mapping(t_address,t_struct(Counter)2148_storage)"
      },
      {
        "astId": 1623,
        "contract": "contracts/WstMTRG.sol:WstMTRG",
        "label": "_PERMIT_TYPEHASH_DEPRECATED_SLOT",
        "offset": 0,
        "slot": "154",
        "type": "t_bytes32"
      },
      {
        "astId": 1779,
        "contract": "contracts/WstMTRG.sol:WstMTRG",
        "label": "__gap",
        "offset": 0,
        "slot": "155",
        "type": "t_array(t_uint256)49_storage"
      },
      {
        "astId": 5408,
        "contract": "contracts/WstMTRG.sol:WstMTRG",
        "label": "stMTRG",
        "offset": 0,
        "slot": "204",
        "type": "t_address"
      }
    ],
    "types": {
      "t_address": {
        "encoding": "inplace",
        "label": "address",
        "numberOfBytes": "20"
      },
      "t_array(t_uint256)45_storage": {
        "base": "t_uint256",
        "encoding": "inplace",
        "label": "uint256[45]",
        "numberOfBytes": "1440"
      },
      "t_array(t_uint256)49_storage": {
        "base": "t_uint256",
        "encoding": "inplace",
        "label": "uint256[49]",
        "numberOfBytes": "1568"
      },
      "t_array(t_uint256)50_storage": {
        "base": "t_uint256",
        "encoding": "inplace",
        "label": "uint256[50]",
        "numberOfBytes": "1600"
      },
      "t_bool": {
        "encoding": "inplace",
        "label": "bool",
        "numberOfBytes": "1"
      },
      "t_bytes32": {
        "encoding": "inplace",
        "label": "bytes32",
        "numberOfBytes": "32"
      },
      "t_mapping(t_address,t_mapping(t_address,t_uint256))": {
        "encoding": "mapping",
        "key": "t_address",
        "label": "mapping(address => mapping(address => uint256))",
        "numberOfBytes": "32",
        "value": "t_mapping(t_address,t_uint256)"
      },
      "t_mapping(t_address,t_struct(Counter)2148_storage)": {
        "encoding": "mapping",
        "key": "t_address",
        "label": "mapping(address => struct CountersUpgradeable.Counter)",
        "numberOfBytes": "32",
        "value": "t_struct(Counter)2148_storage"
      },
      "t_mapping(t_address,t_uint256)": {
        "encoding": "mapping",
        "key": "t_address",
        "label": "mapping(address => uint256)",
        "numberOfBytes": "32",
        "value": "t_uint256"
      },
      "t_string_storage": {
        "encoding": "bytes",
        "label": "string",
        "numberOfBytes": "32"
      },
      "t_struct(Counter)2148_storage": {
        "encoding": "inplace",
        "label": "struct CountersUpgradeable.Counter",
        "members": [
          {
            "astId": 2147,
            "contract": "contracts/WstMTRG.sol:WstMTRG",
            "label": "_value",
            "offset": 0,
            "slot": "0",
            "type": "t_uint256"
          }
        ],
        "numberOfBytes": "32"
      },
      "t_uint256": {
        "encoding": "inplace",
        "label": "uint256",
        "numberOfBytes": "32"
      },
      "t_uint8": {
        "encoding": "inplace",
        "label": "uint8",
        "numberOfBytes": "1"
      }
    }
  }
}