{
  "_format": "hh-sol-artifact-1",
  "contractName": "StakingPool",
  "sourceName": "contracts/StakingPool.sol",
  "abi": [
    {
      "inputs": [
        {
          "internalType": "address",
          "name": "scriptEngineAddr",
          "type": "address"
        }
      ],
      "stateMutability": "nonpayable",
      "type": "constructor"
    },
    {
      "inputs": [
        {
          "internalType": "bytes32",
          "name": "bucketID",
          "type": "bytes32"
        }
      ],
      "name": "bucketClose",
      "outputs": [],
      "stateMutability": "nonpayable",
      "type": "function"
    },
    {
      "inputs": [
        {
          "internalType": "bytes32",
          "name": "bucketID",
          "type": "bytes32"
        },
        {
          "internalType": "uint256",
          "name": "amount",
          "type": "uint256"
        }
      ],
      "name": "bucketDeposit",
      "outputs": [],
      "stateMutability": "nonpayable",
      "type": "function"
    },
    {
      "inputs": [
        {
          "internalType": "address",
          "name": "candidate",
          "type": "address"
        },
        {
          "internalType": "uint256",
          "name": "amount",
          "type": "uint256"
        }
      ],
      "name": "bucketOpen",
      "outputs": [
        {
          "internalType": "bytes32",
          "name": "",
          "type": "bytes32"
        }
      ],
      "stateMutability": "nonpayable",
      "type": "function"
    },
    {
      "inputs": [
        {
          "internalType": "bytes32",
          "name": "bucketID",
          "type": "bytes32"
        },
        {
          "internalType": "uint256",
          "name": "amount",
          "type": "uint256"
        },
        {
          "internalType": "address",
          "name": "recipient",
          "type": "address"
        }
      ],
      "name": "bucketWithdraw",
      "outputs": [
        {
          "internalType": "bytes32",
          "name": "",
          "type": "bytes32"
        }
      ],
      "stateMutability": "nonpayable",
      "type": "function"
    },
    {
      "inputs": [],
      "name": "owner",
      "outputs": [
        {
          "internalType": "address",
          "name": "",
          "type": "address"
        }
      ],
      "stateMutability": "view",
      "type": "function"
    },
    {
      "inputs": [
        {
          "internalType": "address",
          "name": "newOwner",
          "type": "address"
        }
      ],
      "name": "transferOwnership",
      "outputs": [],
      "stateMutability": "nonpayable",
      "type": "function"
    }
  ],
  "bytecode": "0x608060405234801561001057600080fd5b506040516104cf3803806104cf83398101604081905261002f91610062565b60008054336001600160a01b031991821617909155600180549091166001600160a01b0392909216919091179055610092565b60006020828403121561007457600080fd5b81516001600160a01b038116811461008b57600080fd5b9392505050565b61042e806100a16000396000f3fe608060405234801561001057600080fd5b50600436106100625760003560e01c80631b7846c0146100675780633060ef721461007c578063561f97be146100a257806377d7f913146100b55780638da5cb5b146100c8578063f2fde38b146100f3575b600080fd5b61007a61007536600461030e565b610106565b005b61008f61008a36600461034c565b61016e565b6040519081526020015b60405180910390f35b61008f6100b0366004610376565b6101ed565b61007a6100c33660046103ab565b610274565b6000546100db906001600160a01b031681565b6040516001600160a01b039091168152602001610099565b61007a6101013660046103c4565b6102d5565b600154604051626de11b60e61b815260048101849052602481018390526001600160a01b0390911690631b7846c090604401600060405180830381600087803b15801561015257600080fd5b505af1158015610166573d6000803e3d6000fd5b505050505050565b60015460405163183077b960e11b81526001600160a01b038481166004830152602482018490526000921690633060ef72906044016020604051808303816000875af11580156101c2573d6000803e3d6000fd5b505050506040513d601f19601f820116820180604052508101906101e691906103df565b9392505050565b600154604051632b0fcbdf60e11b815260048101859052602481018490526001600160a01b038381166044830152600092169063561f97be906064016020604051808303816000875af1158015610248573d6000803e3d6000fd5b505050506040513d601f19601f8201168201806040525081019061026c91906103df565b949350505050565b6001546040516377d7f91360e01b8152600481018390526001600160a01b03909116906377d7f91390602401600060405180830381600087803b1580156102ba57600080fd5b505af11580156102ce573d6000803e3d6000fd5b5050505050565b6000546001600160a01b031633146102ec57600080fd5b600080546001600160a01b0319166001600160a01b0392909216919091179055565b6000806040838503121561032157600080fd5b50508035926020909101359150565b80356001600160a01b038116811461034757600080fd5b919050565b6000806040838503121561035f57600080fd5b61036883610330565b946020939093013593505050565b60008060006060848603121561038b57600080fd5b83359250602084013591506103a260408501610330565b90509250925092565b6000602082840312156103bd57600080fd5b5035919050565b6000602082840312156103d657600080fd5b6101e682610330565b6000602082840312156103f157600080fd5b505191905056fea26469706673582212200a07b2ee9a097f2f4582218fd6e1684d6fcb069c5692c70c03612d70ce7260a364736f6c634300080b0033",
  "linkReferences": {},
  "deployedLinkReferences": {}
}