{
  "_format": "hh-sol-artifact-1",
  "contractName": "SampleStakingPool",
  "sourceName": "contracts/SampleStakingPool.sol",
  "abi": [
    {
      "inputs": [
        {
          "internalType": "bytes32",
          "name": "bucketID",
          "type": "bytes32"
        }
      ],
      "name": "bucketClose",
      "outputs": [],
      "stateMutability": "nonpayable",
      "type": "function"
    },
    {
      "inputs": [
        {
          "internalType": "bytes32",
          "name": "bucketID",
          "type": "bytes32"
        },
        {
          "internalType": "uint256",
          "name": "amount",
          "type": "uint256"
        }
      ],
      "name": "bucketDeposit",
      "outputs": [],
      "stateMutability": "nonpayable",
      "type": "function"
    },
    {
      "inputs": [
        {
          "internalType": "address",
          "name": "candidate",
          "type": "address"
        },
        {
          "internalType": "uint256",
          "name": "amount",
          "type": "uint256"
        }
      ],
      "name": "bucketOpen",
      "outputs": [
        {
          "internalType": "bytes32",
          "name": "",
          "type": "bytes32"
        }
      ],
      "stateMutability": "nonpayable",
      "type": "function"
    },
    {
      "inputs": [
        {
          "internalType": "bytes32",
          "name": "bucketID",
          "type": "bytes32"
        },
        {
          "internalType": "uint256",
          "name": "amount",
          "type": "uint256"
        },
        {
          "internalType": "address",
          "name": "recipient",
          "type": "address"
        }
      ],
      "name": "bucketWithdraw",
      "outputs": [
        {
          "internalType": "bytes32",
          "name": "",
          "type": "bytes32"
        }
      ],
      "stateMutability": "nonpayable",
      "type": "function"
    }
  ],
  "bytecode": "0x6080604052600080546001600160a01b0319167363726970742d656e67696e652d6164647265737317905534801561003657600080fd5b50610385806100466000396000f3fe608060405234801561001057600080fd5b506004361061004c5760003560e01c80631b7846c0146100515780633060ef7214610066578063561f97be1461008b57806377d7f9131461009e575b600080fd5b61006461005f366004610280565b6100b1565b005b6100796100743660046102be565b610119565b60405190815260200160405180910390f35b6100796100993660046102e8565b610198565b6100646100ac36600461031d565b61021f565b600054604051626de11b60e61b815260048101849052602481018390526001600160a01b0390911690631b7846c090604401600060405180830381600087803b1580156100fd57600080fd5b505af1158015610111573d6000803e3d6000fd5b505050505050565b6000805460405163183077b960e11b81526001600160a01b0385811660048301526024820185905290911690633060ef72906044016020604051808303816000875af115801561016d573d6000803e3d6000fd5b505050506040513d601f19601f820116820180604052508101906101919190610336565b9392505050565b60008054604051632b0fcbdf60e11b815260048101869052602481018590526001600160a01b0384811660448301529091169063561f97be906064016020604051808303816000875af11580156101f3573d6000803e3d6000fd5b505050506040513d601f19601f820116820180604052508101906102179190610336565b949350505050565b6000546040516377d7f91360e01b8152600481018390526001600160a01b03909116906377d7f91390602401600060405180830381600087803b15801561026557600080fd5b505af1158015610279573d6000803e3d6000fd5b5050505050565b6000806040838503121561029357600080fd5b50508035926020909101359150565b80356001600160a01b03811681146102b957600080fd5b919050565b600080604083850312156102d157600080fd5b6102da836102a2565b946020939093013593505050565b6000806000606084860312156102fd57600080fd5b8335925060208401359150610314604085016102a2565b90509250925092565b60006020828403121561032f57600080fd5b5035919050565b60006020828403121561034857600080fd5b505191905056fea26469706673582212207946ba0b7c2376268d9347f7df65aa697992fdf8582e243939c43fb61bd310dd64736f6c634300080b0033",
  "linkReferences": {},
  "deployedLinkReferences": {}
}