{
  "_format": "hh-sol-artifact-1",
  "contractName": "SampleStakingPool",
  "sourceName": "contracts/SampleStakingPool.sol",
  "abi": [
    {
      "inputs": [
        {
          "internalType": "uint256",
          "name": "amount",
          "type": "uint256"
        }
      ],
      "name": "deposit",
      "outputs": [],
      "stateMutability": "nonpayable",
      "type": "function"
    },
    {
      "inputs": [],
      "name": "destroy",
      "outputs": [],
      "stateMutability": "nonpayable",
      "type": "function"
    },
    {
      "inputs": [
        {
          "internalType": "address",
          "name": "candidate",
          "type": "address"
        },
        {
          "internalType": "uint256",
          "name": "amount",
          "type": "uint256"
        }
      ],
      "name": "init",
      "outputs": [
        {
          "internalType": "bytes32",
          "name": "",
          "type": "bytes32"
        }
      ],
      "stateMutability": "nonpayable",
      "type": "function"
    },
    {
      "inputs": [],
      "name": "poolBucketID",
      "outputs": [
        {
          "internalType": "bytes32",
          "name": "",
          "type": "bytes32"
        }
      ],
      "stateMutability": "view",
      "type": "function"
    },
    {
      "inputs": [
        {
          "internalType": "uint256",
          "name": "amount",
          "type": "uint256"
        },
        {
          "internalType": "address",
          "name": "recipient",
          "type": "address"
        }
      ],
      "name": "withdraw",
      "outputs": [
        {
          "internalType": "bytes32",
          "name": "",
          "type": "bytes32"
        }
      ],
      "stateMutability": "nonpayable",
      "type": "function"
    }
  ],
  "bytecode": "0x6080604052600080546001600160a01b03199081167363726970742d656e67696e652d61646472657373179091556001805490911673228ebbee999c6a7ad74a6130e81b12f9fe237ba317905534801561005857600080fd5b50610585806100686000396000f3fe608060405234801561001057600080fd5b50600436106100565760003560e01c8062f714ce1461005b5780632783430014610080578063399ae7241461008957806383197ef01461009c578063b6b55f25146100a6575b600080fd5b61006e61006936600461046e565b6100b9565b60405190815260200160405180910390f35b61006e60025481565b61006e61009736600461049a565b61016d565b6100a46102bf565b005b6100a46100b43660046104c4565b610347565b6002546000906100e45760405162461bcd60e51b81526004016100db906104dd565b60405180910390fd5b600054600254604051632b0fcbdf60e11b81526004810191909152602481018590526001600160a01b0384811660448301529091169063561f97be906064016020604051808303816000875af1158015610142573d6000803e3d6000fd5b505050506040513d601f19601f820116820180604052508101906101669190610514565b9392505050565b600254600090156101c05760405162461bcd60e51b815260206004820152601860248201527f706f6f6c20616c726561647920696e697469616c697a6564000000000000000060448201526064016100db565b6001546040516323b872dd60e01b8152336004820152306024820152604481018490526001600160a01b03909116906323b872dd906064016020604051808303816000875af1158015610217573d6000803e3d6000fd5b505050506040513d601f19601f8201168201806040525081019061023b919061052d565b5060005460405163183077b960e11b81526001600160a01b0385811660048301526024820185905290911690633060ef72906044016020604051808303816000875af115801561028f573d6000803e3d6000fd5b505050506040513d601f19601f820116820180604052508101906102b39190610514565b60028190559392505050565b6002546102de5760405162461bcd60e51b81526004016100db906104dd565b6000546002546040516377d7f91360e01b81526001600160a01b03909216916377d7f913916103139160040190815260200190565b600060405180830381600087803b15801561032d57600080fd5b505af1158015610341573d6000803e3d6000fd5b50505050565b6002546103665760405162461bcd60e51b81526004016100db906104dd565b6001546040516323b872dd60e01b8152336004820152306024820152604481018390526001600160a01b03909116906323b872dd906064016020604051808303816000875af11580156103bd573d6000803e3d6000fd5b505050506040513d601f19601f820116820180604052508101906103e1919061052d565b50600054600254604051626de11b60e61b81526001600160a01b0390921691631b7846c09161041d918590600401918252602082015260400190565b600060405180830381600087803b15801561043757600080fd5b505af115801561044b573d6000803e3d6000fd5b5050505050565b80356001600160a01b038116811461046957600080fd5b919050565b6000806040838503121561048157600080fd5b8235915061049160208401610452565b90509250929050565b600080604083850312156104ad57600080fd5b6104b683610452565b946020939093013593505050565b6000602082840312156104d657600080fd5b5035919050565b60208082526017908201527f706f6f6c206973206e6f7420696e697469616c697a6564000000000000000000604082015260600190565b60006020828403121561052657600080fd5b5051919050565b60006020828403121561053f57600080fd5b8151801515811461016657600080fdfea264697066735822122088fc0dc7051f7481d553d1ab60b0d9b60071802827c19022f90f2542092e599664736f6c634300080b0033",
  "linkReferences": {},
  "deployedLinkReferences": {}
}