{
  "_format": "hh-sol-artifact-1",
  "contractName": "MeterGovERC20",
  "sourceName": "contracts/MeterGovERC20.sol",
  "abi": [
    {
      "anonymous": false,
      "inputs": [
        {
          "indexed": true,
          "internalType": "address",
          "name": "_owner",
          "type": "address"
        },
        {
          "indexed": true,
          "internalType": "address",
          "name": "_spender",
          "type": "address"
        },
        {
          "indexed": false,
          "internalType": "uint256",
          "name": "_value",
          "type": "uint256"
        }
      ],
      "name": "Approval",
      "type": "event"
    },
    {
      "anonymous": false,
      "inputs": [
        {
          "indexed": true,
          "internalType": "address",
          "name": "_from",
          "type": "address"
        },
        {
          "indexed": true,
          "internalType": "address",
          "name": "_to",
          "type": "address"
        },
        {
          "indexed": false,
          "internalType": "uint256",
          "name": "_value",
          "type": "uint256"
        }
      ],
      "name": "Transfer",
      "type": "event"
    },
    {
      "inputs": [
        {
          "internalType": "address",
          "name": "_owner",
          "type": "address"
        },
        {
          "internalType": "address",
          "name": "_spender",
          "type": "address"
        }
      ],
      "name": "allowance",
      "outputs": [
        {
          "internalType": "uint256",
          "name": "remaining",
          "type": "uint256"
        }
      ],
      "stateMutability": "view",
      "type": "function"
    },
    {
      "inputs": [
        {
          "internalType": "address",
          "name": "_spender",
          "type": "address"
        },
        {
          "internalType": "uint256",
          "name": "_value",
          "type": "uint256"
        }
      ],
      "name": "approve",
      "outputs": [
        {
          "internalType": "bool",
          "name": "success",
          "type": "bool"
        }
      ],
      "stateMutability": "nonpayable",
      "type": "function"
    },
    {
      "inputs": [
        {
          "internalType": "address",
          "name": "_owner",
          "type": "address"
        }
      ],
      "name": "balanceOf",
      "outputs": [
        {
          "internalType": "uint256",
          "name": "balance",
          "type": "uint256"
        }
      ],
      "stateMutability": "view",
      "type": "function"
    },
    {
      "inputs": [
        {
          "internalType": "address",
          "name": "_owner",
          "type": "address"
        }
      ],
      "name": "balanceOfBoundMtrg",
      "outputs": [
        {
          "internalType": "uint256",
          "name": "balance",
          "type": "uint256"
        }
      ],
      "stateMutability": "view",
      "type": "function"
    },
    {
      "inputs": [],
      "name": "decimals",
      "outputs": [
        {
          "internalType": "uint8",
          "name": "",
          "type": "uint8"
        }
      ],
      "stateMutability": "pure",
      "type": "function"
    },
    {
      "inputs": [],
      "name": "name",
      "outputs": [
        {
          "internalType": "string",
          "name": "",
          "type": "string"
        }
      ],
      "stateMutability": "pure",
      "type": "function"
    },
    {
      "inputs": [],
      "name": "symbol",
      "outputs": [
        {
          "internalType": "string",
          "name": "",
          "type": "string"
        }
      ],
      "stateMutability": "pure",
      "type": "function"
    },
    {
      "inputs": [],
      "name": "totalBurned",
      "outputs": [
        {
          "internalType": "uint256",
          "name": "",
          "type": "uint256"
        }
      ],
      "stateMutability": "view",
      "type": "function"
    },
    {
      "inputs": [],
      "name": "totalSupply",
      "outputs": [
        {
          "internalType": "uint256",
          "name": "",
          "type": "uint256"
        }
      ],
      "stateMutability": "view",
      "type": "function"
    },
    {
      "inputs": [
        {
          "internalType": "address",
          "name": "_to",
          "type": "address"
        },
        {
          "internalType": "uint256",
          "name": "_amount",
          "type": "uint256"
        }
      ],
      "name": "transfer",
      "outputs": [
        {
          "internalType": "bool",
          "name": "success",
          "type": "bool"
        }
      ],
      "stateMutability": "nonpayable",
      "type": "function"
    },
    {
      "inputs": [
        {
          "internalType": "address",
          "name": "_from",
          "type": "address"
        },
        {
          "internalType": "address",
          "name": "_to",
          "type": "address"
        },
        {
          "internalType": "uint256",
          "name": "_amount",
          "type": "uint256"
        }
      ],
      "name": "transferFrom",
      "outputs": [
        {
          "internalType": "bool",
          "name": "success",
          "type": "bool"
        }
      ],
      "stateMutability": "nonpayable",
      "type": "function"
    }
  ],
  "bytecode": "0x6080604052600180546001600160a01b0319166a4d657465724e617469766517905534801561002d57600080fd5b506107cb8061003d6000396000f3fe608060405234801561001057600080fd5b50600436106100a95760003560e01c80635d5aaa82116100715780635d5aaa821461013f57806370a082311461015257806395d89b4114610165578063a9059cbb14610185578063d89135cd14610198578063dd62ed3e146101a057600080fd5b806306fdde03146100ae578063095ea7b3146100e457806318160ddd1461010757806323b872dd1461011d578063313ce56714610130575b600080fd5b60408051808201909152600881526726b2ba32b923b7bb60c11b60208201525b6040516100db9190610610565b60405180910390f35b6100f76100f2366004610681565b6101d7565b60405190151581526020016100db565b61010f6101eb565b6040519081526020016100db565b6100f761012b3660046106ab565b61025d565b604051601281526020016100db565b61010f61014d3660046106e7565b61031f565b61010f6101603660046106e7565b610395565b6040805180820190915260048152634d54524760e01b60208201526100ce565b6100f7610193366004610681565b6103c8565b61010f6103de565b61010f6101ae366004610702565b6001600160a01b0391821660009081526020818152604080832093909416825291909152205490565b60006101e4338484610428565b9392505050565b60015460408051620511b760ed1b815290516000926001600160a01b03169163a236e0009160048083019260209291908290030181865afa158015610234573d6000803e3d6000fd5b505050506040513d601f19601f820116820180604052508101906102589190610735565b905090565b6001600160a01b0383166000908152602081815260408083203384529091528120548211156102d35760405162461bcd60e51b815260206004820152601f60248201527f6275696c74696e3a20696e73756666696369656e7420616c6c6f77616e63650060448201526064015b60405180910390fd5b6001600160a01b0384166000908152602081815260408083203384529091528120805484929061030490849061074e565b90915550610315905084848461048e565b5060019392505050565b6001546040516398c6fb8d60e01b81526001600160a01b03838116600483015260009216906398c6fb8d906024015b602060405180830381865afa15801561036b573d6000803e3d6000fd5b505050506040513d601f19601f8201168201806040525081019061038f9190610735565b92915050565b600154604051630a30af2760e41b81526001600160a01b038381166004830152600092169063a30af2709060240161034e565b60006103d533848461048e565b50600192915050565b6001546040805163eaa93f6b60e01b815290516000926001600160a01b03169163eaa93f6b9160048083019260209291908290030181865afa158015610234573d6000803e3d6000fd5b6001600160a01b0383811660008181526020818152604080832094871680845294825280832086905551858152919392917f8c5be1e5ebec7d5bd14f71427d1e84f3dd0314c0f7b2291e5b200ac8c7c3b925910160405180910390a35060019392505050565b80156105be576001546040516315df233f60e11b81526001600160a01b0385811660048301526024820184905290911690632bbe467e906044016020604051808303816000875af11580156104e7573d6000803e3d6000fd5b505050506040513d601f19601f8201168201806040525081019061050b9190610773565b6105575760405162461bcd60e51b815260206004820152601d60248201527f6275696c74696e3a20696e73756666696369656e742062616c616e636500000060448201526064016102ca565b6001546040516337dde9b560e21b81526001600160a01b038481166004830152602482018490529091169063df77a6d490604401600060405180830381600087803b1580156105a557600080fd5b505af11580156105b9573d6000803e3d6000fd5b505050505b816001600160a01b0316836001600160a01b03167fddf252ad1be2c89b69c2b068fc378daa952ba7f163c4a11628f55a4df523b3ef8360405161060391815260200190565b60405180910390a3505050565b600060208083528351808285015260005b8181101561063d57858101830151858201604001528201610621565b8181111561064f576000604083870101525b50601f01601f1916929092016040019392505050565b80356001600160a01b038116811461067c57600080fd5b919050565b6000806040838503121561069457600080fd5b61069d83610665565b946020939093013593505050565b6000806000606084860312156106c057600080fd5b6106c984610665565b92506106d760208501610665565b9150604084013590509250925092565b6000602082840312156106f957600080fd5b6101e482610665565b6000806040838503121561071557600080fd5b61071e83610665565b915061072c60208401610665565b90509250929050565b60006020828403121561074757600080fd5b5051919050565b60008282101561076e57634e487b7160e01b600052601160045260246000fd5b500390565b60006020828403121561078557600080fd5b815180151581146101e457600080fdfea2646970667358221220fee15dd4b4e45abfbf5f160f497796af17b575ec6892d70a61402cc4f3dc8d1264736f6c634300080b0033",
  "linkReferences": {},
  "deployedLinkReferences": {}
}