{
  "_format": "hh-sol-artifact-1",
  "contractName": "MeterGovERC20",
  "sourceName": "contracts/MeterGovERC20.sol",
  "abi": [
    {
      "anonymous": false,
      "inputs": [
        {
          "indexed": true,
          "internalType": "address",
          "name": "_owner",
          "type": "address"
        },
        {
          "indexed": true,
          "internalType": "address",
          "name": "_spender",
          "type": "address"
        },
        {
          "indexed": false,
          "internalType": "uint256",
          "name": "_value",
          "type": "uint256"
        }
      ],
      "name": "Approval",
      "type": "event"
    },
    {
      "anonymous": false,
      "inputs": [
        {
          "indexed": true,
          "internalType": "address",
          "name": "_from",
          "type": "address"
        },
        {
          "indexed": true,
          "internalType": "address",
          "name": "_to",
          "type": "address"
        },
        {
          "indexed": false,
          "internalType": "uint256",
          "name": "_value",
          "type": "uint256"
        }
      ],
      "name": "Transfer",
      "type": "event"
    },
    {
      "inputs": [
        {
          "internalType": "address",
          "name": "_owner",
          "type": "address"
        },
        {
          "internalType": "address",
          "name": "_spender",
          "type": "address"
        }
      ],
      "name": "allowance",
      "outputs": [
        {
          "internalType": "uint256",
          "name": "remaining",
          "type": "uint256"
        }
      ],
      "stateMutability": "view",
      "type": "function"
    },
    {
      "inputs": [
        {
          "internalType": "address",
          "name": "_spender",
          "type": "address"
        },
        {
          "internalType": "uint256",
          "name": "_value",
          "type": "uint256"
        }
      ],
      "name": "approve",
      "outputs": [
        {
          "internalType": "bool",
          "name": "success",
          "type": "bool"
        }
      ],
      "stateMutability": "nonpayable",
      "type": "function"
    },
    {
      "inputs": [
        {
          "internalType": "address",
          "name": "_owner",
          "type": "address"
        }
      ],
      "name": "balanceOf",
      "outputs": [
        {
          "internalType": "uint256",
          "name": "balance",
          "type": "uint256"
        }
      ],
      "stateMutability": "view",
      "type": "function"
    },
    {
      "inputs": [
        {
          "internalType": "address",
          "name": "_owner",
          "type": "address"
        }
      ],
      "name": "balanceOfBoundMtrg",
      "outputs": [
        {
          "internalType": "uint256",
          "name": "balance",
          "type": "uint256"
        }
      ],
      "stateMutability": "view",
      "type": "function"
    },
    {
      "inputs": [],
      "name": "decimals",
      "outputs": [
        {
          "internalType": "uint8",
          "name": "",
          "type": "uint8"
        }
      ],
      "stateMutability": "pure",
      "type": "function"
    },
    {
      "inputs": [],
      "name": "name",
      "outputs": [
        {
          "internalType": "string",
          "name": "",
          "type": "string"
        }
      ],
      "stateMutability": "pure",
      "type": "function"
    },
    {
      "inputs": [],
      "name": "symbol",
      "outputs": [
        {
          "internalType": "string",
          "name": "",
          "type": "string"
        }
      ],
      "stateMutability": "pure",
      "type": "function"
    },
    {
      "inputs": [],
      "name": "totalBurned",
      "outputs": [
        {
          "internalType": "uint256",
          "name": "",
          "type": "uint256"
        }
      ],
      "stateMutability": "view",
      "type": "function"
    },
    {
      "inputs": [],
      "name": "totalSupply",
      "outputs": [
        {
          "internalType": "uint256",
          "name": "",
          "type": "uint256"
        }
      ],
      "stateMutability": "view",
      "type": "function"
    },
    {
      "inputs": [
        {
          "internalType": "address",
          "name": "_to",
          "type": "address"
        },
        {
          "internalType": "uint256",
          "name": "_amount",
          "type": "uint256"
        }
      ],
      "name": "transfer",
      "outputs": [
        {
          "internalType": "bool",
          "name": "success",
          "type": "bool"
        }
      ],
      "stateMutability": "nonpayable",
      "type": "function"
    },
    {
      "inputs": [
        {
          "internalType": "address",
          "name": "_from",
          "type": "address"
        },
        {
          "internalType": "address",
          "name": "_to",
          "type": "address"
        },
        {
          "internalType": "uint256",
          "name": "_amount",
          "type": "uint256"
        }
      ],
      "name": "transferFrom",
      "outputs": [
        {
          "internalType": "bool",
          "name": "success",
          "type": "bool"
        }
      ],
      "stateMutability": "nonpayable",
      "type": "function"
    }
  ],
  "bytecode": "0x6080604052600180546001600160a01b0319166a4d657465724e617469766517905534801561002d57600080fd5b506108008061003d6000396000f3fe608060405234801561001057600080fd5b50600436106100c95760003560e01c80635d5aaa8211610081578063a9059cbb1161005b578063a9059cbb146101ba578063d89135cd146101cd578063dd62ed3e146101d557600080fd5b80635d5aaa821461017457806370a082311461018757806395d89b411461019a57600080fd5b806318160ddd116100b257806318160ddd1461013c57806323b872dd14610152578063313ce5671461016557600080fd5b806306fdde03146100ce578063095ea7b314610119575b600080fd5b60408051808201909152600881527f4d65746572476f7600000000000000000000000000000000000000000000000060208201525b6040516101109190610645565b60405180910390f35b61012c6101273660046106b6565b61020c565b6040519015158152602001610110565b610144610220565b604051908152602001610110565b61012c6101603660046106e0565b610292565b60405160128152602001610110565b61014461018236600461071c565b610354565b61014461019536600461071c565b6103ca565b6040805180820190915260048152634d54524760e01b6020820152610103565b61012c6101c83660046106b6565b6103fd565b610144610413565b6101446101e3366004610737565b6001600160a01b0391821660009081526020818152604080832093909416825291909152205490565b600061021933848461045d565b9392505050565b60015460408051620511b760ed1b815290516000926001600160a01b03169163a236e0009160048083019260209291908290030181865afa158015610269573d6000803e3d6000fd5b505050506040513d601f19601f8201168201806040525081019061028d919061076a565b905090565b6001600160a01b0383166000908152602081815260408083203384529091528120548211156103085760405162461bcd60e51b815260206004820152601f60248201527f6275696c74696e3a20696e73756666696369656e7420616c6c6f77616e63650060448201526064015b60405180910390fd5b6001600160a01b03841660009081526020818152604080832033845290915281208054849290610339908490610783565b9091555061034a90508484846104c3565b5060019392505050565b6001546040516398c6fb8d60e01b81526001600160a01b03838116600483015260009216906398c6fb8d906024015b602060405180830381865afa1580156103a0573d6000803e3d6000fd5b505050506040513d601f19601f820116820180604052508101906103c4919061076a565b92915050565b600154604051630a30af2760e41b81526001600160a01b038381166004830152600092169063a30af27090602401610383565b600061040a3384846104c3565b50600192915050565b6001546040805163eaa93f6b60e01b815290516000926001600160a01b03169163eaa93f6b9160048083019260209291908290030181865afa158015610269573d6000803e3d6000fd5b6001600160a01b0383811660008181526020818152604080832094871680845294825280832086905551858152919392917f8c5be1e5ebec7d5bd14f71427d1e84f3dd0314c0f7b2291e5b200ac8c7c3b925910160405180910390a35060019392505050565b80156105f3576001546040516315df233f60e11b81526001600160a01b0385811660048301526024820184905290911690632bbe467e906044016020604051808303816000875af115801561051c573d6000803e3d6000fd5b505050506040513d601f19601f8201168201806040525081019061054091906107a8565b61058c5760405162461bcd60e51b815260206004820152601d60248201527f6275696c74696e3a20696e73756666696369656e742062616c616e636500000060448201526064016102ff565b6001546040516337dde9b560e21b81526001600160a01b038481166004830152602482018490529091169063df77a6d490604401600060405180830381600087803b1580156105da57600080fd5b505af11580156105ee573d6000803e3d6000fd5b505050505b816001600160a01b0316836001600160a01b03167fddf252ad1be2c89b69c2b068fc378daa952ba7f163c4a11628f55a4df523b3ef8360405161063891815260200190565b60405180910390a3505050565b600060208083528351808285015260005b8181101561067257858101830151858201604001528201610656565b81811115610684576000604083870101525b50601f01601f1916929092016040019392505050565b80356001600160a01b03811681146106b157600080fd5b919050565b600080604083850312156106c957600080fd5b6106d28361069a565b946020939093013593505050565b6000806000606084860312156106f557600080fd5b6106fe8461069a565b925061070c6020850161069a565b9150604084013590509250925092565b60006020828403121561072e57600080fd5b6102198261069a565b6000806040838503121561074a57600080fd5b6107538361069a565b91506107616020840161069a565b90509250929050565b60006020828403121561077c57600080fd5b5051919050565b6000828210156107a357634e487b7160e01b600052601160045260246000fd5b500390565b6000602082840312156107ba57600080fd5b8151801515811461021957600080fdfea26469706673582212206310dab30428a8bdd3e8ab2212a3571d9b934837fe233364cdd9f4c6e3057f6364736f6c634300080b0033",
  "linkReferences": {},
  "deployedLinkReferences": {}
}