{
  "_format": "hh-sol-artifact-1",
  "contractName": "MeterGovERC20",
  "sourceName": "contracts/MeterGovERC20.sol",
  "abi": [
    {
      "anonymous": false,
      "inputs": [
        {
          "indexed": true,
          "internalType": "address",
          "name": "_owner",
          "type": "address"
        },
        {
          "indexed": true,
          "internalType": "address",
          "name": "_spender",
          "type": "address"
        },
        {
          "indexed": false,
          "internalType": "uint256",
          "name": "_value",
          "type": "uint256"
        }
      ],
      "name": "Approval",
      "type": "event"
    },
    {
      "anonymous": false,
      "inputs": [
        {
          "indexed": true,
          "internalType": "address",
          "name": "_from",
          "type": "address"
        },
        {
          "indexed": true,
          "internalType": "address",
          "name": "_to",
          "type": "address"
        },
        {
          "indexed": false,
          "internalType": "uint256",
          "name": "_value",
          "type": "uint256"
        }
      ],
      "name": "Transfer",
      "type": "event"
    },
    {
      "inputs": [
        {
          "internalType": "address",
          "name": "_owner",
          "type": "address"
        },
        {
          "internalType": "address",
          "name": "_spender",
          "type": "address"
        }
      ],
      "name": "allowance",
      "outputs": [
        {
          "internalType": "uint256",
          "name": "remaining",
          "type": "uint256"
        }
      ],
      "stateMutability": "view",
      "type": "function"
    },
    {
      "inputs": [
        {
          "internalType": "address",
          "name": "_spender",
          "type": "address"
        },
        {
          "internalType": "uint256",
          "name": "_value",
          "type": "uint256"
        }
      ],
      "name": "approve",
      "outputs": [
        {
          "internalType": "bool",
          "name": "success",
          "type": "bool"
        }
      ],
      "stateMutability": "nonpayable",
      "type": "function"
    },
    {
      "inputs": [
        {
          "internalType": "address",
          "name": "_owner",
          "type": "address"
        }
      ],
      "name": "balanceOf",
      "outputs": [
        {
          "internalType": "uint256",
          "name": "balance",
          "type": "uint256"
        }
      ],
      "stateMutability": "view",
      "type": "function"
    },
    {
      "inputs": [
        {
          "internalType": "address",
          "name": "_owner",
          "type": "address"
        }
      ],
      "name": "balanceOfBoundMtrg",
      "outputs": [
        {
          "internalType": "uint256",
          "name": "balance",
          "type": "uint256"
        }
      ],
      "stateMutability": "view",
      "type": "function"
    },
    {
      "inputs": [],
      "name": "decimals",
      "outputs": [
        {
          "internalType": "uint8",
          "name": "",
          "type": "uint8"
        }
      ],
      "stateMutability": "pure",
      "type": "function"
    },
    {
      "inputs": [
        {
          "internalType": "address",
          "name": "_from",
          "type": "address"
        },
        {
          "internalType": "address",
          "name": "_to",
          "type": "address"
        },
        {
          "internalType": "uint256",
          "name": "_amount",
          "type": "uint256"
        }
      ],
      "name": "move",
      "outputs": [
        {
          "internalType": "bool",
          "name": "success",
          "type": "bool"
        }
      ],
      "stateMutability": "nonpayable",
      "type": "function"
    },
    {
      "inputs": [],
      "name": "name",
      "outputs": [
        {
          "internalType": "string",
          "name": "",
          "type": "string"
        }
      ],
      "stateMutability": "pure",
      "type": "function"
    },
    {
      "inputs": [],
      "name": "symbol",
      "outputs": [
        {
          "internalType": "string",
          "name": "",
          "type": "string"
        }
      ],
      "stateMutability": "pure",
      "type": "function"
    },
    {
      "inputs": [],
      "name": "totalBurned",
      "outputs": [
        {
          "internalType": "uint256",
          "name": "",
          "type": "uint256"
        }
      ],
      "stateMutability": "view",
      "type": "function"
    },
    {
      "inputs": [],
      "name": "totalSupply",
      "outputs": [
        {
          "internalType": "uint256",
          "name": "",
          "type": "uint256"
        }
      ],
      "stateMutability": "view",
      "type": "function"
    },
    {
      "inputs": [
        {
          "internalType": "address",
          "name": "_to",
          "type": "address"
        },
        {
          "internalType": "uint256",
          "name": "_amount",
          "type": "uint256"
        }
      ],
      "name": "transfer",
      "outputs": [
        {
          "internalType": "bool",
          "name": "success",
          "type": "bool"
        }
      ],
      "stateMutability": "nonpayable",
      "type": "function"
    },
    {
      "inputs": [
        {
          "internalType": "address",
          "name": "_from",
          "type": "address"
        },
        {
          "internalType": "address",
          "name": "_to",
          "type": "address"
        },
        {
          "internalType": "uint256",
          "name": "_amount",
          "type": "uint256"
        }
      ],
      "name": "transferFrom",
      "outputs": [
        {
          "internalType": "bool",
          "name": "success",
          "type": "bool"
        }
      ],
      "stateMutability": "nonpayable",
      "type": "function"
    }
  ],
  "bytecode": "0x6080604052600180546001600160a01b0319166a4d657465724e617469766517905534801561002d57600080fd5b506108f58061003d6000396000f3fe608060405234801561001057600080fd5b50600436106100b45760003560e01c806370a082311161007157806370a082311461015d57806395d89b4114610170578063a9059cbb14610190578063bb35783b146101a3578063d89135cd146101b6578063dd62ed3e146101be57600080fd5b806306fdde03146100b9578063095ea7b3146100ef57806318160ddd1461011257806323b872dd14610128578063313ce5671461013b5780635d5aaa821461014a575b600080fd5b60408051808201909152600881526726b2ba32b923b7bb60c11b60208201525b6040516100e69190610712565b60405180910390f35b6101026100fd36600461077f565b6101f5565b60405190151581526020016100e6565b61011a610209565b6040519081526020016100e6565b6101026101363660046107ab565b61027b565b604051601281526020016100e6565b61011a6101583660046107ec565b61033d565b61011a61016b3660046107ec565b6103b3565b6040805180820190915260048152634d54524760e01b60208201526100d9565b61010261019e36600461077f565b6103e6565b6101026101b13660046107ab565b6103fc565b61011a6104e0565b61011a6101cc366004610809565b6001600160a01b0391821660009081526020818152604080832093909416825291909152205490565b600061020233848461052a565b9392505050565b60015460408051620511b760ed1b815290516000926001600160a01b03169163a236e0009160048083019260209291908290030181865afa158015610252573d6000803e3d6000fd5b505050506040513d601f19601f820116820180604052508101906102769190610842565b905090565b6001600160a01b0383166000908152602081815260408083203384529091528120548211156102f15760405162461bcd60e51b815260206004820152601f60248201527f6275696c74696e3a20696e73756666696369656e7420616c6c6f77616e63650060448201526064015b60405180910390fd5b6001600160a01b0384166000908152602081815260408083203384529091528120805484929061032290849061085b565b909155506103339050848484610590565b5060019392505050565b6001546040516398c6fb8d60e01b81526001600160a01b03838116600483015260009216906398c6fb8d906024015b602060405180830381865afa158015610389573d6000803e3d6000fd5b505050506040513d601f19601f820116820180604052508101906103ad9190610842565b92915050565b600154604051630a30af2760e41b81526001600160a01b038381166004830152600092169063a30af2709060240161036c565b60006103f3338484610590565b50600192915050565b60006001600160a01b038416331480610489575060015460405163059950e960e01b81526001600160a01b0386811660048301523392169063059950e990602401602060405180830381865afa15801561045a573d6000803e3d6000fd5b505050506040513d601f19601f8201168201806040525081019061047e9190610880565b6001600160a01b0316145b6104d55760405162461bcd60e51b815260206004820181905260248201527f6275696c74696e3a2073656c66206f72206d617374657220726571756972656460448201526064016102e8565b610333848484610590565b6001546040805163eaa93f6b60e01b815290516000926001600160a01b03169163eaa93f6b9160048083019260209291908290030181865afa158015610252573d6000803e3d6000fd5b6001600160a01b0383811660008181526020818152604080832094871680845294825280832086905551858152919392917f8c5be1e5ebec7d5bd14f71427d1e84f3dd0314c0f7b2291e5b200ac8c7c3b925910160405180910390a35060019392505050565b80156106c0576001546040516315df233f60e11b81526001600160a01b0385811660048301526024820184905290911690632bbe467e906044016020604051808303816000875af11580156105e9573d6000803e3d6000fd5b505050506040513d601f19601f8201168201806040525081019061060d919061089d565b6106595760405162461bcd60e51b815260206004820152601d60248201527f6275696c74696e3a20696e73756666696369656e742062616c616e636500000060448201526064016102e8565b6001546040516337dde9b560e21b81526001600160a01b038481166004830152602482018490529091169063df77a6d490604401600060405180830381600087803b1580156106a757600080fd5b505af11580156106bb573d6000803e3d6000fd5b505050505b816001600160a01b0316836001600160a01b03167fddf252ad1be2c89b69c2b068fc378daa952ba7f163c4a11628f55a4df523b3ef8360405161070591815260200190565b60405180910390a3505050565b600060208083528351808285015260005b8181101561073f57858101830151858201604001528201610723565b81811115610751576000604083870101525b50601f01601f1916929092016040019392505050565b6001600160a01b038116811461077c57600080fd5b50565b6000806040838503121561079257600080fd5b823561079d81610767565b946020939093013593505050565b6000806000606084860312156107c057600080fd5b83356107cb81610767565b925060208401356107db81610767565b929592945050506040919091013590565b6000602082840312156107fe57600080fd5b813561020281610767565b6000806040838503121561081c57600080fd5b823561082781610767565b9150602083013561083781610767565b809150509250929050565b60006020828403121561085457600080fd5b5051919050565b60008282101561087b57634e487b7160e01b600052601160045260246000fd5b500390565b60006020828403121561089257600080fd5b815161020281610767565b6000602082840312156108af57600080fd5b8151801515811461020257600080fdfea264697066735822122007b65d1a6724823858a5724a1e596e7d6808675a84b7e334d361854fee126ae164736f6c634300080b0033",
  "linkReferences": {},
  "deployedLinkReferences": {}
}