{
  "_format": "hh-sol-artifact-1",
  "contractName": "NewMeterNative",
  "sourceName": "contracts/NewMeterNative.sol",
  "abi": [
    {
      "inputs": [],
      "stateMutability": "payable",
      "type": "constructor"
    },
    {
      "anonymous": false,
      "inputs": [
        {
          "indexed": false,
          "internalType": "address",
          "name": "_address",
          "type": "address"
        },
        {
          "indexed": false,
          "internalType": "uint256",
          "name": "_amount",
          "type": "uint256"
        },
        {
          "indexed": false,
          "internalType": "string",
          "name": "_method",
          "type": "string"
        }
      ],
      "name": "MeterTrackerEvent",
      "type": "event"
    },
    {
      "inputs": [
        {
          "internalType": "address",
          "name": "addr",
          "type": "address"
        }
      ],
      "name": "native_master",
      "outputs": [
        {
          "internalType": "address",
          "name": "",
          "type": "address"
        }
      ],
      "stateMutability": "pure",
      "type": "function"
    },
    {
      "inputs": [
        {
          "internalType": "address",
          "name": "addr",
          "type": "address"
        },
        {
          "internalType": "uint256",
          "name": "amount",
          "type": "uint256"
        }
      ],
      "name": "native_mtr_add",
      "outputs": [],
      "stateMutability": "nonpayable",
      "type": "function"
    },
    {
      "inputs": [
        {
          "internalType": "address",
          "name": "addr",
          "type": "address"
        }
      ],
      "name": "native_mtr_get",
      "outputs": [
        {
          "internalType": "uint256",
          "name": "",
          "type": "uint256"
        }
      ],
      "stateMutability": "pure",
      "type": "function"
    },
    {
      "inputs": [
        {
          "internalType": "address",
          "name": "addr",
          "type": "address"
        },
        {
          "internalType": "uint256",
          "name": "amount",
          "type": "uint256"
        }
      ],
      "name": "native_mtr_locked_add",
      "outputs": [],
      "stateMutability": "nonpayable",
      "type": "function"
    },
    {
      "inputs": [
        {
          "internalType": "address",
          "name": "addr",
          "type": "address"
        }
      ],
      "name": "native_mtr_locked_get",
      "outputs": [
        {
          "internalType": "uint256",
          "name": "",
          "type": "uint256"
        }
      ],
      "stateMutability": "pure",
      "type": "function"
    },
    {
      "inputs": [
        {
          "internalType": "address",
          "name": "addr",
          "type": "address"
        },
        {
          "internalType": "uint256",
          "name": "amount",
          "type": "uint256"
        }
      ],
      "name": "native_mtr_locked_sub",
      "outputs": [
        {
          "internalType": "bool",
          "name": "",
          "type": "bool"
        }
      ],
      "stateMutability": "nonpayable",
      "type": "function"
    },
    {
      "inputs": [
        {
          "internalType": "address",
          "name": "addr",
          "type": "address"
        },
        {
          "internalType": "uint256",
          "name": "amount",
          "type": "uint256"
        }
      ],
      "name": "native_mtr_sub",
      "outputs": [
        {
          "internalType": "bool",
          "name": "",
          "type": "bool"
        }
      ],
      "stateMutability": "nonpayable",
      "type": "function"
    },
    {
      "inputs": [],
      "name": "native_mtr_totalBurned",
      "outputs": [
        {
          "internalType": "uint256",
          "name": "",
          "type": "uint256"
        }
      ],
      "stateMutability": "pure",
      "type": "function"
    },
    {
      "inputs": [],
      "name": "native_mtr_totalSupply",
      "outputs": [
        {
          "internalType": "uint256",
          "name": "",
          "type": "uint256"
        }
      ],
      "stateMutability": "pure",
      "type": "function"
    },
    {
      "inputs": [
        {
          "internalType": "address",
          "name": "addr",
          "type": "address"
        },
        {
          "internalType": "uint256",
          "name": "amount",
          "type": "uint256"
        }
      ],
      "name": "native_mtrg_add",
      "outputs": [],
      "stateMutability": "nonpayable",
      "type": "function"
    },
    {
      "inputs": [
        {
          "internalType": "address",
          "name": "addr",
          "type": "address"
        }
      ],
      "name": "native_mtrg_get",
      "outputs": [
        {
          "internalType": "uint256",
          "name": "",
          "type": "uint256"
        }
      ],
      "stateMutability": "pure",
      "type": "function"
    },
    {
      "inputs": [
        {
          "internalType": "address",
          "name": "addr",
          "type": "address"
        },
        {
          "internalType": "uint256",
          "name": "amount",
          "type": "uint256"
        }
      ],
      "name": "native_mtrg_locked_add",
      "outputs": [],
      "stateMutability": "nonpayable",
      "type": "function"
    },
    {
      "inputs": [
        {
          "internalType": "address",
          "name": "addr",
          "type": "address"
        }
      ],
      "name": "native_mtrg_locked_get",
      "outputs": [
        {
          "internalType": "uint256",
          "name": "",
          "type": "uint256"
        }
      ],
      "stateMutability": "pure",
      "type": "function"
    },
    {
      "inputs": [
        {
          "internalType": "address",
          "name": "addr",
          "type": "address"
        },
        {
          "internalType": "uint256",
          "name": "amount",
          "type": "uint256"
        }
      ],
      "name": "native_mtrg_locked_sub",
      "outputs": [
        {
          "internalType": "bool",
          "name": "",
          "type": "bool"
        }
      ],
      "stateMutability": "nonpayable",
      "type": "function"
    },
    {
      "inputs": [
        {
          "internalType": "address",
          "name": "addr",
          "type": "address"
        },
        {
          "internalType": "uint256",
          "name": "amount",
          "type": "uint256"
        }
      ],
      "name": "native_mtrg_sub",
      "outputs": [
        {
          "internalType": "bool",
          "name": "",
          "type": "bool"
        }
      ],
      "stateMutability": "nonpayable",
      "type": "function"
    },
    {
      "inputs": [],
      "name": "native_mtrg_totalBurned",
      "outputs": [
        {
          "internalType": "uint256",
          "name": "",
          "type": "uint256"
        }
      ],
      "stateMutability": "pure",
      "type": "function"
    },
    {
      "inputs": [],
      "name": "native_mtrg_totalSupply",
      "outputs": [
        {
          "internalType": "uint256",
          "name": "",
          "type": "uint256"
        }
      ],
      "stateMutability": "pure",
      "type": "function"
    }
  ],
  "bytecode": "0x60806040526106a5806100136000396000f3fe608060405234801561001057600080fd5b506004361061011b5760003560e01c8063a236e000116100b2578063cc23064111610081578063df77a6d411610066578063df77a6d4146101f8578063eaa93f6b1461016d578063f14645f51461020b57600080fd5b8063cc230641146101e5578063ccc7df9d1461016d57600080fd5b8063a236e0001461016d578063a30af27014610120578063b547784b146101bf578063baa28902146101d257600080fd5b80632bbe467e116100ee5780632bbe467e1461018957806330daa28214610120578063740b155f146101ac57806398c6fb8d1461012057600080fd5b80630511d90314610120578063059950e914610147578063076e361d1461016d57806320ae650114610174575b600080fd5b61013461012e366004610623565b50600090565b6040519081526020015b60405180910390f35b61015561012e366004610623565b6040516001600160a01b03909116815260200161013e565b6000610134565b610187610182366004610645565b61021e565b005b61019c610197366004610645565b61029e565b604051901515815260200161013e565b6101876101ba366004610645565b61032b565b6101876101cd366004610645565b6103a3565b61019c6101e0366004610645565b61041b565b61019c6101f3366004610645565b610497565b610187610206366004610645565b610513565b61019c610219366004610645565b61058b565b604080516001600160a01b03841681526020810183905260609181018290526015918101919091527f6e61746976655f6d74725f6c6f636b65645f616464000000000000000000000060808201527fe733fdb97bd02ae887462b30f938653e7a701cf0ec92fc28d4e57d462961f2149060a0015b60405180910390a15050565b60007fe733fdb97bd02ae887462b30f938653e7a701cf0ec92fc28d4e57d462961f214838360405161031a9291906001600160a01b039290921682526020820152606060408201819052600f908201527f6e61746976655f6d7472675f7375620000000000000000000000000000000000608082015260a00190565b60405180910390a150600192915050565b604080516001600160a01b0384168152602081018390526060918101829052600e918101919091527f6e61746976655f6d74725f61646400000000000000000000000000000000000060808201527fe733fdb97bd02ae887462b30f938653e7a701cf0ec92fc28d4e57d462961f2149060a001610292565b604080516001600160a01b03841681526020810183905260609181018290526016918101919091527f6e61746976655f6d7472675f6c6f636b65645f6164640000000000000000000060808201527fe733fdb97bd02ae887462b30f938653e7a701cf0ec92fc28d4e57d462961f2149060a001610292565b60007fe733fdb97bd02ae887462b30f938653e7a701cf0ec92fc28d4e57d462961f214838360405161031a9291906001600160a01b0392909216825260208201526060604082018190526015908201527f6e61746976655f6d74725f6c6f636b65645f7375620000000000000000000000608082015260a00190565b60007fe733fdb97bd02ae887462b30f938653e7a701cf0ec92fc28d4e57d462961f214838360405161031a9291906001600160a01b0392909216825260208201526060604082018190526016908201527f6e61746976655f6d7472675f6c6f636b65645f73756200000000000000000000608082015260a00190565b604080516001600160a01b0384168152602081018390526060918101829052600f918101919091527f6e61746976655f6d7472675f616464000000000000000000000000000000000060808201527fe733fdb97bd02ae887462b30f938653e7a701cf0ec92fc28d4e57d462961f2149060a001610292565b60007fe733fdb97bd02ae887462b30f938653e7a701cf0ec92fc28d4e57d462961f214838360405161031a9291906001600160a01b039290921682526020820152606060408201819052600e908201527f6e61746976655f6d74725f737562000000000000000000000000000000000000608082015260a00190565b80356001600160a01b038116811461061e57600080fd5b919050565b60006020828403121561063557600080fd5b61063e82610607565b9392505050565b6000806040838503121561065857600080fd5b61066183610607565b94602093909301359350505056fea264697066735822122043cd3f1e99f060dfc19dd5d1ddc35468b5337b8829314a766c0325617faf4e0a64736f6c634300080b0033",
  "linkReferences": {},
  "deployedLinkReferences": {}
}