{
  "_format": "hh-sol-artifact-1",
  "contractName": "MockScriptEngine",
  "sourceName": "contracts/test/MockScriptEngine.sol",
  "abi": [
    {
      "inputs": [
        {
          "internalType": "contract MockMTRG",
          "name": "_MTRG",
          "type": "address"
        }
      ],
      "stateMutability": "nonpayable",
      "type": "constructor"
    },
    {
      "inputs": [],
      "name": "MTRG",
      "outputs": [
        {
          "internalType": "contract MockMTRG",
          "name": "",
          "type": "address"
        }
      ],
      "stateMutability": "view",
      "type": "function"
    },
    {
      "inputs": [],
      "name": "boundedMTRG",
      "outputs": [
        {
          "internalType": "uint256",
          "name": "",
          "type": "uint256"
        }
      ],
      "stateMutability": "view",
      "type": "function"
    },
    {
      "inputs": [
        {
          "internalType": "address",
          "name": "",
          "type": "address"
        },
        {
          "internalType": "bytes32",
          "name": "",
          "type": "bytes32"
        }
      ],
      "name": "bucket",
      "outputs": [
        {
          "internalType": "uint256",
          "name": "",
          "type": "uint256"
        }
      ],
      "stateMutability": "view",
      "type": "function"
    },
    {
      "inputs": [
        {
          "internalType": "bytes32",
          "name": "bucketID",
          "type": "bytes32"
        }
      ],
      "name": "bucketClose",
      "outputs": [],
      "stateMutability": "nonpayable",
      "type": "function"
    },
    {
      "inputs": [
        {
          "internalType": "bytes32",
          "name": "bucketID",
          "type": "bytes32"
        },
        {
          "internalType": "uint256",
          "name": "amount",
          "type": "uint256"
        }
      ],
      "name": "bucketDeposit",
      "outputs": [
        {
          "internalType": "bool",
          "name": "",
          "type": "bool"
        }
      ],
      "stateMutability": "nonpayable",
      "type": "function"
    },
    {
      "inputs": [
        {
          "internalType": "bytes32",
          "name": "fromBucketID",
          "type": "bytes32"
        },
        {
          "internalType": "bytes32",
          "name": "toBucketID",
          "type": "bytes32"
        }
      ],
      "name": "bucketMerge",
      "outputs": [
        {
          "internalType": "bool",
          "name": "",
          "type": "bool"
        }
      ],
      "stateMutability": "nonpayable",
      "type": "function"
    },
    {
      "inputs": [
        {
          "internalType": "address",
          "name": "candidate",
          "type": "address"
        },
        {
          "internalType": "uint256",
          "name": "amount",
          "type": "uint256"
        }
      ],
      "name": "bucketOpen",
      "outputs": [
        {
          "internalType": "bytes32",
          "name": "bucketID",
          "type": "bytes32"
        },
        {
          "internalType": "bool",
          "name": "success",
          "type": "bool"
        }
      ],
      "stateMutability": "nonpayable",
      "type": "function"
    },
    {
      "inputs": [
        {
          "internalType": "bytes32",
          "name": "",
          "type": "bytes32"
        }
      ],
      "name": "bucketRevert",
      "outputs": [
        {
          "internalType": "bool",
          "name": "",
          "type": "bool"
        }
      ],
      "stateMutability": "view",
      "type": "function"
    },
    {
      "inputs": [
        {
          "internalType": "bytes32",
          "name": "fromBucketID",
          "type": "bytes32"
        },
        {
          "internalType": "bytes32",
          "name": "toBucketID",
          "type": "bytes32"
        },
        {
          "internalType": "uint256",
          "name": "amount",
          "type": "uint256"
        }
      ],
      "name": "bucketTransferFund",
      "outputs": [
        {
          "internalType": "bool",
          "name": "",
          "type": "bool"
        }
      ],
      "stateMutability": "nonpayable",
      "type": "function"
    },
    {
      "inputs": [
        {
          "internalType": "bytes32",
          "name": "",
          "type": "bytes32"
        }
      ],
      "name": "bucketUser",
      "outputs": [
        {
          "internalType": "address",
          "name": "",
          "type": "address"
        }
      ],
      "stateMutability": "view",
      "type": "function"
    },
    {
      "inputs": [
        {
          "internalType": "bytes32",
          "name": "bucketID",
          "type": "bytes32"
        }
      ],
      "name": "bucketValue",
      "outputs": [
        {
          "internalType": "uint256",
          "name": "",
          "type": "uint256"
        }
      ],
      "stateMutability": "view",
      "type": "function"
    },
    {
      "inputs": [
        {
          "internalType": "bytes32",
          "name": "bucketID",
          "type": "bytes32"
        },
        {
          "internalType": "uint256",
          "name": "amount",
          "type": "uint256"
        },
        {
          "internalType": "address",
          "name": "recipient",
          "type": "address"
        }
      ],
      "name": "bucketWithdraw",
      "outputs": [
        {
          "internalType": "bytes32",
          "name": "newBktID",
          "type": "bytes32"
        }
      ],
      "stateMutability": "nonpayable",
      "type": "function"
    },
    {
      "inputs": [],
      "name": "reward",
      "outputs": [],
      "stateMutability": "nonpayable",
      "type": "function"
    },
    {
      "inputs": [
        {
          "internalType": "bytes32",
          "name": "bucketID",
          "type": "bytes32"
        }
      ],
      "name": "setBucketRevert",
      "outputs": [],
      "stateMutability": "nonpayable",
      "type": "function"
    }
  ],
  "bytecode": "0x608060405234801561001057600080fd5b5060405161102f38038061102f83398101604081905261002f91610054565b600080546001600160a01b0319166001600160a01b0392909216919091179055610084565b60006020828403121561006657600080fd5b81516001600160a01b038116811461007d57600080fd5b9392505050565b610f9c806100936000396000f3fe608060405234801561001057600080fd5b50600436106100ea5760003560e01c806372be77a01161008c57806388b0e2a41161006657806388b0e2a41461020d5780639748bf5b14610238578063b7167f3a14610263578063b7b4de671461028657600080fd5b806372be77a0146101bc57806377d7f913146101cf5780637de9d11f146101e257600080fd5b80633a8dd82a116100c85780633a8dd82a14610149578063561f97be1461016857806362d3cc011461017b578063653d73a2146101a957600080fd5b80631b7846c0146100ef578063228cb733146101175780633060ef7214610121575b600080fd5b6101026100fd366004610db4565b6102af565b60405190151581526020015b60405180910390f35b61011f610444565b005b61013461012f366004610df2565b61053a565b6040805192835290151560208301520161010e565b336000908152600360205260409020545b60405190815260200161010e565b61015a610176366004610e1c565b61070b565b61011f610189366004610e51565b6000908152600660205260409020805460ff19811660ff90911615179055565b6101026101b7366004610db4565b610874565b6101026101ca366004610e6a565b610920565b61011f6101dd366004610e51565b610a49565b61015a6101f0366004610df2565b600260209081526000928352604080842090915290825290205481565b600054610220906001600160a01b031681565b6040516001600160a01b03909116815260200161010e565b61015a610246366004610e51565b336000908152600260209081526040808320938352929052205490565b610102610271366004610e51565b60066020526000908152604090205460ff1681565b610220610294366004610e51565b6001602052600090815260409020546001600160a01b031681565b60008281526006602052604081205460ff16156103035760405162461bcd60e51b815260206004820152600d60248201526c189d58dad95d081c995d995c9d609a1b60448201526064015b60405180910390fd5b33600090815260026020908152604080832086845290915290205461036a5760405162461bcd60e51b815260206004820152601160248201527f6275636b6574206e6f742065786973742100000000000000000000000000000060448201526064016102fa565b60005460405163bb35783b60e01b8152336004820152306024820152604481018490526001600160a01b039091169063bb35783b906064016020604051808303816000875af11580156103c1573d6000803e3d6000fd5b505050506040513d601f19601f820116820180604052508101906103e59190610e96565b5033600090815260026020908152604080832086845290915281208054849290610410908490610ece565b90915550503360009081526003602052604081208054849290610434908490610ece565b9091555060019150505b92915050565b60006104506004610c13565b905060005b8181101561053657600061046a600483610c1d565b6000818152600160209081526040808320546001600160a01b031680845260028352818420858552909252822054929350916104a890600a90610ee6565b6000546040516340c10f1960e01b81526001600160a01b038581166004830152602482018490529293509116906340c10f19906044016020604051808303816000875af11580156104fd573d6000803e3d6000fd5b505050506040513d601f19601f820116820180604052508101906105219190610e96565b505050508061052f90610f08565b9050610455565b5050565b604080513360208083018290526001600160a01b0386168385015283518084038501815260609093018452825192810192909220600091825260028352838220818352909252918220549091901580156105a957506000828152600160205260409020546001600160a01b0316155b6105f55760405162461bcd60e51b815260206004820152600d60248201527f6275636b6574206578697374210000000000000000000000000000000000000060448201526064016102fa565b60005460405163bb35783b60e01b8152336004820152306024820152604481018590526001600160a01b039091169063bb35783b906064016020604051808303816000875af115801561064c573d6000803e3d6000fd5b505050506040513d601f19601f820116820180604052508101906106709190610e96565b50600082815260016020908152604080832080547fffffffffffffffffffffffff00000000000000000000000000000000000000001633908117909155835260028252808320858452909152812080548592906106ce908490610ece565b909155505033600090815260036020526040812080548592906106f2908490610ece565b909155506107039050600483610c30565b509250929050565b6000838152600160209081526040808320546001600160a01b0316808452600283528184208785529092528220548411156107885760405162461bcd60e51b815260206004820152601260248201527f6275636b6574206e6f7420656e6f75676821000000000000000000000000000060448201526064016102fa565b60005460405163bb35783b60e01b81523060048201526001600160a01b038581166024830152604482018790529091169063bb35783b906064016020604051808303816000875af11580156107e1573d6000803e3d6000fd5b505050506040513d601f19601f820116820180604052508101906108059190610e96565b506001600160a01b038116600090815260026020908152604080832088845290915281208054869290610839908490610f23565b90915550506001600160a01b03811660009081526003602052604081208054869290610866908490610f23565b909155509195945050505050565b60008181526006602052604081205460ff16156108c35760405162461bcd60e51b815260206004820152600d60248201526c189d58dad95d081c995d995c9d609a1b60448201526064016102fa565b6000838152600160209081526040808320546001600160a01b0316808452600283528184208785528084528285208054908690558786529352908320805491938392610910908490610ece565b9091555060019695505050505050565b60008281526006602052604081205460ff161561096f5760405162461bcd60e51b815260206004820152600d60248201526c189d58dad95d081c995d995c9d609a1b60448201526064016102fa565b33600090815260026020908152604080832087845290915290205468056bc75e2d63100000106109e15760405162461bcd60e51b815260206004820152600960248201527f313030206574686572000000000000000000000000000000000000000000000060448201526064016102fa565b33600090815260026020908152604080832087845290915281208054849290610a0b908490610f23565b909155505033600090815260026020908152604080832086845290915281208054849290610a3a908490610ece565b90915550600195945050505050565b6000818152600160209081526040808320546001600160a01b0316808452600283528184208585529092529091205480610ac55760405162461bcd60e51b815260206004820152601160248201527f6275636b6574206e6f742065786973742100000000000000000000000000000060448201526064016102fa565b336001600160a01b03831614610b1d5760405162461bcd60e51b815260206004820152601060248201527f6275636b6574206e6f7420796f7572210000000000000000000000000000000060448201526064016102fa565b60005460405163bb35783b60e01b81523060048201526001600160a01b038481166024830152604482018490529091169063bb35783b906064016020604051808303816000875af1158015610b76573d6000803e3d6000fd5b505050506040513d601f19601f82011682018060405250810190610b9a9190610e96565b506001600160a01b0382166000818152600260209081526040808320878452825280832054938352600390915281208054909190610bd9908490610f23565b90915550506001600160a01b0382166000908152600260209081526040808320868452909152812055610c0d600484610c3c565b50505050565b600061043e825490565b6000610c298383610c48565b9392505050565b6000610c298383610c72565b6000610c298383610cc1565b6000826000018281548110610c5f57610c5f610f3a565b9060005260206000200154905092915050565b6000818152600183016020526040812054610cb95750815460018181018455600084815260208082209093018490558454848252828601909352604090209190915561043e565b50600061043e565b60008181526001830160205260408120548015610daa576000610ce5600183610f23565b8554909150600090610cf990600190610f23565b9050818114610d5e576000866000018281548110610d1957610d19610f3a565b9060005260206000200154905080876000018481548110610d3c57610d3c610f3a565b6000918252602080832090910192909255918252600188019052604090208390555b8554869080610d6f57610d6f610f50565b60019003818190600052602060002001600090559055856001016000868152602001908152602001600020600090556001935050505061043e565b600091505061043e565b60008060408385031215610dc757600080fd5b50508035926020909101359150565b80356001600160a01b0381168114610ded57600080fd5b919050565b60008060408385031215610e0557600080fd5b610e0e83610dd6565b946020939093013593505050565b600080600060608486031215610e3157600080fd5b8335925060208401359150610e4860408501610dd6565b90509250925092565b600060208284031215610e6357600080fd5b5035919050565b600080600060608486031215610e7f57600080fd5b505081359360208301359350604090920135919050565b600060208284031215610ea857600080fd5b81518015158114610c2957600080fd5b634e487b7160e01b600052601160045260246000fd5b60008219821115610ee157610ee1610eb8565b500190565b600082610f0357634e487b7160e01b600052601260045260246000fd5b500490565b6000600019821415610f1c57610f1c610eb8565b5060010190565b600082821015610f3557610f35610eb8565b500390565b634e487b7160e01b600052603260045260246000fd5b634e487b7160e01b600052603160045260246000fdfea2646970667358221220fb7f0520697bceeb8e5241607d8c4674d07ec3578608ddd00ea28a74fe6c2fc264736f6c634300080b0033",
  "linkReferences": {},
  "deployedLinkReferences": {}
}