{
  "_format": "hh-sol-artifact-1",
  "contractName": "MockScriptEngine",
  "sourceName": "contracts/test/MockScriptEngine.sol",
  "abi": [
    {
      "inputs": [
        {
          "internalType": "contract MockMTRG",
          "name": "_MTRG",
          "type": "address"
        }
      ],
      "stateMutability": "nonpayable",
      "type": "constructor"
    },
    {
      "inputs": [],
      "name": "MTRG",
      "outputs": [
        {
          "internalType": "contract MockMTRG",
          "name": "",
          "type": "address"
        }
      ],
      "stateMutability": "view",
      "type": "function"
    },
    {
      "inputs": [],
      "name": "boundedMTRG",
      "outputs": [
        {
          "internalType": "uint256",
          "name": "",
          "type": "uint256"
        }
      ],
      "stateMutability": "view",
      "type": "function"
    },
    {
      "inputs": [
        {
          "internalType": "address",
          "name": "",
          "type": "address"
        },
        {
          "internalType": "bytes32",
          "name": "",
          "type": "bytes32"
        }
      ],
      "name": "bucket",
      "outputs": [
        {
          "internalType": "uint256",
          "name": "",
          "type": "uint256"
        }
      ],
      "stateMutability": "view",
      "type": "function"
    },
    {
      "inputs": [
        {
          "internalType": "bytes32",
          "name": "bucketID",
          "type": "bytes32"
        }
      ],
      "name": "bucketClose",
      "outputs": [],
      "stateMutability": "nonpayable",
      "type": "function"
    },
    {
      "inputs": [
        {
          "internalType": "bytes32",
          "name": "bucketID",
          "type": "bytes32"
        },
        {
          "internalType": "uint256",
          "name": "amount",
          "type": "uint256"
        }
      ],
      "name": "bucketDeposit",
      "outputs": [
        {
          "internalType": "bool",
          "name": "",
          "type": "bool"
        }
      ],
      "stateMutability": "nonpayable",
      "type": "function"
    },
    {
      "inputs": [
        {
          "internalType": "bytes32",
          "name": "bucketID",
          "type": "bytes32"
        }
      ],
      "name": "bucketExists",
      "outputs": [
        {
          "internalType": "bool",
          "name": "success",
          "type": "bool"
        }
      ],
      "stateMutability": "view",
      "type": "function"
    },
    {
      "inputs": [
        {
          "internalType": "bytes32",
          "name": "fromBucketID",
          "type": "bytes32"
        },
        {
          "internalType": "bytes32",
          "name": "toBucketID",
          "type": "bytes32"
        }
      ],
      "name": "bucketMerge",
      "outputs": [
        {
          "internalType": "bool",
          "name": "",
          "type": "bool"
        }
      ],
      "stateMutability": "nonpayable",
      "type": "function"
    },
    {
      "inputs": [
        {
          "internalType": "address",
          "name": "candidate",
          "type": "address"
        },
        {
          "internalType": "uint256",
          "name": "amount",
          "type": "uint256"
        }
      ],
      "name": "bucketOpen",
      "outputs": [
        {
          "internalType": "bytes32",
          "name": "bucketID",
          "type": "bytes32"
        },
        {
          "internalType": "bool",
          "name": "success",
          "type": "bool"
        }
      ],
      "stateMutability": "nonpayable",
      "type": "function"
    },
    {
      "inputs": [
        {
          "internalType": "bytes32",
          "name": "",
          "type": "bytes32"
        }
      ],
      "name": "bucketRevert",
      "outputs": [
        {
          "internalType": "bool",
          "name": "",
          "type": "bool"
        }
      ],
      "stateMutability": "view",
      "type": "function"
    },
    {
      "inputs": [
        {
          "internalType": "bytes32",
          "name": "fromBucketID",
          "type": "bytes32"
        },
        {
          "internalType": "bytes32",
          "name": "toBucketID",
          "type": "bytes32"
        },
        {
          "internalType": "uint256",
          "name": "amount",
          "type": "uint256"
        }
      ],
      "name": "bucketTransferFund",
      "outputs": [
        {
          "internalType": "bool",
          "name": "",
          "type": "bool"
        }
      ],
      "stateMutability": "nonpayable",
      "type": "function"
    },
    {
      "inputs": [
        {
          "internalType": "bytes32",
          "name": "",
          "type": "bytes32"
        }
      ],
      "name": "bucketUser",
      "outputs": [
        {
          "internalType": "address",
          "name": "",
          "type": "address"
        }
      ],
      "stateMutability": "view",
      "type": "function"
    },
    {
      "inputs": [
        {
          "internalType": "bytes32",
          "name": "bucketID",
          "type": "bytes32"
        }
      ],
      "name": "bucketValue",
      "outputs": [
        {
          "internalType": "uint256",
          "name": "",
          "type": "uint256"
        }
      ],
      "stateMutability": "view",
      "type": "function"
    },
    {
      "inputs": [
        {
          "internalType": "bytes32",
          "name": "bucketID",
          "type": "bytes32"
        },
        {
          "internalType": "uint256",
          "name": "amount",
          "type": "uint256"
        },
        {
          "internalType": "address",
          "name": "recipient",
          "type": "address"
        }
      ],
      "name": "bucketWithdraw",
      "outputs": [
        {
          "internalType": "bytes32",
          "name": "newBktID",
          "type": "bytes32"
        }
      ],
      "stateMutability": "nonpayable",
      "type": "function"
    },
    {
      "inputs": [],
      "name": "reward",
      "outputs": [],
      "stateMutability": "nonpayable",
      "type": "function"
    },
    {
      "inputs": [
        {
          "internalType": "bytes32",
          "name": "bucketID",
          "type": "bytes32"
        }
      ],
      "name": "setBucketRevert",
      "outputs": [],
      "stateMutability": "nonpayable",
      "type": "function"
    }
  ],
  "bytecode": "0x608060405234801561001057600080fd5b5060405161106a38038061106a83398101604081905261002f91610054565b600080546001600160a01b0319166001600160a01b0392909216919091179055610084565b60006020828403121561006657600080fd5b81516001600160a01b038116811461007d57600080fd5b9392505050565b610fd7806100936000396000f3fe608060405234801561001057600080fd5b50600436106100f55760003560e01c806372be77a0116100975780639748bf5b116100665780639748bf5b14610243578063b7167f3a1461026e578063b7b4de6714610291578063f2097550146102ba57600080fd5b806372be77a0146101c757806377d7f913146101da5780637de9d11f146101ed57806388b0e2a41461021857600080fd5b80633a8dd82a116100d35780633a8dd82a14610154578063561f97be1461017357806362d3cc0114610186578063653d73a2146101b457600080fd5b80631b7846c0146100fa578063228cb733146101225780633060ef721461012c575b600080fd5b61010d610108366004610def565b6102e6565b60405190151581526020015b60405180910390f35b61012a61047b565b005b61013f61013a366004610e2d565b610571565b60408051928352901515602083015201610119565b336000908152600360205260409020545b604051908152602001610119565b610165610181366004610e57565b610746565b61012a610194366004610e8c565b6000908152600660205260409020805460ff19811660ff90911615179055565b61010d6101c2366004610def565b6108af565b61010d6101d5366004610ea5565b61095b565b61012a6101e8366004610e8c565b610a84565b6101656101fb366004610e2d565b600260209081526000928352604080842090915290825290205481565b60005461022b906001600160a01b031681565b6040516001600160a01b039091168152602001610119565b610165610251366004610e8c565b336000908152600260209081526040808320938352929052205490565b61010d61027c366004610e8c565b60066020526000908152604090205460ff1681565b61022b61029f366004610e8c565b6001602052600090815260409020546001600160a01b031681565b61010d6102c8366004610e8c565b33600090815260026020908152604080832093835292905220541590565b60008281526006602052604081205460ff161561033a5760405162461bcd60e51b815260206004820152600d60248201526c189d58dad95d081c995d995c9d609a1b60448201526064015b60405180910390fd5b3360009081526002602090815260408083208684529091529020546103a15760405162461bcd60e51b815260206004820152601160248201527f6275636b6574206e6f74206578697374210000000000000000000000000000006044820152606401610331565b60005460405163bb35783b60e01b8152336004820152306024820152604481018490526001600160a01b039091169063bb35783b906064016020604051808303816000875af11580156103f8573d6000803e3d6000fd5b505050506040513d601f19601f8201168201806040525081019061041c9190610ed1565b5033600090815260026020908152604080832086845290915281208054849290610447908490610f09565b9091555050336000908152600360205260408120805484929061046b908490610f09565b9091555060019150505b92915050565b60006104876004610c4e565b905060005b8181101561056d5760006104a1600483610c58565b6000818152600160209081526040808320546001600160a01b031680845260028352818420858552909252822054929350916104df90600a90610f21565b6000546040516340c10f1960e01b81526001600160a01b038581166004830152602482018490529293509116906340c10f19906044016020604051808303816000875af1158015610534573d6000803e3d6000fd5b505050506040513d601f19601f820116820180604052508101906105589190610ed1565b505050508061056690610f43565b905061048c565b5050565b604080513360208083018290526001600160a01b0386168385015283518084038501815260609093018452825192810192909220600091825260028352838220818352909252918220549091901580156105e057506000828152600160205260409020546001600160a01b0316155b61062c5760405162461bcd60e51b815260206004820152600d60248201527f6275636b657420657869737421000000000000000000000000000000000000006044820152606401610331565b60005460405163bb35783b60e01b8152336004820152306024820152604481018590526001600160a01b039091169063bb35783b906064016020604051808303816000875af1158015610683573d6000803e3d6000fd5b505050506040513d601f19601f820116820180604052508101906106a79190610ed1565b50600082815260016020908152604080832080547fffffffffffffffffffffffff0000000000000000000000000000000000000000163390811790915583526002825280832085845290915281208054859290610705908490610f09565b90915550503360009081526003602052604081208054859290610729908490610f09565b9091555061073a9050600483610c6b565b50600190509250929050565b6000838152600160209081526040808320546001600160a01b0316808452600283528184208785529092528220548411156107c35760405162461bcd60e51b815260206004820152601260248201527f6275636b6574206e6f7420656e6f7567682100000000000000000000000000006044820152606401610331565b60005460405163bb35783b60e01b81523060048201526001600160a01b038581166024830152604482018790529091169063bb35783b906064016020604051808303816000875af115801561081c573d6000803e3d6000fd5b505050506040513d601f19601f820116820180604052508101906108409190610ed1565b506001600160a01b038116600090815260026020908152604080832088845290915281208054869290610874908490610f5e565b90915550506001600160a01b038116600090815260036020526040812080548692906108a1908490610f5e565b909155509195945050505050565b60008181526006602052604081205460ff16156108fe5760405162461bcd60e51b815260206004820152600d60248201526c189d58dad95d081c995d995c9d609a1b6044820152606401610331565b6000838152600160209081526040808320546001600160a01b031680845260028352818420878552808452828520805490869055878652935290832080549193839261094b908490610f09565b9091555060019695505050505050565b60008281526006602052604081205460ff16156109aa5760405162461bcd60e51b815260206004820152600d60248201526c189d58dad95d081c995d995c9d609a1b6044820152606401610331565b33600090815260026020908152604080832087845290915290205468056bc75e2d6310000010610a1c5760405162461bcd60e51b815260206004820152600960248201527f31303020657468657200000000000000000000000000000000000000000000006044820152606401610331565b33600090815260026020908152604080832087845290915281208054849290610a46908490610f5e565b909155505033600090815260026020908152604080832086845290915281208054849290610a75908490610f09565b90915550600195945050505050565b6000818152600160209081526040808320546001600160a01b0316808452600283528184208585529092529091205480610b005760405162461bcd60e51b815260206004820152601160248201527f6275636b6574206e6f74206578697374210000000000000000000000000000006044820152606401610331565b336001600160a01b03831614610b585760405162461bcd60e51b815260206004820152601060248201527f6275636b6574206e6f7420796f757221000000000000000000000000000000006044820152606401610331565b60005460405163bb35783b60e01b81523060048201526001600160a01b038481166024830152604482018490529091169063bb35783b906064016020604051808303816000875af1158015610bb1573d6000803e3d6000fd5b505050506040513d601f19601f82011682018060405250810190610bd59190610ed1565b506001600160a01b0382166000818152600260209081526040808320878452825280832054938352600390915281208054909190610c14908490610f5e565b90915550506001600160a01b0382166000908152600260209081526040808320868452909152812055610c48600484610c77565b50505050565b6000610475825490565b6000610c648383610c83565b9392505050565b6000610c648383610cad565b6000610c648383610cfc565b6000826000018281548110610c9a57610c9a610f75565b9060005260206000200154905092915050565b6000818152600183016020526040812054610cf457508154600181810184556000848152602080822090930184905584548482528286019093526040902091909155610475565b506000610475565b60008181526001830160205260408120548015610de5576000610d20600183610f5e565b8554909150600090610d3490600190610f5e565b9050818114610d99576000866000018281548110610d5457610d54610f75565b9060005260206000200154905080876000018481548110610d7757610d77610f75565b6000918252602080832090910192909255918252600188019052604090208390555b8554869080610daa57610daa610f8b565b600190038181906000526020600020016000905590558560010160008681526020019081526020016000206000905560019350505050610475565b6000915050610475565b60008060408385031215610e0257600080fd5b50508035926020909101359150565b80356001600160a01b0381168114610e2857600080fd5b919050565b60008060408385031215610e4057600080fd5b610e4983610e11565b946020939093013593505050565b600080600060608486031215610e6c57600080fd5b8335925060208401359150610e8360408501610e11565b90509250925092565b600060208284031215610e9e57600080fd5b5035919050565b600080600060608486031215610eba57600080fd5b505081359360208301359350604090920135919050565b600060208284031215610ee357600080fd5b81518015158114610c6457600080fd5b634e487b7160e01b600052601160045260246000fd5b60008219821115610f1c57610f1c610ef3565b500190565b600082610f3e57634e487b7160e01b600052601260045260246000fd5b500490565b6000600019821415610f5757610f57610ef3565b5060010190565b600082821015610f7057610f70610ef3565b500390565b634e487b7160e01b600052603260045260246000fd5b634e487b7160e01b600052603160045260246000fdfea2646970667358221220201412824038226830d3c1f0bd79b9eb88d7f6a27b43d3b922e8b5602609ca4664736f6c634300080b0033",
  "linkReferences": {},
  "deployedLinkReferences": {}
}