{
  "_format": "hh-sol-artifact-1",
  "contractName": "MockScriptEngine",
  "sourceName": "contracts/test/MockScriptEngine.sol",
  "abi": [
    {
      "inputs": [
        {
          "internalType": "contract MockMTRG",
          "name": "_MTRG",
          "type": "address"
        }
      ],
      "stateMutability": "nonpayable",
      "type": "constructor"
    },
    {
      "inputs": [],
      "name": "MTRG",
      "outputs": [
        {
          "internalType": "contract MockMTRG",
          "name": "",
          "type": "address"
        }
      ],
      "stateMutability": "view",
      "type": "function"
    },
    {
      "inputs": [],
      "name": "boundedMTRG",
      "outputs": [
        {
          "internalType": "uint256",
          "name": "",
          "type": "uint256"
        }
      ],
      "stateMutability": "view",
      "type": "function"
    },
    {
      "inputs": [
        {
          "internalType": "address",
          "name": "",
          "type": "address"
        },
        {
          "internalType": "bytes32",
          "name": "",
          "type": "bytes32"
        }
      ],
      "name": "bucket",
      "outputs": [
        {
          "internalType": "uint256",
          "name": "",
          "type": "uint256"
        }
      ],
      "stateMutability": "view",
      "type": "function"
    },
    {
      "inputs": [
        {
          "internalType": "bytes32",
          "name": "bucketID",
          "type": "bytes32"
        }
      ],
      "name": "bucketClose",
      "outputs": [],
      "stateMutability": "nonpayable",
      "type": "function"
    },
    {
      "inputs": [
        {
          "internalType": "bytes32",
          "name": "bucketID",
          "type": "bytes32"
        },
        {
          "internalType": "uint256",
          "name": "amount",
          "type": "uint256"
        }
      ],
      "name": "bucketDeposit",
      "outputs": [
        {
          "internalType": "bool",
          "name": "",
          "type": "bool"
        }
      ],
      "stateMutability": "nonpayable",
      "type": "function"
    },
    {
      "inputs": [
        {
          "internalType": "bytes32",
          "name": "fromBucketID",
          "type": "bytes32"
        },
        {
          "internalType": "bytes32",
          "name": "toBucketID",
          "type": "bytes32"
        }
      ],
      "name": "bucketMerge",
      "outputs": [
        {
          "internalType": "bool",
          "name": "",
          "type": "bool"
        }
      ],
      "stateMutability": "nonpayable",
      "type": "function"
    },
    {
      "inputs": [
        {
          "internalType": "address",
          "name": "candidate",
          "type": "address"
        },
        {
          "internalType": "uint256",
          "name": "amount",
          "type": "uint256"
        }
      ],
      "name": "bucketOpen",
      "outputs": [
        {
          "internalType": "bytes32",
          "name": "bucketID",
          "type": "bytes32"
        },
        {
          "internalType": "bool",
          "name": "success",
          "type": "bool"
        }
      ],
      "stateMutability": "nonpayable",
      "type": "function"
    },
    {
      "inputs": [
        {
          "internalType": "bytes32",
          "name": "",
          "type": "bytes32"
        }
      ],
      "name": "bucketRevert",
      "outputs": [
        {
          "internalType": "bool",
          "name": "",
          "type": "bool"
        }
      ],
      "stateMutability": "view",
      "type": "function"
    },
    {
      "inputs": [
        {
          "internalType": "bytes32",
          "name": "fromBucketID",
          "type": "bytes32"
        },
        {
          "internalType": "bytes32",
          "name": "toBucketID",
          "type": "bytes32"
        },
        {
          "internalType": "uint256",
          "name": "amount",
          "type": "uint256"
        }
      ],
      "name": "bucketTransferFund",
      "outputs": [
        {
          "internalType": "bool",
          "name": "",
          "type": "bool"
        }
      ],
      "stateMutability": "nonpayable",
      "type": "function"
    },
    {
      "inputs": [
        {
          "internalType": "bytes32",
          "name": "",
          "type": "bytes32"
        }
      ],
      "name": "bucketUser",
      "outputs": [
        {
          "internalType": "address",
          "name": "",
          "type": "address"
        }
      ],
      "stateMutability": "view",
      "type": "function"
    },
    {
      "inputs": [
        {
          "internalType": "bytes32",
          "name": "bucketID",
          "type": "bytes32"
        }
      ],
      "name": "bucketValue",
      "outputs": [
        {
          "internalType": "uint256",
          "name": "",
          "type": "uint256"
        }
      ],
      "stateMutability": "view",
      "type": "function"
    },
    {
      "inputs": [
        {
          "internalType": "bytes32",
          "name": "bucketID",
          "type": "bytes32"
        },
        {
          "internalType": "uint256",
          "name": "amount",
          "type": "uint256"
        },
        {
          "internalType": "address",
          "name": "recipient",
          "type": "address"
        }
      ],
      "name": "bucketWithdraw",
      "outputs": [
        {
          "internalType": "bytes32",
          "name": "newBktID",
          "type": "bytes32"
        }
      ],
      "stateMutability": "nonpayable",
      "type": "function"
    },
    {
      "inputs": [],
      "name": "reward",
      "outputs": [],
      "stateMutability": "nonpayable",
      "type": "function"
    },
    {
      "inputs": [
        {
          "internalType": "bytes32",
          "name": "bucketID",
          "type": "bytes32"
        }
      ],
      "name": "setBucketRevert",
      "outputs": [],
      "stateMutability": "nonpayable",
      "type": "function"
    }
  ],
  "bytecode": "0x608060405234801561001057600080fd5b5060405161103338038061103383398101604081905261002f91610054565b600080546001600160a01b0319166001600160a01b0392909216919091179055610084565b60006020828403121561006657600080fd5b81516001600160a01b038116811461007d57600080fd5b9392505050565b610fa0806100936000396000f3fe608060405234801561001057600080fd5b50600436106100ea5760003560e01c806372be77a01161008c57806388b0e2a41161006657806388b0e2a41461020d5780639748bf5b14610238578063b7167f3a14610263578063b7b4de671461028657600080fd5b806372be77a0146101bc57806377d7f913146101cf5780637de9d11f146101e257600080fd5b80633a8dd82a116100c85780633a8dd82a14610149578063561f97be1461016857806362d3cc011461017b578063653d73a2146101a957600080fd5b80631b7846c0146100ef578063228cb733146101175780633060ef7214610121575b600080fd5b6101026100fd366004610db8565b6102af565b60405190151581526020015b60405180910390f35b61011f610444565b005b61013461012f366004610df6565b61053a565b6040805192835290151560208301520161010e565b336000908152600360205260409020545b60405190815260200161010e565b61015a610176366004610e20565b61070f565b61011f610189366004610e55565b6000908152600660205260409020805460ff19811660ff90911615179055565b6101026101b7366004610db8565b610878565b6101026101ca366004610e6e565b610924565b61011f6101dd366004610e55565b610a4d565b61015a6101f0366004610df6565b600260209081526000928352604080842090915290825290205481565b600054610220906001600160a01b031681565b6040516001600160a01b03909116815260200161010e565b61015a610246366004610e55565b336000908152600260209081526040808320938352929052205490565b610102610271366004610e55565b60066020526000908152604090205460ff1681565b610220610294366004610e55565b6001602052600090815260409020546001600160a01b031681565b60008281526006602052604081205460ff16156103035760405162461bcd60e51b815260206004820152600d60248201526c189d58dad95d081c995d995c9d609a1b60448201526064015b60405180910390fd5b33600090815260026020908152604080832086845290915290205461036a5760405162461bcd60e51b815260206004820152601160248201527f6275636b6574206e6f742065786973742100000000000000000000000000000060448201526064016102fa565b60005460405163bb35783b60e01b8152336004820152306024820152604481018490526001600160a01b039091169063bb35783b906064016020604051808303816000875af11580156103c1573d6000803e3d6000fd5b505050506040513d601f19601f820116820180604052508101906103e59190610e9a565b5033600090815260026020908152604080832086845290915281208054849290610410908490610ed2565b90915550503360009081526003602052604081208054849290610434908490610ed2565b9091555060019150505b92915050565b60006104506004610c17565b905060005b8181101561053657600061046a600483610c21565b6000818152600160209081526040808320546001600160a01b031680845260028352818420858552909252822054929350916104a890600a90610eea565b6000546040516340c10f1960e01b81526001600160a01b038581166004830152602482018490529293509116906340c10f19906044016020604051808303816000875af11580156104fd573d6000803e3d6000fd5b505050506040513d601f19601f820116820180604052508101906105219190610e9a565b505050508061052f90610f0c565b9050610455565b5050565b604080513360208083018290526001600160a01b0386168385015283518084038501815260609093018452825192810192909220600091825260028352838220818352909252918220549091901580156105a957506000828152600160205260409020546001600160a01b0316155b6105f55760405162461bcd60e51b815260206004820152600d60248201527f6275636b6574206578697374210000000000000000000000000000000000000060448201526064016102fa565b60005460405163bb35783b60e01b8152336004820152306024820152604481018590526001600160a01b039091169063bb35783b906064016020604051808303816000875af115801561064c573d6000803e3d6000fd5b505050506040513d601f19601f820116820180604052508101906106709190610e9a565b50600082815260016020908152604080832080547fffffffffffffffffffffffff00000000000000000000000000000000000000001633908117909155835260028252808320858452909152812080548592906106ce908490610ed2565b909155505033600090815260036020526040812080548592906106f2908490610ed2565b909155506107039050600483610c34565b50600190509250929050565b6000838152600160209081526040808320546001600160a01b03168084526002835281842087855290925282205484111561078c5760405162461bcd60e51b815260206004820152601260248201527f6275636b6574206e6f7420656e6f75676821000000000000000000000000000060448201526064016102fa565b60005460405163bb35783b60e01b81523060048201526001600160a01b038581166024830152604482018790529091169063bb35783b906064016020604051808303816000875af11580156107e5573d6000803e3d6000fd5b505050506040513d601f19601f820116820180604052508101906108099190610e9a565b506001600160a01b03811660009081526002602090815260408083208884529091528120805486929061083d908490610f27565b90915550506001600160a01b0381166000908152600360205260408120805486929061086a908490610f27565b909155509195945050505050565b60008181526006602052604081205460ff16156108c75760405162461bcd60e51b815260206004820152600d60248201526c189d58dad95d081c995d995c9d609a1b60448201526064016102fa565b6000838152600160209081526040808320546001600160a01b0316808452600283528184208785528084528285208054908690558786529352908320805491938392610914908490610ed2565b9091555060019695505050505050565b60008281526006602052604081205460ff16156109735760405162461bcd60e51b815260206004820152600d60248201526c189d58dad95d081c995d995c9d609a1b60448201526064016102fa565b33600090815260026020908152604080832087845290915290205468056bc75e2d63100000106109e55760405162461bcd60e51b815260206004820152600960248201527f313030206574686572000000000000000000000000000000000000000000000060448201526064016102fa565b33600090815260026020908152604080832087845290915281208054849290610a0f908490610f27565b909155505033600090815260026020908152604080832086845290915281208054849290610a3e908490610ed2565b90915550600195945050505050565b6000818152600160209081526040808320546001600160a01b0316808452600283528184208585529092529091205480610ac95760405162461bcd60e51b815260206004820152601160248201527f6275636b6574206e6f742065786973742100000000000000000000000000000060448201526064016102fa565b336001600160a01b03831614610b215760405162461bcd60e51b815260206004820152601060248201527f6275636b6574206e6f7420796f7572210000000000000000000000000000000060448201526064016102fa565b60005460405163bb35783b60e01b81523060048201526001600160a01b038481166024830152604482018490529091169063bb35783b906064016020604051808303816000875af1158015610b7a573d6000803e3d6000fd5b505050506040513d601f19601f82011682018060405250810190610b9e9190610e9a565b506001600160a01b0382166000818152600260209081526040808320878452825280832054938352600390915281208054909190610bdd908490610f27565b90915550506001600160a01b0382166000908152600260209081526040808320868452909152812055610c11600484610c40565b50505050565b600061043e825490565b6000610c2d8383610c4c565b9392505050565b6000610c2d8383610c76565b6000610c2d8383610cc5565b6000826000018281548110610c6357610c63610f3e565b9060005260206000200154905092915050565b6000818152600183016020526040812054610cbd5750815460018181018455600084815260208082209093018490558454848252828601909352604090209190915561043e565b50600061043e565b60008181526001830160205260408120548015610dae576000610ce9600183610f27565b8554909150600090610cfd90600190610f27565b9050818114610d62576000866000018281548110610d1d57610d1d610f3e565b9060005260206000200154905080876000018481548110610d4057610d40610f3e565b6000918252602080832090910192909255918252600188019052604090208390555b8554869080610d7357610d73610f54565b60019003818190600052602060002001600090559055856001016000868152602001908152602001600020600090556001935050505061043e565b600091505061043e565b60008060408385031215610dcb57600080fd5b50508035926020909101359150565b80356001600160a01b0381168114610df157600080fd5b919050565b60008060408385031215610e0957600080fd5b610e1283610dda565b946020939093013593505050565b600080600060608486031215610e3557600080fd5b8335925060208401359150610e4c60408501610dda565b90509250925092565b600060208284031215610e6757600080fd5b5035919050565b600080600060608486031215610e8357600080fd5b505081359360208301359350604090920135919050565b600060208284031215610eac57600080fd5b81518015158114610c2d57600080fd5b634e487b7160e01b600052601160045260246000fd5b60008219821115610ee557610ee5610ebc565b500190565b600082610f0757634e487b7160e01b600052601260045260246000fd5b500490565b6000600019821415610f2057610f20610ebc565b5060010190565b600082821015610f3957610f39610ebc565b500390565b634e487b7160e01b600052603260045260246000fd5b634e487b7160e01b600052603160045260246000fdfea264697066735822122028659a62c72c3bb025c6e28f52900123a82d81e2a8adf0ec1ca6e901cdded12564736f6c634300080b0033",
  "linkReferences": {},
  "deployedLinkReferences": {}
}