{
  "_format": "hh-sol-artifact-1",
  "contractName": "MockScriptEngine",
  "sourceName": "contracts/test/MockScriptEngine.sol",
  "abi": [
    {
      "inputs": [
        {
          "internalType": "contract MockMTRG",
          "name": "_MTRG",
          "type": "address"
        }
      ],
      "stateMutability": "nonpayable",
      "type": "constructor"
    },
    {
      "inputs": [],
      "name": "MTRG",
      "outputs": [
        {
          "internalType": "contract MockMTRG",
          "name": "",
          "type": "address"
        }
      ],
      "stateMutability": "view",
      "type": "function"
    },
    {
      "inputs": [],
      "name": "boundedMTRG",
      "outputs": [
        {
          "internalType": "uint256",
          "name": "",
          "type": "uint256"
        }
      ],
      "stateMutability": "view",
      "type": "function"
    },
    {
      "inputs": [
        {
          "internalType": "address",
          "name": "",
          "type": "address"
        },
        {
          "internalType": "bytes32",
          "name": "",
          "type": "bytes32"
        }
      ],
      "name": "bucket",
      "outputs": [
        {
          "internalType": "uint256",
          "name": "",
          "type": "uint256"
        }
      ],
      "stateMutability": "view",
      "type": "function"
    },
    {
      "inputs": [
        {
          "internalType": "bytes32",
          "name": "bucketID",
          "type": "bytes32"
        }
      ],
      "name": "bucketClose",
      "outputs": [],
      "stateMutability": "nonpayable",
      "type": "function"
    },
    {
      "inputs": [
        {
          "internalType": "bytes32",
          "name": "bucketID",
          "type": "bytes32"
        },
        {
          "internalType": "uint256",
          "name": "amount",
          "type": "uint256"
        }
      ],
      "name": "bucketDeposit",
      "outputs": [],
      "stateMutability": "nonpayable",
      "type": "function"
    },
    {
      "inputs": [
        {
          "internalType": "address",
          "name": "candidate",
          "type": "address"
        },
        {
          "internalType": "uint256",
          "name": "amount",
          "type": "uint256"
        }
      ],
      "name": "bucketOpen",
      "outputs": [
        {
          "internalType": "bytes32",
          "name": "bucketID",
          "type": "bytes32"
        }
      ],
      "stateMutability": "nonpayable",
      "type": "function"
    },
    {
      "inputs": [
        {
          "internalType": "bytes32",
          "name": "",
          "type": "bytes32"
        }
      ],
      "name": "bucketUser",
      "outputs": [
        {
          "internalType": "address",
          "name": "",
          "type": "address"
        }
      ],
      "stateMutability": "view",
      "type": "function"
    },
    {
      "inputs": [
        {
          "internalType": "bytes32",
          "name": "bucketID",
          "type": "bytes32"
        },
        {
          "internalType": "uint256",
          "name": "amount",
          "type": "uint256"
        },
        {
          "internalType": "address",
          "name": "recipient",
          "type": "address"
        }
      ],
      "name": "bucketWithdraw",
      "outputs": [
        {
          "internalType": "bytes32",
          "name": "newBktID",
          "type": "bytes32"
        }
      ],
      "stateMutability": "nonpayable",
      "type": "function"
    },
    {
      "inputs": [],
      "name": "reward",
      "outputs": [],
      "stateMutability": "nonpayable",
      "type": "function"
    }
  ],
  "bytecode": "0x608060405234801561001057600080fd5b50604051610c4f380380610c4f83398101604081905261002f91610054565b600080546001600160a01b0319166001600160a01b0392909216919091179055610084565b60006020828403121561006657600080fd5b81516001600160a01b038116811461007d57600080fd5b9392505050565b610bbc806100936000396000f3fe608060405234801561001057600080fd5b50600436106100935760003560e01c8063561f97be11610066578063561f97be146100f057806377d7f913146101035780637de9d11f1461011657806388b0e2a414610141578063b7b4de671461016c57600080fd5b80631b7846c014610098578063228cb733146100ad5780633060ef72146100b55780633a8dd82a146100db575b600080fd5b6100ab6100a63660046109dc565b610195565b005b6100ab6102c4565b6100c86100c3366004610a1a565b6103ba565b6040519081526020015b60405180910390f35b336000908152600360205260409020546100c8565b6100c86100fe366004610a44565b610532565b6100ab610111366004610a79565b61068a565b6100c8610124366004610a1a565b600260209081526000928352604080842090915290825290205481565b600054610154906001600160a01b031681565b6040516001600160a01b0390911681526020016100d2565b61015461017a366004610a79565b6001602052600090815260409020546001600160a01b031681565b3360009081526002602090815260408083208584529091529020546101f55760405162461bcd60e51b81526020600482015260116024820152706275636b6574206e6f742065786973742160781b60448201526064015b60405180910390fd5b60005460405163bb35783b60e01b81526001600160a01b039091169063bb35783b9061022990339030908690600401610a92565b6020604051808303816000875af1158015610248573d6000803e3d6000fd5b505050506040513d601f19601f8201168201806040525081019061026c9190610ab6565b5033600090815260026020908152604080832085845290915281208054839290610297908490610aee565b909155505033600090815260036020526040812080548392906102bb908490610aee565b90915550505050565b60006102d06004610835565b905060005b818110156103b65760006102ea600483610845565b6000818152600160209081526040808320546001600160a01b0316808452600283528184208585529092528220549293509161032890600a90610b06565b6000546040516340c10f1960e01b81526001600160a01b038581166004830152602482018490529293509116906340c10f19906044016020604051808303816000875af115801561037d573d6000803e3d6000fd5b505050506040513d601f19601f820116820180604052508101906103a19190610ab6565b50505050806103af90610b28565b90506102d5565b5050565b604080513360208083018290526001600160a01b0386168385015283518084038501815260609093018452825192810192909220600091825260028352838220818352909252919091205415801561042757506000818152600160205260409020546001600160a01b0316155b6104635760405162461bcd60e51b815260206004820152600d60248201526c6275636b65742065786973742160981b60448201526064016101ec565b60005460405163bb35783b60e01b81526001600160a01b039091169063bb35783b9061049790339030908790600401610a92565b6020604051808303816000875af11580156104b6573d6000803e3d6000fd5b505050506040513d601f19601f820116820180604052508101906104da9190610ab6565b50600081815260016020908152604080832080546001600160a01b0319163390811790915580845260028352818420858552835281842086905583526003909152902082905561052b600482610858565b5092915050565b6000838152600160209081526040808320546001600160a01b0316808452600283528184208785529092528220548411156105a45760405162461bcd60e51b81526020600482015260126024820152716275636b6574206e6f7420656e6f7567682160701b60448201526064016101ec565b60005460405163bb35783b60e01b81526001600160a01b039091169063bb35783b906105d890309087908990600401610a92565b6020604051808303816000875af11580156105f7573d6000803e3d6000fd5b505050506040513d601f19601f8201168201806040525081019061061b9190610ab6565b506001600160a01b03811660009081526002602090815260408083208884529091528120805486929061064f908490610b43565b90915550506001600160a01b0381166000908152600360205260408120805486929061067c908490610b43565b909155509195945050505050565b6000818152600160209081526040808320546001600160a01b03168084526002835281842085855290925290912054806106fa5760405162461bcd60e51b81526020600482015260116024820152706275636b6574206e6f742065786973742160781b60448201526064016101ec565b336001600160a01b038316146107455760405162461bcd60e51b815260206004820152601060248201526f6275636b6574206e6f7420796f75722160801b60448201526064016101ec565b60005460405163bb35783b60e01b81526001600160a01b039091169063bb35783b9061077990309086908690600401610a92565b6020604051808303816000875af1158015610798573d6000803e3d6000fd5b505050506040513d601f19601f820116820180604052508101906107bc9190610ab6565b506001600160a01b03821660008181526002602090815260408083208784528252808320549383526003909152812080549091906107fb908490610b43565b90915550506001600160a01b038216600090815260026020908152604080832086845290915281205561082f600484610864565b50505050565b600061083f825490565b92915050565b60006108518383610870565b9392505050565b6000610851838361089a565b600061085183836108e9565b600082600001828154811061088757610887610b5a565b9060005260206000200154905092915050565b60008181526001830160205260408120546108e15750815460018181018455600084815260208082209093018490558454848252828601909352604090209190915561083f565b50600061083f565b600081815260018301602052604081205480156109d257600061090d600183610b43565b855490915060009061092190600190610b43565b905081811461098657600086600001828154811061094157610941610b5a565b906000526020600020015490508087600001848154811061096457610964610b5a565b6000918252602080832090910192909255918252600188019052604090208390555b855486908061099757610997610b70565b60019003818190600052602060002001600090559055856001016000868152602001908152602001600020600090556001935050505061083f565b600091505061083f565b600080604083850312156109ef57600080fd5b50508035926020909101359150565b80356001600160a01b0381168114610a1557600080fd5b919050565b60008060408385031215610a2d57600080fd5b610a36836109fe565b946020939093013593505050565b600080600060608486031215610a5957600080fd5b8335925060208401359150610a70604085016109fe565b90509250925092565b600060208284031215610a8b57600080fd5b5035919050565b6001600160a01b039384168152919092166020820152604081019190915260600190565b600060208284031215610ac857600080fd5b8151801515811461085157600080fd5b634e487b7160e01b600052601160045260246000fd5b60008219821115610b0157610b01610ad8565b500190565b600082610b2357634e487b7160e01b600052601260045260246000fd5b500490565b6000600019821415610b3c57610b3c610ad8565b5060010190565b600082821015610b5557610b55610ad8565b500390565b634e487b7160e01b600052603260045260246000fd5b634e487b7160e01b600052603160045260246000fdfea26469706673582212208850846a53be7ed4e43cecc88f50a7680c5de7920dbeadf6281994eab5028cb864736f6c634300080b0033",
  "linkReferences": {},
  "deployedLinkReferences": {}
}